:100000000C9453010C947B010C947B010C947B01A8
:100010000C947B010C947B010C947B010C947B0170
:100020000C947B010C947B010C94CC1A0C943B1B1C
:100030000C947B010C947B010C947B010C947B0150
:100040000C947B010C947B010C947B010C947B0140
:100050000C947B010C947B010C947B010C94821A10
:100060000C947B010C947B010C947B010C947B0120
:100070000C947B010C947B010C947B010C947B0110
:100080000C947B010C947B010C947B010C947B0100
:100090000C947B010C947B010C947B010C947B01F0
:1000A0000C947B010C947B010C947B0100000000FC
:1000B0002300260029002C002F00080B000202025A
:1000C00000000904000001020200000524001001E4
:1000D0000524010101042402060524060001070588
:1000E000810310004009040100020A000000070516
:1000F00002024000000705830240000004030904D7
:1001000012010002EF02014041233680000101028A
:10011000030141726475696E6F204C4C430041725B
:100120006475696E6F204C656F6E6172646F00005C
:10013000000000240027002A002D003000000000ED
:1001400000250028002B002E0031000404040404C4
:10015000030405020202020403020202020606066A
:100160000606060404020202040404080201104008
:100170008040102040804080080204018040201010
:100180000201108010204040200000000200090FF2
:100190000000030401000C0000000000000000004B
:1001A0000000000000000000050C0901A10185010C
:1001B00015002501750195180A23020A8A011A24DF
:1001C000022A27020A21020A2A0209CD09B709B622
:1001D00009B509E909EA09E20A83010A01020A02EA
:1001E000020A07020A1A020A79021A1B022A1D02CF
:1001F0008102C000000000000000002A2B2800003F
:1002000000000000000000000000000000000000EE
:100210000000002C9EB4A0A1A2A434A6A7A5AE36CF
:100220002D3738271E1F20212223242526B333B63D
:100230002EB7B89F8485868788898A8B8C8D8E8F10
:10024000909192939495969798999A9B9C9D2F3113
:1002500030A3AD350405060708090A0B0C0D0E0F77
:10026000101112131415161718191A1B1C1DAFB1F3
:10027000B0B50005010906A1018502050719E029AD
:10028000E715002501750195088102950175088122
:100290000395067508150025730507190029738154
:1002A00000C0CE1DF72111241FBECFEFDAE0DEBF64
:1002B000CDBF24E0A8E9B1E001C01D92A13CB20786
:1002C000E1F711E0A0E0B1E0EAE1FAE402C0059054
:1002D0000D92A839B107D9F711E0C2E5D1E004C009
:1002E0002197FE010E94E322C135D107C9F70E9480
:1002F000181F0C9400250C94000020915902309195
:100300005A028217930738F4209155023091560211
:100310002115310529F41092BF018FEB91E008956A
:10032000820F931F0895FC018091BE01882311F173
:100330003FB7F89482E08093E9002091F200822F89
:1003400090E01816190614F481E090E0882339F043
:10035000289844E64093BD014091F1004083222358
:1003600039F02091F200211103C02BE62093E80020
:100370003FBF08958FEF9FEF089581508F3008F0B1
:1003800047C0E82FF0E0E953FE4F0C94E322E4016C
:10039000E801D601DC01E001080208020802EB01D5
:1003A000F101F501F901FF010802030280918000CB
:1003B0008F77809380000895809180008F7DF9CFA2
:1003C00080918000877FF5CF84B58F7784BD0895B5
:1003D00084B58F7DFBCF809190008F7780939000C4
:1003E0000895809190008F7DF9CF80919000877F54
:1003F000F5CF8091C0008F778093C00008958091E1
:10040000C0008F7DF9CF8091C200877F8093C200AA
:1004100008951F93CF93DF93282F30E0F901E7571A
:10042000FE4F8491F901E659FE4FD491F901E55B45
:10043000FE4FC491CC23A9F0162F81110E94BD015B
:10044000EC2FF0E0EE0FFF1FE35CFE4FA591B4919F
:100450008FB7F894EC91111108C0D095DE23DC938E
:100460008FBFDF91CF911F910895DE2BF8CFCF93EF
:10047000DF9390E0FC01E659FE4F2491855B9E4F8F
:10048000FC0184918823C9F090E0880F991FFC013A
:10049000E15DFE4FA591B491FC01E35CFE4FC59177
:1004A000D49161110DC09FB7F8948C91209582234F
:1004B0008C938881282328839FBFDF91CF91089553
:1004C000623051F49FB7F8943C91822F809583233A
:1004D0008C93E8812E2BEFCF8FB7F894EC912E2BD5
:1004E0002C938FBFEACF3FB7F8948091B9019091D8
:1004F000BA01A091BB01B091BC0126B5A89B05C073
:100500002F3F19F00196A11DB11D3FBFBA2FA92F92
:10051000982F8827BC01CD01620F711D811D911D8F
:1005200042E0660F771F881F991F4A95D1F70895FB
:100530008F929F92AF92BF92CF92DF92EF92FF92F3
:100540004B015C010E9473026B017C010E947302EB
:100550006C197D098E099F09683E734081059105DC
:10056000A8F321E0821A9108A108B10888EEC80E0C
:1005700083E0D81EE11CF11C81149104A104B10494
:1005800029F7FF90EF90DF90CF90BF90AF909F90B2
:100590008F9008952FB7F8946091B5017091B601CE
:1005A0008091B7019091B8012FBF089508954091AF
:1005B000AA015091AB012091A8013091A9014217E5
:1005C0005307B4F49091E8009570E1F39091E8003E
:1005D00092FD19C08093F1008091AA019091AB0126
:1005E00001968F739927892B19F48EEF8093E80079
:1005F0008091AA019091AB0101969093AB018093F9
:10060000AA0181E0089580E00895DF92EF92FF92C1
:100610000F931F93CF93DF93D82E8A01EB017B01B9
:10062000E40EF51ECE15DF0559F0D7FE12C0FE010F
:1006300084910E94D70221968111F4CF0FEF1FEF12
:10064000C801DF91CF911F910F91FF90EF90DF9044
:1006500008958881EECF2FB7F89487708093E900D2
:100660009091E800892F807295FF04C09091F2006C
:1006700080E4891B2FBF08957F928F929F92AF9243
:10068000BF92CF92DF92EF92FF920F931F93CF937F
:10069000DF93C82E8B017A018091BE01811110C0B9
:1006A0008FEF9FEFDF91CF911F910F91FF90EF9010
:1006B000DF90CF90BF90AF909F908F907F900895E4
:1006C0008091AE0180FF05C08091E0008260809340
:1006D000E000CE2DDF2DD12C8AEFB82E8C2D877027
:1006E000982E8C2D8072882E8C2D8074782E9AE313
:1006F000A92E209719F4DD2009F452C08C2D0E94F8
:100700002B0381110AC0BA94BB2051F261E070E062
:1007100080E090E00E949802ECCF8C171D0611F04B
:100720000CF08C2F9FB7F8949092E9002091E8008C
:1007300025FD02C09FBFDDCF282F30E0C21BD30BA9
:10074000882029F08150A0F01092F100FBCFF80131
:10075000C7FC0AC0815050F041914093F100FACF9C
:1007600044914093F10031968150D0F7020F131F4E
:10077000DD2021F0A092E800D12CDCCF8091E800B0
:1007800085FD07C0A092E800DD24D394209791F264
:10079000F3CF209779F6772069F2A092E800CACFCC
:1007A0005D9884E68093AD01C7017CCF615030F045
:1007B0002091F100FC0120830196F8CF289884E66F
:1007C0008093BD0108958091A00181110DC082E048
:1007D00080939C0184E080939D0110929F01109270
:1007E0009E0181E08093A0018CE991E00895CF9370
:1007F000DF9381E080932402809325022AE232E095
:100800003093270220932602109229021092280288
:100810002DE131E0309321022093200210922C022E
:1008200010922B0210922E0210922D0280932F0212
:100830008093300281EC80932A020E94E303FC0142
:10084000818190912402482F490F5527551F483028
:1008500051059CF5A281B381109709F520E232E0A1
:10086000338322832081209322028093230280916C
:100870002502820F808320912602A22FB0912702A9
:100880008A2F821B8917C8F481813D91C82FD0E03F
:10089000C45FDE4F38838F5F8183F2CFD901189612
:1008A0002D913C91199721153105C1F720E232E0D5
:1008B00019963C932E931897D5CFDF91CF91089539
:1008C0000F931F93CF93DF931F92CDB7DEB78C01A9
:1008D00080913102811105C00E94F70381E080936D
:1008E000310282E0898341E050E0BE016F5F7F4FBB
:1008F000809123020E943C0397FD08C0809123024F
:1009000048E050E0B80180640E943C030F90DF9102
:10091000CF911F910F910895E7E4F2E016821782BC
:10092000108611861286138614828BE492E00C9452
:1009300060040F931F93CF93DF931F92CDB7DEB761
:1009400082E0898342E450E06AEB70E080E80E9434
:1009500005030E94E303DC0112960D911C91011521
:10096000110589F0D801ED91FC910280F381E02D11
:10097000BE016F5F7F4FC801099597FD04C0F80164
:1009800000851185ECCF89810F90DF91CF911F9168
:100990000F910895CF93DF93EC0180910B01882391
:1009A00031F083E00E943C031816190634F081E010
:1009B00090E09B838A8380E090E0DF91CF9108955F
:1009C000CF93DF931F92CDB7DEB76983DC01ED9142
:1009D000FC910280F381E02D41E050E0BE016F5FA9
:1009E0007F4F09950F90DF91CF91089583E0809319
:1009F000E9008091F200882319F08AE38093E800EF
:100A0000089583E00E942B0390E00895CF93DF9335
:100A10001F92CDB7DEB7FC018485958597FD08C090
:100A20002FEF3FEF358724870F90DF91CF91089507
:100A3000CE0101960E949301019719F4898190E0FB
:100A4000F3CF8FEF9FEFF0CF0F931F930E94CA0257
:100A50006093CA017093CB018093CC019093CD0138
:100A600082EC91E00E94060597FF1DC00E94CA0219
:100A70000091CA011091CB012091CC013091CD01A0
:100A8000601B710B820B930B0091C6011091C70183
:100A90002091C8013091C90160177107820793073F
:100AA000F8F28FEF9FEF1F910F9108950F931F930F
:100AB000CF93DF931F92CDB7DEB78C01FC01848505
:100AC000958597FF0BC0CE0101960E949301019777
:100AD00071F4898190E0F80195878487F801848515
:100AE00095850F90DF91CF911F910F9108958FEF12
:100AF0009FEFF1CFFC018485958597FD0BC09FB7D3
:100B0000F89482E08093E9008091F2009FBF90E02A
:100B1000019608959FB7F89482E08093E900809150
:100B2000F2009FBF90E00895DC01FB0112962C912A
:100B30001297848195812817190641F4918180814B
:100B4000813A31F49D7F81E0913009F080E0089591
:100B50008132E1F79B3029F482811F968C9381E0EA
:100B600008959A3099F7828150968C93F8CFDC01E2
:100B7000FB0188E4808389E4818384E482831D9679
:100B80009C911D979F709F5B93831D968D919C9167
:100B900024E0969587952A95E1F78F708F5B848383
:100BA00085E00895EF92FF920F931F93CF93DF9309
:100BB000FB012081213871F52381223259F5DC01B6
:100BC00012964C91248135814217130619F5EC01D8
:100BD0000B851C85F12CE12C0115110589F0F8011C
:100BE000448155816281738180E80E9405038F3FB3
:100BF000980749F0E80EF91ED8010D911C91ECCF31
:100C000081E08F87C701DF91CF911F910F91FF90F6
:100C1000EF90089590E080E0F6CFCF93DF93CDB7CB
:100C2000DEB769970FB6F894DEBF0FBECDBFFC01EB
:100C3000DB018C918F5F8C939E012D5F3F4F8DE088
:100C4000D9011D928A95E9F729E0298384E08A83F6
:100C500091E09D8383E08E832A8721E22B879C8706
:100C60009D879F8722E2288B27E02B8B25E02C8B0A
:100C70008E8B20E430E0388F2F8B998F82818B838D
:100C800095858685998B8A8B838180688D8B49E1D8
:100C900050E0BE016F5F7F4F80E00E9405036996C0
:100CA0000FB6F894DEBF0FBECDBFDF91CF91089590
:100CB000CF92DF92EF92FF920F931F93CF93DF9328
:100CC0006C01EB017B01E40EF51E10E000E0CE1597
:100CD000DF0581F069916D30D1F3D601ED91FC9182
:100CE0000190F081E02DC6010995892B19F00F5F65
:100CF0001F4FEDCFC801DF91CF911F910F91FF9052
:100D0000EF90DF90CF900895DC01683888F1685843
:100D100016968C911697861721F117968C91179736
:100D20008617F9F018968C9118978617D1F01996B6
:100D30008C9119978617A9F01A968C911A97861795
:100D400081F01B968C911B97861759F0FD01369602
:100D500090E080E0219121114FC08A0F9B1FFC0180
:100D60006683CD0104960E94600481E090E00895BE
:100D7000862F90E067FF12C0FC01E058F10921E0E6
:100D800030E001C0220FEA95EAF714968C9114978F
:100D9000822B14968C93149760E0BACF1C96ED9139
:100DA000FC911D97E80FF91F6491611109C081E062
:100DB00090E013969C938E93129790E080E00895B4
:100DC000862F807C803C69F414968C911497806403
:100DD00014968C9314976F73623309F099CF64E67D
:100DE00097CF67FFF9CF14968C9114978260149671
:100DF0008C9314976F77F0CF01968630910509F0A8
:100E0000A9CFD5CFEF92FF921F93CF93DF93EC0141
:100E1000162F0E9484067C01E8E7E10F183890F451
:100E2000812F90E017FF2AC0FC01E058F10981E012
:100E300090E001C0880FEA95EAF780959C818923AC
:100E40008C83E0E0DE0186E0EE2341F016969C9173
:100E50001697E91303C016961C92169781501196A7
:100E60008111F2CFCE0104960E946004C701992738
:100E7000DF91CF911F91FF90EF900895EC85FD8554
:100E8000E80FF91FE491EE2389F38E2F807C803CDC
:100E900041F48C818F7B8C83EF73E23399F6E4E627
:100EA000D1CFE7FFFACF8C818D7F8C83EF77F5CFA1
:100EB00090E080E008958F929F92AF92BF92CF9280
:100EC000DF92EF92FF920F931F93CF93DF93EC018A
:100ED000898182FD14C085FD12C0EC89FD892081C5
:100EE0003E8981FB992790F983FB882780F9892720
:100EF000922F932321E009F020E082278A8B0E9421
:100F0000CA02AB01BC019A892B898881992309F413
:100F10007BC0211179C080FD5DC0816088834E87D0
:100F20005F87688B798B8B89882319F1992309F165
:100F30000D811E8130E020E0CE84DF84E888F988CE
:100F40004A015B018C189D08AE08BF087501640159
:100F5000C016D106E206F30660F0888181FD09C063
:100F60002B852D878A648F7788834E875F87688B70
:100F7000798B0E851F8528893989401B510B620B9F
:100F8000730B0F81188530E020E04017510762078E
:100F9000730750F08B85882339F0911105C08C8739
:100FA0001B86888184608883898186FF06C01C86B1
:100FB00098819B7F98838F7B8983DF91CF911F914D
:100FC0000F91FF90EF90DF90CF90BF90AF909F90E8
:100FD0008F9008950E851F85288939896A017B01C4
:100FE000C01AD10AE20AF30A0B811C8130E020E02A
:100FF000C016D106E206F30608F4BBCF21E02B8B26
:101000008062806888838FCF8E7F888391118BCF99
:10101000222309F4AECF1B8A81FD03C08B858F5F2D
:101020008B8788818D7F806188834E875F87688BFF
:10103000798B86FF04C01C861B868F7B8883888102
:1010400087FF97CF8F7788838981816089836BCF72
:10105000CF92DF92EF92FF921F93CF93DF93EC0139
:10106000898184FF03C0CE010E945B078B858823A2
:1010700051F010E0812FDF91CF911F91FF90EF9001
:10108000DF90CF900895888186FB112710F986FFA5
:10109000F0CF0E94CA02CE84DF84E888F988AB01D1
:1010A000BC014C195D096E097F0989859A85B0E0FC
:1010B000A0E0481759076A077B07D8F20E94CA02C6
:1010C0006E877F87888B998BD5CFCF93DF93EC0189
:1010D0008981846089838695817068276A8BCE01B7
:1010E0000E945B0789818B7F8983DF91CF9108956F
:1010F000FC01808191819E7F918387788B7F8083A3
:10110000158614860895CF93DF93EC01898184FFBF
:1011100003C0CE010E945B07988192FB882780F96B
:1011200092FF06C09C85913031F499819064998337
:10113000DF91CF91089580E0FBCFCF93DF93EC0157
:10114000898184FF03C0CE010E945B07988193FBD5
:10115000882780F993FF02C0977F9883DF91CF9112
:101160000895CF93DF93EC01898184FF03C0CE0102
:101170000E945B07988194FB882780F994FF02C046
:101180009F7E9883DF91CF910895CF93DF93EC01F9
:10119000898184FF03C0CE010E945B07988195FB83
:1011A000882780F995FF02C09F7D9883DF91CF91BA
:1011B0000895CF93DF93EC01898160FB83F98983E4
:1011C00085FD1AC08A816623D1F060E00E94370253
:1011D0008A8190E0FC01E55BFE4FE491F0E0EE0FC8
:1011E000FF1FE455FF4F259134913D8B2C8BFC0163
:1011F000E659FE4FE491EE8BDF91CF91089562E0C6
:10120000E5CF8F929F92AF92BF92CF92DF92EF92F3
:10121000FF920F931F93CF93DF9361E084E00E94CE
:10122000090260E087E00E94090261E087E00E9415
:10123000090260E084E00E940902CFE0D0E010E003
:1012400000E09EE8E92E91E0F92E2FE6C22E21E083
:10125000D22E30E5A32E31E0B32EF7018491F601B2
:101260009490F5018490882009F43AC081110E947D
:10127000BD01E82DF0E0EE0FFF1FE455FF4FA591F3
:10128000B4918C91982231E020E009F430E0832F72
:10129000922F092E000CAA0BBB0B0C2E04C0880F3A
:1012A000991FAA1FBB1F0A94D2F7082B192B61E0C4
:1012B00086E00E94090260E086E00E940902219710
:1012C00008F0CBCFC801DF91CF911F910F91FF9014
:1012D000EF90DF90CF90BF90AF909F908F90089548
:1012E00090E080E0D6CFFC0101900020E9F7319733
:1012F000AF01481B590BBC0182EC91E00C94CA046D
:101300008F929F92AF92BF920F931F93CF93DF93D1
:10131000CDB7DEB7A1970FB6F894DEBF0FBECDBF35
:1013200019A2423008F44AE08E010F5D1F4F842E4F
:10133000912CB12CA12CA50194010E94C122E62F71
:10134000B901CA01EA30F4F4E05DD801EE938D01F1
:10135000232B242B252B79F790E080E0109719F0B0
:10136000CD010E947309A1960FB6F894DEBF0FBE9F
:10137000CDBFDF91CF911F910F91BF90AF909F9004
:101380008F900895E95CE1CFCF93DF93FC01448116
:1013900055816081718182EC91E00E94CA04EC0168
:1013A00085E991E00E9473098C0F9D1FDF91CF9119
:1013B0000895CF93DF9320915F0230916002232B39
:1013C00089F0FC01C0915B02D0915C026081718167
:1013D000CE010E94E624009729F08C1B9D0BDF9123
:1013E000CF9108958FEF9FEFFACFCF93DF93FC015A
:1013F000248135816217730788F49B01C081D181F4
:1014000064E270E0CE01820F931F0E94D424009703
:1014100029F08C1B9D0BDF91CF9108958FEF9FEFEB
:10142000FACFFC0180819181009711F00C94032286
:1014300060E070E0CB0108950F931F93CF93DF938B
:101440008C01EB01FC01808191810097E1F06881C2
:10145000798161157105A9F0428153812C813D810B
:101460004217530770F00E94DF248C819D81F801A0
:10147000958384831D821C82DF91CF911F910F91F0
:1014800008950E94852388819981F8019183808342
:101490008A819B81938382838C819D8195838483C0
:1014A000198218821B821A82E5CFCF93DF93EC0159
:1014B00088819981009711F00E94852319821882F2
:1014C0001D821C821B821A82DF91CF910895FC013C
:1014D00080819181009711F00C94852308950F93DA
:1014E0001F93CF93DF93EC0188819981009759F086
:1014F0002A813B812617370730F081E0DF91CF91B9
:101500001F910F9108958B016F5F7F4F0E940E24F2
:10151000009759F0998388831B830A832C813D812E
:10152000232B59F7FC011082E8CF80E0E7CFEF9240
:10153000FF920F931F93CF93DF936115710541F4D1
:1015400080E0DF91CF911F910F91FF90EF90089570
:1015500041155105B1F07B01EC010C811D81040F97
:10156000151FB8010E946F0A882351F32881398121
:101570008C819D81B701820F931F0E94DF241D8300
:101580000C8381E0DECFEF92FF920F931F93CF93F6
:10159000DF9300D000D0CDB7DEB77C01862F4AE0C4
:1015A0008E010F5F1F4FB80190E00E942A22F801C0
:1015B00001900020E9F73197AF01401B510BB801B2
:1015C000C7010E94970A0F900F900F900F90DF9124
:1015D000CF911F910F91FF90EF900895EF92FF929E
:1015E0000F931F93CF93DF93EC017B018A01BA0124
:1015F0000E946F0A81110BC0CE010E94550ACE01D4
:10160000DF91CF911F910F91FF90EF9008951D836F
:101610000C83B701888199810E94DF24F0CFFB0100
:1016200001900020E9F73197AF01461B570B0C944E
:10163000EE0A0F931F93CF93DF93CDB7DEB72997B1
:101640000FB6F894DEBF0FBECDBF8C01862FF80118
:101650001182108213821282158214824AE0BE0126
:101660006F5F7F4F90E00E944A22BE016F5F7F4F05
:10167000C8010E940F0B29960FB6F894DEBF0FBE6B
:10168000CDBFDF91CF911F910F910895CF93DF933D
:10169000EC01FB018617970749F0608171816115A4
:1016A000710541F0448155810E94EE0ACE01DF911F
:1016B000CF9108950E94550AF9CFFC011182108242
:1016C0001382128215821482FB0101900020E9F737
:1016D0003197AF01461B570B0C94EE0AAF92BF92A5
:1016E000CF92DF92EF92FF920F931F93CF93DF93EE
:1016F0006C015B017A0189012417350720F48F2DD5
:101700007901042F182F67E971E0C6010E945D0B73
:10171000D5011496CD91DC91EC16FD06E0F40C1782
:101720001D0708F4E801D501ED91FC911197EC0F2C
:10173000FD1F108110826D917C916E0D7F1DC60181
:1017400061157105A1F00E940F0BF5018081918157
:10175000C80FD91F1883C601DF91CF911F910F9138
:10176000FF90EF90DF90CF90BF90AF9008950E94D0
:10177000550AEBCFCF93DF93EB010E94742288834D
:10178000CE01DF91CF910895CF92DF92EF92FF9239
:101790000F931F93CF93DF9300D000D01F92CDB74C
:1017A000DEB79091C101992349F17B01182F60ECBC
:1017B00071E085EF93E00E94BA0B8091C001811720
:1017C000E9F06E0186E0C80ED11C8E010F5F1F4F3D
:1017D000E01AF10AB801C701800F911F0E94BA0BED
:1017E000F80161918F01662339F087E492E00E944D
:1017F00084060C151D0571F70E948C041092C1011E
:101800000F900F900F900F900F90DF91CF911F913D
:101810000F91FF90EF90DF90CF900895DF92EF92BD
:10182000FF920F931F93CF93DF931F92CDB7DEB735
:101830009091C101992381F195E0899F8001112444
:1018400082E8689F000D111D11240E571F4FF12CC7
:10185000E12CBE016F5F7F4FC701800F911F0E9477
:10186000BA0B89818823C1F08D1102C00E948C04BB
:10187000698187E492E00E94840668E270E080E07B
:1018800090E00E9498029FEFE91AF90A85E0E816B5
:10189000F10411F0D980DDCF1092C1010F90DF91DA
:1018A000CF911F910F91FF90EF90DF900895AF922D
:1018B000BF92CF92DF92EF92FF920F931F93CF933D
:1018C000DF93CDB7DEB761970FB6F894DEBF0FBEDA
:1018D000CDBF5C017B018E01035F1F4F85E0F801E6
:1018E00011928A95E9F767E971E0CE0107960E94A7
:1018F0005D0BF1E0EF16F104D1F084E091E022E01D
:10190000E216F104B1F083E0E816F10409F482C0B4
:1019100088E092E0E4E0EE16F10489F090E080E0E7
:10192000F5E0EF16F10429F48AE892E008C082E8B5
:1019300090E026E0E216F10411F48CE093E025E05B
:101940002A9D60012B9DD00C1124F12CE12CC80E96
:10195000D91EB801C6018E0D9F1D0E94BA0B84E0EE
:10196000E816F10409F459C0F801B0801A8219820E
:101970001C821B821E821D82BE01695F7F4FCE01C9
:1019800001960E94460B6B2DCE0101960E94C30A60
:10199000811104C0CE0101960E94550A41E050E039
:1019A00063E471E0CE0101960E94970A811104C0A0
:1019B000CE0101960E94550ABE016F5F7F4FCE0196
:1019C00007960E94460BCE0101960E94670AFFEF20
:1019D000EF1AFF0A0F5F1F4F25E0E216F10409F02E
:1019E000B8CFCE0107960E94C409CE0107960E9487
:1019F000670A61960FB6F894DEBF0FBECDBFDF91C8
:101A0000CF911F910F91FF90EF90DF90CF90BF90FB
:101A1000AF90089586E891E092CFB9881A82198232
:101A20001C821B821E821D82BE01695F7F4FCE0118
:101A300001960E94460B6B2DCE0101960E94C30AAF
:101A4000B5CFFF920F931F93CF93DF93EC01F62E48
:101A500008811981C8010E947422F81621F06F2DA7
:101A6000C8010E947C22CE01DF91CF911F910F917E
:101A7000FF900895CF92DF92EF92FF920F931F9302
:101A8000CF93DF9300D0CDB7DEB761307105B9F0E9
:101A900024E031E062307105A1F026E831E06330E6
:101AA0007105A1F028E032E06430710579F030E092
:101AB00020E06530710529F42AE832E007C022E809
:101AC00030E06630710511F42CE033E065E0689F8A
:101AD0008001699F100D11247A01D12CC12C020FB5
:101AE000131FF7016081F2E0EF0EF11CC8018C0DAD
:101AF0009D1D9A838983CE0101960E94210D8FEF4F
:101B0000C81AD80AE5E0CE16D10459F70F900F9005
:101B1000DF91CF911F910F91FF90EF90DF90CF90C9
:101B20000895AF92BF92CF92DF92EF92FF920F9300
:101B30001F93CF93DF93CDB7DEB76D970FB6F894B1
:101B4000DEBF0FBECDBF0E9401099093B10180930B
:101B5000B0011B8A1A8A1D8A1C8A1F8A1E8A42E0CB
:101B6000BE016F5F7F4F0E944A22BE016F5F7F4FB1
:101B7000CE0142960E940F0BBE016E5E7F4F85E53F
:101B800092E00E941C0ACE0142960E94670A809150
:101B9000590290915A02409718F565E471E0CE0120
:101BA00001960E945D0B4091590250915A0260913A
:101BB000550270915602CE0101960E94970A81113A
:101BC00004C0CE0101960E94550ABE016F5F7F4F8F
:101BD00085E592E00E94460BCE0101960E94670ABD
:101BE00087E090E00E947D0161E0FC01808180330C
:101BF00009F060E086EA94E00E94650886E090E0E3
:101C00000E947D0161E0FC018081803309F060E089
:101C10008FE894E00E94650885E090E00E947D01D5
:101C200061E0FC018081803309F060E088E794E0A6
:101C30000E94650884E090E00E947D0161E0FC0163
:101C40008081803309F060E081E694E00E946508BD
:101C500083E090E00E947D0161E0FC01808180339F
:101C600009F060E08AE494E00E94650882E090E078
:101C70000E947D0161E0FC018081803309F060E019
:101C800083E394E00E94650881E090E00E947D017A
:101C900061E0FC018081803309F060E08CE194E038
:101CA0000E94650890E080E00E947D0161E0FC01F7
:101CB0008081803309F060E085E094E00E9465084F
:101CC0008FE090E00E947D0161E0FC018081803323
:101CD00009F060E08EEE93E00E9465088EE090E0EF
:101CE0000E947D0161E0FC018081803309F060E0A9
:101CF00087ED93E00E9465088DE090E00E947D01F1
:101D000061E0FC018081803309F060E080EC93E0C9
:101D10000E9465088CE090E00E947D0161E0FC017A
:101D20008081803309F060E089EA93E00E946508D1
:101D30008BE090E00E947D0161E0FC0180818033B6
:101D400009F060E082E993E00E9465088AE090E093
:101D50000E947D0161E0FC018081803309F060E038
:101D60008BE793E00E94650889E090E00E947D0186
:101D700061E0FC018081803309F060E084E693E05B
:101D80000E94650888E090E00E947D0161E0FC010E
:101D90008081803309F060E08DE493E00E94650863
:101DA00086E393E00E945B078FE193E00E945B076C
:101DB00088E093E00E945B0781EF92E00E945B075E
:101DC0008AED92E00E945B0783EC92E00E945B0741
:101DD0008CEA92E00E945B0785E992E00E945B0733
:101DE0008EE792E00E945B0787E692E00E945B0725
:101DF00082EC91E00E947A05892B09F421C467E9FD
:101E000071E0CE0101960E945D0B0E94240597FDB2
:101E10000FC08A30910561F08A8B1B8A41E050E047
:101E2000BE016E5E7F4FCE0101960E94970AEDCFF4
:101E3000BE016F5F7F4F8BE592E00E941C0ACE01CE
:101E400001960E94670A67E471E0CE0101960E9444
:101E50005D0BCE0101960E94D9098C01CE0101963D
:101E60000E94670A012B21F481E692E00E94C409D6
:101E700069E471E0CE0101960E945D0BCE010196EE
:101E80000E94D9098C01CE0101960E94670A012B9C
:101E900009F03BC16CE471E0CE0101960E945D0B3C
:101EA000CE0101960E94D9098C01CE0101960E94B3
:101EB000670A012BE1F426E030E043E050E06BE5F7
:101EC00072E0CE0101960E946E0BCE0101960E9437
:101ED000110A6B0170939B0160939A01CE010196E8
:101EE0000E94670A70E060E0C6010E94570C60E53E
:101EF00071E0CE0101960E945D0BCE0101960E9419
:101F0000D9098C01CE0101960E94670A012BE1F4E8
:101F100026E030E043E050E06BE572E0CE01019650
:101F20000E946E0BCE0101960E94110A6B01709304
:101F30009B0160939A01CE0101960E94670A61E0BD
:101F400070E0C6010E94570C64E571E0CE01019675
:101F50000E945D0BCE0101960E94D9098C01CE0131
:101F600001960E94670A012BE1F426E030E044E08C
:101F700050E06BE572E0CE0101960E946E0BCE013F
:101F800001960E94110A6B0170939B0160939A0164
:101F9000CE0101960E94670A62E070E0C6010E94CD
:101FA000570C69E571E0CE0101960E945D0BCE01F0
:101FB00001960E94D9098C01CE0101960E94670A00
:101FC000012BE1F426E030E044E050E06BE572E004
:101FD000CE0101960E946E0BCE0101960E94110A5D
:101FE0006B0170939B0160939A01CE0101960E9450
:101FF000670A63E070E0C6010E94570C6EE571E06D
:10200000CE0101960E945D0BCE0101960E94D90976
:102010008C01CE0101960E94670A012BE1F426E0B3
:1020200030E044E050E06BE572E0CE0101960E94A2
:102030006E0BCE0101960E94110A6B0170939B01F9
:1020400060939A01CE0101960E94670A64E070E0F5
:10205000C6010E94570C63E671E0CE0101960E9412
:102060005D0BCE0101960E94D9098C01CE0101962B
:102070000E94670A012BE1F426E030E044E050E0E2
:102080006BE572E0CE0101960E946E0BCE010196C7
:102090000E94110A6B0170939B0160939A01CE011B
:1020A00001960E94670A65E070E0C6010E94570C25
:1020B00068E671E0CE0101960E945D0BCE010196AB
:1020C0000E94D9098C01CE0101960E94670A012B5A
:1020D000E1F426E030E044E050E06BE572E0CE0150
:1020E00001960E946E0BCE0101960E94110A6B01AF
:1020F00070939B0160939A01CE0101960E94670A3A
:1021000066E070E0C6010E94570C6DE671E0CE01FA
:1021100001960E945D0BCE0101960E94D9098C01A7
:10212000CE0101960E94670A012B61F46091C00103
:1021300070E090E080E04AE00E94800985E991E04B
:102140000E94730963E471E0CE0101960E945D0B69
:10215000CE0101960E94D9098C01CE0101960E9400
:10216000670A012BE1F44AE061E070E080E090E072
:102170000E9480096EE282EC91E00E94E0044AE055
:1021800060E070E0CB010E9480094AE060E070E00E
:10219000CB010E94800985E991E00E9473096FE6F6
:1021A00071E0CE0101960E945D0BCE0101960E9466
:1021B000D9098C01CE0101960E94670A012B61F4B6
:1021C0006091B20170E090E080E04AE00E948009F6
:1021D00085E991E00E94730961E771E0CE01019603
:1021E0000E945D0BCE0101960E94D9098C01CE019F
:1021F00001960E94670A012B09F088C020915F02B6
:102200003091600241E050E06BE572E0CE01019652
:102210000E946E0BCE0101960E94110A6093B201DA
:10222000CE0101960E94670A84EF93E09A83898326
:102230006091B201CE0101960E94210D86EA94E0E0
:102240000E9478088FE894E00E94780888E794E07C
:102250000E94780881E694E00E9478088AE494E07D
:102260000E94780883E394E00E9478088CE194E06F
:102270000E94780885E094E00E9478088EEE93E052
:102280000E94780887ED93E00E94780880EC93E044
:102290000E94780889EA93E00E94780882E993E036
:1022A0000E9478088BE793E00E94780884E693E028
:1022B0000E9478088DE493E00E94780886E393E01A
:1022C0000E9478088FE193E00E94780888E093E00C
:1022D0000E94780881EF92E00E9478088AED92E0EF
:1022E0000E94780883EC92E00E9478088CEA92E0E1
:1022F0000E94780885E992E00E9478088EE792E0D3
:102300000E94780887E692E00E94780863E771E00F
:10231000CE0101960E945D0BCE0101960E94D90963
:102320008C01CE0101960E94670A0115110509F082
:1023300041C020915F023091600241E050E06BE5C6
:1023400072E0CE0148960E946E0BCE0101966C01A0
:10235000B801CE0148960E94F5097C019FEFE9166D
:10236000F906C9F09701A801BE01685E7F4FCE0152
:1023700042960E946E0BCE0142960E94110AF6010F
:10238000619371936F0187010F5F1F4FCE014296DA
:102390000E94670ADDCFAE014F5F5F4F70E060E0E3
:1023A00080919A0190919B010E943A0DCE0148962E
:1023B0000E94670A65E771E0CE0101960E945D0BFD
:1023C000CE0101960E94D9098C01CE0101960E948E
:1023D000670A0115110509F041C020915F02309193
:1023E000600241E050E06BE572E0CE0148960E9449
:1023F0006E0BCE0101966C01B801CE0148960E9489
:10240000F5097C019FEFE916F906C9F09701A801CB
:10241000BE01685E7F4FCE0142960E946E0BCE01D8
:1024200042960E94110AF601619371936F01870130
:102430000F5F1F4FCE0142960E94670ADDCFAE01AB
:102440004F5F5F4F61E070E080919A0190919B0136
:102450000E943A0DCE0148960E94670A67E771E034
:10246000CE0101960E945D0BCE0101960E94D90912
:102470007C01CE0101960E94670AE114F10409F083
:102480009BC069E771E0CE0101960E945D0BCE0111
:1024900001960E94670A6CE771E0CE0101960E94E6
:1024A0005D0BCE0101960E94D9098C01CE010196E7
:1024B0000E94670A012B09F06EC003E010E06FE78D
:1024C00071E0CE0101960E945D0BCE0101960E9443
:1024D000D9096C01CE0101960E94670ACD2811F43A
:1024E00004E010E062E871E0CE0101960E945D0B0D
:1024F000CE0101960E94D9096C01CE0101960E947D
:10250000670ACD2811F405E010E065E871E0CE011E
:1025100001960E945D0BCE0101960E94D9096C01C3
:10252000CE0101960E94670ACD2811F406E010E062
:1025300020915F023091600242E050E06BE572E072
:10254000CE0148960E946E0BCE0101965C01B70148
:10255000CE0148960E94F5096C019FEFC916D90675
:10256000E9F09601A701BE01685E7F4FCE01429659
:102570000E946E0BCE0142960E94110AF5016193F2
:1025800071935F017601FFEFEF1AFF0ACE014296C9
:102590000E94670ADCCF02E010E091CFAE014F5FEE
:1025A0005F4FB80180919A0190919B010E943A0D72
:1025B000CE0148960E94670A68E871E0CE01019654
:1025C0000E945D0BCE0101960E94D9098C01CE01BB
:1025D00001960E94670A012B99F520915F023091C4
:1025E000600241E050E06BE572E0CE0101960E948E
:1025F0006E0BCE0101960E94110A8B01CE0101964D
:102600000E94670A85EF93E09A838983602FCE0149
:1026100001960E94210D86EF93E09A838983612FB2
:10262000CE0101960E94210D64E670E080E090E00A
:102630000E94980260EC71E085EF93E00E94BA0B73
:102640008091B20181116AC486EA94E00E948308F5
:10265000882371F01092990111E0109398010E9463
:10266000CA021093C10170E060E080E00E94C40BD8
:1026700086EA94E00E949D08882379F010929901DF
:1026800082E0809398010E94CA0281E08093C10198
:1026900062E870E080E00E94C40B8FE894E00E9442
:1026A0008308882371F011E0109399011093980129
:1026B0000E94CA021093C10165E070E081E00E94AF
:1026C000C40B8FE894E00E949D08882379F011E004
:1026D0001093990182E0809398010E94CA0210939E
:1026E000C10167E870E081E00E94C40B88E794E0D4
:1026F0000E948308882379F082E08093990111E099
:10270000109398010E94CA021093C1016AE070E020
:1027100082E00E94C40B88E794E00E949D08882311
:1027200079F082E080939901809398010E94CA0217
:1027300081E08093C1016CE870E082E00E94C40BEC
:1027400081E694E00E948308882379F083E08093F7
:10275000990111E0109398010E94CA021093C101DF
:102760006FE070E083E00E94C40B81E694E00E9479
:102770009D08882381F083E08093990182E0809313
:1027800098010E94CA0281E08093C10161E970E072
:1027900083E00E94C40B8AE494E00E949D08882391
:1027A00081F084E08093990182E0809398010E94F7
:1027B000CA0281E08093C10166E970E084E00E9472
:1027C000C40B8AE494E00E948308882379F084E0B3
:1027D0008093990111E0109398010E94CA0210930E
:1027E000C10164E170E084E00E94C40B83E394E0E3
:1027F0000E948308882379F085E08093990111E095
:10280000109398010E94CA021093C10169E170E01F
:1028100085E00E94C40B83E394E00E949D08882316
:1028200081F085E08093990182E0809398010E9475
:10283000CA0281E08093C1016BE970E085E00E94EB
:10284000C40B8CE194E00E948308882379F086E031
:102850008093990111E0109398010E94CA0210938D
:10286000C1016EE170E086E00E94C40B8CE194E04F
:102870000E949D08882381F086E08093990182E080
:10288000809398010E94CA0281E08093C10160EAAE
:1028900070E086E00E94C40B85E094E00E9483080B
:1028A000882379F087E08093990111E010939801D3
:1028B0000E94CA021093C10163E270E087E00E94A7
:1028C000C40B85E094E00E949D08882381F087E096
:1028D0008093990182E0809398010E94CA0281E06E
:1028E0008093C10165EA70E087E00E94C40B8EEE20
:1028F00093E00E948308882379F088E0809399010F
:1029000011E0109398010E94CA021093C10168E27D
:1029100070E088E00E94C40B8EEE93E00E949D0858
:10292000882381F088E08093990182E08093980168
:102930000E94CA0281E08093C1016AEA70E088E0E7
:102940000E94C40B87ED93E00E948308882379F0EE
:1029500089E08093990111E0109398010E94CA02C6
:102960001093C1016DE270E089E00E94C40B87ED15
:1029700093E00E949D08882381F089E0809399016B
:1029800082E0809398010E94CA0281E08093C10195
:102990006FEA70E089E00E94C40B80EC93E00E9433
:1029A0008308882379F08AE08093990111E01093DD
:1029B00098010E94CA021093C10162E370E08AE0AC
:1029C0000E94C40B80EC93E00E949D08882381F054
:1029D0008AE08093990182E0809398010E94CA0264
:1029E00081E08093C10164EB70E08AE00E94C40B37
:1029F00089EA93E00E948308882379F08BE0809332
:102A0000990111E0109398010E94CA021093C1012C
:102A100067E370E08BE00E94C40B89EA93E00E94B8
:102A20009D08882381F08BE08093990182E0809358
:102A300098010E94CA0281E08093C10169EB70E0B5
:102A40008BE00E94C40B82E993E00E9483088823F4
:102A500079F08CE08093990111E0109398010E9425
:102A6000CA021093C1016CE370E08CE00E94C40BB9
:102A700082E993E00E949D08882381F08CE0809396
:102A8000990182E0809398010E94CA0281E08093BC
:102A9000C1016EEB70E08CE00E94C40B8BE793E009
:102AA0000E948308882379F08DE08093990111E0DA
:102AB000109398010E94CA021093C10161E470E072
:102AC0008DE00E94C40B8BE793E00E949D08882351
:102AD00081F08DE08093990182E0809398010E94BB
:102AE000CA0281E08093C10163EC70E08DE00E9436
:102AF000C40B84E693E00E948308882379F08EE07B
:102B00008093990111E0109398010E94CA021093DA
:102B1000C10166E470E08EE00E94C40B84E693E09D
:102B20000E949D08882381F08EE08093990182E0C5
:102B3000809398010E94CA0281E08093C10168ECF1
:102B400070E08EE00E94C40B8DE493E00E94830845
:102B5000882379F08FE08093990111E01093980118
:102B60000E94CA021093C1016BE470E08FE00E94E2
:102B7000C40B8DE493E00E949D08882381F08FE0D0
:102B80008093990182E0809398010E94CA0281E0BB
:102B90008093C1016DEC70E08FE00E94C40B86E36E
:102BA00093E00E948308882379F080E18093990163
:102BB00011E0109398010E94CA021093C10160E5D0
:102BC00070E080E10E94C40B86E393E00E949D08C0
:102BD000882381F080E18093990182E080939801BD
:102BE0000E94CA0281E08093C10162ED70E080E141
:102BF0000E94C40B8FE193E00E948308882379F040
:102C000081E18093990111E0109398010E94CA021A
:102C10001093C10165E570E081E10E94C40B8FE172
:102C200093E00E949D08882381F081E180939901BF
:102C300082E0809398010E94CA0281E08093C101E2
:102C400067ED70E081E10E94C40B88E093E00E9490
:102C50008308882379F082E18093990111E0109331
:102C600098010E94CA021093C1016AE570E082E1F6
:102C70000E94C40B88E093E00E949D08882381F0A5
:102C800082E18093990182E0809398010E94CA02B8
:102C900081E08093C1016CED70E082E10E94C40B81
:102CA00081EF92E00E948308882379F083E180938A
:102CB000990111E0109398010E94CA021093C1017A
:102CC0006FE570E083E10E94C40B81EF92E00E9407
:102CD0009D08882381F083E18093990182E08093AD
:102CE00098010E94CA0281E08093C10161EE70E008
:102CF00083E10E94C40B8AED92E00E94830888233E
:102D000079F084E18093990111E0109398010E9479
:102D1000CA021093C10164E670E084E10E94C40B12
:102D20008AED92E00E949D08882381F084E18093DF
:102D3000990182E0809398010E94CA0281E0809309
:102D4000C10166EE70E084E10E94C40B83EC92E066
:102D50000E948308882379F085E18093990111E02E
:102D6000109398010E94CA021093C10169E670E0B5
:102D700085E10E94C40B83EC92E00E949D088823A9
:102D800081F085E18093990182E0809398010E940F
:102D9000CA0281E08093C1016BEE70E085E10E9480
:102DA000C40B8CEA92E00E948308882379F086E1C4
:102DB0008093990111E0109398010E94CA02109328
:102DC000C1016EE670E086E10E94C40B8CEA92E0DD
:102DD0000E949D08882381F086E18093990182E01A
:102DE000809398010E94CA0281E08093C10160EF44
:102DF00070E086E10E94C40B85E992E00E9483089E
:102E0000882379F087E18093990111E0109398016C
:102E10000E94CA021093C10163E770E087E10E943B
:102E2000C40B85E992E00E949D08882381F087E128
:102E30008093990182E0809398010E94CA0281E008
:102E40008093C10165EF70E087E10E94C40B8EE7BB
:102E500092E00E948308882379F088E180939901A9
:102E600011E0109398010E94CA021093C10168E713
:102E700070E088E10E94C40B8EE792E00E949D08FA
:102E8000882381F088E18093990182E08093980102
:102E90000E94CA0281E08093C1016AEF70E088E17C
:102EA0000E94C40B87E692E00E948308882379F091
:102EB00089E18093990111E0109398010E94CA0260
:102EC0001093C1016DE770E089E10E94C40B87E6B1
:102ED00092E00E949D08882381F089E18093990106
:102EE00082E0809398010E94CA0281E08093C10130
:102EF0006FEF70E089E10E94C40B6D960FB6F894F5
:102F0000DEBF0FBECDBFDF91CF911F910F91FF901C
:102F1000EF90DF90CF90BF90AF90089586EA94E055
:102F20000E94C508882309F437C281E08093C1015B
:102F30006091B20180E00E940E0C8FE894E00E9444
:102F4000C508882309F42FC281E08093C1016091F4
:102F5000B2010E940E0C88E794E00E94C508882305
:102F600009F428C281E08093C1016091B20182E03E
:102F70000E940E0C81E694E00E94C508882309F4A3
:102F800020C281E08093C1016091B20183E00E9480
:102F90000E0C8AE494E00E94C508882309F418C244
:102FA00081E08093C1016091B20184E00E940E0C27
:102FB00083E394E00E94C508882309F410C281E0ED
:102FC0008093C1016091B20185E00E940E0C8CE1FA
:102FD00094E00E94C508882309F408C281E0809328
:102FE000C1016091B20186E00E940E0C85E094E080
:102FF0000E94C508882309F400C281E08093C101C2
:103000006091B20187E00E940E0C8EEE93E00E9468
:10301000C508882309F4F8C181E08093C10160915B
:10302000B20188E00E940E0C87ED93E00E94C50873
:10303000882309F4F0C181E08093C1016091B2015D
:1030400089E00E940E0C80EC93E00E94C508882362
:1030500009F4E8C181E08093C1016091B2018AE086
:103060000E940E0C89EA93E00E94C508882309F4A7
:10307000E0C181E08093C1016091B2018BE00E94C8
:103080000E0C82E993E00E94C508882309F4D8C198
:1030900081E08093C1016091B2018CE00E940E0C2E
:1030A0008BE793E00E94C508882309F4D0C181E032
:1030B0008093C1016091B2018DE00E940E0C84E604
:1030C00093E00E94C508882309F4C8C181E0809379
:1030D000C1016091B2018EE00E940E0C8DE493E07C
:1030E0000E94C508882309F4C0C181E08093C10112
:1030F0006091B2018FE00E940E0C86E393E00E9483
:10310000C508882309F4B8C181E08093C1016091AA
:10311000B20180E10E940E0C8FE193E00E94C5088D
:10312000882309F4B0C181E08093C1016091B201AC
:1031300081E10E940E0C88E093E00E94C50888237C
:1031400009F4A8C181E08093C1016091B20182E1DC
:103150000E940E0C81EF92E00E94C508882309F4BA
:10316000A0C181E08093C1016091B20183E10E941E
:103170000E0C8AED92E00E94C508882309F498C1DC
:1031800081E08093C1016091B20184E10E940E0C44
:1031900083EC92E00E94C508882309F490C181E085
:1031A0008093C1016091B20185E10E940E0C8CEA0E
:1031B00092E00E94C508882309F488C181E08093C9
:1031C000C1016091B20186E10E940E0C85E992E096
:1031D0000E94C508882309F480C181E08093C10161
:1031E0006091B20187E10E940E0C8EE792E00E948E
:1031F000C508882309F478C181E08093C1016091FA
:10320000B20188E10E940E0C87E692E00E94C50898
:10321000882309F470C181E08093C1016091B201FB
:1032200089E10E940E0C86EA94E00E94B1088111A7
:103230000E948C048FE894E00E94B10881110E94E2
:103240008C0488E794E00E94B10881110E948C04EC
:1032500081E694E00E94B10881110E948C048AE406
:1032600094E00E94B10881110E948C0483E394E0F1
:103270000E94B10881110E948C048CE194E00E94AC
:10328000B10881110E948C0485E094E00E94B1088D
:1032900081110E948C048EEE93E00E94B10881118E
:1032A0000E948C0487ED93E00E94B10881110E9476
:1032B0008C0480EC93E00E94B10881110E948C0480
:1032C00089EA93E00E94B10881110E948C0482E98E
:1032D00093E00E94B10881110E948C048BE793E077
:1032E0000E94B10881110E948C0484E693E00E9440
:1032F000B10881110E948C048DE493E00E94B10812
:1033000081110E948C0486E393E00E94B108811130
:103310000E948C048FE193E00E94B10881110E9409
:103320008C0488E093E00E94B10881110E948C0413
:1033300081EF92E00E94B10881110E948C048AED15
:1033400092E00E94B10881110E948C0483EC92E00B
:103350000E94B10881110E948C048CEA92E00E94C4
:10336000B10881110E948C0485E992E00E94B108A5
:1033700081110E948C048EE792E00E94B1088111B5
:103380000E948C0487E692E00E94B108882309F429
:10339000B4CD0E948C04B1CD86EA94E00E94280846
:1033A0008111C3CDCACD8FE894E00E942808811115
:1033B000CBCDD1CD88E794E00E9428088111D2CDF1
:1033C000D9CD81E694E00E9428088111DACDE1CDC3
:1033D0008AE494E00E9428088111E2CDE9CD83E3DC
:1033E00094E00E9428088111EACDF1CD8CE194E0AF
:1033F0000E9428088111F2CDF9CD85E094E00E9469
:1034000028088111FACD01CE8EEE93E00E942808A3
:10341000811102CE09CE87ED93E00E942808811128
:103420000ACE11CE80EC93E00E942808811112CEC2
:1034300019CE89EA93E00E94280881111ACE21CE84
:1034400082E993E00E942808811122CE29CE8BE7E1
:1034500093E00E94280881112ACE31CE84E693E0C1
:103460000E942808811132CE39CE8DE493E00E946B
:10347000280881113ACE41CE86E393E00E942808C5
:10348000811142CE49CE8FE193E00E94280881113C
:103490004ACE51CE88E093E00E942808811152CE96
:1034A00059CE81EF92E00E94280881115ACE61CE58
:1034B0008AED92E00E942808811162CE69CE83ECE9
:1034C00092E00E94280881116ACE71CE8CEA92E0C7
:1034D0000E942808811172CE79CE85E992E00E947F
:1034E000280881117ACE81CE8EE792E00E942808CA
:1034F000811182CE89CE87E692E00E942808811150
:103500008ACE91CE1F920F920FB60F9211242F9355
:103510003F938F939F93AF93BF938091B501909109
:10352000B601A091B701B091B8013091B40123E088
:10353000230F2D3758F50196A11DB11D2093B4011D
:103540008093B5019093B601A093B701B093B801F1
:103550008091B9019091BA01A091BB01B091BC01D9
:103560000196A11DB11D8093B9019093BA01A0935A
:10357000BB01B093BC01BF91AF919F918F913F91DF
:103580002F910F900FBE0F901F90189526E8230FD4
:103590000296A11DB11DD2CF1F920F920FB60F92AE
:1035A00011248F939F938091E1009091E100937F8C
:1035B0009093E10083FF0FC01092E90091E0909397
:1035C000EB001092EC0092E39093ED001092BE019C
:1035D00098E09093F00082FF22C093E09093E9007E
:1035E0009091F200992319F09AE39093E80090915A
:1035F000AD01992341F09091AD0191509093AD01AF
:10360000911101C05D9A9091BD01992341F0909173
:10361000BD0191509093BD01911101C0289A84FF82
:1036200018C08091E2008E7E81608093E2008091DC
:10363000E1008F7E8093E1008091AE018E7E8061FB
:103640008093AE019F918F910F900FBE0F901F90AE
:10365000189580FFF7CF8091E2008E7E8061809385
:10366000E2008091E1008E7E8093E1008091AE01C6
:103670008E7E8160E5CF1F920F920FB60F921124BC
:10368000CF92DF92EF92FF920F931F932F933F936E
:103690004F935F936F937F938F939F93AF93BF935A
:1036A000EF93FF93CF93DF93CDB7DEB76C97DEBF79
:1036B000CDBF1092E9008091E80083FF25C068E04B
:1036C000CE0145960E94D60382EF8093E8008D8953
:1036D00087FF39C09091E80090FFFCCF982F90763B
:1036E00009F034C19E894F89588D2F89F88C91112A
:1036F00031C0803861F58091AF018093F100109264
:10370000F1008EEF8093E8006C960FB6F894DEBF60
:103710000FBECDBFDF91CF91FF91EF91BF91AF91E0
:103720009F918F917F916F915F914F913F912F91D9
:103730001F910F91FF90EF90DF90CF900F900FBEF1
:103740000F901F9018959EEF9093E800C7CF1092AE
:10375000F100D5CF913059F48111D3CF41305105CB
:1037600081F68091AF018D7F8093AF01CACF9330F6
:1037700049F48111C6CF4130510519F68091AF014E
:103780008260F2CF953041F48091E80080FFFCCF59
:1037900020682093E300B5CF963009F0A9C00B8DC7
:1037A0001C8D22E01092E9001092AB011092AA0148
:1037B000F2122EC01092A9011092A8010E94990441
:1037C0001F8299E09983FA8291E09E8390EA98871C
:1037D0009AEF99872091AA013091AB01275F3F4F63
:1037E0003C832B838D831092E9001092AB011092E1
:1037F000AA011093A9010093A80149E050E0BE017D
:103800006F5F7F4F80E00E9405030E94990479CF8B
:103810001093A9010093A8010E94E303DC01129612
:103820000D911C910115110509F451C1D801ED91BB
:10383000FC910480F581E02DBE016B5E7F4FC801D5
:103840000995009709F03EC1F80100851185EACF7E
:10385000F3E0FF120EC08F89882309F440C0823044
:1038600061F440E860E18EE191E00E946D1D8111FC
:1038700048CF81E28093EB0047CF813029F440E8C4
:103880006BE082E191E0F1CF833099F70E94E3038E
:10389000DC011296ED90FC908E010F5F1F4F6801C6
:1038A000E114F10479F0D701ED91FC910680F781E4
:1038B000E02DB801C7010995080F111DF701E0843B
:1038C000F184EECFD8011C92F60101900020E9F7B7
:1038D0003197BF016C197D0940E0C601C6CF6CEF7E
:1038E00070E0FB01449150E080E80E94050309CF9D
:1038F000973009F4BECF983021F481E08093F10035
:1039000000CF993009F0FDCE837009F0B2CFEDE021
:10391000F1E081E031E096E32191222371F0809380
:10392000E9003093EB00DF0111972C912093EC001C
:103930009093ED008F5F873079F78EE78093EA00F0
:103940001092EA008F898093BE01DBCE8B8D9C8D17
:103950001092E9001092AB011092AA019093A90174
:103960008093A801898D811192C08E899D89913A99
:1039700049F4813209F07DCF47E050E064E071E026
:1039800080E0B3CF913209F074CF833269F48F892C
:10399000988DB0E0A0E08093000190930101A09386
:1039A0000201B0930301ADCE803269F48091E8004A
:1039B00082FFFCCF67E084E091E00E94D6038BEFAA
:1039C0008093E8009ECE823209F09BCE8F8980934F
:1039D0000B01EEEFFFE7859194918B3F9C4D51F1E8
:1039E000E0E0F8E08091040190910501A0910601CA
:1039F000B0910701803B9440A105B105F1F480919D
:103A00000B0180FD1AC0EE3F8AE0F80789F587E7D1
:103A100097E791838083809160008093AC0188E177
:103A20009BE00FB6F894A895809360000FBE90932A
:103A3000600067CEEEEFFAE0D5CF808191818737C5
:103A4000974709F05ECEA8958091600088618093C9
:103A500060008091AC0180936000EE3F2AE0F207A5
:103A600089F08091FE0A9091FF0A9183808349CE6C
:103A7000808191818737980751F29093FF0A809354
:103A8000FE0AC5CF1092FF0A1092FE0A3ACE0E949B
:103A9000E303DC0112960D911C910115110509F447
:103AA000E8CED801ED91FC910190F081E02DBE01AE
:103AB0006B5E7F4FC8010995811123CEF801008507
:103AC0001185EBCF181619060CF41BCED2CEF1E0FF
:103AD000FF12BECE60E071E004CFEF92FF920F9331
:103AE0001F93CF93DF93F82E192FE62E042F81E03A
:103AF000860F880F0E94D70283E00E94D702CF2D45
:103B0000D12FEC0EFD2EF11CCE15DF05B9F007FF0D
:103B100013C0FE0184910E94D702182F80E00E94FA
:103B2000D702812321968111EFCFDF91CF911F9191
:103B30000F91FF90EF9008958881EDCF81E0F5CF50
:103B4000CF93DF93EC011A828CE390E09C838B830C
:103B500084EF91E09E838D8398878F8380E991E045
:103B60009A8789871B861C861D861E861F86188A53
:103B7000198A1A8A1B8A89816F3F71F06A838F7D47
:103B8000898360E0CE010E94D90889818B7E8D7F78
:103B90008983DF91CF9108958062F2CF1092C501A1
:103BA0001092C40188EE93E0A0E0B0E08093C601DB
:103BB0009093C701A093C801B093C90189E291E035
:103BC0009093C3018093C2018FEF9FEF9093CF0139
:103BD0008093CE0180911802811113C010921302BC
:103BE0001092120288EA91E09093150280931402D9
:103BF0008BE490E0909317028093160281E080930B
:103C0000180280913102811105C00E94F70381E002
:103C100080933102E0912B02F0912C02309709F051
:103C2000F4C082E192E090932C0280932B02809169
:103C30002D0290912E022091160230911702820FD0
:103C4000931F90932E0280932D0210924A0210929D
:103C500049028BE391E09093480280934702809160
:103C60003F02811113C010923A021092390283E789
:103C700092E090933C0280933B028FE290E090931D
:103C80003E0280933D0281E080933F0280913102A9
:103C9000811105C00E94F70381E080933102E09119
:103CA0002B02F0912C02309709F0B9C089E392E021
:103CB00090932C0280932B0280912D0290912E02E2
:103CC00020913D0230913E02820F931F90932E026D
:103CD00080932D0283EF91E09093540280935302DE
:103CE0006FEF86EA94E00E94A01D6FEF8FE894E0EA
:103CF0000E94A01D6FEF88E794E00E94A01D6FEF67
:103D000081E694E00E94A01D6FEF8AE494E00E9497
:103D1000A01D6FEF83E394E00E94A01D6FEF8CE184
:103D200094E00E94A01D6FEF85E094E00E94A01D2A
:103D30006FEF8EEE93E00E94A01D6FEF87ED93E092
:103D40000E94A01D6FEF80EC93E00E94A01D6FEF1A
:103D500089EA93E00E94A01D6FEF82E993E00E9440
:103D6000A01D6FEF8BE793E00E94A01D6FEF84E62C
:103D700093E00E94A01D6FEF8DE493E00E94A01DD0
:103D800062E086E393E00E94A01D63E08FE193E090
:103D90000E94A01D68E088E093E00E94A01D69E0F9
:103DA00081EF92E00E94A01D65E18AED92E00E9401
:103DB000A01D64E183EC92E00E94A01D63E18CEA07
:103DC00092E00E94A01D62E185E992E00E94A01DA0
:103DD0006FE08EE792E00E94A01D6EE087E692E021
:103DE0000E94A01D67E971E081E692E00E945D0BF0
:103DF00067E971E08BE592E00E945D0B67E971E095
:103E000085E592E00C945D0BFC0180819181009727
:103E1000D9F782E192E09183808309CFFC01808110
:103E200091810097D9F789E392E09183808344CF11
:103E3000CF93DF93CDB7DEB72D970FB6F894DEBFE3
:103E40000FBECDBF789484B5826084BD84B5816097
:103E500084BD85B5826085BD85B5816085BD809155
:103E60006E00816080936E001092810080918100CD
:103E700082608093810080918100816080938100C5
:103E800080918000816080938000809191008260A9
:103E90008093910080919100816080939100809146
:103EA00090008160809390008091C1008460809335
:103EB000C1008091C10082608093C1008091C100E7
:103EC00081608093C1008091C30081608093C300B2
:103ED0008091C00082608093C0008091C2008160A8
:103EE0008093C20080917A00846080937A008091F0
:103EF0007A00826080937A0080917A00816080935A
:103F00007A0080917A00806880937A001092BE01D6
:103F10001092AF011092AE018091D7008160809322
:103F2000D70080EA8093D80089B5806189BD89B5C2
:103F3000826089BD09B400FEFDCF61E070E080E0E1
:103F400090E00E9498028091D8008F7C80618093DD
:103F5000D8008091E000807F8093E0008091E100B4
:103F60008E7E8093E1008DE08093E200559A209A46
:103F70008FEF9FEF9093CF018093CE0160ED77E0BC
:103F800080E090E00E94980283EF91E090935402C9
:103F90008093530263EB71E086EF93E00E94BA0BCB
:103FA00060EC71E085EF93E00E94BA0B62EB71E088
:103FB00084EF93E00E94BA0B08EF13E0BE01635F49
:103FC0007F4FC8010E94BA0B8091650290916602F2
:103FD000892B41F06D85E0916102F0916202808150
:103FE0008111DBC16D85CE0101960E94190BBE01C6
:103FF0006F5F7F4F81E692E00E941C0ACE0101961E
:104000000E94670A0F5F1F4F011584E01807B1F681
:1040100061E087E00E94370261E084E00E9437029D
:1040200061E086E00E94370260E085E00E9437028E
:1040300060E086E00E94090261E087E00E940902D8
:104040000E9401098C019093B1018093B0018AE82C
:1040500091E00E947309B80190E080E042E00E9484
:10406000800985E991E00E94730961E086EA94E0A5
:104070000E94D90861E08FE894E00E94D90861E0CD
:1040800088E794E00E94D90861E081E694E00E940C
:10409000D90861E08AE494E00E94D90861E083E3F2
:1040A00094E00E94D90861E08CE194E00E94D90874
:1040B00061E085E094E00E94D90861E08EEE93E033
:1040C0000E94D90861E087ED93E00E94D90861E081
:1040D00080EC93E00E94D90861E089EA93E00E94B5
:1040E000D90861E082E993E00E94D90861E08BE79A
:1040F00093E00E94D90861E084E693E00E94D90829
:1041000061E08DE493E00E94D90884E690E090930A
:10411000AE048093AD04909397048093960490939B
:10412000800480937F049093690480936804909343
:1041300052048093510490933B0480933A049093EB
:1041400024048093230490930D0480930C04909393
:10415000F6038093F5039093DF038093DE0390933F
:10416000C8038093C7039093B1038093B0039093E7
:104170009A0380939903909383038093820390938F
:104180006C0380936B039093550380935403909337
:104190003E0380933D0390932703809326039093DF
:1041A000100380930F039093F9028093F802909389
:1041B000E2028093E1029093CB028093CA02909333
:1041C000B4028093B30290939D0280939C029093DB
:1041D00086028093850290936F0280936E0288E23C
:1041E00090E09093B0048093AF04909399048093EF
:1041F0009804909382048093810490936B0480933D
:104200006A04909354048093530490933D048093E4
:104210003C04909326048093250490930F0480938C
:104220000E049093F8038093F7039093E103809337
:10423000E0039093CA038093C9039093B3038093E0
:10424000B20390939C0380939B0390938503809388
:10425000840390936E0380936D0390935703809330
:1042600056039093400380933F03909329038093D8
:10427000280390931203809311039093FB02809381
:10428000FA029093E4028093E3029093CD0280932C
:10429000CC029093B6028093B50290939F028093D4
:1042A0009E0290938802809387029093710280937C
:1042B000700284E190E09093AA048093A904909303
:1042C00093048093920490937C0480937B04909356
:1042D00065048093640490934E0480934D049093FE
:1042E0003704809336049093200480931F049093A6
:1042F0000904809308049093F2038093F103909350
:10430000DB038093DA039093C4038093C3039093F9
:10431000AD038093AC0390939603809395039093A1
:104320007F0380937E039093680380936703909349
:1043300051038093500390933A03809339039093F1
:1043400023038093220390930C0380930B03909399
:10435000F5028093F4029093DE028093DD02909345
:10436000C7028093C6029093B0028093AF029093ED
:104370009902809398029093820280938102909395
:104380006B0280936A0200E010E00E94910D01151B
:104390001105D9F30E940000F8CFCE0101960E94CA
:1043A000190B18861F821A8619861C861B8661E6E1
:1043B00072E0CE0107960E94460B4D815E816981B5
:1043C0007A81CE0107960E94970A811104C0CE011E
:1043D00007960E94550ABE01695F7F4F81E692E011
:1043E0000E94460BCE0107960E94670A07CE85E51C
:1043F00092E00E94670A8BE592E00E94670A81E6DC
:1044000092E00C94670A1F93FC0199278827BC014E
:10441000E89411911032E9F3193010F01E30C8F30E
:104420001B3251F01D3249F4689406C00E943522B7
:10443000610F711D811D911D119110531A30B0F340
:104440003EF490958095709561957F4F8F4F9F4F6B
:104450001F910895BB274A3031F4992322F4BDE21D
:10446000909581959F4F0C944B22592F482F372FB1
:10447000262F660F771F881F991F660F771F881FCB
:10448000991F620F731F841F951F660F771F881F68
:10449000991F0895BB27FB015527AA27880F991F4D
:1044A000AA1FA41710F0A41B83955051B9F7A05D63
:1044B000AA3308F0A95DA193009779F7B111B193E0
:1044C0001192CB010C946422DC01FC01672F7191E5
:1044D0007723E1F7329704C07C916D9370836291EA
:1044E000AE17BF07C8F30895F999FECF92BD81BDFD
:1044F000F89A992780B50895262FF999FECF1FBA0B
:1045000092BD81BD20BD0FB6F894FA9AF99A0FBEFC
:10451000019608952F923F924F925F926F927F92F1
:104520008F929F92AF92BF92CF92DF92EF92FF92C3
:104530000F931F93CF93DF93CDB7DEB7CA1BDB0B6F
:104540000FB6F894DEBF0FBECDBF09942A88398814
:1045500048885F846E847D848C849B84AA84B9841B
:10456000C884DF80EE80FD800C811B81AA81B98127
:10457000CE0FD11D0FB6F894DEBF0FBECDBFED013B
:104580000895A1E21A2EAA1BBB1BFD010DC0AA1F94
:10459000BB1FEE1FFF1FA217B307E407F50720F0AC
:1045A000A21BB30BE40BF50B661F771F881F991F27
:1045B0001A9469F760957095809590959B01AC0170
:1045C000BD01CF010895EE0FFF1F0590F491E02D7E
:1045D00009940F931F93CF93DF938230910510F4CA
:1045E00082E090E0E091BF04F091C00430E020E070
:1045F000B0E0A0E0309799F42115310509F44AC0E4
:10460000281B390B24303105D8F58A819B8161152F
:10461000710589F1FB0193838283FE0111C0408102
:1046200051810281138148175907E0F04817590753
:1046300099F4109761F012960C93129713961C93AD
:104640003296CF01DF91CF911F910F910895009382
:10465000BF041093C004F4CF2115310551F0421767
:10466000530738F0A901DB019A01BD01DF01F80110
:10467000C1CFEF01F9CF9093C0048093BF04CDCF99
:10468000FE01E20FF31F8193919322503109398388
:104690002883D7CF2091BD043091BE04232B41F451
:1046A00020911501309116013093BE042093BD0472
:1046B00020911301309114012115310541F42DB7DA
:1046C0003EB74091170150911801241B350BE09122
:1046D000BD04F091BE04E217F307A0F42E1B3F0BBC
:1046E0002817390778F0AC014E5F5F4F2417350764
:1046F00048F04E0F5F1F5093BE044093BD0481935A
:1047000091939FCFF0E0E0E09CCFCF93DF930097B1
:10471000E9F0FC01329713821282A091BF04B0919C
:10472000C004ED0130E020E01097A1F42081318138
:10473000820F931F2091BD043091BE0428173907C2
:1047400009F061C0F093BE04E093BD04DF91CF9106
:104750000895EA01CE17DF07E8F54A815B819E01E3
:1047600041155105B1F7E901FB83EA83499159915C
:10477000C40FD51FEC17FD0761F48081918102966B
:10478000840F951FE90199838883828193819B839C
:104790008A83F0E0E0E012968D919C911397009748
:1047A000B9F52D913C911197CD010296820F931F7F
:1047B0002091BD043091BE042817390739F630978F
:1047C00051F51092C0041092BF04B093BE04A093A0
:1047D000BD04BCCFD383C28340815181840F951F18
:1047E000C817D90761F44E5F5F4F88819981480FE0
:1047F000591F518340838A819B8193838283211532
:10480000310509F0B0CFF093C004E093BF049ECF10
:10481000FD01DC01C0CF13821282D7CFB0E0A0E04F
:10482000E4E1F4E20C948C228C01009751F4CB016A
:104830000E94E9228C01C801CDB7DEB7E0E10C94FB
:10484000A822FC01E60FF71F9C0122503109E21754
:10485000F30708F49DC0D901CD91DC911197C617DB
:10486000D70798F0C530D10530F3CE0104978617ED
:10487000970708F3C61BD70B2297C193D1936D936B
:104880007C93CF010E948523D6CF5B01AC1ABD0A71
:104890004C018C0E9D1EA091BF04B091C004512C00
:1048A000412CF12CE12C109731F58091BD049091B1
:1048B000BE048815990509F05CC04616570608F035
:1048C00058C08091130190911401009741F48DB765
:1048D0009EB74091170150911801841B950BE81762
:1048E000F90708F055C0F093BE04E093BD04F90148
:1048F00071836083A0CF8D919C91119712966C90DB
:10490000129713967C901397A815B90559F56C0169
:1049100042E0C40ED11CCA14DB0420F1AC014A19D8
:104920005B09DA011296159780F0628273825183D7
:104930004083D9016D937C93E114F10471F0D701A8
:104940001396FC93EE93129776CF22968C0F9D1FB1
:10495000F90191838083F301EFCFF093C004E093DA
:10496000BF0469CF4816590608F42C017D01D30114
:104970009ACFCB010E94E9227C01009749F0AE0159
:10498000B8010E94CB24C8010E948523870153CF20
:1049900010E000E050CFFB01DC0102C001900D925D
:1049A00041505040D8F70895FC018191861721F0BD
:1049B0008823D9F7992708953197CF010895FB01EE
:1049C000DC0101900D920020E1F70895FB01519167
:1049D0005523A9F0BF01DC014D9145174111E1F7C5
:1049E00059F4CD010190002049F04D91401541113D
:1049F000C9F3FB014111EFCF81E090E001970895E9
:104A000011E0C2E5D1E004C0FE010E94E32221963C
:0A4A1000C335D107C9F7F894FFCFB2
:104A1A00FFFFFFFF00E100000000000000C18081ED
:104A2A000000000000C10480000000000094050D91
:104A3A0006D205B70500000000E004CA040105F625
:104A4A00047A0506055605000000000207580658B4
:104A5A0007D602400030007D00504B00504B5000FA
:104A6A00504B4800504B473100504B473200504B97
:104A7A00473300504B473400504B4735002F003B1B
:104A8A00005D002A002B005B005B31005B32005B9B
:104A9A0033005B34005B3500260050696E20537486
:084AAA00617465733A0D0A0006
:00000001FF
