:100000000C9428040C9450040C9450040C94500448
:100010000C9450040C9450040C9450040C94500410
:100020000C9450040C9450040C9428230C94A52395
:100030000C9450040C9450040C9450040C945004F0
:100040000C9450040C9450040C9450040C945004E0
:100050000C9450040C9450040C9450040C94DE2224
:100060000C9450040C9450040C9450040C945004C0
:100070000C9450040C9450040C9450040C945004B0
:100080000C9450040C9450040C9450040C945004A0
:100090000C94D7250C9450040C9450040C945004E8
:1000A0000C9450040C9450040C9450040000000074
:1000B0000000000001010101010101010202020230
:1000C00002020203030303030404040505050505F6
:1000D000060606060707070808080808090A0A0AA4
:1000E0000A0B0B0C0C0C0C0D0D0D0E0E0F0F0F1040
:1000F00011111111121213141414141516161717C6
:10010000171819191A1A1B1B1C1C1D1E1E1F1F2035
:1001100021212223232425252626272829292A2B85
:100120002C2D2D2E2F2F30313233343536363738B3
:1001300038393A3B3C3D3E3F4041424344454546C9
:1001400047494A4B4C4D4E4F5051525455565759B2
:100150005A5B5D5E5F60616264656667696A6C6D6B
:100160006E6F7173757677797A7B7C7F80828385F9
:100170008688898B8C8F9192939497999A9C9E9F55
:10018000A2A3A5A7A9ABADAEB0B3B4B6B9BABCBE75
:10019000C0C2C4C7C9CACDCFD1D3D6D8DADCDFE15B
:1001A000E2E6E7EBECF0F1F5F6FAFBFF01FF961162
:1001B000FFFFB103012C2DB203012C2DB306012C3E
:1001C0002D012C2DB40107B6021502C003A2028432
:1001D000C101C5C2020A00C3028A2AC4028AEEC54E
:1001E000010E20003601003A0105E0100F1A0F1829
:1001F0002F2820221F1B233700070210E1100F1B9E
:100200000F17332C292E3030393F0007031029FFF8
:100210006413FF0A080B0002020200000904000038
:10022000010202000005240010010524010101045F
:100230002402060524060001070581031000400979
:10024000040100020A000000070502024000000746
:100250000583024000000403090412010002EF02BA
:10026000014041233780000101020301417264759E
:10027000696E6F204C4C430041726475696E6F204B
:100280004D6963726F000000000000000000010172
:100290000101010101010202020202020203030341
:1002A00003030404040505050505060606060707FD
:1002B000070808080808090A0A0A0A0B0B0C0C0CA4
:1002C0000C0D0D0D0E0E0F0F0F101111111112123A
:1002D00013141414141516161717171819191A1AB7
:1002E0001B1B1C1C1D1E1E1F1F202121222323241B
:1002F00025252626272829292A2B2C2D2D2E2F2F60
:100300003031323334353636373838393A3B3C3D84
:100310003E3F404142434445454647494A4B4C4D88
:100320004E4F50515254555657595A5B5D5E5F605F
:10033000616264656667696A6C6D6E6F717375760C
:1003400077797A7B7C7F808283858688898B8C8F86
:100350009192939497999A9C9E9FA2A3A5A7A9ABCB
:10036000ADAEB0B3B4B6B9BABCBEC0C2C4C7C9CAD8
:10037000CDCFD1D3D6D8DADCDFE1E2E6E7EBECF0A3
:10038000F1F5F6FAFBFF000608200000000000006F
:100390000000002F000000000700070000147F1479
:1003A0007F1400242A7F2A12002313086462003677
:1003B0004955225000000503000000001C224100A6
:1003C000000041221C000014083E08140008083EEA
:1003D0000808000000A060000008080808080000E5
:1003E00060600000002010080402003E5149453EB4
:1003F0000000427F400000426151494600214145D2
:100400004B31001814127F10002745454539003C38
:100410004A49493000017109050300364949493606
:1004200000064949291E00003636000000005636F5
:1004300000000008142241000014141414140000D9
:100440004122140800020151090600324959513E67
:10045000007C1211127C007F49494936003E41411F
:100460004122007F4141221C007F49494941007FD0
:1004700009090901003E4149497A007F0808087FBF
:100480000000417F4100002040413F01007F0814EF
:100490002241007F40404040007F020C027F007FED
:1004A0000408107F003E4141413E007F09090906D2
:1004B000003E4151215E007F091929460046494905
:1004C00049310001017F0101003F4040403F001FD2
:1004D0002040201F003F4038403F00631408146351
:1004E00000070870080700615149454300007F413B
:1004F000410000552A552A55000041417F00000463
:10050000020102040040404040400000010204009B
:10051000002054545478007F484444380038444400
:10052000442000384444487F00385454541800088C
:100530007E0901020018A4A4A47C007F08040478AA
:100540000000447D4000004080847D00007F102832
:1005500044000000417F4000007C04180478007CC7
:100560000804047800384444443800FC2424241847
:100570000018242418FC007C080404080048545483
:10058000542000043F444020003C4040207C001C9C
:100590002040201C003C4030403C004428102844AF
:1005A000001CA0A0A07C004464544C4400000877C8
:1005B00000000000007F000000007708000000102D
:1005C0000810080014141414141400008080808093
:1005D000E0E07E7E6060606060607F7F60606060A1
:1005E00060607E7EE0E0808080800080818181810B
:1005F000FFFF000000FCFCFCFCFCFCFCFCFCFCFC29
:10060000FC000000FFFF8181818180018181818167
:10061000FFFF0000003F3F3F3F3F3F3F3F3F3F3F27
:100620003F000000FFFF8181818101000101010184
:1006300007077E7E060606060606FEFE0606060678
:1006400006067E7E07070101010100181818F8F858
:10065000C0C0C0C0C040C0C0C0C0C0C0C0C0C0C01A
:10066000404040C0C0C0C0C0C0C0C0008F8FFFFFAE
:10067000FFFFFFF1E0CEE0F1FF3F8FE7E3C1C0C62F
:100680003EBF3EC6C0C1E3E78F3FFF809C9CFFFF9B
:10069000FFFFFFE3C19CC1E3FFFEF8F3E3C181B1BB
:1006A0003E7E3EB181C1E3F3F8FEFF0000001F1F54
:1006B000000000000000001F071F071F071F071F83
:1006C000071F071F071F070000000000000000238E
:1006D00000260029002C002F000000000200090F56
:1006E0000000030401000C000000000000000000F6
:1006F0000000000000000000050C0901A1018501B7
:1007000015002501750195180A23020A8A011A2489
:10071000022A27020A21020A2A0209CD09B709B6CC
:1007200009B509E909EA09E20A83010A01020A0294
:10073000020A07020A1A020A79021A1B022A1D0279
:100740008102C000000000000000002A2B280000E9
:100750000000000000000000000000000000000099
:100760000000002C9EB4A0A1A2A434A6A7A5AE367A
:100770002D3738271E1F20212223242526B333B6E8
:100780002EB7B89F8485868788898A8B8C8D8E8FBB
:10079000909192939495969798999A9B9C9D2F31BE
:1007A00030A3AD350405060708090A0B0C0D0E0F22
:1007B000101112131415161718191A1B1C1DAFB19E
:1007C000B0B50005010906A1018502050719E02958
:1007D000E7150025017501950881029501750881CD
:1007E00003950675081500257305071900297381FF
:1007F00000C000000000240027002A002D00300067
:1008000000000000250028002B002E003100040409
:1008100004040403040502020202040302020202A9
:100820000606060606060404020202040404080280
:100830000110408040102040804080080204018068
:1008400040201002011080102040402029279231C2
:1008500011241FBECFEFDAE0DEBFCDBF11E0A0E074
:10086000B1E0ECEFFEE602C005900D92A63EB107A6
:10087000D9F725E0A6EEB1E001C01D92A735B20779
:10088000E1F714E0C7E2D4E004C02197FE010E9422
:100890004C35C632D107C9F70E94D4280C94713761
:1008A0000C9400004F925F926F927F928F929F9272
:1008B000AF92BF92CF92DF92EF92FF920F931F936E
:1008C000CF93DF9300D01F92CDB7DEB780911B0589
:1008D000E0911305F09114059081982B90931D05DC
:1008E00090818095892380931E0580910A058093CD
:1008F0000B058091200590912105039721F48FB776
:1009000080931F05F89400911105109112050115AF
:10091000110509F492C0D0900A05EAEDF3E066E013
:1009200075E020E030E0A901ED2CF12CC701019623
:10093000C480C89ED001C99EB00D1124AB2FBB2727
:100940002A0F3B1F411D511DC580C89ED001C99E65
:10095000B00D1124AB2FBB272A0F3B1F411D511D8A
:10096000C680C89ED001C99EB00D1124AB2FBB27F5
:100970002A0F3B1F411D511D33966E177F07C1F68D
:10098000232F342F452F552747FD5A95A091DA0381
:10099000B091DB030E941B3423E030E040E050E0E4
:1009A0000E94F13349015A018091DC039091DD03EB
:1009B00081149104A104B104F1F16AE070E00E9495
:1009C0003835CB01072E000CAA0BBB0B880D991DE7
:1009D000AA1DBB1D2801012E000C6608770884158E
:1009E0009505A605B7053CF1C801861B970BBC0110
:1009F000072E000C880B990B0E94E2322B013C0160
:100A0000B701FF0C880B990B0E94E2329B01AC01ED
:100A1000C301B2010E941D336B017C01C501B40109
:100A20000E94E2329B01AC01C701B6010E948B34E7
:100A30000E94FD34D62ED0920B05EAEDF3E006E0DD
:100A400015E07E0194E0E90EF11C5581468180910C
:100A50000B0590E001966481689F9001699F300DBD
:100A600011243A83589F9001599F300D11243983E6
:100A7000489F9001499F300D11243B8380912005B0
:100A800090912105029721F48FB780931F05F89468
:100A9000BE016F5F7F4FDB018D91BD01209120056D
:100AA000309121052130310521F49FB790931F0526
:100AB000F89490911D0520911E05A0911305B09109
:100AC000140538E09C9387FF2C93880F43E04A95E8
:100AD000F1F700002C933A95A9F7809120059091A9
:100AE00021058130910519F420911F052FBFE616CD
:100AF000F70609F0D0CF8230910519F420911F0537
:100B00002FBF33960E171F0709F09FCF039719F4D5
:100B100080911F058FBF0F900F900F90DF91CF91A5
:100B20001F910F91FF90EF90DF90CF90BF90AF900B
:100B30009F908F907F906F905F904F90089583E08B
:100B40008093E9008091F200882319F08AE3809372
:100B5000E8000895FC018091BA02882311F13FB7A3
:100B6000F89482E08093E9002091F200822F90E0D7
:100B70001816190614F481E090E0882339F0289AB9
:100B800044E64093B9024091F1004083222339F0BA
:100B90002091F200211103C02BE62093E8003FBF13
:100BA00008958FEF9FEF089581508F3008F047C070
:100BB000E82FF0E0E252FA4F0C944C35FB05FF05AC
:100BC000ED05F305F7051F061F061F0602060806BA
:100BD0000C06100616061F061A06809180008F77F5
:100BE000809380000895809180008F7DF9CF80915F
:100BF0008000877FF5CF84B58F7784BD089584B555
:100C00008F7DFBCF809190008F7780939000089527
:100C1000809190008F7DF9CF80919000877FF5CFF4
:100C20008091C0008F778093C00008958091C000AC
:100C30008F7DF9CF8091C200877F8093C200089595
:100C4000CF93DF93282F30E0F901E752F94F8491D9
:100C5000F901E35DF74FD491F901E25FF74FC491D9
:100C6000CC23A1F081110E94D405EC2FF0E0EE0F0F
:100C7000FF1FE553F94FA591B491EC91ED2381E06D
:100C800090E009F480E0DF91CF91089580E090E05A
:100C9000FACF1F93CF93DF93282F30E0F901E7526B
:100CA000F94F8491F901E35DF74FD491F901E25FC7
:100CB000F74FC491CC23A9F0162F81110E94D405BF
:100CC000EC2FF0E0EE0FFF1FE050F84FA591B4912C
:100CD0008FB7F894EC91111108C0D095DE23DC9306
:100CE0008FBFDF91CF911F910895DE2BF8CFCF9367
:100CF000DF9390E0FC01E35DF74F2491825F974F13
:100D0000FC0184918823C9F090E0880F991FFC01B1
:100D1000EE50F84FA591B491FC01E050F84FC59109
:100D2000D49161110DC09FB7F8948C9120958223C6
:100D30008C938881282328839FBFDF91CF910895CA
:100D4000623051F49FB7F8943C91822F80958323B1
:100D50008C93E8812E2BEFCF8FB7F894EC912E2B4C
:100D60002C938FBFEACF3FB7F8948091A90290915E
:100D7000AA02A091AB02B091AC0226B5A89B05C017
:100D80002F3F19F00196A11DB11D3FBFBA2FA92F0A
:100D9000982F8827BC01CD01620F711D811D911D07
:100DA00042E0660F771F881F991F4A95D1F7089573
:100DB0002FB7F8946091A5027091A6028091A702C6
:100DC0009091A8022FBF08950C949F05089508954F
:100DD000089540915A0250915B022091580230913F
:100DE000590242175307B4F49091E8009570E1F36B
:100DF0009091E80092FD19C08093F10080915A0211
:100E000090915B0201968F739927892B19F48EEFCD
:100E10008093E80080915A0290915B020196909332
:100E20005B0280935A0281E0089580E00895DF928A
:100E3000EF92FF920F931F93CF93DF93D82E8A01E7
:100E4000EB017B01E40EF51ECE15DF0559F0D7FE50
:100E500012C0FE0184910E94E90621968111F4CF0F
:100E60000FEF1FEFC801DF91CF911F910F91FF90FE
:100E7000EF90DF9008958881EECF2FB7F8948770B8
:100E80008093E9009091E800892F807295FF04C05B
:100E90009091F20080E4891B2FBF0895615030F0DB
:100EA0002091F100FC0120830196F8CF289A84E676
:100EB0008093B90208958091500281110DC082E0A3
:100EC00080934C0284E080934D0210924F02109266
:100ED0004E0281E0809350028CE492E008950F93DB
:100EE0001F93CF93DF931F92CDB7DEB782E0898344
:100EF00042E450E064E172E080E80E9417070E943B
:100F00005B07DC0112960D911C910115110589F00A
:100F1000D801ED91FC910280F381E02DBE016F5F5D
:100F20007F4FC801099597FD04C0F8010085118520
:100F3000ECCF89810F90DF91CF911F910F91089590
:100F4000CF93DF931F92CDB7DEB76983DC01ED91BC
:100F5000FC910280F381E02D41E050E0BE016F5F23
:100F60007F4F09950F90DF91CF91089583E00E9404
:100F70003D0790E00895CF93DF931F92CDB7DEB782
:100F8000FC018485958597FD08C02FEF3FEF3587DD
:100F900024870F90DF91CF910895CE0101960E9492
:100FA000AA05019719F4898190E0F3CF8FEF9FEFA5
:100FB000F0CF0F931F930E94D8066093370370936E
:100FC00038038093390390933A038FE293E00E94B1
:100FD000BB0797FF1DC00E94D806009137031091F0
:100FE00038032091390330913A03601B710B820B57
:100FF000930B00913303109134032091350330910A
:1010000036036017710782079307F8F28FEF9FEF9F
:101010001F910F9108950F931F93CF93DF931F920A
:10102000CDB7DEB78C01FC018485958597FF0BC099
:10103000CE0101960E94AA05019771F4898190E082
:10104000F80195878487F801848595850F90DF9155
:10105000CF911F910F9108958FEF9FEFF1CFFC017A
:101060008485958597FD0BC09FB7F89482E08093A7
:10107000E9008091F2009FBF90E0019608959FB72C
:10108000F89482E08093E9008091F2009FBF90E0A5
:10109000089520912902260F3327331F213231056D
:1010A000ECF420910503FC0190E080E0243069F02D
:1010B00082E00895A09129022191AC01475F5D4F24
:1010C000A40FB52FB11D2C930196861798F380912C
:1010D0002902680F6093290280E0089581E0089555
:1010E0001092050381E0809304031092FF0261E0F7
:1010F00082E00E94490661E083E00E944906E9EB34
:10110000F0E080818E7F808380818D7F808388E482
:101110008093B80085E48093BC000895CF93DF935B
:1011200091E0909308028823B9F0C091B800D09163
:10113000BA008091BC008A7B8093BC0060E082E0B2
:101140000E94490660E083E00E9449060E94700800
:10115000D093BA00C093B800DF91CF910895CF9299
:10116000DF92EF92FF920F931F93CF93DF93D09173
:10117000DE0281E0D13208F09CC0C091DD020E9405
:10118000B3066B017C018091050381116CC082E084
:101190008093050381E0809304038FEF8093030322
:1011A00010920203D0930103ADEBB2E0EFEDF2E059
:1011B00080E0D8138DC01092000380910003CC0F03
:1011C000C82BC09300038091FF02813009F084C0D6
:1011D0001092FF020E94B3066B017C018091000314
:1011E0008093BB008091070390910803A0910903AD
:1011F000B0910A03892B8A2B8B2BA1F00E94B30696
:1012000000910703109108032091090330910A030C
:101210006C197D098E099F090617170728073907DA
:1012200008F442C08091BC0083FDD8CF85EC809348
:10123000BC000E94B3066B017C01809105038230E3
:1012400009F44CC0809103038F3F09F469C0809179
:101250000303803209F466C080910303803309F4EC
:1012600063C084E026C08091070390910803A09199
:101270000903B0910A03892B8A2B8B2B09F483CFA6
:101280000E94B306009107031091080320910903FF
:1012900030910A036C197D098E099F0906171707FB
:1012A0002807390708F06FCF809106030E948E0847
:1012B00085E01092BC021092DE021092BB02DF9118
:1012C000CF911F910F91FF90EF90DF90CF900895F5
:1012D0009D9191938F5F6DCF85EEA9CF809107038C
:1012E00090910803A0910903B0910A03892B8A2BDE
:1012F0008B2B09F4A2CF0E94B30600910703109133
:1013000008032091090330910A036C197D098E09A5
:101310009F09061717072807390708F08ECFC4CF93
:1013200080E0C7CF82E0C5CF83E0C3CF0895E091CE
:101330000C0380910B03E81730F4F0E0E35FFC4FFF
:10134000808190E008958FEF9FEF089590910C03B6
:1013500080910B032FEF3FEF981748F4E92FF0E04F
:10136000E35FFC4F208130E09F5F90930C03C90145
:10137000089580910B0390910C03891B990B08959C
:10138000CF92DF92EF92FF920F931F93CF93DF9351
:101390007C01CB018A012091BB02222389F0EB0161
:1013A0006B01C40ED51ECC15DD0569F06991D7011E
:1013B000ED91FC910190F081E02DC7010995F3CFEB
:1013C000642F0E944908C801DF91CF911F910F91AE
:1013D000FF90EF90DF90CF900895CF93DF931F920F
:1013E000CDB7DEB769832091BB022223F9F02091AB
:1013F000DE02203258F021E030E0FC01338322830A
:1014000090E080E00F90DF91CF9108958091BC0231
:10141000E82FF0E0E354FD4F998190838F5F809334
:10142000BC028093DE0281E090E0ECCF61E0CE016F
:1014300001960E944908F7CF682F8CE893E00C943E
:10144000ED099FB7F89480910702882319F0815025
:101450008093070280910702811105C08CB58F7BB4
:101460008CBD109206029FBF08950C94490687FD1B
:1014700006C070E0082E000C990B0C94350A0895F4
:10148000FC01808187FD07C061E070E0082E000C40
:10149000990B0E94350A80910602882361F09FB75C
:1014A000F8942091060280910502213019F48DBB39
:1014B0009FBF08958FBF08958EBD00000DB407FE35
:1014C000FDCF8EB50895FB0124913196E491322F22
:1014D0002E2FFB013296E491E11103C090E080E0F1
:1014E00008956D5F7F4FDC01FC914217530730F088
:1014F000D901AE0FB11D4A175B0728F0EF9F600DB1
:10150000711D1124E0CF421B530BF49FC001F59FC6
:10151000900D1124860F971F0895EF92FF920F935D
:101520001F93CF93DF934115510509F44BC08A01F6
:101530007B01EC018981FA0180838A8181838F811B
:10154000828368857985F0E8EF16F10490F488814C
:1015500081110FC06115710579F08B81E81AF108CE
:101560002E812E9DC0012F9D900D1124860F971F57
:1015700026C061157105E1F46A857B8561157105E9
:1015800041F54B8188859985242F042E000C330B5F
:10159000241B31094E81429FB001439F700D1124DD
:1015A00028812130F1F030E020E0620F731FDECFA0
:1015B000A701CE0106960E94630A0097E9F2F8019E
:1015C00094838383DF91CF911F910F91FF90EF90D0
:1015D0000895A701CE0106960E94630A009779F745
:1015E000D0CF23E030E0E1CFDC01FB0112962C915B
:1015F0001297848195812817190641F49181808181
:10160000813A31F49D7F81E0913009F080E00895C6
:101610008132E1F79B3029F482811F968C9381E01F
:1016200008959A3099F7828150968C93F8CFDC0117
:10163000FB0188E4808389E4818384E482831D96AE
:101640009C911D979F709F5B93831D968D919C919C
:1016500024E0969587952A95E1F78F708F5B8483B8
:1016600085E00895EF92FF920F931F93CF93DF933E
:10167000FB012081213871F52381223259F5DC01EB
:1016800012964C91248135814217130619F5EC010D
:101690000B851C85F12CE12C0115110589F0F80151
:1016A000448155816281738180E80E9417078F3FD2
:1016B000980749F0E80EF91ED8010D911C91ECCF66
:1016C00081E08F87C701DF91CF911F910F91FF902C
:1016D000EF90089590E080E0F6CFCF93DF93CDB701
:1016E000DEB769970FB6F894DEBF0FBECDBFFC0121
:1016F000DB018C918F5F8C939E012D5F3F4F8DE0BE
:10170000D9011D928A95E9F729E0298384E08A832B
:1017100091E09D8383E08E832A8721E22B879C873B
:101720009D879F8722E2288B27E02B8B25E02C8B3F
:101730008E8B20E430E0388F2F8B998F82818B83C2
:1017400095858685998B8A8B838180688D8B49E10D
:1017500050E0BE016F5F7F4F80E00E9417076996DF
:101760000FB6F894DEBF0FBECDBFDF91CF910895C5
:10177000CF93DF938091FD01811167C081E0809359
:10178000F0018093F10126EF31E03093F3012093D3
:10179000F2011092F5011092F40128E231E0309349
:1017A000ED012093EC011092F8011092F7011092D4
:1017B000FA011092F9018093FB018093FC0181EC06
:1017C0008093F6010E945B07FC0181819091F001FA
:1017D000482F490F5527551F483051059CF5A281C8
:1017E000B381109709F52CEE31E0338322832081F9
:1017F0002093EE018093EF018091F101820F8083AD
:101800002091F201A22FB091F3018A2F821B891738
:10181000C8F481813D91C82FD0E0C050DF4F38839C
:101820008F5F8183F2CFD90118962D913C91199742
:1018300021153105C1F72CEE31E019963C932E931A
:101840001897D5CF81E08093FD018CEE91E0DF9178
:10185000CF910895CF92DF92EF92FF920F931F9353
:10186000CF93DF936C01EB017B01E40EF51E10E0DA
:1018700000E0CE15DF0581F069916D30D1F3D6011E
:10188000ED91FC910190F081E02DC6010995892B25
:1018900019F00F5F1F4FEDCFC801DF91CF911F915E
:1018A0000F91FF90EF90DF90CF90089590E080E04F
:1018B0000895E42FF0E0E455FF4F4491E62FF0E067
:1018C000E455FF4F7491E82FF0E0E455FF4F649129
:1018D000842F0895682F660F680F8B3A38F082E0E6
:1018E000860F482F409560E00C94590C863530F0F7
:1018F00041E0460F642F609580E0F6CF862F8095FB
:1019000040E0F2CFFC01218524FD08C025FF06C080
:1019100084818095881F8827881F089580E0089516
:10192000FC0191859073903331F484818095881FF8
:101930008827881F089580E008951F93CF93DF9331
:10194000EC018B819C8194FB112710F9162796FFDF
:1019500004C09F7B9C838B8311E08B819C8191FDD4
:1019600005C0112311F192609C838B830E94D806DD
:1019700029813A81FB01E21BF30B2B813C8111236E
:10198000E9F125FD1FC04D8132FD14C0442391F0C3
:1019900034603C832B837A8369838B819C818F7134
:1019A000992711E0892B09F410E0812FDF91CF9165
:1019B0001F9108954E171F0619F010F04111EDCF39
:1019C0002262E7CF37FDE9CF26FD0AC04F81A0E1B3
:1019D0004A9FA0011124E417F507F8F22464D9CF37
:1019E00027FF0AC04885A0E14A9FA001112428686A
:1019F000E417F50770F6D1CF4F81F5CF25FF19C059
:101A00008D818E171F0609F060F426FD03C08881C2
:101A10008F5F888337FD18822F7D206131603C8382
:101A20002B838B819C8192FFB8CF9B7F9C838B8380
:101A3000B4CF30FF0DC037FD03C020613C832B8342
:101A40002B813C813E773C832B837A836983E9CF6A
:101A50004881442379F0C901807C9927892B41F47E
:101A60008E8140E1849FC0011124E817F907C8F274
:101A70002160D5CF31FFD5CF2F733D7F3860E3CFC5
:101A80000F931F93CF93DF93EC01162F642F0E94C7
:101A90009D0C082F8C859D85009741F1298581FF3C
:101AA00021C020612987298582FF1EC028602987DF
:101AB00073E0969587957A95E1F79D878C878B8162
:101AC0009C8185FF91C090689C838B838B819C81D6
:101AD00093FD03C098609C838B838985806289878E
:101AE00081E007C02F7EDECF277FE1CF17FF07C041
:101AF00080E0802BDF91CF911F910F9108954A854F
:101B0000242F2295207F2595259525952595022E14
:101B1000000C330B812F012E000C990B281739076D
:101B200039F3220F331F220F331F282B392B220F9B
:101B3000331F81E696E1A4E9B9E404C0B595A79501
:101B4000979587952A95D2F7837045954595459544
:101B500045954150840F8295807F85958595859523
:101B60008595982F9295907F212F2F70922B9A8791
:101B7000907F09F4BDCF9985292F2370213049F139
:101B800020F1223049F131E018160CF030E092FBE0
:101B9000222720F98A858F708A87321709F1906190
:101BA00099870E94D80629813A81AB01421B530BC9
:101BB0009A014B8559857A836983852F42171306CD
:101BC00089F080F0886089877ACF133009F090CF50
:101BD000DACF1123C1F28CCF11501230A0F688CF8A
:101BE0009F7EDECF877FEFCF188270CFFC0183818D
:101BF000948191708436910591F1B0F4823291050F
:101C000009F43FC040F48130910591F1409769F1AA
:101C100090E080E008958134910569F18035910567
:101C2000B9F780E890E00895883E9105D9F048F42E
:101C3000813C910519F1803D910551F780E092E0DA
:101C400008958035F1E09F0739F0803D21E092074B
:101C500019F080319140E1F688E090E0089582E04B
:101C600090E0089584E090E0089580E190E0089588
:101C700080E290E0089580E091E0089580E094E0B3
:101C8000089581E090E00895FC012381348120FDD6
:101C90001082C9018F719927892B19F0207E348316
:101CA000238308951F93CF93DF93EC01162F0E9497
:101CB000440E612FCE01DF91CF911F910C949D0CAA
:101CC0008F929F92AF92BF92CF92DF92EF92FF924C
:101CD0000F931F93CF93DF937C01D62F0E94B306FF
:101CE0004B015C0180910503811167C0CD2F81E01C
:101CF00080930503809304039FEF90930303109256
:101D000002039D0F909301038093000380910003D1
:101D1000EE0CFF1C8E29809300038091FF0281301E
:101D200009F083C01092FF020E94B3066B017C0190
:101D3000809100038093BB0080910703909108037A
:101D4000A0910903B0910A03892B8A2B8B2BA1F058
:101D50000E94B3068090070390900803A0900903A7
:101D6000B0900A036C197D098E099F0986169706A3
:101D7000A806B90608F442C08091BC0083FDD8CF04
:101D800085EC8093BC000E94B3066B017C018091BE
:101D90000503813009F44BC0809102038D1710F4C4
:101DA000C0910203EFEDF2E0ADE0B3E080E08C170C
:101DB00051F191919D938F5FFACF8091070390919C
:101DC0000803A0910903B0910A03892B8A2B8B2B5E
:101DD00009F488CF0E94B30600910703109108030D
:101DE0002091090330910A03681979098A099B092E
:101DF000061717072807390708F074CF80910603E4
:101E00000E948E08C0E010920C03C0930B038C2F2D
:101E1000DF91CF911F910F91FF90EF90DF90CF90C6
:101E2000BF90AF909F908F90089585EEAACF80913C
:101E3000070390910803A0910903B0910A03892B2D
:101E40008A2B8B2B09F4A3CF0E94B3068090070343
:101E500090900803A0900903B0900A036C197D09C3
:101E60008E099F0986169706A806B90608F08FCF37
:101E7000C5CF5F926F927F928F929F92AF92BF92E7
:101E8000CF92DF92EF92FF920F931F93CF93DF9346
:101E90004C015B01EA01390181E08093BB0288E6D5
:101EA0008093DD021092BC021092DE0290E080E08E
:101EB0000E941C0A0E94AF0867E070E088E690E08C
:101EC0000E94600E8CE893E00E94A609982F9295DC
:101ED00097702AE0522E8F70959D800D1124F40189
:101EE00080838CE893E00E94A609982F92959F70BA
:101EF0008F70959D800D1124F50180838CE893E00F
:101F00000E94A609982F929593708F70959D800DD1
:101F1000112488838CE893E00E94A609982F92955B
:101F20009F708F70959D800D1124F30180838CE844
:101F300093E00E94A609982F92959F708F70959DAF
:101F4000800D1124F80180838CE893E00E94A6099B
:101F5000982F92959F708F70959D800D1124F70199
:101F600080838CE893E00E94A609982F92959F7039
:101F70008F70959D800D1124F6018083DF91CF91A4
:101F80001F910F91FF90EF90DF90CF90BF90AF9097
:101F90009F908F907F906F905F900895CF92DF9287
:101FA000EF92FF926B017C0181E08093BB0280E5A0
:101FB0008093DD021092BC021092DE02BB27AF2D8F
:101FC0009E2D8D2D0E941C0AC60199270E941C0A75
:101FD0000E94AF0861E070E080E590E00E94600E32
:101FE0008CE893E00E94A609FF90EF90DF90CF90DD
:101FF00008950F931F93FC01048115812681378179
:1020000040E052E16AE770E090E004171507260708
:10201000370740F476956795579547959F5F9630BB
:10202000A1F797E0292F206A2695909591708091CD
:102030000602882361F08FB7F894309106023130A0
:10204000A1F43DB3309305023DB33DBB8FBF2CBD22
:102050009DBD808187FD0CC070E060E0082E000C03
:10206000990B1F910F910C94350A80930502EFCFC5
:102070001F910F910895CF93DF93EC010E94F90F08
:102080008A8587FD05C060E0DF91CF910C94370A07
:1020900080E0DF91CF910C945C0ADF92EF92FF9287
:1020A0000F931F93CF93DF93EC017B01D42E211567
:1020B000310509F457C08B0101501109020F131F9C
:1020C000CE010E943B108AE20E945C0A61E08A8590
:1020D0000E94370A80E00E945C0A8F858E0D0E9464
:1020E0005C0A80E00E945C0AEB85FC85808191811E
:1020F0000817190710F00FEF080F8F85800F0E9447
:102100005C0A60E08A850E94370A8BE20E945C0AC2
:1021100061E08A850E94370A80E00E945C0A898912
:102120008D0D0E945C0A80E00E945C0AEB85FC85B4
:10213000898981509281890F0E945C0A60E08A85BA
:102140000E94370A8CE20E945C0A8A8587FD11C0D2
:1021500061E0DF91CF911F910F91FF90EF90DF90A1
:102160000C94370AEB85FC8500811181015011091F
:10217000A7CFCE010E94400ACE010E94F90F80E451
:10218000DF91CF911F910F91FF90EF90DF900C9412
:102190005C0ACF92DF92EF92FF9230E020E050E0B5
:1021A00040E070E060E080913D0590913E050E9426
:1021B0004D1020912A0530912B05A0912C05B0914E
:1021C0002D050E947C346B017C0181E0C81AD10886
:1021D000E108F1088FEFC816D806E806F80639F0CE
:1021E00080E00E945C0A80E00E945C0AEECF809151
:1021F0003D0590913E05FF90EF90DF90CF900C94BD
:10220000400A2F923F924F925F926F927F928F92ED
:102210009F92AF92BF92CF92DF92EF92FF920F9375
:102220001F93CF93DF93CDB7DEB72B970FB6F894FC
:10223000DEBF0FBECDBF582E7B014A01182F612C87
:102240001F82712CA0913B05B0913C0511968C9199
:10225000119790E0880F991F20912A0530912B0546
:10226000281B390B1217130609F030F4F401E70D9F
:10227000F11D8081811120C048E0E40EF11C8091A5
:102280002C0590912D05E816F90608F00CC1639411
:1022900015968C91159790E0880F991F681619066E
:1022A00009F07AC0F401E70DF11D8081882309F45B
:1022B000FAC0152D7F82612C60912D0370912E0341
:1022C000F401E70DF11D808173946115710509F02A
:1022D00066C0682F70E0803C98F710922E03109231
:1022E0002D031C96ED91FC911D97AE014F5F5F4F42
:1022F000CD010995862D90E0959587954A819C01A1
:10230000E3E0220F331FEA95E1F709814217130634
:1023100009F00CF4B9C0089F9001099F300D1124F9
:102320008C819D81820F931F9D838C83862D81706C
:102330008887198688859985880F991F880F991F26
:102340009B878A87412E0E839E81911132C0000F98
:10235000100F2B8130E0220F331F612F70E0A70197
:1023600080913D0590913E050E944D1008E0C0907F
:102370003905B0903A05D12C8B8190E0880F991FD8
:10238000D81619060CF084C08B2D0E945C0A8C2D87
:102390000E945C0AD394F0CF152D7F808DCFF6E09C
:1023A000660F771FFA95E1F7607C77708F73682B63
:1023B00094CFEC81FD81E491F0E00A8402C0F595B0
:1023C000E7950A94E2F730E020E0C12C2430310593
:1023D000C1F0CF01022E02C0959587950A94E2F7CD
:1023E00080FF0DC0C901880F991F43E001C0440F51
:1023F0008A95EAF7842FC82A2F5F3F4FE7CF80E006
:10240000FACF642D70E022E030E0A70180913D0515
:1024100090913E050E944D10B12CA12CD12CC601EB
:102420000A2C02C0959587950A94E2F730903705FB
:102430002090380580FD04C03090390520903A0581
:10244000822D0E945C0A832D0E945C0A822D0E94CC
:102450005C0A832D0E945C0A8FEFA81AB80A98E0E4
:10246000A916B104E1F680913D0590913E050E94C8
:10247000400A439443948C819D8101969D838C8373
:102480004E8141504E8360CF8B81800F8B835FCF15
:10249000015009F06CCF180F80913D0590913E05D9
:1024A0000E94400ACFCE2B960FB6F894DEBF0FBE27
:1024B000CDBFDF91CF911F910F91FF90EF90DF90F3
:1024C000CF90BF90AF909F908F907F906F905F90D4
:1024D0004F903F902F9008959F92AF92BF92CF92CE
:1024E000DF92EF92FF920F931F93CF93DF936A01D6
:1024F000D0913905B0903A05A090370590903805F5
:1025000020E230E0AB01BC0180913D0590913E0599
:102510000E944D1081E2E82EF12CC1E081E0E81A22
:10252000F108F1F010E000E0F601E00FF11FE49196
:10253000EC2389F0892D0E945C0A8A2D0E945C0A96
:102540000F5F1F4F0032110579F7C6018096CC0F3F
:1025500029F76C01E2CF8B2D0E945C0A8D2FEECF04
:1025600080913D0590913E05DF91CF911F910F9194
:10257000FF90EF90DF90CF90BF90AF909F900C9422
:10258000400A90E09C01235D374F825F974FF9012D
:10259000613009F440C0623001F14491FC01549172
:1025A000E52FF0E0EE0FFF1FEE50F84FA591B4912C
:1025B0005C91409545234C93F9012491FC01849151
:1025C000E82FF0E0EE0FFF1FE050F84FA591B49117
:1025D0008C91209528232C9308954491FC015491CB
:1025E000E52FF0E0EE0FFF1FEE50F84FA591B491EC
:1025F0005C91409545234C93F9012491FC01849111
:10260000E82FF0E0EE0FFF1FE050F84FA591B491D6
:102610008C91282BE0CF2491FC018491E82FF0E0ED
:10262000EE0FFF1FEE50F84FF1CF90E0FC01E25F9C
:10263000F74FE491F0E0EE0FFF1FE553F94FA5913E
:10264000B4912C91835D974FFC018491822391E09A
:1026500009F490E0892F08951F93CF93DF93EC0145
:10266000862F6E874F87288B60E00E94C11260E042
:102670008F850E94C11262E088890E94C1128B81FD
:102680009C8190619C838B838E850E941513182FEB
:102690008F850E941513880F812B982F9F708A8534
:1026A000807F892B8A87DF91CF911F9108954F9268
:1026B0005F926F927F928F929F92AF92BF92CF92D2
:1026C000DF92EF92FF920F931F93CF93DF9300D08F
:1026D00000D000D0CDB7DEB789830E94D806009124
:1026E000E7011091E8012091E9013091EA01601BB6
:1026F000710B820B930B663471058105910508F40B
:10270000F5C0E091B602F0E0EA57FD4FE491E093A6
:102710000A050E94D8066093E7017093E801809350
:10272000E9019093EA012981253108F0DFC0E22F09
:10273000F0E0E356FC4E0C944C35B213DC13E81376
:102740002414471453145F147614761476147614F4
:102750007614761476147614761476147614761429
:1027600076146B148091E60189830E946A0CEEED69
:10277000F3E061937193819395E0EA30F907C9F72B
:10278000E981ED5FE093E60126960FB6F894DEBF8F
:102790000FBECDBFDF91CF911F910F91FF90EF90B2
:1027A000DF90CF90BF90AF909F908F907F906F9071
:1027B0005F904F900C945204EAEDF3E08FEF848326
:1027C00085838683339625E0E630F207C1F7DCCFB8
:1027D0008EED93E09E838D83C12CD12C7601CA941B
:1027E0000E94E6312B013C010E94E6314B015C0165
:1027F0000E94E63169837A838B839C83C301B20193
:10280000A70196010E94F133062FC501B401A7016B
:1028100096010E94F133162F69817A818B819C8108
:10282000A70196010E94F133862F402F612F0E944D
:10283000590CED81FE81619371938193FE83ED8349
:10284000EA50F54069F6A0CF8EEDE82E83E0F82E31
:1028500010E000E08091E60189836091B30270E0AE
:10286000C8010E9438358981860F0E946A0CF701E1
:102870006193719381937F0101501F4F0C39F3E6EF
:102880001F0741F729812D5F2093E6017DCFEAEDF7
:10289000F3E08FEF848315821682339695E0E6305D
:1028A000F907C1F771CFEAEDF3E080E81482858380
:1028B0001682339625E0E630F207C1F765CFEAEDE0
:1028C000F3E08FEF148215828683339695E0E6302D
:1028D000F907C1F759CFEAEDF3E0148215821682A9
:1028E000339625E0E630F207C1F74ECF26960FB6B5
:1028F000F894DEBF0FBECDBFDF91CF911F910F9136
:10290000FF90EF90DF90CF90BF90AF909F908F900F
:102910007F906F905F904F9008958F929F92AF92AB
:10292000BF92CF92DF92EF92FF926B017C010E94E7
:10293000B3064B015C01C114D104E104F10439F187
:102940008091B802882341F08091B202882321F05F
:102950008091B7020E9457130E94B3066819790943
:102960008A099B09683E73408105910520F321E0A7
:10297000C21AD108E108F10888EE880E83E0981E9B
:10298000A11CB11CC114D104E104F10429F7FF908A
:10299000EF90DF90CF90BF90AF909F908F90089571
:1029A0007F928F929F92AF92BF92CF92DF92EF92DF
:1029B000FF920F931F93CF93DF93C82E8B017A0161
:1029C0008091BA02811110C08FEF9FEFDF91CF91FC
:1029D0001F910F91FF90EF90DF90CF90BF90AF903D
:1029E0009F908F907F90089580915E0280FF05C038
:1029F0008091E00082608093E000CE2DDF2DD12C0D
:102A00008AEFB82E8C2D8770982E8C2D8072882E90
:102A10008C2D8074782E9AE3A92E209719F4DD204E
:102A200009F452C08C2D0E943D0781110AC0BA944E
:102A3000BB2051F261E070E080E090E00E948D14D4
:102A4000ECCF8C171D0611F00CF08C2F9FB7F8946B
:102A50009092E9002091E80025FD02C09FBFDDCFE4
:102A6000282F30E0C21BD30B882029F08150A0F022
:102A70001092F100FBCFF801C7FC0AC0815050F062
:102A800041914093F100FACF44914093F100319687
:102A90008150D0F7020F131FDD2021F0A092E80033
:102AA000D12CDCCF8091E80085FD07C0A092E80022
:102AB000DD24D394209791F2F3CF209779F67720F5
:102AC00069F2A092E800CACF5D9A84E680935D0225
:102AD000C7017CCFCF93DF93EC0180911201882353
:102AE00031F083E00E94D0141816190634F081E00A
:102AF00090E09B838A8380E090E0DF91CF910895FE
:102B0000CF93DF93FC0144815581608171818FE215
:102B100093E00E946A15EC0142E050E06BE771E03F
:102B20008FE293E00E946A158C0F9D1FDF91CF9179
:102B30000895AF92BF92CF92DF92EF92FF920F93E0
:102B40001F93CF93DF931F92CDB7DEB77C016983CC
:102B50006A01590141E050E0BE016F5F7F4FFC0107
:102B600083810E94D0148C0197FD0BC0F7018381F3
:102B7000A501B60180640E94D014080F191F97FDAB
:102B80008C01C8010F90DF91CF911F910F91FF90A1
:102B9000EF90DF90CF90BF90AF900895CF93DF93E9
:102BA000EC010E94B80B28E030E0AE0162E0DF915A
:102BB000CF910C949915E5ECF3E0168217821086FC
:102BC000118612861386148289EC93E00C94CE153C
:102BD000DC016838A0F06858FD0186E0662321F02A
:102BE0009681961301C01682815031968111F6CFDD
:102BF000CD0104960E94CE1581E090E00895862FC5
:102C000090E067FF13C0FC01E058F10981E090E01B
:102C100001C0880FEA95EAF7809514969C91149765
:102C2000892314968C93149760E0D6CF1C96ED916F
:102C3000FC911D97E80FF91F64916623E1F0862F40
:102C4000807C803C69F414968C9114978F7B149649
:102C50008C9314976F73623309F0BECF64E6BCCFD8
:102C600067FFF9CF14968C9114978D7F14968C93EF
:102C700014976F77F0CF90E080E00895DC0168381A
:102C800088F1685816968C911697861721F1179639
:102C90008C9117978617F9F018968C9118978617CC
:102CA000D1F019968C9119978617A9F01A968C91E4
:102CB0001A97861781F01B968C911B97861759F0EF
:102CC000FD01369690E080E0219121114FC08A0FDE
:102CD0009B1FFC016683CD0104960E94CE1581E006
:102CE00090E00895862F90E067FF12C0FC01E05845
:102CF000F10921E030E001C0220FEA95EAF71496CD
:102D00008C911497822B14968C93149760E0BACF11
:102D10001C96ED91FC911D97E80FF91F64916111CC
:102D200009C081E090E013969C938E93129790E0F7
:102D300080E00895862F807C803C69F414968C9105
:102D40001497806414968C9314976F73623309F010
:102D500099CF64E697CF67FFF9CF14968C911497BB
:102D6000826014968C9314976F77F0CF019686301B
:102D7000910509F0A9CFD5CF2F923F924F925F9244
:102D80006F927F928F929F92AF92BF92CF92DF927B
:102D9000EF92FF920F931F93CF93DF93382EEB01A7
:102DA0005A01E22E4801212C10E082E3482E512CDA
:102DB000612C712CAC16BD06F0F06E018FEFC81AB5
:102DC000D80A332079F1BE0190E080E00E94CE0F56
:102DD000F82EB60190E080E00E94CE0F082F8FEF12
:102DE0008F0D111128C08E3F30F12197BE0190E068
:102DF00080E00E94CE0F6F2D85EC93E0DF91CF91A4
:102E00001F910F91FF90EF90DF90CF90BF90AF9008
:102E10009F908F907F906F905F904F903F902F90FA
:102E20000C94E815F401EC0FFD1FF080F401EC0D9B
:102E3000FD1D0081D4CF853008F440C06F2D85EC96
:102E400093E0E11038C00E943E16013089F0112352
:102E500029F00E94DB1510E02196ACCF8FEF800F98
:102E60008E3F20F56F2D85EC93E00E94E8152F2C06
:102E70008EEF8F0D823080F7E11016C083E060E0A6
:102E8000F81206C00E94E631A30192010E94F133BC
:102E900070E08AE0089F600D711D1124072E000C60
:102EA000880B990B0E948D14E601D6CF222001F3E6
:102EB0006F2D85EC93E00E94E815DACF81E0F812DF
:102EC000D7CFE110D5CF11E0C7CFEF92FF921F937C
:102ED000CF93DF93EC01162F0E943E167C01612FE9
:102EE000CE010E94E815C7019927DF91CF911F916C
:102EF000FF90EF9008959091B50398138093B503D8
:102F00000E94B80B23E030E044EB53E061E00E9404
:102F1000991581E090E00895E4EBF3E010821182CE
:102F200012820E94B80B23E030E044EB53E061E0F2
:102F30000C949915BF92CF92DF92EF92FF920F936C
:102F40001F93CF93DF93EC01888D87FD03C061E071
:102F50000E947706898D87FD03C061E00E94770695
:102F60001FB7F89480910702811127C0EFE1F8E0C4
:102F70008491EEE3F8E09491E82FF0E0EE0FFF1F6C
:102F8000EE50F84FA591B491EC91E92321F461E062
:102F900081E10E94490661E081E10E9477068CB5DB
:102FA00080618CBD8CB580648CBD61E08FE00E9437
:102FB000770661E080E10E947706809107028F5FCB
:102FC000809307021FBF0F8907FD28C061E0802F93
:102FD0000E947706002E000C110B61E070E0C80122
:102FE0000E94350A6AE070E080E090E00E948D1453
:102FF00070E060E0C8010E94350A6AE070E080E09D
:1030000090E00E948D1461E070E0C8010E94350AD2
:1030100064E170E080E090E00E948D1480E890E030
:103020009B838A8380EA90E09D838C8368E770E0CD
:1030300080E090E00E948D140D88DE89C02DCE01C5
:103040000E943B100CEA11E084E1E82E82E0F82EA9
:10305000BB24BA94CC24C394F801D490CC2089F139
:10306000FFEFCF1217C0CE010E94400A8FEFD81693
:1030700061F06D2D70E090E080E00E948D14CE0133
:103080000E943B10CC24C3940BC064EF71E080E03D
:1030900090E0F3CF8D2D0E945C0ABB24BA94C12C22
:1030A0000F5F1F4FE016F106B9F6CE01DF91CF9109
:1030B0001F910F91FF90EF90DF90CF90BF900C94F5
:1030C000400AEFEFBE120AC0D7FC13C0DD20D1F2D8
:1030D00061E08A850E94370ABD2CE2CFBA948D2D1B
:1030E0000E945C0AB110DCCF60E08A850E94370A3A
:1030F000C9CFCD2CD5CFCF92DF92EF92FF92CF9355
:10310000DF936B017C01D42FC1E0C093BB0280E54B
:103110008093DD021092BC021092DE02BB27AF2D1D
:103120009E2D8D2D0E941C0AC60199270E941C0A03
:1031300061E070E080E590E00E94600E8CE893E032
:103140000E94A6096D2F8CE893E00E94ED09109271
:10315000B80265E070E080E090E00E948D14C093BA
:10316000B802DF91CF91FF90EF90DF90CF900C9459
:10317000AF08009711F481E090E00C946635CF938E
:10318000DF93EC0188819981009711F00E9402364B
:10319000198218821D821C821B821A82DF91CF91B4
:1031A0000895FC0180819181009711F00C94023602
:1031B0000895FF920F931F93CF93DF938C01EB0140
:1031C000F8800E94DB33F81621F06F2DC8010E94B1
:1031D000E333CE01DF91CF911F910F91FF900895BE
:1031E000DF92EF92FF920F931F93CF93DF93809123
:1031F000B5028F5F853008F048C08093B50265EB5B
:1032000072E085EF93E00E94D9188091B202882382
:1032100009F44DC04FEF6FEF8FEF0E94590CCEEDC8
:10322000D3E0FE0161937193819394E0E935F9074E
:10323000C9F71092B802DD24D39485E8E82E83E024
:10324000F82E06E812E08091B50290E00196D816BB
:10325000190609F0ECF4F701849180930A050E94A5
:1032600052046AEF70E080E090E00E948D14F80153
:10327000849180930A050E9452046AEF70E080E016
:1032800090E00E948D14D394DECF1092B502B7CF98
:1032900040E060E080E00E94590C69937993899343
:1032A000F4E0C935DF07C9F781E08093B802DF9108
:1032B000CF911F910F91FF90EF90DF9008950C94A4
:1032C000DB330E944837FC0180819181009711F027
:1032D0000C943E3260E070E0CB010895CF93DF9311
:1032E000FC01248135814217530788F4C081D181C4
:1032F000062E000C770BCE01840F951F0E945637C7
:10330000009729F08C1B9D0BDF91CF9108958FEFD3
:103310009FEFFACFFC0124813581232B39F421E082
:10332000FB018081882349F020E007C080819181E2
:103330000E94613721E0892BB9F7822F08950F93FE
:103340001F93CF93DF938C01EB01FC01808191816E
:103350000097E1F06881798161157105A9F04281DA
:1033600053812C813D814217530770F00E946A37C8
:103370008C819D81F801958384831D821C82DF915D
:10338000CF911F910F9108950E94023688819981F3
:10339000F801918380838A819B81938382838C81CE
:1033A0009D8195838483198218821B821A82E5CFBE
:1033B0000F931F93CF93DF93EC018881998100973E
:1033C00059F02A813B812617370730F081E0DF91E1
:1033D000CF911F910F9108958B016F5F7F4F0E94D6
:1033E0008B36009759F0998388831B830A832C813D
:1033F0003D81232B59F7FC011082E8CF80E0E7CF15
:10340000EF92FF920F931F93CF93DF936115710596
:1034100041F480E0DF91CF911F910F91FF90EF90E9
:10342000089541155105B1F07B01EC010C811D811E
:10343000040F151FB8010E94D819882351F3288161
:1034400039818C819D81B701820F931F0E946A3759
:103450001D830C8381E0DECFEF92FF920F931F93C9
:10346000CF93DF9300D000D0CDB7DEB77C01862F9D
:103470004AE08E010F5F1F4FB80190E00E94653255
:10348000F80101900020E9F73197AF01401B510B83
:10349000B801C7010E94001A811103C0C7010E9430
:1034A000BF18C7010F900F900F900F90DF91CF9131
:1034B0001F910F91FF90EF900895CF93DF93EC0150
:1034C000FB0101900020E9F73197AF01461B570B34
:1034D0000E94001A811103C0CE010E94BF18CE01C4
:1034E000DF91CF910895CF93DF93EC01FB014481ED
:1034F0005581608171810E94001A811103C0CE0143
:103500000E94BF18CE01DF91CF910895EF92FF92F4
:103510000F931F93CF93DF93EC017B018A01BA01D4
:103520000E94D81981110BC0CE010E94BF18CE0194
:10353000DF91CF911F910F91FF90EF9008951D8320
:103540000C83B701888199810E946A37F0CFFB0113
:1035500001900020E9F73197AF01461B570B0C94FF
:10356000861A0F931F93CF93DF93CDB7DEB72997BA
:103570000FB6F894DEBF0FBECDBF8C01862FF801C9
:103580001182108213821282158214824AE0BE01D7
:103590006F5F7F4F90E00E94B632BE016F5F7F4F3A
:1035A000C8010E94A71A29960FB6F894DEBF0FBE75
:1035B000CDBFDF91CF911F910F910895CF93DF93EE
:1035C000EC01FB018617970749F060817181611555
:1035D000710541F0448155810E94861ACE01DF9128
:1035E000CF9108950E94BF18F9CFFC01118210827B
:1035F00013821282158214820C94DE1AFC0111824D
:1036000010821382128215821482FB010190002025
:10361000E9F73197AF01461B570B0C94861AAF920E
:10362000BF92CF92DF92EF92FF920F931F93CF93AF
:10363000DF936C015B017A0189012417350720F4BF
:103640008F2D7901042F182F6DE771E0C6010E94BC
:10365000FE1AD5011496CD91DC91EC16FD06E0F42E
:103660000C171D0708F4E801D501ED91FC911197A5
:10367000EC0FFD1F108110826D917C916E0D7F1DEE
:10368000C60161157105A1F00E94A71AF50180819C
:103690009181C80FD91F1883C601DF91CF911F9167
:1036A0000F91FF90EF90DF90CF90BF90AF90089573
:1036B0000E94BF18EBCF8F929F92AF92BF92CF9292
:1036C000DF92EF92FF920F931F93CF93DF9300D07F
:1036D00000D000D0CDB7DEB74C01862F90E00E941D
:1036E000B9185C018C01F12CE12C8091B202882385
:1036F00021F08091B7020E945713A70160E4C40132
:103700000E946E196C018FEFC816D806B9F09601A9
:10371000A701B401CE0101960E940F1BCE010196B4
:103720000E946319F80161938F017601FFEFEF1A90
:10373000FF0ACE0101960E94D118D7CFC501269667
:103740000FB6F894DEBF0FBECDBFDF91CF911F91B2
:103750000F91FF90EF90DF90CF90BF90AF909F9030
:103760008F900895EF92FF920F931F93CF93DF9363
:10377000CDB7DEB762970FB6F894DEBF0FBECDBFF0
:10378000E82E6DE771E0CE010D960E94FE1A0DEE57
:1037900013E0C8010E945F19F82E682FCE0107962A
:1037A0000E94B11ABE01635F7F4FCE0101960E9455
:1037B000F51ABE01695F7F4FCE0101960E94731A10
:1037C000BC01CE010D960E94DE1ACE0101960E9428
:1037D000D118CE0107960E94D118083F83E0180740
:1037E000D4F4BE01635F7F4FCE0101960E94F51AAB
:1037F0006EE771E0CE0101960E945D1ABC01CE0118
:103800000D960E94DE1ACE0101960E94D118F80191
:10381000E054F140F0820F5F1F4F011584E018075C
:1038200009F0B7CF81E0E81204C0CE010D960E94E6
:103830008015CE010D960E94D11862960FB6F894AD
:10384000DEBF0FBECDBFDF91CF911F910F91FF90D3
:10385000EF90089585ED8093BC00809107039091CF
:103860000803A0910903B0910A030796A11DB11D99
:1038700023E0B695A795979587952A95D1F720913E
:10388000BC0024FD03C01092050308954091070376
:10389000509108036091090370910A03452B462B50
:1038A000472B69F30097A105B10541F02AE22A955B
:1038B000F1F700C00197A109B109E1CF809106039A
:1038C0000C948E08EF92FF920F931F93CF93DF9388
:1038D000CDB7DEB7A8970FB6F894DEBF0FBECDBF49
:1038E0008C016DE771E00E94FE1AF0906C0261E0BD
:1038F0008F2D0E944906E0906F0260E08E2D0E949D
:10390000490661E08E2D0E94490660E08F2D0E94DD
:103910004906F12C8091700228E0829FC001112499
:10392000F816190694F580916D020E9420061CA2DB
:103930001BA21EA21DA218A61FA2BC01990F880BD4
:10394000990B2AE0AE014F5F5F4F0E947032BE01BB
:103950006F5F7F4FCE0183960E94A71A4FA158A593
:103960006BA17CA1C8010E94001ACE0183960E941F
:10397000D118E0906E0261E08E2D0E94490660E051
:103980008E2D0E944906F394C5CFF801248135811C
:103990002817390798F460E871E0CE0101960E947B
:1039A000FE1AB801CE0101960E94731ABC01C8012B
:1039B0000E94DE1ACE0101960E94D118C801A89675
:1039C0000FB6F894DEBF0FBECDBFDF91CF911F9130
:1039D0000F91FF90EF9008954F925F926F927F92B8
:1039E0008F929F92AF92BF92CF92DF92EF92FF920F
:1039F0000F931F93CF93DF93CDB7DEB768970FB6C2
:103A0000F894DEBF0FBECDBFE82E0E94D8062B0172
:103A10003C014FEF6FEF8FEF0E94590CAB01682F05
:103A20002091B30230E0EEEDF3E090E080E0821709
:103A300093072CF44193519361930196F8CF40E0A2
:103A400060E080E00E94590C9B01482FE091B30296
:103A50008E2F90E053E0E59FF0011124E252FC4FDD
:103A6000853691052CF42193319341930196F8CF3B
:103A7000E091B602F0E0EA57FD4FE491E0930A05C9
:103A80000E945204CE2CD12C89E0E89E50011124D2
:103A9000FF24F39489E0882E992493940E94D806F9
:103AA0006419750986099709683B7B408105910572
:103AB00008F460C066EB72E086EF93E00E94D918CC
:103AC0006091B502CE0143960E94B11A6091B60290
:103AD000CE010D960E94B11A6091B702CE010796F1
:103AE0000E94B11A62E871E0CE0101960E94FE1AAE
:103AF000BE01695F7F4FCE0101960E94731A62E892
:103B000071E00E945D1ABE01635F7F4F0E94731ACD
:103B100062E871E00E945D1ABE016D5E7F4F0E94F7
:103B2000731A0E948015CE0101960E94D118CE0111
:103B300007960E94D118CE010D960E94D118CE0191
:103B400043960E94D11868960FB6F894DEBF0FBE58
:103B5000CDBFDF91CF911F910F91FF90EF90DF903C
:103B6000CF90BF90AF909F908F907F906F905F901D
:103B70004F9008958091B002882379F0CE0101968C
:103B80000E94621CBE016F5F7F4F82E295E00E943F
:103B90009F19CE0101960E94D11880917402E816F7
:103BA00048F500916A0210916B020A0D1B1DE0910D
:103BB0007102F0917202EC0DFD1DE0818E2F90E0FC
:103BC00020912605309127058217930730F4E09164
:103BD0002205F0912305309751F41092EB01EBEEA2
:103BE000F1E061E08081803301F160E01EC0E80F08
:103BF000F91FF7CF9601281B3109C901889E900152
:103C0000899E300D11240091660210916702020F07
:103C1000131FE0916802F0916902E80FF91F80819B
:103C20000E94200661E0892B01F7C8010E94520E14
:103C3000C8010E94F60D843029F0883009F02ECF9B
:103C4000F9242CCF0E94D8062B013C018091B602AA
:103C5000FF2081F08B3F18F48B5F8093B602E091D8
:103C6000B602F0E0EA57FD4FE491E0930A050E94A6
:103C7000520414CF853098F38550EFCFBF92CF9286
:103C8000DF92EF92FF920F931F93CF93DF93CDB705
:103C9000DEB768970FB6F894DEBF0FBECDBFD82E43
:103CA000142FB22E3091B5022091B30290E0329FD2
:103CB000800D911D112425E6289F7001299FF00C8D
:103CC0001124623009F4A4C0A0F4662301F161302C
:103CD00089F168960FB6F894DEBF0FBECDBFDF91B5
:103CE000CF911F910F91FF90EF90DF90CF90BF90F9
:103CF0000895633009F49AC0643059F74111B2C095
:103D0000670181E3C80ED11CC701499697C06701BE
:103D100083E6C80ED11CC114D104D9F281E090E031
:103D20000E9466358C012B2DA601B70181E00E940F
:103D3000BC16CFCF433011F40E94F0188091B2022C
:103D4000882309F461C0111154C08091B7028F5FBC
:103D5000873018F48093B70202C01092B70267EB65
:103D600072E087EF93E00E94D9186091B502CE010E
:103D700043960E94B11A6091B602CE010D960E9440
:103D8000B11A6091B702CE0107960E94B11A62E89B
:103D900071E0CE0101960E94FE1ABE01695F7F4F5D
:103DA000CE0101960E94731A62E871E00E945D1ACA
:103DB000BE01635F7F4F0E94731A62E871E00E9448
:103DC0005D1ABE016D5E7F4F0E94731A0E948015BE
:103DD000CE0101960E94D118CE0107960E94D118FB
:103DE000CE010D960E94D118CE0143960E94D118A3
:103DF00070CF113011F484E1ADCF123009F0B5CF9E
:103E00008D2D0E94EC1C65CF123009F462CFADCF2E
:103E1000670193E6C90ED11C442351F1670191E378
:103E2000C90ED11C413009F054CF75CF411108C0E3
:103E3000670181E4C80ED11CC70181967C016BCF5C
:103E4000423041F4670192E6C90ED11CC7018E5B76
:103E50009F4FF4CF670190E2C90ED11C413009F0A9
:103E600038CF59CF423039F467019AE4C90ED11CDA
:103E7000C701C296E3CF433041F4670193E6C90E10
:103E8000D11CC701855B9F4FD9CF413009F021CFAD
:103E9000670198E1C90ED11C3ECF8F929F92AF92DD
:103EA000BF92CF92DF92EF92FF920F931F93CF9327
:103EB000DF93CDB7DEB768970FB6F894DEBF0FBEBD
:103EC000CDBF0E94D8060091750210917602209114
:103ED000770230917802601B710B820B930B68396B
:103EE0007A438105910580F080917902882361F001
:103EF0000E94D806609375027093760280937702D1
:103F000090937802109279028091B002882379F020
:103F1000CE0101960E94621CBE016F5F7F4F82E25C
:103F200095E00E949F19CE0101960E94D1188091C0
:103F3000B4028F3F09F4B3C000916402109165028E
:103F4000F8018089918597FF77C00E941513F82E9C
:103F5000C8010E94440EF801818585FF02C08F7D53
:103F600081874F2D6FEFC8010E94400D882309F40F
:103F700096C0E0906402F0906502F701818585FDAE
:103F800075C0C7010E94F60D8032910509F410C179
:103F90008034910509F46AC0029709F080C08091CD
:103FA000B4028F5F833008F000C18093B40264EBE9
:103FB00072E084EF93E00E94D9188091B2028823C6
:103FC00009F46DC040E060E080E00E94590C9B0164
:103FD000482F0EED13E089E594E0F8012193319329
:103FE00041938E179F07D1F74FEF6FEF8FEF0E942E
:103FF000590C6B01E82E2091B40230E090E080E093
:10400000F801C192D192E1928F01019628173907E8
:10401000BCF7E5E8F3E0E491E0930A050E9452045E
:104020001092B80268EE73E080E090E00E948D1478
:1040300081E08093B80233C00E941513E82EF80186
:1040400086850E941513F82EF80187850E941513A6
:10405000880FF82AC8010E94440EF801918595FF47
:1040600002C09F7D91874E2D6F2D7DCF1091B402A0
:10407000111150C0C7010E94900C882319F080E1F3
:104080000E947B1780916402909165020E94820CCD
:10409000882319F080E20E947B170E948C1710E0A1
:1040A00089E0D82E95E6C92E8091B302181708F042
:1040B000D2C180917402A12EB12C181708F08DC0C6
:1040C00080906A0290906B021D9D800C911C1124BF
:1040D000E0917102F0917202EA0DFB1DE0818E2FDA
:1040E00090E020912605309127058217930738F438
:1040F000E0912205F0912305309709F06BC01092F2
:10410000EB01EBEEF1E061E08081803309F481C0E6
:1041100060E07FC0113061F50E94D80660939B0279
:1041200070939C0280939D0290939E0210939A023A
:10413000C7010E94820C1091B602882381F01530CD
:1041400018F015501093B602E091B602F0E0EA576D
:10415000FD4FE491E0930A050E945204A0CFC701ED
:104160000E94900C882381F31B3F70F71B5FEACFFE
:10417000123009F094CFC7010E94900C882329F0D7
:1041800069ED85EC93E00E943E1680916402909167
:1041900065020E94820C882329F06AED85EC93E089
:1041A0000E943E160E94DB157ACF1092B402FFCE19
:1041B0008091B402811173CFF7018081813009F4BD
:1041C0006ACF823011F488E066CF833009F065CF82
:1041D00084E061CFE80FF91F96CF9501281B3109C4
:1041E000C901D89E9001D99E300D1124809066029D
:1041F00090906702820E931EE0916802F09169022E
:10420000E80FF91F80810E94200661E0892B09F0E8
:104210007FCFC4010E94520EC4010E94F60DF82EF9
:10422000F401E0809091B5028091B302989FA00CB8
:10423000B11C1124CA9CB001CB9C700D11246C5987
:104240007F4F072E000C880B990B0E94CE0F082F72
:104250006DE771E0CE0143960E94FE1A80917902CB
:10426000F4E0FF1609F45EC0FF15F0F021E0F2164D
:1042700009F49FC032E0F31609F4B6C080917902C8
:10428000882361F06DE771E0CE0143960E948A19A0
:10429000811104C0CE0143960E948015CE01439641
:1042A0000E94D1181F5F00CF98E0F91609F461C091
:1042B000E0E2FE12E3CF882309F4B9C06E2DCE01EF
:1042C0000D960E94B11A612FCE0107960E94B11A75
:1042D00064E871E0CE0101960E94FE1ABE01695F9A
:1042E0007F4FCE0101960E94731A62E971E00E942D
:1042F0005D1A64E871E00E945D1ABE01635F7F4F42
:104300000E94731ABC01CE0143960E94DE1ACE01B0
:1043100001960E94D118CE0107960E94D118CE01B5
:104320000D9624C0882309F45BC0612FCE01079647
:104330000E94B11A64E871E0CE0101960E94FE1A53
:10434000BE01695F7F4FCE0101960E94731A66E835
:1043500071E00E945D1ABC01CE0143960E94DE1AF4
:10436000CE0101960E94D118CE0107960E94D11865
:1043700085CF8823A9F0612FCE0107960E94B11A3C
:1043800064E871E0CE0101960E94FE1ABE01695FE9
:104390007F4FCE0101960E94731A69E871E0D9CF70
:1043A00001116CCF21E040E060E0812F0E943E1EB1
:1043B00065CF8823A9F0612FCE0107960E94B11A1C
:1043C00064E871E0CE0101960E94FE1ABE01695FA9
:1043D0007F4FCE0101960E94731A6CE871E0B9CF4D
:1043E00020E001114BCFDFCF8823A9F0612FCE0150
:1043F00007960E94B11A64E871E0CE0101960E940E
:10440000FE1ABE01695F7F4FCE0101960E94731AAA
:104410006FE871E09ECF20E041E0002309F42ECF49
:10442000602F812F0E943E1E0E94DB1527CF0023A4
:1044300009F424CFF1E020E040E0EF1689F322E018
:10444000E21203C020E042E0EBCF33E0E312ECCF16
:1044500020E043E0E5CF68960FB6F894DEBF0FBECC
:10446000CDBFDF91CF911F910F91FF90EF90DF9023
:10447000CF90BF90AF909F908F9008956F927F9252
:104480008F929F92AF92BF92CF92DF92EF92FF9264
:104490000F931F93CF93DF93CDB7DEB72C970FB653
:1044A000F894DEBF0FBECDBF782E692E4B016A0196
:1044B00079015801182F8091B202882309F479C03C
:1044C0008091B7020E9457130FEF163498F4212FF2
:1044D00030E050E040E02753310941095109AFEF86
:1044E000B0E00E9410342FE030E040E050E00E9445
:1044F000F133022F8091B202882321F08091B7021C
:104500000E945713183308F452C0153508F00FEF06
:10451000EAE0F0E0872D962DBF010E943835605DFE
:104520006983805D8A8383E48B838CE28C8320E2C1
:104530002D83C401BF010E943835605D6E83805DAC
:104540008F8385E2888729872A872B871C86202FDF
:1045500030E0322F22272227387F309338052093EE
:104560003705A601B501C7010E946C12B501675F4E
:104570007F4FAE014F5F5F4FC70186960E940111CA
:104580000E944D1F2C960FB6F894DEBF0FBECDBF14
:10459000DF91CF911F910F91FF90EF90DF90CF901F
:1045A000BF90AF909F908F907F906F90089500E0A4
:1045B000AFCF0FEF163408F0A8CF89CF1F920F921C
:1045C0000FB60F9211242F933F938F939F93AF9326
:1045D000BF938091A5029091A602A091A702B091ED
:1045E000A8023091A40223E0230F2D3758F501963D
:1045F000A11DB11D2093A4028093A5029093A60251
:10460000A093A702B093A8028091A9029091AA0258
:10461000A091AB02B091AC020196A11DB11D809397
:10462000A9029093AA02A093AB02B093AC02BF91EF
:10463000AF919F918F913F912F910F900FBE0F904F
:104640001F90189526E8230F0296A11DB11DD2CF09
:104650001F920F920FB60F9211242F933F934F93F7
:104660005F936F937F938F939F93AF93BF93CF93FA
:10467000EF93FF93C091E1008091E100837F8093ED
:10468000E100C3FF0FC01092E90081E08093EB00CE
:104690001092EC0082E38093ED001092BA0288E061
:1046A0008093F000C2FF1AC00E949F0580915D02B6
:1046B000882341F080915D02815080935D028111D9
:1046C00001C05D988091B902882341F08091B902C0
:1046D00081508093B902811101C02898C4FF23C082
:1046E0008091E2008E7E81608093E2008091E10003
:1046F0008F7E8093E10080915E028E7E8061809348
:104700005E02FF91EF91CF91BF91AF919F918F91F9
:104710007F916F915F914F913F912F910F900FBEBD
:104720000F901F901895C0FFECCF8091E2008E7E15
:1047300080618093E2008091E1008E7E8093E100B1
:1047400080915E028E7E8160DACF1F920F920FB64B
:104750000F921124CF92DF92EF92FF920F931F934B
:104760002F933F934F935F936F937F938F939F9379
:10477000AF93BF93EF93FF93CF93DF93CDB7DEB7A4
:104780006C97DEBFCDBF1092E9008091E80083FFF7
:1047900025C068E0CE0145960E944E0782EF8093C7
:1047A000E8008D8987FF39C09091E80090FFFCCF29
:1047B000982F907609F034C19E894F89588D2F89A2
:1047C000F88C911131C0803861F580915F0280933F
:1047D000F1001092F1008EEF8093E8006C960FB616
:1047E000F894DEBF0FBECDBFDF91CF91FF91EF9167
:1047F000BF91AF919F918F917F916F915F914F91F9
:104800003F912F911F910F91FF90EF90DF90CF90EC
:104810000F900FBE0F901F9018959EEF9093E80099
:10482000C7CF1092F100D5CF913059F48111D3CF79
:104830004130510581F680915F028D7F80935F0248
:10484000CACF933049F48111C6CF4130510519F6D2
:1048500080915F028260F2CF953041F48091E80050
:1048600080FFFCCF20682093E300B5CF963009F09D
:10487000A9C00B8D1C8D22E01092E90010925B0202
:1048800010925A02F2122EC010925902109258023F
:104890000E946F071F8299E09983FA8291E09E83BC
:1048A00090EA98879AEF998720915A0230915B029B
:1048B000275F3F4F3C832B838D831092E90010923A
:1048C0005B0210925A02109359020093580249E079
:1048D00050E0BE016F5F7F4F80E00E9417070E948B
:1048E0006F0779CF10935902009358020E945B071B
:1048F000DC0112960D911C910115110509F451C1AD
:10490000D801ED91FC910480F581E02DBE016B5E34
:104910007F4FC8010995009709F03EC1F801008555
:104920001185EACFF3E0FF120EC08F89882309F4C6
:1049300040C0823061F440E86DE088E792E00E9478
:10494000F626811148CF81E28093EB0047CF81307A
:1049500029F440E86BE08CE692E0F1CF833099F7E0
:104960000E945B07DC011296ED90FC908E010F5FB8
:104970001F4F6801E114F10479F0D701ED91FC912A
:104980000680F781E02DB801C7010995080F111DB8
:10499000F701E084F184EECFD8011C92F60101907A
:1049A0000020E9F73197BF016C197D0940E0C6018D
:1049B000C6CF66E572E0FB01449150E080E80E94BA
:1049C000170709CF973009F4BECF983021F481E062
:1049D0008093F10000CF993009F0FDCE837009F08B
:1049E000B2CFE1E0F1E081E031E096E321912223D2
:1049F00071F08093E9003093EB00DF0111972C9167
:104A00002093EC009093ED008F5F873079F78EE76D
:104A10008093EA001092EA008F898093BA02DBCE7D
:104A20008B8D9C8D1092E90010925B0210925A02BD
:104A30009093590280935802898D811192C08E897A
:104A40009D89913A49F4813209F07DCF47E050E0E9
:104A50006BE071E080E0B3CF913209F074CF833224
:104A600069F48F89988DB0E0A0E08093070190935E
:104A70000801A0930901B0930A01ADCE803269F418
:104A80008091E80082FFFCCF67E08BE091E00E941C
:104A90004E078BEF8093E8009ECE823209F09BCECA
:104AA0008F8980931201EEEFFFE7859194918B3F00
:104AB0009C4D51F1E0E0F8E080910B0190910C01E8
:104AC000A0910D01B0910E01803B9440A105B1056C
:104AD000F1F48091120180FD1AC0EE3F8AE0F807E0
:104AE00089F587E797E791838083809160008093C1
:104AF0005C0288E19BE00FB6F894A8958093600073
:104B00000FBE9093600067CEEEEFFAE0D5CF8081C4
:104B100091818737974709F05ECEA8958091600014
:104B200088618093600080915C0280936000EE3F1A
:104B30002AE0F20789F08091FE0A9091FF0A9183A2
:104B4000808349CE808191818737980751F2909375
:104B5000FF0A8093FE0AC5CF1092FF0A1092FE0A48
:104B60003ACE0E945B07DC0112960D911C91011553
:104B7000110509F4E8CED801ED91FC910190F08186
:104B8000E02DBE016B5E7F4FC8010995811123CED8
:104B9000F80100851185EBCF181619060CF41BCE11
:104BA000D2CEF1E0FF12BECE6AE572E004CF1F92D2
:104BB0000F920FB60F9211242F933F934F935F9351
:104BC0006F937F938F939F93AF93BF93EF93FF93D5
:104BD0008091B900887F803609F44AC0F0F58832A8
:104BE00009F4A7C018F5803109F49BC0B8F48823F4
:104BF00009F4F9C0883009F494C0FF91EF91BF9196
:104C0000AF919F918F917F916F915F914F913F9164
:104C10002F910F900FBE0F901F901895883109F4B7
:104C200088C0803251F78093030314C0803409F4A4
:104C30009DC040F48033B9F38833F9F680930303C1
:104C400085ECB0C0803509F485C0883509F496C07C
:104C5000883499F60E942A1CD0CF883909F48CC078
:104C600038F5883729F050F4883611F0803729F666
:104C700083E08093050310924B0257C0883809F4F3
:104C80007BC0803919F0803809F0B7CF80914B0292
:104C9000803208F071C0E0914B0281E08E0F80936A
:104CA0004B028091BB00F0E0E55DFD4F80833DC08D
:104CB000803B39F0E0F4803A09F479C0883A09F091
:104CC0009CCF84E08093050310922A02109229025F
:104CD000E0916202F09163020995809129028111AD
:104CE0000FC081E0809329021092090209C0803C24
:104CF00009F4A6CF883C09F4A3CF883B09F07DCF07
:104D0000E0912A0281E08E0F80932A02F0E0E75FB3
:104D1000FD4F80818093BB0090912A0280912902EF
:104D200029C0809100038093BB0085EC8093BC0078
:104D300064CF9091020380910103981758F5E09198
:104D4000020381E08E0F80930203F0E0E152FD4FF9
:104D50008081E9CFE091020381E08E0F809302030E
:104D60008091BB00F0E0E152FD4F808390910203FF
:104D7000809101039817C8F285E8D8CFE09102032B
:104D800081E08E0F809302038091BB00F0E0E1523E
:104D9000FD4F80838091040381115CCF81E080937B
:104DA000FF0284EA8093BC001092050326CF85ECB5
:104DB0008093BC001092050380914B02803230F446
:104DC000E0914B02F0E0E55DFD4F108260914B02F7
:104DD00070E0E0916002F09161028BE292E009954F
:104DE00010924B020ACF1092030334CFEF92FF923E
:104DF0000F931F93CF93DF93F82E192FE62E042FD6
:104E000081E0860F880F0E94E90683E00E94E90690
:104E1000CF2DD12FEC0EFD2EF11CCE15DF05B9F0F4
:104E200007FF13C0FE0184910E94E906182F80E05D
:104E30000E94E906812321968111EFCFDF91CF9166
:104E40001F910F91FF90EF9008958881EDCF81E041
:104E5000F5CFCF93DF93109232031092310388EE97
:104E600093E0A0E0B0E08093330390933403A093E9
:104E70003503B093360327E431E0309330032093B9
:104E80002F032FEF3FEF30933C0320933B032093FE
:104E90007F03109281031092800310928B03109273
:104EA0008A034FEF5FEFBA01409386035093870365
:104EB000609388037093890310928F0310928E037E
:104EC0008093900390939103A0939203B0939303E4
:104ED00089E591E090938D0380938C038CE0E8E961
:104EE000F3E0DF011D928A95E9F71092A503109275
:104EF000A4038091AC03811113C01092A7031092F8
:104F0000A60388EF96E09093A9038093A8038BE40F
:104F100090E09093AB038093AA0381E08093AC036D
:104F20000E94B80BFC01A385B485109709F027C136
:104F300086EA93E094878387858596852091AA03E6
:104F40003091AB03820F931F968785871092C80319
:104F50001092C7038BE691E09093C6038093C5033C
:104F60008091BD03811113C01092B8031092B70352
:104F700083EC97E09093BA038093B9038FE290E0BB
:104F80009093BC038093BB0381E08093BD030E9498
:104F9000B80BFC01A385B485109709F0FBC087EB23
:104FA00093E094878387858596852091BB03309114
:104FB000BC03820F931F9687858783E497E09093C5
:104FC000D2038093D10389E490E00E945F19D82F27
:104FD0008AE490E00E945F19C82F88E490E00E9464
:104FE0005F1910922B0510922A0510922D05109230
:104FF0002C0510922F0510922E051092310510925B
:10500000300510923305109232051092340510923B
:105010003605109235052FEF3FEF3093380520937A
:10502000370510923A051092390510923C051092FE
:105030003B0520E435E030933E0520933D05809309
:105040003F0587E791E09093290580932805D09349
:105050004005C09341058FEF80934205809343053F
:1050600080E092E1AAE7B0E0809344059093450583
:10507000A0934605B093470583ED93E090934905CF
:1050800080934805C0934A058AE295E090934C05C9
:1050900080934B0510924D0510924E0510925005CD
:1050A00010924F0510925205109251056DE771E074
:1050B00082E295E00E94FE1A8EE290E09093DB037C
:1050C0008093DA0380ED97E09093DD038093DC0317
:1050D00082E380930A0580930B0510920C051092D1
:1050E0000D0510920E0510920F05109210051092EA
:1050F0001205109211058FB780931F0583E090E091
:105100009093210580932005E6E3F8E02491209315
:105110001B0587E198E0FC013491E32FF0E0EE0FEE
:10512000FF1FE050F84F4591549150931405409360
:105130001305FC018491E82FF0E0EE0FFF1FEE5005
:10514000F84FA591B491B0931605A0931505EC9175
:10515000E22BEC938EE190E09093DB038093DA03F3
:1051600084E992E09093DD038093DC036DE771E0C6
:1051700084ED93E0DF91CF910C94FE1ADC018D91C8
:105180009C9111970097D1F786EA93E08D939C93B9
:10519000D3CEDC018D919C9111970097D1F787EBCD
:1051A00093E08D939C93FFCECF93DF93CDB7DEB783
:1051B0006F970FB6F894DEBF0FBECDBF789484B55D
:1051C000826084BD84B5816084BD85B5826085BD03
:1051D00085B5816085BD80916E00816080936E0091
:1051E0001092810080918100826080938100809183
:1051F0008100816080938100809180008160809334
:105200008000809191008260809391008091910054
:1052100081608093910080919000816080939000E4
:105220008091C10084608093C1008091C100826040
:105230008093C1008091C10081608093C100809102
:10524000C30081608093C3008091C000826080931E
:10525000C0008091C20081608093C20080917A007A
:10526000846080937A0080917A00826080937A00D3
:1052700080917A00816080937A0080917A008068C2
:1052800080937A001092BA0210925F0210925E022E
:105290008091D70081608093D70080EA8093D80006
:1052A00089B5806189BD89B5826089BD09B400FE78
:1052B000FDCF61E070E080E090E00E948D1480916D
:1052C000D8008F7C80618093D8008091E000807F3F
:1052D0008093E0008091E1008E7E8093E1008DE07C
:1052E0008093E200559A209A5D9828988FEF9FEF5F
:1052F00090933C0380933B0360ED77E080E090E087
:105300000E948D148EEE93E00E945F19909114011B
:10531000891308C08FEE93E00E945F1990911301EA
:10532000891761F064E171E08EEE93E00E94D91874
:1053300063E171E08FEE93E00E94D91882E590E07E
:105340000E945F19182F8EEE93E00E945F191813C8
:105350000BC083E590E00E945F19182F8FEE93E059
:105360000E945F19181741F18BEE93E00E945F19BC
:105370008031B0F08BEE93E00E94DB33882329F07C
:1053800060E08BEE93E00E94E3338CEE93E00E94AA
:10539000DB33882329F060E08CEE93E00E94E33356
:1053A00064E171E082E590E00E94D91863E171E068
:1053B00083E590E00E94D91810920C0310920B0321
:1053C0001092BC021092DE020E94700886EE96E0F7
:1053D000909363028093620287EE96E0909361025D
:1053E0008093600283E497E09093D2038093D1038B
:1053F00080E00E94B21B8091B102813009F0C8C0E8
:1054000088E295E00E949A170E94C910E6E8F3E04E
:10541000E491E0939803E7E8F3E024912093990363
:10542000E8E8F3E0849180939A03E9E8F3E0E491FB
:10543000E0939B034AE853E05093A1034093A003F9
:105440004DE85AE05093A5034093A40390E00796DB
:10545000A3E095958795AA95E1F780939D03289FF2
:10546000E02D1124E0939E0310929F031092A3035A
:105470001092A20388E993E090933C0580933B054A
:1054800000913D0510913E05D8011D968C911D9708
:1054900080FD1CC01B96ED91FC911C978081918131
:1054A0002281338131832083938382831F968D9160
:1054B0009C91509751962D913C91529750963C93C8
:1054C0002E931F9752969C938E93519783E0F801E9
:1054D0008587C8010E94F90F60E0D8011A968C9167
:1054E0000E94370A88E20E945C0A86E30E945C0AF6
:1054F00061E0F80182850E94370AD8011D96EC917F
:1055000080EAE33020F4F0E0E05DFE4F8081F801B6
:105510009685892B0E945C0A60E0D8011A968C91CE
:105520000E94370A89E20E945C0AC8010E94400A70
:105530008EE490E00E945F19809393028FE490E0E4
:105540000E945F198093940280E590E00E945F19A9
:105550008093910281E590E00E945F19809392020E
:10556000FE0131966F01CE0107967C018E01035F2B
:105570001F4F9E012D5E3F4FAE01475E5F4FBE0144
:10558000625E7F4F48960E94390F8D858093950209
:105590008091B4028F3F09F44FC08DE490E00E94E7
:1055A0005F19D82E8CE490E00E945F19E82E8BE4FE
:1055B00090E00E945F19F82E81E190E00E9466352C
:1055C0008C01DC0112961C921E92119714961C926B
:1055D0001E92139782E315968C9315978FE116967A
:1055E0008C93169785E217968C9317978CE01896F4
:1055F0008C93189719961C9219971A961C921A97C1
:105600008EE11B968C931B971D961C921E921C97E5
:1056100020E040E060E0C8010E942C131093650276
:10562000009364022D2D4E2D6F2DC8010E942C1366
:1056300081E0F80183878583E091B602F0E0EA57C4
:10564000FD4FE491E0930A058BEE93E00E945F1911
:10565000F4E68F9FC00111249093120580931105E9
:1056600080EF93E00E945F19182F809374028CEEF4
:1056700093E00E945F1980937302112309F493C091
:10568000E12EF12CC7010E94B9188093710290930A
:1056900072025C01D12CC12CC11650F4C6010E94CB
:1056A0005F19D5018D935D01BFEFCB1ADB0AF4CFF3
:1056B00082E390E00E945F198093700284E490E09E
:1056C0000E945F19082F80936F0285E490E00E948A
:1056D0005F19D82E80936E0286E490E00E945F19D5
:1056E000C82E80936D0287E490E00E945F19B82E67
:1056F00080936C0261E0802F0E94770661E08B2D21
:105700000E94770661E08D2D0E94770660E08C2D67
:105710000E94770660E08D2D0E94490661E0802F8F
:105720000E944906E9E01E9FC00111240E94B91899
:10573000DC01FC0152E34FE135E22CE012821182E0
:10574000148213825583468337832087399661E01C
:10575000E61AF10899F780936A0290936B0280E051
:105760004CE031E025E19EE116964C931697189691
:105770003C93189717962C93179715969C9315970B
:105780008F5F19961813F0CFCE0101960E94621C0C
:10579000BE016F5F7F4F82E295E00E949F19CE01AC
:1057A00001960E94D118D0907302DD2009F457C0F1
:1057B000AD2CB12CC5010E94B918C82E8093680287
:1057C00090936902E82EF92E082F192FF3E38F2EFC
:1057D000912C782E802F8C198D1550F4C4010E94C5
:1057E0005F19D8018D938D01BFEF8B1A9B0AF2CF01
:1057F000E9E0DE9EC00111240E94B9188C01FC0171
:1058000052E34FE135E22CE01282118214821382BE
:105810005583468337832087399661E0A61AB108FD
:1058200099F780936602909367026CE0962EAA2403
:10583000A39475E1B72EEEE1CE2E8E2D87198D152E
:1058400070F462E0D7018D917D010E947706F80126
:105850009682A086B782C582075F1F4FEECF81E098
:105860008093B8023E01FEE16F0E711C45E6542E96
:105870004424439422242A94322C8091B202882317
:1058800021F08091B7020E9457130E944D1F0E9481
:10589000D8060091A0021091A1022091A20230919D
:1058A000A302601B710B820B930B60317742810561
:1058B000910538F080919F02813019F462E0609385
:1058C0009F020E94D80600919B0210919C02209199
:1058D0009D0230919E02601B710B820B930B643F03
:1058E00071408105910508F46EC080919A02813063
:1058F00009F069C010929A0285E0EFE1F1E0DE0163
:10590000599601900D928A95E1F786EF93E00E94F7
:105910005F19E82EF090B6028E01075E1F4FF80166
:1059200081918F0190E0BC0163557D4F83519C4F65
:105930000E94D9186016710691F7EF1409F443C05C
:105940006091B502CE0101960E94B11A6091B60233
:10595000CE0107960E94B11A6091B702CE010D9652
:105960000E94B11A62E871E0CE0143960E94FE1ACD
:10597000BE01635F7F4FCE0143960E94731A62E8B7
:1059800071E00E945D1ABE01695F7F4F0E94731A29
:1059900062E871E00E945D1ABE016F5F7F4F0E9456
:1059A000731A0E948015CE0143960E94D118CE0131
:1059B0000D960E94D118CE0107960E94D118CE01F3
:1059C00001960E94D1188FE293E00E942F08892B44
:1059D00009F444C06DE771E0CE010D960E94FE1AF5
:1059E0000E94D90797FD0FC08A30910561F0898325
:1059F0001A8241E050E0BE016F5F7F4FCE010D96ED
:105A00000E94001AEDCF89899A89892B09F4FBC07D
:105A1000ED85FE85309709F4F6C010816DE771E0E1
:105A2000CE0107960E94FE1A0E94D8061D3209F484
:105A3000E6C10CF0F3C0153209F4AAC30CF0E5C0BE
:105A4000113209F48DC2133209F436C2CE01079621
:105A50000E94D118CE010D960E94D1180E94D8063E
:105A6000009196021091970220919802309199022C
:105A7000601B710B820B930B683E7340810591058F
:105A800008F4B9C00E94D8066093960270939702FA
:105A900080939802909399028091B102813009F02D
:105AA000AAC0FE0131966F01CE0107967C018E01DE
:105AB000035F1F4F9E012D5E3F4FAE01475E5F4F5C
:105AC000B30148960E94390F909195028D859817E1
:105AD00029F00E94C9108D85809395023092380577
