:100000000C9428040C9450040C9450040C94500448
:100010000C9450040C9450040C9450040C94500410
:100020000C9450040C9450040C94CC220C9449234E
:100030000C9450040C9450040C9450040C945004F0
:100040000C9450040C9450040C9450040C945004E0
:100050000C9450040C9450040C9450040C94822280
:100060000C9450040C9450040C9450040C945004C0
:100070000C9450040C9450040C9450040C945004B0
:100080000C9450040C9450040C9450040C945004A0
:100090000C947B250C9450040C9450040C94500444
:1000A0000C9450040C9450040C9450040000000074
:1000B0000000000001010101010101010202020230
:1000C00002020203030303030404040505050505F6
:1000D000060606060707070808080808090A0A0AA4
:1000E0000A0B0B0C0C0C0C0D0D0D0E0E0F0F0F1040
:1000F00011111111121213141414141516161717C6
:10010000171819191A1A1B1B1C1C1D1E1E1F1F2035
:1001100021212223232425252626272829292A2B85
:100120002C2D2D2E2F2F30313233343536363738B3
:1001300038393A3B3C3D3E3F4041424344454546C9
:1001400047494A4B4C4D4E4F5051525455565759B2
:100150005A5B5D5E5F60616264656667696A6C6D6B
:100160006E6F7173757677797A7B7C7F80828385F9
:100170008688898B8C8F9192939497999A9C9E9F55
:10018000A2A3A5A7A9ABADAEB0B3B4B6B9BABCBE75
:10019000C0C2C4C7C9CACDCFD1D3D6D8DADCDFE15B
:1001A000E2E6E7EBECF0F1F5F6FAFBFF01FF961162
:1001B000FFFFB103012C2DB203012C2DB306012C3E
:1001C0002D012C2DB40107B6021502C003A2028432
:1001D000C101C5C2020A00C3028A2AC4028AEEC54E
:1001E000010E20003601003A0105E0100F1A0F1829
:1001F0002F2820221F1B233700070210E1100F1B9E
:100200000F17332C292E3030393F0007031029FFF8
:100210006413FF0A080B0002020200000904000038
:10022000010202000005240010010524010101045F
:100230002402060524060001070581031000400979
:10024000040100020A000000070502024000000746
:100250000583024000000403090412010002EF02BA
:10026000014041233780000101020301417264759E
:10027000696E6F204C4C430041726475696E6F204B
:100280004D6963726F000000000000000000010172
:100290000101010101010202020202020203030341
:1002A00003030404040505050505060606060707FD
:1002B000070808080808090A0A0A0A0B0B0C0C0CA4
:1002C0000C0D0D0D0E0E0F0F0F101111111112123A
:1002D00013141414141516161717171819191A1AB7
:1002E0001B1B1C1C1D1E1E1F1F202121222323241B
:1002F00025252626272829292A2B2C2D2D2E2F2F60
:100300003031323334353636373838393A3B3C3D84
:100310003E3F404142434445454647494A4B4C4D88
:100320004E4F50515254555657595A5B5D5E5F605F
:10033000616264656667696A6C6D6E6F717375760C
:1003400077797A7B7C7F808283858688898B8C8F86
:100350009192939497999A9C9E9FA2A3A5A7A9ABCB
:10036000ADAEB0B3B4B6B9BABCBEC0C2C4C7C9CAD8
:10037000CDCFD1D3D6D8DADCDFE1E2E6E7EBECF0A3
:10038000F1F5F6FAFBFF000608200000000000006F
:100390000000002F000000000700070000147F1479
:1003A0007F1400242A7F2A12002313086462003677
:1003B0004955225000000503000000001C224100A6
:1003C000000041221C000014083E08140008083EEA
:1003D0000808000000A060000008080808080000E5
:1003E00060600000002010080402003E5149453EB4
:1003F0000000427F400000426151494600214145D2
:100400004B31001814127F10002745454539003C38
:100410004A49493000017109050300364949493606
:1004200000064949291E00003636000000005636F5
:1004300000000008142241000014141414140000D9
:100440004122140800020151090600324959513E67
:10045000007C1211127C007F49494936003E41411F
:100460004122007F4141221C007F49494941007FD0
:1004700009090901003E4149497A007F0808087FBF
:100480000000417F4100002040413F01007F0814EF
:100490002241007F40404040007F020C027F007FED
:1004A0000408107F003E4141413E007F09090906D2
:1004B000003E4151215E007F091929460046494905
:1004C00049310001017F0101003F4040403F001FD2
:1004D0002040201F003F4038403F00631408146351
:1004E00000070870080700615149454300007F413B
:1004F000410000552A552A55000041417F00000463
:10050000020102040040404040400000010204009B
:10051000002054545478007F484444380038444400
:10052000442000384444487F00385454541800088C
:100530007E0901020018A4A4A47C007F08040478AA
:100540000000447D4000004080847D00007F102832
:1005500044000000417F4000007C04180478007CC7
:100560000804047800384444443800FC2424241847
:100570000018242418FC007C080404080048545483
:10058000542000043F444020003C4040207C001C9C
:100590002040201C003C4030403C004428102844AF
:1005A000001CA0A0A07C004464544C4400000877C8
:1005B00000000000007F000000007708000000102D
:1005C0000810080014141414141400008080808093
:1005D000E0E07E7E6060606060607F7F60606060A1
:1005E00060607E7EE0E0808080800080818181810B
:1005F000FFFF000000FCFCFCFCFCFCFCFCFCFCFC29
:10060000FC000000FFFF8181818180018181818167
:10061000FFFF0000003F3F3F3F3F3F3F3F3F3F3F27
:100620003F000000FFFF8181818101000101010184
:1006300007077E7E060606060606FEFE0606060678
:1006400006067E7E07070101010100181818F8F858
:10065000C0C0C0C0C040C0C0C0C0C0C0C0C0C0C01A
:10066000404040C0C0C0C0C0C0C0C0008F8FFFFFAE
:10067000FFFFFFF1E0CEE0F1FF3F8FE7E3C1C0C62F
:100680003EBF3EC6C0C1E3E78F3FFF809C9CFFFF9B
:10069000FFFFFFE3C19CC1E3FFFEF8F3E3C181B1BB
:1006A0003E7E3EB181C1E3F3F8FEFF0000001F1F54
:1006B000000000000000001F071F071F071F071F83
:1006C000071F071F071F070000000000000000238E
:1006D00000260029002C002F000000000200090F56
:1006E0000000030401000C000000000000000000F6
:1006F0000000000000000000050C0901A1018501B7
:1007000015002501750195180A23020A8A011A2489
:10071000022A27020A21020A2A0209CD09B709B6CC
:1007200009B509E909EA09E20A83010A01020A0294
:10073000020A07020A1A020A79021A1B022A1D0279
:100740008102C000000000000000002A2B280000E9
:100750000000000000000000000000000000000099
:100760000000002C9EB4A0A1A2A434A6A7A5AE367A
:100770002D3738271E1F20212223242526B333B6E8
:100780002EB7B89F8485868788898A8B8C8D8E8FBB
:10079000909192939495969798999A9B9C9D2F31BE
:1007A00030A3AD350405060708090A0B0C0D0E0F22
:1007B000101112131415161718191A1B1C1DAFB19E
:1007C000B0B50005010906A1018502050719E02958
:1007D000E7150025017501950881029501750881CD
:1007E00003950675081500257305071900297381FF
:1007F00000C000000000240027002A002D00300067
:1008000000000000250028002B002E003100040409
:1008100004040403040502020202040302020202A9
:100820000606060606060404020202040404080280
:100830000110408040102040804080080204018068
:10084000402010020110801020404020CD26923020
:1008500011241FBECFEFDAE0DEBFCDBF11E0A0E074
:10086000B1E0ECEFFCE602C005900D92AC3EB107A2
:10087000D9F725E0ACEEB1E001C01D92AD35B2076D
:10088000E1F714E0C7E2D4E004C02197FE010E9422
:100890004C34C632D107C9F70E9479280C947136BE
:1008A0000C9400004F925F926F927F928F929F9272
:1008B000AF92BF92CF92DF92EF92FF920F931F936E
:1008C000CF93DF9300D01F92CDB7DEB780911B0589
:1008D000E0911305F09114059081982B90931D05DC
:1008E00090818095892380931E0580910A058093CD
:1008F0000B058091200590912105039721F48FB776
:1009000080931F05F89400911105109112050115AF
:10091000110509F492C0D0900A05EAEDF3E066E013
:1009200075E020E030E0A901ED2CF12CC701019623
:10093000C480C89ED001C99EB00D1124AB2FBB2727
:100940002A0F3B1F411D511DC580C89ED001C99E65
:10095000B00D1124AB2FBB272A0F3B1F411D511D8A
:10096000C680C89ED001C99EB00D1124AB2FBB27F5
:100970002A0F3B1F411D511D33966E177F07C1F68D
:10098000232F342F452F552747FD5A95A091DA0381
:10099000B091DB030E941B3323E030E040E050E0E5
:1009A0000E94F13249015A018091DC039091DD03EC
:1009B00081149104A104B104F1F16AE070E00E9495
:1009C0003834CB01072E000CAA0BBB0B880D991DE8
:1009D000AA1DBB1D2801012E000C6608770884158E
:1009E0009505A605B7053CF1C801861B970BBC0110
:1009F000072E000C880B990B0E94E2312B013C0161
:100A0000B701FF0C880B990B0E94E2319B01AC01EE
:100A1000C301B2010E941D326B017C01C501B4010A
:100A20000E94E2319B01AC01C701B6010E948B33E9
:100A30000E94FD33D62ED0920B05EAEDF3E006E0DE
:100A400015E07E0194E0E90EF11C5581468180910C
:100A50000B0590E001966481689F9001699F300DBD
:100A600011243A83589F9001599F300D11243983E6
:100A7000489F9001499F300D11243B8380912005B0
:100A800090912105029721F48FB780931F05F89468
:100A9000BE016F5F7F4FDB018D91BD01209120056D
:100AA000309121052130310521F49FB790931F0526
:100AB000F89490911D0520911E05A0911305B09109
:100AC000140538E09C9387FF2C93880F43E04A95E8
:100AD000F1F700002C933A95A9F7809120059091A9
:100AE00021058130910519F420911F052FBFE616CD
:100AF000F70609F0D0CF8230910519F420911F0537
:100B00002FBF33960E171F0709F09FCF039719F4D5
:100B100080911F058FBF0F900F900F90DF91CF91A5
:100B20001F910F91FF90EF90DF90CF90BF90AF900B
:100B30009F908F907F906F905F904F90089583E08B
:100B40008093E9008091F200882319F08AE3809372
:100B5000E8000895FC018091C002882311F13FB79D
:100B6000F89482E08093E9002091F200822F90E0D7
:100B70001816190614F481E090E0882339F0289AB9
:100B800044E64093BF024091F1004083222339F0B4
:100B90002091F200211103C02BE62093E8003FBF13
:100BA00008958FEF9FEF089581508F3008F047C070
:100BB000E82FF0E0E252FA4F0C944C34FB05FF05AD
:100BC000ED05F305F7051F061F061F0602060806BA
:100BD0000C06100616061F061A06809180008F77F5
:100BE000809380000895809180008F7DF9CF80915F
:100BF0008000877FF5CF84B58F7784BD089584B555
:100C00008F7DFBCF809190008F7780939000089527
:100C1000809190008F7DF9CF80919000877FF5CFF4
:100C20008091C0008F778093C00008958091C000AC
:100C30008F7DF9CF8091C200877F8093C200089595
:100C4000CF93DF93282F30E0F901E752F94F8491D9
:100C5000F901E35DF74FD491F901E25FF74FC491D9
:100C6000CC23A1F081110E94D405EC2FF0E0EE0F0F
:100C7000FF1FE553F94FA591B491EC91ED2381E06D
:100C800090E009F480E0DF91CF91089580E090E05A
:100C9000FACF1F93CF93DF93282F30E0F901E7526B
:100CA000F94F8491F901E35DF74FD491F901E25FC7
:100CB000F74FC491CC23A9F0162F81110E94D405BF
:100CC000EC2FF0E0EE0FFF1FE050F84FA591B4912C
:100CD0008FB7F894EC91111108C0D095DE23DC9306
:100CE0008FBFDF91CF911F910895DE2BF8CFCF9367
:100CF000DF9390E0FC01E35DF74F2491825F974F13
:100D0000FC0184918823C9F090E0880F991FFC01B1
:100D1000EE50F84FA591B491FC01E050F84FC59109
:100D2000D49161110DC09FB7F8948C9120958223C6
:100D30008C938881282328839FBFDF91CF910895CA
:100D4000623051F49FB7F8943C91822F80958323B1
:100D50008C93E8812E2BEFCF8FB7F894EC912E2B4C
:100D60002C938FBFEACF3FB7F8948091AF02909158
:100D7000B002A091B102B091B20226B5A89B05C005
:100D80002F3F19F00196A11DB11D3FBFBA2FA92F0A
:100D9000982F8827BC01CD01620F711D811D911D07
:100DA00042E0660F771F881F991F4A95D1F7089573
:100DB0002FB7F8946091AB027091AC028091AD02B4
:100DC0009091AE022FBF08950C949F050895089549
:100DD0000895409160025091610220915E0230912D
:100DE0005F0242175307B4F49091E8009570E1F365
:100DF0009091E80092FD19C08093F100809160020B
:100E00009091610201968F739927892B19F48EEFC7
:100E10008093E80080916002909161020196909326
:100E200061028093600281E0089580E00895DF927E
:100E3000EF92FF920F931F93CF93DF93D82E8A01E7
:100E4000EB017B01E40EF51ECE15DF0559F0D7FE50
:100E500012C0FE0184910E94E90621968111F4CF0F
:100E60000FEF1FEFC801DF91CF911F910F91FF90FE
:100E7000EF90DF9008958881EECF2FB7F8948770B8
:100E80008093E9009091E800892F807295FF04C05B
:100E90009091F20080E4891B2FBF0895615030F0DB
:100EA0002091F100FC0120830196F8CF289A84E676
:100EB0008093BF0208958091560281110DC082E097
:100EC0008093520284E08093530210925502109254
:100ED000540281E08093560282E592E008950F93D8
:100EE0001F93CF93DF931F92CDB7DEB782E0898344
:100EF00042E450E064E172E080E80E9417070E943B
:100F00005B07DC0112960D911C910115110589F00A
:100F1000D801ED91FC910280F381E02DBE016F5F5D
:100F20007F4FC801099597FD04C0F8010085118520
:100F3000ECCF89810F90DF91CF911F910F91089590
:100F4000CF93DF931F92CDB7DEB76983DC01ED91BC
:100F5000FC910280F381E02D41E050E0BE016F5F23
:100F60007F4F09950F90DF91CF91089583E00E9404
:100F70003D0790E00895CF93DF931F92CDB7DEB782
:100F8000FC018485958597FD08C02FEF3FEF3587DD
:100F900024870F90DF91CF910895CE0101960E9492
:100FA000AA05019719F4898190E0F3CF8FEF9FEFA5
:100FB000F0CF0F931F930E94D80660933D03709368
:100FC0003E0380933F039093400385E393E00E94A8
:100FD000BB0797FF1DC00E94D80600913D031091EA
:100FE0003E0320913F0330914003601B710B820B45
:100FF000930B0091390310913A0320913B033091F8
:101000003C036017710782079307F8F28FEF9FEF99
:101010001F910F9108950F931F93CF93DF931F920A
:10102000CDB7DEB78C01FC018485958597FF0BC099
:10103000CE0101960E94AA05019771F4898190E082
:10104000F80195878487F801848595850F90DF9155
:10105000CF911F910F9108958FEF9FEFF1CFFC017A
:101060008485958597FD0BC09FB7F89482E08093A7
:10107000E9008091F2009FBF90E0019608959FB72C
:10108000F89482E08093E9008091F2009FBF90E0A5
:10109000089520912F02260F3327331F2132310567
:1010A000ECF420910B03FC0190E080E0243069F027
:1010B00082E00895A0912F022191AC01415F5D4F24
:1010C000A40FB52FB11D2C930196861798F380912C
:1010D0002F02680F60932F0280E0089581E0089549
:1010E00010920B0381E080930A031092050361E0E4
:1010F00082E00E94490661E083E00E944906E9EB34
:10110000F0E080818E7F808380818D7F808388E482
:101110008093B80085E48093BC000895CF93DF935B
:1011200091E090930E028823B9F0C091B800D0915D
:10113000BA008091BC008A7B8093BC0060E082E0B2
:101140000E94490660E083E00E9449060E94700800
:10115000D093BA00C093B800DF91CF910895CF9299
:10116000DF92EF92FF920F931F93CF93DF93D09173
:10117000E40281E0D13208F09CC0C091E3020E94F9
:10118000B3066B017C0180910B0381116CC082E07E
:1011900080930B0381E080930A038FEF8093090310
:1011A00010920803D0930703A3ECB2E0E5EEF2E05F
:1011B00080E0D8138DC01092060380910603CC0FF7
:1011C000C82BC093060380910503813009F084C0C9
:1011D000109205030E94B3066B017C018091060307
:1011E0008093BB0080910D0390910E03A0910F039B
:1011F000B0911003892B8A2B8B2BA1F00E94B30690
:1012000000910D0310910E0320910F0330911003F4
:101210006C197D098E099F090617170728073907DA
:1012200008F442C08091BC0083FDD8CF85EC809348
:10123000BC000E94B3066B017C0180910B038230DD
:1012400009F44CC0809109038F3F09F469C0809173
:101250000903803209F466C080910903803309F4E0
:1012600063C084E026C080910D0390910E03A0918D
:101270000F03B0911003892B8A2B8B2B09F483CF9A
:101280000E94B30600910D0310910E0320910F03ED
:10129000309110036C197D098E099F0906171707F5
:1012A0002807390708F06FCF80910C030E948E0841
:1012B00085E01092C2021092E4021092C102DF9106
:1012C000CF911F910F91FF90EF90DF90CF900895F5
:1012D0009D9191938F5F6DCF85EEA9CF80910D0386
:1012E00090910E03A0910F03B0911003892B8A2BCC
:1012F0008B2B09F4A2CF0E94B30600910D0310912D
:101300000E0320910F03309110036C197D098E0993
:101310009F09061717072807390708F08ECFC4CF93
:1013200080E0C7CF82E0C5CF83E0C3CF0895E091CE
:10133000120380911103E81730F4F0E0ED5EFC4FEA
:10134000808190E008958FEF9FEF089590911203B0
:10135000809111032FEF3FEF981748F4E92FF0E049
:10136000ED5EFC4F208130E09F5F90931203C90136
:1013700008958091110390911203891B990B089590
:10138000CF92DF92EF92FF920F931F93CF93DF9351
:101390007C01CB018A012091C102222389F0EB015B
:1013A0006B01C40ED51ECC15DD0569F06991D7011E
:1013B000ED91FC910190F081E02DC7010995F3CFEB
:1013C000642F0E944908C801DF91CF911F910F91AE
:1013D000FF90EF90DF90CF900895CF93DF931F920F
:1013E000CDB7DEB769832091C1022223F9F02091A5
:1013F000E402203258F021E030E0FC013383228304
:1014000090E080E00F90DF91CF9108958091C2022B
:10141000E82FF0E0ED53FD4F998190838F5F80932B
:10142000C2028093E40281E090E0ECCF61E0CE0163
:1014300001960E944908F7CF682F82E993E00C9447
:10144000ED099FB7F89480910D02882319F081501F
:1014500080930D0280910D02811105C08CB58F7BA8
:101460008CBD10920C029FBF08950C94490687FD15
:1014700006C070E0082E000C990B0C94350A0895F4
:10148000FC01808187FD07C061E070E0082E000C40
:10149000990B0E94350A80910C02882361F09FB756
:1014A000F89420910C0280910B02213019F48DBB2D
:1014B0009FBF08958FBF08958EBD00000DB407FE35
:1014C000FDCF8EB50895FB0124913196E491322F22
:1014D0002E2FFB013296E491E11103C090E080E0F1
:1014E00008956D5F7F4FDC01FC914217530730F088
:1014F000D901AE0FB11D4A175B0728F0EF9F600DB1
:10150000711D1124E0CF421B530BF49FC001F59FC6
:10151000900D1124860F971F0895EF92FF920F935D
:101520001F93CF93DF934115510509F44BC08A01F6
:101530007B01EC018981FA0180838A8181838F811B
:10154000828368857985F0E8EF16F10490F488814C
:1015500081110FC06115710579F08B81E81AF108CE
:101560002E812E9DC0012F9D900D1124860F971F57
:1015700026C061157105E1F46A857B8561157105E9
:1015800041F54B8188859985242F042E000C330B5F
:10159000241B31094E81429FB001439F700D1124DD
:1015A00028812130F1F030E020E0620F731FDECFA0
:1015B000A701CE0106960E94630A0097E9F2F8019E
:1015C00094838383DF91CF911F910F91FF90EF90D0
:1015D0000895A701CE0106960E94630A009779F745
:1015E000D0CF23E030E0E1CFDC01FB0112962C915B
:1015F0001297848195812817190641F49181808181
:10160000813A31F49D7F81E0913009F080E00895C6
:101610008132E1F79B3029F482811F968C9381E01F
:1016200008959A3099F7828150968C93F8CFDC0117
:10163000FB0188E4808389E4818384E482831D96AE
:101640009C911D979F709F5B93831D968D919C919C
:1016500024E0969587952A95E1F78F708F5B8483B8
:1016600085E00895EF92FF920F931F93CF93DF933E
:10167000FB012081213871F52381223259F5DC01EB
:1016800012964C91248135814217130619F5EC010D
:101690000B851C85F12CE12C0115110589F0F80151
:1016A000448155816281738180E80E9417078F3FD2
:1016B000980749F0E80EF91ED8010D911C91ECCF66
:1016C00081E08F87C701DF91CF911F910F91FF902C
:1016D000EF90089590E080E0F6CFCF93DF93CDB701
:1016E000DEB769970FB6F894DEBF0FBECDBFFC0121
:1016F000DB018C918F5F8C939E012D5F3F4F8DE0BE
:10170000D9011D928A95E9F729E0298384E08A832B
:1017100091E09D8383E08E832A8721E22B879C873B
:101720009D879F8722E2288B27E02B8B25E02C8B3F
:101730008E8B20E430E0388F2F8B998F82818B83C2
:1017400095858685998B8A8B838180688D8B49E10D
:1017500050E0BE016F5F7F4F80E00E9417076996DF
:101760000FB6F894DEBF0FBECDBFDF91CF910895C5
:10177000CF93DF9380910302811167C081E0809352
:10178000F6018093F7012CEF31E03093F9012093BB
:10179000F8011092FB011092FA0128E231E0309337
:1017A000F3012093F2011092FE011092FD011092BC
:1017B00000021092FF01809301028093020281ECEB
:1017C0008093FC010E945B07FC0181819091F601EE
:1017D000482F490F5527551F483051059CF5A281C8
:1017E000B381109709F522EF31E033832283208102
:1017F0002093F4018093F5018091F701820F80839B
:101800002091F801A22FB091F9018A2F821B89172C
:10181000C8F481813D91C82FD0E0C050DF4F38839C
:101820008F5F8183F2CFD90118962D913C91199742
:1018300021153105C1F722EF31E019963C932E9323
:101840001897D5CF81E08093030282EF91E0DF917A
:10185000CF910895CF92DF92EF92FF920F931F9353
:10186000CF93DF936C01EB017B01E40EF51E10E0DA
:1018700000E0CE15DF0581F069916D30D1F3D6011E
:10188000ED91FC910190F081E02DC6010995892B25
:1018900019F00F5F1F4FEDCFC801DF91CF911F915E
:1018A0000F91FF90EF90DF90CF90089590E080E04F
:1018B0000895E42FF0E0E455FF4F4491E62FF0E067
:1018C000E455FF4F7491E82FF0E0E455FF4F649129
:1018D000842F0895682F660F680F8B3A38F082E0E6
:1018E000860F482F409560E00C94590C863530F0F7
:1018F00041E0460F642F609580E0F6CF862F8095FB
:1019000040E0F2CF9091B902E92FF0E0282F30E0CB
:101910004091BB02891778F4499F200D311D112495
:1019200085E6829FB001839F700D1124072E000C65
:10193000880B990B08952E1B3F0B8BE0829FB00103
:10194000839F700D112429EF31E0E29FC001E39FD6
:10195000900DF29F900D1124680F791F8DE4489F20
:10196000600D711D1124E2CFEF92FF920F931F9330
:10197000CF93C82F0E94D8060091ED011091EE017F
:101980002091EF013091F001601B710B820B930BE2
:10199000663471058105910508F4ADC0E091BC0283
:1019A000F0E0EA57FD4FE491E0930A050E94D80663
:1019B0006093ED017093EE018093EF019093F0013D
:1019C000C53108F02CC0EC2FF0E0E751F34F0C9438
:1019D0004C34FE0C160D340D400D4C0D580D640D9D
:1019E0000F0D0F0D0F0D0F0D0F0D0F0D0F0D0F0D17
:1019F0000F0D0F0D0F0D0F0D0F0D700DC091EC01A0
:101A00008C2F0E946A0CEEEDF3E061937193819349
:101A100095E0EA30F907C9F7CD5FC093EC01CF91AB
:101A20001F910F91FF90EF900C9452048EEDE82ED1
:101A300083E0F82E10E000E0C091EC016091B90263
:101A400070E0C8010E9438348C2F860F0E946A0C07
:101A5000F7016193719381937F0101501F4F0C39FE
:101A6000F3E61F0749F7D8CFEAEDF3E080E8848377
:101A700015828683339695E0E630F907C1F7CFCF1C
:101A8000EAEDF3E08FEF848385838683339695E0D8
:101A9000E630F907C1F7C3CFEAEDF3E08FEF8483B7
:101AA00015821682339695E0E630F907C1F7B7CF75
:101AB000EAEDF3E080E8148285831682339695E0A0
:101AC000E630F907C1F7ABCFEAEDF3E08FEF148210
:101AD00015828683339695E0E630F907C1F79FCFEC
:101AE000EAEDF3E0148215821682339685E0E63043
:101AF000F807C1F794CFCF911F910F91FF90EF900E
:101B000008958F929F92AF92BF92CF92DF92EF9201
:101B1000FF926B017C010E94B3064B015C01C11472
:101B2000D104E104F10439F18091BE02882341F02F
:101B30008091B802882321F08091BD020E94B40CEC
:101B40000E94B306681979098A099B09683E7340A7
:101B50008105910520F321E0C21AD108E108F108BE
:101B600088EE880E83E0981EA11CB11CC114D1041C
:101B7000E104F10429F7FF90EF90DF90CF90BF9040
:101B8000AF909F908F9008957F928F929F92AF9287
:101B9000BF92CF92DF92EF92FF920F931F93CF935A
:101BA000DF93C82E8B017A018091C002811110C091
:101BB0008FEF9FEFDF91CF911F910F91FF90EF90EB
:101BC000DF90CF90BF90AF909F908F907F900895BF
:101BD0008091640280FF05C08091E0008260809364
:101BE000E000CE2DDF2DD12C8AEFB82E8C2D877002
:101BF000982E8C2D8072882E8C2D8074782E9AE3EE
:101C0000A92E209719F4DD2009F452C08C2D0E94D2
:101C10003D0781110AC0BA94BB2051F261E070E027
:101C200080E090E00E94810DECCF8C171D0611F032
:101C30000CF08C2F9FB7F8949092E9002091E80067
:101C400025FD02C09FBFDDCF282F30E0C21BD30B84
:101C5000882029F08150A0F01092F100FBCFF8010C
:101C6000C7FC0AC0815050F041914093F100FACF77
:101C700044914093F10031968150D0F7020F131F29
:101C8000DD2021F0A092E800D12CDCCF8091E8008B
:101C900085FD07C0A092E800DD24D394209791F23F
:101CA000F3CF209779F6772069F2A092E800CACFA7
:101CB0005D9A84E680936302C7017CCFCF93DF9364
:101CC000EC0180911201882331F083E00E94C40D61
:101CD0001816190634F081E090E09B838A8380E037
:101CE00090E0DF91CF910895CF93DF93FC01448181
:101CF00055816081718185E393E00E945E0EEC0165
:101D000042E050E06BE771E085E393E00E945E0EF5
:101D10008C0F9D1FDF91CF910895AF92BF92CF920C
:101D2000DF92EF92FF920F931F93CF93DF931F9257
:101D3000CDB7DEB77C0169836A01590141E050E00B
:101D4000BE016F5F7F4FFC0183810E94C40D8C0137
:101D500097FD0BC0F7018381A501B60180640E9445
:101D6000C40D080F191F97FD8C01C8010F90DF915A
:101D7000CF911F910F91FF90EF90DF90CF90BF9088
:101D8000AF900895CF93DF93EC010E94B80B28E049
:101D900030E0AE0162E0DF91CF910C948D0EEBEC60
:101DA000F3E016821782108611861286138614823B
:101DB0008FEC93E00C94C20EDC016838A0F06858F8
:101DC000FD0186E0662321F09681961301C01682FC
:101DD000815031968111F6CFCD0104960E94C20E3A
:101DE00081E090E00895862F90E067FF13C0FC012A
:101DF000E058F10981E090E001C0880FEA95EAF728
:101E0000809514969C911497892314968C9314971B
:101E100060E0D6CF1C96ED91FC911D97E80FF91F5D
:101E200064916623E1F0862F807C803C69F41496EF
:101E30008C9114978F7B14968C9314976F736233E5
:101E400009F0BECF64E6BCCF67FFF9CF14968C9142
:101E500014978D7F14968C9314976F77F0CF90E042
:101E600080E00895DC01683888F1685816968C91F6
:101E70001697861721F117968C9117978617F9F008
:101E800018968C9118978617D1F019968C911997FE
:101E90008617A9F01A968C911A97861781F01B96CF
:101EA0008C911B97861759F0FD01369690E080E0E3
:101EB000219121114FC08A0F9B1FFC016683CD0128
:101EC00004960E94C20E81E090E00895862F90E073
:101ED00067FF12C0FC01E058F10921E030E001C0C9
:101EE000220FEA95EAF714968C911497822B149698
:101EF0008C93149760E0BACF1C96ED91FC911D97DE
:101F0000E80FF91F6491611109C081E090E0139618
:101F10009C938E93129790E080E00895862F807CAA
:101F2000803C69F414968C911497806414968C9379
:101F300014976F73623309F099CF64E697CF67FF08
:101F4000F9CF14968C911497826014968C93149701
:101F50006F77F0CF01968630910509F0A9CFD5CFE4
:101F6000EF92FF921F93CF93DF93EC01162F0E9405
:101F7000320F7C01612FCE010E94DC0EC701992730
:101F8000DF91CF911F91FF90EF9008959091BB0347
:101F900098138093BB030E94B80B23E030E04AEB18
:101FA00053E061E00E948D0E81E090E008951F9360
:101FB000CF93DF93EC018B819C8194FB112710F967
:101FC000162796FF04C09F7B9C838B8311E08B8137
:101FD0009C8191FD05C0112311F192609C838B833C
:101FE0000E94D80629813A81FB01E21BF30B2B8169
:101FF0003C811123E9F125FD1FC04D8132FD14C044
:10200000442391F034603C832B837A8369838B81F2
:102010009C818F71992711E0892B09F410E0812FA1
:10202000DF91CF911F9108954E171F0619F010F000
:102030004111EDCF2262E7CF37FDE9CF26FD0AC07F
:102040004F81A0E14A9FA0011124E417F507F8F29F
:102050002464D9CF27FF0AC04885A0E14A9FA00188
:1020600011242868E417F50770F6D1CF4F81F5CF1A
:1020700025FF19C08D818E171F0609F060F426FD1B
:1020800003C088818F5F888337FD18822F7D206190
:1020900031603C832B838B819C8192FFB8CF9B7FE7
:1020A0009C838B83B4CF30FF0DC037FD03C020610C
:1020B0003C832B832B813C813E773C832B837A832B
:1020C0006983E9CF4881442379F0C901807C99274D
:1020D000892B41F48E8140E1849FC0011124E817CF
:1020E000F907C8F22160D5CF31FFD5CF2F733D7FDF
:1020F0003860E3CF0F931F93CF93DF93EC01162F3C
:102100008B819C8180FD18829C012F713327232BAA
:1021100019F0807E9C838B838A8585FF02C08F7D2A
:102120008A87642FCE010E94D70F082F8D859E8548
:10213000009741F12A8581FF21C020612A872A85E5
:1021400082FF1EC028602A8773E0969587957A954E
:10215000E1F79E878D878B819C8185FF91C0906878
:102160009C838B838B819C8193FD03C098609C83AF
:102170008B838A8580628A8781E007C02F7EDECFCD
:10218000277FE1CF17FF07C080E0802BDF91CF9141
:102190001F910F9108954B85242F2295207F25951F
:1021A000259525952595022E000C330B812F012EA8
:1021B000000C990B2817390739F3220F331F220F10
:1021C000331F282B392B220F331F81E696E1A4E918
:1021D000B9E404C0B595A795979587952A95D2F748
:1021E000837045954595459545954150840F829559
:1021F000807F8595859585958595982F9295907F7B
:10220000212F2F70922B9B87907F09F4BDCF9A8549
:10221000292F2370213049F120F1223049F131E09A
:1022200018160CF030E092FB222720F98B858F7076
:102230008B87321709F190619A870E94D80629810D
:102240003A81AB01421B530B9A014C855A857A8324
:102250006983852F4217130689F080F088608A878A
:102260007ACF133009F090CFDACF1123C1F28CCF9F
:1022700011501230A0F688CF9F7EDECF877FEFCF40
:10228000188270CFFC012381348120FD1082A901C6
:102290004F715527452B21F0207EFC013483238389
:1022A0000C94D70FCF93DF93FC01438154819A01A3
:1022B00031702436310509F446C050F5223231051B
:1022C00009F455C0E0F42130310509F447C020314C
:1022D000310509F440C053FF0FC0EC010E94D8063D
:1022E00029813A81621B730B8985F0E18F9FC001C0
:1022F000112468177907F0F590E080E026C02134BA
:10230000310579F12035310531F780E890E01DC0C5
:10231000283E3105E9F048F4213C310529F1203D02
:102320003105C9F680E092E010C02035F1E03F07AA
:1023300039F0203D61E0360719F02031314059F67F
:1023400088E090E002C082E090E0DF91CF910895B4
:1023500084E090E0FACF80E190E0F7CF80E290E077
:10236000F4CF80E091E0F1CF80E094E0EECF81E027
:1023700090E0EBCF80E098E0E8CF8F929F92AF9211
:10238000BF92CF92DF92EF92FF920F931F93CF9362
:10239000DF937C01D62F0E94B3064B015C01809134
:1023A0000B03811167C0CD2F81E080930B038093D5
:1023B0000A039FEF90930903109208039D0F9093D7
:1023C00007038093060380910603EE0CFF1C8E2901
:1023D0008093060380910503813009F083C0109239
:1023E00005030E94B3066B017C0180910603809374
:1023F000BB0080910D0390910E03A0910F03B0914B
:102400001003892B8A2B8B2BA1F00E94B30680909E
:102410000D0390900E03A0900F03B09010036C1961
:102420007D098E099F0986169706A806B90608F445
:1024300042C08091BC0083FDD8CF85EC8093BC0066
:102440000E94B3066B017C0180910B03813009F47B
:102450004BC0809108038D1710F4C0910803E5EE7E
:10246000F2E0A3E1B3E080E08C1751F191919D93EC
:102470008F5FFACF80910D0390910E03A0910F030F
:10248000B0911003892B8A2B8B2B09F488CF0E94E3
:10249000B30600910D0310910E0320910F033091AC
:1024A0001003681979098A099B0906171707280775
:1024B000390708F074CF80910C030E948E08C0E0A9
:1024C00010921203C09311038C2FDF91CF911F91B3
:1024D0000F91FF90EF90DF90CF90BF90AF909F90C3
:1024E0008F90089585EEAACF80910D0390910E03F1
:1024F000A0910F03B0911003892B8A2B8B2B09F429
:10250000A3CF0E94B30680900D0390900E03A0907D
:102510000F03B09010036C197D098E099F09861670
:102520009706A806B90608F08FCFC5CF5F926F92C5
:102530007F928F929F92AF92BF92CF92DF92EF9253
:10254000FF920F931F93CF93DF934C015B01EA013E
:10255000390181E08093C10288E68093E302109202
:10256000C2021092E40290E080E00E941C0A0E94E5
:10257000AF0867E070E088E690E00E94BD1182E954
:1025800093E00E94A609982F929597702AE0522E08
:102590008F70959D800D1124F401808382E993E072
:1025A0000E94A609982F92959F708F70959D800D1F
:1025B0001124F501808382E993E00E94A609982FF7
:1025C000929593708F70959D800D1124888382E978
:1025D00093E00E94A609982F92959F708F70959D09
:1025E000800D1124F301808382E993E00E94A60903
:1025F000982F92959F708F70959D800D1124F801F2
:10260000808382E993E00E94A609982F92959F709B
:102610008F70959D800D1124F701808382E993E0EE
:102620000E94A609982F92959F708F70959D800D9E
:102630001124F6018083DF91CF911F910F91FF90BC
:10264000EF90DF90CF90BF90AF909F908F907F9052
:102650006F905F900895CF92DF92EF92FF926B019F
:102660007C0181E08093C10280E58093E3021092B7
:10267000C2021092E402BB27AF2D9E2D8D2D0E9429
:102680001C0AC60199270E941C0A0E94AF0861E03B
:1026900070E080E590E00E94BD1182E993E00E9425
:1026A000A609FF90EF90DF90CF900895CF92DF9230
:1026B000EF92FF92CF93DF936B017C01D42FC1E0A7
:1026C000C093C10280E58093E3021092C20210928F
:1026D000E402BB27AF2D9E2D8D2D0E941C0AC60142
:1026E00099270E941C0A61E070E080E590E00E945A
:1026F000BD1182E993E00E94A6096D2F82E993E063
:102700000E94ED091092BE0265E070E080E090E06A
:102710000E94810DC093BE02DF91CF91FF90EF9098
:10272000DF90CF900C94AF080F931F93FC010481AE
:1027300015812681378140E052E16AE770E090E040
:10274000041715072607370740F4769567955795C0
:1027500047959F5F9630A1F797E0292F206A26952D
:102760009095917080910C02882361F08FB7F89456
:1027700030910C023130A1F43DB330930B023DB3E4
:102780003DBB8FBF2CBD9DBD808187FD0CC070E01F
:1027900060E0082E000C990B1F910F910C94350AE4
:1027A00080930B02EFCF1F910F910895CF93DF938A
:1027B000EC010E9494138A8587FD05C060E0DF91DB
:1027C000CF910C94370A80E0DF91CF910C945C0A92
:1027D000BF92CF92DF92EF92FF920F931F93CF930E
:1027E000DF93EC01888D87FD03C061E00E947706CE
:1027F000898D87FD03C061E00E9477061FB7F894BA
:1028000080910D02811127C0EFE1F8E08491EEE3A1
:10281000F8E09491E82FF0E0EE0FFF1FEE50F84F34
:10282000A591B491EC91E92321F461E081E10E944A
:10283000490661E081E10E9477068CB580618CBD1C
:102840008CB580648CBD61E08FE00E94770661E00A
:1028500080E10E94770680910D028F5F80930D02C8
:102860001FBF0F8907FD28C061E0802F0E947706F7
:10287000002E000C110B61E070E0C8010E94350AC7
:102880006AE070E080E090E00E94810D70E060E01E
:10289000C8010E94350A6AE070E080E090E00E9482
:1028A000810D61E070E0C8010E94350A64E170E0CA
:1028B00080E090E00E94810D80E890E09B838A8315
:1028C00080EA90E09D838C8368E770E080E090E090
:1028D0000E94810D0D88DE89C02DCE010E94D61385
:1028E0000CEA11E084E1E82E82E0F82EBB24BA94D1
:1028F000CC24C394F801D490CC2089F1FFEFCF12FF
:1029000017C0CE010E94400A8FEFD81661F06D2DDE
:1029100070E090E080E00E94810DCE010E94D6130D
:10292000CC24C3940BC064EF71E080E090E0F3CF5F
:102930008D2D0E945C0ABB24BA94C12C0F5F1F4FDF
:10294000E016F106B9F6CE01DF91CF911F910F91FC
:10295000FF90EF90DF90CF90BF900C94400AEFEF84
:10296000BE120AC0D7FC13C0DD20D1F261E08A8517
:102970000E94370ABD2CE2CFBA948D2D0E945C0ACA
:10298000B110DCCF60E08A850E94370AC9CFCD2C18
:10299000D5CFDF92EF92FF920F931F93CF93DF93E8
:1029A000EC017B01D42E2115310509F457C08B01B0
:1029B00001501109020F131FCE010E94D6138AE2A3
:1029C0000E945C0A61E08A850E94370A80E00E94CA
:1029D0005C0A8F858E0D0E945C0A80E00E945C0A72
:1029E000EB85FC85808191810817190710F00FEFA6
:1029F000080F8F85800F0E945C0A60E08A850E9424
:102A0000370A8BE20E945C0A61E08A850E94370ADD
:102A100080E00E945C0A89898D0D0E945C0A80E03A
:102A20000E945C0AEB85FC85898981509281890F1F
:102A30000E945C0A60E08A850E94370A8CE20E944C
:102A40005C0A8A8587FD11C061E0DF91CF911F91FB
:102A50000F91FF90EF90DF900C94370AEB85FC8587
:102A60000081118101501109A7CFCE010E94400AB7
:102A7000CE010E94941380E4DF91CF911F910F91BA
:102A8000FF90EF90DF900C945C0ACF92DF92EF9270
:102A9000FF9230E020E050E040E070E060E08091A4
:102AA0004305909144050E94C9142091300530914E
:102AB0003105A0913205B09133050E947C336B0142
:102AC0007C0181E0C81AD108E108F1088FEFC8162F
:102AD000D806E806F80639F080E00E945C0A80E03B
:102AE0000E945C0AEECF8091430590914405FF90CF
:102AF000EF90DF90CF900C94400A2F923F924F922C
:102B00005F926F927F928F929F92AF92BF92CF927D
:102B1000DF92EF92FF920F931F93CF93DF93CDB786
:102B2000DEB72B970FB6F894DEBF0FBECDBF582E81
:102B30007B014A01182F612C1F82712CA091410545
:102B4000B091420511968C91119790E0880F991FD2
:102B50002091300530913105281B390B12171306CF
:102B600009F030F4F401E70DF11D8081811120C0DE
:102B700048E0E40EF11C8091320590913305E8168F
:102B8000F90608F00CC1639415968C91159790E0A6
:102B9000880F991F6816190609F07AC0F401E70D2D
:102BA000F11D8081882309F4FAC0152D7F82612CE4
:102BB0006091330370913403F401E70DF11D8081BE
:102BC00073946115710509F066C0682F70E0803C50
:102BD00098F710923403109233031C96ED91FC91F8
:102BE0001D97AE014F5F5F4FCD010995862D90E097
:102BF000959587954A819C01E3E0220F331FEA9562
:102C0000E1F709814217130609F00CF4B9C0089FD7
:102C10009001099F300D11248C819D81820F931F9B
:102C20009D838C83862D81708887198688859985F8
:102C3000880F991F880F991F9B878A87412E0E83C3
:102C40009E81911132C0000F100F2B8130E0220FB6
:102C5000331F612F70E0A7018091430590914405D7
:102C60000E94C91408E0C0903F05B0904005D12CE7
:102C70008B8190E0880F991FD81619060CF084C03C
:102C80008B2D0E945C0A8C2D0E945C0AD394F0CF9D
:102C9000152D7F808DCFF6E0660F771FFA95E1F74F
:102CA000607C77708F73682B94CFEC81FD81E49109
:102CB000F0E00A8402C0F595E7950A94E2F730E067
:102CC00020E0C12C24303105C1F0CF01022E02C01A
:102CD000959587950A94E2F780FF0DC0C901880F8A
:102CE000991F43E001C0440F8A95EAF7842FC82A50
:102CF0002F5F3F4FE7CF80E0FACF642D70E022E0F6
:102D000030E0A70180914305909144050E94C914C9
:102D1000B12CA12CD12CC6010A2C02C09595879507
:102D20000A94E2F730903D0520903E0580FD04C0F6
:102D300030903F0520904005822D0E945C0A832D33
:102D40000E945C0A822D0E945C0A832D0E945C0A0C
:102D50008FEFA81AB80A98E0A916B104E1F680919D
:102D60004305909144050E94400A439443948C810A
:102D70009D8101969D838C834E8141504E8360CF0F
:102D80008B81800F8B835FCF015009F06CCF180FC0
:102D900080914305909144050E94400ACFCE2B9626
:102DA0000FB6F894DEBF0FBECDBFDF91CF911F915C
:102DB0000F91FF90EF90DF90CF90BF90AF909F90DA
:102DC0008F907F906F905F904F903F902F900895DD
:102DD0009F92AF92BF92CF92DF92EF92FF920F93AA
:102DE0001F93CF93DF936A01D0913F05B0904005C8
:102DF000A0903D0590903E0520E230E0AB01BC0183
:102E000080914305909144050E94C91481E2E82E07
:102E1000F12CC1E081E0E81AF108F1F010E000E0E7
:102E2000F601E00FF11FE491EC2389F0892D0E9457
:102E30005C0A8A2D0E945C0A0F5F1F4F0032110549
:102E400079F7C6018096CC0F29F76C01E2CF8B2D64
:102E50000E945C0A8D2FEECF80914305909144052E
:102E6000DF91CF911F910F91FF90EF90DF90CF9066
:102E7000BF90AF909F900C94400A90E09C01235D1E
:102E8000374F825F974FF901613009F440C06230DB
:102E900001F14491FC015491E52FF0E0EE0FFF1F8A
:102EA000EE50F84FA591B4915C91409545234C9319
:102EB000F9012491FC018491E82FF0E0EE0FFF1F4F
:102EC000E050F84FA591B4918C91209528232C9334
:102ED00008954491FC015491E52FF0E0EE0FFF1F9F
:102EE000EE50F84FA591B4915C91409545234C93D9
:102EF000F9012491FC018491E82FF0E0EE0FFF1F0F
:102F0000E050F84FA591B4918C91282BE0CF2491FB
:102F1000FC018491E82FF0E0EE0FFF1FEE50F84F18
:102F2000F1CF90E0FC01E25FF74FE491F0E0EE0FAB
:102F3000FF1FE553F94FA591B4912C91835D974FF5
:102F4000FC018491822391E009F490E0892F089597
:102F50001F93CF93DF93EC01862F6F87488B298BCC
:102F600060E00E943D1760E088890E943D1762E0A2
:102F700089890E943D178B819C8190619C838B8302
:102F80008F850E949117182F88890E949117880FAA
:102F9000812B982F9F708B85807F892B8B87DF916A
:102FA000CF911F910895CF93DF93EC01809122057B
:102FB000909123050097E9F0688179816115710589
:102FC000B1F040912405509125052C813D81421797
:102FD000530768F00E946A368C819D819093270583
:102FE000809326051D821C82DF91CF9108950E9457
:102FF00002358881998190932305809322058A81E7
:103000009B8190932505809324058C819D819093CD
:10301000270580932605198218821B821A82E2CF27
:10302000CF93DF93EC0188819981009711F00E9482
:103030000235198218821D821C821B821A82DF913E
:10304000CF910895FC0180819181009711F00C943B
:1030500002350895009711F481E090E00C946634F5
:10306000FF920F931F93CF93DF938C01EB01F880B6
:103070000E94DB32F81621F06F2DC8010E94E33266
:10308000CE01DF91CF911F910F91FF900895DF92B4
:10309000EF92FF920F931F93CF93DF938091BB0228
:1030A0008F5F853008F048C08093BB026BEB72E005
:1030B00085EF93E00E9430188091B802882309F4CC
:1030C0004DC04FEF6FEF8FEF0E94590CCEEDD3E064
:1030D000FE0161937193819394E0E935F907C9F793
:1030E0001092BE02DD24D39485E8E82E83E0F82E0A
:1030F00006E812E08091BB0290E00196D81619060E
:1031000009F0ECF4F701849180930A050E945204BF
:103110006AEF70E080E090E00E94810DF8018491F8
:1031200080930A050E9452046AEF70E080E090E00C
:103130000E94810DD394DECF1092BB02B7CF40E046
:1031400060E080E00E94590C699379938993F4E0E0
:10315000C935DF07C9F781E08093BE02DF91CF91C7
:103160001F910F91FF90EF90DF9008950C94DB3248
:103170000E944836FC0124813581232B39F421E05B
:10318000FB018081882349F020E007C08081918184
:103190000E94613621E0892BB9F7822F0895CF93E1
:1031A000DF93EC016DE771E00E94BA18811105C050
:1031B000CE01DF91CF910C94740EDF91CF910895E1
:1031C0000F931F93CF93DF93EC0188819981009730
:1031D00059F02A813B812617370730F081E0DF91D3
:1031E000CF911F910F9108958B016F5F7F4F0E94C8
:1031F0008B35009759F0998388831B830A832C8130
:103200003D81232B59F7FC011082E8CF80E0E7CF06
:10321000EF92FF920F931F93CF93DF936115710588
:1032200041F480E0DF91CF911F910F91FF90EF90DB
:10323000089541155105B1F07B01EC010C811D8110
:10324000040F151FB8010E94E018882351F328814C
:1032500039818C819D81B701820F931F0E946A364C
:103260001D830C8381E0DECFEF92FF920F931F93BB
:10327000CF93DF9300D000D0CDB7DEB77C01862F8F
:103280004AE08E010F5F1F4FB80190E00E94653148
:10329000F80101900020E9F73197AF01401B510B75
:1032A000B801C7010E940819811103C0C7010E941B
:1032B0001018C7010F900F900F900F90DF91CF91D2
:1032C0001F910F91FF90EF900895CF93DF93EC0142
:1032D000FB0101900020E9F73197AF01461B570B26
:1032E0000E940819811103C0CE010E941018CE015E
:1032F000DF91CF910895CF93DF93EC01FB014481DF
:103300005581608171810E940819811103C0CE012D
:103310000E941018CE01DF91CF910895EF92FF9295
:103320000F931F93CF93DF93EC017B018A01BA01C6
:103330000E94E01881110BC0CE010E941018CE012E
:10334000DF91CF911F910F91FF90EF9008951D8312
:103350000C83B701888199810E946A36F0CFFB0106
:1033600001900020E9F73197AF01461B570B0C94F1
:103370008E190F931F93CF93DF93CDB7DEB72997A5
:103380000FB6F894DEBF0FBECDBF8C01862FF801BB
:103390001182108213821282158214824AE0BE01C9
:1033A0006F5F7F4F90E00E94B631BE016F5F7F4F2D
:1033B000C8010E94AF1929960FB6F894DEBF0FBE60
:1033C000CDBFDF91CF911F910F910895CF93DF93E0
:1033D000EC01FB018617970749F060817181611547
:1033E000710541F0448155810E948E19CE01DF9113
:1033F000CF9108950E941018F9CFFC01118210821C
:1034000013821282158214820C94E619FC01118237
:1034100010821382128215821482FB010190002017
:10342000E9F73197AF01461B570B0C948E19AF92F9
:10343000BF92CF92DF92EF92FF920F931F93CF93A1
:10344000DF936C015B017A0189012417350720F4B1
:103450008F2D7901042F182F6DE771E0C6010E94AE
:10346000061AD5011496CD91DC91EC16FD06E0F418
:103470000C171D0708F4E801D501ED91FC91119797
:10348000EC0FFD1F108110826D917C916E0D7F1DE0
:10349000C60161157105A1F00E94AF19F501808187
:1034A0009181C80FD91F1883C601DF91CF911F9159
:1034B0000F91FF90EF90DF90CF90BF90AF90089565
:1034C0000E941018EBCFEF92FF920F931F93CF93B0
:1034D000DF93CDB7DEB762970FB6F894DEBF0FBEAD
:1034E000CDBFE82E6DE771E0CE010D960E94061A61
:1034F0000DEE13E0C8010E94B618F82E682FCE0119
:1035000007960E94B919BE01635F7F4FCE010196F5
:103510000E94FD19BE01695F7F4FCE0101960E9496
:103520007B19BC01CE010D960E94E619CE010196D1
:103530000E942218CE0107960E942218083F83E0BD
:103540001807D4F4BE01635F7F4FCE0101960E943D
:10355000FD196EE771E0CE0101960E946519BC016C
:10356000CE010D960E94E619CE0101960E94221806
:10357000F801EA53F140F0820F5F1F4F011584E01C
:10358000180709F0B7CF81E0E81204C0CE010D960C
:103590000E94740ECE010D960E94221862960FB6FC
:1035A000F894DEBF0FBECDBFDF91CF911F910F9179
:1035B000FF90EF90089585ED8093BC0080910D03FE
:1035C00090910E03A0910F03B09110030796A11DD7
:1035D000B11D23E0B695A795979587952A95D1F7C4
:1035E0002091BC0024FD03C010920B03089540916C
:1035F0000D0350910E0360910F0370911003452B42
:10360000462B472B69F30097A105B10541F02AE24B
:103610002A95F1F700C00197A109B109E1CF809186
:103620000C030C948E086F927F928F929F92AF92B0
:10363000BF92CF92DF92EF92FF920F931F93CF939F
:10364000DF9300D000D000D0CDB7DEB75C01862F6D
:1036500090E00E942A184C016C01F12CE12C809121
:10366000B802882321F08091BD020E94B40CF501BC
:1036700084819581E816F90670F46080718060E4B9
:1036800070E0C3018E0D9F1D0E9456368C010619F5
:103690001709892B11F40FEF1FEF0F3F1007D1F01F
:1036A0009801A701B501CE0101960E94171A8981E0
:1036B0009A8160E0009711F00E943E31F60161931B
:1036C0006F017801FFEFEF1AFF0ACE0101960E9409
:1036D0002218C5CFC40126960FB6F894DEBF0FBEE0
:1036E000CDBFDF91CF911F910F91FF90EF90DF90B1
:1036F000CF90BF90AF909F908F907F906F900895E4
:10370000EF92FF920F931F93CF93DF93CDB7DEB766
:10371000A8970FB6F894DEBF0FBECDBF8C016DE742
:1037200071E00E94061AF090720261E08F2D0E94F3
:103730004906E090750260E08E2D0E94490661E026
:103740008E2D0E94490660E08F2D0E944906F12CC3
:103750008091760228E0829FC0011124F816190694
:1037600094F5809173020E9420061CA21BA21EA247
:103770001DA218A61FA2BC01990F880B990B2AE065
:10378000AE014F5F5F4F0E947031BE016F5F7F4F90
:10379000CE0183960E94AF194FA158A56BA17CA1C1
:1037A000C8010E940819CE0183960E942218E09059
:1037B000740261E08E2D0E94490660E08E2D0E9409
:1037C0004906F394C5CFF8012481358128173907BC
:1037D00098F460E871E0CE0101960E94061AB801E3
:1037E000CE0101960E947B19BC01C8010E94E61916
:1037F000CE0101960E942218C801A8960FB6F8942F
:10380000DEBF0FBECDBFDF91CF911F910F91FF9013
:10381000EF9008954F925F926F927F928F929F9256
:10382000AF92BF92CF92DF92EF92FF920F931F93CE
:10383000CF93DF93CDB7DEB768970FB6F894DEBFAE
:103840000FBECDBFE82E0E94D8062B013C014FEFE2
:103850006FEF8FEF0E94590CAB01682F2091B902D6
:1038600030E0EEEDF3E090E080E0821793072CF477
:103870004193519361930196F8CF40E060E080E07E
:103880000E94590C9B01482FE091B9028E2F90E0C5
:1038900053E0E59FF0011124E252FC4F853691057B
:1038A0002CF42193319341930196F8CFE091BC021F
:1038B000F0E0EA57FD4FE491E0930A050E945204BC
:1038C000CE2CD12C8AE0E89E50011124FF24F394E1
:1038D0008AE0882E992493940E94D8066419750969
:1038E00086099709683B7B408105910508F460C013
:1038F0006CEB72E086EF93E00E9430186091BB029F
:10390000CE0143960E94B9196091BC02CE010D967A
:103910000E94B9196091BD02CE0107960E94B919A3
:1039200062E871E0CE0101960E94061ABE01695F4D
:103930007F4FCE0101960E947B1962E871E00E94E0
:103940006519BE01635F7F4F0E947B1962E871E0D9
:103950000E946519BE016D5E7F4F0E947B190E9417
:10396000740ECE0101960E942218CE0107960E9485
:103970002218CE010D960E942218CE0143960E9475
:10398000221868960FB6F894DEBF0FBECDBFDF9148
:10399000CF911F910F91FF90EF90DF90CF90BF904C
:1039A000AF909F908F907F906F905F904F90089511
:1039B0008091B602882361F0CE0101960E94801B9F
:1039C000CE0101960E94D317CE0101960E942218C3
:1039D00080917A02E81648F5009170021091710208
:1039E0000A0D1B1DE0917702F0917802EC0DFD1D90
:1039F000E0818E2F90E020912605309127058217D7
:103A0000930730F4E0912205F0912305309751F4AB
:103A10001092F101E1EFF1E061E08081803301F18A
:103A200060E01EC0E80FF91FF7CF9601281B31098F
:103A3000C901889E9001899E300D112400916C026D
:103A400010916D02020F131FE0916E02F0916F0250
:103A5000E80FF91F80810E94200661E0892B01F7A1
:103A6000C8010E944211C8010E945211843029F0FD
:103A7000883009F031CFF9242FCF0E94D8062B01CE
:103A80003C018091BC02FF2081F08B3F18F48B5FDA
:103A90008093BC02E091BC02F0E0EA57FD4FE49154
:103AA000E0930A050E94520417CF853098F38550A1
:103AB000EFCF2F923F924F925F926F927F928F92B1
:103AC0009F92AF92BF92CF92DF92EF92FF920F93AD
:103AD0001F93CF93DF93CDB7DEB76A970FB6F894F5
:103AE000DEBF0FBECDBF082F698F142F722E0E942C
:103AF000820C7B01298D223009F4F8C0F0F42223D6
:103B000041F1213009F484C06A960FB6F894DEBF03
:103B10000FBECDBFDF91CF911F910F91FF90EF901E
:103B2000DF90CF90BF90AF909F908F907F906F90DD
:103B30005F904F903F902F900895298D233009F486
:103B4000E2C0243009F71111F7C029E1E20EF11C9F
:103B5000D6C02091B902021720F48B010D591F4FD6
:103B600003C08B01075F1F4F0115110569F281E04A
:103B700090E00E9466344C011A8EC12C82E3282EFC
:103B8000312C412C512C0E151F05F8F0B70190E097
:103B900080E00E942B13D82E57018FEFA81AB80A85
:103BA000B50190E080E00E942B13682E8FEF8D0D01
:103BB000C110D8C08E3F08F4D5C021E0E21AF10848
:103BC000B70190E080E00E942B13898D81110E9443
:103BD000CF0E8114910409F497CFC4016A960FB6F1
:103BE000F894DEBF0FBECDBFDF91CF911F910F9133
:103BF000FF90EF90DF90CF90BF90AF909F908F900D
:103C00007F906F905F904F903F902F900C94023573
:103C1000133011F40E9447188091B802882309F4E8
:103C200061C0111154C08091BD028F5F873018F4BC
:103C30008093BD0202C01092BD026DEB72E087EF6F
:103C400093E00E9430186091BB02CE0143960E941F
:103C5000B9196091BC02CE010D960E94B91960910C
:103C6000BD02CE0107960E94B91962E871E0CE014B
:103C700001960E94061ABE01695F7F4FCE01019630
:103C80000E947B1962E871E00E946519BE01635FC2
:103C90007F4F0E947B1962E871E00E946519BE01A6
:103CA0006D5E7F4F0E947B190E94740ECE010196BB
:103CB0000E942218CE0107960E942218CE010D966E
:103CC0000E942218CE0143960E9422181DCF113067
:103CD00011F484E1ADCF123009F0B5CF802F0E94EE
:103CE0000A1C12CF123009F40FCFADCF111104C04E
:103CF00022E3E20EF11C31CF113009F005CF8B0128
:103D00000F5C1F4F31CF111107C021E2E20EF11CF1
:103D10008B010F5B1F4F28CF123039F422E4E20EE3
:103D2000F11C8B010E591F4F1FCF113009F0ECCE43
:103D30008B01005E1F4F18CF123039F422E3E20EE0
:103D4000F11C8B01065B1F4F0FCF133021F42BE4C6
:103D5000E20EF11C02CF113009F0D6CE8B01085EC5
:103D60001F4F02CF8B3008F44EC06D2D8BEC93E0CB
:103D7000711029C00E94320F81E0681699F0CC20A2
:103D800039F00E94CF0EC12C2FEFE21AF20AFBCEBF
:103D90008FEF860D8E3F70F46D2D8BEC93E00E94BB
:103DA000DC0EDA8E27E088E0D21699F1D81248C0EE
:103DB00084E02FC02A8D2223A9F36D2D8BEC93E094
:103DC0000E94DC0EEFCF0E94DC0E8EEF8D0D823054
:103DD000D8F6711016C023E060E0D21206C00E942F
:103DE000E630A20191010E94F13270E08AE0689E03
:103DF000600D711D1124072E000C880B990B0E9479
:103E0000810D7501C1CF7110E0CF86E0D812CACF05
:103E100081E00E94C60F1092BA031092BB03109269
:103E2000BC030E94B80B23E030E04AEB53E061E0B2
:103E30000E948D0E81E0D812C8CFCC24C394A4CFA9
:103E400029E080E4D21629F38AE0D81202C080E18A
:103E5000E0CF2BE0D212DFCF80E2DBCF8F929F92B8
:103E6000AF92BF92CF92DF92EF92FF920F931F9388
:103E7000CF93DF93CDB7DEB7A4970FB6F894DEBF2C
:103E80000FBECDBF0E94D80600917B0210917C022C
:103E900020917D0230917E02601B710B820B930B8F
:103EA00068397A438105910580F080917F028823EB
:103EB00061F00E94D80660937B0270937C0280932D
:103EC0007D0290937E0210927F028091B602882339
:103ED00061F0CE0101960E94801BCE0101960E94E6
:103EE000D317CE0101960E9422188091BA028F3F0B
:103EF00009F4A9C000916A0210916B02F80181894E
:103F0000928597FF2EC00E949117482F6FEFC8012E
:103F10000E947A10882309F496C0E0906A02F0901B
:103F20006B02F701828585FD0AC0C7010E9452110C
:103F30008032910599F18034910509F084C0F70130
:103F40009285892F807294FD1DC0882309F47BC05F
:103F50001481110F110B8381948197FF71C015E0BB
:103F600023C00E949117F82EF80187850E949117AF
:103F7000E82EF80180890E949117880F682F6E291A
:103F80004F2DC5CF882309F45EC0838194811FEF34
:103F900097FF11E097FF54C016E006C0F7011081AB
:103FA000143008F050C01F5F8091B90290917F02D9
:103FB000992309F486C01C8A1B8A1E8A1D8A188EC2
:103FC0001F8A4AE0BE016F5F7F4F810F9927991FBB
:103FD0000E946531BE016F5F7F4FCE0143960E9404
:103FE000AF1964E871E0CE0101960E94061ABE0185
:103FF0006D5E7F4FCE0101960E947B1966E871E0ED
:104000000E94651969E871E00E946519BC01CE0142
:1040100049960E94FD1980917F02882321F0CE01EC
:1040200049960E94CF18CE0149960E942218CE01CF
:1040300001960E942218CE0143960E94221803C0C6
:104040001F3F09F0B1CF6DE771E0CE014F960E949E
:10405000061A10E08AE0D82E95E6C92E8091B902A2
:10406000181708F07CC180917A02A12EB12C181784
:10407000D0F580907002909071021D9D800C911C73
:104080001124E0917702F0917802EA0DFB1DE081A6
:104090008E2F90E0209126053091270582179307F7
:1040A00030F4E0912205F09123053097C9F4109285
:1040B000F101E1EFF1E061E08081803379F160E0CE
:1040C0002DC020E040E060E0810F0E94591D8091EA
:1040D000B90221E040E060E0810F0E94591DB3CF9A
:1040E000E80FF91FE8CF9501281B3109C901D89EB7
:1040F0009001D99E300D112480906C0290906D0239
:10410000820E931EE0916E02F0916F02E80FF91F8C
:1041100080810E94200661E0892B89F6C4010E94FB
:104120004211C4010E945211F82EF401E0809091D6
:10413000BB028091B902989FA00CB11C1124CA9CAB
:10414000B001CB9C700D11246C597F4F072E000CD1
:10415000880B990B0E942B13082F6DE771E0CE019D
:104160004F960E94AF1980917F02F4E0FF1609F488
:104170005DC0FF15E8F021E0F21609F49EC032E0C0
:10418000F31609F4B5C0BE01615E7F4FCE01019602
:104190000E94FD1980917F02882321F0CE010196B3
:1041A0000E94CF18CE0101960E9422181F5F56CFA1
:1041B00098E0F91609F461C0E0E2FE12E4CF88232A
:1041C00009F4B9C06E2DCE0149960E94B919612F2C
:1041D000CE0143960E94B91964E871E0CE010196C0
:1041E0000E94061ABE016D5E7F4FCE0101960E94AD
:1041F0007B1968E971E00E94651964E871E00E942A
:104200006519BE01675E7F4F0E947B19BC01CE011C
:104210004F960E94E619CE0101960E942218CE0107
:1042200043960E942218CE01499624C0882309F49F
:104230005BC0612FCE0143960E94B91964E871E01A
:10424000CE0101960E94061ABE016D5E7F4FCE011F
:1042500001960E947B196CE871E00E946519BC010F
:10426000CE014F960E94E619CE0101960E942218B7
:10427000CE0143960E94221886CF8823A9F0612F91
:10428000CE0143960E94B91964E871E0CE0101960F
:104290000E94061ABE016D5E7F4FCE0101960E94FC
:1042A0007B196FE871E0D9CF01116DCF21E040E0BB
:1042B00060E0812F0E94591D66CF8823A9F0612FED
:1042C000CE0143960E94B91964E871E0CE010196CF
:1042D0000E94061ABE016D5E7F4FCE0101960E94BC
:1042E0007B1962E971E0B9CF20E001114CCFDFCF3B
:1042F0008823A9F0612FCE0143960E94B91964E882
:1043000071E0CE0101960E94061ABE016D5E7F4FDC
:10431000CE0101960E947B1965E971E09ECF20E0F5
:1043200041E0002309F42FCF602F812F0E94591DF7
:104330000E94CF0E28CF002309F425CFF1E020E022
:1043400040E0EF1689F322E0E21203C020E042E0F1
:10435000EBCF33E0E312ECCF20E043E0E5CFCE013A
:104360004F960E942218A4960FB6F894DEBF0FBE97
:10437000CDBFDF91CF911F910F91FF90EF90DF9014
:10438000CF90BF90AF909F908F900895AF92BF92C3
:10439000CF92DF92EF92FF920F931F93CF93DF9311
:1043A000CDB7DEB72C970FB6F894DEBF0FBECDBFEA
:1043B000182FA62E7A01D22EBB24BA948734A8F0E7
:1043C000282F30E050E040E02654310941095109DE
:1043D000A1E0BFEF0E941E332FE030E040E050E04C
:1043E0000E94F132BB24BA94B20E8091B8028823A5
:1043F00009F482C08091BD020E94B40CCC24CA94FE
:10440000163498F4212F30E050E040E02753310972
:1044100041095109AFEFB0E00E9410332FE030E0C6
:1044200040E050E00E94F132C22E8091B802882311
:1044300021F08091BD020E94B40C183308F458C0DA
:10444000153518F0CC24CA94B12C3AE0812F632F93
:104450000E942C34805D8983905D9A8383E48B83F2
:104460008CE28C8320E22D838A2D0E942C34805D87
:104470008E83905D9F8385E2888729872A872B8793
:104480001C865B2D4C2D88E0B89E90011124207E67
:104490003770542F44274427587F242B352B3093D3
:1044A0003E0520933D0510E0CD2CD12CA701B8018D
:1044B000C6010E94E816B801675F7F4FAE014F5FEB
:1044C0005F4FC60186960E947D150E942E1F2C9676
:1044D0000FB6F894DEBF0FBECDBFDF91CF911F9115
:1044E0000F91FF90EF90DF90CF90BF90AF90089525
:1044F000C12CBB24BA94A9CFCC24CA94163408F09A
:104500009FCF80CF1F920F920FB60F9211242F933F
:104510003F938F939F93AF93BF938091AB02909102
:10452000AC02A091AD02B091AE023091AA0223E09C
:10453000230F2D3758F50196A11DB11D2093AA0216
:104540008093AB029093AC02A093AD02B093AE0205
:104550008091AF029091B002A091B102B091B202ED
:104560000196A11DB11D8093AF029093B002A0935C
:10457000B102B093B202BF91AF919F918F913F91E1
:104580002F910F900FBE0F901F90189526E8230FC4
:104590000296A11DB11DD2CF1F920F920FB60F929E
:1045A00011242F933F934F935F936F937F938F9338
:1045B0009F93AF93BF93CF93EF93FF93C091E1008D
:1045C0008091E100837F8093E100C3FF0FC01092D0
:1045D000E90081E08093EB001092EC0082E380938D
:1045E000ED001092C00288E08093F000C2FF1AC074
:1045F0000E949F0580916302882341F080916302AD
:10460000815080936302811101C05D988091BF0247
:10461000882341F08091BF0281508093BF028111B5
:1046200001C02898C4FF23C08091E2008E7E816083
:104630008093E2008091E1008F7E8093E100809181
:1046400064028E7E806180936402FF91EF91CF912E
:10465000BF91AF919F918F917F916F915F914F919A
:104660003F912F910F900FBE0F901F901895C0FF94
:10467000ECCF8091E2008E7E80618093E200809199
:10468000E1008E7E8093E100809164028E7E8160E5
:10469000DACF1F920F920FB60F921124CF92DF92B2
:1046A000EF92FF920F931F932F933F934F935F933C
:1046B0006F937F938F939F93AF93BF93EF93FF93EA
:1046C000CF93DF93CDB7DEB76C97DEBFCDBF10922F
:1046D000E9008091E80083FF25C068E0CE0145969F
:1046E0000E944E0782EF8093E8008D8987FF39C0D2
:1046F0009091E80090FFFCCF982F907609F034C19C
:104700009E894F89588D2F89F88C911131C080383E
:1047100061F5809165028093F1001092F1008EEFB7
:104720008093E8006C960FB6F894DEBF0FBECDBF45
:10473000DF91CF91FF91EF91BF91AF919F918F91B9
:104740007F916F915F914F913F912F911F910F91A9
:10475000FF90EF90DF90CF900F900FBE0F901F90C3
:1047600018959EEF9093E800C7CF1092F100D5CF37
:10477000913059F48111D3CF4130510581F68091A8
:1047800065028D7F80936502CACF933049F4811111
:10479000C6CF4130510519F6809165028260F2CF93
:1047A000953041F48091E80080FFFCCF2068209391
:1047B000E300B5CF963009F0A9C00B8D1C8D22E027
:1047C0001092E9001092610210926002F2122EC063
:1047D00010925F0210925E020E946F071F8299E0A2
:1047E0009983FA8291E09E8390EA98879AEF99875D
:1047F0002091600230916102275F3F4F3C832B8301
:104800008D831092E9001092610210926002109361
:104810005F0200935E0249E050E0BE016F5F7F4F90
:1048200080E00E9417070E946F0779CF10935F0204
:1048300000935E020E945B07DC0112960D911C91B1
:104840000115110509F451C1D801ED91FC910480C5
:10485000F581E02DBE016B5E7F4FC8010995009781
:1048600009F03EC1F80100851185EACFF3E0FF129F
:104870000EC08F89882309F440C0823061F440E87B
:104880006DE088E792E00E949A26811148CF81E28C
:104890008093EB0047CF813029F440E86BE08CE651
:1048A00092E0F1CF833099F70E945B07DC0112960A
:1048B000ED90FC908E010F5F1F4F6801E114F10431
:1048C00079F0D701ED91FC910680F781E02DB801D8
:1048D000C7010995080F111DF701E084F184EECF9F
:1048E000D8011C92F60101900020E9F73197BF0131
:1048F0006C197D0940E0C601C6CF66E572E0FB0198
:10490000449150E080E80E94170709CF973009F4DE
:10491000BECF983021F481E08093F10000CF993030
:1049200009F0FDCE837009F0B2CFE1E0F1E081E063
:1049300031E096E32191222371F08093E9003093D6
:10494000EB00DF0111972C912093EC009093ED0088
:104950008F5F873079F78EE78093EA001092EA0044
:104960008F898093C002DBCE8B8D9C8D1092E900E5
:10497000109261021092600290935F0280935E0237
:10498000898D811192C08E899D89913A49F4813235
:1049900009F07DCF47E050E06BE071E080E0B3CFFD
:1049A000913209F074CF833269F48F89988DB0E029
:1049B000A0E08093070190930801A0930901B093B0
:1049C0000A01ADCE803269F48091E80082FFFCCF0D
:1049D00067E08BE091E00E944E078BEF8093E80048
:1049E0009ECE823209F09BCE8F8980931201EEEF2A
:1049F000FFE7859194918B3F9C4D51F1E0E0F8E009
:104A000080910B0190910C01A0910D01B0910E01CC
:104A1000803B9440A105B105F1F48091120180FD25
:104A20001AC0EE3F8AE0F80789F587E797E7918398
:104A30008083809160008093620288E19BE00FB6E2
:104A4000F894A895809360000FBE9093600067CEA5
:104A5000EEEFFAE0D5CF808191818737974709F053
:104A60005ECEA895809160008861809360008091FF
:104A7000620280936000EE3F2AE0F20789F08091A5
:104A8000FE0A9091FF0A9183808349CE80819181B3
:104A90008737980751F29093FF0A8093FE0AC5CF9B
:104AA0001092FF0A1092FE0A3ACE0E945B07DC01C8
:104AB00012960D911C910115110509F4E8CED8014B
:104AC000ED91FC910190F081E02DBE016B5E7F4F76
:104AD000C8010995811123CEF80100851185EBCF1E
:104AE000181619060CF41BCED2CEF1E0FF12BECE82
:104AF0006AE572E004CF1F920F920FB60F92112455
:104B00002F933F934F935F936F937F938F939F93D5
:104B1000AF93BF93EF93FF938091B900887F803666
:104B200009F44AC0F0F5883209F4A7C018F58031BD
:104B300009F49BC0B8F4882309F4F9C0883009F45B
:104B400094C0FF91EF91BF91AF919F918F917F9111
:104B50006F915F914F913F912F910F900FBE0F90EA
:104B60001F901895883109F488C0803251F78093DE
:104B7000090314C0803409F49DC040F48033B9F3B4
:104B80008833F9F68093090385ECB0C0803509F4C9
:104B900085C0883509F496C0883499F60E94DB1ADE
:104BA000D0CF883909F48CC038F5883729F050F413
:104BB000883611F0803729F683E080930B0310923A
:104BC000510257C0883809F47BC0803919F0803809
:104BD00009F0B7CF80915102803208F071C0E091A6
:104BE000510281E08E0F809351028091BB00F0E072
:104BF000EF5CFD4F80833DC0803B39F0E0F4803AAC
:104C000009F479C0883A09F09CCF84E080930B03C3
:104C10001092300210922F02E0916802F091690226
:104C2000099580912F0281110FC081E080932F029E
:104C300010920F0209C0803C09F4A6CF883C09F409
:104C4000A3CF883B09F07DCFE091300281E08E0F49
:104C500080933002F0E0E15FFD4F80818093BB00E4
:104C60009091300280912F0229C080910603809399
:104C7000BB0085EC8093BC0064CF909108038091C9
:104C80000703981758F5E091080381E08E0F809391
:104C90000803F0E0EB51FD4F8081E9CFE09108037C
:104CA00081E08E0F809308038091BB00F0E0EB5110
:104CB000FD4F808390910803809107039817C8F2F5
:104CC00085E8D8CFE091080381E08E0F8093080338
:104CD0008091BB00F0E0EB51FD4F808380910A038F
:104CE00081115CCF81E08093050384EA8093BC004E
:104CF00010920B0326CF85EC8093BC0010920B031F
:104D000080915102803230F4E0915102F0E0EF5C8A
:104D1000FD4F10826091510270E0E0916602F091C7
:104D2000670281E392E00995109251020ACF109236
:104D3000090334CFEF92FF920F931F93CF93DF932A
:104D4000F82E192FE62E042F81E0860F880F0E947F
:104D5000E90683E00E94E906CF2DD12FEC0EFD2E4F
:104D6000F11CCE15DF05B9F007FF13C0FE018491D9
:104D70000E94E906182F80E00E94E906812321960F
:104D80008111EFCFDF91CF911F910F91FF90EF90A5
:104D900008958881EDCF81E0F5CFCF93DF93109216
:104DA00038031092370388EE93E0A0E0B0E08093E0
:104DB000390390933A03A0933B03B0933C0327E459
:104DC00031E030933603209335032FEF3FEF3093DC
:104DD000420320934103209385031092870310928E
:104DE000860310929103109290034FEF5FEFBA0188
:104DF00040938C0350938D0360938E0370938F03C5
:104E000010929503109294038093960390939703C6
:104E1000A0939803B093990389E591E0909393034D
:104E2000809392038CE0EEE9F3E0DF011D928A9516
:104E3000E9F71092AB031092AA038091B20381119B
:104E400013C01092AD031092AC0388EF96E09093DC
:104E5000AF038093AE038BE490E09093B103809313
:104E6000B00381E08093B2030E94B80BFC01A385DC
:104E7000B485109709F028C18CEA93E09487838762
:104E8000858596852091B0033091B103820F931FE1
:104E9000968785871092CE031092CD038BE691E022
:104EA0009093CC038093CB038091C303811113C0F3
:104EB0001092BE031092BD0383EC97E09093C00361
:104EC0008093BF038FE290E09093C2038093C1036D
:104ED00081E08093C3030E94B80BFC01A385B485D5
:104EE000109709F0FCC08DEB93E09487838785854C
:104EF00096852091C1033091C203820F931F96873C
:104F0000858783E497E09093D8038093D70389E45F
:104F100090E00E94B618D82F8AE490E00E94B6185C
:104F2000C82F88E490E00E94B618109231051092C4
:104F3000300510923305109232051092350510920B
:104F400034051092370510923605109239051092EB
:104F5000380510923A0510923C0510923B052FEF50
:104F60003FEF30933E0520933D051092400510928F
:104F70003F05109242051092410526E435E030933A
:104F80004405209343058093450587E791E090937E
:104F90002F0580932E05D0934605C09347058FEFCC
:104FA000809348058093490580E092E1AAE7B0E04C
:104FB00080934A0590934B05A0934C05B0934D0503
:104FC00089ED93E090934F0580934E05C093500573
:104FD00080E395E09093520580935105109253051C
:104FE00010925405109256051092550510925805CE
:104FF000109257056DE771E088E295E00E94061A6D
:105000006DE771E082E295E00E94061A8EE290E080
:105010009093DB038093DA0380ED97E09093DD03B8
:105020008093DC0382E380930A0580930B05109242
:105030000C0510920D0510920E0510920F0510929E
:10504000100510921205109211058FB780931F055D
:1050500083E090E09093210580932005E6E3F8E05B
:10506000249120931B0587E198E0FC013491E32F04
:10507000F0E0EE0FFF1FE050F84F45915491509330
:10508000140540931305FC018491E82FF0E0EE0F26
:10509000FF1FEE50F84FA591B491B0931605A09361
:1050A0001505EC91E22BEC938EE190E09093DB03FD
:1050B0008093DA0384E992E09093DD038093DC032C
:1050C000DF91CF910895DC018D919C91119700970C
:1050D000D1F78CEA93E08D939C93D2CEDC018D9135
:1050E0009C9111970097D1F78DEB93E08D939C9352
:1050F000FECECF93DF93CDB7DEB7A1970FB6F8946E
:10510000DEBF0FBECDBF789484B5826084BD84B508
:10511000816084BD85B5826085BD85B5816085BDB2
:1051200080916E00816080936E001092810080916A
:1051300081008260809381008091810081608093F2
:105140008100809180008160809380008091910037
:1051500082608093910080919100816080939100A2
:10516000809190008160809390008091C100846064
:105170008093C1008091C10082608093C1008091C2
:10518000C10081608093C1008091C30081608093E1
:10519000C3008091C00082608093C0008091C200F3
:1051A00081608093C20080917A00846080937A004D
:1051B00080917A00826080937A0080917A00816089
:1051C00080937A0080917A00806880937A001092B0
:1051D000C00210926502109264028091D700816033
:1051E0008093D70080EA8093D80089B5806189BD1B
:1051F00089B5826089BD09B400FEFDCF61E070E031
:1052000080E090E00E94810D8091D8008F7C8061C9
:105210008093D8008091E000807F8093E0008091AF
:10522000E1008E7E8093E1008DE08093E200559A4C
:10523000209A5D9828988FEF9FEF90934203809378
:10524000410360ED77E080E090E00E94810D8EEEFA
:1052500093E00E94B61890911401891308C08FEE54
:1052600093E00E94B61890911301891761F064E1F0
:1052700071E08EEE93E00E94301863E171E08FEEF2
:1052800093E00E94301882E590E00E94B618182F33
:105290008EEE93E00E94B61818130BC083E590E0E1
:1052A0000E94B618182F8FEE93E00E94B6181817B8
:1052B00041F18BEE93E00E94B6188031B0F08BEE96
:1052C00093E00E94DB32882329F060E08BEE93E0CC
:1052D0000E94E3328CEE93E00E94DB32882329F0B7
:1052E00060E08CEE93E00E94E33264E171E082E5DD
:1052F00090E00E94301863E171E083E590E00E9445
:10530000301810921203109211031092C2021092E0
:10531000E4020E94700886EE96E090936902809302
:10532000680287EE96E0909367028093660283E4BA
:1053300097E09093D8038093D70380E00E94631A8C
:105340008091B702813009F0C8C08EE295E00E94DA
:10535000E8130E944515E6E8F3E0E491E0939E032C
:10536000E7E8F3E0249120939F03E8E8F3E08491D9
:105370008093A003E9E8F3E0E491E093A1034AE815
:1053800053E05093A7034093A6034DE85AE050938F
:10539000AB034093AA0390E0079633E09595879579
:1053A0003A95E1F78093A303289FE02D1124E09321
:1053B000A4031092A5031092A9031092A8038EE9EA
:1053C00093E090934205809341050091430510912D
:1053D0004405D8011D968C911D9780FD1CC01B961D
:1053E000ED91FC911C9780819181228133813183E1
:1053F0002083938382831F968D919C915097519621
:105400002D913C91529750963C932E931F97529614
:105410009C938E93519783E0F8018587C8010E9481
:10542000941360E0D8011A968C910E94370A88E2A2
:105430000E945C0A86E30E945C0A61E0F8018285B2
:105440000E94370AD8011D96EC9180EAE33020F4DF
:10545000F0E0E05DFE4F8081F8019685892B0E9487
:105460005C0A60E0D8011A968C910E94370A89E2A2
:105470000E945C0AC8010E94400A8EE490E00E94EB
:10548000B618809399028FE490E00E94B61880933A
:105490009A0280E590E00E94B6188093970281E519
:1054A00090E00E94B61880939802FE0131966F0139
:1054B000CE0107967C018E01035F1F4F9E012D5E7A
:1054C0003F4FAE01475E5F4FBE01625E7F4F489621
:1054D0000E9496128D8580939B028091BA028F3F25
:1054E00009F453C08DE490E00E94B618D82E8CE4E5
:1054F00090E00E94B618E82E8BE490E00E94B61867
:10550000F82E82E190E00E9466348C01DC01129654
:105510001C921E92119714961C921E92139782E36E
:1055200015968C9315978FE116968C93169785E2B6
:1055300017968C9317978CE018968C9318978EE398
:1055400019968C9319971A961C921A971B961C926F
:105550001B978EE11C968C931C971E961C921E9294
:105560001D9720E040E060E0C8010E94A81710935A
:105570006B0200936A022D2D4E2D6F2DC8010E94E3
:10558000A81781E0F80184878583E091BC02F0E0F0
:10559000EA57FD4FE491E0930A058BEE93E00E94F9
:1055A000B618F4E68F9FC0011124909312058093E2
:1055B000110580EF93E00E94B618182F80937A02AD
:1055C0008CEE93E00E94B61880937902112309F4BF
:1055D00092C0E12EF12CC7010E942A188093770215
:1055E000909378025C01D12CC12CC11650F4C601F5
:1055F0000E94B618D5018D935D01BFEFCB1ADB0A6F
:10560000F4CF82E390E00E94B6188093760284E49F
:1056100090E00E94B618082F8093750285E490E010
:105620000E94B618D82E8093740286E490E00E94FF
:10563000B618C82E8093730287E490E00E94B618D3
:10564000B82E8093720261E0802F0E94770661E09D
:105650008B2D0E94770661E08D2D0E94770660E019
:105660008C2D0E94770660E08D2D0E94490661E036
:10567000802F0E944906EAE01E9FC00111240E946B
:105680002A18DC01FC0162E35FE145E23CE02EE325
:105690001282118214821382658356834783308776
:1056A00021873A9671E0E71AF10891F7809370022A
:1056B0009093710280E04CE031E025E19EE1169686
:1056C0004C93169718963C93189717962C93179708
:1056D00015969C9315978F5F1A961813F0CFCE01ED
:1056E00001960E94801BCE0101960E94D317CE0125
:1056F00001960E942218D0907902DD2009F459C049
:10570000AD2CB12CC5010E942A18C82E80936E02C0
:1057100090936F02E82EF92E082F192F83E3882E1D
:10572000912C7C2C802F8C198D1550F4C4010E9473
:10573000B618D8018D938D01BFEF8B1A9B0AF2CF5B
:10574000EAE0DE9EC00111240E942A188C01FC01AF
:1057500062E35FE145E23CE02EE3128211821482B3
:105760001382658356834783308721873A9671E099
:10577000A71AB10891F780936C0290936D02FCE038
:105780009F2EAA24A394A5E1BA2EBEE1CB2E8E2D86
:1057900087198D1570F462E0D7018D917D010E940B
:1057A0007706F8019682A086B782C582065F1F4FF2
:1057B000EECF81E08093BE02CE014E9699A388A3DE
:1057C00066246A94762CE0E04E2EE0E05E2E809116
:1057D000B802882321F08091BD020E94B40C0E947F
:1057E0002E1F0E94D8060091A6021091A7022091B8
:1057F000A8023091A902601B710B820B930B6031E0
:1058000077428105910538F08091A502813019F425
:10581000B2E0B093A5020E94D8060091A1021091B7
:10582000A2022091A3023091A402601B710B820B93
:10583000930B643F71408105910508F470C080911D
:10584000A002813009F06BC01092A00285E0EFE168
:10585000F1E0DE01599601900D928A95E1F786EF0D
:1058600093E00E94B618E82EF090BC028E01075E0D
:105870001F4FD8018D918D0190E0BC016D547D4F7B
:1058800083519C4F0E943018E8A1F9A1E017F1075D
:1058900081F7EF1409F443C06091BB02CE01019679
:1058A0000E94B9196091BC02CE0107960E94B919F5
:1058B0006091BD02CE010D960E94B91962E871E0B7
:1058C000CE0143960E94061ABE01635F7F4FCE0150
:1058D00043960E947B1962E871E00E946519BE013F
:1058E000695F7F4F0E947B1962E871E00E94651931
:1058F000BE016F5F7F4F0E947B190E94740ECE0124
:1059000043960E942218CE010D960E942218CE01C5
:1059100007960E942218CE0101960E94221885E364
:1059200093E00E942F08892B09F444C06DE771E0D1
:10593000CE010D960E94061A0E94D90797FD0FC04E
:105940008A30910561F089831A8241E050E0BE01FE
:105950006F5F7F4FCE010D960E940819EDCF8989A8
:105960009A89892B09F4FCC0ED85FE85309709F4EE
:10597000F7C010816DE771E0CE0107960E94061A0C
:105980000E94D8061C3309F44BC30CF04DC11A32E7
:1059900009F449C30CF0E6C0113209F483C2133292
:1059A00009F42CC2CE0107960E942218CE010D9652
:1059B0000E9422180E94D80600919C0210919D021C
:1059C00020919E0230919F02601B710B820B930B02
:1059D000683E73408105910508F4BBC00E94D8065B
:1059E00060939C0270939D0280939E0290939F020D
:1059F0008091B702813009F0ACC0CE0101966C01F4
:105A0000DE0117967D018E01035F1F4F9E012D5E03
:105A10003F4FAE01475E5F4FBE01625E7F4F4E96C5
:105A20000E94961290919B028D85981729F00E94F2
:105A300045158D8580939B0270923E0560923D05D1
:105A40003F8D4E8D898D1AE0612F0E942C34805D30
:105A500080938902905D90938A022AE320938B02BF
:105A6000842F0E942C34805D80938C02905D9093F3
:105A70008D0220938E02832F0E942C34805D8093B0
:105A80008F02905D909390021092910260919A0221
:105A900070E08091990249E852E090E00E947D1503
:105AA0000E942E1F39814F818D85612F0E942C34D9
:105AB000805D80938002905D909381022EE220931E
:105AC0008202842F0E942C34805D80938302905D3B
:105AD0009093840220938502832F0E942C34805D52
