:100000000C94A8030C94D0030C94D0030C94D0034C
:100010000C94D0030C94D0030C94D0030C94D00314
:100020000C94D0030C94D0030C94E7210C9464221C
:100030000C94D0030C94D0030C94D0030C94D003F4
:100040000C94D0030C94D0030C94D0030C94D003E4
:100050000C94D0030C94D0030C94D0030C949D21E9
:100060000C94D0030C94D0030C94D0030C94D003C4
:100070000C94D0030C94D0030C94D0030C94D003B4
:100080000C94D0030C94D0030C94D0030C94D003A4
:100090000C9496240C94D0030C94D0030C94D003AD
:1000A0000C94D0030C94D0030C94D00300000000F7
:1000B0000000000001010101010101010202020230
:1000C00002020203030303030404040505050505F6
:1000D000060606060707070808080808090A0A0AA4
:1000E0000A0B0B0C0C0C0C0D0D0D0E0E0F0F0F1040
:1000F00011111111121213141414141516161717C6
:10010000171819191A1A1B1B1C1C1D1E1E1F1F2035
:1001100021212223232425252626272829292A2B85
:100120002C2D2D2E2F2F30313233343536363738B3
:1001300038393A3B3C3D3E3F4041424344454546C9
:1001400047494A4B4C4D4E4F5051525455565759B2
:100150005A5B5D5E5F60616264656667696A6C6D6B
:100160006E6F7173757677797A7B7C7F80828385F9
:100170008688898B8C8F9192939497999A9C9E9F55
:10018000A2A3A5A7A9ABADAEB0B3B4B6B9BABCBE75
:10019000C0C2C4C7C9CACDCFD1D3D6D8DADCDFE15B
:1001A000E2E6E7EBECF0F1F5F6FAFBFF01FF961162
:1001B000FFFFB103012C2DB203012C2DB306012C3E
:1001C0002D012C2DB40107B6021502C003A2028432
:1001D000C101C5C2020A00C3028A2AC4028AEEC54E
:1001E000010E20003601003A0105E0100F1A0F1829
:1001F0002F2820221F1B233700070210E1100F1B9E
:100200000F17332C292E3030393F0007031029FFF8
:100210006413FF0A080B0002020200000904000038
:10022000010202000005240010010524010101045F
:100230002402060524060001070581031000400979
:10024000040100020A000000070502024000000746
:100250000583024000000403090412010002EF02BA
:10026000014041233780000101020301417264759E
:10027000696E6F204C4C430041726475696E6F204B
:100280004D6963726F000000000000000000010172
:100290000101010101010202020202020203030341
:1002A00003030404040505050505060606060707FD
:1002B000070808080808090A0A0A0A0B0B0C0C0CA4
:1002C0000C0D0D0D0E0E0F0F0F101111111112123A
:1002D00013141414141516161717171819191A1AB7
:1002E0001B1B1C1C1D1E1E1F1F202121222323241B
:1002F00025252626272829292A2B2C2D2D2E2F2F60
:100300003031323334353636373838393A3B3C3D84
:100310003E3F404142434445454647494A4B4C4D88
:100320004E4F50515254555657595A5B5D5E5F605F
:10033000616264656667696A6C6D6E6F717375760C
:1003400077797A7B7C7F808283858688898B8C8F86
:100350009192939497999A9C9E9FA2A3A5A7A9ABCB
:10036000ADAEB0B3B4B6B9BABCBEC0C2C4C7C9CAD8
:10037000CDCFD1D3D6D8DADCDFE1E2E6E7EBECF0A3
:10038000F1F5F6FAFBFF000608200000000000006F
:100390000000002F000000000700070000147F1479
:1003A0007F1400242A7F2A12002313086462003677
:1003B0004955225000000503000000001C224100A6
:1003C000000041221C000014083E08140008083EEA
:1003D0000808000000A060000008080808080000E5
:1003E00060600000002010080402003E5149453EB4
:1003F0000000427F400000426151494600214145D2
:100400004B31001814127F10002745454539003C38
:100410004A49493000017109050300364949493606
:1004200000064949291E00003636000000005636F5
:1004300000000008142241000014141414140000D9
:100440004122140800020151090600324959513E67
:10045000007C1211127C007F49494936003E41411F
:100460004122007F4141221C007F49494941007FD0
:1004700009090901003E4149497A007F0808087FBF
:100480000000417F4100002040413F01007F0814EF
:100490002241007F40404040007F020C027F007FED
:1004A0000408107F003E4141413E007F09090906D2
:1004B000003E4151215E007F091929460046494905
:1004C00049310001017F0101003F4040403F001FD2
:1004D0002040201F003F4038403F00631408146351
:1004E00000070870080700615149454300007F413B
:1004F000410000552A552A55000041417F00000463
:10050000020102040040404040400000010204009B
:10051000002054545478007F484444380038444400
:10052000442000384444487F00385454541800088C
:100530007E0901020018A4A4A47C007F08040478AA
:100540000000447D4000004080847D00007F102832
:1005500044000000417F4000007C04180478007CC7
:100560000804047800384444443800FC2424241847
:100570000018242418FC007C080404080048545483
:10058000542000043F444020003C4040207C001C9C
:100590002040201C003C4030403C004428102844AF
:1005A000001CA0A0A07C004464544C4400000877C8
:1005B00000000000007F000000007708000000102D
:1005C0000810080014141414141400000000002370
:1005D00000260029002C002F000000000200090F57
:1005E0000000030401000C000000000000000000F7
:1005F0000000000000000000050C0901A1018501B8
:1006000015002501750195180A23020A8A011A248A
:10061000022A27020A21020A2A0209CD09B709B6CD
:1006200009B509E909EA09E20A83010A01020A0295
:10063000020A07020A1A020A79021A1B022A1D027A
:100640008102C000000000000000002A2B280000EA
:10065000000000000000000000000000000000009A
:100660000000002C9EB4A0A1A2A434A6A7A5AE367B
:100670002D3738271E1F20212223242526B333B6E9
:100680002EB7B89F8485868788898A8B8C8D8E8FBC
:10069000909192939495969798999A9B9C9D2F31BF
:1006A00030A3AD350405060708090A0B0C0D0E0F23
:1006B000101112131415161718191A1B1C1DAFB19F
:1006C000B0B50005010906A1018502050719E02959
:1006D000E7150025017501950881029501750881CE
:1006E0000395067508150025730507190029738100
:1006F00000C000000000240027002A002D00300068
:1007000000000000250028002B002E00310004040A
:1007100004040403040502020202040302020202AA
:100720000606060606060404020202040404080281
:100730000110408040102040804080080204018069
:10074000402010020110801020404020E825193080
:1007500011241FBECFEFDAE0DEBFCDBF11E0A0E075
:10076000B1E0EAE0FCE602C005900D92A63EB107BA
:10077000D9F725E0A6EEB1E001C01D92A035B20781
:10078000E1F713E0C7EAD3E004C02197FE010E941D
:10079000D333C63AD107C9F70E9493270C94F83592
:1007A0000C9400004F925F926F927F928F929F9273
:1007B000AF92BF92CF92DF92EF92FF920F931F936F
:1007C000CF93DF9300D01F92CDB7DEB78091140591
:1007D000E0910C05F0910D059081982B90931605F2
:1007E00090818095892380931705809103058093DC
:1007F00004058091190590911A05039721F48FB78C
:1008000080931805F89400910A0510910B050115C5
:10081000110509F492C0D0900305E3EDF3E06FEF0A
:1008200074E020E030E0A901ED2CF12CC701019625
:10083000C480C89ED001C99EB00D1124AB2FBB2728
:100840002A0F3B1F411D511DC580C89ED001C99E66
:10085000B00D1124AB2FBB272A0F3B1F411D511D8B
:10086000C680C89ED001C99EB00D1124AB2FBB27F6
:100870002A0F3B1F411D511D33966E177F07C1F68E
:10088000232F342F452F552747FD5A95A091D30389
:10089000B091D4030E94A23223E030E040E050E067
:1008A0000E94783249015A018091D5039091D60374
:1008B00081149104A104B104F1F16AE070E00E9496
:1008C000BF33CB01072E000CAA0BBB0B880D991D63
:1008D000AA1DBB1D2801012E000C6608770884158F
:1008E0009505A605B7053CF1C801861B970BBC0111
:1008F000072E000C880B990B0E9469312B013C01DB
:10090000B701FF0C880B990B0E9469319B01AC0168
:10091000C301B2010E94A4316B017C01C501B40185
:100920000E9469319B01AC01C701B6010E941233DC
:100930000E948433D62ED0920405E3EDF3E00FEF4E
:1009400014E07E0194E0E90EF11C5581468180910E
:10095000040590E001966481689F9001699F300DC5
:1009600011243A83589F9001599F300D11243983E7
:10097000489F9001499F300D11243B8380911905B8
:1009800090911A05029721F48FB780931805F89477
:10099000BE016F5F7F4FDB018D91BD012091190575
:1009A00030911A052130310521F49FB79093180535
:1009B000F8949091160520911705A0910C05B0911F
:1009C0000D0538E09C9387FF2C93880F43E04A95F0
:1009D000F1F700002C933A95A9F7809119059091B1
:1009E0001A058130910519F4209118052FBFE616DC
:1009F000F70609F0D0CF8230910519F4209118053F
:100A00002FBF33960E171F0709F09FCF039719F4D6
:100A1000809118058FBF0F900F900F90DF91CF91AD
:100A20001F910F91FF90EF90DF90CF90BF90AF900C
:100A30009F908F907F906F905F904F90089583E08C
:100A40008093E9008091F200882319F08AE3809373
:100A5000E8000895FC018091B302882311F13FB7AB
:100A6000F89482E08093E9002091F200822F90E0D8
:100A70001816190614F481E090E0882339F0289ABA
:100A800044E64093B2024091F1004083222339F0C2
:100A90002091F200211103C02BE62093E8003FBF14
:100AA00008958FEF9FEF089581508F3008F047C071
:100AB000E82FF0E0E25AFA4F0C94D3337B057F0520
:100AC0006D05730577059F059F059F0582058805C0
:100AD0008C05900596059F059A05809180008F777B
:100AE000809380000895809180008F7DF9CF809160
:100AF0008000877FF5CF84B58F7784BD089584B556
:100B00008F7DFBCF809190008F7780939000089528
:100B1000809190008F7DF9CF80919000877FF5CFF5
:100B20008091C0008F778093C00008958091C000AD
:100B30008F7DF9CF8091C200877F8093C200089596
:100B4000CF93DF93282F30E0F901E752FA4F8491D9
:100B5000F901E35DF84FD491F901E25FF84FC491D8
:100B6000CC23A1F081110E945405EC2FF0E0EE0F90
:100B7000FF1FE553FA4FA591B491EC91ED2381E06D
:100B800090E009F480E0DF91CF91089580E090E05B
:100B9000FACF1F93CF93DF93282F30E0F901E7526C
:100BA000FA4F8491F901E35DF84FD491F901E25FC6
:100BB000F84FC491CC23A9F0162F81110E9454053F
:100BC000EC2FF0E0EE0FFF1FE050F94FA591B4912C
:100BD0008FB7F894EC91111108C0D095DE23DC9307
:100BE0008FBFDF91CF911F910895DE2BF8CFCF9368
:100BF000DF9390E0FC01E35DF84F2491825F984F12
:100C0000FC0184918823C9F090E0880F991FFC01B2
:100C1000EE50F94FA591B491FC01E050F94FC59108
:100C2000D49161110DC09FB7F8948C9120958223C7
:100C30008C938881282328839FBFDF91CF910895CB
:100C4000623051F49FB7F8943C91822F80958323B2
:100C50008C93E8812E2BEFCF8FB7F894EC912E2B4D
:100C60002C938FBFEACF3FB7F8948091A202909166
:100C7000A302A091A402B091A50226B5A89B05C02D
:100C80002F3F19F00196A11DB11D3FBFBA2FA92F0B
:100C9000982F8827BC01CD01620F711D811D911D08
:100CA00042E0660F771F881F991F4A95D1F7089574
:100CB0002FB7F89460919E0270919F028091A002DC
:100CC0009091A1022FBF08950C941F0508950895D7
:100CD000089540915A0250915B0220915802309140
:100CE000590242175307B4F49091E8009570E1F36C
:100CF0009091E80092FD19C08093F10080915A0212
:100D000090915B0201968F739927892B19F48EEFCE
:100D10008093E80080915A0290915B020196909333
:100D20005B0280935A0281E0089580E00895DF928B
:100D3000EF92FF920F931F93CF93DF93D82E8A01E8
:100D4000EB017B01E40EF51ECE15DF0559F0D7FE51
:100D500012C0FE0184910E94690621968111F4CF90
:100D60000FEF1FEFC801DF91CF911F910F91FF90FF
:100D7000EF90DF9008958881EECF2FB7F8948770B9
:100D80008093E9009091E800892F807295FF04C05C
:100D90009091F20080E4891B2FBF0895615030F0DC
:100DA0002091F100FC0120830196F8CF289A84E677
:100DB0008093B20208958091500281110DC082E0AB
:100DC00080934C0284E080934D0210924F02109267
:100DD0004E0281E0809350028CE492E008950F93DC
:100DE0001F93CF93DF931F92CDB7DEB782E0898345
:100DF00042E450E064E172E080E80E9497060E94BD
:100E0000DB06DC0112960D911C910115110589F08C
:100E1000D801ED91FC910280F381E02DBE016F5F5E
:100E20007F4FC801099597FD04C0F8010085118521
:100E3000ECCF89810F90DF91CF911F910F91089591
:100E4000CF93DF931F92CDB7DEB76983DC01ED91BD
:100E5000FC910280F381E02D41E050E0BE016F5F24
:100E60007F4F09950F90DF91CF91089583E00E9405
:100E7000BD0690E00895CF93DF931F92CDB7DEB704
:100E8000FC018485958597FD08C02FEF3FEF3587DE
:100E900024870F90DF91CF910895CE0101960E9493
:100EA0002A05019719F4898190E0F3CF8FEF9FEF26
:100EB000F0CF0F931F930E945806609330037093F6
:100EC0003103809332039093330388E293E00E94CE
:100ED0003B0797FF1DC00E945806009130031091F8
:100EE00031032091320330913303601B710B820B6D
:100EF000930B00912C0310912D0320912E03309120
:100F00002F036017710782079307F8F28FEF9FEFA7
:100F10001F910F9108950F931F93CF93DF931F920B
:100F2000CDB7DEB78C01FC018485958597FF0BC09A
:100F3000CE0101960E942A05019771F4898190E003
:100F4000F80195878487F801848595850F90DF9156
:100F5000CF911F910F9108958FEF9FEFF1CFFC017B
:100F60008485958597FD0BC09FB7F89482E08093A8
:100F7000E9008091F2009FBF90E0019608959FB72D
:100F8000F89482E08093E9008091F2009FBF90E0A6
:100F9000089520912902260F3327331F213231056E
:100FA000ECF42091FE02FC0190E080E0243069F036
:100FB00082E00895A09129022191AC01475F5D4F25
:100FC000A40FB52FB11D2C930196861798F380912D
:100FD0002902680F6093290280E0089581E0089556
:100FE0001092FE0281E08093FD021092F80261E00F
:100FF00082E00E94C90561E083E00E94C905E9EB37
:10100000F0E080818E7F808380818D7F808388E483
:101010008093B80085E48093BC000895CF93DF935C
:1010200091E0909308028823B9F0C091B800D09164
:10103000BA008091BC008A7B8093BC0060E082E0B3
:101040000E94C90560E083E00E94C9050E94F00784
:10105000D093BA00C093B800DF91CF910895CF929A
:10106000DF92EF92FF920F931F93CF93DF93D09174
:10107000D70281E0D13208F09CC0C091D6020E9414
:1010800033066B017C018091FE0281116CC082E00D
:101090008093FE0281E08093FD028FEF8093FC023B
:1010A0001092FB02D093FA02A6EBB2E0E8EDF2E078
:1010B00080E0D8138DC01092F9028091F902CC0F14
:1010C000C82BC093F9028091F802813009F084C0E6
:1010D0001092F8020E9433066B017C018091F902A4
:1010E0008093BB008091000390910103A0910203C3
:1010F000B0910303892B8A2B8B2BA1F00E9433061E
:101100000091000310910103209102033091030329
:101110006C197D098E099F090617170728073907DB
:1011200008F442C08091BC0083FDD8CF85EC809349
:10113000BC000E9433066B017C018091FE0282306C
:1011400009F44CC08091FC028F3F09F469C0809182
:10115000FC02803209F466C08091FC02803309F4FD
:1011600063C084E026C08091000390910103A091A8
:101170000203B0910303892B8A2B8B2B09F483CFB5
:101180000E94330600910003109101032091020395
:10119000309103036C197D098E099F090617170703
:1011A0002807390708F06FCF8091FF020E940E08D0
:1011B00085E01092B5021092D7021092B402DF912E
:1011C000CF911F910F91FF90EF90DF90CF900895F6
:1011D0009D9191938F5F6DCF85EEA9CF8091000394
:1011E00090910103A0910203B0910303892B8A2BF4
:1011F0008B2B09F4A2CF0E943306009100031091BB
:10120000010320910203309103036C197D098E09BB
:101210009F09061717072807390708F08ECFC4CF94
:1012200080E0C7CF82E0C5CF83E0C3CF0895E091CF
:10123000050380910403E81730F4F0E0EA5FFC4F07
:10124000808190E008958FEF9FEF089590910503BE
:10125000809104032FEF3FEF981748F4E92FF0E057
:10126000EA5FFC4F208130E09F5F90930503C90146
:1012700008958091040390910503891B990B0895AB
:10128000CF92DF92EF92FF920F931F93CF93DF9352
:101290007C01CB018A012091B402222389F0EB0169
:1012A0006B01C40ED51ECC15DD0569F06991D7011F
:1012B000ED91FC910190F081E02DC7010995F3CFEC
:1012C000642F0E94C907C801DF91CF911F910F9130
:1012D000FF90EF90DF90CF900895CF93DF931F9210
:1012E000CDB7DEB769832091B4022223F9F02091B3
:1012F000D702203258F021E030E0FC013383228312
:1013000090E080E00F90DF91CF9108958091B50239
:10131000E82FF0E0EA54FD4F998190838F5F80932E
:10132000B5028093D70281E090E0ECCF61E0CE017E
:1013300001960E94C907F7CF682F85E893E00C94C7
:101340006D099FB7F89480910702882319F08150A6
:101350008093070280910702811105C08CB58F7BB5
:101360008CBD109206029FBF08950C94C90587FD9D
:1013700006C070E0082E000C990B0C94B509089576
:10138000FC01808187FD07C061E070E0082E000C41
:10139000990B0E94B50980910602882361F09FB7DE
:1013A000F8942091060280910502213019F48DBB3A
:1013B0009FBF08958FBF08958EBD00000DB407FE36
:1013C000FDCF8EB50895FB0124913196E491322F23
:1013D0002E2FFB013296E491E11103C090E080E0F2
:1013E00008956D5F7F4FDC01FC914217530730F089
:1013F000D901AE0FB11D4A175B0728F0EF9F600DB2
:10140000711D1124E0CF421B530BF49FC001F59FC7
:10141000900D1124860F971F0895EF92FF920F935E
:101420001F93CF93DF934115510509F44BC08A01F7
:101430007B01EC018981FA0180838A8181838F811C
:10144000828368857985F0E8EF16F10490F488814D
:1014500081110FC06115710579F08B81E81AF108CF
:101460002E812E9DC0012F9D900D1124860F971F58
:1014700026C061157105E1F46A857B8561157105EA
:1014800041F54B8188859985242F042E000C330B60
:10149000241B31094E81429FB001439F700D1124DE
:1014A00028812130F1F030E020E0620F731FDECFA1
:1014B000A701CE0106960E94E3090097E9F2F80120
:1014C00094838383DF91CF911F910F91FF90EF90D1
:1014D0000895A701CE0106960E94E309009779F7C7
:1014E000D0CF23E030E0E1CFDC01FB0112962C915C
:1014F0001297848195812817190641F49181808182
:10150000813A31F49D7F81E0913009F080E00895C7
:101510008132E1F79B3029F482811F968C9381E020
:1015200008959A3099F7828150968C93F8CFDC0118
:10153000FB0188E4808389E4818384E482831D96AF
:101540009C911D979F709F5B93831D968D919C919D
:1015500024E0969587952A95E1F78F708F5B8483B9
:1015600085E00895EF92FF920F931F93CF93DF933F
:10157000FB012081213871F52381223259F5DC01EC
:1015800012964C91248135814217130619F5EC010E
:101590000B851C85F12CE12C0115110589F0F80152
:1015A000448155816281738180E80E9497068F3F54
:1015B000980749F0E80EF91ED8010D911C91ECCF67
:1015C00081E08F87C701DF91CF911F910F91FF902D
:1015D000EF90089590E080E0F6CFCF93DF93CDB702
:1015E000DEB769970FB6F894DEBF0FBECDBFFC0122
:1015F000DB018C918F5F8C939E012D5F3F4F8DE0BF
:10160000D9011D928A95E9F729E0298384E08A832C
:1016100091E09D8383E08E832A8721E22B879C873C
:101620009D879F8722E2288B27E02B8B25E02C8B40
:101630008E8B20E430E0388F2F8B998F82818B83C3
:1016400095858685998B8A8B838180688D8B49E10E
:1016500050E0BE016F5F7F4F80E00E949706699661
:101660000FB6F894DEBF0FBECDBFDF91CF910895C6
:10167000CF93DF938091FD01811167C081E080935A
:10168000F0018093F10126EF31E03093F3012093D4
:10169000F2011092F5011092F40128E231E030934A
:1016A000ED012093EC011092F8011092F7011092D5
:1016B000FA011092F9018093FB018093FC0181EC07
:1016C0008093F6010E94DB06FC0181819091F0017C
:1016D000482F490F5527551F483051059CF5A281C9
:1016E000B381109709F52CEE31E0338322832081FA
:1016F0002093EE018093EF018091F101820F8083AE
:101700002091F201A22FB091F3018A2F821B891739
:10171000C8F481813D91C82FD0E0C050DF4F38839D
:101720008F5F8183F2CFD90118962D913C91199743
:1017300021153105C1F72CEE31E019963C932E931B
:101740001897D5CF81E08093FD018CEE91E0DF9179
:10175000CF910895CF92DF92EF92FF920F931F9354
:10176000CF93DF936C01EB017B01E40EF51E10E0DB
:1017700000E0CE15DF0581F069916D30D1F3D6011F
:10178000ED91FC910190F081E02DC6010995892B26
:1017900019F00F5F1F4FEDCFC801DF91CF911F915F
:1017A0000F91FF90EF90DF90CF90089590E080E050
:1017B0000895E42FF0E0E455FF4F4491E62FF0E068
:1017C000E455FF4F7491E82FF0E0E455FF4F64912A
:1017D000842F0895682F660F680F8B3A38F082E0E7
:1017E000860F482F409560E00C94D90B863530F079
:1017F00041E0460F642F609580E0F6CF862F8095FC
:1018000040E0F2CFFC01218524FD08C025FF06C081
:1018100084818095881F8827881F089580E0089517
:10182000FC0191859073903331F484818095881FF9
:101830008827881F089580E008951F93CF93DF9332
:10184000EC018B819C8194FB112710F9162796FFE0
:1018500004C09F7B9C838B8311E08B819C8191FDD5
:1018600005C0112311F192609C838B830E9458065E
:1018700029813A81FB01E21BF30B2B813C8111236F
:10188000E9F125FD1FC04D8132FD14C0442391F0C4
:1018900034603C832B837A8369838B819C818F7135
:1018A000992711E0892B09F410E0812FDF91CF9166
:1018B0001F9108954E171F0619F010F04111EDCF3A
:1018C0002262E7CF37FDE9CF26FD0AC04F81A0E1B4
:1018D0004A9FA0011124E417F507F8F22464D9CF38
:1018E00027FF0AC04885A0E14A9FA001112428686B
:1018F000E417F50770F6D1CF4F81F5CF25FF19C05A
:101900008D818E171F0609F060F426FD03C08881C3
:101910008F5F888337FD18822F7D206131603C8383
:101920002B838B819C8192FFB8CF9B7F9C838B8381
:10193000B4CF30FF0DC037FD03C020613C832B8343
:101940002B813C813E773C832B837A836983E9CF6B
:101950004881442379F0C901807C9927892B41F47F
:101960008E8140E1849FC0011124E817F907C8F275
:101970002160D5CF31FFD5CF2F733D7F3860E3CFC6
:101980000F931F93CF93DF93EC01162F642F0E94C8
:101990001D0C082F8C859D85009741F1298581FFBD
:1019A00021C020612987298582FF1EC028602987E0
:1019B00073E0969587957A95E1F79D878C878B8163
:1019C0009C8185FF91C090689C838B838B819C81D7
:1019D00093FD03C098609C838B838985806289878F
:1019E00081E007C02F7EDECF277FE1CF17FF07C042
:1019F00080E0802BDF91CF911F910F9108954A8550
:101A0000242F2295207F2595259525952595022E15
:101A1000000C330B812F012E000C990B281739076E
:101A200039F3220F331F220F331F282B392B220F9C
:101A3000331F81E696E1A4E9B9E404C0B595A79502
:101A4000979587952A95D2F7837045954595459545
:101A500045954150840F8295807F85958595859524
:101A60008595982F9295907F212F2F70922B9A8792
:101A7000907F09F4BDCF9985292F2370213049F13A
:101A800020F1223049F131E018160CF030E092FBE1
:101A9000222720F98A858F708A87321709F1906191
:101AA00099870E94580629813A81AB01421B530B4A
:101AB0009A014B8559857A836983852F42171306CE
:101AC00089F080F0886089877ACF133009F090CF51
:101AD000DACF1123C1F28CCF11501230A0F688CF8B
:101AE0009F7EDECF877FEFCF188270CFFC0183818E
:101AF000948191708436910591F1B0F48232910510
:101B000009F43FC040F48130910591F1409769F1AB
:101B100090E080E008958134910569F18035910568
:101B2000B9F780E890E00895883E9105D9F048F42F
:101B3000813C910519F1803D910551F780E092E0DB
:101B400008958035F1E09F0739F0803D21E092074C
:101B500019F080319140E1F688E090E0089582E04C
:101B600090E0089584E090E0089580E190E0089589
:101B700080E290E0089580E091E0089580E094E0B4
:101B8000089581E090E00895FC012381348120FDD7
:101B90001082C9018F719927892B19F0207E348317
:101BA000238308951F93CF93DF93EC01162F0E9498
:101BB000C40D612FCE01DF91CF911F910C941D0CAC
:101BC0008F929F92AF92BF92CF92DF92EF92FF924D
:101BD0000F931F93CF93DF937C01D62F0E94330680
:101BE0004B015C018091FE02811167C0CD2F81E025
:101BF0008093FE028093FD029FEF9093FC0210926F
:101C0000FB029D0F9093FA028093F9028091F902F2
:101C1000EE0CFF1C8E298093F9028091F80281302E
:101C200009F083C01092F8020E9433066B017C0118
:101C30008091F9028093BB00809100039091010391
:101C4000A0910203B0910303892B8A2B8B2BA1F067
:101C50000E9433068090000390900103A09002033D
:101C6000B09003036C197D098E099F0986169706AB
:101C7000A806B90608F442C08091BC0083FDD8CF05
:101C800085EC8093BC000E9433066B017C0180913F
:101C9000FE02813009F44BC08091FB028D1710F4D5
:101CA000C091FB02E8EDF2E0A6E0B3E080E08C1723
:101CB00051F191919D938F5FFACF809100039091A4
:101CC0000103A0910203B0910303892B8A2B8B2B74
:101CD00009F488CF0E94330600910003109101039C
:101CE0002091020330910303681979098A099B093D
:101CF000061717072807390708F074CF8091FF02ED
:101D00000E940E08C0E010920503C09304038C2FBC
:101D1000DF91CF911F910F91FF90EF90DF90CF90C7
:101D2000BF90AF909F908F90089585EEAACF80913D
:101D3000000390910103A0910203B0910303892B4A
:101D40008A2B8B2B09F4A3CF0E94330680900003CB
:101D500090900103A0900203B09003036C197D09D9
:101D60008E099F0986169706A806B90608F08FCF38
:101D7000C5CF5F926F927F928F929F92AF92BF92E8
:101D8000CF92DF92EF92FF920F931F93CF93DF9347
:101D90004C015B01EA01390181E08093B40288E6DD
:101DA0008093D6021092B5021092D70290E080E0A4
:101DB0000E949C090E942F0867E070E088E690E08E
:101DC0000E94E00D85E893E00E942609982F9295E5
:101DD00097702AE0522E8F70959D800D1124F4018A
:101DE000808385E893E00E942609982F92959F7042
:101DF0008F70959D800D1124F501808385E893E017
:101E00000E942609982F929593708F70959D800D52
:101E10001124888385E893E00E942609982F9295E3
:101E20009F708F70959D800D1124F301808385E84C
:101E300093E00E942609982F92959F708F70959D30
:101E4000800D1124F801808385E893E00E94260923
:101E5000982F92959F708F70959D800D1124F7019A
:101E6000808385E893E00E942609982F92959F70C1
:101E70008F70959D800D1124F6018083DF91CF91A5
:101E80001F910F91FF90EF90DF90CF90BF90AF9098
:101E90009F908F907F906F905F900895CF92DF9288
:101EA000EF92FF926B017C0181E08093B40280E5A8
:101EB0008093D6021092B5021092D702BB27AF2DA5
:101EC0009E2D8D2D0E949C09C60199270E949C0978
:101ED0000E942F0861E070E080E590E00E94E00D34
:101EE00085E893E00E942609FF90EF90DF90CF9065
:101EF00008950F931F93FC0104811581268137817A
:101F000040E052E16AE770E090E004171507260709
:101F1000370740F476956795579547959F5F9630BC
:101F2000A1F797E0292F206A2695909591708091CE
:101F30000602882361F08FB7F894309106023130A1
:101F4000A1F43DB3309305023DB33DBB8FBF2CBD23
:101F50009DBD808187FD0CC070E060E0082E000C04
:101F6000990B1F910F910C94B50980930502EFCF47
:101F70001F910F910895CF93DF93EC010E94790F89
:101F80008A8587FD05C060E0DF91CF910C94B70989
:101F900080E0DF91CF910C94DC09DF92EF92FF9209
:101FA0000F931F93CF93DF93EC017B01D42E211568
:101FB000310509F457C08B0101501109020F131F9D
:101FC000CE010E94BB0F8AE20E94DC0961E08A8593
:101FD0000E94B70980E00E94DC098F858E0D0E9467
:101FE000DC0980E00E94DC09EB85FC858081918121
:101FF0000817190710F00FEF080F8F85800F0E9448
:10200000DC0960E08A850E94B7098BE20E94DC0946
:1020100061E08A850E94B70980E00E94DC09898915
:102020008D0D0E94DC0980E00E94DC09EB85FC85B7
:10203000898981509281890F0E94DC0960E08A853C
:102040000E94B7098CE20E94DC098A8587FD11C0D5
:1020500061E0DF91CF911F910F91FF90EF90DF90A2
:102060000C94B709EB85FC850081118101501109A1
:10207000A7CFCE010E94C009CE010E94790F80E453
:10208000DF91CF911F910F91FF90EF90DF900C9413
:10209000DC09CF92DF92EF92FF9230E020E050E037
:1020A00040E070E060E080913605909137050E9435
:1020B000CD0F2091230530912405A0912505B091E5
:1020C00026050E9403336B017C0181E0C81AD10808
:1020D000E108F1088FEFC816D806E806F80639F0CF
:1020E00080E00E94DC0980E00E94DC09EECF809154
:1020F000360590913705FF90EF90DF90CF900C94CC
:10210000C0092F923F924F925F926F927F928F926F
:102110009F92AF92BF92CF92DF92EF92FF920F9376
:102120001F93CF93DF93CDB7DEB72B970FB6F894FD
:10213000DEBF0FBECDBF582E7B014A01182F612C88
:102140001F82712CA0913405B091350511968C91A8
:10215000119790E0880F991F209123053091240555
:10216000281B390B1217130609F030F4F401E70DA0
:10217000F11D8081811120C048E0E40EF11C8091A6
:10218000250590912605E816F90608F00CC1639420
:1021900015968C91159790E0880F991F681619066F
:1021A00009F07AC0F401E70DF11D8081882309F45C
:1021B000FAC0152D7F82612C609126037091270350
:1021C000F401E70DF11D808173946115710509F02B
:1021D00066C0682F70E0803C98F710922703109239
:1021E00026031C96ED91FC911D97AE014F5F5F4F4A
:1021F000CD010995862D90E0959587954A819C01A2
:10220000E3E0220F331FEA95E1F709814217130635
:1022100009F00CF4B9C0089F9001099F300D1124FA
:102220008C819D81820F931F9D838C83862D81706D
:102230008887198688859985880F991F880F991F27
:102240009B878A87412E0E839E81911132C0000F99
:10225000100F2B8130E0220F331F612F70E0A70198
:1022600080913605909137050E94CD0F08E0C0900F
:102270003205B0903305D12C8B8190E0880F991FE7
:10228000D81619060CF084C08B2D0E94DC098C2D09
:102290000E94DC09D394F0CF152D7F808DCFF6E01E
:1022A000660F771FFA95E1F7607C77708F73682B64
:1022B00094CFEC81FD81E491F0E00A8402C0F595B1
:1022C000E7950A94E2F730E020E0C12C2430310594
:1022D000C1F0CF01022E02C0959587950A94E2F7CE
:1022E00080FF0DC0C901880F991F43E001C0440F52
:1022F0008A95EAF7842FC82A2F5F3F4FE7CF80E007
:10230000FACF642D70E022E030E0A701809136051D
:10231000909137050E94CD0FB12CA12CD12CC60174
:102320000A2C02C0959587950A94E2F73090300503
:102330002090310580FD04C0309032052090330597
:10234000822D0E94DC09832D0E94DC09822D0E94CF
:10235000DC09832D0E94DC098FEFA81AB80A98E0E7
:10236000A916B104E1F680913605909137050E94D7
:10237000C009439443948C819D8101969D838C83F5
:102380004E8141504E8360CF8B81800F8B835FCF16
:10239000015009F06CCF180F8091360590913705E8
:1023A0000E94C009CFCE2B960FB6F894DEBF0FBEA9
:1023B000CDBFDF91CF911F910F91FF90EF90DF90F4
:1023C000CF90BF90AF909F908F907F906F905F90D5
:1023D0004F903F902F90089590E09C01235D384FDF
:1023E000825F984FF901613009F440C0623001F119
:1023F0004491FC015491E52FF0E0EE0FFF1FEE50E9
:10240000F94FA591B4915C91409545234C93F90106
:102410002491FC018491E82FF0E0EE0FFF1FE050C3
:10242000F94FA591B4918C91209528232C93089570
:102430004491FC015491E52FF0E0EE0FFF1FEE50A8
:10244000F94FA591B4915C91409545234C93F901C6
:102450002491FC018491E82FF0E0EE0FFF1FE05083
:10246000F94FA591B4918C91282BE0CF2491FC01D8
:102470008491E82FF0E0EE0FFF1FEE50F94FF1CFFF
:1024800090E0FC01E25FF84FE491F0E0EE0FFF1FF7
:10249000E553FA4FA591B4912C91835D984FFC01BF
:1024A0008491822391E009F490E0892F08951F938D
:1024B000CF93DF93EC01862F6E874F87288B60E0E8
:1024C0000E94EC1160E08F850E94EC1162E0888927
:1024D0000E94EC118B819C8190619C838B838E8503
:1024E0000E944012182F8F850E944012880F812B66
:1024F000982F9F708A85807F892B8A87DF91CF9163
:102500001F910895009711F481E090E00C94ED3351
:10251000CF93DF93EC0188819981009711F00E949D
:102520008934198218821D821C821B821A82DF91D3
:10253000CF910895FC0180819181009711F00C9456
:1025400089340895FF920F931F93CF93DF938C01EB
:10255000EB01F8800E946232F81621F06F2DC8015D
:102560000E946A32CE01DF91CF911F910F91FF90AF
:1025700008950C9462320E94CF35FC0180819181D4
:10258000009711F00C94C53060E070E0CB01089525
:10259000CF93DF93FC01248135814217530788F4E0
:1025A000C081D181062E000C770BCE01840F951FC0
:1025B0000E94DD35009729F08C1B9D0BDF91CF9198
:1025C00008958FEF9FEFFACFFC0124813581232BF3
:1025D00039F421E0FB018081882349F020E007C025
:1025E000808191810E94E83521E0892BB9F7822F03
:1025F00008950F931F93CF93DF938C01EB01FC01A0
:10260000808191810097E1F0688179816115710580
:10261000A9F0428153812C813D814217530770F00C
:102620000E94F1358C819D81F801958384831D8200
:102630001C82DF91CF911F910F9108950E948934E0
:1026400088819981F801918380838A819B8193831A
:1026500082838C819D8195838483198218821B8259
:102660001A82E5CF0F931F93CF93DF93EC018881FC
:102670009981009759F02A813B812617370730F05E
:1026800081E0DF91CF911F910F9108958B016F5FD2
:102690007F4F0E941235009759F0998388831B83DE
:1026A0000A832C813D81232B59F7FC011082E8CF4E
:1026B00080E0E7CFEF92FF920F931F93CF93DF93CA
:1026C0006115710541F480E0DF91CF911F910F9169
:1026D000FF90EF90089541155105B1F07B01EC0199
:1026E0000C811D81040F151FB8010E94321388232D
:1026F00051F3288139818C819D81B701820F931F0D
:102700000E94F1351D830C8381E0DECFEF92FF92B2
:102710000F931F93CF93DF9300D000D0CDB7DEB7D8
:102720007C01862F4AE08E010F5F1F4FB80190E0B9
:102730000E94EC30F80101900020E9F73197AF01D9
:10274000401B510BB801C7010E945A13811103C0ED
:10275000C7010E948812C7010F900F900F900F9031
:10276000DF91CF911F910F91FF90EF900895CF933C
:10277000DF93EC01FB0101900020E9F73197AF01F5
:10278000461B570B0E945A13811103C0CE010E94B1
:102790008812CE01DF91CF910895CF93DF93EC01A2
:1027A000FB0144815581608171810E945A1381111E
:1027B00003C0CE010E948812CE01DF91CF9108950F
:1027C000EF92FF920F931F93CF93DF93EC017B0166
:1027D0008A01BA010E94321381110BC0CE010E94FE
:1027E0008812CE01DF91CF911F910F91FF90EF9052
:1027F00008951D830C83B701888199810E94F1356A
:10280000F0CFFB0101900020E9F73197AF01461BA3
:10281000570B0C94E0130F931F93CF93DF93CDB717
:10282000DEB729970FB6F894DEBF0FBECDBF8C017F
:10283000862FF8011182108213821282158214826F
:102840004AE0BE016F5F7F4F90E00E943D31BE01C4
:102850006F5F7F4FC8010E94011429960FB6F8944C
:10286000DEBF0FBECDBFDF91CF911F910F910895B5
:10287000CF93DF93EC01FB018617970749F0608146
:1028800071816115710541F0448155810E94E01309
:10289000CE01DF91CF9108950E948812F9CFFC01FB
:1028A0001182108213821282158214820C943814C1
:1028B000FC01118210821382128215821482FB01A4
:1028C00001900020E9F73197AF01461B570B0C949C
:1028D000E013AF92BF92CF92DF92EF92FF920F93ED
:1028E0001F93CF93DF936C015B017A018901241759
:1028F000350720F48F2D7901042F182F6DE771E033
:10290000C6010E945814D5011496CD91DC91EC16A5
:10291000FD06E0F40C171D0708F4E801D501ED9160
:10292000FC911197EC0FFD1F108110826D917C912D
:102930006E0D7F1DC60161157105A1F00E94011485
:10294000F50180819181C80FD91F1883C601DF91DD
:10295000CF911F910F91FF90EF90DF90CF90BF909C
:10296000AF9008950E948812EBCF85ED8093BC0054
:102970008091000390910103A0910203B0910303A1
:102980000796A11DB11D23E0B695A795979587954C
:102990002A95D1F72091BC0024FD03C01092FE02BD
:1029A00008954091000350910103609102037091DA
:1029B0000303452B462B472B69F30097A105B1056F
:1029C00041F02AE22A95F1F700C00197A109B10967
:1029D000E1CF8091FF020C940E084F925F926F92AC
:1029E0007F928F929F92AF92BF92CF92DF92EF929F
:1029F000FF920F931F93CF93DF9300D000D000D0AE
:102A0000CDB7DEB789830E9458060091E701109187
:102A1000E8012091E9013091EA01601B710B820B02
:102A2000930B663471058105910508F4F5C0E091BA
:102A3000AF02F0E0EA57FD4FE491E09303050E94F6
:102A400058066093E7017093E8018093E901909341
:102A5000EA012981253108F0DFC0E22FF0E0ED5CCA
:102A6000FA4E0C94D333481572157E15BA15DD1540
:102A7000E915F5150C160C160C160C160C160C1682
:102A80000C160C160C160C160C160C160C16011641
:102A90008091E60189830E94EA0BE7EDF3E0619300
:102AA0007193819395E0E330F907C9F7E981ED5F10
:102AB000E093E60126960FB6F894DEBF0FBECDBFB9
:102AC000DF91CF911F910F91FF90EF90DF90CF900A
:102AD000BF90AF909F908F907F906F905F904F903E
:102AE0000C94D203E3EDF3E08FEF84838583868338
:102AF000339624E0EF3FF207C1F7DCCF87ED93E098
:102B00009E838D83C12CD12C7601CA940E946D3096
:102B10002B013C010E946D304B015C010E946D3025
:102B200069837A838B839C83C301B201A7019601D9
:102B30000E947832062FC501B401A70196010E94B8
:102B40007832162F69817A818B819C81A701960149
:102B50000E947832862F402F612F0E94D90BED8181
:102B6000FE81619371938193FE83ED83E350F54081
:102B700069F6A0CF87EDE82E83E0F82E10E000E0A4
:102B80008091E60189836091AC0270E0C8010E94E7
:102B9000BF338981860F0E94EA0BF701619371931D
:102BA00081937F0101501F4F0C39F3E61F0741F756
:102BB00029812D5F2093E6017DCFE3EDF3E08FEFD8
:102BC000848315821682339694E0EF3FF907C1F7AC
:102BD00071CFE3EDF3E080E81482858316823396AB
:102BE00024E0EF3FF207C1F765CFE3EDF3E08FEFAD
:102BF000148215828683339694E0EF3FF907C1F77C
:102C000059CFE3EDF3E0148215821682339624E067
:102C1000EF3FF207C1F74ECF26960FB6F894DEBF0E
:102C20000FBECDBFDF91CF911F910F91FF90EF901D
:102C3000DF90CF90BF90AF909F908F907F906F90DC
:102C40005F904F9008958F929F92AF92BF92CF92D4
:102C5000DF92EF92FF926B017C010E9433064B01E1
:102C60005C01C114D104E104F10439F18091B10295
:102C7000882341F08091AB02882321F08091B0023B
:102C80000E94ED140E943306681979098A099B098C
:102C9000683E73408105910520F321E0C21AD108F6
:102CA000E108F10888EE880E83E0981EA11CB11C93
:102CB000C114D104E104F10429F7FF90EF90DF90F3
:102CC000CF90BF90AF909F908F9008957F928F92FA
:102CD0009F92AF92BF92CF92DF92EF92FF920F93AB
:102CE0001F93CF93DF93C82E8B017A018091B3029B
:102CF000811110C08FEF9FEFDF91CF911F910F9146
:102D0000FF90EF90DF90CF90BF90AF909F908F900B
:102D10007F90089580915E0280FF05C08091E00061
:102D200082608093E000CE2DDF2DD12C8AEFB82E6B
:102D30008C2D8770982E8C2D8072882E8C2D80740F
:102D4000782E9AE3A92E209719F4DD2009F452C0B9
:102D50008C2D0E94BD0681110AC0BA94BB2051F28D
:102D600061E070E080E090E00E942316ECCF8C17C9
:102D70001D0611F00CF08C2F9FB7F8949092E9008B
:102D80002091E80025FD02C09FBFDDCF282F30E055
:102D9000C21BD30B882029F08150A0F01092F100C3
:102DA000FBCFF801C7FC0AC0815050F0419140931D
:102DB000F100FACF44914093F10031968150D0F761
:102DC000020F131FDD2021F0A092E800D12CDCCFF0
:102DD0008091E80085FD07C0A092E800DD24D3942F
:102DE000209791F2F3CF209779F6772069F2A0929D
:102DF000E800CACF5D9A84E680935D02C7017CCF6C
:102E0000CF93DF93EC0180911201882331F083E0AE
:102E10000E9466161816190634F081E090E09B8334
:102E20008A8380E090E0DF91CF910895CF93DF9384
:102E3000FC01448155816081718188E293E00E94A8
:102E40000017EC0142E050E06BE771E088E293E0AC
:102E50000E9400178C0F9D1FDF91CF910895EF9274
:102E6000FF920F931F93CF93DF93CDB7DEB7629797
:102E70000FB6F894DEBF0FBECDBFE82E6DE771E050
:102E8000CE010D960E9458140DEE13E0C8010E9469
:102E9000B912F82E682FCE0107960E940B14BE01BE
:102EA000635F7F4FCE0101960E944F14BE01695FA0
:102EB0007F4FCE0101960E94CD13BC01CE010D962D
:102EC0000E943814CE0101960E949A12CE010796F4
:102ED0000E949A12083F83E01807D4F4BE01635F92
:102EE0007F4FCE0101960E944F146EE771E0CE0134
:102EF00001960E94B713BC01CE010D960E943814B2
:102F0000CE0101960E949A12F801E754F140F08236
:102F10000F5F1F4F011584E0180709F0B7CF81E05C
:102F2000E81204C0CE010D960E941617CE010D9630
:102F30000E949A1262960FB6F894DEBF0FBECDBF04
:102F4000DF91CF911F910F91FF90EF900895AF9275
:102F5000BF92CF92DF92EF92FF920F931F93CF9386
:102F6000DF931F92CDB7DEB77C0169836A015901F7
:102F700041E050E0BE016F5F7F4FFC0183810E9402
:102F800066168C0197FD0BC0F7018381A501B60180
:102F900080640E946616080F191F97FD8C01C801F6
:102FA0000F90DF91CF911F910F91FF90EF90DF90E5
:102FB000CF90BF90AF900895CF93DF93EC010E9424
:102FC000380B28E030E0AE0162E0DF91CF910C9445
:102FD000A717EEEBF3E01682178210861186128691
:102FE0001386148282EC93E00C94DC17DC016838C1
:102FF000A0F06858FD0186E0662321F096819613C3
:1030000001C01682815031968111F6CFCD01049610
:103010000E94DC1781E090E00895862F90E067FF22
:1030200013C0FC01E058F10981E090E001C0880F75
:10303000EA95EAF7809514969C9114978923149643
:103040008C93149760E0D6CF1C96ED91FC911D9760
:10305000E80FF91F64916623E1F0862F807C803CA5
:1030600069F414968C9114978F7B14968C93149713
:103070006F73623309F0BECF64E6BCCF67FFF9CF50
:1030800014968C9114978D7F14968C9314976F7768
:10309000F0CF90E080E00895DC01683888F168584E
:1030A00016968C911697861721F117968C91179783
:1030B0008617F9F018968C9118978617D1F0199603
:1030C0008C9119978617A9F01A968C911A978617E2
:1030D00081F01B968C911B97861759F0FD0136964F
:1030E00090E080E0219121114FC08A0F9B1FFC01CD
:1030F0006683CD0104960E94DC1781E090E008957C
:10310000862F90E067FF12C0FC01E058F10921E032
:1031100030E001C0220FEA95EAF714968C911497DB
:10312000822B14968C93149760E0BACF1C96ED9185
:10313000FC911D97E80FF91F6491611109C081E0AE
:1031400090E013969C938E93129790E080E0089500
:10315000862F807C803C69F414968C91149780644F
:1031600014968C9314976F73623309F099CF64E6C9
:1031700097CF67FFF9CF14968C91149782601496BD
:103180008C9314976F77F0CF01968630910509F0F4
:10319000A9CFD5CFEF92FF921F93CF93DF93EC018E
:1031A000162F0E944C187C01612FCE010E94F61749
:1031B000C7019927DF91CF911F91FF90EF9008955C
:1031C0009091AE0398138093AE030E94380B23E0D6
:1031D00030E04DEA53E061E00E94A71781E090E003
:1031E0000895EDEAF3E01082118212820E94380BFA
:1031F00023E030E04DEA53E061E00C94A717BF9262
:10320000CF92DF92EF92FF920F931F93CF93DF93B2
:10321000EC01888D87FD03C061E00E94F705898D70
:1032200087FD03C061E00E94F7051FB7F894809105
:103230000702811127C0EFE1F7E08491EEE3F7E0A8
:103240009491E82FF0E0EE0FFF1FEE50F94FA5919B
:10325000B491EC91E92321F461E081E10E94C90578
:1032600061E081E10E94F7058CB580618CBD8CB571
:1032700080648CBD61E08FE00E94F70561E080E131
:103280000E94F705809107028F5F809307021FBF9E
:103290000F8907FD28C061E0802F0E94F705002EEE
:1032A000000C110B61E070E0C8010E94B5096AE0F2
:1032B00070E080E090E00E94231670E060E0C801BA
:1032C0000E94B5096AE070E080E090E00E94231659
:1032D00061E070E0C8010E94B50964E170E080E03F
:1032E00090E00E94231680E890E09B838A8380EA26
:1032F00090E09D838C8368E770E080E090E00E941E
:1033000023160D88DE89C02DCE010E94BB0F0CEA6A
:1033100011E084E1E82E82E0F82EBB24BA94CC249C
:10332000C394F801D490CC2089F1FFEFCF1217C0DD
:10333000CE010E94C0098FEFD81661F06D2D70E0AC
:1033400090E080E00E942316CE010E94BB0FCC24A7
:10335000C3940BC064EF71E080E090E0F3CF8D2D5B
:103360000E94DC09BB24BA94C12C0F5F1F4FE016EA
:10337000F106B9F6CE01DF91CF911F910F91FF9029
:10338000EF90DF90CF90BF900C94C009EFEFBE128A
:103390000AC0D7FC13C0DD20D1F261E08A850E940B
:1033A000B709BD2CE2CFBA948D2D0E94DC09B11073
:1033B000DCCF60E08A850E94B709C9CFCD2CD5CF7C
:1033C0002F923F924F925F926F927F928F929F9235
:1033D000AF92BF92CF92DF92EF92FF920F931F9323
:1033E000CF93DF9300D01F92CDB7DEB789837B8365
:1033F0006A834A01B22E202EA12C00E082E3482EDF
:10340000512C612C712C2A813B818216930628F164
:1034100069013FEFC31AD30A89818823D9F12A8130
:103420003B81B90190E080E00E944E0F182FB60159
:1034300090E080E00E944E0F382E8FEF810F011137
:1034400033C08E3F88F18A819B8101979B838A8359
:10345000BC0190E080E00E944E0F222009F472C06F
:10346000612F8EEB93E00F900F900F90DF91CF9133
:103470001F910F91FF90EF90DF90CF90BF90AF9092
:103480009F908F907F906F905F904F903F902F9084
:103490000C94F617EA81FB81EE0DFF1D1081F701F8
:1034A000EC0DFD1D3080C9CF853008F445C0612F7B
:1034B0008EEB93E0B1103DC00E944C1891E039169C
:1034C000A9F0002349F00E94E91700E08A819B815E
:1034D00001969B838A8397CF8FEF830D8E3F20F5D4
:1034E000612F8EEB93E00E94F617A12E8EEF810FD5
:1034F000823060F7B11015C060E0133031F40E94E3
:103500006D30A30192010E94783270E02AE0329E71
:10351000600D711D1124072E000C880B990B0E9461
:103520002316DB82CA82D2CFAA2001F3612F8EEB51
:1035300093E00E94F617DACF1130C1F6B110D6CF62
:1035400001E0C4CF0F900F900F90DF91CF911F91AA
:103550000F91FF90EF90DF90CF90BF90AF909F9032
:103560008F907F906F905F904F903F902F90089535
:10357000DF92EF92FF920F931F93CF93DF9380918F
:10358000AE028F5F853008F048C08093AE026EEACD
:1035900072E085EF93E00E94A2128091AB02882333
:1035A00009F44DC04FEF6FEF8FEF0E94D90BC7EDBD
:1035B000D3E0FE0161937193819394E0E235F907C2
:1035C000C9F71092B102DD24D39485E8E82E83E098
:1035D000F82E06E812E08091AE0290E00196D8162F
:1035E000190609F0ECF4F7018491809303050E9419
:1035F000D2036AEF70E080E090E00E942316F801A9
:103600008491809303050E94D2036AEF70E080E00A
:1036100090E00E942316D394DECF1092AE02B7CF73
:1036200040E060E080E00E94D90B69937993899330
:10363000F4E0C235DF07C9F781E08093B102DF9182
:10364000CF911F910F91FF90EF90DF900895CF924F
:10365000DF92EF92FF92CF93DF936B017C01D42F27
:10366000C1E0C093B40280E58093D6021092B50207
:103670001092D702BB27AF2D9E2D8D2D0E949C0945
:10368000C60199270E949C0961E070E080E590E006
:103690000E94E00D85E893E00E9426096D2F85E8E1
:1036A00093E00E946D091092B10265E070E080E045
:1036B00090E00E942316C093B102DF91CF91FF905A
:1036C000EF90DF90CF900C942F088F929F92AF9243
:1036D000BF92CF92DF92EF92FF920F931F93CF93FF
:1036E000DF9300D000D000D0CDB7DEB74C01862FDD
:1036F00090E00E9482125C018C01F12CE12C8091FF
:10370000AB02882321F08091B0020E94ED14A70142
:1037100060E4C4010E94C8126C018FEFC816D8067D
:10372000B9F09601A701B401CE0101960E94691477
:10373000CE0101960E94BD12F80161938F017601BE
:10374000FFEFEF1AFF0ACE0101960E949A12D7CF1F
:10375000C50126960FB6F894DEBF0FBECDBFDF9130
:10376000CF911F910F91FF90EF90DF90CF90BF907E
:10377000AF909F908F900895EF92FF920F931F93B9
:10378000CF93DF93CDB7DEB7A8970FB6F894DEBF1F
:103790000FBECDBF8C016DE771E00E945814F09010
:1037A0006C0261E08F2D0E94C905E0906F0260E01D
:1037B0008E2D0E94C90561E08E2D0E94C90560E032
:1037C0008F2D0E94C905F12C8091700228E0829F04
:1037D000C0011124F816190694F580916D020E941B
:1037E000A0051CA21BA21EA21DA218A61FA2BC01FE
:1037F000990F880B990B2AE0AE014F5F5F4F0E9433
:10380000F730BE016F5F7F4FCE0183960E94011497
:103810004FA158A56BA17CA1C8010E945A13CE01EB
:1038200083960E949A12E0906E0261E08E2D0E94B3
:10383000C90560E08E2D0E94C905F394C5CFF8013B
:10384000248135812817390798F460E871E0CE01AA
:1038500001960E945814B801CE0101960E94CD1322
:10386000BC01C8010E943814CE0101960E949A1230
:10387000C801A8960FB6F894DEBF0FBECDBFDF918A
:10388000CF911F910F91FF90EF9008954F925F920B
:103890006F927F928F929F92AF92BF92CF92DF9260
:1038A000EF92FF920F931F93CF93DF93CDB7DEB7C5
:1038B00068970FB6F894DEBF0FBECDBFE82E0E940A
:1038C00058062B013C014FEF6FEF8FEF0E94D90B91
:1038D000AB01682F2091AC0230E0E7EDF3E090E01F
:1038E00080E0821793072CF44193519361930196E2
:1038F000F8CF40E060E080E00E94D90B9B01482FA8
:10390000E091AC028E2F90E053E0E59FF00111248E
:10391000E952FC4F853691052CF421933193419364
:103920000196F8CFE091AF02F0E0EA57FD4FE49145
:10393000E09303050E94D203CE2CD12C89E0E89EAF
:1039400050011124FF24F39489E0882E9924939444
:103950000E9458066419750986099709683B7B40DF
:103960008105910508F460C06FEA72E086EF93E08C
:103970000E94A2126091AE02CE0143960E940B14E7
:103980006091AF02CE010D960E940B146091B002BF
:10399000CE0107960E940B1462E871E0CE010196F9
:1039A0000E945814BE01695F7F4FCE0101960E94AC
:1039B000CD1362E871E00E94B713BE01635F7F4FD1
:1039C0000E94CD1362E871E00E94B713BE016D5EE4
:1039D0007F4F0E94CD130E941617CE0101960E94C0
:1039E0009A12CE0107960E949A12CE010D960E945D
:1039F0009A12CE0143960E949A1268960FB6F894D6
:103A0000DEBF0FBECDBFDF91CF911F910F91FF9011
:103A1000EF90DF90CF90BF90AF909F908F907F906E
:103A20006F905F904F9008958091A902882379F05C
:103A3000CE0101960E94BC1BBE016F5F7F4F8BE1E0
:103A400095E00E94F912CE0101960E949A1280918F
:103A50007402E81648F500916A0210916B020A0D93
:103A60001B1DE0917102F0917202EC0DFD1DE081D1
:103A70008E2F90E020911F0530912005821793072B
:103A800030F4E0911B05F0911C05309751F4109231
:103A9000EB01EBEEF1E061E08081803301F160E069
:103AA0001EC0E80FF91FF7CF9601281B3109C90185
:103AB000889E9001899E300D11240091660210911C
:103AC0006702020F131FE0916802F0916902E80F8C
:103AD000F91F80810E94A00561E0892B01F7C801D0
:103AE0000E94D20DC8010E94760D843029F08830E2
:103AF00009F02ECFF9242CCF0E9458062B013C014F
:103B00008091AF02FF2081F08B3F18F48B5F809390
:103B1000AF02E091AF02F0E0EA57FD4FE491E0938D
:103B200003050E94D20314CF853098F38550EFCF60
:103B30009F92AF92BF92CF92DF92EF92FF920F933C
:103B40001F93CF93DF93CDB7DEB768970FB6F89486
:103B5000DEBF0FBECDBFB82E062F142F922E309190
:103B6000AE022091AC0290E0329F800D911D112495
:103B700025E6289F6001299FD00C1124623009F4AA
:103B8000A6C0B0F4662311F1613099F168960FB6C2
:103B9000F894DEBF0FBECDBFDF91CF911F910F9183
:103BA000FF90EF90DF90CF90BF90AF909F900895DF
:103BB000633009F49AC0643049F74111B2C056012C
:103BC00081E3A80EB11CC601499697C0560183E651
:103BD000A80EB11CA114B104C9F281E090E00E94CA
:103BE000ED337C01292DA501B60181E00E94E01989
:103BF000CDCF433011F40E94B81A8091AB028823D4
:103C000009F461C0111154C08091B0028F5F8730F8
:103C100018F48093B00202C01092B00260EB72E020
:103C200087EF93E00E94A2126091AE02CE0143960C
:103C30000E940B146091AF02CE010D960E940B14EE
:103C40006091B002CE0107960E940B1462E871E009
:103C5000CE0101960E945814BE01695F7F4FCE01CC
:103C600001960E94CD1362E871E00E94B713BE0175
:103C7000635F7F4F0E94CD1362E871E00E94B7132B
:103C8000BE016D5E7F4F0E94CD130E941617CE01BC
:103C900001960E949A12CE0107960E949A12CE01B6
:103CA0000D960E949A12CE0143960E949A126ECFF0
:103CB000113011F484E1ADCF123009F0B5CF8B2D66
:103CC0000E94461C63CF123009F460CFADCF56017D
:103CD00093E6A90EB11C442351F1560191E3A90EBC
:103CE000B11C413009F052CF75CF411108C05601C7
:103CF00081E4A80EB11CC60181966C016BCF4230E5
:103D000041F4560192E6A90EB11CC6018E5B9F4F8D
:103D1000F4CF560190E2A90EB11C413009F036CF24
:103D200059CF423039F456019AE4A90EB11CC601AC
:103D3000C296E3CF433041F4560193E6A90EB11C7D
:103D4000C601855B9F4FD9CF413009F01FCF560187
:103D500098E1A90EB11C3ECF8F929F92AF92BF9275
:103D6000CF92DF92EF92FF920F931F93CF93DF9347
:103D7000CDB7DEB768970FB6F894DEBF0FBECDBFE4
:103D80000E945806009175021091760220917702E8
:103D900030917802601B710B820B930B68397A4368
:103DA0008105910580F080917902882361F00E945D
:103DB0005806609375027093760280937702909311
:103DC0007802109279028091A902882379F0CE01BD
:103DD00001960E94BC1BBE016F5F7F4F8BE195E097
:103DE0000E94F912CE0101960E949A128091AD02B2
:103DF0008F3F09F4B3C00091640210916502F8018D
:103E00008089918597FF77C00E944012F82EC801E3
:103E10000E94C40DF801818585FF02C08F7D8187D6
:103E20004F2D6FEFC8010E94C00C882309F496C083
:103E3000E0906402F0906502F701818585FD75C010
:103E4000C7010E94760D8032910509F410C18034BB
:103E5000910509F46AC0029709F080C08091AD0213
:103E60008F5F833008F000C18093AD026DEA72E08D
:103E700084EF93E00E94A2128091AB02882309F4A0
:103E80006DC040E060E080E00E94D90B9B01482FAC
:103E900007ED13E082E594E0F8012193319341931B
:103EA0008E179F07D1F74FEF6FEF8FEF0E94D90B5F
:103EB0006B01E82E2091AD0230E090E080E0F80147
:103EC000C192D192E1928F01019628173907BCF770
:103ED000E5E8F3E0E491E09303050E94D203109239
:103EE000B10268EE73E080E090E00E94231681E06A
:103EF0008093B10233C00E944012E82EF8018685FB
:103F00000E944012F82EF80187850E944012880F07
:103F1000F82AC8010E94C40DF801918595FF02C0DE
:103F20009F7D91874E2D6F2D7DCF1091AD02111188
:103F300050C0C7010E94100C882319F080E10E9434
:103F4000E01880916402909165020E94020C88231F
:103F500019F080E20E94E0180E94F11810E089E058
:103F6000D82E95E6C92E8091AC02181708F0D2C160
:103F700080917402A12EB12C181708F08DC080908A
:103F80006A0290906B021D9D800C911C1124E0919F
:103F90007102F0917202EA0DFB1DE0818E2F90E01C
:103FA00020911F05309120058217930738F4E09186
:103FB0001B05F0911C05309709F06BC01092EB01C6
:103FC000EBEEF1E061E08081803309F481C060E0D4
:103FD0007FC0113061F50E9458066093940270937F
:103FE0009502809396029093970210939302C701D3
:103FF0000E94020C1091AF02882381F0153018F056
:1040000015501093AF02E091AF02F0E0EA57FD4F78
:10401000E491E09303050E94D203A0CFC7010E9460
:10402000100C882381F31B3F70F71B5FEACF12301F
:1040300009F094CFC7010E94100C882329F069ED84
:104040008EEB93E00E944C1880916402909165027F
:104050000E94020C882329F06AED8EEB93E00E9407
:104060004C180E94E9177ACF1092AD02FFCE8091D2
:10407000AD02811173CFF7018081813009F46ACFDD
:10408000823011F488E066CF833009F065CF84E098
:1040900061CFE80FF91F96CF9501281B3109C9019F
:1040A000D89E9001D99E300D112480906602909088
:1040B0006702820E931EE0916802F0916902E80F98
:1040C000F91F80810E94A00561E0892B09F07FCF54
:1040D000C4010E94D20DC4010E94760DF82EF40195
:1040E000E0809091AE028091AC02989FA00CB11C30
:1040F0001124CA9CB001CB9C700D11246C597F4FC8
:10410000072E000C880B990B0E944E0F082F6DE7AD
:1041100071E0CE0143960E94581480917902F4E038
:10412000FF1609F45EC0FF15F0F021E0F21609F465
:104130009FC032E0F31609F4B6C08091790288235B
:1041400061F06DE771E0CE0143960E94E4128111A7
:1041500004C0CE0143960E941617CE0143960E94DA
:104160009A121F5F00CF98E0F91609F461C0E0E2EF
:10417000FE12E3CF882309F4B9C06E2DCE010D964F
:104180000E940B14612FCE0107960E940B1464E865
:1041900071E0CE0101960E945814BE01695F7F4F05
:1041A000CE0101960E94CD1362E971E00E94B7131F
:1041B00064E871E00E94B713BE01635F7F4F0E9405
:1041C000CD13BC01CE0143960E943814CE01019656
:1041D0000E949A12CE0107960E949A12CE010D9665
:1041E00024C0882309F45BC0612FCE0107960E948A
:1041F0000B1464E871E0CE0101960E945814BE01D0
:10420000695F7F4FCE0101960E94CD1366E871E091
:104210000E94B713BC01CE0143960E943814CE0110
:1042200001960E949A12CE0107960E949A1285CF9B
:104230008823A9F0612FCE0107960E940B1464E831
:1042400071E0CE0101960E945814BE01695F7F4F54
:10425000CE0101960E94CD1369E871E0D9CF01111A
:104260006CCF21E040E060E0812F0E94981D65CF77
:104270008823A9F0612FCE0107960E940B1464E8F1
:1042800071E0CE0101960E945814BE01695F7F4F14
:10429000CE0101960E94CD136CE871E0B9CF20E009
:1042A00001114BCFDFCF8823A9F0612FCE010796F4
:1042B0000E940B1464E871E0CE0101960E9458142C
:1042C000BE01695F7F4FCE0101960E94CD136FE85A
:1042D00071E09ECF20E041E0002309F42ECF602F53
:1042E000812F0E94981D0E94E91727CF002309F40F
:1042F00024CFF1E020E040E0EF1689F322E0E21263
:1043000003C020E042E0EBCF33E0E312ECCF20E04B
:1043100043E0E5CF68960FB6F894DEBF0FBECDBF81
:10432000DF91CF911F910F91FF90EF90DF90CF9091
:10433000BF90AF909F908F9008951F920F920FB6ED
:104340000F9211242F933F938F939F93AF93BF931B
:1043500080919E0290919F02A091A002B091A10233
:1043600030919D0223E0230F2D3758F50196A11DB2
:10437000B11D20939D0280939E0290939F02A09373
:10438000A002B093A1028091A2029091A302A091F9
:10439000A402B091A5020196A11DB11D8093A202B5
:1043A0009093A302A093A402B093A502BF91AF91F2
:1043B0009F918F913F912F910F900FBE0F901F9063
:1043C000189526E8230F0296A11DB11DD2CF1F928A
:1043D0000F920FB60F9211242F933F934F935F9339
:1043E0006F937F938F939F93AF93BF93CF93EF93ED
:1043F000FF93C091E1008091E100837F8093E10011
:10440000C3FF0FC01092E90081E08093EB0010928F
:10441000EC0082E38093ED001092B30288E0809379
:10442000F000C2FF1AC00E941F0580915D02882320
:1044300041F080915D02815080935D02811101C045
:104440005D988091B202882341F08091B202815040
:104450008093B202811101C02898C4FF23C08091CB
:10446000E2008E7E81608093E2008091E1008F7E89
:104470008093E10080915E028E7E806180935E0277
:10448000FF91EF91CF91BF91AF919F918F917F91CC
:104490006F915F914F913F912F910F900FBE0F90B1
:1044A0001F901895C0FFECCF8091E2008E7E806156
:1044B0008093E2008091E1008E7E8093E100809104
:1044C0005E028E7E8160DACF1F920F920FB60F923E
:1044D0001124CF92DF92EF92FF920F931F932F93AD
:1044E0003F934F935F936F937F938F939F93AF937C
:1044F000BF93EF93FF93CF93DF93CDB7DEB76C9766
:10450000DEBFCDBF1092E9008091E80083FF25C097
:1045100068E0CE0145960E94CE0682EF8093E800C7
:104520008D8987FF39C09091E80090FFFCCF982FCC
:10453000907609F034C19E894F89588D2F89F88C67
:10454000911131C0803861F580915F028093F10054
:104550001092F1008EEF8093E8006C960FB6F894FD
:10456000DEBF0FBECDBFDF91CF91FF91EF91BF9125
:10457000AF919F918F917F916F915F914F913F91FB
:104580002F911F910F91FF90EF90DF90CF900F90A0
:104590000FBE0F901F9018959EEF9093E800C7CF25
:1045A0001092F100D5CF913059F48111D3CF413021
:1045B000510581F680915F028D7F80935F02CACFA3
:1045C000933049F48111C6CF4130510519F68091DD
:1045D0005F028260F2CF953041F48091E80080FF65
:1045E000FCCF20682093E300B5CF963009F0A9C036
:1045F0000B8D1C8D22E01092E90010925B0210924C
:104600005A02F2122EC010925902109258020E94C1
:10461000EF061F8299E09983FA8291E09E8390EAE7
:1046200098879AEF998720915A0230915B02275F11
:104630003F4F3C832B838D831092E90010925B02E5
:1046400010925A02109359020093580249E050E028
:10465000BE016F5F7F4F80E00E9497060E94EF06C9
:1046600079CF10935902009358020E94DB06DC01B7
:1046700012960D911C910115110509F451C1D80133
:10468000ED91FC910480F581E02DBE016B5E7F4FC2
:10469000C8010995009709F03EC1F8010085118510
:1046A000EACFF3E0FF120EC08F89882309F440C0DF
:1046B000823061F440E86DE088E792E00E94B52521
:1046C000811148CF81E28093EB0047CF813029F4FC
:1046D00040E86BE08CE692E0F1CF833099F70E94DE
:1046E000DB06DC011296ED90FC908E010F5F1F4FF0
:1046F0006801E114F10479F0D701ED91FC91068095
:10470000F781E02DB801C7010995080F111DF701C8
:10471000E084F184EECFD8011C92F60101900020D4
:10472000E9F73197BF016C197D0940E0C601C6CF9A
:1047300066E572E0FB01449150E080E80E94970634
:1047400009CF973009F4BECF983021F481E08093EF
:10475000F10000CF993009F0FDCE837009F0B2CF9F
:10476000E1E0F1E081E031E096E32191222371F074
:104770008093E9003093EB00DF0111972C91209397
:10478000EC009093ED008F5F873079F78EE7809390
:10479000EA001092EA008F898093B302DBCE8B8D02
:1047A0009C8D1092E90010925B0210925A02909335
:1047B000590280935802898D811192C08E899D89FA
:1047C000913A49F4813209F07DCF47E050E06BE047
:1047D00071E080E0B3CF913209F074CF833269F495
:1047E0008F89988DB0E0A0E0809307019093080135
:1047F000A0930901B0930A01ADCE803269F4809193
:10480000E80082FFFCCF67E08BE091E00E94CE06DB
:104810008BEF8093E8009ECE823209F09BCE8F8989
:1048200080931201EEEFFFE7859194918B3F9C4DB1
:1048300051F1E0E0F8E080910B0190910C01A09122
:104840000D01B0910E01803B9440A105B105F1F43A
:104850008091120180FD1AC0EE3F8AE0F80789F5C9
:1048600087E797E7918380838091600080935C0263
:1048700088E19BE00FB6F894A895809360000FBE86
:104880009093600067CEEEEFFAE0D5CF8081918102
:104890008737974709F05ECEA895809160008861C0
:1048A0008093600080915C0280936000EE3F2AE07C
:1048B000F20789F08091FE0A9091FF0A918380832C
:1048C00049CE808191818737980751F29093FF0AF2
:1048D0008093FE0AC5CF1092FF0A1092FE0A3ACECC
:1048E0000E94DB06DC0112960D911C910115110549
:1048F00009F4E8CED801ED91FC910190F081E02D12
:10490000BE016B5E7F4FC8010995811123CEF8016E
:1049100000851185EBCF181619060CF41BCED2CEEC
:10492000F1E0FF12BECE6AE572E004CF1F920F9253
:104930000FB60F9211242F933F934F935F936F9372
:104940007F938F939F93AF93BF93EF93FF93809148
:10495000B900887F803609F44AC0F0F5883209F43E
:10496000A7C018F5803109F49BC0B8F4882309F476
:10497000F9C0883009F494C0FF91EF91BF91AF91D5
:104980009F918F917F916F915F914F913F912F9167
:104990000F900FBE0F901F901895883109F488C0B2
:1049A000803251F78093FC0214C0803409F49DC01A
:1049B00040F48033B9F38833F9F68093FC0285EC38
:1049C000B0C0803509F485C0883509F496C08834B4
:1049D00099F60E94B514D0CF883909F48CC038F507
:1049E000883729F050F4883611F0803729F683E0B3
:1049F0008093FE0210924B0257C0883809F47BC0A6
:104A0000803919F0803809F0B7CF80914B0280329D
:104A100008F071C0E0914B0281E08E0F80934B0251
:104A20008091BB00F0E0E55DFD4F80833DC0803BA1
:104A300039F0E0F4803A09F479C0883A09F09CCF63
:104A400084E08093FE0210922A0210922902E091E3
:104A50006202F091630209958091290281110FC0D1
:104A600081E0809329021092090209C0803C09F478
:104A7000A6CF883C09F4A3CF883B09F07DCFE09115
:104A80002A0281E08E0F80932A02F0E0E75FFD4F5B
:104A900080818093BB0090912A028091290229C0D5
:104AA0008091F9028093BB0085EC8093BC0064CFB9
:104AB0009091FB028091FA02981758F5E091FB0261
:104AC00081E08E0F8093FB02F0E0E852FD4F808181
:104AD000E9CFE091FB0281E08E0F8093FB02809191
:104AE000BB00F0E0E852FD4F80839091FB02809183
:104AF000FA029817C8F285E8D8CFE091FB0281E06E
:104B00008E0F8093FB028091BB00F0E0E852FD4FD6
:104B100080838091FD0281115CCF81E08093F80257
:104B200084EA8093BC001092FE0226CF85EC80932D
:104B3000BC001092FE0280914B02803230F4E09172
:104B40004B02F0E0E55DFD4F108260914B0270E09A
:104B5000E0916002F09161028BE292E0099510927F
:104B60004B020ACF1092FC0234CFEF92FF920F93C8
:104B70001F93CF93DF93F82E192FE62E042F81E099
:104B8000860F880F0E94690683E00E946906CF2D78
:104B9000D12FEC0EFD2EF11CCE15DF05B9F007FF6D
:104BA00013C0FE0184910E946906182F80E00E94C4
:104BB0006906812321968111EFCFDF91CF911F915B
:104BC0000F91FF90EF9008958881EDCF81E0F5CFB0
:104BD000CF93DF9310922B0310922A0388EE93E079
:104BE000A0E0B0E080932C0390932D03A0932E03BC
:104BF000B0932F0327E431E0309329032093280357
:104C00002FEF3FEF30933503209334032093780345
:104C100010927A0310927903109284031092830306
:104C20004FEF5FEFBA0140937F035093800360938F
:104C300081037093820310928803109287038093FC
:104C4000890390938A03A0938B03B0938C0389E527
:104C500091E090938603809385038CE0E1E9F3E093
:104C6000DF011D928A95E9F710929E0310929D0331
:104C70008091A503811113C01092A00310929F038D
:104C800088EF95E09093A2038093A1038BE490E0DA
:104C90009093A4038093A30381E08093A5030E94D3
:104CA000380BFC01A385B485109709F027C18FE963
:104CB00093E094878387858596852091A30330911F
:104CC000A403820F931F968785871092C1031092C9
:104CD000C0038BE691E09093BF038093BE03809165
:104CE000B603811113C01092B1031092B00383EC8C
:104CF00096E09093B3038093B2038FE290E0909399
:104D0000B5038093B40381E08093B6030E94380B0F
:104D1000FC01A385B485109709F0FBC080EB93E0FC
:104D200094878387858596852091B4033091B50358
:104D3000820F931F9687858783E496E09093CB0339
:104D40008093CA0389E490E00E94B912D82F8AE4C4
:104D500090E00E94B912C82F88E490E00E94B91236
:104D60001092240510922305109226051092250515
:104D7000109228051092270510922A0510922905F5
:104D800010922C0510922B0510922D0510922F05D4
:104D900010922E052FEF3FEF309331052093300511
:104DA0001092330510923205109235051092340599
:104DB00029E335E030933705209336058093380595
:104DC00087E791E09093220580932105D0933905E0
:104DD000C0933A058FEF80933B0580933C0580E0BC
:104DE00092E1AAE7B0E080933D0590933E05A09341
:104DF0003F05B09340058CEC93E09093420580937F
:104E00004105C093430583E295E090934505809367
:104E100044051092460510924705109249051092DC
:104E2000480510924B0510924A056DE771E08BE141
:104E300095E00E9458148EE290E09093D403809302
:104E4000D30380ED97E09093D6038093D50382E35C
:104E500080930305809304051092050510920605C2
:104E600010920705109208051092090510920B0583
:104E700010920A058FB78093180583E090E0909315
:104E80001A0580931905E6E3F7E0249120931405B1
:104E900087E197E0FC013491E32FF0E0EE0FFF1F74
:104EA000E050F94F4591549150930D0540930C05F6
:104EB000FC018491E82FF0E0EE0FFF1FEE50F94F58
:104EC000A591B491B0930F05A0930E05EC91E22B40
:104ED000EC938EE190E09093D4038093D30384E924
:104EE00092E09093D6038093D5036DE771E08DEC4B
:104EF00093E0DF91CF910C945814DC018D919C913B
:104F000011970097D1F78FE993E08D939C93D3CEBF
:104F1000DC018D919C9111970097D1F780EB93E084
:104F20008D939C93FFCECF93DF93CDB7DEB76F9772
:104F30000FB6F894DEBF0FBECDBF789484B5826003
:104F400084BD84B5816084BD85B5826085BD85B52D
:104F5000816085BD80916E00816080936E001092AB
:104F60008100809181008260809381008091810026
:104F700081608093810080918000816080938000B7
:104F80008091910082608093910080919100816076
:104F90008093910080919000816080939000809137
:104FA000C10084608093C1008091C10082608093C1
:104FB000C1008091C10081608093C1008091C300D5
:104FC00081608093C3008091C00082608093C000A4
:104FD0008091C20081608093C20080917A008460D9
:104FE00080937A0080917A00826080937A00809129
:104FF0007A00816080937A0080917A008068809343
:105000007A001092B30210925F0210925E028091B9
:10501000D70081608093D70080EA8093D80089B55B
:10502000806189BD89B5826089BD09B400FEFDCF6C
:1050300061E070E080E090E00E9423168091D8004B
:105040008F7C80618093D8008091E000807F809386
:10505000E0008091E1008E7E8093E1008DE08093FE
:10506000E200559A209A5D9828988FEF9FEF9093D1
:1050700035038093340360ED77E080E090E00E9498
:1050800023168EEE93E00E94B912909114018913B9
:1050900008C08FEE93E00E94B91290911301891716
:1050A00061F064E171E08EEE93E00E94A21263E190
:1050B00071E08FEE93E00E94A21282E590E00E94E0
:1050C000B912182F8EEE93E00E94B91218130BC07C
:1050D00083E590E00E94B912182F8FEE93E00E94B2
:1050E000B912181741F18BEE93E00E94B91280318A
:1050F000B0F08BEE93E00E946232882329F060E0EA
:105100008BEE93E00E946A328CEE93E00E94623252
:10511000882329F060E08CEE93E00E946A3264E11B
:1051200071E082E590E00E94A21263E171E083E504
:1051300090E00E94A21210920503109204031092B4
:10514000B5021092D7020E94F00786E696E090938F
:1051500063028093620287E696E0909361028093F7
:10516000600283E496E09093CB038093CA0380E0CF
:105170000E942F178091AA02813009F0BCC081E201
:1051800095E00E94FF180E944910E6E8F3E0E491E0
:10519000E0939103E7E8F3E0249120939203E8E899
:1051A000F3E0849180939303E9E8F3E0E491E093E2
:1051B00094034AE853E050939A03409399034DE0D7
:1051C0005AE050939E0340939D0390E00796E3E0DE
:1051D00095958795EA95E1F780939603289FE02DB2
:1051E0001124E09397031092980310929C0310925D
:1051F0009B0381E993E090933505809334050091FA
:10520000360510913705D8011D968C911D9780FDAC
:105210001CC01B96ED91FC911C978081918122818D
:10522000338131832083938382831F968D919C9158
:10523000509751962D913C91529750963C932E93B6
:105240001F9752969C938E93519783E0F801858720
:10525000C8010E94790F60E0D8011A968C910E94D3
:10526000B70988E20E94DC0986E30E94DC0961E05C
:10527000F80182850E94B709D8011D96EC9180EA59
:10528000E33020F4F0E0E05DFE4F8081F801968588
:10529000892B0E94DC0960E0D8011A968C910E944B
:1052A000B70989E20E94DC09C8010E94C0098EE4A6
:1052B00090E00E94B91280938C028FE490E00E94EB
:1052C000B91280938D02FE0131966F01CE010796CF
:1052D0007C018E01035F1F4F9E012D5E3F4FAE018B
:1052E000475E5F4FBE01625E7F4F48960E94B90ED7
:1052F0008D8580938E028091AD028F3F09F44FC05F
:105300008DE490E00E94B912D82E8CE490E00E94C7
:10531000B912E82E8BE490E00E94B912F82E81E1D8
:1053200090E00E94ED338C01DC0112961C921E92DB
:10533000119714961C921E92139782E315968C93E4
:1053400015978FE116968C93169785E217968C9396
:1053500017978CE018968C93189719961C921997AA
:105360001A961C921A978EE11B968C931B971D968A
:105370001C921E921C9720E040E060E0C8010E9451
:10538000571210936502009364022D2D4E2D6F2D40
:10539000C8010E94571281E0F80183878583E0915C
:1053A000AF02F0E0EA57FD4FE491E09303058BEE86
:1053B00093E00E94B912F4E68F9FC00111249093EC
:1053C0000B0580930A0580EF93E00E94B912182F15
:1053D000809374028CEE93E00E94B9128093730262
:1053E000112309F493C0E12EF12CC7010E9482120F
:1053F00080937102909372025C01D12CC12CC11672
:1054000050F4C6010E94B912D5018D935D01BFEF22
:10541000CB1ADB0AF4CF82E390E00E94B9128093AA
:10542000700284E490E00E94B912082F80936F020A
:1054300085E490E00E94B912D82E80936E0286E433
:1054400090E00E94B912C82E80936D0287E490E02C
:105450000E94B912B82E80936C0261E0802F0E94E6
:10546000F70561E08B2D0E94F70561E08D2D0E940C
:10547000F70560E08C2D0E94F70560E08D2D0E94FD
:10548000C90561E0802F0E94C905E9E01E9FC001A7
:1054900011240E948212DC01FC0152E34FE135E24B
:1054A0002CE0128211821482138255834683378343
:1054B0002087399661E0E61AF10899F780936A022D
:1054C00090936B0280E04CE031E025E19EE116967E
:1054D0004C93169718963C93189717962C931797FA
:1054E00015969C9315978F5F19961813F0CFCE01E0
:1054F00001960E94BC1BBE016F5F7F4F8BE195E060
:105500000E94F912CE0101960E949A12D090730265
:10551000DD2009F457C0AD2CB12CC5010E948212C8
:10552000C82E8093680290936902E82EF92E082F06
:10553000192F73E3872E912C782E802F8C198D15BF
:1055400050F4C4010E94B912D8018D938D01BFEFB0
:105550008B1A9B0AF2CFE9E0DE9EC00111240E9463
:1055600082128C01FC0152E34FE135E22CE0128201
:10557000118214821382558346833783208739969C
:1055800061E0A61AB10899F78093660290936702CA
:105590004CE0942EAA24A39455E1B52E6EE1C62EBC
:1055A0008E2D87198D1570F462E0D7018D917D01E4
:1055B0000E94F705F8019682A086B782C582075F30
:1055C0001F4FEECF81E08093B1023E01FEE16F0EEE
:1055D000711C25E6522E22242A94322C8091AB0293
:1055E000882321F08091B0020E94ED140E94AC1E2D
:1055F0000E9458060091990210919A0220919B02F4
:1056000030919C02601B710B820B930B60317742CF
:105610008105910538F080919802813019F462E09B
:10562000609398020E94580600919402109195028E
:105630002091960230919702601B710B820B930BA5
:10564000643F71408105910508F46EC0809193021A
:10565000813009F069C01092930285E0EFE1F1E03A
:10566000DE01599601900D928A95E1F786EF93E05D
:105670000E94B912E82EF090AF028E01075E1F4F14
:10568000F80181918F0190E0BC016A557D4F8351F3
:105690009C4F0E94A2126016710691F7EF1409F454
:1056A00043C06091AE02CE0101960E940B1460913E
:1056B000AF02CE0107960E940B146091B002CE019A
:1056C0000D960E940B1462E871E0CE0143960E9491
:1056D0005814BE01635F7F4FCE0143960E94CD13E5
:1056E00062E871E00E94B713BE01695F7F4F0E94BC
:1056F000CD1362E871E00E94B713BE016F5F7F4F68
:105700000E94CD130E941617CE0143960E949A1252
:10571000CE010D960E949A12CE0107960E949A120F
:10572000CE0101960E949A1288E293E00E94AF0790
:10573000892B09F444C06DE771E0CE010D960E94FB
:1057400058140E94590797FD0FC08A30910561F0E7
:1057500089831A8241E050E0BE016F5F7F4FCE0126
:105760000D960E945A13EDCF89899A89892B09F4E5
:10577000FAC0ED85FE85309709F4F5C010816DE71C
:1057800071E0CE0107960E9458140E9458061D32FF
:1057900009F4E7C10CF0F2C0153209F4A1C30CF012
:1057A000E4C0113209F484C2133209F437C2CE01C5
:1057B00007960E949A12CE010D960E949A120E949C
:1057C000580600918F021091900220919102309121
:1057D0009202601B710B820B930B683E7340810534
:1057E000910508F4B8C00E94580660938F02709328
:1057F000900280939102909392028091AA0281304C
:1058000009F0A9C0FE0131966F01CE0107967C0117
:105810008E01035F1F4F9E012D5E3F4FAE01475E1D
:105820005F4FB30148960E94B90E90918E028D850C
:10583000981729F00E9449108D8580938E0230922E
:105840003105209230053F8D4E8D898D1AE0612FF4
:105850000E94B333805D80938302905D90938402B5
:105860002AE320938502842F0E94B333805D8093C6
:105870008602905D9093870220938802832F0E9476
:10588000B333805D80938902905D90938A02109279
:105890008B0260918D0270E080918C0243E852E0AF
:1058A00090E00E9481100E94AC1E39814F818D854D
:1058B000612F0E94B333805D80937A02905D909354
:1058C0007B022EE220937C02842F0E94B333805D02
:1058D00080937D02905D90937E0220937F02832FC0
:1058E0000E94B333805D80938002905D909381022B
:1058F0001092820260918D0270E06F5E7F4F809106
:105900008C024AE752E090E00E9481100E94AC1E97
:10591000EB898EEF8E0F90E0823008F496E0F0E095
:10592000EE0FFF1FED5CFE4F4081518160918D02B3
:1059300070E06E5D7F4F80918C02891B990B0E94F5
:1059400081100E94AC1E80919802823021F4109246
:1059500098020E944910A0E0B0E0AB2B09F43ECEC3
:105960000E94000036CE10E00ACF1A3209F454C269
:105970001B3209F01CCF0E94B81A19CF1B37F1F166
:10598000A4F41C3309F445C21E3309F010CFB1E072
:10599000B09379020E945806609375027093760264
:1059A000809377029093780202CF1D3709F10CF4AF
:1059B00082C01E3709F0FBCE29893A892230310591
:1059C00008F4F5CE41E050E0BE01635F7F4FCE01A9
:1059D00001960E946914CE0101960E94BD12162FF5
:1059E000CE0101960E949A12812F0E94461CDFCEA2
:1059F00081E00E942F170E94E917D9CE21E030E004
:105A000050E040E0BE01635F7F4FCE0101960E94EF
:105A1000691466E971E0CE0101960E94E412182F24
:105A2000CE0101960E949A12112309F4C0CE298951
:105A30003A8941E050E0BE01635F7F4FCE0101969D
:105A40000E94691465E0CE0101960E94651B8C01DD
:105A5000CE0101960E949A1285E0EFE1F1E0DE01AD
:105A6000119601900D928A95E1F7CE010196D80129
:105A700098012B5F3F4FFC015191CF014D91E52FD4
:105A8000F0E0EA55FD4F4083A217B307A1F70E944B
:105A900058066093940270939502809396029093B7
:105AA0009702F1E0F0939302C801012B09F47FCE35
:105AB0000E9489347CCE6DE771E0CE0107960E948A
:105AC000011411E02091AC02211708F404C23091B6
:105AD000AE02812F90E0239F800D911D1124589ECE
