:100000000C9428040C9450040C9450040C94500448
:100010000C9450040C9450040C9450040C94500410
:100020000C9450040C9450040C948B230C940824CE
:100030000C9450040C9450040C9450040C945004F0
:100040000C9450040C9450040C9450040C945004E0
:100050000C9450040C9450040C9450040C944123C0
:100060000C9450040C9450040C9450040C945004C0
:100070000C9450040C9450040C9450040C945004B0
:100080000C9450040C9450040C9450040C945004A0
:100090000C943A260C9450040C9450040C94500484
:1000A0000C9450040C9450040C9450040000000074
:1000B0000000000001010101010101010202020230
:1000C00002020203030303030404040505050505F6
:1000D000060606060707070808080808090A0A0AA4
:1000E0000A0B0B0C0C0C0C0D0D0D0E0E0F0F0F1040
:1000F00011111111121213141414141516161717C6
:10010000171819191A1A1B1B1C1C1D1E1E1F1F2035
:1001100021212223232425252626272829292A2B85
:100120002C2D2D2E2F2F30313233343536363738B3
:1001300038393A3B3C3D3E3F4041424344454546C9
:1001400047494A4B4C4D4E4F5051525455565759B2
:100150005A5B5D5E5F60616264656667696A6C6D6B
:100160006E6F7173757677797A7B7C7F80828385F9
:100170008688898B8C8F9192939497999A9C9E9F55
:10018000A2A3A5A7A9ABADAEB0B3B4B6B9BABCBE75
:10019000C0C2C4C7C9CACDCFD1D3D6D8DADCDFE15B
:1001A000E2E6E7EBECF0F1F5F6FAFBFF01FF961162
:1001B000FFFFB103012C2DB203012C2DB306012C3E
:1001C0002D012C2DB40107B6021502C003A2028432
:1001D000C101C5C2020A00C3028A2AC4028AEEC54E
:1001E000010E20003601003A0105E0100F1A0F1829
:1001F0002F2820221F1B233700070210E1100F1B9E
:100200000F17332C292E3030393F0007031029FFF8
:100210006413FF0A080B0002020200000904000038
:10022000010202000005240010010524010101045F
:100230002402060524060001070581031000400979
:10024000040100020A000000070502024000000746
:100250000583024000000403090412010002EF02BA
:10026000014041233780000101020301417264759E
:10027000696E6F204C4C430041726475696E6F204B
:100280004D6963726F000000000000000000010172
:100290000101010101010202020202020203030341
:1002A00003030404040505050505060606060707FD
:1002B000070808080808090A0A0A0A0B0B0C0C0CA4
:1002C0000C0D0D0D0E0E0F0F0F101111111112123A
:1002D00013141414141516161717171819191A1AB7
:1002E0001B1B1C1C1D1E1E1F1F202121222323241B
:1002F00025252626272829292A2B2C2D2D2E2F2F60
:100300003031323334353636373838393A3B3C3D84
:100310003E3F404142434445454647494A4B4C4D88
:100320004E4F50515254555657595A5B5D5E5F605F
:10033000616264656667696A6C6D6E6F717375760C
:1003400077797A7B7C7F808283858688898B8C8F86
:100350009192939497999A9C9E9FA2A3A5A7A9ABCB
:10036000ADAEB0B3B4B6B9BABCBEC0C2C4C7C9CAD8
:10037000CDCFD1D3D6D8DADCDFE1E2E6E7EBECF0A3
:10038000F1F5F6FAFBFF000608200000000000006F
:100390000000002F000000000700070000147F1479
:1003A0007F1400242A7F2A12002313086462003677
:1003B0004955225000000503000000001C224100A6
:1003C000000041221C000014083E08140008083EEA
:1003D0000808000000A060000008080808080000E5
:1003E00060600000002010080402003E5149453EB4
:1003F0000000427F400000426151494600214145D2
:100400004B31001814127F10002745454539003C38
:100410004A49493000017109050300364949493606
:1004200000064949291E00003636000000005636F5
:1004300000000008142241000014141414140000D9
:100440004122140800020151090600324959513E67
:10045000007C1211127C007F49494936003E41411F
:100460004122007F4141221C007F49494941007FD0
:1004700009090901003E4149497A007F0808087FBF
:100480000000417F4100002040413F01007F0814EF
:100490002241007F40404040007F020C027F007FED
:1004A0000408107F003E4141413E007F09090906D2
:1004B000003E4151215E007F091929460046494905
:1004C00049310001017F0101003F4040403F001FD2
:1004D0002040201F003F4038403F00631408146351
:1004E00000070870080700615149454300007F413B
:1004F000410000552A552A55000041417F00000463
:10050000020102040040404040400000010204009B
:10051000002054545478007F484444380038444400
:10052000442000384444487F00385454541800088C
:100530007E0901020018A4A4A47C007F08040478AA
:100540000000447D4000004080847D00007F102832
:1005500044000000417F4000007C04180478007CC7
:100560000804047800384444443800FC2424241847
:100570000018242418FC007C080404080048545483
:10058000542000043F444020003C4040207C001C9C
:100590002040201C003C4030403C004428102844AF
:1005A000001CA0A0A07C004464544C4400000877C8
:1005B00000000000007F000000007708000000102D
:1005C0000810080014141414141400008080808093
:1005D000E0E07E7E6060606060607F7F60606060A1
:1005E00060607E7EE0E0808080800080818181810B
:1005F000FFFF000000FCFCFCFCFCFCFCFCFCFCFC29
:10060000FC000000FFFF8181818180018181818167
:10061000FFFF0000003F3F3F3F3F3F3F3F3F3F3F27
:100620003F000000FFFF8181818101000101010184
:1006300007077E7E060606060606FEFE0606060678
:1006400006067E7E07070101010100181818F8F858
:10065000C0C0C0C0C040C0C0C0C0C0C0C0C0C0C01A
:10066000404040C0C0C0C0C0C0C0C0008F8FFFFFAE
:10067000FFFFFFF1E0CEE0F1FF3F8FE7E3C1C0C62F
:100680003EBF3EC6C0C1E3E78F3FFF809C9CFFFF9B
:10069000FFFFFFE3C19CC1E3FFFEF8F3E3C181B1BB
:1006A0003E7E3EB181C1E3F3F8FEFF0000001F1F54
:1006B000000000000000001F071F071F071F071F83
:1006C000071F071F071F070000000000000000238E
:1006D00000260029002C002F000000000200090F56
:1006E0000000030401000C000000000000000000F6
:1006F0000000000000000000050C0901A1018501B7
:1007000015002501750195180A23020A8A011A2489
:10071000022A27020A21020A2A0209CD09B709B6CC
:1007200009B509E909EA09E20A83010A01020A0294
:10073000020A07020A1A020A79021A1B022A1D0279
:100740008102C000000000000000002A2B280000E9
:100750000000000000000000000000000000000099
:100760000000002C9EB4A0A1A2A434A6A7A5AE367A
:100770002D3738271E1F20212223242526B333B6E8
:100780002EB7B89F8485868788898A8B8C8D8E8FBB
:10079000909192939495969798999A9B9C9D2F31BE
:1007A00030A3AD350405060708090A0B0C0D0E0F22
:1007B000101112131415161718191A1B1C1DAFB19E
:1007C000B0B50005010906A1018502050719E02958
:1007D000E7150025017501950881029501750881CD
:1007E00003950675081500257305071900297381FF
:1007F00000C000000000240027002A002D00300067
:1008000000000000250028002B002E003100040409
:1008100004040403040502020202040302020202A9
:100820000606060606060404020202040404080280
:100830000110408040102040804080080204018068
:100840004020100201108010204040208C27603191
:1008500011241FBECFEFDAE0DEBFCDBF11E0A0E074
:10086000B1E0E8E9FEE602C005900D92AC3EB107AA
:10087000D9F725E0ACEEB1E001C01D92AE35B2076C
:10088000E1F714E0C7E2D4E004C02197FE010E9422
:100890001A35C632D107C9F70E9438290C943F3760
:1008A0000C9400004F925F926F927F928F929F9272
:1008B000AF92BF92CF92DF92EF92FF920F931F936E
:1008C000CF93DF9300D01F92CDB7DEB780911C0588
:1008D000E0911405F09115059081982B90931E05D9
:1008E00090818095892380931F0580910B058093CB
:1008F0000C058091210590912205039721F48FB773
:1009000080932005F89400911205109113050115AC
:10091000110509F492C0D0900B05EBEDF3E067E010
:1009200075E020E030E0A901ED2CF12CC701019623
:10093000C480C89ED001C99EB00D1124AB2FBB2727
:100940002A0F3B1F411D511DC580C89ED001C99E65
:10095000B00D1124AB2FBB272A0F3B1F411D511D8A
:10096000C680C89ED001C99EB00D1124AB2FBB27F5
:100970002A0F3B1F411D511D33966E177F07C1F68D
:10098000232F342F452F552747FD5A95A091DB0380
:10099000B091DC030E94E93323E030E040E050E016
:1009A0000E94BF3349015A018091DD039091DE031B
:1009B00081149104A104B104F1F16AE070E00E9495
:1009C0000635CB01072E000CAA0BBB0B880D991D19
:1009D000AA1DBB1D2801012E000C6608770884158E
:1009E0009505A605B7053CF1C801861B970BBC0110
:1009F000072E000C880B990B0E94B0322B013C0192
:100A0000B701FF0C880B990B0E94B0329B01AC011F
:100A1000C301B2010E94EB326B017C01C501B4013C
:100A20000E94B0329B01AC01C701B6010E9459344B
:100A30000E94CB34D62ED0920C05EBEDF3E007E00C
:100A400015E07E0194E0E90EF11C5581468180910C
:100A50000C0590E001966481689F9001699F300DBC
:100A600011243A83589F9001599F300D11243983E6
:100A7000489F9001499F300D11243B8380912105AF
:100A800090912205029721F48FB780932005F89466
:100A9000BE016F5F7F4FDB018D91BD01209121056C
:100AA000309122052130310521F49FB79093200524
:100AB000F89490911E0520911F05A0911405B09106
:100AC000150538E09C9387FF2C93880F43E04A95E7
:100AD000F1F700002C933A95A9F7809121059091A8
:100AE00022058130910519F4209120052FBFE616CB
:100AF000F70609F0D0CF8230910519F42091200536
:100B00002FBF33960E171F0709F09FCF039719F4D5
:100B1000809120058FBF0F900F900F90DF91CF91A4
:100B20001F910F91FF90EF90DF90CF90BF90AF900B
:100B30009F908F907F906F905F904F90089583E08B
:100B40008093E9008091F200882319F08AE3809372
:100B5000E8000895FC018091C102882311F13FB79C
:100B6000F89482E08093E9002091F200822F90E0D7
:100B70001816190614F481E090E0882339F0289AB9
:100B800044E64093C0024091F1004083222339F0B3
:100B90002091F200211103C02BE62093E8003FBF13
:100BA00008958FEF9FEF089581508F3008F047C070
:100BB000E82FF0E0E252FA4F0C941A35FB05FF05DE
:100BC000ED05F305F7051F061F061F0602060806BA
:100BD0000C06100616061F061A06809180008F77F5
:100BE000809380000895809180008F7DF9CF80915F
:100BF0008000877FF5CF84B58F7784BD089584B555
:100C00008F7DFBCF809190008F7780939000089527
:100C1000809190008F7DF9CF80919000877FF5CFF4
:100C20008091C0008F778093C00008958091C000AC
:100C30008F7DF9CF8091C200877F8093C200089595
:100C4000CF93DF93282F30E0F901E752F94F8491D9
:100C5000F901E35DF74FD491F901E25FF74FC491D9
:100C6000CC23A1F081110E94D405EC2FF0E0EE0F0F
:100C7000FF1FE553F94FA591B491EC91ED2381E06D
:100C800090E009F480E0DF91CF91089580E090E05A
:100C9000FACF1F93CF93DF93282F30E0F901E7526B
:100CA000F94F8491F901E35DF74FD491F901E25FC7
:100CB000F74FC491CC23A9F0162F81110E94D405BF
:100CC000EC2FF0E0EE0FFF1FE050F84FA591B4912C
:100CD0008FB7F894EC91111108C0D095DE23DC9306
:100CE0008FBFDF91CF911F910895DE2BF8CFCF9367
:100CF000DF9390E0FC01E35DF74F2491825F974F13
:100D0000FC0184918823C9F090E0880F991FFC01B1
:100D1000EE50F84FA591B491FC01E050F84FC59109
:100D2000D49161110DC09FB7F8948C9120958223C6
:100D30008C938881282328839FBFDF91CF910895CA
:100D4000623051F49FB7F8943C91822F80958323B1
:100D50008C93E8812E2BEFCF8FB7F894EC912E2B4C
:100D60002C938FBFEACF3FB7F8948091B002909157
:100D7000B102A091B202B091B30226B5A89B05C002
:100D80002F3F19F00196A11DB11D3FBFBA2FA92F0A
:100D9000982F8827BC01CD01620F711D811D911D07
:100DA00042E0660F771F881F991F4A95D1F7089573
:100DB0002FB7F8946091AC027091AD028091AE02B1
:100DC0009091AF022FBF08950C949F050895089548
:100DD0000895409161025091620220915F0230912A
:100DE000600242175307B4F49091E8009570E1F364
:100DF0009091E80092FD19C08093F100809161020A
:100E00009091620201968F739927892B19F48EEFC6
:100E10008093E80080916102909162020196909324
:100E200062028093610281E0089580E00895DF927C
:100E3000EF92FF920F931F93CF93DF93D82E8A01E7
:100E4000EB017B01E40EF51ECE15DF0559F0D7FE50
:100E500012C0FE0184910E94E90621968111F4CF0F
:100E60000FEF1FEFC801DF91CF911F910F91FF90FE
:100E7000EF90DF9008958881EECF2FB7F8948770B8
:100E80008093E9009091E800892F807295FF04C05B
:100E90009091F20080E4891B2FBF0895615030F0DB
:100EA0002091F100FC0120830196F8CF289A84E676
:100EB0008093C00208958091570281110DC082E095
:100EC0008093530284E08093540210925602109251
:100ED000550281E08093570283E592E008950F93D5
:100EE0001F93CF93DF931F92CDB7DEB782E0898344
:100EF00042E450E064E172E080E80E9417070E943B
:100F00005B07DC0112960D911C910115110589F00A
:100F1000D801ED91FC910280F381E02DBE016F5F5D
:100F20007F4FC801099597FD04C0F8010085118520
:100F3000ECCF89810F90DF91CF911F910F91089590
:100F4000CF93DF931F92CDB7DEB76983DC01ED91BC
:100F5000FC910280F381E02D41E050E0BE016F5F23
:100F60007F4F09950F90DF91CF91089583E00E9404
:100F70003D0790E00895CF93DF931F92CDB7DEB782
:100F8000FC018485958597FD08C02FEF3FEF3587DD
:100F900024870F90DF91CF910895CE0101960E9492
:100FA000AA05019719F4898190E0F3CF8FEF9FEFA5
:100FB000F0CF0F931F930E94D80660933E03709367
:100FC0003F03809340039093410386E393E00E94A4
:100FD000BB0797FF1DC00E94D80600913E031091E9
:100FE0003F032091400330914103601B710B820B42
:100FF000930B00913A0310913B0320913C033091F5
:101000003D036017710782079307F8F28FEF9FEF98
:101010001F910F9108950F931F93CF93DF931F920A
:10102000CDB7DEB78C01FC018485958597FF0BC099
:10103000CE0101960E94AA05019771F4898190E082
:10104000F80195878487F801848595850F90DF9155
:10105000CF911F910F9108958FEF9FEFF1CFFC017A
:101060008485958597FD0BC09FB7F89482E08093A7
:10107000E9008091F2009FBF90E0019608959FB72C
:10108000F89482E08093E9008091F2009FBF90E0A5
:10109000089520913002260F3327331F2132310566
:1010A000ECF420910C03FC0190E080E0243069F026
:1010B00082E00895A09130022191AC01405F5D4F24
:1010C000A40FB52FB11D2C930196861798F380912C
:1010D0003002680F6093300280E0089581E0089547
:1010E00010920C0381E080930B031092060361E0E1
:1010F00082E00E94490661E083E00E944906E9EB34
:10110000F0E080818E7F808380818D7F808388E482
:101110008093B80085E48093BC000895CF93DF935B
:1011200091E090930F028823B9F0C091B800D0915C
:10113000BA008091BC008A7B8093BC0060E082E0B2
:101140000E94490660E083E00E9449060E94700800
:10115000D093BA00C093B800DF91CF910895CF9299
:10116000DF92EF92FF920F931F93CF93DF93D09173
:10117000E50281E0D13208F09CC0C091E4020E94F7
:10118000B3066B017C0180910C0381116CC082E07D
:1011900080930C0381E080930B038FEF80930A030D
:1011A00010920903D0930803A4ECB2E0E6EEF2E05B
:1011B00080E0D8138DC01092070380910703CC0FF5
:1011C000C82BC093070380910603813009F084C0C7
:1011D000109206030E94B3066B017C018091070305
:1011E0008093BB0080910E0390910F03A091100398
:1011F000B0911103892B8A2B8B2BA1F00E94B3068F
:1012000000910E0310910F032091100330911103F0
:101210006C197D098E099F090617170728073907DA
:1012200008F442C08091BC0083FDD8CF85EC809348
:10123000BC000E94B3066B017C0180910C038230DC
:1012400009F44CC080910A038F3F09F469C0809172
:101250000A03803209F466C080910A03803309F4DE
:1012600063C084E026C080910E0390910F03A0918B
:101270001003B0911103892B8A2B8B2B09F483CF98
:101280000E94B30600910E0310910F0320911003EA
:10129000309111036C197D098E099F0906171707F4
:1012A0002807390708F06FCF80910D030E948E0840
:1012B00085E01092C3021092E5021092C202DF9103
:1012C000CF911F910F91FF90EF90DF90CF900895F5
:1012D0009D9191938F5F6DCF85EEA9CF80910E0385
:1012E00090910F03A0911003B0911103892B8A2BC9
:1012F0008B2B09F4A2CF0E94B30600910E0310912C
:101300000F0320911003309111036C197D098E0990
:101310009F09061717072807390708F08ECFC4CF93
:1013200080E0C7CF82E0C5CF83E0C3CF0895E091CE
:10133000130380911203E81730F4F0E0EC5EFC4FE9
:10134000808190E008958FEF9FEF089590911303AF
:10135000809112032FEF3FEF981748F4E92FF0E048
:10136000EC5EFC4F208130E09F5F90931303C90136
:1013700008958091120390911303891B990B08958E
:10138000CF92DF92EF92FF920F931F93CF93DF9351
:101390007C01CB018A012091C202222389F0EB015A
:1013A0006B01C40ED51ECC15DD0569F06991D7011E
:1013B000ED91FC910190F081E02DC7010995F3CFEB
:1013C000642F0E944908C801DF91CF911F910F91AE
:1013D000FF90EF90DF90CF900895CF93DF931F920F
:1013E000CDB7DEB769832091C2022223F9F02091A4
:1013F000E502203258F021E030E0FC013383228303
:1014000090E080E00F90DF91CF9108958091C3022A
:10141000E82FF0E0EC53FD4F998190838F5F80932C
:10142000C3028093E50281E090E0ECCF61E0CE0161
:1014300001960E944908F7CF682F83E993E00C9446
:10144000ED099FB7F89480910E02882319F081501E
:1014500080930E0280910E02811105C08CB58F7BA6
:101460008CBD10920D029FBF08950C94490687FD14
:1014700006C070E0082E000C990B0C94350A0895F4
:10148000FC01808187FD07C061E070E0082E000C40
:10149000990B0E94350A80910D02882361F09FB755
:1014A000F89420910D0280910C02213019F48DBB2B
:1014B0009FBF08958FBF08958EBD00000DB407FE35
:1014C000FDCF8EB50895FB0124913196E491322F22
:1014D0002E2FFB013296E491E11103C090E080E0F1
:1014E00008956D5F7F4FDC01FC914217530730F088
:1014F000D901AE0FB11D4A175B0728F0EF9F600DB1
:10150000711D1124E0CF421B530BF49FC001F59FC6
:10151000900D1124860F971F0895EF92FF920F935D
:101520001F93CF93DF934115510509F44BC08A01F6
:101530007B01EC018981FA0180838A8181838F811B
:10154000828368857985F0E8EF16F10490F488814C
:1015500081110FC06115710579F08B81E81AF108CE
:101560002E812E9DC0012F9D900D1124860F971F57
:1015700026C061157105E1F46A857B8561157105E9
:1015800041F54B8188859985242F042E000C330B5F
:10159000241B31094E81429FB001439F700D1124DD
:1015A00028812130F1F030E020E0620F731FDECFA0
:1015B000A701CE0106960E94630A0097E9F2F8019E
:1015C00094838383DF91CF911F910F91FF90EF90D0
:1015D0000895A701CE0106960E94630A009779F745
:1015E000D0CF23E030E0E1CFDC01FB0112962C915B
:1015F0001297848195812817190641F49181808181
:10160000813A31F49D7F81E0913009F080E00895C6
:101610008132E1F79B3029F482811F968C9381E01F
:1016200008959A3099F7828150968C93F8CFDC0117
:10163000FB0188E4808389E4818384E482831D96AE
:101640009C911D979F709F5B93831D968D919C919C
:1016500024E0969587952A95E1F78F708F5B8483B8
:1016600085E00895EF92FF920F931F93CF93DF933E
:10167000FB012081213871F52381223259F5DC01EB
:1016800012964C91248135814217130619F5EC010D
:101690000B851C85F12CE12C0115110589F0F80151
:1016A000448155816281738180E80E9417078F3FD2
:1016B000980749F0E80EF91ED8010D911C91ECCF66
:1016C00081E08F87C701DF91CF911F910F91FF902C
:1016D000EF90089590E080E0F6CFCF93DF93CDB701
:1016E000DEB769970FB6F894DEBF0FBECDBFFC0121
:1016F000DB018C918F5F8C939E012D5F3F4F8DE0BE
:10170000D9011D928A95E9F729E0298384E08A832B
:1017100091E09D8383E08E832A8721E22B879C873B
:101720009D879F8722E2288B27E02B8B25E02C8B3F
:101730008E8B20E430E0388F2F8B998F82818B83C2
:1017400095858685998B8A8B838180688D8B49E10D
:1017500050E0BE016F5F7F4F80E00E9417076996DF
:101760000FB6F894DEBF0FBECDBFDF91CF910895C5
:10177000CF93DF9380910402811167C081E0809351
:10178000F7018093F8012DEF31E03093FA012093B7
:10179000F9011092FC011092FB0128E231E0309334
:1017A000F4012093F3011092FF011092FE011092B8
:1017B000010210920002809302028093030281ECE6
:1017C0008093FD010E945B07FC0181819091F701EC
:1017D000482F490F5527551F483051059CF5A281C8
:1017E000B381109709F523EF31E033832283208101
:1017F0002093F5018093F6018091F801820F808398
:101800002091F901A22FB091FA018A2F821B89172A
:10181000C8F481813D91C82FD0E0C050DF4F38839C
:101820008F5F8183F2CFD90118962D913C91199742
:1018300021153105C1F723EF31E019963C932E9322
:101840001897D5CF81E08093040283EF91E0DF9178
:10185000CF910895CF92DF92EF92FF920F931F9353
:10186000CF93DF936C01EB017B01E40EF51E10E0DA
:1018700000E0CE15DF0581F069916D30D1F3D6011E
:10188000ED91FC910190F081E02DC6010995892B25
:1018900019F00F5F1F4FEDCFC801DF91CF911F915E
:1018A0000F91FF90EF90DF90CF90089590E080E04F
:1018B0000895E42FF0E0E455FF4F4491E62FF0E067
:1018C000E455FF4F7491E82FF0E0E455FF4F649129
:1018D000842F0895682F660F680F8B3A38F082E0E6
:1018E000860F482F409560E00C94590C863530F0F7
:1018F00041E0460F642F609580E0F6CF862F8095FB
:1019000040E0F2CF9091BA02E92FF0E0282F30E0CA
:101910004091BC02891778F4499F200D311D112494
:1019200085E6829FB001839F700D1124072E000C65
:10193000880B990B08952E1B3F0B8BE0829FB00103
:10194000839F700D112429EF31E0E29FC001E39FD6
:10195000900DF29F900D1124680F791F8DE4489F20
:10196000600D711D1124E2CFEF92FF920F931F9330
:10197000CF93C82F0E94D8060091EE011091EF017D
:101980002091F0013091F101601B710B820B930BE0
:10199000663471058105910508F4BDC08091E400AD
:1019A0009091EC01891332C08091B402882309F42C
:1019B0002FC0E6E8F2E0E491E0930B050E94D80620
:1019C0006093EE017093EF018093F0019093F10129
:1019D000C53108F034C0EC2FF0E0EF50F34F0C9419
:1019E0001A350E0D260D440D500D5C0D680D740D4D
:1019F0001F0D1F0D1F0D1F0D1F0D1F0D1F0D1F0D87
:101A00001F0D1F0D1F0D1F0D1F0D800D8093EC016D
:101A1000E091BD02F0E0EA57FD4FCDCFC091ED015E
:101A20008C2F0E946A0CEFEDF3E061937193819328
:101A300095E0EB30F907C9F7CD5FC093ED01CF9189
:101A40001F910F91FF90EF900C9452048FEDE82EB0
:101A500083E0F82E10E000E0C091ED016091BA0241
:101A600070E0C8010E9406358C2F860F0E946A0C18
:101A7000F7016193719381937F0101501F4F0C39DE
:101A8000F3E61F0749F7D8CFEBEDF3E080E8848356
:101A900015828683339695E0E730F907C1F7CFCFFB
:101AA000EBEDF3E08FEF848385838683339695E0B7
:101AB000E730F907C1F7C3CFEBEDF3E08FEF848395
:101AC00015821682339695E0E730F907C1F7B7CF54
:101AD000EBEDF3E080E8148285831682339695E07F
:101AE000E730F907C1F7ABCFEBEDF3E08FEF1482EE
:101AF00015828683339695E0E730F907C1F79FCFCB
:101B0000EBEDF3E0148215821682339685E0E73020
:101B1000F807C1F794CFCF911F910F91FF90EF90ED
:101B200008958F929F92AF92BF92CF92DF92EF92E1
:101B3000FF926B017C010E94B3064B015C01C11452
:101B4000D104E104F10439F18091BF02882341F00E
:101B50008091B902882321F08091BE020E94B40CCA
:101B60000E94B306681979098A099B09683E734087
:101B70008105910520F321E0C21AD108E108F1089E
:101B800088EE880E83E0981EA11CB11CC114D104FC
:101B9000E104F10429F7FF90EF90DF90CF90BF9020
:101BA000AF909F908F9008957F928F929F92AF9267
:101BB000BF92CF92DF92EF92FF920F931F93CF933A
:101BC000DF93C82E8B017A018091C102811110C070
:101BD0008FEF9FEFDF91CF911F910F91FF90EF90CB
:101BE000DF90CF90BF90AF909F908F907F9008959F
:101BF0008091650280FF05C08091E0008260809343
:101C0000E000CE2DDF2DD12C8AEFB82E8C2D8770E1
:101C1000982E8C2D8072882E8C2D8074782E9AE3CD
:101C2000A92E209719F4DD2009F452C08C2D0E94B2
:101C30003D0781110AC0BA94BB2051F261E070E007
:101C400080E090E00E94910DECCF8C171D0611F002
:101C50000CF08C2F9FB7F8949092E9002091E80047
:101C600025FD02C09FBFDDCF282F30E0C21BD30B64
:101C7000882029F08150A0F01092F100FBCFF801EC
:101C8000C7FC0AC0815050F041914093F100FACF57
:101C900044914093F10031968150D0F7020F131F09
:101CA000DD2021F0A092E800D12CDCCF8091E8006B
:101CB00085FD07C0A092E800DD24D394209791F21F
:101CC000F3CF209779F6772069F2A092E800CACF87
:101CD0005D9A84E680936402C7017CCFCF93DF9343
:101CE000EC0180911201882331F083E00E94D40D31
:101CF0001816190634F081E090E09B838A8380E017
:101D000090E0DF91CF910895CF93DF93FC01448160
:101D100055816081718186E393E00E946E0EEC0133
:101D200042E050E06BE771E086E393E00E946E0EC4
:101D30008C0F9D1FDF91CF910895AF92BF92CF92EC
:101D4000DF92EF92FF920F931F93CF93DF931F9237
:101D5000CDB7DEB77C0169836A01590141E050E0EB
:101D6000BE016F5F7F4FFC0183810E94D40D8C0107
:101D700097FD0BC0F7018381A501B60180640E9425
:101D8000D40D080F191F97FD8C01C8010F90DF912A
:101D9000CF911F910F91FF90EF90DF90CF90BF9068
:101DA000AF900895CF93DF93EC010E94B80B28E029
:101DB00030E0AE0162E0DF91CF910C949D0EECEC2F
:101DC000F3E016821782108611861286138614821B
:101DD00080ED93E00C94D20EDC016838A0F06858D6
:101DE000FD0186E0662321F09681961301C01682DC
:101DF000815031968111F6CFCD0104960E94D20E0A
:101E000081E090E00895862F90E067FF13C0FC0109
:101E1000E058F10981E090E001C0880FEA95EAF707
:101E2000809514969C911497892314968C931497FB
:101E300060E0D6CF1C96ED91FC911D97E80FF91F3D
:101E400064916623E1F0862F807C803C69F41496CF
:101E50008C9114978F7B14968C9314976F736233C5
:101E600009F0BECF64E6BCCF67FFF9CF14968C9122
:101E700014978D7F14968C9314976F77F0CF90E022
:101E800080E00895DC01683888F1685816968C91D6
:101E90001697861721F117968C9117978617F9F0E8
:101EA00018968C9118978617D1F019968C911997DE
:101EB0008617A9F01A968C911A97861781F01B96AF
:101EC0008C911B97861759F0FD01369690E080E0C3
:101ED000219121114FC08A0F9B1FFC016683CD0108
:101EE00004960E94D20E81E090E00895862F90E043
:101EF00067FF12C0FC01E058F10921E030E001C0A9
:101F0000220FEA95EAF714968C911497822B149677
:101F10008C93149760E0BACF1C96ED91FC911D97BD
:101F2000E80FF91F6491611109C081E090E01396F8
:101F30009C938E93129790E080E00895862F807C8A
:101F4000803C69F414968C911497806414968C9359
:101F500014976F73623309F099CF64E697CF67FFE8
:101F6000F9CF14968C911497826014968C931497E1
:101F70006F77F0CF01968630910509F0A9CFD5CFC4
:101F8000EF92FF921F93CF93DF93EC01162F0E94E5
:101F9000420F7C01612FCE010E94EC0EC7019927F0
:101FA000DF91CF911F91FF90EF9008959091BC0326
:101FB00098138093BC030E94B80B23E030E04BEBF6
:101FC00053E061E00E949D0E81E090E008951F9330
:101FD000CF93DF93EC018B819C8194FB112710F947
:101FE000162796FF04C09F7B9C838B8311E08B8117
:101FF0009C8191FD05C0112381F192609C838B83AC
:102000000E94D806AB0189819A81FA01E81BF90B7D
:102010008B819C81112309F441C085FD23C0298552
:1020200092FD06C0222321F094609C838B830BC019
:102030002E171F0619F010F0211107C082629C8331
:102040008B8358874F835A8349838B819C818F71FF
:10205000992711E0892B09F410E0812FDF91CF91AE
:102060001F91089597FDF1CF86FD0AC02B85A0E151
:102070002A9F90011124E217F30738F38464D5CF27
:1020800087FF0AC02C85A0E12A9F9001112488684F
:10209000E217F30750F6D9CF2B85F5CF85FF12C095
:1020A00029852E171F0609F080F586FD03C02881BB
:1020B0002F5F288397FD18828F7D806191609C83BC
:1020C0008B8323C090FF0DC097FD03C080619C836C
:1020D0008B838B819C819E779C838B835A834983DE
:1020E00014C028812223F1F09C01207C3327232B6C
:1020F000A1F42A8540E1249F90011124E217F307FF
:1021000060F48F819885892B51F48B819C8192FF9B
:102110009CCF9B7F9C838B8398CF8160D0CF188688
:102120001F82F3CF91FFF1CF8F739D7F98609C83C7
:102130008B8318861F82D2CFCF93DF93FC0123813C
:10214000348133FF10C0EC010E94D80629813A8106
:10215000621B730B2D85F0E12F9F9001112481E00C
:102160006217730708F480E0DF91CF910895CF9351
:10217000DF93DC011596ED91FC91309761F0EC0155
:102180000995CE010E949C10882329F08B819C81A7
:10219000977F9C838B83DF91CF910895FC012381EE
:1021A0003481317024363105B9F1D8F42232310549
:1021B00009F444C068F421303105B9F1203131050A
:1021C00089F10E949C1081113CC090E080E008954C
:1021D0002134310569F12035310599F780E890E027
:1021E0000895283E3105D9F048F4213C310519F114
:1021F000203D310531F780E092E008952035F1E08F
:102200003F0739F0203D41E0340719F020313140DB
:10221000C1F688E090E0089582E090E0089584E0BF
:1022200090E0089580E190E0089580E290E00895C4
:1022300080E091E0089580E094E0089581E090E0EE
:10224000089580E098E008951F93CF93DF93EC0109
:102250008B819C8180FD18829C012F713327232B59
:1022600019F0807E9C838B83CE010E94E70F182F8C
:10227000882349F08D819E81892B59F4812FDF912C
:10228000CF911F910895CE010E949C108111F2CF31
:10229000F5CFCE010E94CE10892B81F3CE010E9492
:1022A000B710ECCF8F929F92AF92BF92CF92DF92F6
:1022B000EF92FF920F931F93CF93DF937C01D62F62
:1022C0000E94B3064B015C0180910C03811167C031
:1022D000CD2F81E080930C0380930B039FEF9093AD
:1022E0000A03109209039D0F90930803809307033C
:1022F00080910703EE0CFF1C8E29809307038091C9
:102300000603813009F083C0109206030E94B306D1
:102310006B017C01809107038093BB0080910E03C9
:1023200090910F03A0911003B0911103892B8A2B78
:102330008B2BA1F00E94B30680900E0390900F03A8
:10234000A0901003B09011036C197D098E099F09AC
:1023500086169706A806B90608F442C08091BC000C
:1023600083FDD8CF85EC8093BC000E94B3066B013F
:102370007C0180910C03813009F44BC080910903EA
:102380008D1710F4C0910903E6EEF2E0A4E1B3E08A
:1023900080E08C1751F191919D938F5FFACF8091DE
:1023A0000E0390910F03A0911003B0911103892B9C
:1023B0008A2B8B2B09F488CF0E94B30600910E0361
:1023C00010910F03209110033091110368197909BE
:1023D0008A099B09061717072807390708F074CFE1
:1023E00080910D030E948E08C0E010921303C093E9
:1023F00012038C2FDF91CF911F910F91FF90EF90DF
:10240000DF90CF90BF90AF909F908F90089585EE12
:10241000AACF80910E0390910F03A0911003B09169
:102420001103892B8A2B8B2B09F4A3CF0E94B306AF
:1024300080900E0390900F03A0901003B0901103B2
:102440006C197D098E099F0986169706A806B9069C
:1024500008F08FCFC5CF5F926F927F928F929F923D
:10246000AF92BF92CF92DF92EF92FF920F931F93A2
:10247000CF93DF934C015B01EA01390181E0809346
:10248000C20288E68093E4021092C3021092E50231
:1024900090E080E00E941C0A0E94AF0867E070E0B4
:1024A00088E690E00E94521183E993E00E94A60919
:1024B000982F929597702AE0522E8F70959D800DDF
:1024C0001124F401808383E993E00E94A609982FE8
:1024D00092959F708F70959D800D1124F5018083DA
:1024E00083E993E00E94A609982F929593708F70CC
:1024F000959D800D1124888383E993E00E94A609AD
:10250000982F92959F708F70959D800D1124F301E7
:10251000808383E993E00E94A609982F92959F708B
:102520008F70959D800D1124F801808383E993E0DD
:102530000E94A609982F92959F708F70959D800D8F
:102540001124F701808383E993E00E94A609982F64
:1025500092959F708F70959D800D1124F601808358
:10256000DF91CF911F910F91FF90EF90DF90CF906F
:10257000BF90AF909F908F907F906F905F900895E5
:10258000CF92DF92EF92FF926B017C0181E080930A
:10259000C20280E58093E4021092C3021092E50229
:1025A000BB27AF2D9E2D8D2D0E941C0AC601992799
:1025B0000E941C0A0E94AF0861E070E080E590E094
:1025C0000E94521183E993E00E94A609FF90EF90C8
:1025D000DF90CF900895CF92DF92EF92FF92CF934A
:1025E000DF936B017C01D42FC1E0C093C20280E570
:1025F0008093E4021092C3021092E502BB27AF2D34
:102600009E2D8D2D0E941C0AC60199270E941C0A2E
:1026100061E070E080E590E00E94521183E993E070
:102620000E94A6096D2F83E993E00E94ED091092A4
:10263000BF0265E070E080E090E00E94910DC093E1
:10264000BF02DF91CF91FF90EF90DF90CF900C947D
:10265000AF08CF92DF92EF92FF920F931F93CF9329
:10266000DF93EC01162F8B819C8180FD18829C01E9
:102670002F713327232B19F0807E9C838B838A89CB
:1026800085FF02C08F7D8A8B642FCE010E94E70FE9
:10269000082F8D899E89009741F12A8981FF21C0E9
:1026A00020612A8B2A8982FF1EC028602A8B53E072
:1026B000969587955A95E1F79E8B8D8B8B819C81A2
:1026C00085FFB7C090689C838B838B819C8193FD31
:1026D00003C098609C838B838A8980628A8B81E0A7
:1026E00007C02F7EDECF277FE1CF17FF13C080E02A
:1026F000082B09F4A0C08D819E81892B09F0A1C00F
:10270000802FDF91CF911F910F91FF90EF90DF907D
:10271000CF9008958B89282F2295207F2595259588
:1027200025952595022E000C330B412F012E000C10
:10273000550B24173507D9F2220F331F220F331FF1
:10274000242B352B220F331F41E656E164E979E44F
:1027500004C075956795579547952A95D2F74370AC
:1027600085958595859585958150480F4295407F43
:102770004595459545954595842F8295807F912F68
:102780009F70892B8B8B807F09F4B1CF8A89982F1A
:102790009370913009F43FC0D0F1923009F43EC0FB
:1027A00091E014160CF090E082FB222720F992179A
:1027B000D1F191E02B892F702B8BC92E092E000CA3
:1027C000DD08EE08FF084E855F85688979894C0D24
:1027D0005D1D6E1D7F1D4E875F87688B798B9130E5
:1027E00021F580618A8B0E94D80629813A81AB014C
:1027F000421B530B9A014C895A897A836983852F2E
:1028000042171306A1F098F088608A8B57CF1330D7
:1028100009F06DCFC5CF112319F269CF11501230D5
:1028200008F0BECF64CF9FEFC5CF8F7EDBCF877F11
:10283000ECCF18824ACFCE010E949C1081115BCF51
:102840005FCFCE010E94B7105BCF0F931F93FC01A7
:10285000048115812681378140E052E16AE770E00A
:1028600090E0041715072607370740F4769567951B
:10287000579547959F5F9630A1F797E0292F206ADB
:1028800026959095917080910D02882361F08FB705
:10289000F89430910D023130A1F43DB330930C0225
:1028A0003DB33DBB8FBF2CBD9DBD808187FD0CC05E
:1028B00070E060E0082E000C990B1F910F910C94B2
:1028C000350A80930C02EFCF1F910F910895CF939B
:1028D000DF93EC010E9425148A8587FD05C060E026
:1028E000DF91CF910C94370A80E0DF91CF910C9467
:1028F0005C0ABF92CF92DF92EF92FF920F931F93E9
:10290000CF93DF93EC01888D87FD03C061E00E94C7
:102910007706898D87FD03C061E00E9477061FB7A7
:10292000F89480910E02811127C0EFE1F8E08491C4
:10293000EEE3F8E09491E82FF0E0EE0FFF1FEE5089
:10294000F84FA591B491EC91E92321F461E081E184
:102950000E94490661E081E10E9477068CB58061A2
:102960008CBD8CB580648CBD61E08FE00E947706E1
:1029700061E080E10E94770680910E028F5F809374
:102980000E021FBF0F8907FD28C061E0802F0E9443
:102990007706002E000C110B61E070E0C8010E9468
:1029A000350A6AE070E080E090E00E94910D70E0EE
:1029B00060E0C8010E94350A6AE070E080E090E0C3
:1029C0000E94910D61E070E0C8010E94350A64E147
:1029D00070E080E090E00E94910D80E890E09B83A1
:1029E0008A8380EA90E09D838C8368E770E080E0D2
:1029F00090E00E94910D0D88DE89C02DCE010E94CD
:102A000067140CEA11E084E1E82E82E0F82EBB2482
:102A1000BA94CC24C394F801D490CC2089F1FFEF70
:102A2000CF1217C0CE010E94400A8FEFD81661F076
:102A30006D2D70E090E080E00E94910DCE010E942B
:102A40006714CC24C3940BC064EF71E080E090E085
:102A5000F3CF8D2D0E945C0ABB24BA94C12C0F5F6A
:102A60001F4FE016F106B9F6CE01DF91CF911F910D
:102A70000F91FF90EF90DF90CF90BF900C94400AA1
:102A8000EFEFBE120AC0D7FC13C0DD20D1F261E027
:102A90008A850E94370ABD2CE2CFBA948D2D0E9400
:102AA0005C0AB110DCCF60E08A850E94370AC9CF8A
:102AB000CD2CD5CFDF92EF92FF920F931F93CF9340
:102AC000DF93EC017B01D42E2115310509F457C0A9
:102AD0008B0101501109020F131FCE010E946714D0
:102AE0008AE20E945C0A61E08A850E94370A80E0DF
:102AF0000E945C0A8F858E0D0E945C0A80E00E9415
:102B00005C0AEB85FC85808191810817190710F01C
:102B10000FEF080F8F85800F0E945C0A60E08A85A6
:102B20000E94370A8BE20E945C0A61E08A850E945B
:102B3000370A80E00E945C0A89898D0D0E945C0A38
:102B400080E00E945C0AEB85FC8589898150928136
:102B5000890F0E945C0A60E08A850E94370A8CE235
:102B60000E945C0A8A8587FD11C061E0DF91CF91E8
:102B70001F910F91FF90EF90DF900C94370AEB8537
:102B8000FC850081118101501109A7CFCE010E945F
:102B9000400ACE010E94251480E4DF91CF911F915D
:102BA0000F91FF90EF90DF900C945C0ACF92DF9230
:102BB000EF92FF9230E020E050E040E070E060E013
:102BC00080914405909145050E945A152091310548
:102BD00030913205A0913305B09134050E944A34FA
:102BE0006B017C0181E0C81AD108E108F1088FEF80
:102BF000C816D806E806F80639F080E00E945C0A9C
:102C000080E00E945C0AEECF8091440590914505DA
:102C1000FF90EF90DF90CF900C94400A2F923F925C
:102C20004F925F926F927F928F929F92AF92BF92DC
:102C3000CF92DF92EF92FF920F931F93CF93DF9388
:102C4000CDB7DEB72B970FB6F894DEBF0FBECDBF62
:102C5000582E7B014A01182F612C1F82712CA091E4
:102C60004205B091430511968C91119790E0880F21
:102C7000991F2091310530913205281B390B12170D
:102C8000130609F030F4F401E70DF11D8081811184
:102C900020C048E0E40EF11C80913305909134058A
:102CA000E816F90608F00CC1639415968C911597F7
:102CB00090E0880F991F6816190609F07AC0F40190
:102CC000E70DF11D8081882309F4FAC0152D7F825C
:102CD000612C6091340370913503F401E70DF11D0F
:102CE000808173946115710509F066C0682F70E0EA
:102CF000803C98F710923503109234031C96ED91A6
:102D0000FC911D97AE014F5F5F4FCD010995862D58
:102D100090E0959587954A819C01E3E0220F331F4F
:102D2000EA95E1F709814217130609F00CF4B9C0DE
:102D3000089F9001099F300D11248C819D81820F85
:102D4000931F9D838C83862D817088871986888543
:102D50009985880F991F880F991F9B878A87412E15
:102D60000E839E81911132C0000F100F2B8130E035
:102D7000220F331F612F70E0A701809144059091CD
:102D800045050E945A1508E0C0904005B0904105E5
:102D9000D12C8B8190E0880F991FD81619060CF062
:102DA00084C08B2D0E945C0A8C2D0E945C0AD394F7
:102DB000F0CF152D7F808DCFF6E0660F771FFA9547
:102DC000E1F7607C77708F73682B94CFEC81FD8185
:102DD000E491F0E00A8402C0F595E7950A94E2F7E1
:102DE00030E020E0C12C24303105C1F0CF01022EAB
:102DF00002C0959587950A94E2F780FF0DC0C9013E
:102E0000880F991F43E001C0440F8A95EAF7842F89
:102E1000C82A2F5F3F4FE7CF80E0FACF642D70E0E4
:102E200022E030E0A70180914405909145050E9481
:102E30005A15B12CA12CD12CC6010A2C02C0959593
:102E400087950A94E2F730903E0520903F0580FD7B
:102E500004C03090400520904105822D0E945C0AFC
:102E6000832D0E945C0A822D0E945C0A832D0E94A1
:102E70005C0A8FEFA81AB80A98E0A916B104E1F627
:102E800080914405909145050E94400A43944394E3
:102E90008C819D8101969D838C834E8141504E8310
:102EA00060CF8B81800F8B835FCF015009F06CCF97
:102EB000180F80914405909145050E94400ACFCE9D
:102EC0002B960FB6F894DEBF0FBECDBFDF91CF912A
:102ED0001F910F91FF90EF90DF90CF90BF90AF9038
:102EE0009F908F907F906F905F904F903F902F902A
:102EF00008959F92AF92BF92CF92DF92EF92FF928E
:102F00000F931F93CF93DF936A01D0914005B09048
:102F10004105A0903E0590903F0520E230E0AB01D6
:102F2000BC0180914405909145050E945A1581E2AB
:102F3000E82EF12CC1E081E0E81AF108F1F010E090
:102F400000E0F601E00FF11FE491EC2389F0892DF8
:102F50000E945C0A8A2D0E945C0A0F5F1F4F00329C
:102F6000110579F7C6018096CC0F29F76C01E2CFE5
:102F70008B2D0E945C0A8D2FEECF8091440590919D
:102F80004505DF91CF911F910F91FF90EF90DF905A
:102F9000CF90BF90AF909F900C94400A90E09C011E
:102FA000235D374F825F974FF901613009F440C0CC
:102FB000623001F14491FC015491E52FF0E0EE0FF5
:102FC000FF1FEE50F84FA591B4915C9140954523B9
:102FD0004C93F9012491FC018491E82FF0E0EE0F6D
:102FE000FF1FE050F84FA591B4918C9120952823B4
:102FF0002C9308954491FC015491E52FF0E0EE0FDD
:10300000FF1FEE50F84FA591B4915C914095452378
:103010004C93F9012491FC018491E82FF0E0EE0F2C
:10302000FF1FE050F84FA591B4918C91282BE0CF71
:103030002491FC018491E82FF0E0EE0FFF1FEE5089
:10304000F84FF1CF90E0FC01E25FF74FE491F0E040
:10305000EE0FFF1FE553F94FA591B4912C91835DBD
:10306000974FFC018491822391E009F490E0892F2D
:1030700008951F93CF93DF93EC01862F6F8B488FBA
:10308000298F60E00E94CE1760E0888D0E94CE17E5
:1030900062E0898D0E94CE178B819C8190619C8318
:1030A0008B838F890E942218182F888D0E942218E6
:1030B000880F812B982F9F708B89807F892B8B8B1A
:1030C000DF91CF911F910895CF93DF93EC01809111
:1030D0002305909124050097E9F0688179816115B5
:1030E0007105B1F040912505509126052C813D8157
:1030F0004217530768F00E9438378C819D81909366
:103100002805809327051D821C82DF91CF910895A9
:103110000E94D0358881998190932405809323055E
:103120008A819B8190932605809325058C819D81C2
:103130009093280580932705198218821B821A8292
:10314000E2CFCF93DF93EC0188819981009711F052
:103150000E94D035198218821D821C821B821A821D
:10316000DF91CF910895FC0180819181009711F04A
:103170000C94D0350895009711F481E090E00C9400
:103180003435FF920F931F93CF93DF938C01EB01A4
:10319000F8800E94A933F81621F06F2DC8010E9413
:1031A000B133CE01DF91CF911F910F91FF90089520
:1031B000DF92EF92FF920F931F93CF93DF93809153
:1031C000BC028F5F853008F048C08093BC026CEB76
:1031D00072E085EF93E00E94C1188091B9028823C4
:1031E00009F44DC04FEF6FEF8FEF0E94590CCFEDF8
:1031F000D3E0FE0161937193819394E0EA35F9077E
:10320000C9F71092BF02DD24D39485E8E82E83E04D
:10321000F82E06E812E08091BC0290E00196D816E4
:10322000190609F0ECF4F701849180930B050E94D4
:1032300052046AEF70E080E090E00E94910DF80186
:10324000849180930B050E9452046AEF70E080E045
:1032500090E00E94910DD394DECF1092BC02B7CFC4
:1032600040E060E080E00E94590C69937993899373
:10327000F4E0CA35DF07C9F781E08093BF02DF9130
:10328000CF911F910F91FF90EF90DF9008950C94D4
:10329000A9330E941637FC0124813581232B39F490
:1032A00021E0FB018081882349F020E007C0808174
:1032B00091810E942F3721E0892BB9F7822F089541
:1032C000CF93DF93EC016DE771E00E944B19811100
:1032D00005C0CE01DF91CF910C94840EDF91CF9188
:1032E00008950F931F93CF93DF93EC018881998109
:1032F000009759F02A813B812617370730F081E08B
:10330000DF91CF911F910F9108958B016F5F7F4FD8
:103310000E945936009759F0998388831B830A834A
:103320002C813D81232B59F7FC011082E8CF80E0EE
:10333000E7CFEF92FF920F931F93CF93DF93611527
:10334000710541F480E0DF91CF911F910F91FF90C3
:10335000EF90089541155105B1F07B01EC010C810E
:103360001D81040F151FB8010E947119882351F3A4
:10337000288139818C819D81B701820F931F0E9422
:1033800038371D830C8381E0DECFEF92FF920F93DD
:103390001F93CF93DF9300D000D0CDB7DEB77C0171
:1033A000862F4AE08E010F5F1F4FB80190E00E9408
:1033B0003332F80101900020E9F73197AF01401B4B
:1033C000510BB801C7010E949919811103C0C701AF
:1033D0000E94A118C7010F900F900F900F90DF91DE
:1033E000CF911F910F91FF90EF900895CF93DF93AE
:1033F000EC01FB0101900020E9F73197AF01461B7A
:10340000570B0E949919811103C0CE010E94A11887
:10341000CE01DF91CF910895CF93DF93EC01FB01B3
:1034200044815581608171810E949919811103C085
:10343000CE010E94A118CE01DF91CF910895EF92A5
:10344000FF920F931F93CF93DF93EC017B018A01CF
:10345000BA010E94711981110BC0CE010E94A118FE
:10346000CE01DF91CF911F910F91FF90EF900895C2
:103470001D830C83B701888199810E943837F0CF72
:10348000FB0101900020E9F73197AF01461B570B74
:103490000C941F1A0F931F93CF93DF93CDB7DEB712
:1034A00029970FB6F894DEBF0FBECDBF8C01862FD3
:1034B000F8011182108213821282158214824AE06E
:1034C000BE016F5F7F4F90E00E948432BE016F5F4C
:1034D0007F4FC8010E94401A29960FB6F894DEBFAC
:1034E0000FBECDBFDF91CF911F910F910895CF9364
:1034F000DF93EC01FB018617970749F0608171812A
:103500006115710541F0448155810E941F1ACE0159
:10351000DF91CF9108950E94A118F9CFFC0111828B
:10352000108213821282158214820C94771AFC0185
:10353000118210821382128215821482FB01019083
:103540000020E9F73197AF01461B570B0C941F1A67
:10355000AF92BF92CF92DF92EF92FF920F931F93A1
:10356000CF93DF936C015B017A0189012417350742
:1035700020F48F2D7901042F182F6DE771E0C6011B
:103580000E94971AD5011496CD91DC91EC16FD0698
:10359000E0F40C171D0708F4E801D501ED91FC914A
:1035A0001197EC0FFD1F108110826D917C916E0DB3
:1035B0007F1DC60161157105A1F00E94401AF50139
:1035C00080819181C80FD91F1883C601DF91CF91E7
:1035D0001F910F91FF90EF90DF90CF90BF90AF9031
:1035E00008950E94A118EBCFEF92FF920F931F93C3
:1035F000CF93DF93CDB7DEB762970FB6F894DEBFF7
:103600000FBECDBFE82E6DE771E0CE010D960E9492
:10361000971A0DEE13E0C8010E944719F82E682F83
:10362000CE0107960E944A1ABE01635F7F4FCE010A
:1036300001960E948E1ABE01695F7F4FCE010196EE
:103640000E940C1ABC01CE010D960E94771ACE0181
:1036500001960E94B318CE0107960E94B318083F46
:1036600083E01807D4F4BE01635F7F4FCE0101965B
:103670000E948E1A6EE771E0CE0101960E94F61943
:10368000BC01CE010D960E94771ACE0101960E94D0
:10369000B318F801E953F140F0820F5F1F4F011595
:1036A00084E0180709F0B7CF81E0E81204C0CE012A
:1036B0000D960E94840ECE010D960E94B31862965C
:1036C0000FB6F894DEBF0FBECDBFDF91CF911F9133
:1036D0000F91FF90EF90089585ED8093BC0080914D
:1036E0000E0390910F03A0911003B0911103079660
:1036F000A11DB11D23E0B695A795979587952A95AD
:10370000D1F72091BC0024FD03C010920C03089552
:1037100040910E0350910F036091100370911103BB
:10372000452B462B472B69F30097A105B10541F0C6
:103730002AE22A95F1F700C00197A109B109E1CF6A
:1037400080910D030C948E086F927F928F929F92BE
:10375000AF92BF92CF92DF92EF92FF920F931F939F
:10376000CF93DF9300D000D000D0CDB7DEB75C019F
:10377000862F90E00E94BB184C016C01F12CE12CCB
:103780008091B902882321F08091BE020E94B40C7E
:10379000F50184819581E816F90670F460807180E6
:1037A00060E470E0C3018E0D9F1D0E9424378C01E0
:1037B00006191709892B11F40FEF1FEF0F3F1007A0
:1037C000D1F09801A701B501CE0101960E94A81A77
:1037D00089819A8160E0009711F00E940C32F60115
:1037E00061936F017801FFEFEF1AFF0ACE01019696
:1037F0000E94B318C5CFC40126960FB6F894DEBF59
:103800000FBECDBFDF91CF911F910F91FF90EF9031
:10381000DF90CF90BF90AF909F908F907F906F90F0
:103820000895EF92FF920F931F93CF93DF93CDB73D
:10383000DEB7A8970FB6F894DEBF0FBECDBF8C01E0
:103840006DE771E00E94971AF090730261E08F2D8E
:103850000E944906E090760260E08E2D0E944906A3
:1038600061E08E2D0E94490660E08F2D0E9449067E
:10387000F12C8091770228E0829FC0011124F81674
:10388000190694F5809174020E9420061CA21BA2C6
:103890001EA21DA218A61FA2BC01990F880B990B8E
:1038A0002AE0AE014F5F5F4F0E943E32BE016F5F64
:1038B0007F4FCE0183960E94401A4FA158A56BA15D
:1038C0007CA1C8010E949919CE0183960E94B31869
:1038D000E090750261E08E2D0E94490660E08E2D19
:1038E0000E944906F394C5CFF80124813581281739
:1038F000390798F460E871E0CE0101960E94971AAA
:10390000B801CE0101960E940C1ABC01C8010E94A8
:10391000771ACE0101960E94B318C801A8960FB677
:10392000F894DEBF0FBECDBFDF91CF911F910F91F5
:10393000FF90EF9008954F925F926F927F928F92D7
:103940009F92AF92BF92CF92DF92EF92FF920F932E
:103950001F93CF93DF93CDB7DEB768970FB6F89478
:10396000DEBF0FBECDBF082F0E94D8062B013C0141
:103970004FEF6FEF8FEF0E94590C6B01E82E2091F3
:10398000BA0230E0EFEDF3E090E080E082179307B9
:103990002CF4C192D192E1920196F8CF40E060E020
:1039A00080E00E94590C9B01482FE091BA028E2FB3
:1039B00090E053E0E59FF0011124E152FC4F853681
:1039C00091052CF42193319341930196F8CFE09126
:1039D000BD02F0E0EA57FD4FE491E0930B050E9431
:1039E0005204E02EF12C8EE0089F6001112411E0BA
:1039F0008EE0982E882483940E94D8066419750955
:103A000086099709683B7B408105910508F460C0F1
:103A10006DEB72E086EF93E00E94C1186091BC02EA
:103A2000CE0143960E944A1A6091BD02CE010D96C6
:103A30000E944A1A6091BE02CE0107960E944A1A5D
:103A400062E871E0CE0101960E94971ABE01695F9B
:103A50007F4FCE0101960E940C1A62E871E00E942D
:103A6000F619BE01635F7F4F0E940C1A62E871E095
:103A70000E94F619BE016D5E7F4F0E940C1A0E94D3
:103A8000840ECE0101960E94B318CE0107960E94C3
:103A9000B318CE010D960E94B318CE0143960E9432
:103AA000B31868960FB6F894DEBF0FBECDBFDF9196
:103AB000CF911F910F91FF90EF90DF90CF90BF902B
:103AC000AF909F908F907F906F905F904F900895F0
:103AD0008091B702882361F0CE0101960E94111CEB
:103AE000CE0101960E946418CE0101960E94B3187F
:103AF00080917B020817C8F5809171029091720243
:103B00008C0D9D1DE0917802F0917902EE0DFF1D64
:103B1000E0812E2F30E04091270550912805241791
:103B2000350730F4E0912305F09124053097D1F466
:103B30001092F201E2EFF1E061E02081203309F020
:103B400060E00E94241180917102909172028C0DAC
:103B50009D1D0E94CE108430C1F1883009F04CCFF9
:103B600018254ACFE20FF31FE7CF9701281B310931
:103B7000C901989E9001999E300D1124A0906D026C
:103B8000B0906E02A20EB31EE0916F02F09170022F
:103B9000E80FF91F80810E94200661E0892B09F05F
:103BA00060E0C5010E94241180917B029701281BCF
:103BB0003109929EC001939E900D112420916D02B7
:103BC00030916E02820F931FC4CF0E94D8062B0142
:103BD0003C018091BD02112381F08B3F18F48B5F73
:103BE0008093BD02E091BD02F0E0EA57FD4FE49101
:103BF000E0930B050E945204FFCE853098F3855068
:103C0000EFCF2F923F924F925F926F927F928F925F
:103C10009F92AF92BF92CF92DF92EF92FF920F935B
:103C20001F93CF93DF93CDB7DEB768970FB6F894A5
:103C3000DEBF0FBECDBFD82EE62EF42E922E0E94F0
:103C4000820C8B0122E0E21609F4DAC02E15F8F09E
:103C5000EE2049F181E0E81609F461C068960FB6DC
:103C6000F894DEBF0FBECDBFDF91CF911F910F91B2
:103C7000FF90EF90DF90CF90BF90AF909F908F908C
:103C80007F906F905F904F903F902F90089523E02A
:103C9000E21609F4C2C024E0E212E0CFF110D8C06D
:103CA000075E1F4FB5C02091BA02D21628F46B01EF
:103CB00023E6C20ED11C04C06B0129E0C20ED11C48
:103CC000C114D10459F2812CE12C8AE0782E92E3C0
:103CD000292E312C412C512CC016D10608F4BECF10
:103CE000B80190E080E00E94C012F82E58018FEFDA
:103CF000A81AB80AB50190E080E00E94C012682EB0
:103D00008FEF8F0DE110BCC08E3F08F4B9C0015099
:103D10001109B80190E080E00E94C0129FCF83E0BB
:103D2000F81202C00E94D8188091B902882309F4C1
:103D300062C0F11054C08091BE028F5F873018F4CA
:103D40008093BE0202C01092BE026EEB72E087EF5B
:103D500093E00E94C1186091BC02CE0143960E947C
:103D60004A1A6091BD02CE010D960E944A1A6091D6
:103D7000BE02CE0107960E944A1A62E871E0CE01A7
:103D800001960E94971ABE01695F7F4FCE0101968E
:103D90000E940C1A62E871E00E94F619BE01635F8E
:103DA0007F4F0E940C1A62E871E00E94F619BE0172
:103DB0006D5E7F4F0E940C1A0E94840ECE01019608
:103DC0000E94B318CE0107960E94B318CE010D963B
:103DD0000E94B318CE0143960E94B3183FCF21E052
:103DE000F21202C084E1ACCF82E0F812B4CF8D2D84
:103DF0000E949B1C33CF22E0F21609F42FCFABCFE9
:103E0000F11003C00E5C1F4F52CF21E0F21226CFFB
:103E10006B0121E3C20ED11C53CFF11007C00F5D1F
:103E20001F4F6B0121E4C20ED11C4ACF22E0F212D7
:103E300007C00E5B1F4F6B0122E6C20ED11C40CFA4
:103E400021E0F2120BCF6B0120E2C20ED11C38CF61
:103E500022E0F21207C00E5C1F4F6B012AE4C20E73
:103E6000D11C2ECF23E0F21203C0055B1F4F1FCFE2
:103E700021E0F212F3CE6B0128E1C20ED11C20CF5B
:103E80008B30C0F16F2D8CEC93E0911027C00E9415
:103E9000420F21E0621691F0EE2031F00E94DF0E19
:103EA000E12C0F5F1F4F18CF8FEF860D8E3F70F400
:103EB0006F2D8CEC93E00E94EC0E8F2C27E088E0B5
:103EC000F216F1F0F81233C084E01AC08820B1F382
:103ED0006F2D8CEC93E00E94EC0EF0CF0E94EC0E64
:103EE00024E0F21232C0662D8CEC93E00E94420F67
:103EF0008501D7CF91104FC086E0F812DFCF81E067
:103F00000E94D60F1092BB031092BC031092BD0307
:103F10000E94B80B23E030E04BEB53E061E00E94DD
:103F20009D0E81E0F812DCCFEE24E394BACF29E0B5
:103F300080E4F21629F38AE0F81202C080E1E0CFB3
:103F40002BE0F212DFCF80E2DBCF85E0F81206C073
:103F5000662D8CEC93E00E94EC0ECACF8EEF8F0D95
:103F6000823008F09ECF9110C3CF23E060E0F212C0
:103F700006C00E94B431A20191010E94BF3370E0DB
:103F8000679C600D711D1124072E000C880B990B86
:103F90000E94910DADCF81E0F81609F482CFA0CF39
:103FA0008F929F92AF92BF92CF92DF92EF92FF9249
:103FB0000F931F93CF93DF93CDB7DEB7A4970FB6C0
:103FC000F894DEBF0FBECDBF0E94D80600917C02E0
:103FD00010917D0220917E0230917F02601B710B57
:103FE000820B930B68397A438105910580F08091AB
:103FF0008002882361F00E94D80660937C0270934F
:104000007D0280937E0290937F02109280028091C5
:10401000B702882361F0CE0101960E94111CCE01E7
:1040200001960E946418CE0101960E94B3188091F7
:10403000BB028F3F09F4A9C000916B0210916C0282
:10404000F801818D928997FF2EC00E942218482F77
:104050006FEFC8010E942913882309F496C0E090ED
:104060006B02F0906C02F701828985FD0AC0C701DE
:104070000E94CE108032910599F18034910509F0AB
:1040800084C0F7019289892F807294FD1DC0882316
:1040900009F47BC01481110F110B8381948197FF68
:1040A00071C015E023C00E942218F82EF8018789FC
:1040B0000E942218E82EF801808D0E942218880F95
:1040C000682F6E294F2DC5CF882309F45EC08381E8
:1040D00094811FEF97FF11E097FF54C016E006C0D0
:1040E000F7011081143008F050C01F5F8091BA02B0
:1040F00090918002992309F4D8C01C8A1B8A1E8AD9
:104100001D8A188E1F8A4AE0BE016F5F7F4F810FA4
:104110009927991F0E943332BE016F5F7F4FCE01F6
:1041200043960E94401A64E871E0CE0101960E9415
:10413000971ABE016D5E7F4FCE0101960E940C1A48
:1041400066E871E00E94F61969E871E00E94F619CC
:10415000BC01CE0149960E948E1A8091800288236C
:1041600021F0CE0149960E946019CE0149960E9425
:10417000B318CE0101960E94B318CE0143960E9457
:10418000B31803C01F3F09F0B1CF6DE771E0CE0156
:104190004F960E94971A10E08EE0B82E95E6A92E51
:1041A0008091BA02181708F099C180917B02C12E44
:1041B000D12C181708F08BC01B9D70011124809121
:1041C0007102909172028E0D9F1DE0917802F09124
:1041D0007902EC0DFD1DE0812E2F30E04091270586
:1041E000509128052417350738F4E0912305F09104
:1041F0002405309709F068C01092F201E2EFF1E077
:1042000061E02081203309F060E00E942411809059
:104210007102909072028E0C9F1CC4010E94CE10FD
:10422000F82EF401E0809091BC028091BA02989F30
:10423000C00CD11C1124AC9CB001AD9C700D11249C
:104240006C597F4F072E000C880B990B0E94C012EF
:10425000082F6DE771E0CE014F960E94401A8091C1
:104260008002F4E0FF1609F4A0C0FF1508F45FC057
:1042700021E0F21609F4E0C032E0F31609F4F7C0C9
:10428000BE01615E7F4FCE0101960E948E1A809121
:104290008002882321F0CE0101960E946019CE0190
:1042A00001960E94B3181F5F7BCF20E040E060E0E2
:1042B000810F0E94011E8091BA0221E040E060E07F
:1042C000810F0E94011E61CFE20FF31F99CF96016B
:1042D000281B3109C901B89E9001B99E300D1124E7
:1042E000E0906D02F0906E02E20EF31EE0916F021C
:1042F000F0917002E80FF91F80810E94200661E0B2
:10430000892B09F060E0C7010E94241180917B0293
:104310009601281B3109B29EC001B39E900D112455
:1043200080906D0290906E02880E991E76CF98E074
:10433000F91609F461C0E0E2FE12A2CF882309F465
:10434000B9C06E2DCE0149960E944A1A612FCE0146
:1043500043960E944A1A64E871E0CE0101960E94D9
:10436000971ABE016D5E7F4FCE0101960E940C1A16
:1043700068E971E00E94F61964E871E00E94F6199C
:10438000BE01675E7F4F0E940C1ABC01CE014F96A2
:104390000E94771ACE0101960E94B318CE0143966F
:1043A0000E94B318CE01499624C0882309F45BC04B
:1043B000612FCE0143960E944A1A64E871E0CE0153
:1043C00001960E94971ABE016D5E7F4FCE01019645
:1043D0000E940C1A6CE871E00E94F619BC01CE0133
:1043E0004F960E94771ACE0101960E94B318CE0113
:1043F00043960E94B31844CF8823A9F0612FCE01C1
:1044000043960E944A1A64E871E0CE0101960E9428
:10441000971ABE016D5E7F4FCE0101960E940C1A65
:104420006FE871E0D9CF01112BCF21E040E060E0CF
:10443000812F0E94011E24CF8823A9F0612FCE0175
:1044400043960E944A1A64E871E0CE0101960E94E8
:10445000971ABE016D5E7F4FCE0101960E940C1A25
:1044600062E971E0B9CF20E001110ACFDFCF8823E4
:10447000A9F0612FCE0143960E944A1A64E871E0C8
:10448000CE0101960E94971ABE016D5E7F4FCE014C
:1044900001960E940C1A65E971E09ECF20E041E090
:1044A000002309F4EDCE602F812F0E94011E0E948F
:1044B000DF0EE6CE002309F4E3CEF1E020E040E099
:1044C000EF1689F322E0E21203C020E042E0EBCFD6
:1044D00033E0E312ECCF20E043E0E5CFCE014F968E
:1044E0000E94B318A4960FB6F894DEBF0FBECDBFDE
:1044F000DF91CF911F910F91FF90EF90DF90CF90C0
:10450000BF90AF909F908F900895AF92BF92CF923F
:10451000DF92EF92FF920F931F93CF93DF93CDB76C
:10452000DEB72C970FB6F894DEBF0FBECDBF182FA5
:10453000A62E7A01D22EBB24BA948734A8F0282F55
:1045400030E050E040E02654310941095109A1E032
:10455000BFEF0E94EC332FE030E040E050E00E94DB
:10456000BF33BB24BA94B20E8091B902882309F4F8
:1045700082C08091BE020E94B40CCC24CA9416342E
:1045800098F4212F30E050E040E0275331094109F1
:104590005109AFEFB0E00E94DE332FE030E040E0A1
:1045A00050E00E94BF33C22E8091B902882321F0CF
:1045B0008091BE020E94B40C183308F458C015351F
:1045C00018F0CC24CA94B12C3AE0812F632F0E94BA
:1045D000FA34805D8983905D9A8383E48B838CE2D7
:1045E0008C8320E22D838A2D0E94FA34805D8E8395
:1045F000905D9F8385E2888729872A872B871C8681
:104600005B2D4C2D88E0B89E90011124207E3770E0
:10461000542F44274427587F242B352B30933F05B4
:1046200020933E0510E0CD2CD12CA701B801C60186
:104630000E947917B801675F7F4FAE014F5F5F4FF0
:10464000C60186960E940E160E94D01F2C960FB6A9
:10465000F894DEBF0FBECDBFDF91CF911F910F91B8
:10466000FF90EF90DF90CF90BF90AF900895C12C56
:10467000BB24BA94A9CFCC24CA94163408F09FCF97
:1046800080CF1F920F920FB60F9211242F933F935A
:104690008F939F93AF93BF938091AC029091AD02A3
:1046A000A091AE02B091AF023091AB0223E0230F94
:1046B0002D3758F50196A11DB11D2093AB028093B3
:1046C000AC029093AD02A093AE02B093AF02809182
:1046D000B0029091B102A091B202B091B3020196E2
:1046E000A11DB11D8093B0029093B102A093B202BC
:1046F000B093B302BF91AF919F918F913F912F9152
:104700000F900FBE0F901F90189526E8230F02966A
:10471000A11DB11DD2CF1F920F920FB60F9211247F
:104720002F933F934F935F936F937F938F939F93B9
:10473000AF93BF93CF93EF93FF93C091E10080912C
:10474000E100837F8093E100C3FF0FC01092E90076
:1047500081E08093EB001092EC0082E38093ED0007
:104760001092C10288E08093F000C2FF1AC00E943C
:104770009F0580916402882341F0809164028150FA
:1047800080936402811101C05D988091C0028823EA
:1047900041F08091C00281508093C002811101C01C
:1047A0002898C4FF23C08091E2008E7E81608093B0
:1047B000E2008091E1008F7E8093E10080916502AC
:1047C0008E7E806180936502FF91EF91CF91BF91C2
:1047D000AF919F918F917F916F915F914F913F9199
:1047E0002F910F900FBE0F901F901895C0FFECCF28
:1047F0008091E2008E7E80618093E2008091E100F2
:104800008E7E8093E100809165028E7E8160DACF9A
:104810001F920F920FB60F921124CF92DF92EF9258
:10482000FF920F931F932F933F934F935F936F9339
:104830007F938F939F93AF93BF93EF93FF93CF9308
:10484000DF93CDB7DEB76C97DEBFCDBF1092E90026
:104850008091E80083FF25C068E0CE0145960E9464
:104860004E0782EF8093E8008D8987FF39C09091D1
:10487000E80090FFFCCF982F907609F034C19E8914
:104880004F89588D2F89F88C911131C0803861F58E
:10489000809166028093F1001092F1008EEF809378
:1048A000E8006C960FB6F894DEBF0FBECDBFDF9167
:1048B000CF91FF91EF91BF91AF919F918F917F9198
:1048C0006F915F914F913F912F911F910F91FF90A9
:1048D000EF90DF90CF900F900FBE0F901F90189524
:1048E0009EEF9093E800C7CF1092F100D5CF9130A2
:1048F00059F48111D3CF4130510581F68091660280
:104900008D7F80936602CACF933049F48111C6CF60
:104910004130510519F6809166028260F2CF9530E0
:1049200041F48091E80080FFFCCF20682093E300F1
:10493000B5CF963009F0A9C00B8D1C8D22E01092E6
:10494000E9001092620210926102F2122EC01092DF
:10495000600210925F020E946F071F8299E09983A4
:10496000FA8291E09E8390EA98879AEF9987209146
:10497000610230916202275F3F4F3C832B838D831E
:104980001092E9001092620210926102109360028C
:1049900000935F0249E050E0BE016F5F7F4F80E00F
:1049A0000E9417070E946F0779CF1093600200934F
:1049B0005F020E945B07DC0112960D911C910115AC
:1049C000110509F451C1D801ED91FC910480F581E4
:1049D000E02DBE016B5E7F4FC8010995009709F07D
:1049E0003EC1F80100851185EACFF3E0FF120EC049
:1049F0008F89882309F440C0823061F440E86DE07B
:104A000088E792E00E945927811148CF81E2809384
:104A1000EB0047CF813029F440E86BE08CE692E070
:104A2000F1CF833099F70E945B07DC011296ED907D
:104A3000FC908E010F5F1F4F6801E114F10479F0C3
:104A4000D701ED91FC910680F781E02DB801C701F7
:104A50000995080F111DF701E084F184EECFD8010C
:104A60001C92F60101900020E9F73197BF016C1903
:104A70007D0940E0C601C6CF66E572E0FB014491C6
:104A800050E080E80E94170709CF973009F4BECFA5
:104A9000983021F481E08093F10000CF993009F043
:104AA000FDCE837009F0B2CFE1E0F1E081E031E0CA
:104AB00096E32191222371F08093E9003093EB007B
:104AC000DF0111972C912093EC009093ED008F5F04
:104AD000873079F78EE78093EA001092EA008F8999
:104AE0008093C102DBCE8B8D9C8D1092E9001092D9
:104AF0006202109261029093600280935F02898D3E
:104B0000811192C08E899D89913A49F4813209F0D0
:104B10007DCF47E050E06BE071E080E0B3CF9132B1
:104B200009F074CF833269F48F89988DB0E0A0E0EA
:104B30008093070190930801A0930901B0930A01A3
:104B4000ADCE803269F48091E80082FFFCCF67E04F
:104B50008BE091E00E944E078BEF8093E8009ECEA1
:104B6000823209F09BCE8F8980931201EEEFFFE72E
:104B7000859194918B3F9C4D51F1E0E0F8E080915C
:104B80000B0190910C01A0910D01B0910E01803BA1
:104B90009440A105B105F1F48091120180FD1AC085
:104BA000EE3F8AE0F80789F587E797E791838083EE
:104BB000809160008093630288E19BE00FB6F894D7
:104BC000A895809360000FBE9093600067CEEEEFD3
:104BD000FAE0D5CF808191818737974709F05ECE83
:104BE000A895809160008861809360008091630245
:104BF00080936000EE3F2AE0F20789F08091FE0A80
:104C00009091FF0A9183808349CE8081918187377B
:104C1000980751F29093FF0A8093FE0AC5CF109235
:104C2000FF0A1092FE0A3ACE0E945B07DC01129640
:104C30000D911C910115110509F4E8CED801ED91F3
:104C4000FC910190F081E02DBE016B5E7F4FC801A9
:104C50000995811123CEF80100851185EBCF181637
:104C600019060CF41BCED2CEF1E0FF12BECE6AE5DF
:104C700072E004CF1F920F920FB60F9211242F9360
:104C80003F934F935F936F937F938F939F93AF93D4
:104C9000BF93EF93FF938091B900887F803609F42A
:104CA0004AC0F0F5883209F4A7C018F5803109F43C
:104CB0009BC0B8F4882309F4F9C0883009F494C083
:104CC000FF91EF91BF91AF919F918F917F916F91E4
:104CD0005F914F913F912F910F900FBE0F901F90BA
:104CE0001895883109F488C0803251F780930A03FF
:104CF00014C0803409F49DC040F48033B9F3883384
:104D0000F9F680930A0385ECB0C0803509F485C0BC
:104D1000883509F496C0883499F60E946C1BD0CF70
:104D2000883909F48CC038F5883729F050F4883672
:104D300011F0803729F683E080930C031092520221
:104D400057C0883809F47BC0803919F0803809F0E1
:104D5000B7CF80915202803208F071C0E0915202C8
:104D600081E08E0F809352028091BB00F0E0EE5CF8
:104D7000FD4F80833DC0803B39F0E0F4803A09F478
:104D800079C0883A09F09CCF84E080930C0310929C
:104D9000310210923002E0916902F0916A020995A5
:104DA0008091300281110FC081E080933002109217
:104DB000100209C0803C09F4A6CF883C09F4A3CFB7
:104DC000883B09F07DCFE091310281E08E0F809326
:104DD0003102F0E0E05FFD4F80818093BB00909155
:104DE00031028091300229C0809107038093BB007B
:104DF00085EC8093BC0064CF9091090380910803F7
:104E0000981758F5E091090381E08E0F809309030C
:104E1000F0E0EA51FD4F8081E9CFE091090381E0A4
:104E20008E0F809309038091BB00F0E0EA51FD4FA3
:104E3000808390910903809108039817C8F285E850
:104E4000D8CFE091090381E08E0F80930903809110
:104E5000BB00F0E0EA51FD4F808380910B0381118C
:104E60005CCF81E08093060384EA8093BC001092BB
:104E70000C0326CF85EC8093BC0010920C0380912C
:104E80005202803230F4E0915202F0E0EE5CFD4FCD
:104E900010826091520270E0E0916702F091680226
:104EA00082E392E00995109252020ACF10920A030F
:104EB00034CFEF92FF920F931F93CF93DF93F82E8F
:104EC000192FE62E042F81E0860F880F0E94E90635
:104ED00083E00E94E906CF2DD12FEC0EFD2EF11CB0
:104EE000CE15DF05B9F007FF13C0FE0184910E94C3
:104EF000E906182F80E00E94E9068123219681119E
:104F0000EFCFDF91CF911F910F91FF90EF90089518
:104F10008881EDCF81E0F5CFCF93DF9310923903F5
:104F20001092380388EE93E0A0E0B0E080933A035B
:104F300090933B03A0933C03B0933D0327E431E0FF
:104F400030933703209336032FEF3FEF3093430323
:104F500020934203209386031092880310928703C4
:104F600010929203109291034FEF5FEFBA014093BA
:104F70008D0350938E0360938F0370939003109270
:104F80009603109295038093970390939803A093B0
:104F90009903B0939A0389E591E0909394038093E9
:104FA00093038CE0EFE9F3E0DF011D928A95E9F7C6
:104FB0001092AC031092AB038091B303811113C024
:104FC0001092AE031092AD0388EF96E09093B00379
:104FD0008093AF038BE490E09093B2038093B1038E
:104FE00081E08093B3030E94B80BFC01A385B485D4
:104FF000109709F028C18DEA93E09487838785850F
:1050000096852091B1033091B203820F931F96874A
:1050100085871092CF031092CE038BE691E0909398
:10502000CD038093CC038091C403811113C01092EF
:10503000BF031092BE0383EC97E09093C10380936B
:10504000C0038FE290E09093C3038093C20381E09A
:105050008093C4030E94B80BFC01A385B48510970C
:1050600009F0FCC08EEB93E0948783878585968555
:105070002091C2033091C303820F931F96878587C7
:1050800083E497E09093D9038093D80389E490E078
:105090000E944719D82F8AE490E00E944719C82F30
:1050A00088E490E00E944719109232051092310571
:1050B0001092340510923305109236051092350582
:1050C000109238051092370510923A051092390562
:1050D00010923B0510923D0510923C052FEF3FEFDB
:1050E00030933F0520933E051092410510924005F4
:1050F000109243051092420527E435E030934505B0
:10510000209344058093460587E791E0909330050E
:1051100080932F05D0934705C09348058FEF809368
:10512000490580934A0580E092E1AAE7B0E08093C8
:105130004B0590934C05A0934D05B0934E058AED19
:1051400093E09093500580934F05C093510581E300
:1051500095E0909353058093520510925405109258
:105160005505109257051092560510925905109248
:1051700058056DE771E089E295E00E94971A6DE7A6
:1051800071E083E295E00E94971A8EE290E090939E
:10519000DC038093DB0380ED97E09093DE03809344
:1051A000DD0382E380930B0580930C0510920D05BF
:1051B00010920E0510920F05109210051092110515
:1051C00010921305109212058FB78093200583E08B
:1051D00090E09093220580932105E6E3F8E0249186
:1051E00020931C0587E198E0FC013491E32FF0E067
:1051F000EE0FFF1FE050F84F459154915093150565
:1052000040931405FC018491E82FF0E0EE0FFF1F9E
:10521000EE50F84FA591B491B0931705A0931605E1
:10522000EC91E22BEC938EE190E09093DC03809381
:10523000DB0384E992E09093DE038093DD03DF914A
:10524000CF910895DC018D919C9111970097D1F732
:105250008DEA93E08D939C93D2CEDC018D919C914D
:1052600011970097D1F78EEB93E08D939C93FECE30
:10527000CF93DF93CDB7DEB7A1970FB6F894DEBF1B
:105280000FBECDBF789484B5826084BD84B5816043
:1052900084BD85B5826085BD85B5816085BD809101
:1052A0006E00816080936E00109281008091810079
:1052B0008260809381008091810081608093810071
:1052C0008091800081608093800080919100826055
:1052D00080939100809191008160809391008091F2
:1052E00090008160809390008091C10084608093E1
:1052F000C1008091C10082608093C1008091C10093
:1053000081608093C1008091C30081608093C3005D
:105310008091C00082608093C0008091C200816053
:105320008093C20080917A00846080937A0080919B
:105330007A00826080937A0080917A008160809305
:105340007A0080917A00806880937A001092C1027E
:1053500010926602109265028091D700816080935E
:10536000D70080EA8093D80089B5806189BD89B56E
:10537000826089BD09B400FEFDCF61E070E080E08D
:1053800090E00E94910D8091D8008F7C8061809385
:10539000D8008091E000807F8093E0008091E10060
:1053A0008E7E8093E1008DE08093E200559A209AF2
:1053B0005D9828988FEF9FEF90934303809342036B
:1053C00060ED77E080E090E00E94910D8EEE93E03A
:1053D0000E94471990911401891308C08FEE93E041
:1053E0000E94471990911301891761F064E171E0FF
:1053F0008EEE93E00E94C11863E171E08FEE93E0BE
:105400000E94C11882E590E00E944719182F8EEE85
:1054100093E00E94471918130BC083E590E00E94A7
:105420004719182F8FEE93E00E944719181741F182
:105430008BEE93E00E9447198031B0F08BEE93E041
:105440000E94A933882329F060E08BEE93E00E944C
:10545000B1338CEE93E00E94A933882329F060E0F9
:105460008CEE93E00E94B13364E171E082E590E05C
:105470000E94C11863E171E083E590E00E94C118C9
:1054800010921303109212031092C3021092E502BD
:105490000E94700886EE96E090936A0280936902FB
:1054A00087EE96E0909368028093670283E497E02A
:1054B0009093D9038093D80380E00E94F41A8091DE
:1054C000B802813009F0C8C08FE295E00E947914DB
:1054D0000E94D615E6E8F3E0E491E0939F03E7E845
:1054E000F3E024912093A003E8E8F3E08491809313
:1054F000A103E9E8F3E0E491E093A2034AE853E072
:105500005093A8034093A7034DE85AE05093AC038F
:105510004093AB0390E0079633E0959587953A95D5
:10552000E1F78093A403289FE02D1124E093A503C5
:105530001092A6031092AA031092A9038FE993E098
:1055400090934305809342050091440510914505D1
:10555000D8011D968C911D9780FD1CC01B96ED9166
:10556000FC911C978081918122813381318320833A
:10557000938382831F968D919C91509751962D9184
:105580003C91529750963C932E931F9752969C9322
:105590008E93519783E0F8018587C8010E942514F6
:1055A00060E0D8011A968C910E94370A88E20E9426
:1055B0005C0A86E30E945C0A61E0F80182850E9431
:1055C000370AD8011D96EC9180EAE33020F4F0E030
:1055D000E05DFE4F8081F8019685892B0E945C0A70
:1055E00060E0D8011A968C910E94370A89E20E94E5
:1055F0005C0AC8010E94400A8EE490E00E944719AC
:1056000080939A028FE490E00E94471980939B0256
:1056100080E590E00E9447198093980281E590E030
:105620000E94471980939902FE0131966F01CE01C5
:1056300007967C018E01035F1F4F9E012D5E3F4F39
:10564000AE01475E5F4FBE01625E7F4F48960E948B
:105650002B128D8580939C028091BB028F3F09F4B1
:105660005AC08DE490E00E944719D82E8CE490E057
:105670000E944719E82E8BE490E00E944719F82E0B
:105680008AE190E00E9434358C01DC0112961C9274
:105690001E92119714961C921E92139716961C92A6
:1056A0001E92159718961C921E92179782E31996D0
:1056B0008C9319978FE11A968C931A9785E21B9613
:1056C0008C931B978CE01C968C931C978EE31D96F5
:1056D0008C93F80116861786108A118A128A138A0B
:1056E0008EE1848B168A158A20E040E060E0C801D4
:1056F0000E94391810936C0200936B022D2D4E2DD1
:105700006F2DC8010E94391881E0D80154968C93FE
:10571000549719968C93E091BD02F0E0EA57FD4F43
:10572000E491E0930B058BEE93E00E944719B4E6F9
:105730008B9FC0011124909313058093120580EF75
:1057400093E00E944719182F80937B028CEE93E020
:105750000E94471980937A02112309F496C0E12E22
:10576000F12CC7010E94BB188093780290937902B4
:105770005C01D12CC12CC11650F4C6010E944719FE
:10578000F50181935F01FFEFCF1ADF0AF4CF82E3C7
:1057900090E00E9447198093770284E490E00E9491
:1057A0004719082F8093760285E490E00E944719FC
:1057B000D82E8093750286E490E00E944719C82E87
:1057C0008093740287E490E00E944719B82E80937A
:1057D000730261E0802F0E94770661E08B2D0E94AA
:1057E000770661E08D2D0E94770660E08C2D0E9487
:1057F000770660E08D2D0E94490661E0802F0E94AF
:1058000049062EE0129FC00111240E94BB18DC0142
:10581000FC0162E35FE145E23CE02EE3128211828B
:10582000148213821682158210861782618752872E
:105830004387348725873E9671E0E71AF10871F7B0
:10584000809371029093720280E04CE031E025E198
:105850009EE11A964C931A971C963C931C971B96A4
:105860002C931B9719969C9319978F5F1E9618136C
:10587000F0CFCE0101960E94111CCE0101960E942C
:105880006418CE0101960E94B318D0907A02DD20F0
:1058900009F45DC0AD2CB12CC5010E94BB18C82E07
:1058A00080936F0290937002E82EF92E082F192F23
:1058B00083E3882E912C7C2C802F8C198D1550F42D
:1058C000C4010E944719D8018D938D01BFEF8B1A37
:1058D0009B0AF2CFEEE0DE9EC00111240E94BB18AD
:1058E0008C01FC0162E35FE145E23CE02EE31282C1
:1058F00011821482138216821582108617826187A4
:1059000052874387348725873E9671E0A71AB108EE
:1059100071F780936D0290936E02FCE09F2EAA2493
:10592000A394A5E1BA2EBEE1CB2E8E2D87198D153D
:1059300070F462E0D7018D917D010E947706F80135
:105940009286A486B386C186025F1F4FEECF81E0A8
:105950008093BF02CE014E9699A388A366246A94D1
:10596000762CE0E04E2EE0E05E2E8091B902882396
:1059700021F08091BE020E94B40C0E94D01F0E94B0
:10598000D8060091A7021091A8022091A902309197
:10599000AA02601B710B820B930B60317742810569
:1059A000910538F08091A602813019F4B2E0B093ED
:1059B000A6020E94D8060091A2021091A302209193
:1059C000A4023091A502601B710B820B930B643F04
:1059D00071408105910508F470C08091A102813069
:1059E00009F06BC01092A10285E0EFE1F1E0DE0169
:1059F000599601900D928A95E1F786EF93E00E9407
:105A00004719E82EF090BD028E01075E1F4FD801A6
:105A10008D918D0190E0BC016C547D4F83519C4F62
:105A20000E94C118E8A1F9A1E017F10781F7EF146E
:105A300009F443C06091BC02CE0101960E944A1A4B
:105A40006091BD02CE0107960E944A1A6091BE0283
:105A5000CE010D960E944A1A62E871E0CE0143968B
:105A60000E94971ABE01635F7F4FCE0143960E944A
:105A70000C1A62E871E00E94F619BE01695F7F4F5F
:105A80000E940C1A62E871E00E94F619BE016F5F75
:105A90007F4F0E940C1A0E94840ECE0143960E94F2
:105AA000B318CE010D960E94B318CE0107960E943E
:105AB000B318CE0101960E94B31886E393E00E94CA
:105AC0002F08892B09F444C06DE771E0CE010D96D3
:105AD0000E94971A0E94D90797FD0FC08A3091053E
