:100000000C942A040C9452040C9452040C94520440
:100010000C9452040C9452040C9452040C94520408
:100020000C9452040C9452040C94101D0C948D1DCD
:100030000C9452040C9452040C9452040C945204E8
:100040000C9452040C9452040C9452040C945204D8
:100050000C9452040C9452040C9452040C94C61C3C
:100060000C9452040C9452040C9452040C945204B8
:100070000C9452040C9452040C9452040C945204A8
:100080000C9452040C9452040C9452040C94520498
:100090000C94BF1F0C9452040C9452040C94520400
:1000A0000C9452040C9452040C945204000000006E
:1000B0000000000001010101010101010202020230
:1000C00002020203030303030404040505050505F6
:1000D000060606060707070808080808090A0A0AA4
:1000E0000A0B0B0C0C0C0C0D0D0D0E0E0F0F0F1040
:1000F00011111111121213141414141516161717C6
:10010000171819191A1A1B1B1C1C1D1E1E1F1F2035
:1001100021212223232425252626272829292A2B85
:100120002C2D2D2E2F2F30313233343536363738B3
:1001300038393A3B3C3D3E3F4041424344454546C9
:1001400047494A4B4C4D4E4F5051525455565759B2
:100150005A5B5D5E5F60616264656667696A6C6D6B
:100160006E6F7173757677797A7B7C7F80828385F9
:100170008688898B8C8F9192939497999A9C9E9F55
:10018000A2A3A5A7A9ABADAEB0B3B4B6B9BABCBE75
:10019000C0C2C4C7C9CACDCFD1D3D6D8DADCDFE15B
:1001A000E2E6E7EBECF0F1F5F6FAFBFF01FF961162
:1001B000FFFFB103012C2DB203012C2DB306012C3E
:1001C0002D012C2DB40107B6021502C003A2028432
:1001D000C101C5C2020A00C3028A2AC4028AEEC54E
:1001E000010E20003601003A0105E0100F1A0F1829
:1001F0002F2820221F1B233700070210E1100F1B9E
:100200000F17332C292E3030393F0007031029FFF8
:100210006413FF0A080B0002020200000904000038
:10022000010202000005240010010524010101045F
:100230002402060524060001070581031000400979
:10024000040100020A000000070502024000000746
:100250000583024000000403090412010002EF02BA
:10026000014041233680000101020301417264759F
:10027000696E6F204C4C430041726475696E6F204B
:100280004C656F6E6172646F00000608200000000C
:100290000000000000002F00000000070007000021
:1002A000147F147F1400242A7F2A12002313086469
:1002B0006200364955225000000503000000001C72
:1002C000224100000041221C000014083E081400D6
:1002D00008083E0808000000A060000008080808A0
:1002E00008000060600000002010080402003E5179
:1002F00049453E0000427F400000426151494600AE
:100300002141454B31001814127F10002745454507
:1003100039003C4A4949300001710905030036495A
:1003200049493600064949291E00003636000000BA
:100330000056360000000814224100001414141462
:10034000140000412214080002015109060032493C
:1003500059513E007C1211127C007F4949493600F8
:100360003E41414122007F4141221C007F494949D1
:1003700041007F09090901003E4149497A007F088F
:1003800008087F0000417F4100002040413F0100FC
:100390007F08142241007F40404040007F020C0251
:1003A0007F007F0408107F003E4141413E007F09ED
:1003B000090906003E4151215E007F0919294600C6
:1003C00046494949310001017F0101003F40404059
:1003D0003F001F2040201F003F4038403F00631473
:1003E000081463000708700807006151494543007D
:1003F000007F41410000552A552A55000041417FA8
:10040000000004020102040040404040400000019E
:10041000020400002054545478007F4844443800BB
:10042000384444442000384444487F0038545454ED
:100430001800087E0901020018A4A4A47C007F080B
:100440000404780000447D4000004080847D00006A
:100450007F102844000000417F4000007C04180405
:1004600078007C0804047800384444443800FC24B4
:100470002424180018242418FC007C080404080014
:10048000485454542000043F444020003C40402045
:100490007C001C2040201C003C4030403C00442894
:1004A000102844001CA0A0A07C004464544C4400CC
:1004B00000087700000000007F00000000770800BF
:1004C0000000100810080014141414141400008004
:1004D000808080E0E07E7E6060606060607F7F6042
:1004E00060606060607E7EE0E0808080800080816F
:1004F000818181FFFF000000FCFCFCFCFCFCFCFC9B
:10050000FCFCFCFC000000FFFF81818181800181F7
:10051000818181FFFF0000003F3F3F3F3F3F3F3F62
:100520003F3F3F3F000000FFFF81818181010001CB
:1005300001010107077E7E060606060606FEFE0688
:1005400006060606067E7E0707010101010018184F
:1005500018F8F8C0C0C0C0C040C0C0C0C0C0C0C053
:10056000C0C0C0404040C0C0C0C0C0C0C0C0008FFC
:100570008FFFFFFFFFFFF1E0CEE0F1FF3F8FE7E3EA
:10058000C1C0C63EBF3EC6C0C1E3E78F3FFF809CEF
:100590009CFFFFFFFFFFE3C19CC1E3FFFEF8F3E315
:1005A000C181B13E7E3EB181C1E3F3F8FEFF0000A0
:1005B000001F1F000000000000001F071F071F078B
:1005C0001F071F071F071F071F070000000000006D
:1005D000000000000000010101010101010102020F
:1005E00002020202020303030303040404050505D7
:1005F0000505060606060707070808080808090A89
:100600000A0A0A0B0B0C0C0C0C0D0D0D0E0E0F0F25
:100610000F101111111112121314141414151616AF
:100620001717171819191A1A1B1B1C1C1D1E1E1F21
:100630001F20212122232324252526262728292976
:100640002A2B2C2D2D2E2F2F3031323334353636A8
:10065000373838393A3B3C3D3E3F404142434445C0
:10066000454647494A4B4C4D4E4F505152545556B2
:1006700057595A5B5D5E5F60616264656667696A6F
:100680006C6D6E6F7173757677797A7B7C7F808203
:1006900083858688898B8C8F9192939497999A9C65
:1006A0009E9FA2A3A5A7A9ABADAEB0B3B4B6B9BA8D
:1006B000BCBEC0C2C4C7C9CACDCFD1D3D6D8DADC7C
:1006C000DFE1E2E6E7EBECF0F1F5F6FAFBFF000024
:1006D00000002300260029002C002F00000000024B
:1006E00000090F0000030401000C000000000000DE
:1006F0000000000000000000000000050C0901A13E
:1007000001850115002501750195180A23020A8A41
:10071000011A24022A27020A21020A2A0209CD0903
:10072000B709B609B509E909EA09E20A83010A012C
:10073000020A02020A07020A1A020A79021A1B02B4
:100740002A1D028102C000000000000000002A2BC8
:100750002800000000000000000000000000000071
:100760000000000000002C9EB4A0A1A2A434A6A703
:10077000A5AE362D3738271E1F20212223242526FB
:10078000B333B62EB7B89F8485868788898A8B8CC9
:100790008D8E8F909192939495969798999A9B9C11
:1007A0009D2F3130A3AD350405060708090A0B0C4F
:1007B0000D0E0F101112131415161718191A1B1CF1
:1007C0001DAFB1B0B50005010906A10185020507FD
:1007D00019E029E7150025017501950881029501A9
:1007E000750881039506750815002573050719001E
:1007F00029738100C000000000240027002A002D7A
:1008000000300000000000250028002B002E0031E1
:1008100000040404040403040502020202040302A7
:100820000202020606060606060404020202040488
:1008300004080201104080401020408040800802DF
:100840000401804020100201108010204040200050
:100850001121172F11241FBECFEFDAE0DEBFCDBF6D
:1008600011E0A0E0B1E0EEEFF9E602C005900D92D4
:10087000AA3EB107D9F724E0AAEEB1E001C01D926B
:10088000A139B207E1F714E0C9E2D4E004C021972E
:10089000FE010E94BE32C832D107C9F70E94B722BA
:1008A0000C94F2340C9400004F925F926F927F92FE
:1008B0008F929F92AF92BF92CF92DF92EF92FF9270
:1008C0000F931F93CF93DF9300D01F92CDB7DEB766
:1008D00080915504E0914D04F0914E049081982B45
:1008E0009093570490818095892380935804809138
:1008F00044048093450480915A0490915B040397CB
:1009000021F48FB780935904F89400914B0410910F
:100910004C040115110509F492C0D0904404E8EC90
:10092000F3E060E474E020E030E0A901ED2CF12C6C
:10093000C7010196C480C89ED001C99EB00D112484
:10094000AB2FBB272A0F3B1F411D511DC580C89EE1
:10095000D001C99EB00D1124AB2FBB272A0F3B1F1E
:10096000411D511DC680C89ED001C99EB00D1124E5
:10097000AB2FBB272A0F3B1F411D511D33966E170E
:100980007F07C1F6232F342F452F552747FD5A9552
:10099000A091C803B091C9030E948D3123E030E0DB
:1009A00040E050E00E94633149015A018091CA033E
:1009B0009091CB0381149104A104B104F1F169E198
:1009C00070E00E94AA32CB01072E000CAA0BBB0BD1
:1009D000880D991DAA1DBB1D2801012E000C66085B
:1009E000770884159505A605B7053CF1C801861B57
:1009F000970BBC01072E000C880B990B0E945430FA
:100A00002B013C01B701FF0C880B990B0E9454305D
:100A10009B01AC01C301B2010E948F306B017C01CC
:100A2000C501B4010E9454309B01AC01C701B6015D
:100A30000E94FD310E946F32D62ED0924504E8EC20
:100A4000F3E000E414E07E0194E0E90EF11C55812E
:100A500046818091450490E001966481689F9001F1
:100A6000699F300D11243A83589F9001599F300D92
:100A700011243983489F9001499F300D11243B83F5
:100A800080915A0490915B04029721F48FB7809370
:100A90005904F894BE016F5F7F4FDB018D91BD015A
:100AA00020915A0430915B042130310521F49FB725
:100AB00090935904F8949091570420915804A09170
:100AC0004D04B0914E0438E09C9387FF2C93880F1F
:100AD00043E04A95F1F700002C933A95A9F78091ED
:100AE0005A0490915B048130910519F420915904C6
:100AF0002FBFE616F70609F0D0CF8230910519F422
:100B0000209159042FBF33960E171F0709F09FCF6E
:100B1000039719F4809159048FBF0F900F900F9095
:100B2000DF91CF911F910F91FF90EF90DF90CF90C9
:100B3000BF90AF909F908F907F906F905F904F90FD
:100B4000089583E08093E9008091F200882319F0F2
:100B50008AE38093E8000895FC018091A202882333
:100B600011F13FB7F89482E08093E9002091F20000
:100B7000822F90E01816190614F481E090E0882383
:100B800039F0289844E64093A1024091F100408357
:100B9000222339F02091F200211103C02BE620938B
:100BA000E8003FBF08958FEF9FEF089581508F3089
:100BB00008F047C0E82FF0E0E052FA4F0C94BE3244
:100BC000FD050106EF05F505F905210621062106BB
:100BD00004060A060E061206180621061C06809157
:100BE00080008F77809380000895809180008F7DB2
:100BF000F9CF80918000877FF5CF84B58F7784BD52
:100C0000089584B58F7DFBCF809190008F7780937E
:100C100090000895809190008F7DF9CF8091900091
:100C2000877FF5CF8091C0008F778093C0000895B3
:100C30008091C0008F7DF9CF8091C200877F809323
:100C4000C2000895CF93DF93282F30E0F901E452DA
:100C5000F94F8491F901E05DF74FD491F901EF5E0E
:100C6000F74FC491CC23A1F081110E94D605EC2F3F
:100C7000F0E0EE0FFF1FE253F94FA591B491EC9114
:100C8000ED2381E090E009F480E0DF91CF910895B9
:100C900080E090E0FACF1F93CF93DF93282F30E0CE
:100CA000F901E452F94F8491F901E05DF74FD491D5
:100CB000F901EF5EF74FC491CC23A9F0162F8111F3
:100CC0000E94D605EC2FF0E0EE0FFF1FED5FF74F0F
:100CD000A591B4918FB7F894EC91111108C0D095FB
:100CE000DE23DC938FBFDF91CF911F910895DE2B20
:100CF000F8CFCF93DF9390E0FC01E05DF74F2491B4
:100D00008F5E974FFC0184918823C9F090E0880F93
:100D1000991FFC01EB50F84FA591B491FC01ED5FD8
:100D2000F74FC591D49161110DC09FB7F8948C9184
:100D3000209582238C938881282328839FBFDF916D
:100D4000CF910895623051F49FB7F8943C91822F6F
:100D5000809583238C93E8812E2BEFCF8FB7F89467
:100D6000EC912E2B2C938FBFEACF0F931F93CF9331
:100D7000DF93EC01862F6E874F87288B60E00E94FF
:100D8000790660E08F850E94790662E088890E947A
:100D900079068F819885906198878F838E850E94D0
:100DA00022068C018F850E94220621E030E0892BEB
:100DB00011F430E020E0220F331F81E0012B09F411
:100DC00080E0822B8F709A85907F892B8A87DF91B4
:100DD000CF911F910F9108953FB7F89480919D0294
:100DE00090919E02A0919F02B091A00226B5A89B6F
:100DF00005C02F3F19F00196A11DB11D3FBFBA2FAD
:100E0000A92F982F8827BC01CD01620F711D811D6C
:100E1000911D42E0660F771F881F991F4A95D1F7F1
:100E200008958F929F92AF92BF92CF92DF92EF92EE
:100E3000FF926B017C010E94EC064B015C01C11426
:100E4000D104E104F104B9F00E94EC0668197909B3
:100E50008A099B09683E73408105910580F321E072
:100E6000C21AD108E108F10888EE880E83E0981EC6
:100E7000A11CB11CE4CFFF90EF90DF90CF90BF900A
:100E8000AF909F908F9008952FB7F894609199023A
:100E900070919A0280919B0290919C022FBF0895BD
:100EA0000C94A10508950895FC01248135816217F1
:100EB000730720F480819181009729F410925C02DD
:100EC0008CE592E00895860F971F0895089540914C
:100ED0005802509159022091560230915702421700
:100EE0005307B4F49091E8009570E1F39091E80015
:100EF00092FD19C08093F10080915802909159029F
:100F000001968F739927892B19F48EEF8093E8004F
:100F100080915802909159020196909359028093C2
:100F2000580281E0089580E00895DF92EF92FF92E9
:100F30000F931F93CF93DF93D82E8A01EB017B0190
:100F4000E40EF51ECE15DF0559F0D7FE12C0FE01E6
:100F500084910E94670721968111F4CF0FEF1FEF54
:100F6000C801DF91CF911F910F91FF90EF90DF901B
:100F700008958881EECF2FB7F89487708093E900A9
:100F80009091E800892F807295FF04C09091F20043
:100F900080E4891B2FBF08957F928F929F92AF921A
:100FA000BF92CF92DF92EF92FF920F931F93CF9356
:100FB000DF93C82E8B017A018091A202811110C0AB
:100FC0008FEF9FEFDF91CF911F910F91FF90EF90E7
:100FD000DF90CF90BF90AF909F908F907F900895BB
:100FE00080915D0280FF05C08091E0008260809367
:100FF000E000CE2DDF2DD12C8AEFB82E8C2D8770FE
:10100000982E8C2D8072882E8C2D8074782E9AE3E9
:10101000A92E209719F4DD2009F452C08C2D0E94CE
:10102000BB0781110AC0BA94BB2051F261E070E0A5
:1010300080E090E00E941107ECCF8C171D0611F0A4
:101040000CF08C2F9FB7F8949092E9002091E80063
:1010500025FD02C09FBFDDCF282F30E0C21BD30B80
:10106000882029F08150A0F01092F100FBCFF80108
:10107000C7FC0AC0815050F041914093F100FACF73
:1010800044914093F10031968150D0F7020F131F25
:10109000DD2021F0A092E800D12CDCCF8091E80087
:1010A00085FD07C0A092E800DD24D394209791F23B
:1010B000F3CF209779F6772069F2A092E800CACFA3
:1010C0005D9884E680935B02C7017CCF615030F06D
:1010D0002091F100FC0120830196F8CF289884E646
:1010E0008093A102089580914E0281110DC082E08B
:1010F00080934A0284E080934B0210924D0210923A
:101100004C0281E080934E028AE492E008950F93AE
:101110001F93CF93DF931F92CDB7DEB782E0898311
:1011200042E450E064E172E080E80E9495070E948A
:101130007308DC0112960D911C910115110589F0BF
:10114000D801ED91FC910280F381E02DBE016F5F2B
:101150007F4FC801099597FD04C0F80100851185EE
:10116000ECCF89810F90DF91CF911F910F9108955E
:10117000CF93DF93EC0180911201882331F083E05B
:101180000E94CC071816190634F081E090E09B838A
:101190008A8380E090E0DF91CF910895CF93DF9331
:1011A000FC01448155816081718183E293E00E945A
:1011B000B808EC0142E050E06AE771E083E293E0B6
:1011C0000E94B8088C0F9D1FDF91CF910895CF9397
:1011D000DF931F92CDB7DEB76983DC01ED91FC91FF
:1011E0000280F381E02D41E050E0BE016F5F7F4F50
:1011F00009950F90DF91CF91089583E00E94BB077E
:1012000090E00895CF93DF931F92CDB7DEB7FC0136
:101210008485958597FD08C02FEF3FEF358724879C
:101220000F90DF91CF910895CE0101960E94AC05F9
:10123000019719F4898190E0F3CF8FEF9FEFF0CF02
:101240000F931F930E94440760932B0370932C030A
:1012500080932D0390932E0383E293E00E94020972
:1012600097FF1DC00E94440700912B0310912C038F
:1012700020912D0330912E03601B710B820B930B79
:1012800000912703109128032091290330912A030C
:101290006017710782079307F8F28FEF9FEF1F9196
:1012A0000F9108950F931F93CF93DF931F92CDB7A4
:1012B000DEB78C01FC018485958597FF0BC0CE01BC
:1012C00001960E94AC05019771F4898190E0F801C4
:1012D00095878487F801848595850F90DF91CF915C
:1012E0001F910F9108958FEF9FEFF1CFFC0184853F
:1012F000958597FD0BC09FB7F89482E08093E90035
:101300008091F2009FBF90E0019608959FB7F894F6
:1013100082E08093E9008091F2009FBF90E0089501
:1013200020912702260F3327331F21323105ECF499
:101330002091ED02FC0190E080E0243069F082E031
:101340000895A09127022191AC01495F5D4FA40F40
:10135000B52FB11D2C930196861798F38091270223
:10136000680F6093270280E0089581E0089510924D
:10137000ED0281E08093EC021092E70261E082E0EE
:101380000E944B0661E083E00E944B06E9EBF0E02F
:1013900080818E7F808380818D7F808388E48093AD
:1013A000B80085E48093BC000895CF93DF9391E06B
:1013B000909306028823B9F0C091B800D091BA008A
:1013C0008091BC008A7B8093BC0060E082E00E9438
:1013D0004B0660E083E00E944B060E94B709D09361
:1013E000BA00C093B800DF91CF910895CF92DF92F9
:1013F000EF92FF920F931F93CF93DF93D091C6028A
:1014000081E0D13208F09CC0C091C5020E94EC0678
:101410006B017C018091ED0281116CC082E08093B0
:10142000ED0281E08093EC028FEF8093EB0210924B
:10143000EA02D093E902A5EAB2E0E7ECF2E080E04C
:10144000D8138DC01092E8028091E802CC0FC82B0F
:10145000C093E8028091E702813009F084C01092C5
:10146000E7020E94EC066B017C018091E802809308
:10147000BB008091EF029091F002A091F102B09137
:10148000F202892B8A2B8B2BA1F00E94EC06009193
:10149000EF021091F0022091F1023091F2026C19EA
:1014A0007D098E099F09061717072807390708F4D1
:1014B00042C08091BC0083FDD8CF85EC8093BC00F6
:1014C0000E94EC066B017C018091ED02823009F4F0
:1014D0004CC08091EB028F3F09F469C08091EB0210
:1014E000803209F466C08091EB02803309F463C056
:1014F00084E026C08091EF029091F002A091F10269
:10150000B091F202892B8A2B8B2B09F483CF0E9496
:10151000EC060091EF021091F0022091F10230915F
:10152000F2026C197D098E099F0906171707280713
:10153000390708F06FCF8091EE020E94D50985E04F
:101540001092A4021092C6021092A302DF91CF91D2
:101550001F910F91FF90EF90DF90CF9008959D9194
:1015600091938F5F6DCF85EEA9CF8091EF0290911F
:10157000F002A091F102B091F202892B8A2B8B2B01
:1015800009F4A2CF0E94EC060091EF021091F00244
:101590002091F1023091F2026C197D098E099F09A8
:1015A000061717072807390708F08ECFC4CF80E049
:1015B000C7CF82E0C5CF83E0C3CF0895E091F402A6
:1015C0008091F302E81730F4F0E0EB50FD4F80819A
:1015D00090E008958FEF9FEF08959091F40280912D
:1015E000F3022FEF3FEF981748F4E92FF0E0EB50AC
:1015F000FD4F208130E09F5F9093F402C901089570
:101600008091F3029091F402891B990B0895CF9277
:10161000DF92EF92FF920F931F93CF93DF937C01A2
:10162000CB018A012091A302222389F0EB016B01F7
:10163000C40ED51ECC15DD0569F06991D701ED9179
:10164000FC910190F081E02DC7010995F3CF642F43
:101650000E949009C801DF91CF911F910F91FF90D7
:10166000EF90DF90CF900895CF93DF931F92CDB787
:10167000DEB769832091A3022223F9F02091C602EC
:10168000203258F021E030E0FC013383228390E0E7
:1016900080E00F90DF91CF9108958091A402E82F10
:1016A000F0E0EB55FD4F998190838F5F8093A4020A
:1016B0008093C60281E090E0ECCF61E0CE0101961C
:1016C0000E949009F7CF682F80E893E00C94340BC8
:1016D0009FB7F89480910502882319F08150809378
:1016E000050280910502811105C08CB58F7B8CBDF0
:1016F000109204029FBF08950C944B0687FD06C00C
:1017000070E0082E000C990B0C947C0B0895FC01E2
:10171000808187FD07C061E070E0082E000C990B06
:101720000E947C0B80910402882361F09FB7F8949B
:101730002091040280910302213019F48DBB9FBFD8
:1017400008958FBF08958EBD00000DB407FEFDCF34
:101750008EB50895FB0124913196E491322F2E2FFE
:10176000FB013296E491E11103C090E080E008951E
:101770006D5F7F4FDC01FC914217530730F0D901B8
:10178000AE0FB11D4A175B0728F0EF9F600D711D6A
:101790001124E0CF421B530BF49FC001F59F900D25
:1017A0001124860F971F0895EF92FF920F931F93B6
:1017B000CF93DF934115510509F44BC08A017B019A
:1017C000EC018981FA0180838A8181838F81828300
:1017D00068857985F0E8EF16F10490F4888181112D
:1017E0000FC06115710579F08B81E81AF1082E811F
:1017F0002E9DC0012F9D900D1124860F971F26C08E
:1018000061157105E1F46A857B856115710541F506
:101810004B8188859985242F042E000C330B241BC3
:1018200031094E81429FB001439F700D11242881E0
:101830002130F1F030E020E0620F731FDECFA7010E
:10184000CE0106960E94AA0B0097E9F2F801948354
:101850008383DF91CF911F910F91FF90EF900895B7
:10186000A701CE0106960E94AA0B009779F7D0CF68
:1018700023E030E0E1CFDC01FB0112962C911297BE
:10188000848195812817190641F491818081813ADC
:1018900031F49D7F81E0913009F080E0089581323C
:1018A000E1F79B3029F482811F968C9381E00895A3
:1018B0009A3099F7828150968C93F8CFAF92BF926D
:1018C000CF92DF92EF92FF920F931F93CF93DF930C
:1018D0001F92CDB7DEB77C0169836A01590141E0EF
:1018E00050E0BE016F5F7F4FFC0183810E94CC07F7
:1018F0008C0197FD0BC0F7018381A501B6018064BF
:101900000E94CC07080F191F97FD8C01C8010F908A
:10191000DF91CF911F910F91FF90EF90DF90CF90CB
:10192000BF90AF900895DC01FB0188E4808389E4D7
:10193000818384E482831D969C911D979F709F5B99
:1019400093831D968D919C9124E0969587952A9579
:10195000E1F78F708F5B848385E00895EF92FF92AB
:101960000F931F93CF93DF93FB012081213871F5F3
:101970002381223259F5DC0112964C912481358164
:101980004217130619F5EC010B851C85F12CE12C8F
:101990000115110589F0F801448155816281738137
:1019A00080E80E9495078F3F980749F0E80EF91EDE
:1019B000D8010D911C91ECCF81E08F87C701DF9199
:1019C000CF911F910F91FF90EF90089590E080E0EC
:1019D000F6CFCF93DF93CDB7DEB769970FB6F89404
:1019E000DEBF0FBECDBFFC01DB018C918F5F8C93FE
:1019F0009E012D5F3F4F8DE0D9011D928A95E9F739
:101A000029E0298384E08A8391E09D8383E08E83AB
:101A10002A8721E22B879C879D879F8722E2288B3C
:101A200027E02B8B25E02C8B8E8B20E430E0388F49
:101A30002F8B998F82818B8395858685998B8A8B55
:101A4000838180688D8B49E150E0BE016F5F7F4FDD
:101A500080E00E94950769960FB6F894DEBF0FBE2E
:101A6000CDBFDF91CF910895CF93DF938091FB019C
:101A7000811167C081E08093EE018093EF0124EF34
:101A800031E03093F1012093F0011092F3011092B4
:101A9000F20127E231E03093EB012093EA0110924A
:101AA000F6011092F5011092F8011092F70180935F
:101AB000F9018093FA0181EC8093F4010E9473088C
:101AC000FC0181819091EE01482F490F5527551F48
:101AD000483051059CF5A281B381109709F52AEE93
:101AE00031E03383228320812093EC018093ED0148
:101AF0008091EF01820F80832091F001A22FB0919D
:101B0000F1018A2F821B8917C8F481813D91C82F6A
:101B1000D0E0C050DF4F38838F5F8183F2CFD9018F
:101B200018962D913C91199721153105C1F72AEE90
:101B300031E019963C932E931897D5CF81E080938E
:101B4000FB018AEE91E0DF91CF910895CF93DF936F
:101B5000EC010E94340D28E030E0AE0162E0DF913C
:101B6000CF910C945E0CE9EBF3E01682178210869D
:101B700011861286138614828DEB93E00C94A60DC9
:101B80009091A90398138093A9030E94340D23E038
:101B900030E048EA53E061E00E945E0C81E090E0B2
:101BA0000895E8EAF3E01082118212820E94340D57
:101BB00023E030E048EA53E061E00C945E0CCF9201
:101BC000DF92EF92FF920F931F93CF93DF936C01FD
:101BD000EB017B01E40EF51E10E000E0CE15DF0501
:101BE00081F069916D30D1F3D601ED91FC910190B6
:101BF000F081E02DC6010995892B19F00F5F1F4F69
:101C0000EDCFC801DF91CF911F910F91FF90EF9021
:101C1000DF90CF900895DC016838A0F06858FD018E
:101C200086E0662321F09681961301C016828150CA
:101C300031968111F6CFCD0104960E94A60D81E068
:101C400090E00895862F90E067FF13C0FC01E058F4
:101C5000F10981E090E001C0880FEA95EAF78095EC
:101C600014969C911497892314968C93149760E092
:101C7000D6CF1C96ED91FC911D97E80FF91F64914A
:101C80006623E1F0862F807C803C69F414968C9169
:101C900014978F7B14968C9314976F73623309F0AB
:101CA000BECF64E6BCCF67FFF9CF14968C91149732
:101CB0008D7F14968C9314976F77F0CF90E080E02F
:101CC0000895DC01683888F1685816968C9116974B
:101CD000861721F117968C9117978617F9F01896A9
:101CE0008C9118978617D1F019968C9119978617B1
:101CF000A9F01A968C911A97861781F01B968C91F1
:101D00001B97861759F0FD01369690E080E02191EF
:101D100021114FC08A0F9B1FFC016683CD010496E1
:101D20000E94A60D81E090E00895862F90E067FF65
:101D300012C0FC01E058F10921E030E001C0220F9F
:101D4000EA95EAF714968C911497822B14968C934B
:101D5000149760E0BACF1C96ED91FC911D97E80FA7
:101D6000F91F6491611109C081E090E013969C9382
:101D70008E93129790E080E00895862F807C803CBF
:101D800069F414968C911497806414968C9314972C
:101D90006F73623309F099CF64E697CF67FFF9CF8D
:101DA00014968C911497826014968C9314976F7785
:101DB000F0CF01968630910509F0A9CFD5CFEF92EB
:101DC000FF921F93CF93DF93EC01162F0E94610EB9
:101DD0007C01612FCE010E940B0EC7019927DF9174
:101DE000CF911F91FF90EF90089590E080E00895CB
:101DF000E42FF0E0E455FF4F4491E62FF0E0E45586
:101E0000FF4F7491E82FF0E0E455FF4F6491842F69
:101E10000895682F660F680F8B3A38F082E0860FBE
:101E2000482F409560E00C94F80E863530F041E084
:101E3000460F642F609580E0F6CF862F809540E0B6
:101E4000F2CF91708436910591F1B0F48232910510
:101E500009F43FC040F48130910591F1409769F158
:101E600090E080E008958134910569F18035910515
:101E7000B9F780E890E00895883E9105D9F048F4DC
:101E8000813C910519F1803D910551F780E092E088
:101E90000895803521E0920739F0803D21E09207D6
:101EA00019F080319140E1F688E090E0089582E0F9
:101EB00090E0089584E090E0089580E190E0089536
:101EC00080E290E0089580E091E0089580E094E061
:101ED000089581E090E008958F929F92AF92BF9213
:101EE000EF92FF920F931F93CF93DF93EC018B013F
:101EF0007A019A01261B370B35952795F901E60FD4
:101F0000F71FEC17FD070CF54F01FF0FAA08BB08E0
:101F10009E010D2E000C440B550B281939094A0956
:101F20005B09A1E0BFEF0E94903197010F2C000CDC
:101F3000440B550B281939094A095B090E94633182
:101F40009FEF920F2FEF30E020C09FEFCE17DF07FB
:101F5000CCF79E010D2E000C440B550B4B01770F57
:101F6000AA08BB08281939094A095B09AFEFB0E094
:101F70000E9482319F01FF0F440B550B281939092C
:101F80004A095B090E9463319FEF0C171D07B4F4E7
:101F9000CE15DF051CF02FEF30E090E040E0592F28
:101FA000CA01822B932BDF91CF911F910F91FF904C
:101FB000EF90BF90AF909F908F90089530E020E019
:101FC0009FEFECCFAF92BF92CF92DF92EF92FF9252
:101FD0001F93CF93DF93C091650261E08C2F0E9425
:101FE0004B06D091680260E08D2F0E944B0661E0A5
:101FF0008D2F0E944B0660E08C2F0E944B0610E054
:10200000C12CD12C7601A12EB12CC0918C0228E0DC
:10201000C29FE0011124AC16BD0614F58091660242
:102020000E942206092E000CAA0BBB0B2197CA198D
:10203000DB0904C0880F991FAA1FBB1FCA95D2F7DE
:10204000C82AD92AEA2AFB2AC091670261E08C2FAC
:102050000E944B0660E08C2F0E944B061F5FD3CF7F
:10206000C701B601DF91CF911F91FF90EF90DF90F4
:10207000CF90BF90AF900895FC01218524FD08C04A
:1020800025FF06C080858095881F8827881F0895B2
:1020900080E00895FC0191859073903331F4808540
:1020A0008095881F8827881F089580E008951F93D2
:1020B000CF93DF93EC018F81988594FB112710F962
:1020C000162796FF04C09F7B98878F8311E08F812E
:1020D000988591FD05C0112311F1926098878F8337
:1020E0000E94440729813A81FB01E21BF30B2F81F7
:1020F00038851123E9F125FD1FC04B8132FD14C045
:10210000442391F0346038872F837A8369838F81E9
:1021100098858F71992711E0892B09F410E0812FA0
:10212000DF91CF911F9108954E171F0619F010F0FF
:102130004111EDCF2262E7CF37FDE9CF26FD0AC07E
:102140004D81A0E14A9FA0011124E417F507F8F2A0
:102150002464D9CF27FF0AC04E81A0E14A9FA00185
:1021600011242868E417F50770F6D1CF4D81F5CF1B
:1021700025FF19C08B818E171F0609F060F426FD1C
:1021800003C088818F5F888337FD18822F7D20618F
:10219000316038872F838F81988592FFB8CF9B7FDE
:1021A00098878F83B4CF30FF0DC037FD03C0206107
:1021B00038872F832F8138853E7738872F837A831E
:1021C0006983E9CF4881442379F0C901807C99274C
:1021D000892B41F48C8140E1849FC0011124E817D0
:1021E000F907C8F22160D5CF31FFD5CF2F733D7FDE
:1021F0003860E3CF0F931F93CF93DF93EC01162F3B
:10220000642F0E945710082F8C859D85009741F1FF
:10221000298581FF21C020612987298582FF1EC071
:102220002860298773E0969587957A95E1F79D87D1
:102230008C878F81988585FF91C0906898878F8360
:102240008F81988593FD03C0986098878F838985D7
:102250008062898781E007C02F7EDECF277FE1CFB4
:1022600017FF07C080E0802BDF91CF911F910F9166
:1022700008954A85242F2295207F2595259525951B
:102280002595022E000C330B812F012E000C990B8B
:102290002817390739F3220F331F220F331F282B3A
:1022A000392B220F331F81E696E1A4E9B9E404C07B
:1022B000B595A795979587952A95D2F783704595FB
:1022C0004595459545954150840F8295807F85952C
:1022D000859585958595982F9295907F212F2F70C4
:1022E000922B9A87907F09F4BDCF9985292F23706F
:1022F000213049F120F1223049F131E018160CF07B
:1023000030E092FB222720F98A858F708A87321766
:1023100009F1906199870E94440729813A81AB01B4
:10232000421B530B9A014B8559857A836983852F0C
:102330004217130689F080F0886089877ACF1330BE
:1023400009F090CFDACF1123C1F28CCF11501230A7
:10235000A0F688CF9F7EDECF877FEFCF188270CF29
:10236000FC012781308520FD1082C9018F719927DA
:10237000892B19F0207E3087278308950F931F93B0
:10238000CF93DF93EC0189850E9422068C01CE0158
:102390000E94B01161E0012B09F460E0CE01DF91F1
:1023A000CF911F910F910C9457108F929F92AF92E3
:1023B000BF92CF92DF92EF92FF920F931F93CF9332
:1023C000DF937C01D62F0E94EC064B015C018091CB
:1023D000ED02811167C0CD2F81E08093ED028093E3
:1023E000EC029FEF9093EB021092EA029D0F909304
:1023F000E9028093E8028091E802EE0CFF1C8E292E
:102400008093E8028091E702813009F083C0109246
:10241000E7020E94EC066B017C018091E802809348
:10242000BB008091EF029091F002A091F102B09177
:10243000F202892B8A2B8B2BA1F00E94EC06809054
:10244000EF029090F002A090F102B090F2026C19AD
:102450007D098E099F0986169706A806B90608F415
:1024600042C08091BC0083FDD8CF85EC8093BC0036
:102470000E94EC066B017C018091ED02813009F431
:102480004BC08091EA028D1710F4C091EA02E7EC8C
:10249000F2E0A5EFB2E080E08C1751F191919D93AD
:1024A0008F5FFACF8091EF029091F002A091F1023C
:1024B000B091F202892B8A2B8B2B09F488CF0E94D2
:1024C000EC060091EF021091F0022091F1023091A0
:1024D000F202681979098A099B0906171707280764
:1024E000390708F074CF8091EE020E94D509C0E050
:1024F0001092F402C093F3028C2FDF91CF911F91C1
:102500000F91FF90EF90DF90CF90BF90AF909F9092
:102510008F90089585EEAACF8091EF029091F002FE
:10252000A091F102B091F202892B8A2B8B2B09F436
:10253000A3CF0E94EC068090EF029090F002A09052
:10254000F102B090F2026C197D098E099F0986167E
:102550009706A806B90608F08FCFC5CFCF92DF92B5
:10256000EF92FF926B017C0181E08093A30280E5F2
:102570008093C5021092A4021092C602BB27AF2D11
:102580009E2D8D2D0E94630BC60199270E94630B1F
:102590000E94F60961E070E080E590E00E94D511AC
:1025A00080E893E00E94ED0AFF90EF90DF90CF90DB
:1025B0000895CF92DF92EF92FF92CF936B017C014F
:1025C000C42F81E08093A30280E58093C50210921E
:1025D000A4021092C602BB27AF2D9E2D8D2D0E9406
:1025E000630BC60199270E94630B61E070E080E5F0
:1025F00090E00E94D51180E893E00E94ED0A6C2FD4
:1026000080E893E00E94340B65E070E080E090E0A9
:102610000E941107CF91FF90EF90DF90CF900C9424
:10262000F6090F931F93FC010481158126813781E0
:1026300040E052E16AE770E090E0041715072607D2
:10264000370740F476956795579547959F5F963085
:10265000A1F797E0292F206A269590959170809197
:102660000402882361F08FB7F8943091040231306E
:10267000A1F43DB3309303023DB33DBB8FBF2CBDEE
:102680009DBD808187FD0CC070E060E0082E000CCD
:10269000990B1F910F910C947C0B80930302EFCF49
:1026A0001F910F910895CF93DF93EC010E941113B6
:1026B0008A8587FD05C060E0DF91CF910C947E0B89
:1026C00080E0DF91CF910C94A30BBF92CF92DF9269
:1026D000EF92FF920F931F93CF93DF93EC01888DBE
:1026E00087FD03C061E00E947906898D87FD03C0E4
:1026F00061E00E9479061FB7F8948091050281116C
:1027000027C0E2E2F8E08491E1E4F8E09491E82F58
:10271000F0E0EE0FFF1FEB50F84FA591B491EC9154
:10272000E92321F461E081E10E944B0661E081E14F
:102730000E9479068CB580618CBD8CB580648CBD9F
:1027400061E08FE00E94790661E080E10E947906F5
:10275000809105028F5F809305021FBF0F8907FDDF
:1027600028C061E0802F0E947906002E000C110B1A
:1027700061E070E0C8010E947C0B6AE070E080E0DC
:1027800090E00E94110770E060E0C8010E947C0B9D
:102790006AE070E080E090E00E94110761E070E084
:1027A000C8010E947C0B64E170E080E090E00E9430
:1027B000110780E890E09B838A8380EA90E09D8304
:1027C0008C8368E770E080E090E00E9411070D883C
:1027D000DE89C02DCE010E9453130CEA11E084E182
:1027E000E82E82E0F82EBB24BA94CC24C394F801DE
:1027F000D490CC2089F1FFEFCF1217C0CE010E94F8
:10280000870B8FEFD81661F06D2D70E090E080E0BF
:102810000E941107CE010E945313CC24C3940BC015
:1028200064EF71E080E090E0F3CF8D2D0E94A30B68
:10283000BB24BA94C12C0F5F1F4FE016F106B9F606
:10284000CE01DF91CF911F910F91FF90EF90DF901C
:10285000CF90BF900C94870BEFEFBE120AC0D7FC4D
:1028600013C0DD20D1F261E08A850E947E0BBD2C71
:10287000E2CFBA948D2D0E94A30BB110DCCF60E0A3
:102880008A850E947E0BC9CFCD2CD5CFDF92EF92E7
:10289000FF920F931F93CF93DF93EC017B01D42E14
:1028A0002115310509F457C08B0101501109020FA0
:1028B000131FCE010E9453138AE20E94A30B61E012
:1028C0008A850E947E0B80E00E94A30B8F858E0D6F
:1028D0000E94A30B80E00E94A30BEB85FC85808106
:1028E00091810817190710F00FEF080F8F85800FDF
:1028F0000E94A30B60E08A850E947E0B8BE20E94FF
:10290000A30B61E08A850E947E0B80E00E94A30BEE
:1029100089898D0D0E94A30B80E00E94A30BEB859B
:10292000FC85898981509281890F0E94A30B60E008
:102930008A850E947E0B8CE20E94A30B8A8587FD0C
:1029400011C061E0DF91CF911F910F91FF90EF9047
:10295000DF900C947E0BEB85FC850081118101508A
:102960001109A7CFCE010E94870BCE010E9411133F
:1029700080E4DF91CF911F910F91FF90EF90DF9056
:102980000C94A30BCF92DF92EF92FF9230E020E005
:1029900050E040E070E060E080917704909178042E
:1029A0000E9446142091640430916504A09166044D
:1029B000B09167040E94EE316B017C0181E0C81A7E
:1029C000D108E108F1088FEFC816D806E806F80626
:1029D00039F080E00E94A30B80E00E94A30BEECFB1
:1029E0008091770490917804FF90EF90DF90CF90E2
:1029F0000C94870B9F92AF92BF92CF92DF92EF928F
:102A0000FF920F931F93CF93DF936B01D0917304C9
:102A1000B0907404A09071049090720420E230E0B1
:102A2000AC0162E070E080917704909178040E949C
:102A3000461481E2E82EF12CC1E081E0E81AF108A9
:102A4000F1F010E000E0F601E00FF11FE491EC235B
:102A500089F0892D0E94A30B8A2D0E94A30B0F5F82
:102A60001F4F0032110579F7C6018096CC0F29F768
:102A70006C01E2CF8B2D0E94A30B8D2FEECF8091A6
:102A8000770490917804DF91CF911F910F91FF907F
:102A9000EF90DF90CF90BF90AF909F900C94870BFA
:102AA0002F923F924F925F926F927F928F929F925E
:102AB000AF92BF92CF92DF92EF92FF920F931F934C
:102AC000CF93DF93CDB7DEB729970FB6F894DEBF6B
:102AD0000FBECDBF782E6B01182FE12C212CF12CCD
:102AE000A0917504B091760411968C91119790E0A5
:102AF000880F991F2091640430916504281B390BBD
:102B00001217130609F038F4EF2DF0E0E95EFC4FE0
:102B10008081811121C048E0C40ED11C80916604DF
:102B200090916704C816D90608F00AC1E394159677
:102B30008C91159790E0880F991FE816190609F0F7
:102B40007BC0EF2DF0E0E95EFC4F8081882309F423
:102B5000F7C0172D2F2CE12C6091150370911603EF
:102B6000EF2DF0E0E95EFC4F8081F3946115710573
:102B700009F065C0682F70E0803C90F71092160352
:102B8000109215031C96ED91FC911D97AE014F5FBD
:102B90005F4FCD0109958E2D90E0959587954A81DF
:102BA0009C01E3E0220F331FEA95E1F70981421708
:102BB000130609F00CF4B5C0089F9001099F300D71
:102BC00011248C819D81820F931F9D838C838E2D78
:102BD00081708E831F828E819F81880F991F880F3D
:102BE000991F99878887512E602E611032C0000F7F
:102BF000100F2B8130E0220F331F612F70E0A601F0
:102C000080917704909178040E94461408E0A09087
:102C1000730490907404B12C8B8190E0880F991FFD
:102C2000B81619060CF081C0892D0E94A30B8A2DBD
:102C30000E94A30BB394F0CF172DF22C8DCFF6E0AA
:102C4000660F771FFA95E1F7607C77708F73682BBA
:102C500095CFEC81FD81E491F0E0088402C0F59508
:102C6000E7950A94E2F790E080E0A12C843091058A
:102C7000B9F09F01082E02C0359527950A94E2F716
:102C800020FF0CC09C01220F331F43E001C0440F02
:102C90002A95EAF7242FA22A0196E8CF20E0FBCF5D
:102CA000652D70E022E030E0A601809177049091DC
:102CB00078040E944614912C812CB12CC501082C5B
:102CC00002C0959587950A94E2F740907104309080
:102CD000720480FD04C04090730430907404832D0E
:102CE0000E94A30B842D0E94A30B832D0E94A30B93
:102CF000842D0E94A30B8FEF881A980A98E08916FA
:102D00009104E1F680917704909178040E94870BFA
:102D1000539453948C819D8101969D838C836A94F6
:102D200064CF8B81800F8B8362CF015009F06FCF0E
:102D3000180F80917704909178040E94870BD0CE71
:102D400029960FB6F894DEBF0FBECDBFDF91CF91AD
:102D50001F910F91FF90EF90DF90CF90BF90AF90B9
:102D60009F908F907F906F905F904F903F902F90AB
:102D70000895CF93DF93EC0180915C0490915D0402
:102D80000097E9F06881798161157105B1F0409192
:102D90005E0450915F042C813D814217530768F017
:102DA0000E94DC348C819D81909361048093600447
:102DB0001D821C82DF91CF9108950E947433888117
:102DC000998190935D0480935C048A819B819093A8
:102DD0005F0480935E048C819D8190936104809355
:102DE0006004198218821B821A82E2CFCF93DF938C
:102DF000EC0188819981009711F00E947433198247
:102E000018821D821C821B821A82DF91CF91089545
:102E1000FC0180819181009711F00C947433089526
:102E2000CF93DF93FC01C481D581209729F41092C0
:102E30001703DF91CF910895615071096C177D07D9
:102E400008F4EB01FC0160817181AE0187E193E040
:102E50000E94E334C95EDC4F1882EBCF009711F477
:102E600081E090E00C94D8320E94BA34FC012481B5
:102E70003581232B39F421E0FB018081882349F03F
:102E800020E007C0808191810E94D33421E0892B0A
:102E9000B9F7822F08950F931F93CF93DF93EC011F
:102EA00088819981009759F02A813B81261737073D
:102EB00030F081E0DF91CF911F910F9108958B0148
:102EC0006F5F7F4F0E94FD33009759F0998388838D
:102ED0001B830A832C813D81232B59F7FC0110822F
:102EE000E8CF80E0E7CFEF92FF920F931F93CF934D
:102EF000DF936115710541F480E0DF91CF911F915F
:102F00000F91FF90EF90089541155105B1F07B01AD
:102F1000EC010C811D81040F151FB8010E944B1795
:102F2000882351F3288139818C819D81B701820FDB
:102F3000931F0E94DC341D830C8381E0DECFEF926F
:102F4000FF920F931F93CF93DF9300D000D0CDB7A4
:102F5000DEB77C01862F4AE08E010F5F1F4FB8015C
:102F600090E00E94E62FF80101900020E9F73197E8
:102F7000AF01401B510BB801C7010E9473178111AB
:102F800003C0C7010E94F616C7010F900F900F9063
:102F90000F90DF91CF911F910F91FF90EF900895C7
:102FA000CF93DF93EC01FB0101900020E9F731970B
:102FB000AF01461B570B0E947317811103C0CE014E
:102FC0000E94F616CE01DF91CF910895CF93DF9343
:102FD000EC01FB0144815581608171810E9473176E
:102FE000811103C0CE010E94F616CE01DF91CF9170
:102FF0000895EF92FF920F931F93CF93DF93EC010D
:103000007B018A01BA010E944B1781110BC0CE01CE
:103010000E94F616CE01DF91CF911F910F91FF9084
:10302000EF9008951D830C83B701888199810E94D8
:10303000DC34F0CFFB0101900020E9F73197AF01BC
:10304000461B570B0C94F9170F931F93CF93DF93E5
:10305000CDB7DEB729970FB6F894DEBF0FBECDBF50
:103060008C01862FF8011182108213821282158240
:1030700014824AE0BE016F5F7F4F90E00E942830CB
:10308000BE016F5F7F4FC8010E941A1829960FB6C4
:10309000F894DEBF0FBECDBFDF91CF911F910F918E
:1030A00008950F931F93CF93DF93CDB7DEB7A1970A
:1030B0000FB6F894DEBF0FBECDBF8C01CB01BA01B5
:1030C000F80111821082138212821582148222E08A
:1030D000AE014F5F5F4F0E940630BE016F5F7F4FB2
:1030E000C8010E941A18A1960FB6F894DEBF0FBE51
:1030F000CDBFDF91CF911F910F910895CF93DF93B3
:10310000EC01FB018617970749F060817181611519
:10311000710541F0448155810E94F917CE01DF917C
:10312000CF9108950E94F616F9CFFC01118210820A
:1031300013821282158214820C947E18FC01118273
:10314000108213821282158214826115710551F06A
:10315000FB0101900020E9F73197AF01461B570BA7
:103160000C94F9170895AF92BF92CF92DF92EF922D
:10317000FF920F931F93CF93DF936C015B017A0152
:1031800089012417350720F48F2D7901042F182F7A
:103190006CE771E0C6010E949E18D5011496CD918E
:1031A000DC91EC16FD06E0F40C171D0708F4E801AD
:1031B000D501ED91FC911197EC0FFD1F108110824C
:1031C0006D917C916E0D7F1DC60161157105A1F099
:1031D0000E941A18F50180819181C80FD91F1883A8
:1031E000C601DF91CF911F910F91FF90EF90DF907B
:1031F000CF90BF90AF9008950E94F616EBCF85ED6B
:103200008093BC008091EF029091F002A091F102B6
:10321000B091F2020796A11DB11D23E0B695A795C6
:10322000979587952A95D1F72091BC0024FD03C07E
:103230001092ED0208954091EF025091F0026091DA
:10324000F1027091F202452B462B472B69F3009750
:10325000A105B10541F02AE22A95F1F700C00197D6
:10326000A109B109E1CF8091EE020C94D509FF923A
:103270000F931F93CF93DF938C01EB01F8800E9493
:103280004D31F81621F06F2DC8010E945531CE0145
:10329000DF91CF911F910F91FF9008952F923F9250
:1032A0004F925F926F927F928F929F92AF92BF9256
:1032B000CF92DF92EF92FF920F931F93CF93DF9302
:1032C000CDB7DEB768970FB6F894DEBF0FBECDBF9F
:1032D000982E562E842EE82EF12C809195029091F6
:1032E00093029701899F200D311D112495E6929F2D
:1032F0008001939F100D112422E0621709F42EC261
:103300002617F8F0662369F191E0691709F48EC079
:1033100068960FB6F894DEBF0FBECDBFDF91CF9198
:103320001F910F91FF90EF90DF90CF90BF90AF90E3
:103330009F908F907F906F905F904F903F902F90D5
:103340000895E3E06E1709F417C2F4E06F13E0CFBD
:1033500041112DC27801E1E3EE0EF11C075E1F4F13
:1033600004C0780123E6E20EF11CE114F10481F2BD
:103370008AE0382E92E3692E712C812C912CE01674
:10338000F10630F2B80190E080E00E94AE12482EC3
:10339000A82EB12C8FEF840D8E3F08F0B9CF21E01D
:1033A000A216B10499F081E0C816D10479F0511049
:1033B00008C0C701801B910B8336910510F40E9451
:1033C000B30D6C2D89EB93E00E940B0EC5010197A4
:1033D000039728F0642D89EB93E00E94610EC501EC
:1033E00002970297F8F4D12C93E0A916B10439F4AE
:1033F0000E94672FA40193010E946331D62E0F5FB4
:103400001F4FB80190E080E00E94AE12A82EB12CB0
:103410006D2D70E0839D600D711D112490E080E0A2
:103420000E9411070F5F1F4F6501A9CF93E0491359
:1034300061C08F5F853008F04DC08093950265E9CB
:1034400072E085EF93E00E94371980919202882301
:1034500009F450C04FEF6FEF8FEF0E94F80E9B0101
:10346000482F5CECC52E53E0D52E87E494E086010E
:10347000F8012193319341938F018E179F07C1F774
:103480003DECA32E36E0B32E4EEC642E45E0742EB8
:103490008091950290E001965816190609F0ECF417
:1034A000F5018491809344040E9454046AEF70E013
:1034B00080E090E00E941107F3018491809344041E
:1034C0000E9454046AEF70E080E090E00E941107CF
:1034D0005394DECF10929502B2CF40E060E080E0DE
:1034E0000E94F80EF6016193719381936F01E017CA
:1034F000F107C1F780919202882391F0811054C0A6
:10350000809197028F5F843018F48093970202C0F5
:103510001092970267E972E087EF93E00E943719F3
:1035200060919502CE0143960E9424186091960204
:10353000CE010D960E94241860919702CE01079645
:103540000E9424186DE771E0CE0101960E949E183A
:10355000BE01695F7F4FCE0101960E94E6176DE7BD
:1035600071E00E94D017BE01635F7F4F0E94E61793
:103570006DE771E00E94D017BE016D5E7F4F0E9423
:10358000E6170E94CE08CE0101960E940817CE01D0
:1035900007960E940817CE010D960E940817CE01CB
:1035A00043960E940817B4CEF1E08F1202C084E166
:1035B000ACCF22E08212B4CF0E9444072B013C0121
:1035C0004FEF6FEF8FEF0E94F80E9B01482FECEC4E
:1035D000F3E087E494E02193319341938E179F07A2
:1035E000D1F7E0919602F0E0E253FA4FE491E093D4
:1035F00044040E9454048AE0989E5001112499E0EA
:10360000999E60011124882483942AE0322E0E941E
:1036100044076419750986099709683B7B40810551
:10362000910528F066E972E086EF93E077CF80910C
:103630009002882391F10E94E20FAB01BC01CE0100
:1036400001960E945118CE0101960E94B916CE0132
:1036500001960E94081780918C02F8E08F9FC001AC
:103660001124209160043091610428173907A8F4CF
:1036700063E971E0CE0101960E949E186CE574E04A
:10368000CE0101960E94E617BC018CE594E00E94F1
:103690007E18CE0101960E94081780918402981628
:1036A00068F500918202109183020C0D1D1DE091BE
:1036B0008002F0918102EE0DFF1D608170E08CE5CB
:1036C00094E00E94540722242394FC0180818033DB
:1036D00009F0212CC8010E94B011622DC8010E947E
:1036E0005710F801878190850E94210F8430D1F016
:1036F000883009F08CCFF1E08F2689CF00917E02CF
:1037000010917F029701281B3109329EC001339E20
:10371000900D1124800F911F0E94BE11F801EA0D37
:10372000FB1DE0CF0E9444072B013C0180919602D3
:10373000882081F08B3F18F48B5F80939602E09194
:103740009602F0E0E253FA4FE491E09344040E94C1
:1037500054045DCF853098F38550EFCF780123E690
:10376000E20EF11C442351F181E0780191E3E90E6E
:10377000F11C4813CDCDF9CD411107C07801E1E42A
:10378000EE0EF11C0F5D1F4FF0CDF2E04F1307C09E
:10379000780122E6E20EF11C0E5B1F4FE6CD81E0C0
:1037A000780190E2E90EF11C4813B2CDDECDF2E0D3
:1037B0004F1307C078012AE4E20EF11C0E5C1F4F84
:1037C000D4CD83E0481307C0780193E6E90EF11CDD
:1037D000055B1F4FCACDE1E04E139ACD7801F8E1A9
:1037E000EF0EF11CC2CD0C944D31EF92FF920F936E
:1037F0001F93CF93DF93CDB7DEB72C970FB6F89416
:10380000DEBF0FBECDBFE82E6CE771E0CE0107969C
:103810000E949E180DEE13E0C8010E944D31F82E53
:10382000BE01695F7F4FCE0101960E9495186F2DF2
:10383000CE0101960E949F17BC01CE0107960E94FF
:103840007E18CE0101960E940817083F83E01807F2
:10385000D0F4BE01695F7F4FCE0101960E9495189A
:103860006FE771E0CE0101960E94D017BC01CE0136
:1038700007960E947E18CE0101960E940817F80153
:10388000E056F140F0820F5F1F4F011584E01807EA
:1038900019F681E0E81204C0CE0107960E94CE0816
:1038A000CE0107960E9408172C960FB6F894DEBF3B
:1038B0000FBECDBFDF91CF911F910F91FF90EF9081
:1038C00008956F927F928F929F92AF92BF92CF9204
:1038D000DF92EF92FF920F931F93CF93DF9300D06D
:1038E00000D000D0CDB7DEB75C01862F90E00E94FB
:1038F0002E174C016C01F12CE12CF501848195818E
:10390000E816F90670F46080718060E470E0C3012D
:103910008E0D9F1D0E94C8348C0106191709892B32
:1039200011F40FEF1FEF0F3F1007D1F09801A7011F
:10393000B501CE0101960E94B31889819A8160E099
:10394000009711F00E94BF2FF60161936F0178017B
:10395000FFEFEF1AFF0ACE0101960E940817CDCFA4
:10396000C40126960FB6F894DEBF0FBECDBFDF911F
:10397000CF911F910F91FF90EF90DF90CF90BF906C
:10398000AF909F908F907F906F9008951F920F92AD
:103990000FB60F9211242F933F938F939F93AF9362
:1039A000BF938091990290919A02A0919B02B0914D
:1039B0009C023091980223E0230F2D3758F5019691
:1039C000A11DB11D209398028093990290939A02B1
:1039D000A0939B02B0939C0280919D0290919E02C5
:1039E000A0919F02B091A0020196A11DB11D8093EC
:1039F0009D0290939E02A0939F02B093A002BF915C
:103A0000AF919F918F913F912F910F900FBE0F908B
:103A10001F90189526E8230F0296A11DB11DD2CF45
:103A20001F920F920FB60F9211242F933F934F9333
:103A30005F936F937F938F939F93AF93BF93CF9336
:103A4000EF93FF93C091E1008091E100837F809329
:103A5000E100C3FF0FC01092E90081E08093EB000A
:103A60001092EC0082E38093ED001092A20288E0B5
:103A70008093F000C2FF1AC00E94A10580915B02F2
:103A8000882341F080915B02815080935B02811119
:103A900001C05D9A8091A102882341F08091A1022A
:103AA00081508093A102811101C0289AC4FF23C0D4
:103AB0008091E2008E7E81608093E2008091E1003F
:103AC0008F7E8093E10080915D028E7E8061809385
:103AD0005D02FF91EF91CF91BF91AF919F918F9137
:103AE0007F916F915F914F913F912F910F900FBEFA
:103AF0000F901F901895C0FFECCF8091E2008E7E52
:103B000080618093E2008091E1008E7E8093E100ED
:103B100080915D028E7E8160DACF1F920F920FB688
:103B20000F921124CF92DF92EF92FF920F931F9387
:103B30002F933F934F935F936F937F938F939F93B5
:103B4000AF93BF93EF93FF93CF93DF93CDB7DEB7E0
:103B50006C97DEBFCDBF1092E9008091E80083FF33
:103B600025C068E0CE0145960E94660882EF8093EA
:103B7000E8008D8987FF39C09091E80090FFFCCF65
:103B8000982F907609F034C19E894F89588D2F89DE
:103B9000F88C911131C0803861F580915E0280937C
:103BA000F1001092F1008EEF8093E8006C960FB652
:103BB000F894DEBF0FBECDBFDF91CF91FF91EF91A3
:103BC000BF91AF919F918F917F916F915F914F9135
:103BD0003F912F911F910F91FF90EF90DF90CF9029
:103BE0000F900FBE0F901F9018959EEF9093E800D6
:103BF000C7CF1092F100D5CF913059F48111D3CFB6
:103C00004130510581F680915E028D7F80935E0286
:103C1000CACF933049F48111C6CF4130510519F60E
:103C200080915E028260F2CF953041F48091E8008D
:103C300080FFFCCF20682093E300B5CF963009F0D9
:103C4000A9C00B8D1C8D22E01092E9001092590240
:103C500010925802F2122EC0109257021092560281
:103C60000E9487081F8299E09983FA8291E09E83DF
:103C700090EA98879AEF99872091580230915902DB
:103C8000275F3F4F3C832B838D831092E900109276
:103C9000590210925802109357020093560249E0BD
:103CA00050E0BE016F5F7F4F80E00E9495070E9449
:103CB000870879CF10935702009356020E94730829
:103CC000DC0112960D911C910115110509F451C1E9
:103CD000D801ED91FC910480F581E02DBE016B5E71
:103CE0007F4FC8010995009709F03EC1F801008592
:103CF0001185EACFF3E0FF120EC08F89882309F403
:103D000040C0823061F440E860E188E792E00E94C0
:103D1000DE20811148CF81E28093EB0047CF8130D4
:103D200029F440E86BE08CE692E0F1CF833099F71C
:103D30000E947308DC011296ED90FC908E010F5FDB
:103D40001F4F6801E114F10479F0D701ED91FC9166
:103D50000680F781E02DB801C7010995080F111DF4
:103D6000F701E084F184EECFD8011C92F6010190B6
:103D70000020E9F73197BF016C197D0940E0C601C9
:103D8000C6CF66E572E0FB01449150E080E80E94F6
:103D9000950709CF973009F4BECF983021F481E020
:103DA0008093F10000CF993009F0FDCE837009F0C7
:103DB000B2CFE1E0F1E081E031E096E3219122230E
:103DC00071F08093E9003093EB00DF0111972C91A3
:103DD0002093EC009093ED008F5F873079F78EE7AA
:103DE0008093EA001092EA008F898093A202DBCED2
:103DF0008B8D9C8D1092E9001092590210925802FE
:103E00009093570280935602898D811192C08E89BA
:103E10009D89913A49F4813209F07DCF47E050E025
:103E20006BE071E080E0B3CF913209F074CF833260
:103E300069F48F89988DB0E0A0E08093070190939A
:103E40000801A0930901B0930A01ADCE803269F454
:103E50008091E80082FFFCCF67E08BE091E00E9458
:103E600066088BEF8093E8009ECE823209F09BCEED
:103E70008F8980931201EEEFFFE7859194918B3F3C
:103E80009C4D51F1E0E0F8E080910B0190910C0124
:103E9000A0910D01B0910E01803B9440A105B105A8
:103EA000F1F48091120180FD1AC0EE3F8AE0F8071C
:103EB00089F587E797E791838083809160008093FD
:103EC0005A0288E19BE00FB6F894A89580936000B1
:103ED0000FBE9093600067CEEEEFFAE0D5CF808101
:103EE00091818737974709F05ECEA8958091600051
:103EF00088618093600080915A0280936000EE3F59
:103F00002AE0F20789F08091FE0A9091FF0A9183DE
:103F1000808349CE808191818737980751F29093B1
:103F2000FF0A8093FE0AC5CF1092FF0A1092FE0A84
:103F30003ACE0E947308DC0112960D911C91011576
:103F4000110509F4E8CED801ED91FC910190F081C2
:103F5000E02DBE016B5E7F4FC8010995811123CE14
:103F6000F80100851185EBCF181619060CF41BCE4D
:103F7000D2CEF1E0FF12BECE6AE572E004CF1F920E
:103F80000F920FB60F9211242F933F934F935F938D
:103F90006F937F938F939F93AF93BF93EF93FF9311
:103FA0008091B900887F803609F44AC0F0F58832E4
:103FB00009F4A7C018F5803109F49BC0B8F4882330
:103FC00009F4F9C0883009F494C0FF91EF91BF91D2
:103FD000AF919F918F917F916F915F914F913F91A1
:103FE0002F910F900FBE0F901F901895883109F4F4
:103FF00088C0803251F78093EB0214C0803409F4FA
:104000009DC040F48033B9F38833F9F68093EB0216
:1040100085ECB0C0803509F485C0883509F496C0B8
:10402000883499F60E94FF18D0CF883909F48CC0E3
:1040300038F5883729F050F4883611F0803729F6A2
:1040400083E08093ED021092490257C0883809F44A
:104050007BC0803919F0803809F0B7CF80914902D0
:10406000803208F071C0E091490281E08E0F8093A8
:1040700049028091BB00F0E0E75DFD4F80833DC0C9
:10408000803B39F0E0F4803A09F479C0883A09F0CD
:104090009CCF84E08093ED021092280210922702B8
:1040A000E0916102F09162020995809127028111ED
:1040B0000FC081E0809327021092070209C0803C64
:1040C00009F4A6CF883C09F4A3CF883B09F07DCF43
:1040D000E091280281E08E0F80932802F0E0E95FF2
:1040E000FD4F80818093BB00909128028091270230
:1040F00029C08091E8028093BB0085EC8093BC00CE
:1041000064CF9091EA028091E902981758F5E09106
:10411000EA0281E08E0F8093EA02F0E0E953FD4F5E
:104120008081E9CFE091EA0281E08E0F8093EA027C
:104130008091BB00F0E0E953FD4F80839091EA024B
:104140008091E9029817C8F285E8D8CFE091EA0299
:1041500081E08E0F8093EA028091BB00F0E0E9538A
:10416000FD4F80838091EC0281115CCF81E08093D0
:10417000E70284EA8093BC001092ED0226CF85EC22
:104180008093BC001092ED0280914902803230F49D
:10419000E0914902F0E0E75DFD4F10826091490235
:1041A00070E0E0915F02F091600289E292E009958F
:1041B000109249020ACF1092EB0234CFEF92FF9295
:1041C0000F931F93CF93DF93F82E192FE62E042F12
:1041D00081E0860F880F0E94670783E00E946707CF
:1041E000CF2DD12FEC0EFD2EF11CCE15DF05B9F031
:1041F00007FF13C0FE0184910E946707182F80E01B
:104200000E946707812321968111EFCFDF91CF9123
:104210001F910F91FF90EF9008958881EDCF81E07D
:10422000F5CFCF93DF93109226031092250388EEEB
:1042300093E0A0E0B0E08093270390932803A0933D
:104240002903B0932A0326E431E03093240320931A
:1042500023032FEF3FEF3093300320932F0320935E
:104260007303109275031092740310927F031092DF
:104270007E034FEF5FEFBA0140937A0350937B03C5
:1042800060937C0370937D031092830310928203EA
:104290008093840390938503A0938603B093870350
:1042A00088E591E090938103809380038CE0ECE8B3
:1042B000F3E0DF011D928A95E9F7109299031092BD
:1042C00098038091A003811113C010929B03109258
:1042D0009A038BEF96E090939D0380939C038BE46D
:1042E00090E090939F0380939E0381E08093A003CE
:1042F0000E94340DFC01A385B485109709F022C1FA
:104300008AE993E0948783878585968520919E032B
:1043100030919F03820F931F968785871092BC036D
:104320001092BB038AE691E09093BA038093B9039D
:104330008091B103811113C01092AC031092AB03B2
:1043400086EC97E09093AE038093AD038FE290E00C
:104350009093B0038093AF0381E08093B1030E94F8
:10436000340DFC01A385B485109709F0F6C08BEAE3
:1043700093E094878387858596852091AF0330915C
:10438000B003820F931F9687858786E497E090930A
:10439000C6038093C50389E490E00E94F31BD82FE5
:1043A0008AE490E00E94F31BC82F88E490E00E940A
:1043B000F31B10926504109264041092670410922B
:1043C0006604109269041092680410926B041092B3
:1043D0006A0410926D0410926C0410926E04109294
:1043E000700410926F042FEF3FEF3093720420930C
:1043F0007104109274041092730410927604109257
:1044000075042AE734E0309378042093770480938E
:10441000790486E791E09093630480936204D093DB
:104420007A04C0937B048FEF80937C0480937D0497
:1044300080E092E1AAE7B0E080937E0490937F044D
:10444000A0938004B093810487EC93E0909383045D
:1044500080938204C093840484E694E0909386045D
:1044600080938504109287041092880410928A0425
:104470001092890410928C0410928B046CE771E006
:104480008CE594E00E949E188EE290E09093C90320
:104490008093C80380ED97E09093CB038093CA0389
:1044A00082E3809344048093450410924604109262
:1044B0004704109248041092490410924A04109242
:1044C0004C0410924B048FB78093590481E090E024
:1044D00090935B0480935A04E9E3F8E024912093DD
:1044E00055048AE198E0FC013491E32FF0E0EE0FEF
:1044F000FF1FED5FF74F4591549150934E04409349
:104500004D04FC018491E82FF0E0EE0FFF1FEB500B
:10451000F84FA591B491B0935004A0934F04EC913F
:10452000E22BEC938EE190E09093C9038093C80353
:1045300084E992E09093CB038093CA03DF91CF91FB
:104540000895DC018D919C9111970097D1F78AE92C
:1045500093E08D939C93D8CEDC018D919C91119723
:104560000097D1F78BEA93E08D939C9304CFCF9380
:10457000DF93CDB7DEB7EE970FB6F894DEBF0FBE70
:10458000CDBF789484B5826084BD84B5816084BDDC
:1045900085B5826085BD85B5816085BD80916E00E1
:1045A000816080936E001092810080918100826012
:1045B000809381008091810081608093810080914F
:1045C0008000816080938000809191008260809360
:1045D0009100809191008160809391008091900082
:1045E0008160809390008091C10084608093C100BD
:1045F0008091C10082608093C1008091C100816080
:104600008093C1008091C30081608093C30080913A
:10461000C00082608093C0008091C200816080935E
:10462000C20080917A00846080937A0080917A0041
:10463000826080937A0080917A00816080937A0012
:1046400080917A00806880937A001092A202109282
:104650005E0210925D028091D70081608093D70046
:1046600080EA8093D80089B5806189BD89B5826070
:1046700089BD09B400FEFDCF61E070E080E090E00C
:104680000E9411078091D8008F7C80618093D800B0
:104690008091E000807F8093E0008091E1008E7E39
:1046A0008093E1008DE08093E200559A209A8FEF8D
:1046B0009FEF9093300380932F0360ED77E080E0CD
:1046C00090E00E9411078EEE93E00E94F31B909100
:1046D0001301891308C08FEE93E00E94F31B9091A1
:1046E0006A02891761F063E171E08EEE93E00E9447
:1046F00037196AE672E08FEE93E00E94371982E57F
:1047000090E00E94F31B182F8EEE93E00E94F31BA3
:1047100018130BC083E590E00E94F31B182F8FEE57
:1047200093E00E94F31B181761F063E171E082E5EA
:1047300090E00E9437196AE672E083E590E00E94FB
:1047400037191092F4021092F3021092A402109200
:10475000C6020E94B70982E597E0909362028093B7
:10476000610283E597E09093600280935F0286E4A4
:1047700097E09093C6038093C50380E00E94F51BE9
:1047800080919102813009F098C082E694E00E9405
:1047900065130E94C214E9E8F2E0E491E0938C030F
:1047A000EAE8F2E0249120938D03EBE8F2E08491B3
:1047B00080938E03ECE8F2E0E491E0938F034DE800
:1047C00052E0509395034093940344ED5BE0509383
:1047D00099034093980390E0079613E09595879589
:1047E0001A95E1F780939103289FE02D1124E0931F
:1047F00092031092930310929703109296038CE801
:1048000093E090937604809375040091770410915F
:104810007804D8011D968C911D9780FD1CC01B96B5
:10482000ED91FC911C9780819181228133813183AC
:104830002083938382831F968D919C9150975196EC
:104840002D913C91529750963C932E931F975296E0
:104850009C938E93519783E0F8018587C8010E944D
:10486000111360E0D8011A968C910E947E0B88E2A9
:104870000E94A30B86E30E94A30B61E0F8018285EE
:104880000E947E0BD8011D96EC9180EAE33020F463
:10489000F0E0E15DFE4F8081F8019685892B0E9452
:1048A000A30B60E0D8011A968C910E947E0B89E2DE
:1048B0000E94A30BC8010E94870B809194028F3F36
:1048C000F1F18DE490E00E94F31BD82E8CE490E08F
:1048D0000E94F31BE82E8BE490E00E94F31BF82E5D
:1048E00081E190E00E94D8328C01FC011282118299
:1048F00082E383838FE1848385E285838CE08683F2
:1049000010861782118612868EE18387158614869B
:1049100020E040E060E0C8010E94B50610938B02E1
:1049200000938A022D2D4E2D6F2DC8010E94B506D1
:1049300081E0D8011B968C931B9713968C93E09182
:104940009602F0E0E253FA4FE491E093440480EFE2
:1049500093E00E94F31BC82E809384028CEE93E0B8
:104960000E94F31BD82E80936902CC2009F484C0E6
:104970000C2D10E0C8010E942E17809380029093A6
:1049800081027C01B12CA12CAC1450F4C5010E9411
:10499000F31BF70181937F01FFEFAF1ABF0AF4CF3A
:1049A00082E390E00E94F31B80938C0284E490E009
:1049B0000E94F31BF82E8093680285E490E00E9429
:1049C000F31BE82E8093670286E490E00E94F31BBD
:1049D000B82E8093660287E490E00E94F31BA82E15
:1049E0008093650261E08F2D0E94790661E08A2D37
:1049F0000E94790661E08E2D0E94790660E08B2D81
:104A00000E94790660E08E2D0E944B0661E08F2D9A
:104A10000E944B060E94E20F29E0C29EC0011124B1
:104A20000E942E17DC01FC0152E34FE135E22CE03D
:104A30001282118253834483358326831086178222
:104A4000399601501109A1F7809382029093830255
:104A500080E036E091E02CE014963C931497169693
:104A60009C93169715962C93159713969C931397D2
:104A70008F5F1996C812F0CFDD2009F488C08D2C05
:104A8000912CC4010E942E17C82E8093630290932C
:104A90006402A82EB92E082F192FB3E3EB2EF12CA8
:104AA000682E802F8C198D1550F4C7010E94F31BBE
:104AB000D8018D938D01BFEFEB1AFB0AF2CFEAE02C
:104AC000DE9EC00111240E942E17782EC92EE82EDA
:104AD000F92E082F192F72E3272EEFE13E2EF5E273
:104AE0004F2EACE05A2ED80112961C921E921197AE
:104AF00013962C92139714963C92149715964C92F9
:104B0000159716965C92169718961C921E921797F8
:104B100019961C9262E080E00E947906F801878174
:104B20009085906190878783065F1F4FF1E08F1A11
:104B30009108C9F670927E02C0927F0266E0C62E8E
:104B400011E00CE08A2D86198D1508F5D5018D919F
:104B50005D01F701818762E00E947906D70117960F
:104B60008D919C911897906118969C938E931797AE
:104B70001496CC92149716961C93169715960C9330
:104B8000159713961C93BAE0EB0EF11CDBCFFE01D8
:104B90007E96FAABE9AB212C312C21012A9480912D
:104BA0009002882391F10E94E20FAB01BC01CE017B
:104BB00001960E945118CE0101960E94B916CE01AD
:104BC00001960E94081780918C02F8E08F9FC00127
:104BD0001124209160043091610428173907A8F44A
:104BE00063E971E0CE0101960E949E186CE574E0C5
:104BF000CE0101960E94E617BC018CE594E00E946C
:104C00007E18CE0101960E940817809194028F3F72
:104C100009F4C4C0E0908A02F0908B02D70150964C
:104C20008C91509719969C9197FF74C00E94220610
:104C300011E0892B09F410E0C7010E94B011F701BF
:104C4000818585FF02C08F7D8187412F6FEFC7016E
:104C50000E94FA10882309F4A1C0E0908A02F09023
:104C60008B02F701818585FD83C0878190850E9435
:104C7000210F8032910509F43CC18034910509F47B
:104C800077C0029709F08AC0809194028F5F8330C9
:104C900008F02CC18093940264E972E084EF93E001
:104CA0000E94371980919202882309F477C040E06E
:104CB00060E080E00E94F80E0CEC13E0F8016193D4
:104CC0007193819327E434E02E173F07C1F74FEF2C
:104CD0006FEF8FEF0E94F80E6B01E82E2091940287
:104CE00030E090E080E0D801CD92DD92ED928D0130
:104CF000019628173907BCF7EDECF6E08491809314
:104D000044040E94540468EE73E080E090E00E9446
:104D1000110744C00E942206DD24D394892B09F494
:104D2000D12CD7011E968C910E9422068C01F7018E
:104D300087850E94220621E030E0892B11F430E0C3
:104D400020E0220F331F81E0012B09F480E0182FAF
:104D5000122BC7010E94B011D70119968C91199797
:104D600085FF03C08F7D19968C934D2D612F6FCFDA
:104D700010919402111172C0C7010E944A10882339
:104D800019F080E10E94C00DC7010E943C108823E9
:104D900019F080E20E94C00D0E94D10D10E08AE05F
:104DA000982E99E0B92E25E6A22E8091930218172D
:104DB00008F0ECC080918402C12ED12C181708F0A5
:104DC000AAC0E0908202F09083021B9DE00CF11CCF
:104DD0001124E0918002F0918102EC0DFD1D6081B3
:104DE00070E08CE594E00E94540701E0FC018081B2
:104DF000803309F000E0C7010E94B011602FC701A5
:104E00000E945710D70117968D919C910E94210FF7
:104E1000082FF701F0809091950280919302989F5E
:104E2000C00CD11C1124AC9CB001AD9C700D1124A0
:104E30006C597F4F072E000C880B990B0E94AE1205
:104E4000682F043009F491C008F07AC0013009F4E9
:104E50008CC0023009F490C01F5FA7CF113061F5FC
:104E60000E944407609386027093870280938802B1
:104E70009093890210938502C7010E943C10109103
:104E80009602882381F0153018F015501093960281
:104E9000E0919602F0E0E253FA4FE491E09344048B
:104EA0000E9454047BCFC7010E944A10882381F3DB
:104EB0001B3F70F71B5FEACF123009F06FCFC701BD
:104EC0000E944A10882329F069ED89EB93E00E9443
:104ED000610EC7010E943C10882329F06AED89EB1E
:104EE00093E00E94610E0E94B30D58CF109294027D
:104EF000D3CE80919402811151CFD7018C91813012
:104F000009F448CF823011F488E044CF833009F0AF
:104F100043CF84E03FCFE0907E02F0907F02960185
:104F2000281B3109929EC001939E900D11248E0D75
:104F30009F1D0E94BE11199DE00CF11C112462CF2F
:104F4000083009F1003209F087CF882309F484CFB3
:104F5000F1E040E0FF16A1F022E042E0F21681F01D
:104F600033E0F31210C043E00BC0611175CF40E095
:104F7000812F0E944E1970CF41E0882309F46CCF35
:104F8000812F0E944E190E94B30D66CF0E944407E4
:104F900000917A0210917B0220917C0230917D0277
:104FA000601B710B820B930B68387341810591056F
:104FB00038F080917902813019F482E0809379028F
:104FC0000E94440700918602109187022091880276
:104FD00030918902601B710B820B930B643F71400F
:104FE0008105910508F470C080918502813009F037
:104FF0006BC01092850285E0EEE1F1E0DE0159968A
:1050000001900D928A95E1F786EF93E00E94F31BE1
:10501000E82EF09096028E01075E1F4FF8018191F5
:105020008F0190E0BC0163577D4F83519C4F0E94DC
:10503000371929A93AA90217130781F7EF1409F4C0
:1050400043C060919502CE0101960E9424186091A0
:105050009602CE0107960E94241860919702CE0115
:105060000D960E9424186DE771E0CE0143960E94D0
:105070009E18BE01635F7F4FCE0143960E94E617E4
:105080006DE771E00E94D017BE01695F7F4F0E94FB
:10509000E6176DE771E00E94D017BE016F5F7F4F8A
:1050A0000E94E6170E94CE08CE0143960E94081780
:1050B000CE010D960E940817CE0107960E94081790
:1050C000CE0101960E94081780919202882381F1F7
:1050D00010919702E0919602F0E0E253FA4FE491CA
:1050E000E09344040E944407C0906C02D0906D028B
:1050F000E0906E02F0906F026C197D098E099F0995
:10510000663471058105910598F00E94440760930B
:105110006C0270936D0280936E0290936F02123056
:1051200009F49BC030F51123A9F1113009F449C0ED
:1051300083E293E00E947609892B09F431C26CE77F
:1051400071E0CE010D960E949E180E94200997FDE5
:10515000E9C08A30910509F4E5C089831A8241E0EB
:1051600050E0BE016F5F7F4FCE010D960E94731716
:10517000ECCF133009F4B0C0E8ECF3E080E494E045
:105180001431B1F614821582168233968E179F075A
:10519000C9F714C010916B02812F0E94090F9B0167
:1051A000482FECECF3E084E494E0219331934193B5
:1051B0008E179F07D1F71D5F10936B020E94540456
:1051C000B7CF80916B020E94090F9B01482FECEC36
:1051D000F3E084E494E02193319341938E179F0789
:1051E000D1F710E00E94672FC12ED12CF12CE12CB9
:1051F00023E030E040E050E00E9463316C157D0513
:105200008E059F0524F14FEF6FEF8FEF0E94F80E90
:105210003B01882EC0909302D12CF12CE12CC114BB
:10522000D104E104F10439F00E94672FA70196012F
:105230000E9463316B01F601EE0FFF1FEC0DFD1DA7
:10524000E853FC4F6482758286821F5FCBCF8091CA
:105250006B028D5F80936B02B1CF10E0809193025F
:10526000181708F0ABCF0E94672F6BAF7CAF8DAFE4
:105270009EAF0E94672F4B015C010E94672F6B015C
:105280007C016BAD7CAD8DAD9EADA20191010E9404
:105290006331062FC501B401A20191010E9463315F
:1052A000B62EC701B601A20191010E946331862F7B
:1052B000402F6B2D0E94F80E9B01482F812F90E00C
:1052C000FC01EE0FFF1FE80FF91FE853FC4F24838A
:1052D000358346831F5FC2CF10E00FEF60919302CA
:1052E00020916B021617D0F4109FC001112470E0BA
:1052F0000E94AA32822F860F0E94090F9B01482F1D
:10530000812F90E0FC01EE0FFF1FE80FF91FE8531B
:10531000FC4F2483358346831F5FE0CF2D5F2093AE
:105320006B024CCF89899A89892B09F4C6C0ED8517
:10533000FE85309709F4C1C010816CE771E0CE01A1
:1053400007960E949E181D3209F445C30CF0B7C0A1
:10535000133209F49EC31A3209F4E9C3113209F079
:1053600017C110919102113009F012C121E030E013
:1053700050E040E0BE01635F7F4FCE0101960E9486
:10538000B31867E871E0CE0101960E943617082F26
:10539000CE0101960E940817002309F4F9C029895B
:1053A0003A8941E050E0BE01635F7F4FCE01019634
:1053B0000E94B31867E0CE0101960E94611C7C0137
:1053C000CE0101960E940817D70115960C911597EA
:1053D0001496DC9014971396CC9013971696BC9065
:1053E00016971296AC90129711969C9011978C90EC
:1053F0001093A30288E68093C5021092A402109233
:10540000C60290E080E00E94630B1AE0882D612FB5
:105410000E949E328295807F682F690F80E893E01A
:105420000E94340B892D612F0E949E328295807FCD
:10543000682F690F80E893E00E94340B8A2D612F5A
:105440000E949E328295807F682F690F80E893E0EA
:105450000E94340B8B2D612F0E949E328295807F9B
:10546000682F690F80E893E00E94340B8C2D612F28
:105470000E949E328295807F682F690F80E893E0BA
:105480000E94340B8D2D612F0E949E328295807F69
:10549000682F690F80E893E00E94340B802F612F02
:1054A0000E949E328295807F682F690F80E893E08A
:1054B0000E94340B0E94F609E3C210E03ECF1C3775
:1054C00009F431C21D3709F460C01B3709F060C010
:1054D00021E030E050E040E0BE01635F7F4FCE014D
:1054E00001960E94B31861E871E0CE0101960E9416
:1054F0003617182FCE0101960E940817112309F4C0
:1055000047C029893A8941E050E0BE01635F7F4F7F
:10551000CE0101960E94B31865E0CE0101960E946B
:10552000611C8C01CE0101960E94081785E0EEE116
:10553000F1E0DE01119601900D928A95E1F7CE011E
:105540000196D80198012B5F3F4FFC015191CF018B
:105550004D91E52FF0E0E357FD4F40832A173B07BD
:10556000A1F70E944407609386027093870280939C
:1055700088029093890281E08093850201151105CC
:1055800039F0C8010E94743303C081E00E94F51B0A
:10559000CE0107960E940817CE010D960E940817AB
:1055A0000E944407009175021091760220917702C3
:1055B00030917802601B710B820B930B683E734035
:1055C0008105910508F4A7C10E9444076093750204
:1055D0007093760280937702909378028091910283
:1055E000813009F098C180917902823009F000C3BE
:1055F000109279020E94C21481E08093A30288E68F
:105600008093C5021092A4021092C60290E080E03E
:105610000E94630B0E94F60967E070E088E690E064
:105620000E94D51180E893E00E94ED0A982F929590
:1056300097702AE0B22E8F70C82E9B9DC00C11244B
:1056400080E893E00E94ED0A982F92959F708F70EA
:10565000D82E9B9DD00C112480E893E00E94ED0A87
:10566000982F929593708F70E82E9B9DE00C1124DB
:1056700080E893E00E94ED0A982F92959F708F70BA
:10568000182F9B9D100D112480E893E00E94ED0AD5
:10569000982F92959F708F70082F9B9D000D11245D
:1056A00080E893E00E94ED0A982F92959F708F708A
:1056B000F82E9B9DF00C112480E893E00E94ED0AE7
:1056C000982F92959F708F709B9D800D1124B82EFE
:1056D0006C2DCE0185960E942418F9E063E971E0F3
:1056E000FC1510F46CE771E0CE014F960E949E18F5
:1056F0006D2DCE0149960E94241829E063E971E0DE
:105700002D1510F46CE771E0CE0143960E949E18AF
:105710006E2DCE010D960E94241839E063E971E0E8
:105720003E1510F46CE771E0CE0101960E949E18C0
:10573000BE016F5F7F4FCE0107960E949518BE0194
:10574000635F7F4FCE0107960E94E6176FE971E015
:105750000E94D017BE016D5E7F4F0E94E617BE010A
:10576000675E7F4F0E94E6176FE971E00E94D017D5
:10577000BE01615E7F4F0E94E617BE016B5D7F4FE9
:105780000E94E617BC01CE018B960E949518CE01AF
:1057900007960E940817CE0101960E940817CE01B5
:1057A0000D960E940817CE0143960E940817CE015D
:1057B00049960E940817CE014F960E940817CE0105
:1057C00085960E9408176B2DCE014F960E942418D3
:1057D0006F2DCE0149960E94241889E063E971E09B
:1057E0008F1510F46CE771E0CE0143960E949E186D
:1057F000602FCE010D960E94241863E971E00A30F3
:1058000010F06CE771E0CE0101960E949E18BE0177
:105810006F5F7F4FCE0107960E949518BE01635FB0
:105820007F4FCE0107960E94E61765E971E00E945E
:10583000D017BE016D5E7F4F0E94E617BE01675E06
:105840007F4F0E94E61765E971E00E94D017BE0104
:10585000615E7F4F0E94E617BC01CE0185960E94D3
:105860009518CE0107960E940817CE0101960E9456
:105870000817CE010D960E940817CE0143960E948C
:105880000817CE0149960E940817CE014F960E9434
:1058900008178FEF9FEF909372048093710469E073
:1058A00070E0CE018B960E94101770E060E08CE1F2
:1058B00090E00E94501569E070E0CE0185960E944C
:1058C000101761E170E08CE190E00E945015E12F2B
:1058D000F0E0EE0FFF1FEE5CFE4F60817181CE01A4
:1058E00001960E949E186AE070E0CE0101960E9427
:1058F0001017CE0101960E94081762E270E08CE159
:1059000090E00E945015CE0185960E940817CE01A6
:105910008B960E94081780E090E0892B09F43FC91C
:105920000E9400003CC96CE771E0CE0107960E941E
:105930001A1811E075E6B72E20919302211708F48A
:1059400052C130919502812F90E0239F800D911DCF
:105950001124B89E6001B99ED00C1124F1E0CF1A39
:10596000D1080D2C000CEE08FF08C701B6010E94FB
:10597000AE12082F853030F040E0C701B6010E941A
:10598000D91200E080919302BE01695F7F4F181722
:10599000C1F0CE0101960E949518602FCE010196AC
:1059A0000E949F176FE771E00E94D017BC01CE01E3
:1059B00007960E947E18CE0101960E9408171F5F6D
:1059C000BBCFCE0101960E949518602FCE010196A3
:1059D0000E949F17EBCF21E030E050E040E0BE0195
:1059E000635F7F4FCE0101960E94B31863E871E0B8
:1059F000CE0101960E943617182FCE0101960E9403
:105A00000817112309F4C4CD29893A8941E050E0EF
:105A1000BE01635F7F4FCE0101960E94B31866E618
:105A2000CE0101960E94611C7C01CE0101960E946C
:105A300008173091950220919302D7018D918D0125
:105A400090E0329F800D911D112425E6289F400192
:105A5000299F900C1124092C000CAA08BB0865E6AC
:105A6000D62EF80141918F01C501B4010E94D912CF
:105A7000DA94FFEF8F1A9F0AAF0ABF0AD110F1CF55
:105A8000E114F10419F0C7010E9474330E94A105CA
:105A90007FCD10919102113009F07ACD21E030E0F4
:105AA00050E040E0BE01635F7F4FCE0101960E944F
:105AB000B31865E871E0CE0101960E943617082FF1
:105AC000CE0101960E940817002309F461CD1093BE
:105AD00079020E94440760937A0270937B0280935C
