:100000000C942A040C9452040C9452040C94520440
:100010000C9452040C9452040C9452040C94520408
:100020000C9452040C9452040C94E71C0C94641D20
:100030000C9452040C9452040C9452040C945204E8
:100040000C9452040C9452040C9452040C945204D8
:100050000C9452040C9452040C9452040C949D1C65
:100060000C9452040C9452040C9452040C945204B8
:100070000C9452040C9452040C9452040C945204A8
:100080000C9452040C9452040C9452040C94520498
:100090000C94961F0C9452040C9452040C94520429
:1000A0000C9452040C9452040C945204000000006E
:1000B0000000000001010101010101010202020230
:1000C00002020203030303030404040505050505F6
:1000D000060606060707070808080808090A0A0AA4
:1000E0000A0B0B0C0C0C0C0D0D0D0E0E0F0F0F1040
:1000F00011111111121213141414141516161717C6
:10010000171819191A1A1B1B1C1C1D1E1E1F1F2035
:1001100021212223232425252626272829292A2B85
:100120002C2D2D2E2F2F30313233343536363738B3
:1001300038393A3B3C3D3E3F4041424344454546C9
:1001400047494A4B4C4D4E4F5051525455565759B2
:100150005A5B5D5E5F60616264656667696A6C6D6B
:100160006E6F7173757677797A7B7C7F80828385F9
:100170008688898B8C8F9192939497999A9C9E9F55
:10018000A2A3A5A7A9ABADAEB0B3B4B6B9BABCBE75
:10019000C0C2C4C7C9CACDCFD1D3D6D8DADCDFE15B
:1001A000E2E6E7EBECF0F1F5F6FAFBFF01FF961162
:1001B000FFFFB103012C2DB203012C2DB306012C3E
:1001C0002D012C2DB40107B6021502C003A2028432
:1001D000C101C5C2020A00C3028A2AC4028AEEC54E
:1001E000010E20003601003A0105E0100F1A0F1829
:1001F0002F2820221F1B233700070210E1100F1B9E
:100200000F17332C292E3030393F0007031029FFF8
:100210006413FF0A080B0002020200000904000038
:10022000010202000005240010010524010101045F
:100230002402060524060001070581031000400979
:10024000040100020A000000070502024000000746
:100250000583024000000403090412010002EF02BA
:10026000014041233680000101020301417264759F
:10027000696E6F204C4C430041726475696E6F204B
:100280004C656F6E6172646F00000608200000000C
:100290000000000000002F00000000070007000021
:1002A000147F147F1400242A7F2A12002313086469
:1002B0006200364955225000000503000000001C72
:1002C000224100000041221C000014083E081400D6
:1002D00008083E0808000000A060000008080808A0
:1002E00008000060600000002010080402003E5179
:1002F00049453E0000427F400000426151494600AE
:100300002141454B31001814127F10002745454507
:1003100039003C4A4949300001710905030036495A
:1003200049493600064949291E00003636000000BA
:100330000056360000000814224100001414141462
:10034000140000412214080002015109060032493C
:1003500059513E007C1211127C007F4949493600F8
:100360003E41414122007F4141221C007F494949D1
:1003700041007F09090901003E4149497A007F088F
:1003800008087F0000417F4100002040413F0100FC
:100390007F08142241007F40404040007F020C0251
:1003A0007F007F0408107F003E4141413E007F09ED
:1003B000090906003E4151215E007F0919294600C6
:1003C00046494949310001017F0101003F40404059
:1003D0003F001F2040201F003F4038403F00631473
:1003E000081463000708700807006151494543007D
:1003F000007F41410000552A552A55000041417FA8
:10040000000004020102040040404040400000019E
:10041000020400002054545478007F4844443800BB
:10042000384444442000384444487F0038545454ED
:100430001800087E0901020018A4A4A47C007F080B
:100440000404780000447D4000004080847D00006A
:100450007F102844000000417F4000007C04180405
:1004600078007C0804047800384444443800FC24B4
:100470002424180018242418FC007C080404080014
:10048000485454542000043F444020003C40402045
:100490007C001C2040201C003C4030403C00442894
:1004A000102844001CA0A0A07C004464544C4400CC
:1004B00000087700000000007F00000000770800BF
:1004C0000000100810080014141414141400008004
:1004D000808080E0E07E7E6060606060607F7F6042
:1004E00060606060607E7EE0E0808080800080816F
:1004F000818181FFFF000000FCFCFCFCFCFCFCFC9B
:10050000FCFCFCFC000000FFFF81818181800181F7
:10051000818181FFFF0000003F3F3F3F3F3F3F3F62
:100520003F3F3F3F000000FFFF81818181010001CB
:1005300001010107077E7E060606060606FEFE0688
:1005400006060606067E7E0707010101010018184F
:1005500018F8F8C0C0C0C0C040C0C0C0C0C0C0C053
:10056000C0C0C0404040C0C0C0C0C0C0C0C0008FFC
:100570008FFFFFFFFFFFF1E0CEE0F1FF3F8FE7E3EA
:10058000C1C0C63EBF3EC6C0C1E3E78F3FFF809CEF
:100590009CFFFFFFFFFFE3C19CC1E3FFFEF8F3E315
:1005A000C181B13E7E3EB181C1E3F3F8FEFF0000A0
:1005B000001F1F000000000000001F071F071F078B
:1005C0001F071F071F071F071F070000000000006D
:1005D000000000000000010101010101010102020F
:1005E00002020202020303030303040404050505D7
:1005F0000505060606060707070808080808090A89
:100600000A0A0A0B0B0C0C0C0C0D0D0D0E0E0F0F25
:100610000F101111111112121314141414151616AF
:100620001717171819191A1A1B1B1C1C1D1E1E1F21
:100630001F20212122232324252526262728292976
:100640002A2B2C2D2D2E2F2F3031323334353636A8
:10065000373838393A3B3C3D3E3F404142434445C0
:10066000454647494A4B4C4D4E4F505152545556B2
:1006700057595A5B5D5E5F60616264656667696A6F
:100680006C6D6E6F7173757677797A7B7C7F808203
:1006900083858688898B8C8F9192939497999A9C65
:1006A0009E9FA2A3A5A7A9ABADAEB0B3B4B6B9BA8D
:1006B000BCBEC0C2C4C7C9CACDCFD1D3D6D8DADC7C
:1006C000DFE1E2E6E7EBECF0F1F5F6FAFBFF000024
:1006D00000002300260029002C002F00000000024B
:1006E00000090F0000030401000C000000000000DE
:1006F0000000000000000000000000050C0901A13E
:1007000001850115002501750195180A23020A8A41
:10071000011A24022A27020A21020A2A0209CD0903
:10072000B709B609B509E909EA09E20A83010A012C
:10073000020A02020A07020A1A020A79021A1B02B4
:100740002A1D028102C000000000000000002A2BC8
:100750002800000000000000000000000000000071
:100760000000000000002C9EB4A0A1A2A434A6A703
:10077000A5AE362D3738271E1F20212223242526FB
:10078000B333B62EB7B89F8485868788898A8B8CC9
:100790008D8E8F909192939495969798999A9B9C11
:1007A0009D2F3130A3AD350405060708090A0B0C4F
:1007B0000D0E0F101112131415161718191A1B1CF1
:1007C0001DAFB1B0B50005010906A10185020507FD
:1007D00019E029E7150025017501950881029501A9
:1007E000750881039506750815002573050719001E
:1007F00029738100C000000000240027002A002D7A
:1008000000300000000000250028002B002E0031E1
:1008100000040404040403040502020202040302A7
:100820000202020606060606060404020202040488
:1008300004080201104080401020408040800802DF
:100840000401804020100201108010204040200050
:10085000E820C92E11241FBECFEFDAE0DEBFCDBFE6
:1008600011E0A0E0B1E0E0E8F9E602C005900D92E9
:10087000A83EB107D9F724E0A8EEB1E001C01D926F
:10088000AF38B207E1F714E0C9E2D4E004C0219721
:10089000FE010E947F32C832D107C9F70E948E2222
:1008A0000C94B3340C9400004F925F926F927F923D
:1008B0008F929F92AF92BF92CF92DF92EF92FF9270
:1008C0000F931F93CF93DF9300D01F92CDB7DEB766
:1008D00080915304E0914B04F0914C049081982B4B
:1008E000909355049081809589238093560480913C
:1008F00042048093430480915804909159040397D3
:1009000021F48FB780935704F89400914904109113
:100910004A040115110509F492C0D0904204E6EC96
:10092000F3E06EE374E020E030E0A901ED2CF12C5F
:10093000C7010196C480C89ED001C99EB00D112484
:10094000AB2FBB272A0F3B1F411D511DC580C89EE1
:10095000D001C99EB00D1124AB2FBB272A0F3B1F1E
:10096000411D511DC680C89ED001C99EB00D1124E5
:10097000AB2FBB272A0F3B1F411D511D33966E170E
:100980007F07C1F6232F342F452F552747FD5A9552
:10099000A091C603B091C7030E944E3123E030E01E
:1009A00040E050E00E94243149015A018091C8037F
:1009B0009091C90381149104A104B104F1F169E19A
:1009C00070E00E946B32CB01072E000CAA0BBB0B10
:1009D000880D991DAA1DBB1D2801012E000C66085B
:1009E000770884159505A605B7053CF1C801861B57
:1009F000970BBC01072E000C880B990B0E94153039
:100A00002B013C01B701FF0C880B990B0E9415309C
:100A10009B01AC01C301B2010E9450306B017C010B
:100A2000C501B4010E9415309B01AC01C701B6019C
:100A30000E94BE310E943032D62ED0924304E6ECA2
:100A4000F3E00EE314E07E0194E0E90EF11C558121
:100A500046818091430490E001966481689F9001F3
:100A6000699F300D11243A83589F9001599F300D92
:100A700011243983489F9001499F300D11243B83F5
:100A80008091580490915904029721F48FB7809374
:100A90005704F894BE016F5F7F4FDB018D91BD015C
:100AA00020915804309159042130310521F49FB729
:100AB00090935704F8949091550420915604A09176
:100AC0004B04B0914C0438E09C9387FF2C93880F23
:100AD00043E04A95F1F700002C933A95A9F78091ED
:100AE0005804909159048130910519F420915704CC
:100AF0002FBFE616F70609F0D0CF8230910519F422
:100B0000209157042FBF33960E171F0709F09FCF70
:100B1000039719F4809157048FBF0F900F900F9097
:100B2000DF91CF911F910F91FF90EF90DF90CF90C9
:100B3000BF90AF909F908F907F906F905F904F90FD
:100B4000089583E08093E9008091F200882319F0F2
:100B50008AE38093E8000895FC018091A002882335
:100B600011F13FB7F89482E08093E9002091F20000
:100B7000822F90E01816190614F481E090E0882383
:100B800039F0289844E640939F024091F100408359
:100B9000222339F02091F200211103C02BE620938B
:100BA000E8003FBF08958FEF9FEF089581508F3089
:100BB00008F047C0E82FF0E0E052FA4F0C947F3283
:100BC000FD050106EF05F505F905210621062106BB
:100BD00004060A060E061206180621061C06809157
:100BE00080008F77809380000895809180008F7DB2
:100BF000F9CF80918000877FF5CF84B58F7784BD52
:100C0000089584B58F7DFBCF809190008F7780937E
:100C100090000895809190008F7DF9CF8091900091
:100C2000877FF5CF8091C0008F778093C0000895B3
:100C30008091C0008F7DF9CF8091C200877F809323
:100C4000C2000895CF93DF93282F30E0F901E452DA
:100C5000F94F8491F901E05DF74FD491F901EF5E0E
:100C6000F74FC491CC23A1F081110E94D605EC2F3F
:100C7000F0E0EE0FFF1FE253F94FA591B491EC9114
:100C8000ED2381E090E009F480E0DF91CF910895B9
:100C900080E090E0FACF1F93CF93DF93282F30E0CE
:100CA000F901E452F94F8491F901E05DF74FD491D5
:100CB000F901EF5EF74FC491CC23A9F0162F8111F3
:100CC0000E94D605EC2FF0E0EE0FFF1FED5FF74F0F
:100CD000A591B4918FB7F894EC91111108C0D095FB
:100CE000DE23DC938FBFDF91CF911F910895DE2B20
:100CF000F8CFCF93DF9390E0FC01E05DF74F2491B4
:100D00008F5E974FFC0184918823C9F090E0880F93
:100D1000991FFC01EB50F84FA591B491FC01ED5FD8
:100D2000F74FC591D49161110DC09FB7F8948C9184
:100D3000209582238C938881282328839FBFDF916D
:100D4000CF910895623051F49FB7F8943C91822F6F
:100D5000809583238C93E8812E2BEFCF8FB7F89467
:100D6000EC912E2B2C938FBFEACF0F931F93CF9331
:100D7000DF93EC01862F6E874F87288B60E00E94FF
:100D8000790660E08F850E94790662E088890E947A
:100D900079068F819885906198878F838E850E94D0
:100DA00022068C018F850E94220621E030E0892BEB
:100DB00011F430E020E0220F331F81E0012B09F411
:100DC00080E0822B8F709A85907F892B8A87DF91B4
:100DD000CF911F910F9108953FB7F89480919B0296
:100DE00090919C02A0919D02B0919E0226B5A89B75
:100DF00005C02F3F19F00196A11DB11D3FBFBA2FAD
:100E0000A92F982F8827BC01CD01620F711D811D6C
:100E1000911D42E0660F771F881F991F4A95D1F7F1
:100E200008958F929F92AF92BF92CF92DF92EF92EE
:100E3000FF926B017C010E94EC064B015C01C11426
:100E4000D104E104F104B9F00E94EC0668197909B3
:100E50008A099B09683E73408105910580F321E072
:100E6000C21AD108E108F10888EE880E83E0981EC6
:100E7000A11CB11CE4CFFF90EF90DF90CF90BF900A
:100E8000AF909F908F9008952FB7F894609197023C
:100E9000709198028091990290919A022FBF0895C3
:100EA0000C94A10508950895FC01248135816217F1
:100EB000730720F480819181009729F410925A02DF
:100EC0008AE592E00895860F971F0895089540914E
:100ED0005602509157022091540230915502421708
:100EE0005307B4F49091E8009570E1F39091E80015
:100EF00092FD19C08093F1008091560290915702A3
:100F000001968F739927892B19F48EEF8093E8004F
:100F100080915602909157020196909357028093C8
:100F2000560281E0089580E00895DF92EF92FF92EB
:100F30000F931F93CF93DF93D82E8A01EB017B0190
:100F4000E40EF51ECE15DF0559F0D7FE12C0FE01E6
:100F500084910E94670721968111F4CF0FEF1FEF54
:100F6000C801DF91CF911F910F91FF90EF90DF901B
:100F700008958881EECF2FB7F89487708093E900A9
:100F80009091E800892F807295FF04C09091F20043
:100F900080E4891B2FBF08957F928F929F92AF921A
:100FA000BF92CF92DF92EF92FF920F931F93CF9356
:100FB000DF93C82E8B017A018091A002811110C0AD
:100FC0008FEF9FEFDF91CF911F910F91FF90EF90E7
:100FD000DF90CF90BF90AF909F908F907F900895BB
:100FE00080915B0280FF05C08091E0008260809369
:100FF000E000CE2DDF2DD12C8AEFB82E8C2D8770FE
:10100000982E8C2D8072882E8C2D8074782E9AE3E9
:10101000A92E209719F4DD2009F452C08C2D0E94CE
:10102000BB0781110AC0BA94BB2051F261E070E0A5
:1010300080E090E00E941107ECCF8C171D0611F0A4
:101040000CF08C2F9FB7F8949092E9002091E80063
:1010500025FD02C09FBFDDCF282F30E0C21BD30B80
:10106000882029F08150A0F01092F100FBCFF80108
:10107000C7FC0AC0815050F041914093F100FACF73
:1010800044914093F10031968150D0F7020F131F25
:10109000DD2021F0A092E800D12CDCCF8091E80087
:1010A00085FD07C0A092E800DD24D394209791F23B
:1010B000F3CF209779F6772069F2A092E800CACFA3
:1010C0005D9884E680935902C7017CCF615030F06F
:1010D0002091F100FC0120830196F8CF289884E646
:1010E00080939F02089580914C0281110DC082E08F
:1010F0008093480284E08093490210924B02109240
:101100004A0281E080934C0288E492E008950F93B4
:101110001F93CF93DF931F92CDB7DEB782E0898311
:1011200042E450E064E172E080E80E9495070E948A
:101130007308DC0112960D911C910115110589F0BF
:10114000D801ED91FC910280F381E02DBE016F5F2B
:101150007F4FC801099597FD04C0F80100851185EE
:10116000ECCF89810F90DF91CF911F910F9108955E
:10117000CF93DF93EC0180911201882331F083E05B
:101180000E94CC071816190634F081E090E09B838A
:101190008A8380E090E0DF91CF910895CF93DF9331
:1011A000FC01448155816081718181E293E00E945C
:1011B000B808EC0142E050E06AE771E081E293E0B8
:1011C0000E94B8088C0F9D1FDF91CF910895CF9397
:1011D000DF931F92CDB7DEB76983DC01ED91FC91FF
:1011E0000280F381E02D41E050E0BE016F5F7F4F50
:1011F00009950F90DF91CF91089583E00E94BB077E
:1012000090E00895CF93DF931F92CDB7DEB7FC0136
:101210008485958597FD08C02FEF3FEF358724879C
:101220000F90DF91CF910895CE0101960E94AC05F9
:10123000019719F4898190E0F3CF8FEF9FEFF0CF02
:101240000F931F930E9444076093290370932A030E
:1012500080932B0390932C0381E293E00E94020978
:1012600097FF1DC00E9444070091290310912A0393
:1012700020912B0330912C03601B710B820B930B7D
:101280000091250310912603209127033091280314
:101290006017710782079307F8F28FEF9FEF1F9196
:1012A0000F9108950F931F93CF93DF931F92CDB7A4
:1012B000DEB78C01FC018485958597FF0BC0CE01BC
:1012C00001960E94AC05019771F4898190E0F801C4
:1012D00095878487F801848595850F90DF91CF915C
:1012E0001F910F9108958FEF9FEFF1CFFC0184853F
:1012F000958597FD0BC09FB7F89482E08093E90035
:101300008091F2009FBF90E0019608959FB7F894F6
:1013100082E08093E9008091F2009FBF90E0089501
:1013200020912502260F3327331F21323105ECF49B
:101330002091EB02FC0190E080E0243069F082E033
:101340000895A09125022191AC014B5F5D4FA40F40
:10135000B52FB11D2C930196861798F38091250225
:10136000680F6093250280E0089581E0089510924F
:10137000EB0281E08093EA021092E50261E082E0F4
:101380000E944B0661E083E00E944B06E9EBF0E02F
:1013900080818E7F808380818D7F808388E48093AD
:1013A000B80085E48093BC000895CF93DF9391E06B
:1013B000909304028823B9F0C091B800D091BA008C
:1013C0008091BC008A7B8093BC0060E082E00E9438
:1013D0004B0660E083E00E944B060E94B709D09361
:1013E000BA00C093B800DF91CF910895CF92DF92F9
:1013F000EF92FF920F931F93CF93DF93D091C4028C
:1014000081E0D13208F09CC0C091C3020E94EC067A
:101410006B017C018091EB0281116CC082E08093B2
:10142000EB0281E08093EA028FEF8093E902109251
:10143000E802D093E702A3EAB2E0E5ECF2E080E054
:10144000D8138DC01092E6028091E602CC0FC82B13
:10145000C093E6028091E502813009F084C01092C9
:10146000E5020E94EC066B017C018091E60280930C
:10147000BB008091ED029091EE02A091EF02B0913D
:10148000F002892B8A2B8B2BA1F00E94EC06009195
:10149000ED021091EE022091EF023091F0026C19F2
:1014A0007D098E099F09061717072807390708F4D1
:1014B00042C08091BC0083FDD8CF85EC8093BC00F6
:1014C0000E94EC066B017C018091EB02823009F4F2
:1014D0004CC08091E9028F3F09F469C08091E90214
:1014E000803209F466C08091E902803309F463C058
:1014F00084E026C08091ED029091EE02A091EF026F
:10150000B091F002892B8A2B8B2B09F483CF0E9498
:10151000EC060091ED021091EE022091EF02309165
:10152000F0026C197D098E099F0906171707280715
:10153000390708F06FCF8091EC020E94D50985E051
:101540001092A2021092C4021092A102DF91CF91D8
:101550001F910F91FF90EF90DF90CF9008959D9194
:1015600091938F5F6DCF85EEA9CF8091ED02909121
:10157000EE02A091EF02B091F002892B8A2B8B2B07
:1015800009F4A2CF0E94EC060091ED021091EE0248
:101590002091EF023091F0026C197D098E099F09AC
:1015A000061717072807390708F08ECFC4CF80E049
:1015B000C7CF82E0C5CF83E0C3CF0895E091F202A8
:1015C0008091F102E81730F4F0E0ED50FD4F80819A
:1015D00090E008958FEF9FEF08959091F20280912F
:1015E000F1022FEF3FEF981748F4E92FF0E0ED50AC
:1015F000FD4F208130E09F5F9093F202C901089572
:101600008091F1029091F202891B990B0895CF927B
:10161000DF92EF92FF920F931F93CF93DF937C01A2
:10162000CB018A012091A102222389F0EB016B01F9
:10163000C40ED51ECC15DD0569F06991D701ED9179
:10164000FC910190F081E02DC7010995F3CF642F43
:101650000E949009C801DF91CF911F910F91FF90D7
:10166000EF90DF90CF900895CF93DF931F92CDB787
:10167000DEB769832091A1022223F9F02091C402F0
:10168000203258F021E030E0FC013383228390E0E7
:1016900080E00F90DF91CF9108958091A202E82F12
:1016A000F0E0ED55FD4F998190838F5F8093A2020A
:1016B0008093C40281E090E0ECCF61E0CE0101961E
:1016C0000E949009F7CF682F8EE793E00C94340BBB
:1016D0009FB7F89480910302882319F0815080937A
:1016E000030280910302811105C08CB58F7B8CBDF4
:1016F000109202029FBF08950C944B0687FD06C00E
:1017000070E0082E000C990B0C947C0B0895FC01E2
:10171000808187FD07C061E070E0082E000C990B06
:101720000E947C0B80910202882361F09FB7F8949D
:101730002091020280910102213019F48DBB9FBFDC
:1017400008958FBF08958EBD00000DB407FEFDCF34
:101750008EB50895FB0124913196E491322F2E2FFE
:10176000FB013296E491E11103C090E080E008951E
:101770006D5F7F4FDC01FC914217530730F0D901B8
:10178000AE0FB11D4A175B0728F0EF9F600D711D6A
:101790001124E0CF421B530BF49FC001F59F900D25
:1017A0001124860F971F0895EF92FF920F931F93B6
:1017B000CF93DF934115510509F44BC08A017B019A
:1017C000EC018981FA0180838A8181838F81828300
:1017D00068857985F0E8EF16F10490F4888181112D
:1017E0000FC06115710579F08B81E81AF1082E811F
:1017F0002E9DC0012F9D900D1124860F971F26C08E
:1018000061157105E1F46A857B856115710541F506
:101810004B8188859985242F042E000C330B241BC3
:1018200031094E81429FB001439F700D11242881E0
:101830002130F1F030E020E0620F731FDECFA7010E
:10184000CE0106960E94AA0B0097E9F2F801948354
:101850008383DF91CF911F910F91FF90EF900895B7
:10186000A701CE0106960E94AA0B009779F7D0CF68
:1018700023E030E0E1CFDC01FB0112962C911297BE
:10188000848195812817190641F491818081813ADC
:1018900031F49D7F81E0913009F080E0089581323C
:1018A000E1F79B3029F482811F968C9381E00895A3
:1018B0009A3099F7828150968C93F8CFAF92BF926D
:1018C000CF92DF92EF92FF920F931F93CF93DF930C
:1018D0001F92CDB7DEB77C0169836A01590141E0EF
:1018E00050E0BE016F5F7F4FFC0183810E94CC07F7
:1018F0008C0197FD0BC0F7018381A501B6018064BF
:101900000E94CC07080F191F97FD8C01C8010F908A
:10191000DF91CF911F910F91FF90EF90DF90CF90CB
:10192000BF90AF900895DC01FB0188E4808389E4D7
:10193000818384E482831D969C911D979F709F5B99
:1019400093831D968D919C9124E0969587952A9579
:10195000E1F78F708F5B848385E00895EF92FF92AB
:101960000F931F93CF93DF93FB012081213871F5F3
:101970002381223259F5DC0112964C912481358164
:101980004217130619F5EC010B851C85F12CE12C8F
:101990000115110589F0F801448155816281738137
:1019A00080E80E9495078F3F980749F0E80EF91EDE
:1019B000D8010D911C91ECCF81E08F87C701DF9199
:1019C000CF911F910F91FF90EF90089590E080E0EC
:1019D000F6CFCF93DF93CDB7DEB769970FB6F89404
:1019E000DEBF0FBECDBFFC01DB018C918F5F8C93FE
:1019F0009E012D5F3F4F8DE0D9011D928A95E9F739
:101A000029E0298384E08A8391E09D8383E08E83AB
:101A10002A8721E22B879C879D879F8722E2288B3C
:101A200027E02B8B25E02C8B8E8B20E430E0388F49
:101A30002F8B998F82818B8395858685998B8A8B55
:101A4000838180688D8B49E150E0BE016F5F7F4FDD
:101A500080E00E94950769960FB6F894DEBF0FBE2E
:101A6000CDBFDF91CF910895CF93DF938091F9019E
:101A7000811167C081E08093EC018093ED0122EF3A
:101A800031E03093EF012093EE011092F1011092BA
:101A9000F00127E231E03093E9012093E801109250
:101AA000F4011092F3011092F6011092F501809367
:101AB000F7018093F80181EC8093F2010E94730892
:101AC000FC0181819091EC01482F490F5527551F4A
:101AD000483051059CF5A281B381109709F528EE95
:101AE00031E03383228320812093EA018093EB014C
:101AF0008091ED01820F80832091EE01A22FB091A1
:101B0000EF018A2F821B8917C8F481813D91C82F6C
:101B1000D0E0C050DF4F38838F5F8183F2CFD9018F
:101B200018962D913C91199721153105C1F728EE92
:101B300031E019963C932E931897D5CF81E080938E
:101B4000F90188EE91E0DF91CF910895CF93DF9373
:101B5000EC010E94340D28E030E0AE0162E0DF913C
:101B6000CF910C945E0CE7EBF3E01682178210869F
:101B700011861286138614828BEB93E00C94A60DCB
:101B80009091A70398138093A7030E94340D23E03C
:101B900030E046EA53E061E00E945E0C81E090E0B4
:101BA0000895E6EAF3E01082118212820E94340D59
:101BB00023E030E046EA53E061E00C945E0CCF9203
:101BC000DF92EF92FF920F931F93CF93DF936C01FD
:101BD000EB017B01E40EF51E10E000E0CE15DF0501
:101BE00081F069916D30D1F3D601ED91FC910190B6
:101BF000F081E02DC6010995892B19F00F5F1F4F69
:101C0000EDCFC801DF91CF911F910F91FF90EF9021
:101C1000DF90CF900895DC016838A0F06858FD018E
:101C200086E0662321F09681961301C016828150CA
:101C300031968111F6CFCD0104960E94A60D81E068
:101C400090E00895862F90E067FF13C0FC01E058F4
:101C5000F10981E090E001C0880FEA95EAF78095EC
:101C600014969C911497892314968C93149760E092
:101C7000D6CF1C96ED91FC911D97E80FF91F64914A
:101C80006623E1F0862F807C803C69F414968C9169
:101C900014978F7B14968C9314976F73623309F0AB
:101CA000BECF64E6BCCF67FFF9CF14968C91149732
:101CB0008D7F14968C9314976F77F0CF90E080E02F
:101CC0000895DC01683888F1685816968C9116974B
:101CD000861721F117968C9117978617F9F01896A9
:101CE0008C9118978617D1F019968C9119978617B1
:101CF000A9F01A968C911A97861781F01B968C91F1
:101D00001B97861759F0FD01369690E080E02191EF
:101D100021114FC08A0F9B1FFC016683CD010496E1
:101D20000E94A60D81E090E00895862F90E067FF65
:101D300012C0FC01E058F10921E030E001C0220F9F
:101D4000EA95EAF714968C911497822B14968C934B
:101D5000149760E0BACF1C96ED91FC911D97E80FA7
:101D6000F91F6491611109C081E090E013969C9382
:101D70008E93129790E080E00895862F807C803CBF
:101D800069F414968C911497806414968C9314972C
:101D90006F73623309F099CF64E697CF67FFF9CF8D
:101DA00014968C911497826014968C9314976F7785
:101DB000F0CF01968630910509F0A9CFD5CFEF92EB
:101DC000FF921F93CF93DF93EC01162F0E94610EB9
:101DD0007C01612FCE010E940B0EC7019927DF9174
:101DE000CF911F91FF90EF90089590E080E00895CB
:101DF000E42FF0E0E455FF4F4491E62FF0E0E45586
:101E0000FF4F7491E82FF0E0E455FF4F6491842F69
:101E10000895682F660F680F8B3A38F082E0860FBE
:101E2000482F409560E00C94F80E863530F041E084
:101E3000460F642F609580E0F6CF862F809540E0B6
:101E4000F2CF91708436910591F1B0F48232910510
:101E500009F43FC040F48130910591F1409769F158
:101E600090E080E008958134910569F18035910515
:101E7000B9F780E890E00895883E9105D9F048F4DC
:101E8000813C910519F1803D910551F780E092E088
:101E90000895803521E0920739F0803D21E09207D6
:101EA00019F080319140E1F688E090E0089582E0F9
:101EB00090E0089584E090E0089580E190E0089536
:101EC00080E290E0089580E091E0089580E094E061
:101ED000089581E090E008958F929F92AF92BF9213
:101EE000EF92FF920F931F93CF93DF93EC018B013F
:101EF0007A019A01261B370B35952795F901E60FD4
:101F0000F71FEC17FD070CF54F01FF0FAA08BB08E0
:101F10009E010D2E000C440B550B281939094A0956
:101F20005B09A1E0BFEF0E94513197010F2C000C1B
:101F3000440B550B281939094A095B090E942431C1
:101F40009FEF920F2FEF30E020C09FEFCE17DF07FB
:101F5000CCF79E010D2E000C440B550B4B01770F57
:101F6000AA08BB08281939094A095B09AFEFB0E094
:101F70000E9443319F01FF0F440B550B281939096B
:101F80004A095B090E9424319FEF0C171D07B4F426
:101F9000CE15DF051CF02FEF30E090E040E0592F28
:101FA000CA01822B932BDF91CF911F910F91FF904C
:101FB000EF90BF90AF909F908F90089530E020E019
:101FC0009FEFECCFFC01218524FD08C025FF06C052
:101FD00080858095881F8827881F089580E0089550
:101FE000FC0191859073903331F480858095881F32
:101FF0008827881F089580E008951F93CF93DF936B
:10200000EC018F81988594FB112710F9162796FF14
:1020100004C09F7B98878F8311E08F81988591FD05
:1020200005C0112311F1926098878F830E944407A5
:1020300029813A81FB01E21BF30B2F8138851123A3
:10204000E9F125FD1FC04B8132FD14C0442391F0FE
:10205000346038872F837A8369838F8198858F7165
:10206000992711E0892B09F410E0812FDF91CF919E
:102070001F9108954E171F0619F010F04111EDCF72
:102080002262E7CF37FDE9CF26FD0AC04D81A0E1EE
:102090004A9FA0011124E417F507F8F22464D9CF70
:1020A00027FF0AC04E81A0E14A9FA00111242868A1
:1020B000E417F50770F6D1CF4D81F5CF25FF19C094
:1020C0008B818E171F0609F060F426FD03C08881FE
:1020D0008F5F888337FD18822F7D206131603887BC
:1020E0002F838F81988592FFB8CF9B7F98878F83AE
:1020F000B4CF30FF0DC037FD03C0206138872F8378
:102100002F8138853E7738872F837A836983E9CF9B
:102110004881442379F0C901807C9927892B41F4B7
:102120008C8140E1849FC0011124E817F907C8F2AF
:102130002160D5CF31FFD5CF2F733D7F3860E3CFFE
:102140000F931F93CF93DF93EC01162F642F0E9400
:10215000FD0F082F8C859D85009741F1298581FF12
:1021600021C020612987298582FF1EC02860298718
:1021700073E0969587957A95E1F79D878C878F8197
:10218000988585FF91C0906898878F838F81988507
:1021900093FD03C0986098878F83898580628987C3
:1021A00081E007C02F7EDECF277FE1CF17FF07C07A
:1021B00080E0802BDF91CF911F910F9108954A8588
:1021C000242F2295207F2595259525952595022E4E
:1021D000000C330B812F012E000C990B28173907A7
:1021E00039F3220F331F220F331F282B392B220FD5
:1021F000331F81E696E1A4E9B9E404C0B595A7953B
:10220000979587952A95D2F783704595459545957D
:1022100045954150840F8295807F8595859585955C
:102220008595982F9295907F212F2F70922B9A87CA
:10223000907F09F4BDCF9985292F2370213049F172
:1022400020F1223049F131E018160CF030E092FB19
:10225000222720F98A858F708A87321709F19061C9
:1022600099870E94440729813A81AB01421B530B95
:102270009A014B8559857A836983852F4217130606
:1022800089F080F0886089877ACF133009F090CF89
:10229000DACF1123C1F28CCF11501230A0F688CFC3
:1022A0009F7EDECF877FEFCF188270CFFC01278122
:1022B000308520FD1082C9018F719927892B19F073
:1022C000207E3087278308950F931F93CF93DF934A
:1022D000EC0189850E9422068C01CE010E945611D4
:1022E00061E0012B09F460E0CE01DF91CF911F91F5
:1022F0000F910C94FD0F8F929F92AF92BF92CF924D
:10230000DF92EF92FF920F931F93CF93DF937C01A5
:10231000D62F0E94EC064B015C018091EB028111EB
:1023200067C0CD2F81E08093EB028093EA029FEF9C
:102330009093E9021092E8029D0F9093E702809338
:10234000E6028091E602EE0CFF1C8E298093E602E5
:102350008091E502813009F083C01092E5020E946D
:10236000EC066B017C018091E6028093BB008091BA
:10237000ED029091EE02A091EF02B091F002892B54
:102380008A2B8B2BA1F00E94EC068090ED0290909E
:10239000EE02A090EF02B090F0026C197D098E0958
:1023A0009F0986169706A806B90608F442C08091D0
:1023B000BC0083FDD8CF85EC8093BC000E94EC0666
:1023C0006B017C018091EB02813009F44BC080915C
:1023D000E8028D1710F4C091E802E5ECF2E0A3EFFB
:1023E000B2E080E08C1751F191919D938F5FFACF0D
:1023F0008091ED029091EE02A091EF02B091F00277
:10240000892B8A2B8B2B09F488CF0E94EC06009134
:10241000ED021091EE022091EF023091F002681966
:1024200079098A099B09061717072807390708F051
:1024300074CF8091EC020E94D509C0E01092F202A4
:10244000C093F1028C2FDF91CF911F910F91FF90DC
:10245000EF90DF90CF90BF90AF909F908F900895B6
:1024600085EEAACF8091ED029091EE02A091EF024D
:10247000B091F002892B8A2B8B2B09F4A3CF0E94F9
:10248000EC068090ED029090EE02A090EF02B090EA
:10249000F0026C197D098E099F0986169706A80619
:1024A000B90608F08FCFC5CFCF92DF92EF92FF929F
:1024B0006B017C0181E08093A10280E58093C302DF
:1024C0001092A2021092C402BB27AF2D9E2D8D2D1B
:1024D0000E94630BC60199270E94630B0E94F609B4
:1024E00061E070E080E590E00E947B118EE793E070
:1024F0000E94ED0AFF90EF90DF90CF900895CF9269
:10250000DF92EF92FF92CF936B017C01C42F81E0A9
:102510008093A10280E58093C3021092A2021092E0
:10252000C402BB27AF2D9E2D8D2D0E94630BC601CB
:1025300099270E94630B61E070E080E590E00E94C3
:102540007B118EE793E00E94ED0A6C2F8EE793E0FB
:102550000E94340B65E070E080E090E00E9411077B
:10256000CF91FF90EF90DF90CF900C94F6090F93EE
:102570001F93FC01048115812681378140E052E1DF
:102580006AE770E090E0041715072607370740F464
:1025900076956795579547959F5F9630A1F797E099
:1025A000292F206A269590959170809102028823A8
:1025B00061F08FB7F894309102023130A1F43DB34D
:1025C000309301023DB33DBB8FBF2CBD9DBD8081CB
:1025D00087FD0CC070E060E0082E000C990B1F9185
:1025E0000F910C947C0B80930102EFCF1F910F9100
:1025F0000895CF93DF93EC010E94B7128A8587FD7F
:1026000005C060E0DF91CF910C947E0B80E0DF91FC
:10261000CF910C94A30BBF92CF92DF92EF92FF92D7
:102620000F931F93CF93DF93EC01888D87FD03C039
:1026300061E00E947906898D87FD03C061E00E94F8
:1026400079061FB7F89480910302811127C0E2E256
:10265000F8E08491E1E4F8E09491E82FF0E0EE0FE7
:10266000FF1FEB50F84FA591B491EC91E92321F4B1
:1026700061E081E10E944B0661E081E10E94790600
:102680008CB580618CBD8CB580648CBD61E08FE0C1
:102690000E94790661E080E10E9479068091030240
:1026A0008F5F809303021FBF0F8907FD28C061E081
:1026B000802F0E947906002E000C110B61E070E063
:1026C000C8010E947C0B6AE070E080E090E00E940C
:1026D000110770E060E0C8010E947C0B6AE070E0C6
:1026E00080E090E00E94110761E070E0C8010E9464
:1026F0007C0B64E170E080E090E00E94110780E8CC
:1027000090E09B838A8380EA90E09D838C8368E7D6
:1027100070E080E090E00E9411070D88DE89C02DF6
:10272000CE010E94F9120CEA11E084E1E82E82E069
:10273000F82EBB24BA94CC24C394F801D490CC20B6
:1027400089F1FFEFCF1217C0CE010E94870B8FEFE8
:10275000D81661F06D2D70E090E080E00E941107C6
:10276000CE010E94F912CC24C3940BC064EF71E037
:1027700080E090E0F3CF8D2D0E94A30BBB24BA9490
:10278000C12C0F5F1F4FE016F106B9F6CE01DF91A5
:10279000CF911F910F91FF90EF90DF90CF90BF905E
:1027A0000C94870BEFEFBE120AC0D7FC13C0DD20DC
:1027B000D1F261E08A850E947E0BBD2CE2CFBA94F3
:1027C0008D2D0E94A30BB110DCCF60E08A850E94A2
:1027D0007E0BC9CFCD2CD5CFDF92EF92FF920F9316
:1027E0001F93CF93DF93EC017B01D42E211531058C
:1027F00009F457C08B0101501109020F131FCE01BC
:102800000E94F9128AE20E94A30B61E08A850E946D
:102810007E0B80E00E94A30B8F858E0D0E94A30B80
:1028200080E00E94A30BEB85FC85808191810817D5
:10283000190710F00FEF080F8F85800F0E94A30B70
:1028400060E08A850E947E0B8BE20E94A30B61E010
:102850008A850E947E0B80E00E94A30B89898D0DE2
:102860000E94A30B80E00E94A30BEB85FC85898965
:1028700081509281890F0E94A30B60E08A850E949B
:102880007E0B8CE20E94A30B8A8587FD11C061E05C
:10289000DF91CF911F910F91FF90EF90DF900C94FB
:1028A0007E0BEB85FC850081118101501109A7CFBA
:1028B000CE010E94870BCE010E94B71280E4DF9107
:1028C000CF911F910F91FF90EF90DF900C94A30B8D
:1028D000CF92DF92EF92FF9230E020E050E040E0B4
:1028E00070E060E080917504909176040E94EC1392
:1028F0002091620430916304A0916404B091650456
:102900000E94AF316B017C0181E0C81AD108E10857
:10291000F1088FEFC816D806E806F80639F080E00F
:102920000E94A30B80E00E94A30BEECF8091750460
:1029300090917604FF90EF90DF90CF900C94870BEE
:102940009F92AF92BF92CF92DF92EF92FF920F933E
:102950001F93CF93DF936B01D0917104B0907204F9
:10296000A0906F049090700420E230E0AC0162E02F
:1029700070E080917504909176040E94EC1381E2DE
:10298000E82EF12CC1E081E0E81AF108F1F010E046
:1029900000E0F601E00FF11FE491EC2389F0892DAE
:1029A0000E94A30B8A2D0E94A30B0F5F1F4F0032C2
:1029B000110579F7C6018096CC0F29F76C01E2CF9B
:1029C0008B2D0E94A30B8D2FEECF809175049091DB
:1029D0007604DF91CF911F910F91FF90EF90DF90E0
:1029E000CF90BF90AF909F900C94870B2F923F9207
:1029F0004F925F926F927F928F929F92AF92BF920F
:102A0000CF92DF92EF92FF920F931F93CF93DF93BA
:102A1000CDB7DEB729970FB6F894DEBF0FBECDBF96
:102A2000782E6B01182FE12C212CF12CA09173042E
:102A3000B091740411968C91119790E0880F991FB2
:102A40002091620430916304281B390B121713067E
:102A500009F038F4EF2DF0E0EB5EFC4F808181113E
:102A600021C048E0C40ED11C80916404909165049B
:102A7000C816D90608F00AC1E39415968C911597EB
:102A800090E0880F991FE816190609F07BC0EF2D1A
:102A9000F0E0EB5EFC4F8081882309F4F7C0172D2E
:102AA0002F2CE12C6091130370911403EF2DF0E0B3
:102AB000EB5EFC4F8081F3946115710509F065C0F0
:102AC000682F70E0803C90F710921403109213036B
:102AD0001C96ED91FC911D97AE014F5F5F4FCD01AC
:102AE00009958E2D90E0959587954A819C01E3E0AC
:102AF000220F331FEA95E1F709814217130609F007
:102B00000CF4B5C0089F9001099F300D11248C81F1
:102B10009D81820F931F9D838C838E2D81708E8368
:102B20001F828E819F81880F991F880F991F998717
:102B30008887512E602E611032C0000F100F2B813C
:102B400030E0220F331F612F70E0A60180917504E1
:102B5000909176040E94EC1308E0A090710490908C
:102B60007204B12C8B8190E0880F991FB81619065A
:102B70000CF081C0892D0E94A30B8A2D0E94A30B0B
:102B8000B394F0CF172DF22C8DCFF6E0660F771FA0
:102B9000FA95E1F7607C77708F73682B95CFEC81A5
:102BA000FD81E491F0E0088402C0F595E7950A9470
:102BB000E2F790E080E0A12C84309105B9F09F010C
:102BC000082E02C0359527950A94E2F720FF0CC025
:102BD0009C01220F331F43E001C0440F2A95EAF7FE
:102BE000242FA22A0196E8CF20E0FBCF652D70E0CC
:102BF00022E030E0A60180917504909176040E9455
:102C0000EC13912C812CB12CC501082C02C0959598
:102C100087950A94E2F740906F043090700480FD2D
:102C200004C04090710430907204832D0E94A30B65
:102C3000842D0E94A30B832D0E94A30B842D0E9440
:102C4000A30B8FEF881A980A98E089169104E1F691
:102C500080917504909176040E94870B539453944D
:102C60008C819D8101969D838C836A9464CF8B8136
:102C7000800F8B8362CF015009F06FCF180F8091C6
:102C80007504909176040E94870BD0CE29960FB6DA
:102C9000F894DEBF0FBECDBFDF91CF911F910F9192
:102CA000FF90EF90DF90CF90BF90AF909F908F906C
:102CB0007F906F905F904F903F902F900895CF93AB
:102CC000DF93EC0180915A0490915B040097E9F046
:102CD0006881798161157105B1F040915C04509172
:102CE0005D042C813D814217530768F00E949D349A
:102CF0008C819D8190935F0480935E041D821C8271
:102D0000DF91CF9108950E94353388819981909306
:102D10005B0480935A048A819B8190935D04809325
:102D20005C048C819D8190935F0480935E04198282
:102D300018821B821A82E2CFCF93DF93EC01888145
:102D40009981009711F00E943533198218821D82F3
:102D50001C821B821A82DF91CF910895FC01808131
:102D60009181009711F00C9435330895CF93DF9340
:102D7000FC01C481D581209729F410921503DF91BD
:102D8000CF910895615071096C177D0708F4EB012C
:102D9000FC0160817181AE0185E193E00E94A43461
:102DA000CB5EDC4F1882EBCF009711F481E090E00E
:102DB0000C9499320E947B34FC0124813581232BB1
:102DC00039F421E0FB018081882349F020E007C02D
:102DD000808191810E94943421E0892BB9F7822F60
:102DE00008950F931F93CF93DF93EC01888199810E
:102DF000009759F02A813B812617370730F081E090
:102E0000DF91CF911F910F9108958B016F5F7F4FDD
:102E10000E94BE33009759F0998388831B830A83ED
:102E20002C813D81232B59F7FC011082E8CF80E0F3
:102E3000E7CFEF92FF920F931F93CF93DF9361152C
:102E4000710541F480E0DF91CF911F910F91FF90C8
:102E5000EF90089541155105B1F07B01EC010C8113
:102E60001D81040F151FB8010E94F116882351F32C
:102E7000288139818C819D81B701820F931F0E9427
:102E80009D341D830C8381E0DECFEF92FF920F9380
:102E90001F93CF93DF9300D000D0CDB7DEB77C0176
:102EA000862F4AE08E010F5F1F4FB80190E00E940D
:102EB000982FF80101900020E9F73197AF01401BEE
:102EC000510BB801C7010E941917811103C0C70136
:102ED0000E949C16C7010F900F900F900F90DF91EA
:102EE000CF911F910F91FF90EF900895CF93DF93B3
:102EF000EC01FB0101900020E9F73197AF01461B7F
:102F0000570B0E941917811103C0CE010E949C1615
:102F1000CE01DF91CF910895CF93DF93EC01FB01B8
:102F200044815581608171810E941917811103C00C
:102F3000CE010E949C16CE01DF91CF910895EF92B1
:102F4000FF920F931F93CF93DF93EC017B018A01D4
:102F5000BA010E94F11681110BC0CE010E949C168D
:102F6000CE01DF91CF911F910F91FF90EF900895C7
:102F70001D830C83B701888199810E949D34F0CF15
:102F8000FB0101900020E9F73197AF01461B570B79
:102F90000C949F170F931F93CF93DF93CDB7DEB79A
:102FA00029970FB6F894DEBF0FBECDBF8C01862FD8
:102FB000F8011182108213821282158214824AE073
:102FC000BE016F5F7F4F90E00E94E92FBE016F5FEF
:102FD0007F4FC8010E94C01729960FB6F894DEBF34
:102FE0000FBECDBFDF91CF911F910F910895CF9369
:102FF000DF93EC01FB018617970749F0608171812F
:103000006115710541F0448155810E949F17CE01E1
:10301000DF91CF9108950E949C16F9CFFC01118297
:10302000108213821282158214820C94F717FC010D
:103030001182108213821282158214826115710529
:1030400051F0FB0101900020E9F73197AF01461BD9
:10305000570B0C949F170895AF92BF92CF92DF92B7
:10306000EF92FF920F931F93CF93DF936C015B015D
:103070007A0189012417350720F48F2D7901042F57
:10308000182F6CE771E0C6010E941718D50114963D
:10309000CD91DC91EC16FD06E0F40C171D0708F449
:1030A000E801D501ED91FC911197EC0FFD1F108106
:1030B00010826D917C916E0D7F1DC60161157105A9
:1030C000A1F00E94C017F50180819181C80FD91F1E
:1030D0001883C601DF91CF911F910F91FF90EF9060
:1030E000DF90CF90BF90AF9008950E949C16EBCFD9
:1030F00085ED8093BC008091ED029091EE02A0914D
:10310000EF02B091F0020796A11DB11D23E0B69524
:10311000A795979587952A95D1F72091BC0024FD16
:1031200003C01092EB0208954091ED025091EE021F
:103130006091EF027091F002452B462B472B69F30B
:103140000097A105B10541F02AE22A95F1F700C0E8
:103150000197A109B109E1CF8091EC020C94D50946
:10316000FF920F931F93CF93DF938C01EB01F880B5
:103170000E940E31F81621F06F2DC8010E94163101
:10318000CE01DF91CF911F910F91FF9008950C9484
:103190000E31EF92FF920F931F93CF93DF93CDB732
:1031A000DEB72C970FB6F894DEBF0FBECDBFE82E6A
:1031B0006CE771E0CE0107960E9417180DEE13E040
:1031C000C8010E940E31F82EBE01695F7F4FCE010B
:1031D00001960E940E186F2DCE0101960E94451790
:1031E000BC01CE0107960E94F717CE0101960E94FE
:1031F000AE16083F83E01807D0F4BE01695F7F4F29
:10320000CE0101960E940E186DE771E0CE01019685
:103210000E947617BC01CE0107960E94F717CE01D7
:1032200001960E94AE16F801E256F140F0820F5F5F
:103230001F4F011584E0180719F681E0E81204C059
:10324000CE0107960E94CE08CE0107960E94AE16C8
:103250002C960FB6F894DEBF0FBECDBFDF91CF9195
:103260001F910F91FF90EF9008956F927F928F9230
:103270009F92AF92BF92CF92DF92EF92FF920F9305
:103280001F93CF93DF9300D000D000D0CDB7DEB72F
:103290005C01862F90E00E94D4164C016C01F12C49
:1032A000E12CF50184819581E816F90670F46080BF
:1032B000718060E470E0C3018E0D9F1D0E9489340F
:1032C0008C0106191709892B11F40FEF1FEF0F3F1F
:1032D0001007D1F09801A701B501CE0101960E9417
:1032E0002C1889819A8160E0009711F00E94712F5B
:1032F000F60161936F017801FFEFEF1AFF0ACE012B
:1033000001960E94AE16CDCFC40126960FB6F89452
:10331000DEBF0FBECDBFDF91CF911F910F91FF9008
:10332000EF90DF90CF90BF90AF909F908F907F9065
:103330006F900895EF92FF920F931F93CF93DF93B7
:10334000CDB7DEB7A8970FB6F894DEBF0FBECDBFDE
:103350008C016CE771E00E941718F090630261E045
:103360008F2D0E944B06E090660260E08E2D0E9439
:103370004B0661E08E2D0E944B0660E08F2D0E946F
:103380004B06F12C8091670228E0829FC001112436
:10339000F816190694F5809164020E9422061CA278
:1033A0001BA21EA21DA218A61FA2BC01990F880B6A
:1033B000990B2AE0AE014F5F5F4F0E94A32FBE0121
:1033C0006F5F7F4FCE0183960E94C0174FA158A513
:1033D0006BA17CA1C8010E941917CE0183960E949F
:1033E000AE16E090650261E08E2D0E944B0660E013
:1033F0008E2D0E944B06F394C5CFF80124813581B0
:103400002817390798F463E971E0CE0101960E940C
:103410001718B801CE0101960E948C17BC01C80193
:103420000E94F717CE0101960E94AE16C801A89619
:103430000FB6F894DEBF0FBECDBFDF91CF911F91C5
:103440000F91FF90EF9008952F923F924F925F92CD
:103450006F927F928F929F92AF92BF92CF92DF92A4
:10346000EF92FF920F931F93CF93DF93CDB7DEB709
:1034700068970FB6F894DEBF0FBECDBF982EC62E4C
:10348000D42EE82EF12C8091930290919102970115
:10349000899F200D311D112495E6929F8001939FF5
:1034A000100D112422E0621709F402C22617F8F069
:1034B000662369F191E0691709F48EC068960FB62A
:1034C000F894DEBF0FBECDBFDF91CF911F910F915A
:1034D000FF90EF90DF90CF90BF90AF909F908F9034
:1034E0007F906F905F904F903F902F900895E3E012
:1034F0006E1709F4EBC1F4E06F13E0CF411101C284
:103500007801E1E3EE0EF11C075E1F4F04C0780165
:1035100023E6E20EF11CE114F10481F28AE0D82ED8
:1035200092E3492E512C612C712CE016F10630F2F9
:10353000B80190E080E00E945412382E882E912C21
:103540008FEF830D8E3F08F0B9CF21E082169104F2
:1035500099F081E0A816B10479F0C11008C0C70144
:10356000801B910B8336910510F40E94B30D6A2DD8
:1035700087EB93E00E940B0EC4010197039728F09C
:10358000632D87EB93E00E94610EC40102970297BE
:10359000F8F4B12C93E08916910439F40E94192FA4
:1035A000A30192010E942431B62E0F5F1F4FB80174
:1035B00090E080E00E945412882E912C6B2D70E0D8
:1035C0008D9D600D711D112490E080E00E94110717
:1035D0000F5F1F4F5401A9CF93E049135BC08F5F6A
:1035E000853008F046C08093930263E972E085EF6E
:1035F00093E00E94B01880919002882309F44AC099
:103600004FEF6FEF8FEF0E94F80E0AEC13E0F80116
:1036100061937193819324E0E534F207C9F73DEC9F
:10362000632E36E0732E4EECA42E45E0B42E80912E
:10363000930290E00196C816190609F0ECF4F30124
:103640008491809342040E9454046AEF70E080E009
:1036500090E00E941107F5018491809342040E943A
:1036600054046AEF70E080E090E00E941107C39478
:10367000DECF10929302B9CF40E060E080E00E947C
:10368000F80EF8016193719381938F01F4E0053492
:103690001F07B9F780919002882391F0D11054C090
:1036A000809195028F5F843018F48093950202C058
:1036B0001092950265E972E087EF93E00E94B018DE
:1036C00060919302CE0143960E94CA1760919402C2
:1036D000CE010D960E94CA1760919502CE01079601
:1036E0000E94CA176FE771E0CE0101960E94171879
:1036F000BE01695F7F4FCE0101960E948C176FE774
:1037000071E00E947617BE01635F7F4F0E948C17A5
:103710006FE771E00E947617BE016D5E7F4F0E94D9
:103720008C170E94CE08CE0101960E94AE16CE01E3
:1037300007960E94AE16CE010D960E94AE16CE01DF
:1037400043960E94AE16BACE21E0D21202C084E1A6
:10375000ACCF82E0D812B4CF0E9444072B013C01C9
:103760004FEF6FEF8FEF0E94F80E9B01482FEAECAE
:10377000F3E085E494E02193319341938E179F0702
:10378000D1F7E0919402F0E0E253FA4FE491E09334
:1037900042040E9454049AE0999E50011124E9E0E9
:1037A0009E9E60011124882483942AE0322E0E9478
:1037B00044076419750986099709683B7B408105B0
:1037C000910528F064E972E086EF93E077CF80916D
:1037D0008E02882361F0CE0101960E949A19CE01D3
:1037E00001960E945F16CE0101960E94AE1680914E
:1037F0008302981668F500918102109182020C0DE7
:103800001D1DE0917F02F0918002EE0DFF1D608191
:1038100070E08AE594E00E94540722242394FC017E
:103820008081803309F0212CC8010E945611622D3D
:10383000C8010E94FD0FF801878190850E94210F29
:103840008430D1F0883009F0B2CFF1E08F26AFCFCD
:1038500000917D0210917E029701281B3109329E52
:10386000C001339E900D1124800F911F0E9464119E
:10387000F801EA0DFB1DE0CF0E9444072B013C013B
:1038800080919402882081F08B3F18F48B5F8093A5
:103890009402E0919402F0E0E253FA4FE491E09355
:1038A00042040E94540483CF853098F38550EFCFB3
:1038B000780123E6E20EF11C442351F181E0780106
:1038C00091E3E90EF11C4813F9CD25CE411107C053
:1038D0007801E1E4EE0EF11C0F5D1F4F1CCEF2E00B
:1038E0004F1307C0780122E6E20EF11C0E5B1F4F5A
:1038F00012CE81E0780190E2E90EF11C4813DECD92
:103900000ACEF2E04F1307C078012AE4E20EF11C60
:103910000E5C1F4F00CE83E0481307C0780193E68A
:10392000E90EF11C055B1F4FF6CDE1E04E13C6CD4D
:103930007801F8E1EF0EF11CEECD1F920F920FB659
:103940000F9211242F933F938F939F93AF93BF9325
:103950008091970290919802A0919902B0919A0259
:103960003091960223E0230F2D3758F50196A11DC3
:10397000B11D209396028093970290939802A09392
:103980009902B0939A0280919B0290919C02A0911F
:103990009D02B0919E020196A11DB11D80939B02D4
:1039A00090939C02A0939D02B0939E02BF91AF9111
:1039B0009F918F913F912F910F900FBE0F901F906D
:1039C000189526E8230F0296A11DB11DD2CF1F9294
:1039D0000F920FB60F9211242F933F934F935F9343
:1039E0006F937F938F939F93AF93BF93CF93EF93F7
:1039F000FF93C091E1008091E100837F8093E1001B
:103A0000C3FF0FC01092E90081E08093EB00109299
:103A1000EC0082E38093ED001092A00288E0809396
:103A2000F000C2FF1AC00E94A105809159028823AC
:103A300041F080915902815080935902811101C057
:103A40005D9A80919F02882341F080919F0281506E
:103A500080939F02811101C0289AC4FF23C08091E6
:103A6000E2008E7E81608093E2008091E1008F7E93
:103A70008093E10080915B028E7E806180935B0287
:103A8000FF91EF91CF91BF91AF919F918F917F91D6
:103A90006F915F914F913F912F910F900FBE0F90BB
:103AA0001F901895C0FFECCF8091E2008E7E806160
:103AB0008093E2008091E1008E7E8093E10080910E
:103AC0005B028E7E8160DACF1F920F920FB60F924B
:103AD0001124CF92DF92EF92FF920F931F932F93B7
:103AE0003F934F935F936F937F938F939F93AF9386
:103AF000BF93EF93FF93CF93DF93CDB7DEB76C9770
:103B0000DEBFCDBF1092E9008091E80083FF25C0A1
:103B100068E0CE0145960E94660882EF8093E80037
:103B20008D8987FF39C09091E80090FFFCCF982FD6
:103B3000907609F034C19E894F89588D2F89F88C71
:103B4000911131C0803861F580915C028093F10061
:103B50001092F1008EEF8093E8006C960FB6F89407
:103B6000DEBF0FBECDBFDF91CF91FF91EF91BF912F
:103B7000AF919F918F917F916F915F914F913F9105
:103B80002F911F910F91FF90EF90DF90CF900F90AA
:103B90000FBE0F901F9018959EEF9093E800C7CF2F
:103BA0001092F100D5CF913059F48111D3CF41302B
:103BB000510581F680915C028D7F80935C02CACFB3
:103BC000933049F48111C6CF4130510519F68091E7
:103BD0005C028260F2CF953041F48091E80080FF72
:103BE000FCCF20682093E300B5CF963009F0A9C040
:103BF0000B8D1C8D22E01092E9001092570210925A
:103C00005602F2122EC010925502109254020E94D7
:103C100087081F8299E09983FA8291E09E8390EA57
:103C200098879AEF99872091560230915702275F23
:103C30003F4F3C832B838D831092E90010925702F3
:103C400010925602109355020093540249E050E03E
:103C5000BE016F5F7F4F80E00E9495070E9487083A
:103C600079CF10935502009354020E947308DC012F
:103C700012960D911C910115110509F451C1D8013D
:103C8000ED91FC910480F581E02DBE016B5E7F4FCC
:103C9000C8010995009709F03EC1F801008511851A
:103CA000EACFF3E0FF120EC08F89882309F440C0E9
:103CB000823061F440E860E188E792E00E94B5203C
:103CC000811148CF81E28093EB0047CF813029F406
:103CD00040E86BE08CE692E0F1CF833099F70E94E8
:103CE0007308DC011296ED90FC908E010F5F1F4F60
:103CF0006801E114F10479F0D701ED91FC9106809F
:103D0000F781E02DB801C7010995080F111DF701D2
:103D1000E084F184EECFD8011C92F60101900020DE
:103D2000E9F73197BF016C197D0940E0C601C6CFA4
:103D300066E572E0FB01449150E080E80E9495073F
:103D400009CF973009F4BECF983021F481E08093F9
:103D5000F10000CF993009F0FDCE837009F0B2CFA9
:103D6000E1E0F1E081E031E096E32191222371F07E
:103D70008093E9003093EB00DF0111972C912093A1
:103D8000EC009093ED008F5F873079F78EE780939A
:103D9000EA001092EA008F898093A002DBCE8B8D1F
:103DA0009C8D1092E9001092570210925602909347
:103DB000550280935402898D811192C08E899D890C
:103DC000913A49F4813209F07DCF47E050E06BE051
:103DD00071E080E0B3CF913209F074CF833269F49F
:103DE0008F89988DB0E0A0E080930701909308013F
:103DF000A0930901B0930A01ADCE803269F480919D
:103E0000E80082FFFCCF67E08BE091E00E9466084B
:103E10008BEF8093E8009ECE823209F09BCE8F8993
:103E200080931201EEEFFFE7859194918B3F9C4DBB
:103E300051F1E0E0F8E080910B0190910C01A0912C
:103E40000D01B0910E01803B9440A105B105F1F444
:103E50008091120180FD1AC0EE3F8AE0F80789F5D3
:103E600087E797E791838083809160008093580271
:103E700088E19BE00FB6F894A895809360000FBE90
:103E80009093600067CEEEEFFAE0D5CF808191810C
:103E90008737974709F05ECEA895809160008861CA
:103EA000809360008091580280936000EE3F2AE08A
:103EB000F20789F08091FE0A9091FF0A9183808336
:103EC00049CE808191818737980751F29093FF0AFC
:103ED0008093FE0AC5CF1092FF0A1092FE0A3ACED6
:103EE0000E947308DC0112960D911C9101151105B9
:103EF00009F4E8CED801ED91FC910190F081E02D1C
:103F0000BE016B5E7F4FC8010995811123CEF80178
:103F100000851185EBCF181619060CF41BCED2CEF6
:103F2000F1E0FF12BECE6AE572E004CF1F920F925D
:103F30000FB60F9211242F933F934F935F936F937C
:103F40007F938F939F93AF93BF93EF93FF93809152
:103F5000B900887F803609F44AC0F0F5883209F448
:103F6000A7C018F5803109F49BC0B8F4882309F480
:103F7000F9C0883009F494C0FF91EF91BF91AF91DF
:103F80009F918F917F916F915F914F913F912F9171
:103F90000F900FBE0F901F901895883109F488C0BC
:103FA000803251F78093E90214C0803409F49DC037
:103FB00040F48033B9F38833F9F68093E90285EC55
:103FC000B0C0803509F485C0883509F496C08834BE
:103FD00099F60E947818D0CF883909F48CC038F54A
:103FE000883729F050F4883611F0803729F683E0BD
:103FF0008093EB021092470257C0883809F47BC0C7
:10400000803919F0803809F0B7CF809147028032AB
:1040100008F071C0E091470281E08E0F8093470263
:104020008091BB00F0E0E95DFD4F80833DC0803BA7
:1040300039F0E0F4803A09F479C0883A09F09CCF6D
:1040400084E08093EB021092260210922502E09108
:104050005F02F091600209958091250281110FC0E5
:1040600081E0809325021092050209C0803C09F48A
:10407000A6CF883C09F4A3CF883B09F07DCFE0911F
:10408000260281E08E0F80932602F0E0EB5FFD4F69
:1040900080818093BB00909126028091250229C0E7
:1040A0008091E6028093BB0085EC8093BC0064CFD6
:1040B0009091E8028091E702981758F5E091E802A4
:1040C00081E08E0F8093E802F0E0EB53FD4F80819A
:1040D000E9CFE091E80281E08E0F8093E8028091C1
:1040E000BB00F0E0EB53FD4F80839091E80280919C
:1040F000E7029817C8F285E8D8CFE091E80281E09E
:104100008E0F8093E8028091BB00F0E0EB53FD4FEF
:1041100080838091EA0281115CCF81E08093E50287
:1041200084EA8093BC001092EB0226CF85EC80934A
:10413000BC001092EB0280914702803230F4E09193
:104140004702F0E0E95DFD4F10826091470270E0A8
:10415000E0915D02F0915E0287E292E00995109293
:1041600047020ACF1092E90234CFEF92FF920F93E9
:104170001F93CF93DF93F82E192FE62E042F81E0A3
:10418000860F880F0E94670783E00E946707CF2D84
:10419000D12FEC0EFD2EF11CCE15DF05B9F007FF77
:1041A00013C0FE0184910E946707182F80E00E94CF
:1041B0006707812321968111EFCFDF91CF911F9166
:1041C0000F91FF90EF9008958881EDCF81E0F5CFBA
:1041D000CF93DF93109224031092230388EE93E091
:1041E000A0E0B0E08093250390932603A0932703DB
:1041F000B093280326E431E0309322032093210377
:104200002FEF3FEF30932E0320932D032093710364
:10421000109273031092720310927D0310927C032C
:104220004FEF5FEFBA0140937803509379036093A7
:104230007A0370937B031092810310928003809322
:10424000820390938303A0938403B093850388E54E
:1042500091E090937F0380937E038CE0EAE8F3E0A3
:10426000DF011D928A95E9F7109297031092960349
:1042700080919E03811113C01092990310929803AC
:104280008BEF96E090939B0380939A038BE490E0EE
:1042900090939D0380939C0381E080939E030E94F2
:1042A000340DFC01A385B485109709F022C188E97B
:1042B00093E0948783878585968520919C03309130
:1042C0009D03820F931F968785871092BA031092E1
:1042D000B9038AE691E09093B8038093B703809185
:1042E000AF03811113C01092AA031092A90386ECA8
:1042F00097E09093AC038093AB038FE290E09093B0
:10430000AE038093AD0381E08093AF030E94340D30
:10431000FC01A385B485109709F0F6C089EA93E003
:1043200094878387858596852091AD033091AE0370
:10433000820F931F9687858786E497E09093C40346
:104340008093C30389E490E00E94C718D82F8AE4C1
:1043500090E00E94C718C82F88E490E00E94C71818
:104360001092630410926204109265041092640427
:104370001092670410926604109269041092680407
:1043800010926B0410926A0410926C0410926E04E6
:1043900010926D042FEF3FEF3093700420936F0461
:1043A00010927204109271041092740410927304AB
:1043B00028E734E0309376042093750480937704E3
:1043C00086E791E09093610480936004D093780431
:1043D000C09379048FEF80937A0480937B0480E00C
:1043E00092E1AAE7B0E080937C0490937D04A093CF
:1043F0007E04B0937F0485EC93E0909381048093D6
:104400008004C093820482E694E0909384048093B5
:1044100083041092850410928604109288041092EE
:10442000870410928A04109289046CE771E08AE58F
:1044300094E00E9417188EE290E09093C703809357
:10444000C60380ED97E09093C9038093C80382E38D
:1044500080934204809343041092440410924504D4
:1044600010924604109247041092480410924A0495
:10447000109249048FB78093570481E090E09093A5
:10448000590480935804E9E3F8E0249120935304FD
:104490008AE198E0FC013491E32FF0E0EE0FFF1F7A
:1044A000ED5FF74F4591549150934C0440934B046A
:1044B000FC018491E82FF0E0EE0FFF1FEB50F84F66
:1044C000A591B491B0934E04A0934D04EC91E22BCE
:1044D000EC938EE190E09093C7038093C60384E948
:1044E00092E09093C9038093C803DF91CF91089520
:1044F000DC018D919C9111970097D1F788E993E0A9
:104500008D939C93D8CEDC018D919C91119700974F
:10451000D1F789EA93E08D939C9304CFCF93DF93F7
:10452000CDB7DEB7EE970FB6F894DEBF0FBECDBFA6
:10453000789484B5826084BD84B5816084BD85B57E
:10454000826085BD85B5816085BD80916E0081608A
:1045500080936E0010928100809181008260809330
:104560008100809181008160809381008091800032
:10457000816080938000809191008260809391009F
:104580008091910081608093910080919000816082
:10459000809390008091C10084608093C1008091DD
:1045A000C10082608093C1008091C10081608093CE
:1045B000C1008091C30081608093C3008091C000DE
:1045C00082608093C0008091C20081608093C200AD
:1045D00080917A00846080937A0080917A00826072
:1045E00080937A0080917A00816080937A00809134
:1045F0007A00806880937A001092A00210925C0288
:1046000010925B028091D70081608093D70080EA8E
:104610008093D80089B5806189BD89B5826089BDE4
:1046200009B400FEFDCF61E070E080E090E00E9400
:1046300011078091D8008F7C80618093D800809191
:10464000E000807F8093E0008091E1008E7E809387
:10465000E1008DE08093E200559A209A8FEF9FEF62
:1046600090932E0380932D0360ED77E080E090E03F
:104670000E9411078EEE93E00E94C71890911301DB
:10468000891308C08FEE93E00E94C71890916902C9
:10469000891761F063E171E08EEE93E00E94B0183B
:1046A00069E672E08FEE93E00E94B01882E590E038
:1046B0000E94C718182F8EEE93E00E94C718181397
:1046C0000BC083E590E00E94C718182F8FEE93E08F
:1046D0000E94C718181761F063E171E082E590E06D
:1046E0000E94B01869E672E083E590E00E94B0187D
:1046F0001092F2021092F1021092A2021092C402E1
:104700000E94B70982E597E09093600280935F0270
:1047100083E597E090935E0280935D0286E497E0E4
:104720009093C4038093C30380E00E94C9188091D2
:104730008F02813009F098C080E694E00E940B134C
:104740000E946814E9E8F2E0E491E0938A03EAE861
:10475000F2E0249120938B03EBE8F2E084918093C4
:104760008C03ECE8F2E0E491E0938D034DE852E035
:10477000509393034093920344ED5BE0509397036F
:104780004093960390E0079613E0959587951A95C8
:10479000E1F780938F03289FE02D1124E09390038D
:1047A0001092910310929503109294038AE893E07B
:1047B00090937404809373040091750410917604AF
:1047C000D8011D968C911D9780FD1CC01B96ED9104
:1047D000FC911C97808191812281338131832083D8
:1047E000938382831F968D919C91509751962D9122
:1047F0003C91529750963C932E931F9752969C93C0
:104800008E93519783E0F8018587C8010E94B71203
:1048100060E0D8011A968C910E947E0B88E20E947B
:10482000A30B86E30E94A30B61E0F80182850E943E
:104830007E0BD8011D96EC9180EAE33020F4F0E085
:10484000E15DFE4F8081F8019685892B0E94A30BC4
:1048500060E0D8011A968C910E947E0B89E20E943A
:10486000A30BC8010E94870B809192028F3FF1F148
:104870008DE490E00E94C718D82E8CE490E00E944E
:10488000C718E82E8BE490E00E94C718F82E81E14B
:1048900090E00E9499328C01FC011282118282E325
:1048A00083838FE1848385E285838CE08683108611
:1048B0001782118612868EE183871586148620E082
:1048C00040E060E0C8010E94B50610938A020093A0
:1048D00089022D2D4E2D6F2DC8010E94B50681E055
:1048E000D8011B968C931B9713968C93E09194029E
:1048F000F0E0E253FA4FE491E093420480EF93E05A
:104900000E94C718C82E809383028CEE93E00E9409
:10491000C718D82E80936802CC2009F483C00C2DD0
:1049200010E0C8010E94D41680937F029093800209
:104930007C01B12CA12CAC1450F4C5010E94C71805
:10494000F70181937F01FFEFAF1ABF0AF4CF82E333
:1049500090E00E94C7188093670284E490E00E9470
:10496000C718F82E8093660285E490E00E94C7186D
:10497000E82E8093650286E490E00E94C718B82E66
:104980008093640287E490E00E94C718A82E809369
:10499000630261E08F2D0E94790661E08A2D0E94FA
:1049A000790661E08E2D0E94790660E08B2D0E94D1
:1049B000790660E08E2D0E944B0661E08F2D0E94EB
:1049C0004B0629E0C29EC00111240E94D416DC01CE
:1049D000FC0152E34FE135E22CE012821182538355
:1049E0004483358326831086178239960150110936
:1049F000A1F7809381029093820280E046E031E04B
:104A00002CE09EE114964C93149716963C931697BF
:104A100015962C93159713969C9313978F5F199661
:104A2000C812F0CFDD2009F48AC08D2C912CC4016E
:104A30000E94D416C82E8093610290936202A82E21
:104A4000B92E082F192FB3E3EB2EF12C682E802FEF
:104A50008C198D1550F4C7010E94C718D8018D9389
:104A60008D01BFEFEB1AFB0AF2CFEAE0DE9EC00138
:104A700011240E94D416782EC92EE82EF92E082F64
:104A8000192F72E3272EEFE13E2EF5E24F2EACE018
:104A90005A2ED80112961C921E92119713962C92A0
:104AA000139714963C92149715964C921597169658
:104AB0005C92169718961C921E92179719961C9244
:104AC00062E080E00E947906F8018781908590611C
:104AD00090878783065F1F4FF1E08F1A9108C9F610
:104AE00070927D02C0927E0266E0962ECC24C39422
:104AF0000CE01EE18A2D86198D1508F5D5018D91E2
:104B00005D01F701818762E00E947906D70117965F
:104B10008D919C911897906118969C938E931797FE
:104B200014969C9214971696CC92169715960C9301
:104B3000159713961C93BAE0EB0EF11CDBCFFE0128
:104B40007E96FAABE9AB212C312C21012A9480917D
:104B50008E02882361F0CE0101960E949A19CE013F
:104B600001960E945F16CE0101960E94AE168091BA
:104B700092028F3F09F4C4C0E0908902F0908A024B
:104B8000D70150968C91509719969C9197FF74C0BD
:104B90000E94220611E0892B09F410E0C7010E944F
:104BA0005611F701818585FF02C08F7D8187412FD6
:104BB0006FEFC7010E94A010882309F4A1C0E09004
:104BC0008902F0908A02F701818585FD83C0878183
:104BD00090850E94210F8032910509F43CC18034F8
:104BE000910509F477C0029709F08AC0809192027A
:104BF0008F5F833008F02CC18093920262E972E0EB
:104C000084EF93E00E94B01880919002882309F409
:104C100077C040E060E080E00E94F80E0AEC13E00C
:104C2000F80161937193819325E434E02E173F07D7
:104C3000C1F74FEF6FEF8FEF0E94F80E6B01E82E78
:104C40002091920230E090E080E0D801CD92DD9298
:104C5000ED928D01019628173907BCF7EDECF6E0CF
:104C60008491809342040E94540468EE73E080E0D3
:104C700090E00E94110744C00E942206DD24D394D4
:104C8000892B09F4D12CD7011E968C910E94220603
:104C90008C01F70187850E94220621E030E0892BF4
:104CA00011F430E020E0220F331F81E0012B09F4E2
:104CB00080E0182F122BC7010E945611D7011996B8
:104CC0008C91199785FF03C08F7D19968C934D2D7C
:104CD000612F6FCF10919202111172C0C7010E9413
:104CE000F00F882319F080E10E94C00DC7010E94D7
:104CF000E20F882319F080E20E94C00D0E94D10DBE
:104D000010E08AE0982E99E0B92E25E6A22E809137
:104D10009102181708F0ECC080918302C12ED12CAB
:104D2000181708F0AAC0E0908102F09082021B9D43
:104D3000E00CF11C1124E0917F02F0918002EC0D57
:104D4000FD1D608170E08AE594E00E94540701E057
:104D5000FC018081803309F000E0C7010E945611F8
:104D6000602FC7010E94FD0FD70117968D919C916E
:104D70000E94210F082FF701F080909193028091FB
:104D80009102989FC00CD11C1124AC9CB001AD9C29
:104D9000700D11246C597F4F072E000C880B990B56
:104DA0000E945412682F043009F491C008F07AC0B0
:104DB000013009F48CC0023009F490C01F5FA7CF06
:104DC000113061F50E94440760938502709386025A
:104DD000809387029093880210938402C7010E94F7
:104DE000E20F10919402882381F0153018F01550CD
:104DF00010939402E0919402F0E0E253FA4FE491B0
:104E0000E09342040E9454047BCFC7010E94F00F3C
:104E1000882381F31B3F70F71B5FEACF123009F044
:104E20006FCFC7010E94F00F882329F069ED87EB4F
:104E300093E00E94610EC7010E94E20F882329F0CF
:104E40006AED87EB93E00E94610E0E94B30D58CF8C
:104E500010929202D3CE80919202811151CFD7014C
:104E60008C91813009F448CF823011F488E044CF2E
:104E7000833009F043CF84E03FCFE0907D02F09093
:104E80007E029601281B3109929EC001939E900DCF
:104E900011248E0D9F1D0E946411199DE00CF11CC0
:104EA000112462CF083009F1003209F087CF88233E
:104EB00009F484CFF1E040E0FF16A1F022E042E0E7
:104EC000F21681F033E0F31210C043E00BC0611121
:104ED00075CF40E0812F0E94241A70CF41E08823D3
:104EE00009F46CCF812F0E94241A0E94B30D66CF63
:104EF0000E9444070091790210917A0220917B026E
:104F000030917C02601B710B820B930B68387341EC
:104F10008105910538F080917802813019F482E0A2
:104F2000809378020E9444070091850210918602C6
:104F30002091870230918802601B710B820B930BCA
:104F4000643F71408105910508F470C0809184022E
:104F5000813009F06BC01092840285E0EEE1F1E04F
:104F6000DE01599601900D928A95E1F786EF93E064
:104F70000E94C718E82EF09094028E01075E1F4F22
:104F8000F80181918F0190E0BC0165577D4F8351FD
:104F90009C4F0E94B01829A93AA90217130781F75C
:104FA000EF1409F443C060919302CE0101960E9470
:104FB000CA1760919402CE0107960E94CA176091A9
:104FC0009502CE010D960E94CA176FE771E0CE01DF
:104FD00043960E941718BE01635F7F4FCE01439630
:104FE0000E948C176FE771E00E947617BE01695F1F
:104FF0007F4F0E948C176FE771E00E947617BE0109
:105000006F5F7F4F0E948C170E94CE08CE0143969F
:105010000E94AE16CE010D960E94AE16CE010796E6
:105020000E94AE16CE0101960E94AE1680919002AB
:10503000882381F110919502E0919402F0E0E2530F
:10504000FA4FE491E09342040E944407C0906B023F
:10505000D0906C02E0906D02F0906E026C197D09A8
:105060008E099F09663471058105910598F00E94AB
:10507000440760936B0270936C0280936D0290936F
:105080006E02123009F49BC030F51123A9F11130E2
:1050900009F449C081E293E00E947609892B09F462
:1050A00031C26CE771E0CE010D960E9417180E9484
:1050B000200997FDE9C08A30910509F4E5C089838C
:1050C0001A8241E050E0BE016F5F7F4FCE010D9626
:1050D0000E941917ECCF133009F4B0C0E6ECF3E0EE
:1050E0008EE394E01431B1F6148215821682339661
:1050F0008E179F07C9F714C010916A02812F0E9472
:10510000090F9B01482FEAECF3E082E494E021933D
:10511000319341938E179F07D1F71D5F10936A0259
:105120000E945404B7CF80916A020E94090F9B012C
:10513000482FEAECF3E082E494E021933193419329
:105140008E179F07D1F710E00E94192FC12ED12C86
:10515000F12CE12C23E030E040E050E00E942431CB
:105160006C157D058E059F0524F14FEF6FEF8FEFD6
:105170000E94F80E3B01882EC0909102D12CF12C98
:10518000E12CC114D104E104F10439F00E94192F7B
:10519000A70196010E9424316B01F601EE0FFF1F5B
:1051A000EC0DFD1DEA53FC4F6482758286821F5F01
:1051B000CBCF80916A028D5F80936A02B1CF10E0FD
:1051C00080919102181708F0ABCF0E94192F6BAF96
:1051D0007CAF8DAF9EAF0E94192F4B015C010E94E6
:1051E000192F6B017C016BAD7CAD8DAD9EADA20125
:1051F00091010E942431062FC501B401A201910141
:105200000E942431B62EC701B601A20191010E946D
:105210002431862F402F6B2D0E94F80E9B01482FC2
:10522000812F90E0FC01EE0FFF1FE80FF91FEA53FA
:10523000FC4F2483358346831F5FC2CF10E00FEFFE
:105240006091910220916A021617D0F4109FC0015C
:10525000112470E00E946B32822F860F0E94090F8A
:105260009B01482F812F90E0FC01EE0FFF1FE80FFC
:10527000F91FEA53FC4F2483358346831F5FE0CF39
:105280002D5F20936A024CCF89899A89892B09F472
:10529000C6C0ED85FE85309709F4C1C010816CE76A
:1052A00071E0CE0107960E9417181D3209F445C31C
:1052B0000CF0B7C0133209F49EC31A3209F4E9C3E3
:1052C000113209F017C110918F02113009F012C18B
:1052D00021E030E050E040E0BE01635F7F4FCE014F
:1052E00001960E942C1867E871E0CE0101960E9499
:1052F000DC16082FCE0101960E94AE16002309F499
:10530000F9C029893A8941E050E0BE01635F7F4FCF
:10531000CE0101960E942C1867E0CE0101960E94F2
:1053200035197C01CE0101960E94AE16D701159663
:105330000C9115971496DC9014971396CC901397B4
:105340001696BC9016971296AC90129711969C9058
:1053500011978C901093A10288E68093C30210925B
:10536000A2021092C40290E080E00E94630B1AE057
:10537000882D612F0E945F328295807F682F690F90
:105380008EE793E00E94340B892D612F0E945F32DB
:105390008295807F682F690F8EE793E00E94340B1F
:1053A0008A2D612F0E945F328295807F682F690F5E
:1053B0008EE793E00E94340B8B2D612F0E945F32A9
:1053C0008295807F682F690F8EE793E00E94340BEF
:1053D0008C2D612F0E945F328295807F682F690F2C
:1053E0008EE793E00E94340B8D2D612F0E945F3277
:1053F0008295807F682F690F8EE793E00E94340BBF
:10540000802F612F0E945F328295807F682F690F05
:105410008EE793E00E94340B0E94F609E3C210E08D
:105420003ECF1C3709F431C21D3709F460C01B3769
:1054300009F060C021E030E050E040E0BE01635F71
:105440007F4FCE0101960E942C1861E871E0CE01D9
:1054500001960E94DC16182FCE0101960E94AE160E
:10546000112309F447C029893A8941E050E0BE017F
:10547000635F7F4FCE0101960E942C1865E0CE013C
:1054800001960E9435198C01CE0101960E94AE163C
:1054900085E0EEE1F1E0DE01119601900D928A9532
:1054A000E1F7CE010196D80198012B5F3F4FFC0137
:1054B0005191CF014D91E52FF0E0E557FD4F40832D
:1054C0002A173B07A1F70E94440760938502709357
:1054D0008602809387029093880281E08093840201
:1054E0000115110539F0C8010E94353303C081E070
:1054F0000E94C918CE0107960E94AE16CE010D96E5
:105500000E94AE160E944407009174021091750229
:105510002091760230917702601B710B820B930B06
:10552000683E73408105910508F4A7C10E944407B5
:105530006093740270937502809376029093770261
:1055400080918F02813009F098C180917802823079
:1055500009F000C3109278020E94681481E08093E1
:10556000A10288E68093C3021092A2021092C402A4
:1055700090E080E00E94630B0E94F60967E070E013
:1055800088E690E00E947B118EE793E00E94ED0A8E
:10559000982F929597702AE0B22E8F70C82E9B9DFF
:1055A000C00C11248EE793E00E94ED0A982F92958B
:1055B0009F708F70D82E9B9DD00C11248EE793E0A6
:1055C0000E94ED0A982F929593708F70E82E9B9D04
:1055D000E00C11248EE793E00E94ED0A982F92953B
:1055E0009F708F70182F9B9D100D11248EE793E0F4
:1055F0000E94ED0A982F92959F708F70082F9B9DA7
:10560000000D11248EE793E00E94ED0A982F9295E9
:105610009F708F70F82E9B9DF00C11248EE793E005
:105620000E94ED0A982F92959F708F709B9D800D20
:105630001124B82E6C2DCE0185960E94CA17F9E070
:1056400063E971E0FC1510F46CE771E0CE014F9650
:105650000E9417186D2DCE0149960E94CA1729E0A5
:1056600063E971E02D1510F46CE771E0CE0143960B
:105670000E9417186E2DCE010D960E94CA1739E0B0
:1056800063E971E03E1510F46CE771E0CE0101961C
:105690000E941718BE016F5F7F4FCE0107960E94D0
:1056A0000E18BE01635F7F4FCE0107960E948C17D4
:1056B0006FE971E00E947617BE016D5E7F4F0E9418
:1056C0008C17BE01675E7F4F0E948C176FE971E0F7
:1056D0000E947617BE01615E7F4F0E948C17BE014B
:1056E0006B5D7F4F0E948C17BC01CE018B960E9490
:1056F0000E18CE0107960E94AE16CE0101960E94AA
:10570000AE16CE010D960E94AE16CE0143960E94B3
:10571000AE16CE0149960E94AE16CE014F960E945B
:10572000AE16CE0185960E94AE166B2DCE014F9619
:105730000E94CA176F2DCE0149960E94CA1789E0B0
:1057400063E971E08F1510F46CE771E0CE014396C8
:105750000E941718602FCE010D960E94CA1763E9A8
:1057600071E00A3010F06CE771E0CE0101960E9402
:105770001718BE016F5F7F4FCE0107960E940E186B
:10578000BE01635F7F4FCE0107960E948C1765E9CB
:1057900071E00E947617BE016D5E7F4F0E948C17EC
:1057A000BE01675E7F4F0E948C1765E971E00E9421
:1057B0007617BE01615E7F4F0E948C17BC01CE013F
:1057C00085960E940E18CE0107960E94AE16CE0155
:1057D00001960E94AE16CE010D960E94AE16CE0125
:1057E00043960E94AE16CE0149960E94AE16CE0197
:1057F0004F960E94AE168FEF9FEF909370048093A8
:105800006F0469E070E0CE018B960E94B61670E0DE
:1058100060E08CE190E00E94F61469E070E0CE0157
:1058200085960E94B61661E170E08CE190E00E94DE
:10583000F614E12FF0E0EE0FFF1FEE5CFE4F6081EB
:105840007181CE0101960E9417186AE070E0CE01C6
:1058500001960E94B616CE0101960E94AE1662E233
:1058600070E08CE190E00E94F614CE0185960E94D3
:10587000AE16CE018B960E94AE1680E090E0892B8A
:1058800009F465C90E94000062C96CE771E0CE01AD
:1058900007960E94C01711E075E6B72E209191027D
:1058A000211708F452C130919302812F90E0239F79
:1058B000800D911D1124B89E6001B99ED00C112459
:1058C000F1E0CF1AD1080D2C000CEE08FF08C7013B
:1058D000B6010E945412082F853030F040E0C70115
:1058E000B6010E947F1200E080919102BE01695FC3
:1058F0007F4F1817C1F0CE0101960E940E18602F3D
:10590000CE0101960E9445176DE771E00E9476175F
:10591000BC01CE0107960E94F717CE0101960E94A6
:10592000AE161F5FBBCFCE0101960E940E18602FEE
:10593000CE0101960E944517EBCF21E030E050E008
:1059400040E0BE01635F7F4FCE0101960E942C189C
:1059500063E871E0CE0101960E94DC16182FCE019B
:1059600001960E94AE16112309F4C4CD29893A8903
:1059700041E050E0BE01635F7F4FCE0101960E947F
:105980002C1866E6CE0101960E9435197C01CE01E5
:1059900001960E94AE163091930220919102D70198
:1059A0008D918D0190E0329F800D911D112425E68F
:1059B000289F4001299F900C1124092C000CAA0853
:1059C000BB0865E6D62EF80141918F01C501B401EF
:1059D0000E947F12DA94FFEF8F1A9F0AAF0ABF0A64
:1059E000D110F1CFE114F10419F0C7010E94353351
:1059F0000E94A1057FCD10918F02113009F07ACD60
:105A000021E030E050E040E0BE01635F7F4FCE0117
:105A100001960E942C1865E871E0CE0101960E9463
:105A2000DC16082FCE0101960E94AE16002309F461
:105A300061CD109378020E944407609379027093BD
:105A40007A0280937B0290937C0229893A8941E013
:105A500050E0BE01635F7F4FCE0101960E942C187B
:105A600065E0CE0101960E9435198C01CE010196A8
:105A70000E94AE16F801AFE6B2E0C801059621918A
:105A80002D938E179F07D9F7C801012B09F0AECFD0
:105A9000AFCF29893A8941E050E0BE01635F7F4F73
:105AA000CE0101960E942C1889819A81E12C0097E1
:105AB00019F00E94712FE62ECE0101960E94AE16BB
:105AC0006CE771E0CE0107960E94C017B5E6EB9E29
:105AD0007001112410E000E055E6D52E809193026C
