:100000000C9428040C9450040C9450040C94500448
:100010000C9450040C9450040C9450040C94500410
:100020000C9450040C9450040C9423230C94A0239F
:100030000C9450040C9450040C9450040C945004F0
:100040000C9450040C9450040C9450040C945004E0
:100050000C9450040C9450040C9450040C94D92229
:100060000C9450040C9450040C9450040C945004C0
:100070000C9450040C9450040C9450040C945004B0
:100080000C9450040C9450040C9450040C945004A0
:100090000C94D2250C9450040C9450040C945004ED
:1000A0000C9450040C9450040C9450040000000074
:1000B0000000000001010101010101010202020230
:1000C00002020203030303030404040505050505F6
:1000D000060606060707070808080808090A0A0AA4
:1000E0000A0B0B0C0C0C0C0D0D0D0E0E0F0F0F1040
:1000F00011111111121213141414141516161717C6
:10010000171819191A1A1B1B1C1C1D1E1E1F1F2035
:1001100021212223232425252626272829292A2B85
:100120002C2D2D2E2F2F30313233343536363738B3
:1001300038393A3B3C3D3E3F4041424344454546C9
:1001400047494A4B4C4D4E4F5051525455565759B2
:100150005A5B5D5E5F60616264656667696A6C6D6B
:100160006E6F7173757677797A7B7C7F80828385F9
:100170008688898B8C8F9192939497999A9C9E9F55
:10018000A2A3A5A7A9ABADAEB0B3B4B6B9BABCBE75
:10019000C0C2C4C7C9CACDCFD1D3D6D8DADCDFE15B
:1001A000E2E6E7EBECF0F1F5F6FAFBFF01FF961162
:1001B000FFFFB103012C2DB203012C2DB306012C3E
:1001C0002D012C2DB40107B6021502C003A2028432
:1001D000C101C5C2020A00C3028A2AC4028AEEC54E
:1001E000010E20003601003A0105E0100F1A0F1829
:1001F0002F2820221F1B233700070210E1100F1B9E
:100200000F17332C292E3030393F0007031029FFF8
:100210006413FF0A080B0002020200000904000038
:10022000010202000005240010010524010101045F
:100230002402060524060001070581031000400979
:10024000040100020A000000070502024000000746
:100250000583024000000403090412010002EF02BA
:10026000014041233780000101020301417264759E
:10027000696E6F204C4C430041726475696E6F204B
:100280004D6963726F000000000000000000010172
:100290000101010101010202020202020203030341
:1002A00003030404040505050505060606060707FD
:1002B000070808080808090A0A0A0A0B0B0C0C0CA4
:1002C0000C0D0D0D0E0E0F0F0F101111111112123A
:1002D00013141414141516161717171819191A1AB7
:1002E0001B1B1C1C1D1E1E1F1F202121222323241B
:1002F00025252626272829292A2B2C2D2D2E2F2F60
:100300003031323334353636373838393A3B3C3D84
:100310003E3F404142434445454647494A4B4C4D88
:100320004E4F50515254555657595A5B5D5E5F605F
:10033000616264656667696A6C6D6E6F717375760C
:1003400077797A7B7C7F808283858688898B8C8F86
:100350009192939497999A9C9E9FA2A3A5A7A9ABCB
:10036000ADAEB0B3B4B6B9BABCBEC0C2C4C7C9CAD8
:10037000CDCFD1D3D6D8DADCDFE1E2E6E7EBECF0A3
:10038000F1F5F6FAFBFF000608200000000000006F
:100390000000002F000000000700070000147F1479
:1003A0007F1400242A7F2A12002313086462003677
:1003B0004955225000000503000000001C224100A6
:1003C000000041221C000014083E08140008083EEA
:1003D0000808000000A060000008080808080000E5
:1003E00060600000002010080402003E5149453EB4
:1003F0000000427F400000426151494600214145D2
:100400004B31001814127F10002745454539003C38
:100410004A49493000017109050300364949493606
:1004200000064949291E00003636000000005636F5
:1004300000000008142241000014141414140000D9
:100440004122140800020151090600324959513E67
:10045000007C1211127C007F49494936003E41411F
:100460004122007F4141221C007F49494941007FD0
:1004700009090901003E4149497A007F0808087FBF
:100480000000417F4100002040413F01007F0814EF
:100490002241007F40404040007F020C027F007FED
:1004A0000408107F003E4141413E007F09090906D2
:1004B000003E4151215E007F091929460046494905
:1004C00049310001017F0101003F4040403F001FD2
:1004D0002040201F003F4038403F00631408146351
:1004E00000070870080700615149454300007F413B
:1004F000410000552A552A55000041417F00000463
:10050000020102040040404040400000010204009B
:10051000002054545478007F484444380038444400
:10052000442000384444487F00385454541800088C
:100530007E0901020018A4A4A47C007F08040478AA
:100540000000447D4000004080847D00007F102832
:1005500044000000417F4000007C04180478007CC7
:100560000804047800384444443800FC2424241847
:100570000018242418FC007C080404080048545483
:10058000542000043F444020003C4040207C001C9C
:100590002040201C003C4030403C004428102844AF
:1005A000001CA0A0A07C004464544C4400000877C8
:1005B00000000000007F000000007708000000102D
:1005C0000810080014141414141400008080808093
:1005D000E0E07E7E6060606060607F7F60606060A1
:1005E00060607E7EE0E0808080800080818181810B
:1005F000FFFF000000FCFCFCFCFCFCFCFCFCFCFC29
:10060000FC000000FFFF8181818180018181818167
:10061000FFFF0000003F3F3F3F3F3F3F3F3F3F3F27
:100620003F000000FFFF8181818101000101010184
:1006300007077E7E060606060606FEFE0606060678
:1006400006067E7E07070101010100181818F8F858
:10065000C0C0C0C0C040C0C0C0C0C0C0C0C0C0C01A
:10066000404040C0C0C0C0C0C0C0C0008F8FFFFFAE
:10067000FFFFFFF1E0CEE0F1FF3F8FE7E3C1C0C62F
:100680003EBF3EC6C0C1E3E78F3FFF809C9CFFFF9B
:10069000FFFFFFE3C19CC1E3FFFEF8F3E3C181B1BB
:1006A0003E7E3EB181C1E3F3F8FEFF0000001F1F54
:1006B000000000000000001F071F071F071F071F83
:1006C000071F071F071F070000000000000000238E
:1006D00000260029002C002F000000000200090F56
:1006E0000000030401000C000000000000000000F6
:1006F0000000000000000000050C0901A1018501B7
:1007000015002501750195180A23020A8A011A2489
:10071000022A27020A21020A2A0209CD09B709B6CC
:1007200009B509E909EA09E20A83010A01020A0294
:10073000020A07020A1A020A79021A1B022A1D0279
:100740008102C000000000000000002A2B280000E9
:100750000000000000000000000000000000000099
:100760000000002C9EB4A0A1A2A434A6A7A5AE367A
:100770002D3738271E1F20212223242526B333B6E8
:100780002EB7B89F8485868788898A8B8C8D8E8FBB
:10079000909192939495969798999A9B9C9D2F31BE
:1007A00030A3AD350405060708090A0B0C0D0E0F22
:1007B000101112131415161718191A1B1C1DAFB19E
:1007C000B0B50005010906A1018502050719E02958
:1007D000E7150025017501950881029501750881CD
:1007E00003950675081500257305071900297381FF
:1007F00000C000000000240027002A002D00300067
:1008000000000000250028002B002E003100040409
:1008100004040403040502020202040302020202A9
:100820000606060606060404020202040404080280
:100830000110408040102040804080080204018068
:100840004020100201108010204040202427CA3090
:1008500011241FBECFEFDAE0DEBFCDBF11E0A0E074
:10086000B1E0ECE6FDE602C005900D92A63EB107B0
:10087000D9F724E0A6EEB1E001C01D92A53AB20777
:10088000E1F714E0C7E2D4E004C02197FE010E9422
:100890008434C632D107C9F70E94CF280C94A936F8
:1008A0000C9400004F925F926F927F928F929F9272
:1008B000AF92BF92CF92DF92EF92FF920F931F936E
:1008C000CF93DF9300D01F92CDB7DEB7809169043C
:1008D000E0916104F09162049081982B90936B04F5
:1008E00090818095892380936C0480915804809333
:1008F000590480916E0490916F04039721F48FB78F
:1009000080936D04F89400915F04109160040115C8
:10091000110509F492C0D0905804ECEDF3E064E5C1
:1009200074E020E030E0A901ED2CF12CC701019624
:10093000C480C89ED001C99EB00D1124AB2FBB2727
:100940002A0F3B1F411D511DC580C89ED001C99E65
:10095000B00D1124AB2FBB272A0F3B1F411D511D8A
:10096000C680C89ED001C99EB00D1124AB2FBB27F5
:100970002A0F3B1F411D511D33966E177F07C1F68D
:10098000232F342F452F552747FD5A95A091DC037F
:10099000B091DD030E94533323E030E040E050E0AB
:1009A0000E94293349015A018091DE039091DF03AF
:1009B00081149104A104B104F1F169E170E00E9495
:1009C0007034CB01072E000CAA0BBB0B880D991DB0
:1009D000AA1DBB1D2801012E000C6608770884158E
:1009E0009505A605B7053CF1C801861B970BBC0110
:1009F000072E000C880B990B0E941A322B013C0128
:100A0000B701FF0C880B990B0E941A329B01AC01B5
:100A1000C301B2010E9455326B017C01C501B401D2
:100A20000E941A329B01AC01C701B6010E94C33378
:100A30000E943534D62ED0925904ECEDF3E004E553
:100A400014E07E0194E0E90EF11C5581468180910D
:100A5000590490E001966481689F9001699F300D70
:100A600011243A83589F9001599F300D11243983E6
:100A7000489F9001499F300D11243B8380916E0463
:100A800090916F04029721F48FB780936D04F894CE
:100A9000BE016F5F7F4FDB018D91BD0120916E0420
:100AA00030916F042130310521F49FB790936D048C
:100AB000F89490916B0420916C04A0916104B09122
:100AC000620438E09C9387FF2C93880F43E04A959B
:100AD000F1F700002C933A95A9F780916E0490915C
:100AE0006F048130910519F420916D042FBFE61633
:100AF000F70609F0D0CF8230910519F420916D04EA
:100B00002FBF33960E171F0709F09FCF039719F4D5
:100B100080916D048FBF0F900F900F90DF91CF9158
:100B20001F910F91FF90EF90DF90CF90BF90AF900B
:100B30009F908F907F906F905F904F90089583E08B
:100B40008093E9008091F200882319F08AE3809372
:100B5000E8000895FC018091BC02882311F13FB7A1
:100B6000F89482E08093E9002091F200822F90E0D7
:100B70001816190614F481E090E0882339F0289AB9
:100B800044E64093BB024091F1004083222339F0B8
:100B90002091F200211103C02BE62093E8003FBF13
:100BA00008958FEF9FEF089581508F3008F047C070
:100BB000E82FF0E0E252FA4F0C948434FB05FF0575
:100BC000ED05F305F7051F061F061F0602060806BA
:100BD0000C06100616061F061A06809180008F77F5
:100BE000809380000895809180008F7DF9CF80915F
:100BF0008000877FF5CF84B58F7784BD089584B555
:100C00008F7DFBCF809190008F7780939000089527
:100C1000809190008F7DF9CF80919000877FF5CFF4
:100C20008091C0008F778093C00008958091C000AC
:100C30008F7DF9CF8091C200877F8093C200089595
:100C4000CF93DF93282F30E0F901E752F94F8491D9
:100C5000F901E35DF74FD491F901E25FF74FC491D9
:100C6000CC23A1F081110E94D405EC2FF0E0EE0F0F
:100C7000FF1FE553F94FA591B491EC91ED2381E06D
:100C800090E009F480E0DF91CF91089580E090E05A
:100C9000FACF1F93CF93DF93282F30E0F901E7526B
:100CA000F94F8491F901E35DF74FD491F901E25FC7
:100CB000F74FC491CC23A9F0162F81110E94D405BF
:100CC000EC2FF0E0EE0FFF1FE050F84FA591B4912C
:100CD0008FB7F894EC91111108C0D095DE23DC9306
:100CE0008FBFDF91CF911F910895DE2BF8CFCF9367
:100CF000DF9390E0FC01E35DF74F2491825F974F13
:100D0000FC0184918823C9F090E0880F991FFC01B1
:100D1000EE50F84FA591B491FC01E050F84FC59109
:100D2000D49161110DC09FB7F8948C9120958223C6
:100D30008C938881282328839FBFDF91CF910895CA
:100D4000623051F49FB7F8943C91822F80958323B1
:100D50008C93E8812E2BEFCF8FB7F894EC912E2B4C
:100D60002C938FBFEACF3FB7F8948091AB0290915C
:100D7000AC02A091AD02B091AE0226B5A89B05C011
:100D80002F3F19F00196A11DB11D3FBFBA2FA92F0A
:100D9000982F8827BC01CD01620F711D811D911D07
:100DA00042E0660F771F881F991F4A95D1F7089573
:100DB0002FB7F8946091A7027091A8028091A902C0
:100DC0009091AA022FBF08950C949F05089508954D
:100DD000089540915C0250915D0220915A02309139
:100DE0005B0242175307B4F49091E8009570E1F369
:100DF0009091E80092FD19C08093F10080915C020F
:100E000090915D0201968F739927892B19F48EEFCB
:100E10008093E80080915C0290915D02019690932E
:100E20005D0280935C0281E0089580E00895DF9286
:100E3000EF92FF920F931F93CF93DF93D82E8A01E7
:100E4000EB017B01E40EF51ECE15DF0559F0D7FE50
:100E500012C0FE0184910E94E90621968111F4CF0F
:100E60000FEF1FEFC801DF91CF911F910F91FF90FE
:100E7000EF90DF9008958881EECF2FB7F8948770B8
:100E80008093E9009091E800892F807295FF04C05B
:100E90009091F20080E4891B2FBF0895615030F0DB
:100EA0002091F100FC0120830196F8CF289A84E676
:100EB0008093BB0208958091520281110DC082E09F
:100EC00080934E0284E080934F0210925102109260
:100ED000500281E0809352028EE492E008950F93D5
:100EE0001F93CF93DF931F92CDB7DEB782E0898344
:100EF00042E450E064E172E080E80E9417070E943B
:100F00005B07DC0112960D911C910115110589F00A
:100F1000D801ED91FC910280F381E02DBE016F5F5D
:100F20007F4FC801099597FD04C0F8010085118520
:100F3000ECCF89810F90DF91CF911F910F91089590
:100F4000CF93DF931F92CDB7DEB76983DC01ED91BC
:100F5000FC910280F381E02D41E050E0BE016F5F23
:100F60007F4F09950F90DF91CF91089583E00E9404
:100F70003D0790E00895CF93DF931F92CDB7DEB782
:100F8000FC018485958597FD08C02FEF3FEF3587DD
:100F900024870F90DF91CF910895CE0101960E9492
:100FA000AA05019719F4898190E0F3CF8FEF9FEFA5
:100FB000F0CF0F931F930E94D8066093390370936C
:100FC0003A0380933B0390933C0381E393E00E94B8
:100FD000BB0797FF1DC00E94D806009139031091EE
:100FE0003A0320913B0330913C03601B710B820B51
:100FF000930B009135031091360320913703309104
:1010000038036017710782079307F8F28FEF9FEF9D
:101010001F910F9108950F931F93CF93DF931F920A
:10102000CDB7DEB78C01FC018485958597FF0BC099
:10103000CE0101960E94AA05019771F4898190E082
:10104000F80195878487F801848595850F90DF9155
:10105000CF911F910F9108958FEF9FEFF1CFFC017A
:101060008485958597FD0BC09FB7F89482E08093A7
:10107000E9008091F2009FBF90E0019608959FB72C
:10108000F89482E08093E9008091F2009FBF90E0A5
:10109000089520912B02260F3327331F213231056B
:1010A000ECF420910703FC0190E080E0243069F02B
:1010B00082E00895A0912B022191AC01455F5D4F24
:1010C000A40FB52FB11D2C930196861798F380912C
:1010D0002B02680F60932B0280E0089581E0089551
:1010E0001092070381E0809306031092010361E0F0
:1010F00082E00E94490661E083E00E944906E9EB34
:10110000F0E080818E7F808380818D7F808388E482
:101110008093B80085E48093BC000895CF93DF935B
:1011200091E090930A028823B9F0C091B800D09161
:10113000BA008091BC008A7B8093BC0060E082E0B2
:101140000E94490660E083E00E9449060E94700800
:10115000D093BA00C093B800DF91CF910895CF9299
:10116000DF92EF92FF920F931F93CF93DF93D09173
:10117000E00281E0D13208F09CC0C091DF020E9401
:10118000B3066B017C018091070381116CC082E082
:101190008093070381E0809306038FEF809305031C
:1011A00010920403D0930303AFEBB2E0E1EEF2E060
:1011B00080E0D8138DC01092020380910203CC0FFF
:1011C000C82BC093020380910103813009F084C0D1
:1011D000109201030E94B3066B017C01809102030F
:1011E0008093BB008091090390910A03A0910B03A7
:1011F000B0910C03892B8A2B8B2BA1F00E94B30694
:101200000091090310910A0320910B0330910C0304
:101210006C197D098E099F090617170728073907DA
:1012200008F442C08091BC0083FDD8CF85EC809348
:10123000BC000E94B3066B017C01809107038230E1
:1012400009F44CC0809105038F3F09F469C0809177
:101250000503803209F466C080910503803309F4E8
:1012600063C084E026C08091090390910A03A09195
:101270000B03B0910C03892B8A2B8B2B09F483CFA2
:101280000E94B3060091090310910A0320910B03F9
:1012900030910C036C197D098E099F0906171707F9
:1012A0002807390708F06FCF809108030E948E0845
:1012B00085E01092BE021092E0021092BD02DF9112
:1012C000CF911F910F91FF90EF90DF90CF900895F5
:1012D0009D9191938F5F6DCF85EEA9CF809109038A
:1012E00090910A03A0910B03B0910C03892B8A2BD8
:1012F0008B2B09F4A2CF0E94B30600910903109131
:101300000A0320910B0330910C036C197D098E099F
:101310009F09061717072807390708F08ECFC4CF93
:1013200080E0C7CF82E0C5CF83E0C3CF0895E091CE
:101330000E0380910D03E81730F4F0E0E15FFC4FFD
:10134000808190E008958FEF9FEF089590910E03B4
:1013500080910D032FEF3FEF981748F4E92FF0E04D
:10136000E15FFC4F208130E09F5F90930E03C90145
:10137000089580910D0390910E03891B990B089598
:10138000CF92DF92EF92FF920F931F93CF93DF9351
:101390007C01CB018A012091BD02222389F0EB015F
:1013A0006B01C40ED51ECC15DD0569F06991D7011E
:1013B000ED91FC910190F081E02DC7010995F3CFEB
:1013C000642F0E944908C801DF91CF911F910F91AE
:1013D000FF90EF90DF90CF900895CF93DF931F920F
:1013E000CDB7DEB769832091BD022223F9F02091A9
:1013F000E002203258F021E030E0FC013383228308
:1014000090E080E00F90DF91CF9108958091BE022F
:10141000E82FF0E0E154FD4F998190838F5F809336
:10142000BE028093E00281E090E0ECCF61E0CE016B
:1014300001960E944908F7CF682F8EE893E00C943C
:10144000ED099FB7F89480910902882319F0815023
:101450008093090280910902811105C08CB58F7BB0
:101460008CBD109208029FBF08950C94490687FD19
:1014700006C070E0082E000C990B0C94350A0895F4
:10148000FC01808187FD07C061E070E0082E000C40
:10149000990B0E94350A80910802882361F09FB75A
:1014A000F8942091080280910702213019F48DBB35
:1014B0009FBF08958FBF08958EBD00000DB407FE35
:1014C000FDCF8EB50895FB0124913196E491322F22
:1014D0002E2FFB013296E491E11103C090E080E0F1
:1014E00008956D5F7F4FDC01FC914217530730F088
:1014F000D901AE0FB11D4A175B0728F0EF9F600DB1
:10150000711D1124E0CF421B530BF49FC001F59FC6
:10151000900D1124860F971F0895EF92FF920F935D
:101520001F93CF93DF934115510509F44BC08A01F6
:101530007B01EC018981FA0180838A8181838F811B
:10154000828368857985F0E8EF16F10490F488814C
:1015500081110FC06115710579F08B81E81AF108CE
:101560002E812E9DC0012F9D900D1124860F971F57
:1015700026C061157105E1F46A857B8561157105E9
:1015800041F54B8188859985242F042E000C330B5F
:10159000241B31094E81429FB001439F700D1124DD
:1015A00028812130F1F030E020E0620F731FDECFA0
:1015B000A701CE0106960E94630A0097E9F2F8019E
:1015C00094838383DF91CF911F910F91FF90EF90D0
:1015D0000895A701CE0106960E94630A009779F745
:1015E000D0CF23E030E0E1CFDC01FB0112962C915B
:1015F0001297848195812817190641F49181808181
:10160000813A31F49D7F81E0913009F080E00895C6
:101610008132E1F79B3029F482811F968C9381E01F
:1016200008959A3099F7828150968C93F8CFDC0117
:10163000FB0188E4808389E4818384E482831D96AE
:101640009C911D979F709F5B93831D968D919C919C
:1016500024E0969587952A95E1F78F708F5B8483B8
:1016600085E00895EF92FF920F931F93CF93DF933E
:10167000FB012081213871F52381223259F5DC01EB
:1016800012964C91248135814217130619F5EC010D
:101690000B851C85F12CE12C0115110589F0F80151
:1016A000448155816281738180E80E9417078F3FD2
:1016B000980749F0E80EF91ED8010D911C91ECCF66
:1016C00081E08F87C701DF91CF911F910F91FF902C
:1016D000EF90089590E080E0F6CFCF93DF93CDB701
:1016E000DEB769970FB6F894DEBF0FBECDBFFC0121
:1016F000DB018C918F5F8C939E012D5F3F4F8DE0BE
:10170000D9011D928A95E9F729E0298384E08A832B
:1017100091E09D8383E08E832A8721E22B879C873B
:101720009D879F8722E2288B27E02B8B25E02C8B3F
:101730008E8B20E430E0388F2F8B998F82818B83C2
:1017400095858685998B8A8B838180688D8B49E10D
:1017500050E0BE016F5F7F4F80E00E9417076996DF
:101760000FB6F894DEBF0FBECDBFDF91CF910895C5
:10177000CF93DF938091FF01811167C081E0809357
:10178000F2018093F30128EF31E03093F5012093CB
:10179000F4011092F7011092F60128E231E0309343
:1017A000EF012093EE011092FA011092F9011092CC
:1017B000FC011092FB018093FD018093FE0181ECFE
:1017C0008093F8010E945B07FC0181819091F201F6
:1017D000482F490F5527551F483051059CF5A281C8
:1017E000B381109709F52EEE31E0338322832081F7
:1017F0002093F0018093F1018091F301820F8083A7
:101800002091F401A22FB091F5018A2F821B891734
:10181000C8F481813D91C82FD0E0C050DF4F38839C
:101820008F5F8183F2CFD90118962D913C91199742
:1018300021153105C1F72EEE31E019963C932E9318
:101840001897D5CF81E08093FF018EEE91E0DF9174
:10185000CF910895CF92DF92EF92FF920F931F9353
:10186000CF93DF936C01EB017B01E40EF51E10E0DA
:1018700000E0CE15DF0581F069916D30D1F3D6011E
:10188000ED91FC910190F081E02DC6010995892B25
:1018900019F00F5F1F4FEDCFC801DF91CF911F915E
:1018A0000F91FF90EF90DF90CF90089590E080E04F
:1018B0000895E42FF0E0E455FF4F4491E62FF0E067
:1018C000E455FF4F7491E82FF0E0E455FF4F649129
:1018D000842F0895682F660F680F8B3A38F082E0E6
:1018E000860F482F409560E00C94590C863530F0F7
:1018F00041E0460F642F609580E0F6CF862F8095FB
:1019000040E0F2CFFC01218524FD08C025FF06C080
:1019100084818095881F8827881F089580E0089516
:10192000FC0191859073903331F484818095881FF8
:101930008827881F089580E008951F93CF93DF9331
:10194000EC018B819C8194FB112710F9162796FFDF
:1019500004C09F7B9C838B8311E08B819C8191FDD4
:1019600005C0112311F192609C838B830E94D806DD
:1019700029813A81FB01E21BF30B2B813C8111236E
:10198000E9F125FD1FC04D8132FD14C0442391F0C3
:1019900034603C832B837A8369838B819C818F7134
:1019A000992711E0892B09F410E0812FDF91CF9165
:1019B0001F9108954E171F0619F010F04111EDCF39
:1019C0002262E7CF37FDE9CF26FD0AC04F81A0E1B3
:1019D0004A9FA0011124E417F507F8F22464D9CF37
:1019E00027FF0AC04885A0E14A9FA001112428686A
:1019F000E417F50770F6D1CF4F81F5CF25FF19C059
:101A00008D818E171F0609F060F426FD03C08881C2
:101A10008F5F888337FD18822F7D206131603C8382
:101A20002B838B819C8192FFB8CF9B7F9C838B8380
:101A3000B4CF30FF0DC037FD03C020613C832B8342
:101A40002B813C813E773C832B837A836983E9CF6A
:101A50004881442379F0C901807C9927892B41F47E
:101A60008E8140E1849FC0011124E817F907C8F274
:101A70002160D5CF31FFD5CF2F733D7F3860E3CFC5
:101A80000F931F93CF93DF93EC01162F642F0E94C7
:101A90009D0C082F8C859D85009741F1298581FF3C
:101AA00021C020612987298582FF1EC028602987DF
:101AB00073E0969587957A95E1F79D878C878B8162
:101AC0009C8185FF91C090689C838B838B819C81D6
:101AD00093FD03C098609C838B838985806289878E
:101AE00081E007C02F7EDECF277FE1CF17FF07C041
:101AF00080E0802BDF91CF911F910F9108954A854F
:101B0000242F2295207F2595259525952595022E14
:101B1000000C330B812F012E000C990B281739076D
:101B200039F3220F331F220F331F282B392B220F9B
:101B3000331F81E696E1A4E9B9E404C0B595A79501
:101B4000979587952A95D2F7837045954595459544
:101B500045954150840F8295807F85958595859523
:101B60008595982F9295907F212F2F70922B9A8791
:101B7000907F09F4BDCF9985292F2370213049F139
:101B800020F1223049F131E018160CF030E092FBE0
:101B9000222720F98A858F708A87321709F1906190
:101BA00099870E94D80629813A81AB01421B530BC9
:101BB0009A014B8559857A836983852F42171306CD
:101BC00089F080F0886089877ACF133009F090CF50
:101BD000DACF1123C1F28CCF11501230A0F688CF8A
:101BE0009F7EDECF877FEFCF188270CFFC0183818D
:101BF000948191708436910591F1B0F4823291050F
:101C000009F43FC040F48130910591F1409769F1AA
:101C100090E080E008958134910569F18035910567
:101C2000B9F780E890E00895883E9105D9F048F42E
:101C3000813C910519F1803D910551F780E092E0DA
:101C400008958035F1E09F0739F0803D21E092074B
:101C500019F080319140E1F688E090E0089582E04B
:101C600090E0089584E090E0089580E190E0089588
:101C700080E290E0089580E091E0089580E094E0B3
:101C8000089581E090E00895FC012381348120FDD6
:101C90001082C9018F719927892B19F0207E348316
:101CA000238308951F93CF93DF93EC01162F0E9497
:101CB000440E612FCE01DF91CF911F910C949D0CAA
:101CC0008F929F92AF92BF92CF92DF92EF92FF924C
:101CD0000F931F93CF93DF937C01D62F0E94B306FF
:101CE0004B015C0180910703811167C0CD2F81E01A
:101CF00080930703809306039FEF90930503109250
:101D000004039D0F909303038093020380910203C9
:101D1000EE0CFF1C8E298093020380910103813019
:101D200009F083C0109201030E94B3066B017C018D
:101D3000809102038093BB008091090390910A0374
:101D4000A0910B03B0910C03892B8A2B8B2BA1F054
:101D50000E94B3068090090390900A03A0900B03A1
:101D6000B0900C036C197D098E099F0986169706A1
:101D7000A806B90608F442C08091BC0083FDD8CF04
:101D800085EC8093BC000E94B3066B017C018091BE
:101D90000703813009F44BC0809104038D1710F4C0
:101DA000C0910403E1EEF2E0AFE0B3E080E08C1715
:101DB00051F191919D938F5FFACF8091090390919A
:101DC0000A03A0910B03B0910C03892B8A2B8B2B58
:101DD00009F488CF0E94B3060091090310910A0309
:101DE00020910B0330910C03681979098A099B092A
:101DF000061717072807390708F074CF80910803E2
:101E00000E948E08C0E010920E03C0930D038C2F29
:101E1000DF91CF911F910F91FF90EF90DF90CF90C6
:101E2000BF90AF909F908F90089585EEAACF80913C
:101E3000090390910A03A0910B03B0910C03892B25
:101E40008A2B8B2B09F4A3CF0E94B3068090090341
:101E500090900A03A0900B03B0900C036C197D09BD
:101E60008E099F0986169706A806B90608F08FCF37
:101E7000C5CF5F926F927F928F929F92AF92BF92E7
:101E8000CF92DF92EF92FF920F931F93CF93DF9346
:101E90004C015B01EA01390181E08093BD0288E6D3
:101EA0008093DF021092BE021092E00290E080E088
:101EB0000E941C0A0E94AF0867E070E088E690E08C
:101EC0000E94600E8EE893E00E94A609982F9295DA
:101ED00097702AE0522E8F70959D800D1124F40189
:101EE00080838EE893E00E94A609982F92959F70B8
:101EF0008F70959D800D1124F50180838EE893E00D
:101F00000E94A609982F929593708F70959D800DD1
:101F1000112488838EE893E00E94A609982F929559
:101F20009F708F70959D800D1124F30180838EE842
:101F300093E00E94A609982F92959F708F70959DAF
:101F4000800D1124F80180838EE893E00E94A60999
:101F5000982F92959F708F70959D800D1124F70199
:101F600080838EE893E00E94A609982F92959F7037
:101F70008F70959D800D1124F6018083DF91CF91A4
:101F80001F910F91FF90EF90DF90CF90BF90AF9097
:101F90009F908F907F906F905F900895CF92DF9287
:101FA000EF92FF926B017C0181E08093BD0280E59E
:101FB0008093DF021092BE021092E002BB27AF2D89
:101FC0009E2D8D2D0E941C0AC60199270E941C0A75
:101FD0000E94AF0861E070E080E590E00E94600E32
:101FE0008EE893E00E94A609FF90EF90DF90CF90DB
:101FF00008950F931F93FC01048115812681378179
:1020000040E052E16AE770E090E004171507260708
:10201000370740F476956795579547959F5F9630BB
:10202000A1F797E0292F206A2695909591708091CD
:102030000802882361F08FB7F8943091080231309C
:10204000A1F43DB3309307023DB33DBB8FBF2CBD20
:102050009DBD808187FD0CC070E060E0082E000C03
:10206000990B1F910F910C94350A80930702EFCFC3
:102070001F910F910895CF93DF93EC010E94F90F08
:102080008A8587FD05C060E0DF91CF910C94370A07
:1020900080E0DF91CF910C945C0ADF92EF92FF9287
:1020A0000F931F93CF93DF93EC017B01D42E211567
:1020B000310509F457C08B0101501109020F131F9C
:1020C000CE010E943B108AE20E945C0A61E08A8590
:1020D0000E94370A80E00E945C0A8F858E0D0E9464
:1020E0005C0A80E00E945C0AEB85FC85808191811E
:1020F0000817190710F00FEF080F8F85800F0E9447
:102100005C0A60E08A850E94370A8BE20E945C0AC2
:1021100061E08A850E94370A80E00E945C0A898912
:102120008D0D0E945C0A80E00E945C0AEB85FC85B4
:10213000898981509281890F0E945C0A60E08A85BA
:102140000E94370A8CE20E945C0A8A8587FD11C0D2
:1021500061E0DF91CF911F910F91FF90EF90DF90A1
:102160000C94370AEB85FC8500811181015011091F
:10217000A7CFCE010E94400ACE010E94F90F80E451
:10218000DF91CF911F910F91FF90EF90DF900C9412
:102190005C0ACF92DF92EF92FF9230E020E050E0B5
:1021A00040E070E060E080918B0490918C040E948C
:1021B0004D102091780430917904A0917A04B09167
:1021C0007B040E94B4336B017C0181E0C81AD10802
:1021D000E108F1088FEFC816D806E806F80639F0CE
:1021E00080E00E945C0A80E00E945C0AEECF809151
:1021F0008B0490918C04FF90EF90DF90CF900C9423
:10220000400A2F923F924F925F926F927F928F92ED
:102210009F92AF92BF92CF92DF92EF92FF920F9375
:102220001F93CF93DF93CDB7DEB72B970FB6F894FC
:10223000DEBF0FBECDBF582E7B014A01182F612C87
:102240001F82712CA0918904B0918A0411968C91FF
:10225000119790E0880F991F2091780430917904AC
:10226000281B390B1217130609F030F4F401E70D9F
:10227000F11D8081811120C048E0E40EF11C8091A5
:102280007A0490917B04E816F90608F00CC1639477
:1022900015968C91159790E0880F991F681619066E
:1022A00009F07AC0F401E70DF11D8081882309F45B
:1022B000FAC0152D7F82612C60912F03709130033D
:1022C000F401E70DF11D808173946115710509F02A
:1022D00066C0682F70E0803C98F71092300310922F
:1022E0002F031C96ED91FC911D97AE014F5F5F4F40
:1022F000CD010995862D90E0959587954A819C01A1
:10230000E3E0220F331FEA95E1F709814217130634
:1023100009F00CF4B9C0089F9001099F300D1124F9
:102320008C819D81820F931F9D838C83862D81706C
:102330008887198688859985880F991F880F991F26
:102340009B878A87412E0E839E81911132C0000F98
:10235000100F2B8130E0220F331F612F70E0A70197
:1023600080918B0490918C040E944D1008E0C090E5
:102370008704B0908804D12C8B8190E0880F991F3E
:10238000D81619060CF084C08B2D0E945C0A8C2D87
:102390000E945C0AD394F0CF152D7F808DCFF6E09C
:1023A000660F771FFA95E1F7607C77708F73682B63
:1023B00094CFEC81FD81E491F0E00A8402C0F595B0
:1023C000E7950A94E2F730E020E0C12C2430310593
:1023D000C1F0CF01022E02C0959587950A94E2F7CD
:1023E00080FF0DC0C901880F991F43E001C0440F51
:1023F0008A95EAF7842FC82A2F5F3F4FE7CF80E006
:10240000FACF642D70E022E030E0A70180918B04C8
:1024100090918C040E944D10B12CA12CD12CC6019E
:102420000A2C02C0959587950A94E2F730908504AE
:102430002090860480FD04C030908704209088049A
:10244000822D0E945C0A832D0E945C0A822D0E94CC
:102450005C0A832D0E945C0A8FEFA81AB80A98E0E4
:10246000A916B104E1F680918B0490918C040E942E
:10247000400A439443948C819D8101969D838C8373
:102480004E8141504E8360CF8B81800F8B835FCF15
:10249000015009F06CCF180F80918B0490918C043F
:1024A0000E94400ACFCE2B960FB6F894DEBF0FBE27
:1024B000CDBFDF91CF911F910F91FF90EF90DF90F3
:1024C000CF90BF90AF909F908F907F906F905F90D4
:1024D0004F903F902F9008959F92AF92BF92CF92CE
:1024E000DF92EF92FF920F931F93CF93DF936A01D6
:1024F000D0918704B0908804A090850490908604C1
:1025000020E230E0AB01BC0180918B0490918C04FF
:102510000E944D1081E2E82EF12CC1E081E0E81A22
:10252000F108F1F010E000E0F601E00FF11FE49196
:10253000EC2389F0892D0E945C0A8A2D0E945C0A96
:102540000F5F1F4F0032110579F7C6018096CC0F3F
:1025500029F76C01E2CF8B2D0E945C0A8D2FEECF04
:1025600080918B0490918C04DF91CF911F910F91FA
:10257000FF90EF90DF90CF90BF90AF909F900C9422
:10258000400A90E09C01235D374F825F974FF9012D
:10259000613009F440C0623001F14491FC01549172
:1025A000E52FF0E0EE0FFF1FEE50F84FA591B4912C
:1025B0005C91409545234C93F9012491FC01849151
:1025C000E82FF0E0EE0FFF1FE050F84FA591B49117
:1025D0008C91209528232C9308954491FC015491CB
:1025E000E52FF0E0EE0FFF1FEE50F84FA591B491EC
:1025F0005C91409545234C93F9012491FC01849111
:10260000E82FF0E0EE0FFF1FE050F84FA591B491D6
:102610008C91282BE0CF2491FC018491E82FF0E0ED
:10262000EE0FFF1FEE50F84FF1CF90E0FC01E25F9C
:10263000F74FE491F0E0EE0FFF1FE553F94FA5913E
:10264000B4912C91835D974FFC018491822391E09A
:1026500009F490E0892F08951F93CF93DF93EC0145
:10266000862F6E874F87288B60E00E94C11260E042
:102670008F850E94C11262E088890E94C1128B81FD
:102680009C8190619C838B838E850E941513182FEB
:102690008F850E941513880F812B982F9F708A8534
:1026A000807F892B8A87DF91CF911F910895CF93E7
:1026B000DF93EC0180917004909171040097E9F030
:1026C0006881798161157105B1F040917204509172
:1026D00073042C813D814217530768F00E94A23693
:1026E0008C819D8190937504809374041D821C825B
:1026F000DF91CF9108950E943A3588819981909316
:102700007104809370048A819B81909373048093F9
:1027100072048C819D819093750480937404198256
:1027200018821B821A82E2CFCF93DF93EC0188815B
:102730009981009711F00E943A35198218821D8202
:102740001C821B821A82DF91CF910895FC01808147
:102750009181009711F00C943A350895009711F487
:1027600081E090E00C949E340E948036FC0124812C
:102770003581232B39F421E0FB018081882349F046
:1027800020E007C0808191810E94993621E0892B49
:10279000B9F7822F08950F931F93CF93DF93EC0126
:1027A00088819981009759F02A813B812617370744
:1027B00030F081E0DF91CF911F910F9108958B014F
:1027C0006F5F7F4F0E94C335009759F099838883CC
:1027D0001B830A832C813D81232B59F7FC01108236
:1027E000E8CF80E0E7CFEF92FF920F931F93CF9354
:1027F000DF936115710541F480E0DF91CF911F9166
:102800000F91FF90EF90089541155105B1F07B01B4
:10281000EC010C811D81040F151FB8010E94CB1320
:10282000882351F3288139818C819D81B701820FE2
:10283000931F0E94A2361D830C8381E0DECFEF92AE
:10284000FF920F931F93CF93DF9300D000D0CDB7AB
:10285000DEB77C01862F4AE08E010F5F1F4FB80163
:1028600090E00E949D31F80101900020E9F7319736
:10287000AF01401B510BB801C7010E94F313811136
:1028800003C0C7010E949413C7010F900F900F90CF
:102890000F90DF91CF911F910F91FF90EF900895CE
:1028A000CF93DF93EC01FB0101900020E9F7319712
:1028B000AF01461B570B0E94F313811103C0CE01D9
:1028C0000E949413CE01DF91CF910895CF93DF93AF
:1028D000EC01FB0144815581608171810E94F313F9
:1028E000811103C0CE010E949413CE01DF91CF91DC
:1028F0000895EF92FF920F931F93CF93DF93EC0114
:102900007B018A01BA010E94CB1381110BC0CE0159
:102910000E949413CE01DF91CF911F910F91FF90F0
:10292000EF9008951D830C83B701888199810E94DF
:10293000A236F0CFFB0101900020E9F73197AF01FB
:10294000461B570B0C9479140F931F93CF93DF936F
:10295000CDB7DEB729970FB6F894DEBF0FBECDBF57
:102960008C01862FF8011182108213821282158247
:1029700014824AE0BE016F5F7F4F90E00E94EE310B
:10298000BE016F5F7F4FC8010E949A1429960FB64F
:10299000F894DEBF0FBECDBFDF91CF911F910F9195
:1029A0000895CF93DF93EC01FB018617970749F059
:1029B000608171816115710541F0448155810E94EA
:1029C0007914CE01DF91CF9108950E949413F9CF2D
:1029D000FC01118210821382128215821482FB0183
:1029E00001900020E9F73197AF01461B570B0C947B
:1029F0007914AF92BF92CF92DF92EF92FF920F9332
:102A00001F93CF93DF936C015B017A018901241737
:102A1000350720F48F2D7901042F182F6FE771E00F
:102A2000C6010E94E814D5011496CD91DC91EC16F4
:102A3000FD06E0F40C171D0708F4E801D501ED913F
:102A4000FC911197EC0FFD1F108110826D917C910C
:102A50006E0D7F1DC60161157105A1F00E949A14CB
:102A6000F50180819181C80FD91F1883C601DF91BC
:102A7000CF911F910F91FF90EF90DF90CF90BF907B
:102A8000AF9008950E949413EBCF85ED8093BC0026
:102A90008091090390910A03A0910B03B0910C035C
:102AA0000796A11DB11D23E0B695A795979587952B
:102AB0002A95D1F72091BC0024FD03C01092070392
:102AC00008954091090350910A0360910B0370919E
:102AD0000C03452B462B472B69F30097A105B10545
:102AE00041F02AE22A95F1F700C00197A109B10946
:102AF000E1CF809108030C948E08FF920F931F93EF
:102B0000CF93DF938C01EB01F8800E941333F8160A
:102B100021F06F2DC8010E941B33CE01DF91CF91B0
:102B20001F910F91FF9008950C941333EF92FF9231
:102B30000F931F93CF93DF93CDB7DEB7A8970FB650
:102B4000F894DEBF0FBECDBF8C016FE771E00E942D
:102B5000E814F0906E0261E08F2D0E944906E0902B
:102B6000710260E08E2D0E94490661E08E2D0E9468
:102B7000490660E08F2D0E944906F12C8091720277
:102B800028E0829FC0011124F816190694F580915F
:102B90006F020E9420061CA21BA21EA21DA218A644
:102BA0001FA2BC01990F880B990B2AE0AE014F5F61
:102BB0005F4F0E94A831BE016F5F7F4FCE018396A9
:102BC0000E949A144FA158A56BA17CA1C8010E9434
:102BD000F313CE0183960E94A613E090700261E089
:102BE0008E2D0E94490660E08E2D0E944906F394C6
:102BF000C5CFF801248135812817390798F46BE790
:102C000071E0CE0101960E94E814B801CE01019650
:102C10000E946614BC01C8010E94D114CE01019625
:102C20000E94A613C801A8960FB6F894DEBF0FBE87
:102C3000CDBFDF91CF911F910F91FF90EF9008953D
:102C40004F925F926F927F928F929F92AF92BF92BC
:102C5000CF92DF92EF92FF92CF93DF9300D000D01C
:102C600000D0CDB7DEB789830E94D806C090E901B5
:102C7000D090EA01E090EB01F090EC016C197D0935
:102C80008E099F09663471058105910508F407C115
:102C9000E091B802F0E0EA57FD4FE491E093580468
:102CA0000E94D8066093E9017093EA018093EB01DA
:102CB0009093EC013981353108F0F1C0E32FF0E059
:102CC000EC59F94E0C9484347916A516B116F61603
:102CD0001F172B1737174F174F174F174F174F1730
:102CE0004F174F174F174F174F174F174F174F17B4
:102CF00044174091E8014983842F0E946A0C9B018C
:102D0000482FE0EEF3E088E594E02193319341937E
:102D10008E179F07D1F759815D5F5093E801269682
:102D20000FB6F894DEBF0FBECDBFDF91CF91FF90FD
:102D3000EF90DF90CF90BF90AF909F908F907F905B
:102D40006F905F904F900C945204ECEDF3E08FEF96
:102D5000848385838683339694E0E435F907C1F74D
:102D6000DECF1D82C12CD12C7601CA948091B50290
:102D70003D813817A0F60E941E312B013C010E94B4
:102D80001E314B015C010E941E3169837A838B8363
:102D90009C83C301B201A70196010E942933762EBC
:102DA000C501B401A70196010E9429336E83698190
:102DB0007A818B819C81A70196010E942933862FFD
:102DC000472D6E810E94590C9B01482F5D81852FF4
:102DD00090E0FC01EE0FFF1FE80FF91FE452FC4FDB
:102DE0002483358346835F5F5D83C0CF1982609102
:102DF000B5022091E80189818617E8F43FEF839FAF
:102E0000C001112470E00E947034822F860F0E944E
:102E10006A0C9B01482F5981852F90E0FC01EE0F31
:102E2000FF1FE80FF91FE452FC4F248335834683CC
:102E30005F5F5983DCCF2D5F2093E80170CFECED0D
:102E4000F3E08FEF848315821682339694E0E435A5
:102E5000F907C1F764CFECEDF3E080E814828583D5
:102E60001682339634E0E435F307C1F758CFECED22
:102E7000F3E084E594E02FEF1482158226833396E5
:102E80008E179F07C9F74BCFECEDF3E01482158244
:102E90001682339644E0E435F407C1F740CF269616
:102EA0000FB6F894DEBF0FBECDBFDF91CF91FF907C
:102EB000EF90DF90CF90BF90AF909F908F907F90DA
:102EC0006F905F904F9008958F929F92AF92BF92B4
:102ED000CF92DF92EF92FF926B017C010E94B306CA
:102EE0004B015C01C114D104E104F10439F180917A
:102EF000BA02882341F08091B402882321F08091A6
:102F0000B9020E9420160E94B306681979098A093D
:102F10009B09683E73408105910520F321E0C21AA8
:102F2000D108E108F10888EE880E83E0981EA11C04
:102F3000B11CC114D104E104F10429F7FF90EF9012
:102F4000DF90CF90BF90AF909F908F9008957F9229
:102F50008F929F92AF92BF92CF92DF92EF92FF92A9
:102F60000F931F93CF93DF93C82E8B017A0180912B
:102F7000BC02811110C08FEF9FEFDF91CF911F91A5
:102F80000F91FF90EF90DF90CF90BF90AF909F9008
:102F90008F907F9008958091600280FF05C080919E
:102FA000E00082608093E000CE2DDF2DD12C8AEFEF
:102FB000B82E8C2D8770982E8C2D8072882E8C2D9B
:102FC0008074782E9AE3A92E209719F4DD2009F455
:102FD00052C08C2D0E943D0781110AC0BA94BB20BB
:102FE00051F261E070E080E090E00E946417ECCF65
:102FF0008C171D0611F00CF08C2F9FB7F89490924F
:10300000E9002091E80025FD02C09FBFDDCF282FF9
:1030100030E0C21BD30B882029F08150A0F0109221
:10302000F100FBCFF801C7FC0AC0815050F041917C
:103030004093F100FACF44914093F10031968150D2
:10304000D0F7020F131FDD2021F0A092E800D12C51
:10305000DCCF8091E80085FD07C0A092E800DD2468
:10306000D394209791F2F3CF209779F6772069F2E5
:10307000A092E800CACF5D9A84E680935F02C70100
:103080007CCFCF93DF93EC0180911201882331F044
:1030900083E00E94A7171816190634F081E090E02B
:1030A0009B838A8380E090E0DF91CF910895CF9356
:1030B000DF93FC01448155816081718181E393E05C
:1030C0000E944118EC0142E050E06DE771E081E3BD
:1030D00093E00E9441188C0F9D1FDF91CF910895BE
:1030E0004F925F926F927F928F929F92AF92BF9218
:1030F000CF92DF92EF92FF920F931F93CF93DF93C4
:10310000CDB7DEB768970FB6F894DEBF0FBECDBF60
:10311000E82E0E94D8062B013C014FEF6FEF8FEF96
:103120000E94590C9B01482FE0EEF3E08BE594E000
:103130002193319341938E179F07D1F7E091B80205
:10314000F0E0EA57FD4FE491E09358040E945204E6
:10315000CE2CD12C29E0E29E50011124FF24F394BF
:1031600089E0882E992493940E94D80664197509E1
:1031700086099709683B7B408105910508F460C08A
:1031800068EB72E086EF93E00E947D156091B702D4
:10319000CE0143960E94A4146091B802CE010D9610
:1031A0000E94A4146091B902CE0107960E94A41453
:1031B00060E871E0CE0101960E94E814BE01695FEB
:1031C0007F4FCE0101960E94661460E871E00E9474
:1031D0005014BE01635F7F4F0E94661460E871E087
:1031E0000E945014BE016D5E7F4F0E9466140E94C3
:1031F0005718CE0101960E94A613CE0107960E9491
:10320000A613CE010D960E94A613CE0143960E94EE
:10321000A61368960FB6F894DEBF0FBECDBFDF9140
:10322000CF911F910F91FF90EF90DF90CF90BF90C3
:10323000AF909F908F907F906F905F904F90089588
:103240008091B202882361F0CE0101960E9496150A
:10325000CE0101960E945713CE0101960E94A6133B
:1032600080917602E81648F500916C0210916D028B
:103270000A0D1B1DE0917302F0917402EC0DFD1D0F
:10328000E0818E2F90E020917404309175048217B4
:10329000930730F4E0917004F0917104309751F489
:1032A0001092ED01EDEEF1E061E08081803301F1FB
:1032B00060E01EC0E80FF91FF7CF9601281B310907
:1032C000C901889E9001899E300D112400916802E9
:1032D00010916902020F131FE0916A02F0916B02D4
:1032E000E80FF91F80810E94200661E0892B01F719
:1032F000C8010E94520EC8010E94F60D843029F0C8
:10330000883009F031CFF9242FCF0E94D8062B0145
:103310003C018091B802FF2081F08B3F18F48B5F55
:103320008093B802E091B802F0E0EA57FD4FE491D3
:10333000E09358040E94520417CF853098F38550CB
:10334000EFCFEF92FF920F931F93CF93DF93CDB701
:10335000DEB762970FB6F894DEBF0FBECDBFE82E82
:103360006FE771E0CE010D960E94E8140DEE13E0B8
:10337000C8010E949415F82E682FCE0107960E946E
:10338000A4141A8219821C821B821E821D82BE0115
:10339000635F7F4FCE0101960E94D114BE01695F29
:1033A0007F4FCE0101960E946614BC01CE010D969E
:1033B0000E94D114CE0101960E94A613CE01079659
:1033C0000E94A613083F83E0180704F51A821982A9
:1033D0001C821B821E821D82BE01635F7F4FCE0155
:1033E00001960E94D11462E871E0CE0101960E941C
:1033F0005014BC01CE010D960E94D114CE0101964D
:103400000E94A613F801EE53F140F0820F5F1F4FA8
:10341000011584E0180709F0ABCF81E0E81204C081
:10342000CE010D960E945718CE010D960E94A6134C
:1034300062960FB6F894DEBF0FBECDBFDF91CF917D
:103440001F910F91FF90EF900895AF92BF92CF928E
:10345000DF92EF92FF920F931F93CF93DF931F9210
:10346000CDB7DEB77C0169836A01590141E050E0C4
:10347000BE016F5F7F4FFC0183810E94A7178C0103
:1034800097FD0BC0F7018381A501B60180640E94FE
:10349000A717080F191F97FD8C01C8010F90DF9126
:1034A000CF911F910F91FF90EF90DF90CF90BF9041
:1034B000AF900895CF93DF93EC010E94B80B28E002
:1034C00030E0AE0162E0DF91CF910C94251AE7EC79
:1034D000F3E01682178210861186128613861482F4
:1034E0008BEC93E00C945A1ADC016838A0F0685811
:1034F000FD0186E0662321F09681961301C01682B5
:10350000815031968111F6CFCD0104960E945A1A4E
:1035100081E090E00895862F90E067FF13C0FC01E2
:10352000E058F10981E090E001C0880FEA95EAF7E0
:10353000809514969C911497892314968C931497D4
:1035400060E0D6CF1C96ED91FC911D97E80FF91F16
:1035500064916623E1F0862F807C803C69F41496A8
:103560008C9114978F7B14968C9314976F7362339E
:1035700009F0BECF64E6BCCF67FFF9CF14968C91FB
:1035800014978D7F14968C9314976F77F0CF90E0FB
:1035900080E00895DC01683888F1685816968C91AF
:1035A0001697861721F117968C9117978617F9F0C1
:1035B00018968C9118978617D1F019968C911997B7
:1035C0008617A9F01A968C911A97861781F01B9688
:1035D0008C911B97861759F0FD01369690E080E09C
:1035E000219121114FC08A0F9B1FFC016683CD01E1
:1035F00004960E945A1A81E090E00895862F90E088
:1036000067FF12C0FC01E058F10921E030E001C081
:10361000220FEA95EAF714968C911497822B149650
:103620008C93149760E0BACF1C96ED91FC911D9796
:10363000E80FF91F6491611109C081E090E01396D1
:103640009C938E93129790E080E00895862F807C63
:10365000803C69F414968C911497806414968C9332
:1036600014976F73623309F099CF64E697CF67FFC1
:10367000F9CF14968C911497826014968C931497BA
:103680006F77F0CF01968630910509F0A9CFD5CF9D
:10369000EF92FF921F93CF93DF93EC01162F0E94BE
:1036A000CA1A7C01612FCE010E94741AC7019927A2
:1036B000DF91CF911F91FF90EF9008959091B70304
:1036C00098138093B7030E94B80B23E030E046EBD9
:1036D00053E061E00E94251A81E090E00895E6EB56
:1036E000F3E01082118212820E94B80B23E030E0D6
:1036F00046EB53E061E00C94251ABF92CF92DF9223
:10370000EF92FF920F931F93CF93DF93EC01888D7D
:1037100087FD03C061E00E947706898D87FD03C0A5
:1037200061E00E9477061FB7F89480910902811129
:1037300027C0EFE1F8E08491EEE3F8E09491E82F00
:10374000F0E0EE0FFF1FEE50F84FA591B491EC9111
:10375000E92321F461E081E10E94490661E081E111
:103760000E9477068CB580618CBD8CB580648CBD61
:1037700061E08FE00E94770661E080E10E947706B9
:10378000809109028F5F809309021FBF0F8907FD97
:1037900028C061E0802F0E947706002E000C110BDC
:1037A00061E070E0C8010E94350A6AE070E080E0E4
:1037B00090E00E94641770E060E0C8010E94350A42
:1037C0006AE070E080E090E00E94641761E070E0E1
:1037D000C8010E94350A64E170E080E090E00E9438
:1037E000641780E890E09B838A8380EA90E09D8361
:1037F0008C8368E770E080E090E00E9464170D8899
:10380000DE89C02DCE010E943B100CEA11E084E15C
:10381000E82E82E0F82EBB24BA94CC24C394F8019D
:10382000D490CC2089F1FFEFCF1217C0CE010E94B7
:10383000400A8FEFD81661F06D2D70E090E080E0C7
:103840000E946417CE010E943B10CC24C3940BC08D
:1038500064EF71E080E090E0F3CF8D2D0E945C0A70
:10386000BB24BA94C12C0F5F1F4FE016F106B9F6C6
:10387000CE01DF91CF911F910F91FF90EF90DF90DC
:10388000CF90BF900C94400AEFEFBE120AC0D7FC55
:1038900013C0DD20D1F261E08A850E94370ABD2C79
:1038A000E2CFBA948D2D0E945C0AB110DCCF60E0AB
:1038B0008A850E94370AC9CFCD2CD5CFDF92EF92EF
:1038C000FF920F931F93CF93DF938091B7028F5F87
:1038D000853008F048C08093B70267EB72E085EF4F
:1038E00093E00E947D158091B402882309F44DC0B5
:1038F0004FEF6FEF8FEF0E94590CC0EED3E0FE0147
:1039000061937193819394E0EB35F907C9F71092B5
:10391000BA02DD24D39485E8E82E83E0F82E06E889
:1039200012E08091B70290E00196D816190609F0CE
:10393000ECF4F7018491809358040E9452046AEFDA
:1039400070E080E090E00E946417F8018491809319
:1039500058040E9452046AEF70E080E090E00E94F8
:103960006417D394DECF1092B702B7CF40E060E087
:1039700080E00E94590C699379938993F4E0CB35E8
:10398000DF07C9F781E08093BA02DF91CF911F91E1
:103990000F91FF90EF90DF900895CF92DF92EF921A
:1039A000FF92CF93DF936B017C01D42FC1E0C093D2
:1039B000BD0280E58093DF021092BE021092E00209
:1039C000BB27AF2D9E2D8D2D0E941C0AC601992765
:1039D0000E941C0A61E070E080E590E00E94600EA9
:1039E0008EE893E00E94A6096D2F8EE893E00E9476
:1039F000ED091092BA0265E070E080E090E00E946C
:103A00006417C093BA02DF91CF91FF90EF90DF90DF
:103A1000CF900C94AF084F925F926F927F928F92EB
:103A20009F92AF92BF92CF92DF92EF92FF920F934D
:103A30001F93CF93DF93CDB7DEB768970FB6F89497
:103A4000DEBF0FBECDBFE82ED62EF42EC22E309193
:103A5000B7022091B50290E0329F800D911D112494
:103A600025E6289F8001299F100D112482E0681708
:103A700009F41FC18617E8F0662359F181E0681741
:103A800009F4A6C068960FB6F894DEBF0FBECDBF8E
:103A9000DF91CF911F910F91FF90EF90DF90CF902A
:103AA000BF90AF909F908F907F906F905F904F905E
:103AB000089583E0681709F40DC184E06813E2CF2C
:103AC000411123C1780181E3E80EF11C075E1F4F0D
:103AD00004C0780183E6E80EF11CE114F10491F2D0
:103AE0008AE0982E92E3492E512C612C712CE0161D
:103AF000F10640F2B80190E080E00E94CE0F882EDF
:103B0000A82EB12CA114B10409F4BCCF81E0A816F1
:103B1000B104C9F06091E6017091E701613071056F
:103B200091F0D1100AC0C701801B910B833691051B
:103B300020F487EC93E00E94741A6091E60187EC10
:103B400093E00E94741AC5010197039798F0C11081
:103B5000F6C0B8016150710990E080E00E94CE0F7C
:103B6000682F87EC93E00E94741A682D87EC93E02D
:103B70000E94CA1AC5010297029738F5C11021C0E8
:103B80000E94671A812C83E0A816B10439F40E94C0
:103B90001E31A30192010E942933862E0F5F1F4F11
:103BA000B80190E080E00E94CE0FA82EB12C682DC5
:103BB00070E0899D600D711D112490E080E00E94ED
:103BC0006417B092E701A092E6010F5F1F4F8FCFFD
:103BD00083E0481302C00E945E1C8091B4028823D7
:103BE00009F462C0F11054C08091B9028F5F873030
:103BF00018F48093B90202C01092B90269EB72E026
:103C000087EF93E00E947D156091B702CE01439645
:103C10000E94A4146091B802CE010D960E94A414D3
:103C20006091B902CE0107960E94A41460E871E089
:103C3000CE0101960E94E814BE01695F7F4FCE015C
:103C400001960E94661460E871E00E945014BE0163
:103C5000635F7F4F0E94661460E871E00E94501419
:103C6000BE016D5E7F4F0E9466140E945718CE0100
:103C700001960E94A613CE0107960E94A613CE01BC
:103C80000D960E94A613CE0143960E94A613FACE6B
:103C900081E0F81202C084E1ACCF82E0F812B4CF28
:103CA0008E2D0E947018EECE82E0F81609F4EACE4E
:103CB000ABCF411107C0780183E6E80EF11C0E5C22
:103CC0001F4F0BCF81E04813DDCE780181E3E80E72
:103CD000F11C03CF411107C0780181E4E80EF11C0B
:103CE0000F5D1F4FFACE82E0481307C0780182E6CD
:103CF000E80EF11C0E5B1F4FF0CE81E04813C2CEE0
:103D0000780180E2E80EF11CE8CE82E0481305C09D
:103D100078018AE4E80EF11CD2CF83E0481307C093
:103D2000780183E6E80EF11C055B1F4FD6CE81E0DB
:103D30004813A8CE780188E1E80EF11CCECE682D9C
:103D400087EC93E00E94741A15CF8F929F92AF92E6
:103D5000BF92CF92DF92EF92FF920F931F93CF9378
:103D6000DF93CDB7DEB768970FB6F894DEBF0FBE0E
:103D7000CDBF0E94D8060091770210917802209161
:103D8000790230917A02601B710B820B930B6839B8
:103D90007A438105910580F080917B02882361F050
:103DA0000E94D8066093770270937802809379021C
:103DB00090937A0210927B028091B202882361F084
:103DC000CE0101960E949615CE0101960E945713CE
:103DD000CE0101960E94A6138091B6028F3F09F48E
:103DE000B3C00091660210916702F8018089918545
:103DF00097FF77C00E941513F82EC8010E94440E49
:103E0000F801818585FF02C08F7D81874F2D6FEF7F
:103E1000C8010E94400D882309F496C0E090660214
:103E2000F0906702F701818585FD75C0C7010E948A
:103E3000F60D8032910509F410C18034910509F422
:103E40006AC0029709F080C08091B6028F5F83300C
:103E500008F000C18093B60266EB72E084EF93E055
:103E60000E947D158091B402882309F46DC040E062
:103E700060E080E00E94590C9B01482F00EE13E0A7
:103E80008BE594E0F8012193319341938E179F07BE
:103E9000D1F74FEF6FEF8FEF0E94590C6B01E82EB7
:103EA0002091B60230E090E080E0F801C192D1921A
:103EB000E1928F01019628173907BCF7E5E8F3E096
:103EC000E491E09358040E9452041092BA0268EE02
:103ED00073E080E090E00E94641781E08093BA0272
:103EE00033C00E941513E82EF80186850E94151331
:103EF000F82EF80187850E941513880FF82AC8014B
:103F00000E94440EF801918595FF02C09F7D918724
:103F10004E2D6F2D7DCF1091B602111150C0C701EB
:103F20000E94900C882319F080E10E945E1B809112
:103F30006602909167020E94820C882319F080E249
:103F40000E945E1B0E946F1B10E089E0D82E95E650
:103F5000C92E8091B502181708F0D5C1809176025C
:103F6000A12EB12C181708F08DC080906C02909093
:103F70006D021D9D800C911C1124E0917302F09143
:103F80007402EA0DFB1DE0818E2F90E020917404F5
:103F9000309175048217930738F4E0917004F09122
:103FA0007104309709F06BC01092ED01EDEEF1E075
:103FB00061E08081803309F481C060E07FC011300E
:103FC00061F50E94D80660939D0270939E028093D3
:103FD0009F029093A00210939C02C7010E94820C42
:103FE0001091B802882381F0153018F01550109305
:103FF000B802E091B802F0E0EA57FD4FE491E09397
:1040000058040E945204A0CFC7010E94900C88233C
:1040100081F31B3F70F71B5FEACF123009F094CF9A
:10402000C7010E94900C882329F069ED87EC93E08A
:104030000E94CA1A80916602909167020E94820CC7
:10404000882329F06AED87EC93E00E94CA1A0E9447
:10405000671A7ACF1092B602FFCE8091B602811114
:1040600073CFF7018081813009F46ACF823011F477
:1040700088E066CF833009F065CF84E061CFE80F38
:10408000F91F96CF9501281B3109C901D89E9001CF
:10409000D99E300D11248090680290906902820EA2
:1040A000931EE0916A02F0916B02E80FF91F808184
:1040B0000E94200661E0892B09F07FCFC4010E9495
:1040C000520EC4010E94F60DF82EF401E08090918A
:1040D000B7028091B502989FA00CB11C1124CA9C14
:1040E000B001CB9C700D11246C597F4F072E000C32
:1040F000880B990B0E94CE0F082F6FE771E0CE015D
:1041000043960E94E81480917B02F4E0FF1609F4C4
:104110005EC0FF15F0F021E0F21609F4A0C032E015
:10412000F31609F4B9C080917B02882361F06FE730
:1041300071E0CE0143960E94B613811104C0CE01F6
:1041400043960E945718CE0143960E94A6131F5F04
:1041500000CF98E0F91609F461C0E0E2FE12E3CF67
:10416000882309F4BCC06E2DCE010D960E94A414C4
:10417000612FCE0107960E94A41464E871E0CE017D
:1041800001960E94E814BE01695F7F4FCE0101963F
:104190000E94661462E971E00E94501464E871E0C4
:1041A0000E945014BE01635F7F4F0E946614BC01E1
:1041B000CE0143960E94D114CE0101960E94A6130F
:1041C000CE0107960E94A613CE010D9624C0882327
:1041D00009F45CC0612FCE0107960E94A41464E824
:1041E00071E0CE0101960E94E814BE01695F7F4F25
:1041F000CE0101960E94661466E871E00E94501498
:10420000BC01CE0143960E94D114CE0101960E94BA
:10421000A613CE0107960E94A61385CF8823A9F086
:10422000612FCE0107960E94A41464E871E0CE01CC
:1042300001960E94E814BE01695F7F4FCE0101968E
:104240000E94661469E871E0D9CF013009F46BCFA0
:1042500021E040E0602F812F0E940B1D64CF882356
:10426000A9F0612FCE0107960E94A41464E871E0C2
:10427000CE0101960E94E814BE01695F7F4FCE0116
:1042800001960E9466146CE871E0B8CF20E040E02F
:1042900060E0011148CFDFCF8823A9F0612FCE0164
:1042A00007960E94A41464E871E0CE0101960E9472
:1042B000E814BE01695F7F4FCE0101960E9466142B
:1042C0006FE871E09BCF20E041E0002309F42BCFA1
:1042D000602F812F0E940B1D0E94671A24CF00239C
:1042E00009F421CFF1E020E040E0EF1689F322E06D
:1042F000E21203C020E042E0EBCF33E0E312ECCF68
:1043000020E043E0E5CF68960FB6F894DEBF0FBE1D
:10431000CDBFDF91CF911F910F91FF90EF90DF9074
:10432000CF90BF90AF909F908F9008955F926F92C3
:104330007F928F929F92AF92BF92CF92DF92EF9235
:10434000FF920F931F93CF93DF93CDB7DEB72C97D8
:104350000FB6F894DEBF0FBECDBF7C013B014A0112
:104360005901680155245A9487E4E816F104B4F021
:1043700097010F2C000C440B550B265431094109B1
:104380005109A1E0BFEF0E9456332FE030E040E03A
:1043900050E00E94293355245A94520E8091B40261
:1043A000882309F491C08091B9020E9420160FEF72
:1043B00010E086E4E816F104A4F497010F2C000C39
:1043C000440B550B2753310941095109AFEFB0E0B8
:1043D0000E9448332FE030E040E050E00E94293353
:1043E00089018091B402882321F08091B9020E9452
:1043F000201688E3E816F1040CF461C085E5E816A0
:10440000F1041CF00FEF10E0512C20E0022B1529D5
:104410002AE030E0C701B9010E947034605D698311
:10442000805D8A8383E48B838CE28C8340E24D83BE
:10443000C301B9010E947034605D6E83805D8F831B
:1044400085E2888749874A874B871C86980185E0E3
:10445000369527958A95E1F7207E3770102F002733
:104460000027187F022B132B1093860400938504DA
:10447000A401B601C5010E946C12B601675F7F4FAF
:10448000AE014F5F5F4FC50186960E9401110E94E9
:10449000A51E2C960FB6F894DEBF0FBECDBFDF91E0
:1044A000CF911F910F91FF90EF90DF90CF90BF9031
:1044B000AF909F908F907F906F905F90089510E0E5
:1044C00000E055245A94A1CF0FEF10E086E4E816DF
:1044D000F1040CF093CF71CF6F927F928F929F92E5
:1044E000AF92BF92CF92DF92EF92FF920F931F9302
:1044F000CF93DF9300D000D000D0CDB7DEB75C0102
:10450000862F90E00E94AE134C016C01F12CE12C3F
:104510008091B402882321F08091B9020E94201674
:10452000F50184819581E816F90670F46080718048
:1045300060E470E0C3018E0D9F1D0E948E368C01D9
:1045400006191709892B11F40FEF1FEF0F3F100702
:10455000D1F09801A701B501CE0101960E94F9148E
:1045600089819A8160E0009711F00E947631F6010E
:1045700061936F017801FFEFEF1AFF0ACE010196F8
:104580000E94A613C5CFC40126960FB6F894DEBFCD
:104590000FBECDBFDF91CF911F910F91FF90EF9094
:1045A000DF90CF90BF90AF909F908F907F906F9053
:1045B00008951F920F920FB60F9211242F933F93DD
:1045C0008F939F93AF93BF938091A7029091A8027E
:1045D000A091A902B091AA023091A60223E0230F74
:1045E0002D3758F50196A11DB11D2093A602809389
:1045F000A7029093A802A093A902B093AA02809167
:10460000AB029091AC02A091AD02B091AE020196C6
:10461000A11DB11D8093AB029093AC02A093AD029B
:10462000B093AE02BF91AF919F918F913F912F9127
:104630000F900FBE0F901F90189526E8230F02963B
:10464000A11DB11DD2CF1F920F920FB60F92112450
:104650002F933F934F935F936F937F938F939F938A
:10466000AF93BF93CF93EF93FF93C091E1008091FD
:10467000E100837F8093E100C3FF0FC01092E90047
:1046800081E08093EB001092EC0082E38093ED00D8
:104690001092BC0288E08093F000C2FF1AC00E9412
:1046A0009F0580915F02882341F080915F028150D5
:1046B00080935F02811101C05D988091BB028823C5
:1046C00041F08091BB0281508093BB02811101C0F7
:1046D0002898C4FF23C08091E2008E7E8160809381
:1046E000E2008091E1008F7E8093E1008091600282
:1046F0008E7E806180936002FF91EF91CF91BF9198
:10470000AF919F918F917F916F915F914F913F9169
:104710002F910F900FBE0F901F901895C0FFECCFF8
:104720008091E2008E7E80618093E2008091E100C2
:104730008E7E8093E100809160028E7E8160DACF70
:104740001F920F920FB60F921124CF92DF92EF9229
:10475000FF920F931F932F933F934F935F936F930A
:104760007F938F939F93AF93BF93EF93FF93CF93D9
:10477000DF93CDB7DEB76C97DEBFCDBF1092E900F7
:104780008091E80083FF25C068E0CE0145960E9435
:104790004E0782EF8093E8008D8987FF39C09091A2
:1047A000E80090FFFCCF982F907609F034C19E89E5
:1047B0004F89588D2F89F88C911131C0803861F55F
:1047C000809161028093F1001092F1008EEF80934E
:1047D000E8006C960FB6F894DEBF0FBECDBFDF9138
:1047E000CF91FF91EF91BF91AF919F918F917F9169
:1047F0006F915F914F913F912F911F910F91FF907A
:10480000EF90DF90CF900F900FBE0F901F901895F4
:104810009EEF9093E800C7CF1092F100D5CF913072
:1048200059F48111D3CF4130510581F68091610255
:104830008D7F80936102CACF933049F48111C6CF36
:104840004130510519F6809161028260F2CF9530B6
:1048500041F48091E80080FFFCCF20682093E300C2
:10486000B5CF963009F0A9C00B8D1C8D22E01092B7
:10487000E90010925D0210925C02F2122EC01092BA
:104880005B0210925A020E946F071F8299E099837F
:10489000FA8291E09E8390EA98879AEF9987209117
:1048A0005C0230915D02275F3F4F3C832B838D83F9
:1048B0001092E90010925D0210925C0210935B026C
:1048C00000935A0249E050E0BE016F5F7F4F80E0E5
:1048D0000E9417070E946F0779CF10935B02009325
:1048E0005A020E945B07DC0112960D911C91011582
:1048F000110509F451C1D801ED91FC910480F581B5
:10490000E02DBE016B5E7F4FC8010995009709F04D
:104910003EC1F80100851185EACFF3E0FF120EC019
:104920008F89882309F440C0823061F440E86DE04B
:1049300088E792E00E94F126811148CF81E28093BE
:10494000EB0047CF813029F440E86BE08CE692E041
:10495000F1CF833099F70E945B07DC011296ED904E
:10496000FC908E010F5F1F4F6801E114F10479F094
:10497000D701ED91FC910680F781E02DB801C701C8
:104980000995080F111DF701E084F184EECFD801DD
:104990001C92F60101900020E9F73197BF016C19D4
:1049A0007D0940E0C601C6CF66E572E0FB01449197
:1049B00050E080E80E94170709CF973009F4BECF76
:1049C000983021F481E08093F10000CF993009F014
:1049D000FDCE837009F0B2CFE1E0F1E081E031E09B
:1049E00096E32191222371F08093E9003093EB004C
:1049F000DF0111972C912093EC009093ED008F5FD5
:104A0000873079F78EE78093EA001092EA008F8969
:104A10008093BC02DBCE8B8D9C8D1092E9001092AE
:104A20005D0210925C0290935B0280935A02898D22
:104A3000811192C08E899D89913A49F4813209F0A1
:104A40007DCF47E050E06BE071E080E0B3CF913282
:104A500009F074CF833269F48F89988DB0E0A0E0BB
:104A60008093070190930801A0930901B0930A0174
:104A7000ADCE803269F48091E80082FFFCCF67E020
:104A80008BE091E00E944E078BEF8093E8009ECE72
:104A9000823209F09BCE8F8980931201EEEFFFE7FF
:104AA000859194918B3F9C4D51F1E0E0F8E080912D
:104AB0000B0190910C01A0910D01B0910E01803B72
:104AC0009440A105B105F1F48091120180FD1AC056
:104AD000EE3F8AE0F80789F587E797E791838083BF
:104AE0008091600080935E0288E19BE00FB6F894AD
:104AF000A895809360000FBE9093600067CEEEEFA4
:104B0000FAE0D5CF808191818737974709F05ECE53
:104B1000A8958091600088618093600080915E021A
:104B200080936000EE3F2AE0F20789F08091FE0A50
:104B30009091FF0A9183808349CE8081918187374C
:104B4000980751F29093FF0A8093FE0AC5CF109206
:104B5000FF0A1092FE0A3ACE0E945B07DC01129611
:104B60000D911C910115110509F4E8CED801ED91C4
:104B7000FC910190F081E02DBE016B5E7F4FC8017A
:104B80000995811123CEF80100851185EBCF181608
:104B900019060CF41BCED2CEF1E0FF12BECE6AE5B0
:104BA00072E004CF1F920F920FB60F9211242F9331
:104BB0003F934F935F936F937F938F939F93AF93A5
:104BC000BF93EF93FF938091B900887F803609F4FB
:104BD0004AC0F0F5883209F4A7C018F5803109F40D
:104BE0009BC0B8F4882309F4F9C0883009F494C054
:104BF000FF91EF91BF91AF919F918F917F916F91B5
:104C00005F914F913F912F910F900FBE0F901F908A
:104C10001895883109F488C0803251F780930503D4
:104C200014C0803409F49DC040F48033B9F3883354
:104C3000F9F68093050385ECB0C0803509F485C092
:104C4000883509F496C0883499F60E944515D0CF6E
:104C5000883909F48CC038F5883729F050F4883643
:104C600011F0803729F683E08093070310924D02FC
:104C700057C0883809F47BC0803919F0803809F0B2
:104C8000B7CF80914D02803208F071C0E0914D02A3
:104C900081E08E0F80934D028091BB00F0E0E35DD8
:104CA000FD4F80833DC0803B39F0E0F4803A09F449
:104CB00079C0883A09F09CCF84E080930703109272
:104CC0002C0210922B02E0916402F091650209958A
:104CD00080912B0281110FC081E080932B021092F2
:104CE0000B0209C0803C09F4A6CF883C09F4A3CF8D
:104CF000883B09F07DCFE0912C0281E08E0F8093FC
:104D00002C02F0E0E55FFD4F80818093BB00909125
:104D10002C0280912B0229C0809102038093BB005A
:104D200085EC8093BC0064CF9091040380910303D1
:104D3000981758F5E091040381E08E0F80930403E7
:104D4000F0E0EF51FD4F8081E9CFE091040381E075
:104D50008E0F809304038091BB00F0E0EF51FD4F74
:104D6000808390910403809103039817C8F285E82B
:104D7000D8CFE091040381E08E0F809304038091EB
:104D8000BB00F0E0EF51FD4F80838091060381115D
:104D90005CCF81E08093010384EA8093BC00109291
:104DA000070326CF85EC8093BC0010920703809107
:104DB0004D02803230F4E0914D02F0E0E35DFD4FB2
:104DC000108260914D0270E0E0916202F091630206
:104DD0008DE292E0099510924D020ACF10920503E0
:104DE00034CFEF92FF920F931F93CF93DF93F82E60
:104DF000192FE62E042F81E0860F880F0E94E90606
:104E000083E00E94E906CF2DD12FEC0EFD2EF11C80
:104E1000CE15DF05B9F007FF13C0FE0184910E9493
:104E2000E906182F80E00E94E9068123219681116E
:104E3000EFCFDF91CF911F910F91FF90EF900895E9
:104E40008881EDCF81E0F5CFCF93DF9310923403CB
:104E50001092330388EE93E0A0E0B0E08093350336
:104E600090933603A0933703B093380327E431E0DF
:104E700030933203209331032FEF3FEF30933E0303
:104E800020933D03209381031092830310928203A9
:104E900010928D0310928C034FEF5FEFBA01409395
:104EA00088035093890360938A0370938B03109255
:104EB0009103109290038093920390939303A09395
:104EC0009403B093950389E591E090938F038093C9
:104ED0008E038CE0EAE9F3E0DF011D928A95E9F7A1
:104EE0001092A7031092A6038091AE03811113C004
:104EF0001092A9031092A80388EF96E09093AB0359
:104F00008093AA038BE490E09093AD038093AC036D
:104F100081E08093AE030E94B80BFC01A385B485A9
:104F2000109709F027C188EA93E0948783878585E5
:104F300096852091AC033091AD03820F931F968725
:104F400085871092CA031092C9038BE691E0909373
:104F5000C8038093C7038091BF03811113C01092CF
:104F6000BA031092B90383EC97E09093BC0380934B
:104F7000BB038FE290E09093BE038093BD0381E07A
:104F80008093BF030E94B80BFC01A385B4851097E2
:104F900009F0FBC089EB93E094878387858596852C
:104FA0002091BD033091BE03820F931F96878587A2
:104FB00083E497E09093D4038093D30389E490E053
:104FC0000E949415D82F8AE490E00E949415C82F6F
:104FD00088E490E00E94941510927904109278046D
:104FE00010927B0410927A0410927D0410927C043B
:104FF00010927F0410927E0410928104109280041B
:105000001092820410928404109283042FEF3FEFD9
:1050100030938604209385041092880410928704AC
:1050200010928A04109289042EE834E030938C04A4
:1050300020938B0480938D0487E791E0909377040D
:1050400080937604D0938E04C0938F048FEF809367
:1050500090048093910480E092E1AAE7B0E080930D
:10506000920490939304A0939404B093950485EDD7
:1050700093E09093970480939604C093980488E7F4
:1050800094E090939A048093990410929B04109258
:105090009C0410929E0410929D041092A004109201
:1050A0009F046FE771E080E794E00E94E8148EE2CD
:1050B00090E09093DD038093DC0380ED97E0909384
:1050C000DF038093DE0382E38093580480935904C6
:1050D00010925A0410925B0410925C0410925D04CA
:1050E00010925E041092600410925F048FB7809358
:1050F0006D0483E090E090936F0480936E04E6E388
:10510000F8E024912093690487E198E0FC01349150
:10511000E32FF0E0EE0FFF1FE050F84F4591549160
:105120005093620440936104FC018491E82FF0E005
:10513000EE0FFF1FEE50F84FA591B491B0936404A9
:10514000A0936304EC91E22BEC938EE190E09093BA
:10515000DD038093DC0384E992E09093DF03809386
:10516000DE036FE771E086ED93E0DF91CF910C9461
:10517000E814DC018D919C9111970097D1F788EA92
:1051800093E08D939C93D3CEDC018D919C911197EC
:105190000097D1F789EB93E08D939C93FFCECF934B
:1051A000DF93CDB7DEB76F970FB6F894DEBF0FBEB3
:1051B000CDBF789484B5826084BD84B5816084BDA0
:1051C00085B5826085BD85B5816085BD80916E00A5
:1051D000816080936E0010928100809181008260D6
:1051E0008093810080918100816080938100809113
:1051F0008000816080938000809191008260809324
:105200009100809191008160809391008091900045
:105210008160809390008091C10084608093C10080
:105220008091C10082608093C1008091C100816043
:105230008093C1008091C30081608093C3008091FE
:10524000C00082608093C0008091C2008160809322
:10525000C20080917A00846080937A0080917A0005
:10526000826080937A0080917A00816080937A00D6
:1052700080917A00806880937A001092BC0210922C
:105280006102109260028091D70081608093D70004
:1052900080EA8093D80089B5806189BD89B5826034
:1052A00089BD09B400FEFDCF61E070E080E090E0D0
:1052B0000E9464178091D8008F7C80618093D80011
:1052C0008091E000807F8093E0008091E1008E7EFD
:1052D0008093E1008DE08093E200559A209A5D98DA
:1052E00028988FEF9FEF90933E0380933D0360EDEE
:1052F00077E080E090E00E9464178EEE93E00E94D9
:10530000941590911401891308C08FEE93E00E94C8
:10531000941590911301891761F064E171E08EEEAC
:1053200093E00E947D1563E171E08FEE93E00E94AF
:105330007D1582E590E00E949415182F8EEE93E083
:105340000E94941518130BC083E590E00E949415F9
:10535000182F8FEE93E00E949415181761F064E106
:1053600071E082E590E00E947D1563E171E083E5E4
:1053700090E00E947D1510920E0310920D03109282
:10538000BE021092E0020E94700886EE96E09093B2
:1053900065028093640287EE96E0909363028093A7
:1053A000620283E497E09093D4038093D30380E078
:1053B0000E94A1198091B302813009F0C8C086E72C
:1053C00094E00E947D1B0E94C910E6E8F3E0E4919E
:1053D000E0939A03E7E8F3E0249120939B03E8E845
:1053E000F3E0849180939C03E9E8F3E0E491E09397
:1053F0009D034AE853E05093A3034093A2034DE872
:105400005AE05093A7034093A60390E00796A3E0C9
:1054100095958795AA95E1F780939F03289FE02DA6
:105420001124E093A0031092A1031092A5031092FF
:10543000A4038AE993E090938A04809389040091FD
:105440008B0410918C04D8011D968C911D9780FDC2
:105450001CC01B96ED91FC911C978081918122814B
:10546000338131832083938382831F968D919C9116
:10547000509751962D913C91529750963C932E9374
:105480001F9752969C938E93519783E0F8018587DE
:10549000C8010E94F90F60E0D8011A968C910E9411
:1054A000370A88E20E945C0A86E30E945C0A61E097
:1054B000F80182850E94370AD8011D96EC9180EA96
:1054C000E33020F4F0E0E05DFE4F8081F801968546
:1054D000892B0E945C0A60E0D8011A968C910E9488
:1054E000370A89E20E945C0AC8010E94400A8EE4E1
:1054F00090E00E949415809395028FE490E00E94C2
:1055000094158093960280E590E00E949415809314
:10551000930281E590E00E94941580939402FE012D
:1055200031966F01CE0107967C018E01035F1F4FFC
:105530009E012D5E3F4FAE01475E5F4FBE01625E32
:105540007F4F48960E94390F8D85809397028091F6
:10555000B6028F3F09F44FC08DE490E00E9494158D
:10556000D82E8CE490E00E949415E82E8BE490E015
:105570000E949415F82E81E190E00E949E348C01E7
:10558000DC0112961C921E92119714961C921E9288
:10559000139782E315968C9315978FE116968C934B
:1055A000169785E217968C9317978CE018968C9334
:1055B000189719961C9219971A961C921A978EE1B1
:1055C0001B968C931B971D961C921E921C9720E095
:1055D00040E060E0C8010E942C1310936702009322
:1055E00066022D2D4E2D6F2DC8010E942C1381E0D7
:1055F000F80183878583E091B802F0E0EA57FD4F18
:10560000E491E093580480EF93E00E949415182FE2
:10561000809376028CEE93E00E949415809375023D
:10562000112309F490C0E12EF12CC7010E94AE13A2
:1056300080937302909374025C01D12CC12CC1162B
:1056400050F4C6010E949415D5018D935D01BFEF02
:10565000CB1ADB0AF4CF82E390E00E94941580938A
:10566000720284E490E00E949415082F80937102E6
:1056700085E490E00E949415D82E8093700286E411
:1056800090E00E949415C82E80936F0287E490E00A
:105690000E949415B82E80936E0261E0802F0E94C4
:1056A000770661E08B2D0E94770661E08D2D0E94C8
:1056B000770660E08C2D0E94770660E08D2D0E94B9
:1056C000490661E0802F0E944906E9E01E9FC00163
:1056D00011240E94AE13DC01FC0152E34FE135E2DC
:1056E0002CE0128211821482138255834683378301
:1056F0002087399661E0E61AF10899F780936C02E9
:1057000090936D0280E04CE031E025E19EE1169639
:105710004C93169718963C93189717962C931797B7
:1057200015969C9315978F5F19961813F0CFCE019D
:1057300001960E949615CE0101960E945713CE0144
:1057400001960E94A613D0907502DD2009F457C07F
:10575000AD2CB12CC5010E94AE13C82E80936A02F5
:1057600090936B02E82EF92E082F192FF3E38F2E5A
:10577000912C782E802F8C198D1550F4C4010E9425
:105780009415D8018D938D01BFEF8B1A9B0AF2CF30
:10579000E9E0DE9EC00111240E94AE138C01FC01E1
:1057A00052E34FE135E22CE012821182148213821F
:1057B0005583468337832087399661E0A61AB1085E
:1057C00099F780936802909369026CE0962EAA2460
:1057D000A39475E1B72EEEE1CE2E8E2D87198D158F
:1057E00070F462E0D7018D917D010E947706F80187
:1057F0009682A086B782C582075F1F4FEECF81E0F9
:105800008093BA024E01FEE18F0E911C42E0242EDD
:1058100055E6B52E8091B402882321F08091B9021B
:105820000E9420160E94A51E0E94D8060091A20286
:105830001091A3022091A4023091A502601B710B6C
:10584000820B930B603177428105910530F0809196
:10585000A102813011F42092A1020E94D806009189
:105860009D0210919E0220919F023091A002601B28
:10587000710B820B930B643F71408105910508F415
:105880006EC080919C02813009F069C010929C0228
:1058900085E0EFE1F1E0DE01599601900D928A95E5
:1058A000E1F786EF93E00E949415E82EF090B8029D
:1058B0008E01075E1F4FF80181918F0190E0BC01BE
:1058C00061557D4F83519C4F0E947D158016910636
:1058D00091F7EF1409F443C06091B702CE0101962D
:1058E0000E94A4146091B802CE0107960E94A414ED
:1058F0006091B902CE010D960E94A41460E871E097
:10590000CE0143960E94E814BE01635F7F4FCE0133
:1059100043960E94661460E871E00E945014BE0134
:10592000695F7F4F0E94661460E871E00E94501426
:10593000BE016F5F7F4F0E9466140E945718CE0110
:1059400043960E94A613CE010D960E94A613CE0187
:1059500007960E94A613CE0101960E94A61381E32A
:1059600093E00E942F08892B09F444C06FE771E08F
:10597000CE010D960E94E8140E94D90797FD0FC032
:105980008A30910561F089831A8241E050E0BE01BE
:105990006F5F7F4FCE010D960E94F313EDCF898983
:1059A0009A89892B09F4FDC0ED85FE85309709F4AD
:1059B000F8C010816FE771E0CE0107960E94E814ED
:1059C0000E94D8061C3309F456C30CF04FC11A329A
:1059D00009F454C30CF0E7C0113209F48AC213323F
:1059E00009F433C2CE0107960E94A613CE010D968C
:1059F0000E94A6130E94D806009198021091990265
:105A000020919A0230919B02601B710B820B930BC9
:105A1000683E73408105910508F4BBC00E94D8061A
:105A2000609398027093990280939A0290939B02DC
:105A30008091B302813009F0ACC0FE0131966F0154
:105A4000CE0107967C018E01035F1F4F9E012D5EE4
:105A50003F4FAE01475E5F4FB40148960E94390F39
:105A6000909197028D85981729F00E94C9108D8515
:105A700080939702AFEFBFEFB0938604A0938504A5
:105A80003F8D4E8D898D1AE0612F0E946434805DB8
:105A900080938502905D909386022AE3209387028B
:105AA000842F0E946434805D80938802905D90937F
:105AB000890220938A02832F0E946434805D809340
:105AC0008B02905D90938C0210928D0260919602F1
:105AD00070E08091950245E852E090E00E9401114B
