:100000000C942A040C9452040C9452040C94520440
:100010000C9452040C9452040C9452040C94520408
:100020000C9452040C9452040C94141E0C94911EC3
:100030000C9452040C9452040C9452040C945204E8
:100040000C9452040C9452040C9452040C945204D8
:100050000C9452040C9452040C9452040C94CA1D37
:100060000C9452040C9452040C9452040C945204B8
:100070000C9452040C9452040C9452040C945204A8
:100080000C9452040C9452040C9452040C94520498
:100090000C94C3200C9452040C9452040C945204FB
:1000A0000C9452040C9452040C945204000000006E
:1000B0000000000001010101010101010202020230
:1000C00002020203030303030404040505050505F6
:1000D000060606060707070808080808090A0A0AA4
:1000E0000A0B0B0C0C0C0C0D0D0D0E0E0F0F0F1040
:1000F00011111111121213141414141516161717C6
:10010000171819191A1A1B1B1C1C1D1E1E1F1F2035
:1001100021212223232425252626272829292A2B85
:100120002C2D2D2E2F2F30313233343536363738B3
:1001300038393A3B3C3D3E3F4041424344454546C9
:1001400047494A4B4C4D4E4F5051525455565759B2
:100150005A5B5D5E5F60616264656667696A6C6D6B
:100160006E6F7173757677797A7B7C7F80828385F9
:100170008688898B8C8F9192939497999A9C9E9F55
:10018000A2A3A5A7A9ABADAEB0B3B4B6B9BABCBE75
:10019000C0C2C4C7C9CACDCFD1D3D6D8DADCDFE15B
:1001A000E2E6E7EBECF0F1F5F6FAFBFF01FF961162
:1001B000FFFFB103012C2DB203012C2DB306012C3E
:1001C0002D012C2DB40107B6021502C003A2028432
:1001D000C101C5C2020A00C3028A2AC4028AEEC54E
:1001E000010E20003601003A0105E0100F1A0F1829
:1001F0002F2820221F1B233700070210E1100F1B9E
:100200000F17332C292E3030393F0007031029FFF8
:100210006413FF0A080B0002020200000904000038
:10022000010202000005240010010524010101045F
:100230002402060524060001070581031000400979
:10024000040100020A000000070502024000000746
:100250000583024000000403090412010002EF02BA
:10026000014041233680000101020301417264759F
:10027000696E6F204C4C430041726475696E6F204B
:100280004C656F6E6172646F00000608200000000C
:100290000000000000002F00000000070007000021
:1002A000147F147F1400242A7F2A12002313086469
:1002B0006200364955225000000503000000001C72
:1002C000224100000041221C000014083E081400D6
:1002D00008083E0808000000A060000008080808A0
:1002E00008000060600000002010080402003E5179
:1002F00049453E0000427F400000426151494600AE
:100300002141454B31001814127F10002745454507
:1003100039003C4A4949300001710905030036495A
:1003200049493600064949291E00003636000000BA
:100330000056360000000814224100001414141462
:10034000140000412214080002015109060032493C
:1003500059513E007C1211127C007F4949493600F8
:100360003E41414122007F4141221C007F494949D1
:1003700041007F09090901003E4149497A007F088F
:1003800008087F0000417F4100002040413F0100FC
:100390007F08142241007F40404040007F020C0251
:1003A0007F007F0408107F003E4141413E007F09ED
:1003B000090906003E4151215E007F0919294600C6
:1003C00046494949310001017F0101003F40404059
:1003D0003F001F2040201F003F4038403F00631473
:1003E000081463000708700807006151494543007D
:1003F000007F41410000552A552A55000041417FA8
:10040000000004020102040040404040400000019E
:10041000020400002054545478007F4844443800BB
:10042000384444442000384444487F0038545454ED
:100430001800087E0901020018A4A4A47C007F080B
:100440000404780000447D4000004080847D00006A
:100450007F102844000000417F4000007C04180405
:1004600078007C0804047800384444443800FC24B4
:100470002424180018242418FC007C080404080014
:10048000485454542000043F444020003C40402045
:100490007C001C2040201C003C4030403C00442894
:1004A000102844001CA0A0A07C004464544C4400CC
:1004B00000087700000000007F00000000770800BF
:1004C0000000100810080014141414141400008004
:1004D000808080E0E07E7E6060606060607F7F6042
:1004E00060606060607E7EE0E0808080800080816F
:1004F000818181FFFF000000FCFCFCFCFCFCFCFC9B
:10050000FCFCFCFC000000FFFF81818181800181F7
:10051000818181FFFF0000003F3F3F3F3F3F3F3F62
:100520003F3F3F3F000000FFFF81818181010001CB
:1005300001010107077E7E060606060606FEFE0688
:1005400006060606067E7E0707010101010018184F
:1005500018F8F8C0C0C0C0C040C0C0C0C0C0C0C053
:10056000C0C0C0404040C0C0C0C0C0C0C0C0008FFC
:100570008FFFFFFFFFFFF1E0CEE0F1FF3F8FE7E3EA
:10058000C1C0C63EBF3EC6C0C1E3E78F3FFF809CEF
:100590009CFFFFFFFFFFE3C19CC1E3FFFEF8F3E315
:1005A000C181B13E7E3EB181C1E3F3F8FEFF0000A0
:1005B000001F1F000000000000001F071F071F078B
:1005C0001F071F071F071F071F070000000000006D
:1005D000000000000000010101010101010102020F
:1005E00002020202020303030303040404050505D7
:1005F0000505060606060707070808080808090A89
:100600000A0A0A0B0B0C0C0C0C0D0D0D0E0E0F0F25
:100610000F101111111112121314141414151616AF
:100620001717171819191A1A1B1B1C1C1D1E1E1F21
:100630001F20212122232324252526262728292976
:100640002A2B2C2D2D2E2F2F3031323334353636A8
:10065000373838393A3B3C3D3E3F404142434445C0
:10066000454647494A4B4C4D4E4F505152545556B2
:1006700057595A5B5D5E5F60616264656667696A6F
:100680006C6D6E6F7173757677797A7B7C7F808203
:1006900083858688898B8C8F9192939497999A9C65
:1006A0009E9FA2A3A5A7A9ABADAEB0B3B4B6B9BA8D
:1006B000BCBEC0C2C4C7C9CACDCFD1D3D6D8DADC7C
:1006C000DFE1E2E6E7EBECF0F1F5F6FAFBFF000024
:1006D00000002300260029002C002F00000000024B
:1006E00000090F0000030401000C000000000000DE
:1006F0000000000000000000000000050C0901A13E
:1007000001850115002501750195180A23020A8A41
:10071000011A24022A27020A21020A2A0209CD0903
:10072000B709B609B509E909EA09E20A83010A012C
:10073000020A02020A07020A1A020A79021A1B02B4
:100740002A1D028102C000000000000000002A2BC8
:100750002800000000000000000000000000000071
:100760000000000000002C9EB4A0A1A2A434A6A703
:10077000A5AE362D3738271E1F20212223242526FB
:10078000B333B62EB7B89F8485868788898A8B8CC9
:100790008D8E8F909192939495969798999A9B9C11
:1007A0009D2F3130A3AD350405060708090A0B0C4F
:1007B0000D0E0F101112131415161718191A1B1CF1
:1007C0001DAFB1B0B50005010906A10185020507FD
:1007D00019E029E7150025017501950881029501A9
:1007E000750881039506750815002573050719001E
:1007F00029738100C000000000240027002A002D7A
:1008000000300000000000250028002B002E0031E1
:1008100000040404040403040502020202040302A7
:100820000202020606060606060404020202040488
:1008300004080201104080401020408040800802DF
:100840000401804020100201108010204040200050
:100850001522A02E11241FBECFEFDAE0DEBFCDBFE0
:1008600011E0A0E0B1E0EEE2F9E602C005900D92E1
:10087000A03EB107D9F724E0A0EEB1E001C01D927F
:10088000A738B207E1F714E0C9E2D4E004C0219729
:10089000FE010E945632C832D107C9F70E94BB231D
:1008A0000C948A340C940000CF93DF93EC018734CE
:1008B000910514F19C01990F440B550B26543109F5
:1008C00041095109A1E0BFEF0E9428312FE030E03B
:1008D00040E050E00E94FB309FEF920F2FEF30E09E
:1008E000C535D1050CF090E040E0592FCA01822BAC
:1008F000932BDF91CF9108952FEF30E0863491054F
:10090000B9F030E020E08833910594F09C01990F14
:10091000440B550B2753310941095109AFEFB0E0A2
:100920000E941A312FE030E040E050E00E94FB309E
:100930009FEFDACF4F925F926F927F928F929F924A
:10094000AF92BF92CF92DF92EF92FF920F931F93DD
:10095000CF93DF9300D01F92CDB7DEB780914B04C9
:10096000E0914304F09144049081982B90934D04BE
:1009700090818095892380934E0480913A048093DE
:100980003B048091500490915104039721F48FB758
:1009900080934F04F8940091410410914204011592
:1009A000110509F492C0D0903A04EEEBF3E066E34F
:1009B00074E020E030E0A901ED2CF12CC701019694
:1009C000C480C89ED001C99EB00D1124AB2FBB2797
:1009D0002A0F3B1F411D511DC580C89ED001C99ED5
:1009E000B00D1124AB2FBB272A0F3B1F411D511DFA
:1009F000C680C89ED001C99EB00D1124AB2FBB2765
:100A00002A0F3B1F411D511D33966E177F07C1F6FC
:100A1000232F342F452F552747FD5A95A091BE030C
:100A2000B091BF030E94253123E030E040E050E068
:100A30000E94FB3049015A018091C0039091C1038B
:100A400081149104A104B104F1F169E170E00E9404
:100A50004232CB01072E000CAA0BBB0B880D991D4F
:100A6000AA1DBB1D2801012E000C660877088415FD
:100A70009505A605B7053CF1C801861B970BBC017F
:100A8000072E000C880B990B0E94EC2F2B013C01C8
:100A9000B701FF0C880B990B0E94EC2F9B01AC0156
:100AA000C301B2010E9427306B017C01C501B40172
:100AB0000E94EC2F9B01AC01C701B6010E94953149
:100AC0000E940732D62ED0923B04EEEBF3E006E311
:100AD00014E07E0194E0E90EF11C5581468180917D
:100AE0003B0490E001966481689F9001699F300DFE
:100AF00011243A83589F9001599F300D1124398356
:100B0000489F9001499F300D11243B8380915004F0
:100B100090915104029721F48FB780934F04F89479
:100B2000BE016F5F7F4FDB018D91BD0120915004AD
:100B3000309151042130310521F49FB790934F0437
:100B4000F89490914D0420914E04A0914304B091EB
:100B5000440438E09C9387FF2C93880F43E04A9528
:100B6000F1F700002C933A95A9F7809150049091E9
:100B700051048130910519F420914F042FBFE616DE
:100B8000F70609F0D0CF8230910519F420914F0477
:100B90002FBF33960E171F0709F09FCF039719F445
:100BA00080914F048FBF0F900F900F90DF91CF91E6
:100BB0001F910F91FF90EF90DF90CF90BF90AF907B
:100BC0009F908F907F906F905F904F90089583E0FB
:100BD0008093E9008091F200882319F08AE38093E2
:100BE000E8000895FC0180919802882311F13FB735
:100BF000F89482E08093E9002091F200822F90E047
:100C00001816190614F481E090E0882339F028982A
:100C100044E6409397024091F1004083222339F04B
:100C20002091F200211103C02BE62093E8003FBF82
:100C300008958FEF9FEF089581508F3008F047C0DF
:100C4000E82FF0E0EA5DF94F0C9456324306470670
:100C500035063B063F066706670667064A065006E6
:100C6000540658065E0667066206809180008F77FC
:100C7000809380000895809180008F7DF9CF8091CE
:100C80008000877FF5CF84B58F7784BD089584B5C4
:100C90008F7DFBCF809190008F7780939000089597
:100CA000809190008F7DF9CF80919000877FF5CF64
:100CB0008091C0008F778093C00008958091C0001C
:100CC0008F7DF9CF8091C200877F8093C200089505
:100CD000CF93DF93282F30E0F901E452F94F84914C
:100CE000F901E05DF74FD491F901EF5EF74FC49140
:100CF000CC23A1F081110E941C06EC2FF0E0EE0F36
:100D0000FF1FE253F94FA591B491EC91ED2381E0DF
:100D100090E009F480E0DF91CF91089580E090E0C9
:100D2000FACF1F93CF93DF93282F30E0F901E452DD
:100D3000F94F8491F901E05DF74FD491F901EF5E2D
:100D4000F74FC491CC23A9F0162F81110E941C06E5
:100D5000EC2FF0E0EE0FFF1FED5FF74FA591B49180
:100D60008FB7F894EC91111108C0D095DE23DC9375
:100D70008FBFDF91CF911F910895DE2BF8CFCF93D6
:100D8000DF9390E0FC01E05DF74F24918F5E974F79
:100D9000FC0184918823C9F090E0880F991FFC0121
:100DA000EB50F84FA591B491FC01ED5FF74FC59161
:100DB000D49161110DC09FB7F8948C912095822336
:100DC0008C938881282328839FBFDF91CF9108953A
:100DD000623051F49FB7F8943C91822F8095832321
:100DE0008C93E8812E2BEFCF8FB7F894EC912E2BBC
:100DF0002C938FBFEACF0F931F93CF93DF93EC0118
:100E0000862F6E874F87288B60E00E94BF0660E0C8
:100E10008F850E94BF0662E088890E94BF068F818D
:100E20009885906198878F838E850E9468068C01D3
:100E30008F850E94680621E030E0892B11F430E0B4
:100E400020E0220F331F81E0012B09F480E0822B88
:100E50008F709A85907F892B8A87DF91CF911F9120
:100E60000F9108953FB7F894809193029091940266
:100E7000A0919502B091960226B5A89B05C02F3F80
:100E800019F00196A11DB11D3FBFBA2FA92F982FB0
:100E90008827BC01CD01620F711D811D911D42E0AB
:100EA000660F771F881F991F4A95D1F708958F9273
:100EB0009F92AF92BF92CF92DF92EF92FF926B011F
:100EC0007C010E9432074B015C01C114D104E10492
:100ED000F104B9F00E943207681979098A099B095F
:100EE000683E73408105910580F321E0C21AD10864
:100EF000E108F10888EE880E83E0981EA11CB11C61
:100F0000E4CFFF90EF90DF90CF90BF90AF909F9095
:100F10008F9008952FB7F89460918F02709190028E
:100F200080919102909192022FBF08950C94E70551
:100F300008950895089540915302509154022091CC
:100F400051023091520242175307B4F49091E800D5
:100F50009570E1F39091E80092FD19C08093F10043
:100F6000809153029091540201968F739927892B97
:100F700019F48EEF8093E80080915302909154020F
:100F80000196909354028093530281E0089580E08B
:100F90000895DF92EF92FF920F931F93CF93DF9309
:100FA000D82E8A01EB017B01E40EF51ECE15DF057C
:100FB00059F0D7FE12C0FE0184910E949B07219632
:100FC0008111F4CF0FEF1FEFC801DF91CF911F9177
:100FD0000F91FF90EF90DF9008958881EECF2FB7AB
:100FE000F89487708093E9009091E800892F8072CF
:100FF00095FF04C09091F20080E4891B2FBF0895F3
:101000007F928F929F92AF92BF92CF92DF92EF9298
:10101000FF920F931F93CF93DF93C82E8B017A011A
:1010200080919802811110C08FEF9FEFDF91CF91D7
:101030001F910F91FF90EF90DF90CF90BF90AF90F6
:101040009F908F907F9008958091570280FF05C0F8
:101050008091E00082608093E000CE2DDF2DD12CC6
:101060008AEFB82E8C2D8770982E8C2D8072882E4A
:101070008C2D8074782E9AE3A92E209719F4DD2008
:1010800009F452C08C2D0E94EF0781110AC0BA9456
:10109000BB2051F261E070E080E090E00E945707D1
:1010A000ECCF8C171D0611F00CF08C2F9FB7F89425
:1010B0009092E9002091E80025FD02C09FBFDDCF9E
:1010C000282F30E0C21BD30B882029F08150A0F0DC
:1010D0001092F100FBCFF801C7FC0AC0815050F01C
:1010E00041914093F100FACF44914093F100319641
:1010F0008150D0F7020F131FDD2021F0A092E800ED
:10110000D12CDCCF8091E80085FD07C0A092E800DB
:10111000DD24D394209791F2F3CF209779F67720AE
:1011200069F2A092E800CACF5D9884E680935602E7
:10113000C7017CCF615030F02091F100FC01208389
:101140000196F8CF289884E68093970208958091BD
:10115000490281110DC082E08093450284E08093B2
:101160004602109248021092470281E080934902A1
:1011700085E492E008950F931F93CF93DF931F921E
:10118000CDB7DEB782E0898342E450E064E172E0EB
:1011900080E80E94C9070E94A708DC0112960D9101
:1011A0001C910115110589F0D801ED91FC91028087
:1011B000F381E02DBE016F5F7F4FC801099597FD58
:1011C00004C0F80100851185ECCF89810F90DF9173
:1011D000CF911F910F910895CF93DF93EC018091F0
:1011E0001201882331F083E00E94000818161906C6
:1011F00034F081E090E09B838A8380E090E0DF918F
:10120000CF910895CF93DF93FC0144815581608194
:10121000718189E193E00E94EC08EC0142E050E02A
:101220006AE771E089E193E00E94EC088C0F9D1F52
:10123000DF91CF910895CF93DF931F92CDB7DEB7A3
:101240006983DC01ED91FC910280F381E02D41E0A6
:1012500050E0BE016F5F7F4F09950F90DF91CF91F6
:10126000089583E00E94EF0790E00895CF93DF9305
:101270001F92CDB7DEB7FC018485958597FD08C028
:101280002FEF3FEF358724870F90DF91CF9108959F
:10129000CE0101960E94F205019719F4898190E030
:1012A000F3CF8FEF9FEFF0CF0F931F930E948A072A
:1012B000609321037093220380932303909324036C
:1012C00089E193E00E94360997FF1DC00E948A07BA
:1012D00000912103109122032091230330912403D4
:1012E000601B710B820B930B00911D0310911E0369
:1012F00020911F0330912003601771078207930725
:10130000F8F28FEF9FEF1F910F9108950F931F93A6
:10131000CF93DF931F92CDB7DEB78C01FC0184859C
:10132000958597FF0BC0CE0101960E94F2050197AB
:1013300071F4898190E0F80195878487F8018485AC
:1013400095850F90DF91CF911F910F9108958FEFA9
:101350009FEFF1CFFC018485958597FD0BC09FB76A
:10136000F89482E08093E9008091F2009FBF90E0C2
:10137000019608959FB7F89482E08093E9008091E8
:10138000F2009FBF90E0089520912202260F33279C
:10139000331F21323105ECF42091E302FC0190E08F
:1013A00080E0243069F082E00895A091220221912A
:1013B000AC014E5F5D4FA40FB52FB11D2C9301966C
:1013C000861798F380912202680F6093220280E0D2
:1013D000089581E008951092E30281E08093E20293
:1013E0001092DD0261E082E00E94910661E083E0FC
:1013F0000E949106E9EBF0E080818E7F80838081FE
:101400008D7F808388E48093B80085E48093BC005E
:101410000895CF93DF9391E0909301028823B9F070
:10142000C091B800D091BA008091BC008A7B8093B3
:10143000BC0060E082E00E94910660E083E00E94D0
:1014400091060E94EB09D093BA00C093B800DF91D7
:10145000CF910895CF92DF92EF92FF920F931F9357
:10146000CF93DF93D091BC0281E0D13208F09CC0D1
:10147000C091BB020E9432076B017C018091E302A4
:1014800081116CC082E08093E30281E08093E202EC
:101490008FEF8093E1021092E002D093DF02ABE97C
:1014A000B2E0EDEBF2E080E0D8138DC01092DE02E6
:1014B0008091DE02CC0FC82BC093DE028091DD024A
:1014C000813009F084C01092DD020E9432076B0166
:1014D0007C018091DE028093BB008091E5029091B7
:1014E000E602A091E702B091E802892B8A2B8B2BB0
:1014F000A1F00E9432070091E5021091E6022091CE
:10150000E7023091E8026C197D098E099F090617E0
:1015100017072807390708F442C08091BC0083FDF3
:10152000D8CF85EC8093BC000E9432076B017C0110
:101530008091E302823009F44CC08091E1028F3F38
:1015400009F469C08091E102803209F466C080919B
:10155000E102803309F463C084E026C08091E50293
:101560009091E602A091E702B091E802892B8A2BC4
:101570008B2B09F483CF0E9432070091E502109172
:10158000E6022091E7023091E8026C197D098E098C
:101590009F09061717072807390708F06FCF8091B2
:1015A000E4020E94090A85E010929A021092BC029D
:1015B00010929902DF91CF911F910F91FF90EF90C0
:1015C000DF90CF9008959D9191938F5F6DCF85EEC1
:1015D000A9CF8091E5029091E602A091E702B09137
:1015E000E802892B8A2B8B2B09F4A2CF0E943207A9
:1015F0000091E5021091E6022091E7023091E802A5
:101600006C197D098E099F090617170728073907E6
:1016100008F08ECFC4CF80E0C7CF82E0C5CF83E093
:10162000C3CF0895E091EA028091E902E81730F40F
:10163000F0E0E551FD4F808190E008958FEF9FEF3E
:1016400008959091EA028091E9022FEF3FEF9817F9
:1016500048F4E92FF0E0E551FD4F208130E09F5F35
:101660009093EA02C90108958091E9029091EA02FB
:10167000891B990B0895CF92DF92EF92FF920F93FF
:101680001F93CF93DF937C01CB018A0120919902B4
:10169000222389F0EB016B01C40ED51ECC15DD05AC
:1016A00069F06991D701ED91FC910190F081E02DF5
:1016B000C7010995F3CF642F0E94C409C801DF91C7
:1016C000CF911F910F91FF90EF90DF90CF900895F1
:1016D000CF93DF931F92CDB7DEB769832091990234
:1016E0002223F9F02091BC02203258F021E030E0B2
:1016F000FC013383228390E080E00F90DF91CF9153
:10170000089580919A02E82FF0E0E556FD4F998107
:1017100090838F5F80939A028093BC0281E090E077
:10172000ECCF61E0CE0101960E94C409F7CF682F8B
:1017300086E793E00C94680B9FB7F89480910002C1
:10174000882319F08150809300028091000281115A
:1017500005C08CB58F7B8CBD1092FF019FBF089593
:101760000C94910687FD06C070E0082E000C990BC2
:101770000C94B00B0895FC01808187FD07C061E0E7
:1017800070E0082E000C990B0E94B00B8091FF01B5
:10179000882361F09FB7F8942091FF018091FE01AA
:1017A000213019F48DBB9FBF08958FBF08958EBD62
:1017B00000000DB407FEFDCF8EB50895FB01249106
:1017C0003196E491322F2E2FFB013296E491E111F4
:1017D00003C090E080E008956D5F7F4FDC01FC91D5
:1017E0004217530730F0D901AE0FB11D4A175B07FE
:1017F00028F0EF9F600D711D1124E0CF421B530BA9
:10180000F49FC001F59F900D1124860F971F089536
:10181000EF92FF920F931F93CF93DF9341155105E2
:1018200009F44BC08A017B01EC018981FA018083B4
:101830008A8181838F81828368857985F0E8EF16BC
:10184000F10490F4888181110FC06115710579F060
:101850008B81E81AF1082E812E9DC0012F9D900DDD
:101860001124860F971F26C061157105E1F46A8562
:101870007B856115710541F54B8188859985242FFC
:10188000042E000C330B241B31094E81429FB00102
:10189000439F700D112428812130F1F030E020E0C9
:1018A000620F731FDECFA701CE0106960E94DE0BEA
:1018B0000097E9F2F80194838383DF91CF911F9120
:1018C0000F91FF90EF900895A701CE0106960E9418
:1018D000DE0B009779F7D0CF23E030E0E1CFDC01D9
:1018E000FB0112962C911297848195812817190675
:1018F00041F491818081813A31F49D7F81E0913082
:1019000009F080E008958132E1F79B3029F482816B
:101910001F968C9381E008959A3099F782815096B2
:101920008C93F8CFAF92BF92CF92DF92EF92FF925B
:101930000F931F93CF93DF931F92CDB7DEB77C0138
:1019400069836A01590141E050E0BE016F5F7F4F3A
:10195000FC0183810E9400088C0197FD0BC0F701F8
:101960008381A501B60180640E940008080F191F39
:1019700097FD8C01C8010F90DF91CF911F910F91BE
:10198000FF90EF90DF90CF90BF90AF900895DC0173
:10199000FB0188E4808389E4818384E482831D964B
:1019A0009C911D979F709F5B93831D968D919C9139
:1019B00024E0969587952A95E1F78F708F5B848355
:1019C00085E00895EF92FF920F931F93CF93DF93DB
:1019D000FB012081213871F52381223259F5DC0188
:1019E00012964C91248135814217130619F5EC01AA
:1019F0000B851C85F12CE12C0115110589F0F801EE
:101A0000448155816281738180E80E94C9078F3FBC
:101A1000980749F0E80EF91ED8010D911C91ECCF02
:101A200081E08F87C701DF91CF911F910F91FF90C8
:101A3000EF90089590E080E0F6CFCF93DF93CDB79D
:101A4000DEB769970FB6F894DEBF0FBECDBFFC01BD
:101A5000DB018C918F5F8C939E012D5F3F4F8DE05A
:101A6000D9011D928A95E9F729E0298384E08A83C8
:101A700091E09D8383E08E832A8721E22B879C87D8
:101A80009D879F8722E2288B27E02B8B25E02C8BDC
:101A90008E8B20E430E0388F2F8B998F82818B835F
:101AA00095858685998B8A8B838180688D8B49E1AA
:101AB00050E0BE016F5F7F4F80E00E94C9076996CA
:101AC0000FB6F894DEBF0FBECDBFDF91CF91089562
:101AD000CF93DF938091F601811167C081E08093FD
:101AE000E9018093EA012FEE31E03093EC0120937D
:101AF000EB011092EE011092ED0127E231E03093FC
:101B0000E6012093E5011092F1011092F00110928C
:101B1000F3011092F2018093F4018093F50181ECBE
:101B20008093EF010E94A708FC0181819091E90157
:101B3000482F490F5527551F483051059CF5A28164
:101B4000B381109709F525EE31E03383228320819C
:101B50002093E7018093E8018091EA01820F80835E
:101B60002091EB01A22FB091EC018A2F821B8917E3
:101B7000C8F481813D91C82FD0E0C050DF4F388339
:101B80008F5F8183F2CFD90118962D913C911997DF
:101B900021153105C1F725EE31E019963C932E93BE
:101BA0001897D5CF81E08093F60185EE91E0DF9123
:101BB000CF910895CF93DF93EC010E94680D28E048
:101BC00030E0AE0162E0DF91CF910C94920CEFEA2D
:101BD000F3E016821782108611861286138614820D
:101BE00083EB93E00C94DA0D90919F03981380930C
:101BF0009F030E94680D23E030E04EE953E061E06E
:101C00000E94920C81E090E00895EEE9F3E01082EA
:101C1000118212820E94680D23E030E04EE953E009
:101C200061E00C94920CCF92DF92EF92FF920F93AF
:101C30001F93CF93DF936C01EB017B01E40EF51E44
:101C400010E000E0CE15DF0581F069916D30D1F331
:101C5000D601ED91FC910190F081E02DC60109952E
:101C6000892B19F00F5F1F4FEDCFC801DF91CF9186
:101C70001F910F91FF90EF90DF90CF900895DC01BE
:101C80006838A0F06858FD0186E0662321F096814F
:101C9000961301C01682815031968111F6CFCD0185
:101CA00004960E94DA0D81E090E00895862F90E07E
:101CB00067FF13C0FC01E058F10981E090E001C02A
:101CC000880FEA95EAF7809514969C9114978923DA
:101CD00014968C93149760E0D6CF1C96ED91FC91EE
:101CE0001D97E80FF91F64916623E1F0862F807C31
:101CF000803C69F414968C9114978F7B14968C9386
:101D000014976F73623309F0BECF64E6BCCF67FFF0
:101D1000F9CF14968C9114978D7F14968C93149709
:101D20006F77F0CF90E080E00895DC01683888F1AB
:101D3000685816968C911697861721F117968C91F4
:101D400017978617F9F018968C9118978617D1F087
:101D500019968C9119978617A9F01A968C911A9753
:101D6000861781F01B968C911B97861759F0FD0101
:101D7000369690E080E0219121114FC08A0F9B1F81
:101D8000FC016683CD0104960E94DA0D81E090E0AB
:101D90000895862F90E067FF12C0FC01E058F1091A
:101DA00021E030E001C0220FEA95EAF714968C9109
:101DB0001497822B14968C93149760E0BACF1C96DC
:101DC000ED91FC911D97E80FF91F6491611109C015
:101DD00081E090E013969C938E93129790E080E0C0
:101DE0000895862F807C803C69F414968C9114971A
:101DF000806414968C9314976F73623309F099CFB3
:101E000064E697CF67FFF9CF14968C9114978260A0
:101E100014968C9314976F77F0CF019686309105C6
:101E200009F0A9CFD5CFEF92FF921F93CF93DF9305
:101E3000EC01162F0E94950E7C01612FCE010E94AD
:101E40003F0EC7019927DF91CF911F91FF90EF902F
:101E5000089590E080E00895E42FF0E0E455FF4F0E
:101E60004491E62FF0E0E455FF4F7491E82FF0E045
:101E7000E455FF4F6491842F0895682F660F680F13
:101E80008B3A38F082E0860F482F409560E00C9442
:101E90002C0F863530F041E0460F642F609580E0CE
:101EA000F6CF862F809540E0F2CF91708436910571
:101EB00091F1B0F48232910509F43FC040F48130D1
:101EC000910591F1409769F190E080E008958134A7
:101ED000910569F180359105B9F780E890E00895A2
:101EE000883E9105D9F048F4813C910519F1803D77
:101EF000910551F780E092E00895803521E0920746
:101F000039F0803D21E0920719F080319140E1F6EF
:101F100088E090E0089582E090E0089584E090E009
:101F2000089580E190E0089580E290E0089580E0D7
:101F300091E0089580E094E0089581E090E00895B4
:101F4000FC01218524FD08C025FF06C08085809501
:101F5000881F8827881F089580E00895FC019185D7
:101F60009073903331F480858095881F8827881F6F
:101F7000089580E008951F93CF93DF93EC018F8144
:101F8000988594FB112710F9162796FF04C09F7BB4
:101F900098878F8311E08F81988591FD05C011236B
:101FA00011F1926098878F830E948A0729813A8174
:101FB000FB01E21BF30B2F8138851123E9F125FD8D
:101FC0001FC04B8132FD14C0442391F03460388728
:101FD0002F837A8369838F8198858F71992711E088
:101FE000892B09F410E0812FDF91CF911F91089583
:101FF0004E171F0619F010F04111EDCF2262E7CF06
:1020000037FDE9CF26FD0AC04D81A0E14A9FA0011E
:102010001124E417F507F8F22464D9CF27FF0AC08A
:102020004E81A0E14A9FA00111242868E417F5071A
:1020300070F6D1CF4D81F5CF25FF19C08B818E175A
:102040001F0609F060F426FD03C088818F5F888336
:1020500037FD18822F7D2061316038872F838F8173
:10206000988592FFB8CF9B7F98878F83B4CF30FF3E
:102070000DC037FD03C0206138872F832F8138853D
:102080003E7738872F837A836983E9CF4881442359
:1020900079F0C901807C9927892B41F48C8140E13A
:1020A000849FC0011124E817F907C8F22160D5CF39
:1020B00031FFD5CF2F733D7F3860E3CF0F931F9350
:1020C000CF93DF93EC01162F642F0E94BB0F082FD4
:1020D0008C859D85009741F1298581FF21C0206174
:1020E0002987298582FF1EC02860298773E096957D
:1020F00087957A95E1F79D878C878F81988585FFF5
:1021000091C0906898878F838F81988593FD03C0D5
:10211000986098878F8389858062898781E007C06E
:102120002F7EDECF277FE1CF17FF07C080E0802B17
:10213000DF91CF911F910F9108954A85242F229509
:10214000207F2595259525952595022E000C330B8E
:10215000812F012E000C990B2817390739F3220F14
:10216000331F220F331F282B392B220F331F81E6F9
:1021700096E1A4E9B9E404C0B595A795979587952C
:102180002A95D2F7837045954595459545954150DB
:10219000840F8295807F8595859585958595982F67
:1021A0009295907F212F2F70922B9A87907F09F420
:1021B000BDCF9985292F2370213049F120F122309C
:1021C00049F131E018160CF030E092FB222720F99B
:1021D0008A858F708A87321709F1906199870E94EA
:1021E0008A0729813A81AB01421B530B9A014B8527
:1021F00059857A836983852F4217130689F080F009
:10220000886089877ACF133009F090CFDACF112315
:10221000C1F28CCF11501230A0F688CF9F7EDECF56
:10222000877FEFCF188270CFFC012781308520FD9A
:102230001082C9018F719927892B19F0207E308770
:10224000278308951F93CF93DF93EC01162F0E94ED
:102250001411612FCE01DF91CF911F910C94BB0F10
:102260008F929F92AF92BF92CF92DF92EF92FF92A6
:102270000F931F93CF93DF937C01D62F0E943207D9
:102280004B015C018091E302811167C0CD2F81E099
:102290008093E3028093E2029FEF9093E102109219
:1022A000E0029D0F9093DF028093DE028091DE02B8
:1022B000EE0CFF1C8E298093DE028091DD028130BE
:1022C00009F083C01092DD020E9432076B017C018D
:1022D0008091DE028093BB008091E5029091E6023E
:1022E000A091E702B091E802892B8A2B8B2BA1F0F9
:1022F0000E9432078090E5029090E602A090E702EB
:10230000B090E8026C197D098E099F098616970620
:10231000A806B90608F442C08091BC0083FDD8CF5E
:1023200085EC8093BC000E9432076B017C01809198
:10233000E302813009F44BC08091E0028D1710F464
:10234000C091E002EDEBF2E0ABEEB2E080E08C1782
:1023500051F191919D938F5FFACF8091E502909119
:10236000E602A091E702B091E802892B8A2B8B2B21
:1023700009F488CF0E9432070091E5021091E6022D
:102380002091E7023091E802681979098A099B09CE
:10239000061717072807390708F074CF8091E40261
:1023A0000E94090AC0E01092EA02C093E9028C2F51
:1023B000DF91CF911F910F91FF90EF90DF90CF9021
:1023C000BF90AF909F908F90089585EEAACF809197
:1023D000E5029091E602A091E702B091E802892B14
:1023E0008A2B8B2B09F4A3CF0E9432078090E50241
:1023F0009090E602A090E702B090E8026C197D0987
:102400008E099F0986169706A806B90608F08FCF91
:10241000C5CFCF92DF92EF92FF926B017C0181E0FA
:102420008093990280E58093BB0210929A021092E9
:10243000BC02BB27AF2D9E2D8D2D0E94970BC60190
:1024400099270E94970B0E942A0A61E070E080E5BC
:1024500090E00E94301186E793E00E94210BFF90EC
:10246000EF90DF90CF900895CF92DF92EF92FF929E
:10247000CF936B017C01C42F81E08093990280E5AA
:102480008093BB0210929A021092BC02BB27AF2D20
:102490009E2D8D2D0E94970BC60199270E94970BA8
:1024A00061E070E080E590E00E94301186E793E003
:1024B0000E94210B6C2F86E793E00E94680B65E079
:1024C00070E080E090E00E945707CF91FF90EF907E
:1024D000DF90CF900C942A0A0F931F93FC01048184
:1024E00015812681378140E052E16AE770E090E093
:1024F000041715072607370740F476956795579513
:1025000047959F5F9630A1F797E0292F206A26957F
:10251000909591708091FF01882361F08FB7F894B6
:102520003091FF013130A1F43DB33093FE013DB352
:102530003DBB8FBF2CBD9DBD808187FD0CC070E071
:1025400060E0082E000C990B1F910F910C94B00BBA
:102550008093FE01EFCF1F910F910895CF93DF93EA
:10256000EC010E946C128A8587FD05C060E0DF9156
:10257000CF910C94B20B80E0DF91CF910C94D70BEC
:10258000BF92CF92DF92EF92FF920F931F93CF9360
:10259000DF93EC01888D87FD03C061E00E94BF06D8
:1025A000898D87FD03C061E00E94BF061FB7F894C4
:1025B00080910002811127C0E2E2F8E08491E1E419
:1025C000F8E09491E82FF0E0EE0FFF1FEB50F84F8A
:1025D000A591B491EC91E92321F461E081E10E949D
:1025E000910661E081E10E94BF068CB580618CBDDF
:1025F0008CB580648CBD61E08FE00E94BF0661E015
:1026000080E10E94BF06809100028F5F80930002EC
:102610001FBF0F8907FD28C061E0802F0E94BF0601
:10262000002E000C110B61E070E0C8010E94B00B9D
:102630006AE070E080E090E00E94570770E060E0A0
:10264000C8010E94B00B6AE070E080E090E00E9458
:10265000570761E070E0C8010E94B00B64E170E0D0
:1026600080E090E00E94570780E890E09B838A8397
:1026700080EA90E09D838C8368E770E080E090E0E2
:102680000E9457070D88DE89C02DCE010E94AE1230
:102690000CEA11E084E1E82E82E0F82EBB24BA9423
:1026A000CC24C394F801D490CC2089F1FFEFCF1251
:1026B00017C0CE010E94BB0B8FEFD81661F06D2DB5
:1026C00070E090E080E00E945707CE010E94AE12B9
:1026D000CC24C3940BC064EF71E080E090E0F3CFB2
:1026E0008D2D0E94D70BBB24BA94C12C0F5F1F4FB6
:1026F000E016F106B9F6CE01DF91CF911F910F914F
:10270000FF90EF90DF90CF90BF900C94BB0BEFEF5A
:10271000BE120AC0D7FC13C0DD20D1F261E08A8569
:102720000E94B20BBD2CE2CFBA948D2D0E94D70B24
:10273000B110DCCF60E08A850E94B20BC9CFCD2CEE
:10274000D5CFDF92EF92FF920F931F93CF93DF933A
:10275000EC017B01D42E2115310509F457C08B0102
:1027600001501109020F131FCE010E94AE128AE21E
:102770000E94D70B61E08A850E94B20B80E00E9424
:10278000D70B8F858E0D0E94D70B80E00E94D70B50
:10279000EB85FC85808191810817190710F00FEFF8
:1027A000080F8F85800F0E94D70B60E08A850E94FA
:1027B000B20B8BE20E94D70B61E08A850E94B20BBC
:1027C00080E00E94D70B89898D0D0E94D70B80E095
:1027D0000E94D70BEB85FC85898981509281890FF6
:1027E0000E94D70B60E08A850E94B20B8CE20E94A7
:1027F000D70B8A8587FD11C061E0DF91CF911F91D2
:102800000F91FF90EF90DF900C94B20BEB85FC855D
:102810000081118101501109A7CFCE010E94BB0B8D
:10282000CE010E946C1280E4DF91CF911F910F9135
:10283000FF90EF90DF900C94D70BCF92DF92EF9246
:10284000FF9230E020E050E040E070E060E08091F6
:102850006D0490916E040E94A11320915A0430914E
:102860005B04A0915C04B0915D040E9486316B0111
:102870007C0181E0C81AD108E108F1088FEFC81681
:10288000D806E806F80639F080E00E94D70B80E011
:102890000E94D70BEECF80916D0490916E04FF9053
:1028A000EF90DF90CF900C94BB0B9F92AF92BF92B2
:1028B000CF92DF92EF92FF920F931F93CF93DF930C
:1028C0006B01D0916904B0906A04A0906704909065
:1028D000680420E230E0AC0162E070E080916D04B9
:1028E00090916E040E94A11381E2E82EF12CC1E0C8
:1028F00081E0E81AF108F1F010E000E0F601E00FE5
:10290000F11FE491EC2389F0892D0E94D70B8A2DC9
:102910000E94D70B0F5F1F4F0032110579F7C601D8
:102920008096CC0F29F76C01E2CF8B2D0E94D70B3C
:102930008D2FEECF80916D0490916E04DF91CF9139
:102940001F910F91FF90EF90DF90CF90BF90AF90CD
:102950009F900C94BB0B2F923F924F925F926F927D
:102960007F928F929F92AF92BF92CF92DF92EF921F
:10297000FF920F931F93CF93DF93CDB7DEB72997C5
:102980000FB6F894DEBF0FBECDBF782E6B01182FA7
:10299000E12C212CF12CA0916B04B0916C041196C8
:1029A0008C91119790E0880F991F20915A043091D3
:1029B0005B04281B390B1217130609F038F4EF2DAE
:1029C000F0E0E35FFC4F8081811121C048E0C40E3C
:1029D000D11C80915C0490915D04C816D90608F062
:1029E0000AC1E39415968C91159790E0880F991F72
:1029F000E816190609F07BC0EF2DF0E0E35FFC4F0D
:102A00008081882309F4F7C0172D2F2CE12C6091C9
:102A10000B0370910C03EF2DF0E0E35FFC4F80811E
:102A2000F3946115710509F065C0682F70E0803C72
:102A300090F710920C0310920B031C96ED91FC91F1
:102A40001D97AE014F5F5F4FCD0109958E2D90E030
:102A5000959587954A819C01E3E0220F331FEA9503
:102A6000E1F709814217130609F00CF4B5C0089F7D
:102A70009001099F300D11248C819D81820F931F3D
:102A80009D838C838E2D81708E831F828E819F818A
:102A9000880F991F880F991F99878887512E602E5C
:102AA000611032C0000F100F2B8130E0220F331F56
:102AB000612F70E0A60180916D0490916E040E94D8
:102AC000A11308E0A090690490906A04B12C8B8156
:102AD00090E0880F991FB81619060CF081C0892D57
:102AE0000E94D70B8A2D0E94D70BB394F0CF172DDD
:102AF000F22C8DCFF6E0660F771FFA95E1F7607C38
:102B000077708F73682B95CFEC81FD81E491F0E0B5
:102B1000088402C0F595E7950A94E2F790E080E01A
:102B2000A12C84309105B9F09F01082E02C0359583
:102B300027950A94E2F720FF0CC09C01220F331F57
:102B400043E001C0440F2A95EAF7242FA22A0196F8
:102B5000E8CF20E0FBCF652D70E022E030E0A60159
:102B600080916D0490916E040E94A113912C812C90
:102B7000B12CC501082C02C0959587950A94E2F7FF
:102B8000409067043090680480FD04C04090690460
:102B900030906A04832D0E94D70B842D0E94D70B9E
:102BA000832D0E94D70B842D0E94D70B8FEF881A9C
:102BB000980A98E089169104E1F680916D0490914D
:102BC0006E040E94BB0B539453948C819D8101969B
:102BD0009D838C836A9464CF8B81800F8B8362CFBB
:102BE000015009F06FCF180F80916D0490916E0421
:102BF0000E94BB0BD0CE29960FB6F894DEBF0FBE55
:102C0000CDBFDF91CF911F910F91FF90EF90DF909B
:102C1000CF90BF90AF909F908F907F906F905F907C
:102C20004F903F902F900895CF93DF93EC018091C8
:102C30005204909153040097E9F0688179816115FD
:102C40007105B1F040915404509155042C813D819F
:102C50004217530768F00E9474348C819D819093D1
:102C60005704809356041D821C82DF91CF910895F2
:102C70000E940C338881998190935304809352046D
:102C80008A819B8190935504809354048C819D810B
:102C90009093570480935604198218821B821A82DB
:102CA000E2CFCF93DF93EC0188819981009711F0F7
:102CB0000E940C33198218821D821C821B821A8288
:102CC000DF91CF910895FC0180819181009711F0EF
:102CD0000C940C330895CF93DF93FC01C481D5810C
:102CE000209729F410920D03DF91CF910895615040
:102CF00071096C177D0708F4EB01FC01608171819B
:102D0000AE018DE093E00E947B34C35FDC4F1882FC
:102D1000EBCF009711F481E090E00C9470320E94A8
:102D20005234FC0124813581232B39F421E0FB014D
:102D30008081882349F020E007C0808191810E9432
:102D40006B3421E0892BB9F7822F08950F931F93DD
:102D5000CF93DF93EC0188819981009759F02A8104
:102D60003B812617370730F081E0DF91CF911F912B
:102D70000F9108958B016F5F7F4F0E9495330097ED
:102D800059F0998388831B830A832C813D81232BEF
:102D900059F7FC011082E8CF80E0E7CFEF92FF9275
:102DA0000F931F93CF93DF936115710541F480E07A
:102DB000DF91CF911F910F91FF90EF9008954115F2
:102DC0005105B1F07B01EC010C811D81040F151F31
:102DD000B8010E94A616882351F3288139818C817D
:102DE0009D81B701820F931F0E9474341D830C8351
:102DF00081E0DECFEF92FF920F931F93CF93DF938B
:102E000000D000D0CDB7DEB77C01862F4AE08E011E
:102E10000F5F1F4FB80190E00E946F2FF8010190E3
:102E20000020E9F73197AF01401B510BB801C701F2
:102E30000E94CE16811103C0C7010E945116C7011E
:102E40000F900F900F900F90DF91CF911F910F91E6
:102E5000FF90EF900895CF93DF93EC01FB01019079
:102E60000020E9F73197AF01461B570B0E94CE16A1
:102E7000811103C0CE010E945116CE01DF91CF9186
:102E80000895CF93DF93EC01FB014481558160816C
:102E900071810E94CE16811103C0CE010E9451168D
:102EA000CE01DF91CF910895EF92FF920F931F9380
:102EB000CF93DF93EC017B018A01BA010E94A61631
:102EC00081110BC0CE010E945116CE01DF91CF912E
:102ED0001F910F91FF90EF9008951D830C83B70110
:102EE000888199810E947434F0CFFB010190002009
:102EF000E9F73197AF01461B570B0C9454170F930A
:102F00001F93CF93DF93CDB7DEB729970FB6F89411
:102F1000DEBF0FBECDBF8C01862FF801118210825B
:102F200013821282158214824AE0BE016F5F7F4FC6
:102F300090E00E94C02FBE016F5F7F4FC8010E94CA
:102F4000751729960FB6F894DEBF0FBECDBFDF917F
:102F5000CF911F910F910895CF93DF93EC01FB0167
:102F60008617970749F0608171816115710541F0FD
:102F7000448155810E945417CE01DF91CF9108956D
:102F80000E945116F9CFFC01118210821382128225
:102F9000158214820C94AC17FC01118210821382EA
:102FA0001282158214826115710551F0FB010190A6
:102FB0000020E9F73197AF01461B570B0C945417CB
:102FC0000895AF92BF92CF92DF92EF92FF920F934C
:102FD0001F93CF93DF936C015B017A018901241762
:102FE000350720F48F2D7901042F182F6CE771E03D
:102FF000C6010E94CC17D5011496CD91DC91EC1638
:10300000FD06E0F40C171D0708F4E801D501ED9169
:10301000FC911197EC0FFD1F108110826D917C9136
:103020006E0D7F1DC60161157105A1F00E94751717
:10303000F50180819181C80FD91F1883C601DF91E6
:10304000CF911F910F91FF90EF90DF90CF90BF90A5
:10305000AF9008950E945116EBCF85ED8093BC0090
:103060008091E5029091E602A091E702B091E8021A
:103070000796A11DB11D23E0B695A7959795879555
:103080002A95D1F72091BC0024FD03C01092E302E1
:1030900008954091E5025091E6026091E702709137
:1030A000E802452B462B472B69F30097A105B10594
:1030B00041F02AE22A95F1F700C00197A109B10970
:1030C000E1CF8091E4020C94090AFF920F931F93C1
:1030D000CF93DF938C01EB01F8800E94E530F81666
:1030E00021F06F2DC8010E94ED30CE01DF91CF910C
:1030F0001F910F91FF9008950C94E530EF92FF928D
:103100000F931F93CF93DF93CDB7DEB762970FB6C0
:10311000F894DEBF0FBECDBFE82E6CE771E0CE01A4
:103120000D960E94CC170DEE13E0C8010E947C188A
:10313000F82E682FCE0107960E947F17BE01635FAD
:103140007F4FCE0101960E94C317BE01695F7F4F7A
:10315000CE0101960E944117BC01CE010D960E943E
:10316000AC17CE0101960E946316CE0107960E940D
:103170006316083F83E01807D4F4BE01635F7F4FF6
:10318000CE0101960E94C3176DE771E0CE01019652
:103190000E942B17BC01CE010D960E94AC17CE01E8
:1031A00001960E946316F801EA56F140F0820F5F23
:1031B0001F4F011584E0180709F0B7CF81E0E8122E
:1031C00004C0CE010D960E940209CE010D960E9408
:1031D000631662960FB6F894DEBF0FBECDBFDF91C7
:1031E000CF911F910F91FF90EF9008952F923F92F2
:1031F0004F925F926F927F928F929F92AF92BF9207
:10320000CF92DF92EF92FF92CF93DF9300D000D066
:1032100000D0CDB7DEB78983E0918C02F0E0E253B5
:10322000FA4FE491E0933A040E948A07C090E101CA
:10323000D090E201E090E301F090E4016C197D0987
:103240008E099F096634710581059105A0F00E94E1
:103250008A076093E1017093E2018093E301909308
:10326000E4012981223009F4ABC0E0F4222359F1B2
:10327000213009F456C026960FB6F894DEBF0FBE73
:10328000CDBFDF91CF91FF90EF90DF90CF90BF90B7
:10329000AF909F908F907F906F905F904F903F90F6
:1032A0002F9008953981333009F4D0C0EEEBF3E06C
:1032B000343109F7148215821682339684E0E6339E
:1032C000F807C1F716C04091E0014983842F0E949E
:1032D0003D0F9B01482FE2ECF3E08AE394E0219359
:1032E000319341938E179F07D1F759815D5F5093BA
:1032F000E00126960FB6F894DEBF0FBECDBFDF917A
:10330000CF91FF90EF90DF90CF90BF90AF909F90C4
:103310008F907F906F905F904F903F902F900C9484
:103320009A048091E0010E943D0FE2ECF3E061938A
:103330007193819394E0EA33F907C9F71982B3E0F6
:103340002B2E312C412C512C0E94F02E2981C22E83
:10335000D12CF12CE12CA20191010E94FB306C15C3
:103360007D058E059F0534F14FEF6FEF8FEF0E94C3
:103370002C0F3B01882EC0908902D12CF12CE12C1E
:10338000C114D104E104F10439F00E94F02EA70128
:1033900096010E94FB306B01F601EE0FFF1FEC0D52
:1033A000FD1DE254FC4F64827582868239813F5F45
:1033B0003983CACF8091E0018D5F8093E00199CF7E
:1033C0001D82C12CD12C7601CA94809189024D8135
:1033D000481708F08ECF0E94F02E2B013C010E946E
:1033E000F02E4B015C010E94F02E69837A838B835F
:1033F0009C83C301B201A70196010E94FB30762E87
:10340000C501B401A70196010E94FB306E8369815A
:103410007A818B819C81A70196010E94FB30862FC7
:10342000472D6E810E942C0F9B01482F5D81852FB7
:1034300090E0FC01EE0FFF1FE80FF91FE254FC4F74
:103440002483358346835F5F5D83BFCF198260919C
:1034500089022091E00189818617E8F43FEF839F7C
:10346000C001112470E00E944232822F860F0E9418
:103470003D0F9B01482F5981852F90E0FC01EE0FF5
:10348000FF1FE80FF91FE254FC4F24833583468366
:103490005F5F5983DCCF2D5F2093E0012ACF6F92CD
:1034A0007F928F929F92AF92BF92CF92DF92EF92D4
:1034B000FF920F931F93CF93DF9300D000D000D0E3
:1034C000CDB7DEB75C01862F90E00E9489164C01D3
:1034D0006C01F12CE12CF50184819581E816F90647
:1034E00070F46080718060E470E0C3018E0D9F1DF8
:1034F0000E9460348C0106191709892B11F40FEF13
:103500001FEF0F3F1007D1F09801A701B501CE01C1
:1035100001960E94E11789819A8160E0009711F07D
:103520000E94482FF60161936F017801FFEFEF1AB7
:10353000FF0ACE0101960E946316CDCFC4012696E4
:103540000FB6F894DEBF0FBECDBFDF91CF911F91B4
:103550000F91FF90EF90DF90CF90BF90AF909F9032
:103560008F907F906F900895EF92FF920F931F932B
:10357000CF93DF93CDB7DEB7A8970FB6F894DEBF31
:103580000FBECDBF8C016CE771E00E94CC17F090AC
:103590005D0261E08F2D0E949106E090600260E084
:1035A0008E2D0E94910661E08E2D0E94910660E0B2
:1035B0008F2D0E949106F12C8091610228E0829F5C
:1035C000C0011124F816190694F580915E020E943C
:1035D00068061CA21BA21EA21DA218A61FA2BC0147
:1035E000990F880B990B2AE0AE014F5F5F4F0E9445
:1035F0007A2FBE016F5F7F4FCE0183960E947517B1
:103600004FA158A56BA17CA1C8010E94CE16CE0186
:1036100083960E946316E0905F0261E08E2D0E9407
:10362000910660E08E2D0E949106F394C5CFF801BB
:10363000248135812817390798F46FE771E0CE01AE
:1036400001960E94CC17B801CE0101960E94411745
:10365000BC01C8010E94AC17CE0101960E946316FE
:10366000C801A8960FB6F894DEBF0FBECDBFDF919C
:10367000CF911F910F91FF90EF9008952F923F925D
:103680004F925F926F927F928F929F92AF92BF9272
:10369000CF92DF92EF92FF920F931F93CF93DF931E
:1036A000CDB7DEB768970FB6F894DEBF0FBECDBFBB
:1036B000582E662E742EE82EF12C80918B0290915C
:1036C00089029701899F200D311D112495E6929F53
:1036D0008001939F100D112422E0621709F415C296
:1036E0002617F8F0662369F131E0631709F48EC0FC
:1036F00068960FB6F894DEBF0FBECDBFDF91CF91B5
:103700001F910F91FF90EF90DF90CF90BF90AF90FF
:103710009F908F907F906F905F904F903F902F90F1
:10372000089583E0681709F4FEC194E06913E0CFBF
:10373000411114C2780131E3E30EF11C075E1F4F03
:1037400004C07801E3E6EE0EF11CE114F10481F20D
:103750008AE0982E92E3292E312C412C512CE01630
:10376000F10630F2B80190E080E00E940912882E44
:10377000A82EB12C8FEF880D8E3F08F0B9CF81E0D5
:10378000A816B10499F091E0C916D10479F061103E
:1037900008C0C701801B910B8336910510F40E946D
:1037A000E70D6C2D8FEA93E00E943F0EC501019753
:1037B000039728F0682D8FEA93E00E94950EC501CB
:1037C00002970297F8F4D12CE3E0AE16B10439F475
:1037D0000E94F02EA20191010E94FB30D62E0F5FB5
:1037E0001F4FB80190E080E00E940912A82EB12C72
:1037F0006D2D70E0899D600D711D112490E080E0B9
:103800000E9457070F5F1F4F6501A9CFF3E04F13C9
:103810005EC08F5F853008F04AC080938B026BE8F2
:1038200072E085EF93E00E946518809188028823FA
:1038300009F44DC04FEF6FEF8FEF0E942C0F52EC49
:10384000C52E53E0D52E8601F801619371938193C3
:103850008F01F4E00D331F07B9F73DEC832E36E0FE
:10386000932E4EECA42E45E0B42E80918B0290E076
:1038700001966816190609F0ECF4F401849180931E
:103880003A040E949A046AEF70E080E090E00E949F
:103890005707F501849180933A040E949A046AEFD5
:1038A00070E080E090E00E9457076394DECF1092B2
:1038B0008B02B5CF40E060E080E00E942C0FF60163
:1038C0006193719381936F010E171F07C1F7809168
:1038D0008802882391F0711054C080918D028F5F0F
:1038E000843018F480938D0202C010928D026DE82E
:1038F00072E087EF93E00E94651860918B02CE0121
:1039000043960E947F1760918C02CE010D960E9413
:103910007F1760918D02CE0107960E947F1761E8A4
:1039200071E0CE0101960E94CC17BE01695F7F4F06
:10393000CE0101960E94411761E871E00E942B17A9
:10394000BE01635F7F4F0E94411761E871E00E94F2
:103950002B17BE016D5E7F4F0E9441170E94020926
:10396000CE0101960E946316CE0107960E9463164F
:10397000CE010D960E946316CE0143960E946316F7
:10398000B7CEF1E07F1202C084E1ACCF22E0721228
:10399000B4CF0E948A073B014C014FEF6FEF8FEFCE
:1039A0000E942C0F9B01482FE2ECF3E08DE394E0A2
:1039B0002193319341938E179F07D1F7E0918C02A9
:1039C000F0E0E253FA4FE491E0933A040E949A0443
:1039D00039E0539E50011124DD24D39429E0422E76
:1039E000CC24C3940E948A0766197709880999092B
:1039F000683B7B408105910528F06CE872E086EF1A
:103A000093E079CF80918602882361F0CE01019600
:103A10000E94B41ACE0101960E941416CE0101969E
:103A20000E94631680917B02581648F50091790236
:103A300010917A020A0D1B1DE0917702F091780235
:103A4000EE0DFF1DE0818E2F90E020915604309105
:103A500057048217930730F4E0915204F091530415
:103A6000309751F410926402E4E6F2E061E0808164
:103A7000803301F160E01EC0E80FF91FF7CF970116
:103A8000281B3109C901489E9001499E300D11241F
:103A90000091750210917602020F131FE0917302DC
:103AA000F0917402E80FF91F80810E94680661E0BE
:103AB000892B01F7C8010E942211F80187819085A6
:103AC0000E94550F843029F0883009F08BCFDC2418
:103AD00089CF0E948A073B014C0180918C02DD2036
:103AE00081F08B3F18F48B5F80938C02E0918C0205
:103AF000F0E0E253FA4FE491E0933A040E949A0412
:103B000071CF853098F38550EFCF7801F3E6EF0E53
:103B1000F11C442351F121E0780131E3E30EF11C63
:103B20004213E6CD12CE411107C0780181E4E80EC0
:103B3000F11C0F5D1F4F09CE92E0491307C07801B9
:103B4000E2E6EE0EF11C0E5B1F4FFFCDF1E07801B7
:103B500020E2E20EF11C4F13CBCDF7CD82E04813EB
:103B600007C078019AE4E90EF11C0E5C1F4FEDCD01
:103B7000E3E04E1307C07801F3E6EF0EF11C055B9E
:103B80001F4FE3CD21E04213B3CD780138E1E30EBE
:103B9000F11CDBCD1F920F920FB60F9211242F93C1
:103BA0003F938F939F93AF93BF9380918F02909198
:103BB0009002A0919102B091920230918E0223E086
:103BC000230F2D3758F50196A11DB11D20938E02AC
:103BD00080938F0290939002A0939102B0939202EF
:103BE0008091930290919402A0919502B0919602D7
:103BF0000196A11DB11D8093930290939402A0930E
:103C00009502B0939602BF91AF919F918F913F9192
:103C10002F910F900FBE0F901F90189526E8230F3D
:103C20000296A11DB11DD2CF1F920F920FB60F9217
:103C300011242F933F934F935F936F937F938F93B1
:103C40009F93AF93BF93CF93EF93FF93C091E10006
:103C50008091E100837F8093E100C3FF0FC0109249
:103C6000E90081E08093EB001092EC0082E3809306
:103C7000ED001092980288E08093F000C2FF1AC015
:103C80000E94E70580915602882341F080915602F8
:103C9000815080935602811101C05D9A80919702F4
:103CA000882341F08091970281508093970281117F
:103CB00001C0289AC4FF23C08091E2008E7E8160FB
:103CC0008093E2008091E1008F7E8093E1008091FB
:103CD00057028E7E806180935702FF91EF91CF91C2
:103CE000BF91AF919F918F917F916F915F914F9114
:103CF0003F912F910F900FBE0F901F901895C0FF0E
:103D0000ECCF8091E2008E7E80618093E200809112
:103D1000E1008E7E8093E100809157028E7E81606B
:103D2000DACF1F920F920FB60F921124CF92DF922B
:103D3000EF92FF920F931F932F933F934F935F93B5
:103D40006F937F938F939F93AF93BF93EF93FF9363
:103D5000CF93DF93CDB7DEB76C97DEBFCDBF1092A8
:103D6000E9008091E80083FF25C068E0CE01459618
:103D70000E949A0882EF8093E8008D8987FF39C0FE
:103D80009091E80090FFFCCF982F907609F034C115
:103D90009E894F89588D2F89F88C911131C08038B8
:103DA00061F5809158028093F1001092F1008EEF3E
:103DB0008093E8006C960FB6F894DEBF0FBECDBFBF
:103DC000DF91CF91FF91EF91BF91AF919F918F9133
:103DD0007F916F915F914F913F912F911F910F9123
:103DE000FF90EF90DF90CF900F900FBE0F901F903D
:103DF00018959EEF9093E800C7CF1092F100D5CFB1
:103E0000913059F48111D3CF4130510581F6809121
:103E100058028D7F80935802CACF933049F48111A4
:103E2000C6CF4130510519F6809158028260F2CF19
:103E3000953041F48091E80080FFFCCF206820930A
:103E4000E300B5CF963009F0A9C00B8D1C8D22E0A0
:103E50001092E9001092540210925302F2122EC0F6
:103E600010925202109251020E94BB081F8299E0E8
:103E70009983FA8291E09E8390EA98879AEF9987D6
:103E80002091530230915402275F3F4F3C832B8394
:103E90008D831092E90010925402109253021093F5
:103EA00052020093510249E050E0BE016F5F7F4F24
:103EB00080E00E94C9070E94BB0879CF109352028C
:103EC000009351020E94A708DC0112960D911C91EB
:103ED0000115110509F451C1D801ED91FC9104803F
:103EE000F581E02DBE016B5E7F4FC80109950097FB
:103EF00009F03EC1F80100851185EACFF3E0FF1219
:103F00000EC08F89882309F440C0823061F440E8F4
:103F100060E188E792E00E94E221811148CF81E2CE
:103F20008093EB0047CF813029F440E86BE08CE6CA
:103F300092E0F1CF833099F70E94A708DC01129636
:103F4000ED90FC908E010F5F1F4F6801E114F104AA
:103F500079F0D701ED91FC910680F781E02DB80151
:103F6000C7010995080F111DF701E084F184EECF18
:103F7000D8011C92F60101900020E9F73197BF01AA
:103F80006C197D0940E0C601C6CF66E572E0FB0111
:103F9000449150E080E80E94C90709CF973009F4A6
:103FA000BECF983021F481E08093F10000CF9930AA
:103FB00009F0FDCE837009F0B2CFE1E0F1E081E0DD
:103FC00031E096E32191222371F08093E900309350
:103FD000EB00DF0111972C912093EC009093ED0002
:103FE0008F5F873079F78EE78093EA001092EA00BE
:103FF0008F8980939802DBCE8B8D9C8D1092E90087
:1040000010925402109253029093520280935102E4
:10401000898D811192C08E899D89913A49F48132AE
:1040200009F07DCF47E050E06BE071E080E0B3CF76
:10403000913209F074CF833269F48F89988DB0E0A2
:10404000A0E08093070190930801A0930901B09329
:104050000A01ADCE803269F48091E80082FFFCCF86
:1040600067E08BE091E00E949A088BEF8093E80074
:104070009ECE823209F09BCE8F8980931201EEEFA3
:10408000FFE7859194918B3F9C4D51F1E0E0F8E082
:1040900080910B0190910C01A0910D01B0910E0146
:1040A000803B9440A105B105F1F48091120180FD9F
:1040B0001AC0EE3F8AE0F80789F587E797E7918312
:1040C0008083809160008093550288E19BE00FB669
:1040D000F894A895809360000FBE9093600067CE1F
:1040E000EEEFFAE0D5CF808191818737974709F0CD
:1040F0005ECEA89580916000886180936000809179
:10410000550280936000EE3F2AE0F20789F080912B
:10411000FE0A9091FF0A9183808349CE808191812C
:104120008737980751F29093FF0A8093FE0AC5CF14
:104130001092FF0A1092FE0A3ACE0E94A708DC01F4
:1041400012960D911C910115110509F4E8CED801C4
:10415000ED91FC910190F081E02DBE016B5E7F4FEF
:10416000C8010995811123CEF80100851185EBCF97
:10417000181619060CF41BCED2CEF1E0FF12BECEFB
:104180006AE572E004CF1F920F920FB60F921124CE
:104190002F933F934F935F936F937F938F939F934F
:1041A000AF93BF93EF93FF938091B900887F8036E0
:1041B00009F44AC0F0F5883209F4A7C018F5803137
:1041C00009F49BC0B8F4882309F4F9C0883009F4D5
:1041D00094C0FF91EF91BF91AF919F918F917F918B
:1041E0006F915F914F913F912F910F900FBE0F9064
:1041F0001F901895883109F488C0803251F7809358
:10420000E10214C0803409F49DC040F48033B9F356
:104210008833F9F68093E10285ECB0C0803509F46B
:1042200085C0883509F496C0883499F60E942D1807
:10423000D0CF883909F48CC038F5883729F050F48C
:10424000883611F0803729F683E08093E3021092DC
:10425000440257C0883809F47BC0803919F080388F
:1042600009F0B7CF80914402803208F071C0E0912C
:10427000440281E08E0F809344028091BB00F0E005
:10428000EC5DFD4F80833DC0803B39F0E0F4803A27
:1042900009F479C0883A09F09CCF84E08093E30266
:1042A0001092230210922202E0915B02F0915C02D4
:1042B00009958091220281110FC081E08093220232
:1042C0001092020209C0803C09F4A6CF883C09F490
:1042D000A3CF883B09F07DCFE091230281E08E0FD0
:1042E00080932302F0E0EE5FFD4F80818093BB005E
:1042F000909123028091220229C08091DE02809356
:10430000BB0085EC8093BC0064CF9091E00280916B
:10431000DF02981758F5E091E00281E08E0F80935C
:10432000E002F0E0E354FD4F8081E9CFE091E0024C
:1043300081E08E0F8093E0028091BB00F0E0E354B7
:10434000FD4F80839091E0028091DF029817C8F2C0
:1043500085E8D8CFE091E00281E08E0F8093E00203
:104360008091BB00F0E0E354FD4F80838091E20236
:1043700081115CCF81E08093DD0284EA8093BC00F0
:104380001092E30226CF85EC8093BC001092E302EA
:1043900080914402803230F4E0914402F0E0EC5D20
:1043A000FD4F10826091440270E0E0915902F0915B
:1043B0005A0284E292E00995109244020ACF1092C8
:1043C000E10234CFEF92FF920F931F93CF93DF93CD
:1043D000F82E192FE62E042F81E0860F880F0E94F9
:1043E0009B0783E00E949B07CF2DD12FEC0EFD2E63
:1043F000F11CCE15DF05B9F007FF13C0FE01849153
:104400000E949B07182F80E00E949B078123219622
:104410008111EFCFDF91CF911F910F91FF90EF901E
:1044200008958881EDCF81E0F5CFCF93DF9310928F
:104430001C0310921B0388EE93E0A0E0B0E0809391
:104440001D0390931E03A0931F03B093200326E443
:1044500031E030931A03209319032FEF3FEF30938D
:104460002603209325032093690310926B03109277
:104470006A0310927503109274034FEF5FEFBA0155
:1044800040937003509371036093720370937303AE
:10449000109279031092780380937A0390937B03B0
:1044A000A0937C03B0937D0388E591E0909377031C
:1044B000809376038CE0E2E8F3E0DF011D928A95B9
:1044C000E9F710928F0310928E0380919603811169
:1044D00013C010929103109290038BEF96E090938B
:1044E0009303809392038BE490E0909395038093E1
:1044F000940381E0809396030E94680DFC01A385DC
:10450000B485109709F022C180E993E094878387EE
:10451000858596852091940330919503820F931F92
:10452000968785871092B2031092B1038AE691E0D4
:104530009093B0038093AF038091A703811113C0C0
:104540001092A2031092A10386EC97E09093A4032B
:104550008093A3038FE290E09093A6038093A5033A
:1045600081E08093A7030E94680DFC01A385B485B8
:10457000109709F0F6C081EA93E0948783878585D8
:1045800096852091A5033091A603820F931F9687ED
:10459000858786E497E09093BC038093BB0389E40E
:1045A00090E00E947C18D82F8AE490E00E947C184A
:1045B000C82F88E490E00E947C1810925B0410924F
:1045C0005A0410925D0410925C0410925F041092E1
:1045D0005E041092610410926004109263041092C1
:1045E00062041092640410926604109265042FEF26
:1045F0003FEF309368042093670410926A0410928E
:10460000690410926C0410926B0420E734E030933C
:104610006E0420936D0480936F0486E791E090937D
:10462000590480935804D0937004C09371048FEFA1
:10463000809372048093730480E092E1AAE7B0E073
:104640008093740490937504A0937604B0937704D8
:104650008DEB93E09093790480937804C0937A046F
:104660008AE594E090937C0480937B0410927D040F
:1046700010927E041092800410927F0410928204A3
:10468000109281046CE771E082E594E00E94CC17FF
:104690008EE290E09093BF038093BE0380ED97E09D
:1046A0009093C1038093C00382E380933A04809384
:1046B0003B0410923C0410923D0410923E04109270
:1046C0003F041092400410924204109241048FB7AC
:1046D00080934F0481E090E09093510480935004C4
:1046E000E9E3F8E0249120934B048AE198E0FC018F
:1046F0003491E32FF0E0EE0FFF1FED5FF74F459190
:1047000054915093440440934304FC018491E82F56
:10471000F0E0EE0FFF1FEB50F84FA591B491B0936E
:104720004604A0934504EC91E22BEC938EE190E0DB
:104730009093BF038093BE0384E992E09093C103FA
:104740008093C003DF91CF910895DC018D919C91FE
:1047500011970097D1F780E993E08D939C93D8CE81
:10476000DC018D919C9111970097D1F781EA93E03C
:104770008D939C9304CFCF93DF93CDB7DEB7E697AD
:104780000FB6F894DEBF0FBECDBF789484B58260BB
:1047900084BD84B5816084BD85B5826085BD85B5E5
:1047A000816085BD80916E00816080936E00109263
:1047B00081008091810082608093810080918100DE
:1047C000816080938100809180008160809380006F
:1047D000809191008260809391008091910081602E
:1047E00080939100809190008160809390008091EF
:1047F000C10084608093C1008091C1008260809379
:10480000C1008091C10081608093C1008091C3008C
:1048100081608093C3008091C00082608093C0005B
:104820008091C20081608093C20080917A00846090
:1048300080937A0080917A00826080937A008091E0
:104840007A00816080937A0080917A0080688093FA
:104850007A0010929802109258021092570280919A
:10486000D70081608093D70080EA8093D80089B513
:10487000806189BD89B5826089BD09B400FEFDCF24
:1048800061E070E080E090E00E9457078091D800DE
:104890008F7C80618093D8008091E000807F80933E
:1048A000E0008091E1008E7E8093E1008DE08093B6
:1048B000E200559A209A8FEF9FEF90932603809302
:1048C000250360ED77E080E090E00E9457078EEED0
:1048D00093E00E947C1890911301891308C08FEE19
:1048E00093E00E947C1890916302891761F063E164
:1048F00071E08EEE93E00E94651863E672E08FEE41
:1049000093E00E94651882E590E00E947C18182FC1
:104910008EEE93E00E947C1818130BC083E590E0A4
:104920000E947C18182F8FEE93E00E947C181817B5
:1049300061F063E171E082E590E00E94651863E652
:1049400072E083E590E00E9465181092EA021092EE
:10495000E90210929A021092BC020E94EB0988E9C7
:1049600097E090935C0280935B0289E997E09093D3
:104970005A028093590286E497E09093BC03809397
:10498000BB0380E00E947E1880918702813009F08D
:1049900098C088E594E00E94C0120E941D14E9E8C6
:1049A000F2E0E491E0938203EAE8F2E024912093BC
:1049B0008303EBE8F2E0849180938403ECE8F2E077
:1049C000E491E09385034DE852E050938B034093CC
:1049D0008A0348E05CE050938F0340938E0390E09D
:1049E000079643E0959587954A95E1F7809387036D
:1049F000289FE02D1124E0938803109289031092E0
:104A00008D0310928C0382E893E090936C04809362
:104A10006B0400916D0410916E04D8011D968C9169
:104A20001D9780FD1CC01B96ED91FC911C97808109
:104A300091812281338131832083938382831F96E6
:104A40008D919C91509751962D913C9152975096F3
:104A50003C932E931F9752969C938E93519783E08D
:104A6000F8018587C8010E946C1260E0D8011A968F
:104A70008C910E94B20B88E20E94D70B86E30E94C1
:104A8000D70B61E0F80182850E94B20BD8011D9618
:104A9000EC9180EAE33020F4F0E0E15DFE4F8081AC
:104AA000F8019685892B0E94D70B60E0D8011A96F1
:104AB0008C910E94B20B89E20E94D70BC8010E9420
:104AC000BB0B80918A028F3FF1F18DE490E00E9450
:104AD0007C18B82E8CE490E00E947C18E82E8BE4C1
:104AE00090E00E947C18F82E81E190E00E947032E4
:104AF0008C01FC011282118282E383838FE1848323
:104B000085E285838CE08683108617821186128663
:104B10008EE183871586148620E040E060E0C801BE
:104B20000E94FB0610938202009381022B2D4E2DD2
:104B30006F2DC8010E94FB0681E0D8011B968C9363
:104B40001B9713968C93E0918C02F0E0E253FA4F9E
:104B5000E491E0933A0480EF93E00E947C18982E51
:104B600080937B028CEE93E00E947C18782E8093D9
:104B70006202992009F483C0092D10E0C8010E9447
:104B8000891680937702909378027C01B12CA12C36
:104B9000A91450F4C5010E947C18F70181937F018C
:104BA000FFEFAF1ABF0AF4CF82E390E00E947C18B7
:104BB0008093610284E490E00E947C18F82E809338
:104BC000600285E490E00E947C18E82E80935F02EA
:104BD00086E490E00E947C18B82E80935E0287E401
:104BE00090E00E947C18A82E80935D0261E08F2DDA
:104BF0000E94BF0661E08A2D0E94BF0661E08E2DF3
:104C00000E94BF0660E08B2D0E94BF0660E08E2DE3
:104C10000E94910661E08F2D0E94910629E0929EEC
:104C2000C00111240E948916DC01FC0152E34FE10E
:104C300035E22CE01282118253834483358326832C
:104C400010861782399601501109A1F780937902D5
:104C500090937A0280E046E031E02CE09EE11496E9
:104C60004C93149716963C93169715962C9315977C
:104C700013969C9313978F5F19969812F0CF772015
:104C800009F458C0A72CB12CC5010E948916682EC2
:104C90008093730290937402082F192FE82EF92E37
:104CA00033E3832E912C582E8E2D8619871550F4C0
:104CB000C4010E947C18D7018D937D01BFEF8B1A30
:104CC0009B0AF2CFE9E07E9EC00111240E94891662
:104CD0007C01FC0152E34FE135E22CE012821182AB
:104CE000538344833583268310861782399661E087
:104CF000A61AB10899F7809375029093760286E020
:104D0000A82EBB24B3949CE0992E2EE1822E802FF6
:104D10008519871578F462E0D8018D918D010E9484
:104D2000BF06F701A482B68295828382F9E0EF0E76
:104D3000F11CEDCF5E012EE1A20EB11C1DE3812E10
:104D400014E0912E80918602882361F0CE010196B5
:104D50000E94B41ACE0101960E941416CE0101964B
:104D60000E94631680918A028F3F09F4C3C00091AC
:104D7000810210918202D80150968C915097199619
:104D80009C9197FF73C00E946806FF24F394892BBF
:104D900009F4F12CC8010E941411F801818585FFE6
:104DA00002C08F7D81874F2D6FEFC8010E945E107A
:104DB000882309F49FC00091810210918202F801BA
:104DC000818585FD81C0878190850E94550F803245
:104DD000910509F449C18034910509F475C0029721
:104DE00009F088C080918A028F5F833008F039C152
:104DF00080938A026AE872E084EF93E00E9465186B
:104E000080918802882309F475C040E060E080E06A
:104E10000E942C0F02EC13E0F801619371938193CF
:104E20008E169F06D1F74FEF6FEF8FEF0E942C0F7A
:104E3000AB01682F20918A0230E090E080E0D80139
:104E40004D935D936D938D01019628173907BCF73B
:104E5000EDECF6E0849180933A040E949A0468EEA7
:104E600073E080E090E00E94570744C00E9468060B
:104E700077247394892B09F4712CD8011E968C9198
:104E80000E9468067C01F80187850E94680621E07F
:104E900030E0892B11F430E020E0220F331F81E055
:104EA000EF2809F480E0F82EF22AC8010E941411BC
:104EB000D80119968C91199785FF03C08F7D19969B
:104EC0008C93472D6F2D71CFF0908A02F1107DC029
:104ED000C8010E94AE0F882319F080E10E94F40DF2
:104EE000C8010E94A00F882319F080E20E94F40DEF
:104EF0000E94050E712CF9E05F2EA5E64A2E8091E6
:104F00008902781608F015C180917B02072D10E008
:104F1000781608F0BEC0E0907902F0907A02759C95
:104F2000E00CF11C1124E0917702F0917802E00F7F
:104F3000F11FE0818E2F90E02091560430915704AC
:104F40008217930738F4E0915204F091530430979C
:104F500009F09CC010926402E4E6F2E061E0808116
:104F6000803309F060E0C7010E942211F7018781B8
:104F700090850E94550F682ED701FC9090918B026E
:104F800080918902989F000D111D1124409EB0014F
:104F9000419E700D11246C597F4F072E000C880B19
:104FA000990B0E940912682FF4E06F1609F4B0C043
:104FB000F61508F497C021E0621609F4A9C032E0A2
:104FC000631609F4ACC073949ACFF1E0FF122FC0BE
:104FD0000E948A0760937D0270937E0280937F0215
:104FE00090938002F0927C02C8010E94A00FF09082
:104FF0008C02882379F024E08BEF2F15A0F0E0914C
:105000008C02F0E0E253FA4FE491E0933A040E94FC
:105010009A0470CFC8010E94AE0F882381F33AEF43
:105020003F1568F385E08F0D80938C02E8CF62E036
:10503000F61260CFC8010E94AE0F882329F069EDF7
:105040008FEA93E00E94950EC8010E94A00F88236A
:1050500029F06AED8FEA93E00E94950E0E94E70D19
:1050600049CF10928A02C6CE80918A02811142CF26
:10507000D8018C91813009F439CF823011F488E065
:1050800035CF833009F034CF84E030CFE80FF91FFB
:1050900065CFF801E81BF109CF015E9E90015F9E8C
:1050A000300D1124E0907502F0907602E20EF31EAE
:1050B000E0917302F0917402E80FF91F80810E9461
:1050C000680661E0892B09F060E0C7010E942211A7
:1050D000D70117968D919C910E94550F682EF7016C
:1050E000F0804CCF88E0681609F1A0E26A126BCF1D
:1050F000662309F468CFB1E040E0FB16A1F0E2E0DE
:1051000042E0FE1681F0F3E0FF1210C043E00BC056
:10511000611159CF40E0872D0E943E1B54CF41E0E2
:10512000882309F450CF872D0E943E1B0E94E70D73
:105130004ACF0E948A0700916F021091700220915D
:10514000710230917202601B710B820B930B603104
:1051500077428105910538F080916E02813019F413
:1051600082E080936E020E948A0700917D02109176
:105170007E0220917F0230918002601B710B820BB6
:10518000930B643F71408105910508F46EC08091D6
:105190007C02813009F069C010927C0285E0EEE16A
:1051A000F1E0DE01599601900D928A95E1F786EFC4
:1051B00093E00E947C18F82EE0908C028E01075E2E
:1051C0001F4FD8018D918D0190E0BC016D577D4F2F
:1051D00083519C4F0E946518A016B10691F7FE14EA
:1051E00009F443C060918B02CE0101960E947F17A3
:1051F00060918C02CE0107960E947F1760918D020C
:10520000CE010D960E947F1761E871E0CE014396B2
:105210000E94CC17BE01635F7F4FCE0143960E9470
:10522000411761E871E00E942B17BE01695F7F4F53
:105230000E94411761E871E00E942B17BE016F5F69
:105240007F4F0E9441170E940209CE0143960E949F
:105250006316CE010D960E946316CE0107960E943A
:105260006316CE0101960E946316809188028823FE
:1052700021F080918D020E94F61889E193E00E944E
:10528000AA09892B09F45CC16CE771E0CE010D9687
:105290000E94CC170E94540997FD0FC08A309105D7
:1052A00061F089831A8241E050E0BE016F5F7F4F59
:1052B000CE010D960E94CE16EDCF89899A89892B51
:1052C00009F4CBC0ED85FE85309709F4C6C0108186
:1052D0006CE771E0CE0107960E94CC171D3209F4ED
:1052E00049C30CF0BCC0133209F4A2C31A3209F44A
:1052F000E9C3113209F01CC1F090870221E0F212DB
:1053000017C121E030E050E040E0BE01635F7F4F15
:10531000CE0101960E94E11769E871E0CE01019685
:105320000E949116182FCE0101960E946316112338
:1053300009F4FEC029893A8941E050E0BE01635F6B
:105340007F4FCE0101960E94E11767E0CE010196E2
:105350000E944F1A8C01CE0101960E946316D8015B
:105360001596EC90159714967C90149713966C9064
:10537000139716965C90169712964C90129711966A
:105380003C9011972C90F092990288E68093BB0292
:1053900010929A021092BC0290E080E00E94970B5B
:1053A0006AE0F62E822D6F2D0E9436328295807F24
:1053B000682F690F86E793E00E94680B832D6F2D9D
:1053C0000E9436328295807F682F690F86E793E0CE
:1053D0000E94680B842D6F2D0E9436328295807F4B
:1053E000682F690F86E793E00E94680B852D6F2D6B
:1053F0000E9436328295807F682F690F86E793E09E
:105400000E94680B862D6F2D0E9436328295807F18
:10541000682F690F86E793E00E94680B872D6F2D38
:105420000E9436328295807F682F690F86E793E06D
:105430000E94680B8E2D6F2D0E9436328295807FE0
:10544000682F690F86E793E00E94680B0E942A0A82
:10545000C801012B09F0E7C2E8C210E039CF1C37C0
:1054600009F430C21D3709F460C01B3709F060C071
:1054700021E030E050E040E0BE01635F7F4FCE01AD
:1054800001960E94E11763E871E0CE0101960E9447
:105490009116182FCE0101960E946316112309F46C
:1054A00047C029893A8941E050E0BE01635F7F4FE0
:1054B000CE0101960E94E11765E0CE0101960E949F
:1054C0004F1A8C01CE0101960E94631685E0EEE131
:1054D000F1E0DE01119601900D928A95E1F7CE017F
:1054E0000196D80198012B5F3F4FFC015191CF01EC
:1054F0004D91E52FF0E0ED57FD4F40832A173B0714
:10550000A1F70E948A0760937D0270937E028093C8
:105510007F029093800281E080937C020115110547
:1055200039F0C8010E940C3303C081E00E947E184C
:10553000CE0107960E946316CE010D960E94631657
:105540000E948A0700916A0210916B0220916C02FE
:1055500030916D02601B710B820B930B683E7340A0
:105560008105910508F4A6C10E948A0760936A022A
:1055700070936B0280936C0290936D02809187020E
:10558000813009F097C180916E02823009F0FBC230
:1055900010926E020E941D1481E08093990288E6A9
:1055A0008093BB0210929A021092BC0290E080E0BD
:1055B0000E94970B0E942A0A67E070E088E690E05C
:1055C0000E94301186E793E00E94210B982F92955C
:1055D00097702AE0E22E8F70F82E9E9DF00C112419
:1055E00086E793E00E94210B982F92959F708F7011
:1055F000082F9E9D000D112486E793E00E94210B49
:10560000982F929593708F70182F9E9D100D1124D6
:1056100086E793E00E94210B982F92959F708F70E0
:10562000582E9E9D500C112486E793E00E94210B7A
:10563000982F92959F708F70682E9E9D600C1124FC
:1056400086E793E00E94210B982F92959F708F70B0
:10565000782E9E9D700C112486E793E00E94210B0A
:10566000982F92959F708F709E9D800D1124E82E2B
:105670006F2DCE0185960E947F17F9E06FE771E0EC
:10568000FF1510F46CE771E0CE014F960E94CC1725
:10569000602FCE0149960E947F176FE771E00A30B4
:1056A00010F06CE771E0CE0143960E94CC17612F99
:1056B000CE010D960E947F176FE771E01A3010F04F
:1056C0006CE771E0CE0101960E94CC17BE016F5FBE
:1056D0007F4FCE0107960E94C317BE01635F7F4FC5
:1056E000CE0107960E94411767E971E00E942B17CF
:1056F000BE016D5E7F4F0E944117BE01675E7F4F06
:105700000E94411767E971E00E942B17BE01615E9C
:105710007F4F0E944117BE016B5D7F4F0E94411772
:10572000BC01CE018B960E94C317CE0107960E9442
:105730006316CE0101960E946316CE010D960E945B
:105740006316CE0143960E946316CE0149960E94CD
:105750006316CE014F960E946316CE0185960E9475
:1057600063166E2DCE014F960E947F17672DCE01D6
:1057700049960E947F1729E06FE771E0271510F422
:105780006CE771E0CE0143960E94CC17662DCE01E6
:105790000D960E947F1739E06FE771E0361510F41F
:1057A0006CE771E0CE0101960E94CC17BE016F5FDD
:1057B0007F4FCE0107960E94C317BE01635F7F4FE4
:1057C000CE0107960E94411769E971E00E942B17EC
:1057D000BE016D5E7F4F0E944117BE01675E7F4F25
:1057E0000E94411769E971E00E942B17BE01615EBA
:1057F0007F4F0E944117BC01CE0185960E94C317BE
:10580000CE0107960E946316CE0101960E94631690
:10581000CE010D960E946316CE0143960E94631638
:10582000CE0149960E946316CE014F960E946316E0
:105830008FEF9FEF909368048093670469E070E0B6
:10584000CE018B960E946B1670E060E08CE190E0D8
:105850000E94AB1469E070E0CE0185960E946B1641
:1058600061E170E08CE190E00E94AB14E52DF0E086
:10587000EE0FFF1FEE5CFE4F60817181CE0101963D
:105880000E94CC176AE070E0CE0101960E946B1670
:10589000CE0101960E94631662E270E08CE190E016
:1058A0000E94AB14CE0185960E946316CE018B96A2
:1058B0000E94631680E090E0892B09F443CA0E949D
:1058C00000003CCA6CE771E0CE0107960E94751794
:1058D00011E0E5E6FE2E20918902211708F44EC161
:1058E00030918B02812F90E0239F800D911D112418
:1058F000F89E2001F99E500C1124F1E04F1A510836
:10590000052C000C66087708C301B2010E94091239
:10591000082F853030F040E0C301B2010E943412FC
:1059200000E080918902BE01695F7F4F1817C1F0C6
:10593000CE0101960E94C317602FCE0101960E94EE
:10594000FA166DE771E00E942B17BC01CE01079695
:105950000E94AC17CE0101960E9463161F5FBBCF59
:10596000CE0101960E94C317602FCE0101960E94BE
:10597000FA16EBCF21E030E050E040E0BE01635F7B
:105980007F4FCE0101960E94E11765E871E0CE01DC
:1059900001960E949116182FCE0101960E9463165F
:1059A000112309F4C5CD29893A8941E050E0BE01AF
:1059B000635F7F4FCE0101960E94E11766E6CE013C
:1059C00001960E944F1A7C01CE0101960E94631637
:1059D00030918B0220918902D7018D918D0190E049
:1059E000329F800D911D112425E6289F2001299FBB
:1059F000500C1124052C000C6608770875E6372E2C
:105A0000F80141918F01C301B2010E9434123A940E
:105A1000FFEF4F1A5F0A6F0A7F0A3110F1CFE114CE
:105A2000F10419F0C7010E940C330E94E70580CDF4
:105A300010918702113009F07BCD21E030E050E079
:105A400040E0BE01635F7F4FCE0101960E94E117E7
:105A500067E871E0CE0101960E949116082FCE01F1
:105A600001960E946316002309F462CD10936E0222
:105A70000E948A0760936F02709370028093710294
:105A80009093720229893A8941E050E0BE01635F38
:105A90007F4FCE0101960E94E11765E0CE0101968D
:105AA0000E944F1A8C01CE0101960E946316F801E4
:105AB000A5E6B2E0C801059621912D938E179F07A8
:105AC000D9F72CCD29893A8941E050E0BE01635FC6
:105AD0007F4FCE0101960E94E11789819A81E12CC6
