:100000000C9428040C9450040C9450040C94500448
:100010000C9450040C9450040C9450040C94500410
:100020000C9450040C9450040C943F210C94BC216B
:100030000C9450040C9450040C9450040C945004F0
:100040000C9450040C9450040C9450040C945004E0
:100050000C9450040C9450040C9450040C94F5200F
:100060000C9450040C9450040C9450040C945004C0
:100070000C9450040C9450040C9450040C945004B0
:100080000C9450040C9450040C9450040C945004A0
:100090000C94EE230C9450040C9450040C945004D3
:1000A0000C9450040C9450040C9450040000000074
:1000B0000000000001010101010101010202020230
:1000C00002020203030303030404040505050505F6
:1000D000060606060707070808080808090A0A0AA4
:1000E0000A0B0B0C0C0C0C0D0D0D0E0E0F0F0F1040
:1000F00011111111121213141414141516161717C6
:10010000171819191A1A1B1B1C1C1D1E1E1F1F2035
:1001100021212223232425252626272829292A2B85
:100120002C2D2D2E2F2F30313233343536363738B3
:1001300038393A3B3C3D3E3F4041424344454546C9
:1001400047494A4B4C4D4E4F5051525455565759B2
:100150005A5B5D5E5F60616264656667696A6C6D6B
:100160006E6F7173757677797A7B7C7F80828385F9
:100170008688898B8C8F9192939497999A9C9E9F55
:10018000A2A3A5A7A9ABADAEB0B3B4B6B9BABCBE75
:10019000C0C2C4C7C9CACDCFD1D3D6D8DADCDFE15B
:1001A000E2E6E7EBECF0F1F5F6FAFBFF01FF961162
:1001B000FFFFB103012C2DB203012C2DB306012C3E
:1001C0002D012C2DB40107B6021502C003A2028432
:1001D000C101C5C2020A00C3028A2AC4028AEEC54E
:1001E000010E20003601003A0105E0100F1A0F1829
:1001F0002F2820221F1B233700070210E1100F1B9E
:100200000F17332C292E3030393F0007031029FFF8
:100210006413FF0A080B0002020200000904000038
:10022000010202000005240010010524010101045F
:100230002402060524060001070581031000400979
:10024000040100020A000000070502024000000746
:100250000583024000000403090412010002EF02BA
:10026000014041233780000101020301417264759E
:10027000696E6F204C4C430041726475696E6F204B
:100280004D6963726F000000000000000000010172
:100290000101010101010202020202020203030341
:1002A00003030404040505050505060606060707FD
:1002B000070808080808090A0A0A0A0B0B0C0C0CA4
:1002C0000C0D0D0D0E0E0F0F0F101111111112123A
:1002D00013141414141516161717171819191A1AB7
:1002E0001B1B1C1C1D1E1E1F1F202121222323241B
:1002F00025252626272829292A2B2C2D2D2E2F2F60
:100300003031323334353636373838393A3B3C3D84
:100310003E3F404142434445454647494A4B4C4D88
:100320004E4F50515254555657595A5B5D5E5F605F
:10033000616264656667696A6C6D6E6F717375760C
:1003400077797A7B7C7F808283858688898B8C8F86
:100350009192939497999A9C9E9FA2A3A5A7A9ABCB
:10036000ADAEB0B3B4B6B9BABCBEC0C2C4C7C9CAD8
:10037000CDCFD1D3D6D8DADCDFE1E2E6E7EBECF0A3
:10038000F1F5F6FAFBFF000608200000000000006F
:100390000000002F000000000700070000147F1479
:1003A0007F1400242A7F2A12002313086462003677
:1003B0004955225000000503000000001C224100A6
:1003C000000041221C000014083E08140008083EEA
:1003D0000808000000A060000008080808080000E5
:1003E00060600000002010080402003E5149453EB4
:1003F0000000427F400000426151494600214145D2
:100400004B31001814127F10002745454539003C38
:100410004A49493000017109050300364949493606
:1004200000064949291E00003636000000005636F5
:1004300000000008142241000014141414140000D9
:100440004122140800020151090600324959513E67
:10045000007C1211127C007F49494936003E41411F
:100460004122007F4141221C007F49494941007FD0
:1004700009090901003E4149497A007F0808087FBF
:100480000000417F4100002040413F01007F0814EF
:100490002241007F40404040007F020C027F007FED
:1004A0000408107F003E4141413E007F09090906D2
:1004B000003E4151215E007F091929460046494905
:1004C00049310001017F0101003F4040403F001FD2
:1004D0002040201F003F4038403F00631408146351
:1004E00000070870080700615149454300007F413B
:1004F000410000552A552A55000041417F00000463
:10050000020102040040404040400000010204009B
:10051000002054545478007F484444380038444400
:10052000442000384444487F00385454541800088C
:100530007E0901020018A4A4A47C007F08040478AA
:100540000000447D4000004080847D00007F102832
:1005500044000000417F4000007C04180478007CC7
:100560000804047800384444443800FC2424241847
:100570000018242418FC007C080404080048545483
:10058000542000043F444020003C4040207C001C9C
:100590002040201C003C4030403C004428102844AF
:1005A000001CA0A0A07C004464544C4400000877C8
:1005B00000000000007F000000007708000000102D
:1005C0000810080014141414141400008080808093
:1005D000E0E07E7E6060606060607F7F60606060A1
:1005E00060607E7EE0E0808080800080818181810B
:1005F000FFFF000000FCFCFCFCFCFCFCFCFCFCFC29
:10060000FC000000FFFF8181818180018181818167
:10061000FFFF0000003F3F3F3F3F3F3F3F3F3F3F27
:100620003F000000FFFF8181818101000101010184
:1006300007077E7E060606060606FEFE0606060678
:1006400006067E7E07070101010100181818F8F858
:10065000C0C0C0C0C040C0C0C0C0C0C0C0C0C0C01A
:10066000404040C0C0C0C0C0C0C0C0008F8FFFFFAE
:10067000FFFFFFF1E0CEE0F1FF3F8FE7E3C1C0C62F
:100680003EBF3EC6C0C1E3E78F3FFF809C9CFFFF9B
:10069000FFFFFFE3C19CC1E3FFFEF8F3E3C181B1BB
:1006A0003E7E3EB181C1E3F3F8FEFF0000001F1F54
:1006B000000000000000001F071F071F071F071F83
:1006C000071F071F071F070000000000000000238E
:1006D00000260029002C002F000000000200090F56
:1006E0000000030401000C000000000000000000F6
:1006F0000000000000000000050C0901A1018501B7
:1007000015002501750195180A23020A8A011A2489
:10071000022A27020A21020A2A0209CD09B709B6CC
:1007200009B509E909EA09E20A83010A01020A0294
:10073000020A07020A1A020A79021A1B022A1D0279
:100740008102C000000000000000002A2B280000E9
:100750000000000000000000000000000000000099
:100760000000002C9EB4A0A1A2A434A6A7A5AE367A
:100770002D3738271E1F20212223242526B333B6E8
:100780002EB7B89F8485868788898A8B8C8D8E8FBB
:10079000909192939495969798999A9B9C9D2F31BE
:1007A00030A3AD350405060708090A0B0C0D0E0F22
:1007B000101112131415161718191A1B1C1DAFB19E
:1007C000B0B50005010906A1018502050719E02958
:1007D000E7150025017501950881029501750881CD
:1007E00003950675081500257305071900297381FF
:1007F00000C000000000240027002A002D00300067
:1008000000000000250028002B002E003100040409
:1008100004040403040502020202040302020202A9
:100820000606060606060404020202040404080280
:100830000110408040102040804080080204018068
:10084000402010020110801020404020402513302D
:1008500011241FBECFEFDAE0DEBFCDBF11E0A0E074
:10086000B1E0ECE1FCE602C005900D92A23EB107BA
:10087000D9F724E0A2EEB1E001C01D92A739B2077A
:10088000E1F714E0C7E2D4E004C02197FE010E9422
:10089000CD33C632D107C9F70E94EB260C9401363E
:1008A0000C9400004F925F926F927F928F929F9272
:1008B000AF92BF92CF92DF92EF92FF920F931F936E
:1008C000CF93DF9300D01F92CDB7DEB780915B044A
:1008D000E0915304F09154049081982B90935D041F
:1008E00090818095892380935E0480914A0480934F
:1008F0004B048091600490916104039721F48FB7B9
:1009000080935F04F89400915104109152040115F2
:10091000110509F492C0D0904A04EEECF3E066E4CD
:1009200074E020E030E0A901ED2CF12CC701019624
:10093000C480C89ED001C99EB00D1124AB2FBB2727
:100940002A0F3B1F411D511DC580C89ED001C99E65
:10095000B00D1124AB2FBB272A0F3B1F411D511D8A
:10096000C680C89ED001C99EB00D1124AB2FBB27F5
:100970002A0F3B1F411D511D33966E177F07C1F68D
:10098000232F342F452F552747FD5A95A091CE038D
:10099000B091CF030E949C3223E030E040E050E071
:1009A0000E94723249015A018091D0039091D10383
:1009B00081149104A104B104F1F169E170E00E9495
:1009C000B933CB01072E000CAA0BBB0B880D991D68
:1009D000AA1DBB1D2801012E000C6608770884158E
:1009E0009505A605B7053CF1C801861B970BBC0110
:1009F000072E000C880B990B0E9463312B013C01E0
:100A0000B701FF0C880B990B0E9463319B01AC016D
:100A1000C301B2010E949E316B017C01C501B4018A
:100A20000E9463319B01AC01C701B6010E940C33E7
:100A30000E947E33D62ED0924B04EEECF3E006E417
:100A400014E07E0194E0E90EF11C5581468180910D
:100A50004B0490E001966481689F9001699F300D7E
:100A600011243A83589F9001599F300D11243983E6
:100A7000489F9001499F300D11243B838091600471
:100A800090916104029721F48FB780935F04F894EA
:100A9000BE016F5F7F4FDB018D91BD01209160042E
:100AA000309161042130310521F49FB790935F04A8
:100AB000F89490915D0420915E04A0915304B0914C
:100AC000540438E09C9387FF2C93880F43E04A95A9
:100AD000F1F700002C933A95A9F78091600490916A
:100AE00061048130910519F420915F042FBFE6164F
:100AF000F70609F0D0CF8230910519F420915F04F8
:100B00002FBF33960E171F0709F09FCF039719F4D5
:100B100080915F048FBF0F900F900F90DF91CF9166
:100B20001F910F91FF90EF90DF90CF90BF90AF900B
:100B30009F908F907F906F905F904F90089583E08B
:100B40008093E9008091F200882319F08AE3809372
:100B5000E8000895FC0180919702882311F13FB7C6
:100B6000F89482E08093E9002091F200822F90E0D7
:100B70001816190614F481E090E0882339F0289AB9
:100B800044E6409396024091F1004083222339F0DD
:100B90002091F200211103C02BE62093E8003FBF13
:100BA00008958FEF9FEF089581508F3008F047C070
:100BB000E82FF0E0E252FA4F0C94CD33FB05FF052D
:100BC000ED05F305F7051F061F061F0602060806BA
:100BD0000C06100616061F061A06809180008F77F5
:100BE000809380000895809180008F7DF9CF80915F
:100BF0008000877FF5CF84B58F7784BD089584B555
:100C00008F7DFBCF809190008F7780939000089527
:100C1000809190008F7DF9CF80919000877FF5CFF4
:100C20008091C0008F778093C00008958091C000AC
:100C30008F7DF9CF8091C200877F8093C200089595
:100C4000CF93DF93282F30E0F901E752F94F8491D9
:100C5000F901E35DF74FD491F901E25FF74FC491D9
:100C6000CC23A1F081110E94D405EC2FF0E0EE0F0F
:100C7000FF1FE553F94FA591B491EC91ED2381E06D
:100C800090E009F480E0DF91CF91089580E090E05A
:100C9000FACF1F93CF93DF93282F30E0F901E7526B
:100CA000F94F8491F901E35DF74FD491F901E25FC7
:100CB000F74FC491CC23A9F0162F81110E94D405BF
:100CC000EC2FF0E0EE0FFF1FE050F84FA591B4912C
:100CD0008FB7F894EC91111108C0D095DE23DC9306
:100CE0008FBFDF91CF911F910895DE2BF8CFCF9367
:100CF000DF9390E0FC01E35DF74F2491825F974F13
:100D0000FC0184918823C9F090E0880F991FFC01B1
:100D1000EE50F84FA591B491FC01E050F84FC59109
:100D2000D49161110DC09FB7F8948C9120958223C6
:100D30008C938881282328839FBFDF91CF910895CA
:100D4000623051F49FB7F8943C91822F80958323B1
:100D50008C93E8812E2BEFCF8FB7F894EC912E2B4C
:100D60002C938FBFEACF3FB7F89480919102909176
:100D70009202A0919302B091940226B5A89B05C05F
:100D80002F3F19F00196A11DB11D3FBFBA2FA92F0A
:100D9000982F8827BC01CD01620F711D811D911D07
:100DA00042E0660F771F881F991F4A95D1F7089573
:100DB0002FB7F89460918D0270918E0280918F020E
:100DC000909190022FBF08950C949F050895089567
:100DD0000895409158025091590220915602309145
:100DE000570242175307B4F49091E8009570E1F36D
:100DF0009091E80092FD19C08093F1008091580213
:100E00009091590201968F739927892B19F48EEFCF
:100E10008093E80080915802909159020196909336
:100E200059028093580281E0089580E00895DF928E
:100E3000EF92FF920F931F93CF93DF93D82E8A01E7
:100E4000EB017B01E40EF51ECE15DF0559F0D7FE50
:100E500012C0FE0184910E94E90621968111F4CF0F
:100E60000FEF1FEFC801DF91CF911F910F91FF90FE
:100E7000EF90DF9008958881EECF2FB7F8948770B8
:100E80008093E9009091E800892F807295FF04C05B
:100E90009091F20080E4891B2FBF0895615030F0DB
:100EA0002091F100FC0120830196F8CF289A84E676
:100EB00080939602089580914E0281110DC082E0C8
:100EC00080934A0284E080934B0210924D0210926C
:100ED0004C0281E080934E028AE492E008950F93E1
:100EE0001F93CF93DF931F92CDB7DEB782E0898344
:100EF00042E450E064E172E080E80E9417070E943B
:100F00005B07DC0112960D911C910115110589F00A
:100F1000D801ED91FC910280F381E02DBE016F5F5D
:100F20007F4FC801099597FD04C0F8010085118520
:100F3000ECCF89810F90DF91CF911F910F91089590
:100F4000CF93DF931F92CDB7DEB76983DC01ED91BC
:100F5000FC910280F381E02D41E050E0BE016F5F23
:100F60007F4F09950F90DF91CF91089583E00E9404
:100F70003D0790E00895CF93DF931F92CDB7DEB782
:100F8000FC018485958597FD08C02FEF3FEF3587DD
:100F900024870F90DF91CF910895CE0101960E9492
:100FA000AA05019719F4898190E0F3CF8FEF9FEFA5
:100FB000F0CF0F931F930E94D80660932B0370937A
:100FC0002C0380932D0390932E0383E293E00E94E1
:100FD000BB0797FF1DC00E94D80600912B031091FC
:100FE0002C0320912D0330912E03601B710B820B7B
:100FF000930B00912703109128032091290330912E
:101000002A036017710782079307F8F28FEF9FEFAB
:101010001F910F9108950F931F93CF93DF931F920A
:10102000CDB7DEB78C01FC018485958597FF0BC099
:10103000CE0101960E94AA05019771F4898190E082
:10104000F80195878487F801848595850F90DF9155
:10105000CF911F910F9108958FEF9FEFF1CFFC017A
:101060008485958597FD0BC09FB7F89482E08093A7
:10107000E9008091F2009FBF90E0019608959FB72C
:10108000F89482E08093E9008091F2009FBF90E0A5
:10109000089520912702260F3327331F213231056F
:1010A000ECF42091E202FC0190E080E0243069F051
:1010B00082E00895A09127022191AC01495F5D4F24
:1010C000A40FB52FB11D2C930196861798F380912C
:1010D0002702680F6093270280E0089581E0089559
:1010E0001092E20281E08093E1021092DC0261E062
:1010F00082E00E94490661E083E00E944906E9EB34
:10110000F0E080818E7F808380818D7F808388E482
:101110008093B80085E48093BC000895CF93DF935B
:1011200091E0909306028823B9F0C091B800D09165
:10113000BA008091BC008A7B8093BC0060E082E0B2
:101140000E94490660E083E00E9449060E94700800
:10115000D093BA00C093B800DF91CF910895CF9299
:10116000DF92EF92FF920F931F93CF93DF93D09173
:10117000BB0281E0D13208F09CC0C091BA020E944B
:10118000B3066B017C018091E20281116CC082E0A8
:101190008093E20281E08093E1028FEF8093E0028E
:1011A0001092DF02D093DE02AAE9B2E0ECEBF2E0AB
:1011B00080E0D8138DC01092DD028091DD02CC0F4B
:1011C000C82BC093DD028091DC02813009F084C01D
:1011D0001092DC020E94B3066B017C018091DD025B
:1011E0008093BB008091E4029091E502A091E60219
:1011F000B091E702892B8A2B8B2BA1F00E94B306BA
:101200000091E4021091E5022091E6023091E7029C
:101210006C197D098E099F090617170728073907DA
:1012200008F442C08091BC0083FDD8CF85EC809348
:10123000BC000E94B3066B017C018091E202823007
:1012400009F44CC08091E0028F3F09F469C080919D
:10125000E002803209F466C08091E002803309F434
:1012600063C084E026C08091E4029091E502A091E1
:10127000E602B091E702892B8A2B8B2B09F483CFEE
:101280000E94B3060091E4021091E5022091E6026B
:101290003091E7026C197D098E099F09061717071F
:1012A0002807390708F06FCF8091E3020E948E086B
:1012B00085E0109299021092BB0210929802DF9181
:1012C000CF911F910F91FF90EF90DF90CF900895F5
:1012D0009D9191938F5F6DCF85EEA9CF8091E402B0
:1012E0009091E502A091E602B091E702892B8A2B4A
:1012F0008B2B09F4A2CF0E94B3060091E402109157
:10130000E5022091E6023091E7026C197D098E0911
:101310009F09061717072807390708F08ECFC4CF93
:1013200080E0C7CF82E0C5CF83E0C3CF0895E091CE
:10133000E9028091E802E81730F4F0E0E651FD4F51
:10134000808190E008958FEF9FEF08959091E902DA
:101350008091E8022FEF3FEF981748F4E92FF0E073
:10136000E651FD4F208130E09F5F9093E902C90173
:1013700008958091E8029091E902891B990B0895E4
:10138000CF92DF92EF92FF920F931F93CF93DF9351
:101390007C01CB018A0120919802222389F0EB0184
:1013A0006B01C40ED51ECC15DD0569F06991D7011E
:1013B000ED91FC910190F081E02DC7010995F3CFEB
:1013C000642F0E944908C801DF91CF911F910F91AE
:1013D000FF90EF90DF90CF900895CF93DF931F920F
:1013E000CDB7DEB76983209198022223F9F02091CE
:1013F000BB02203258F021E030E0FC01338322832D
:1014000090E080E00F90DF91CF9108958091990254
:10141000E82FF0E0E656FD4F998190838F5F80932F
:1014200099028093BB0281E090E0ECCF61E0CE01B5
:1014300001960E944908F7CF682F80E893E00C944A
:10144000ED099FB7F89480910502882319F0815027
:101450008093050280910502811105C08CB58F7BB8
:101460008CBD109204029FBF08950C94490687FD1D
:1014700006C070E0082E000C990B0C94350A0895F4
:10148000FC01808187FD07C061E070E0082E000C40
:10149000990B0E94350A80910402882361F09FB75E
:1014A000F8942091040280910302213019F48DBB3D
:1014B0009FBF08958FBF08958EBD00000DB407FE35
:1014C000FDCF8EB50895FB0124913196E491322F22
:1014D0002E2FFB013296E491E11103C090E080E0F1
:1014E00008956D5F7F4FDC01FC914217530730F088
:1014F000D901AE0FB11D4A175B0728F0EF9F600DB1
:10150000711D1124E0CF421B530BF49FC001F59FC6
:10151000900D1124860F971F0895EF92FF920F935D
:101520001F93CF93DF934115510509F44BC08A01F6
:101530007B01EC018981FA0180838A8181838F811B
:10154000828368857985F0E8EF16F10490F488814C
:1015500081110FC06115710579F08B81E81AF108CE
:101560002E812E9DC0012F9D900D1124860F971F57
:1015700026C061157105E1F46A857B8561157105E9
:1015800041F54B8188859985242F042E000C330B5F
:10159000241B31094E81429FB001439F700D1124DD
:1015A00028812130F1F030E020E0620F731FDECFA0
:1015B000A701CE0106960E94630A0097E9F2F8019E
:1015C00094838383DF91CF911F910F91FF90EF90D0
:1015D0000895A701CE0106960E94630A009779F745
:1015E000D0CF23E030E0E1CFDC01FB0112962C915B
:1015F0001297848195812817190641F49181808181
:10160000813A31F49D7F81E0913009F080E00895C6
:101610008132E1F79B3029F482811F968C9381E01F
:1016200008959A3099F7828150968C93F8CFDC0117
:10163000FB0188E4808389E4818384E482831D96AE
:101640009C911D979F709F5B93831D968D919C919C
:1016500024E0969587952A95E1F78F708F5B8483B8
:1016600085E00895EF92FF920F931F93CF93DF933E
:10167000FB012081213871F52381223259F5DC01EB
:1016800012964C91248135814217130619F5EC010D
:101690000B851C85F12CE12C0115110589F0F80151
:1016A000448155816281738180E80E9417078F3FD2
:1016B000980749F0E80EF91ED8010D911C91ECCF66
:1016C00081E08F87C701DF91CF911F910F91FF902C
:1016D000EF90089590E080E0F6CFCF93DF93CDB701
:1016E000DEB769970FB6F894DEBF0FBECDBFFC0121
:1016F000DB018C918F5F8C939E012D5F3F4F8DE0BE
:10170000D9011D928A95E9F729E0298384E08A832B
:1017100091E09D8383E08E832A8721E22B879C873B
:101720009D879F8722E2288B27E02B8B25E02C8B3F
:101730008E8B20E430E0388F2F8B998F82818B83C2
:1017400095858685998B8A8B838180688D8B49E10D
:1017500050E0BE016F5F7F4F80E00E9417076996DF
:101760000FB6F894DEBF0FBECDBFDF91CF910895C5
:10177000CF93DF938091FB01811167C081E080935B
:10178000EE018093EF0124EF31E03093F1012093DB
:10179000F0011092F3011092F20128E231E030934F
:1017A000EB012093EA011092F6011092F5011092DC
:1017B000F8011092F7018093F9018093FA0181EC0E
:1017C0008093F4010E945B07FC0181819091EE01FE
:1017D000482F490F5527551F483051059CF5A281C8
:1017E000B381109709F52AEE31E0338322832081FB
:1017F0002093EC018093ED018091EF01820F8083B3
:101800002091F001A22FB091F1018A2F821B89173C
:10181000C8F481813D91C82FD0E0C050DF4F38839C
:101820008F5F8183F2CFD90118962D913C91199742
:1018300021153105C1F72AEE31E019963C932E931C
:101840001897D5CF81E08093FB018AEE91E0DF917C
:10185000CF910895CF92DF92EF92FF920F931F9353
:10186000CF93DF936C01EB017B01E40EF51E10E0DA
:1018700000E0CE15DF0581F069916D30D1F3D6011E
:10188000ED91FC910190F081E02DC6010995892B25
:1018900019F00F5F1F4FEDCFC801DF91CF911F915E
:1018A0000F91FF90EF90DF90CF90089590E080E04F
:1018B0000895E42FF0E0E455FF4F4491E62FF0E067
:1018C000E455FF4F7491E82FF0E0E455FF4F649129
:1018D000842F0895682F660F680F8B3A38F082E0E6
:1018E000860F482F409560E00C94590C863530F0F7
:1018F00041E0460F642F609580E0F6CF862F8095FB
:1019000040E0F2CFFC01218524FD08C025FF06C080
:1019100084818095881F8827881F089580E0089516
:10192000FC0191859073903331F484818095881FF8
:101930008827881F089580E008951F93CF93DF9331
:10194000EC018B819C8194FB112710F9162796FFDF
:1019500004C09F7B9C838B8311E08B819C8191FDD4
:1019600005C0112311F192609C838B830E94D806DD
:1019700029813A81FB01E21BF30B2B813C8111236E
:10198000E9F125FD1FC04D8132FD14C0442391F0C3
:1019900034603C832B837A8369838B819C818F7134
:1019A000992711E0892B09F410E0812FDF91CF9165
:1019B0001F9108954E171F0619F010F04111EDCF39
:1019C0002262E7CF37FDE9CF26FD0AC04F81A0E1B3
:1019D0004A9FA0011124E417F507F8F22464D9CF37
:1019E00027FF0AC04885A0E14A9FA001112428686A
:1019F000E417F50770F6D1CF4F81F5CF25FF19C059
:101A00008D818E171F0609F060F426FD03C08881C2
:101A10008F5F888337FD18822F7D206131603C8382
:101A20002B838B819C8192FFB8CF9B7F9C838B8380
:101A3000B4CF30FF0DC037FD03C020613C832B8342
:101A40002B813C813E773C832B837A836983E9CF6A
:101A50004881442379F0C901807C9927892B41F47E
:101A60008E8140E1849FC0011124E817F907C8F274
:101A70002160D5CF31FFD5CF2F733D7F3860E3CFC5
:101A80000F931F93CF93DF93EC01162F642F0E94C7
:101A90009D0C082F8C859D85009741F1298581FF3C
:101AA00021C020612987298582FF1EC028602987DF
:101AB00073E0969587957A95E1F79D878C878B8162
:101AC0009C8185FF91C090689C838B838B819C81D6
:101AD00093FD03C098609C838B838985806289878E
:101AE00081E007C02F7EDECF277FE1CF17FF07C041
:101AF00080E0802BDF91CF911F910F9108954A854F
:101B0000242F2295207F2595259525952595022E14
:101B1000000C330B812F012E000C990B281739076D
:101B200039F3220F331F220F331F282B392B220F9B
:101B3000331F81E696E1A4E9B9E404C0B595A79501
:101B4000979587952A95D2F7837045954595459544
:101B500045954150840F8295807F85958595859523
:101B60008595982F9295907F212F2F70922B9A8791
:101B7000907F09F4BDCF9985292F2370213049F139
:101B800020F1223049F131E018160CF030E092FBE0
:101B9000222720F98A858F708A87321709F1906190
:101BA00099870E94D80629813A81AB01421B530BC9
:101BB0009A014B8559857A836983852F42171306CD
:101BC00089F080F0886089877ACF133009F090CF50
:101BD000DACF1123C1F28CCF11501230A0F688CF8A
:101BE0009F7EDECF877FEFCF188270CFFC0183818D
:101BF000948191708436910591F1B0F4823291050F
:101C000009F43FC040F48130910591F1409769F1AA
:101C100090E080E008958134910569F18035910567
:101C2000B9F780E890E00895883E9105D9F048F42E
:101C3000813C910519F1803D910551F780E092E0DA
:101C400008958035F1E09F0739F0803D21E092074B
:101C500019F080319140E1F688E090E0089582E04B
:101C600090E0089584E090E0089580E190E0089588
:101C700080E290E0089580E091E0089580E094E0B3
:101C8000089581E090E00895FC012381348120FDD6
:101C90001082C9018F719927892B19F0207E348316
:101CA000238308951F93CF93DF93EC01162F0E9497
:101CB000440E612FCE01DF91CF911F910C949D0CAA
:101CC0008F929F92AF92BF92CF92DF92EF92FF924C
:101CD0000F931F93CF93DF937C01D62F0E94B306FF
:101CE0004B015C018091E202811167C0CD2F81E040
:101CF0008093E2028093E1029FEF9093E0021092C2
:101D0000DF029D0F9093DE028093DD028091DD0261
:101D1000EE0CFF1C8E298093DD028091DC02813065
:101D200009F083C01092DC020E94B3066B017C01B3
:101D30008091DD028093BB008091E4029091E502E6
:101D4000A091E602B091E702892B8A2B8B2BA1F0A0
:101D50000E94B3068090E4029090E502A090E60213
:101D6000B090E7026C197D098E099F0986169706C7
:101D7000A806B90608F442C08091BC0083FDD8CF04
:101D800085EC8093BC000E94B3066B017C018091BE
:101D9000E202813009F44BC08091DF028D1710F40C
:101DA000C091DF02ECEBF2E0AAEEB2E080E08C172B
:101DB00051F191919D938F5FFACF8091E4029091C0
:101DC000E502A091E602B091E702892B8A2B8B2BCA
:101DD00009F488CF0E94B3060091E4021091E50255
:101DE0002091E6023091E702681979098A099B0976
:101DF000061717072807390708F074CF8091E30208
:101E00000E948E08C0E01092E902C093E8028C2F75
:101E1000DF91CF911F910F91FF90EF90DF90CF90C6
:101E2000BF90AF909F908F90089585EEAACF80913C
:101E3000E4029091E502A091E602B091E702892BBD
:101E40008A2B8B2B09F4A3CF0E94B3068090E40267
:101E50009090E502A090E602B090E7026C197D092F
:101E60008E099F0986169706A806B90608F08FCF37
:101E7000C5CF5F926F927F928F929F92AF92BF92E7
:101E8000CF92DF92EF92FF920F931F93CF93DF9346
:101E90004C015B01EA01390181E08093980288E6F8
:101EA0008093BA02109299021092BB0290E080E0F7
:101EB0000E941C0A0E94AF0867E070E088E690E08C
:101EC0000E94600E80E893E00E94A609982F9295E8
:101ED00097702AE0522E8F70959D800D1124F40189
:101EE000808380E893E00E94A609982F92959F70C6
:101EF0008F70959D800D1124F501808380E893E01B
:101F00000E94A609982F929593708F70959D800DD1
:101F10001124888380E893E00E94A609982F929567
:101F20009F708F70959D800D1124F301808380E850
:101F300093E00E94A609982F92959F708F70959DAF
:101F4000800D1124F801808380E893E00E94A609A7
:101F5000982F92959F708F70959D800D1124F70199
:101F6000808380E893E00E94A609982F92959F7045
:101F70008F70959D800D1124F6018083DF91CF91A4
:101F80001F910F91FF90EF90DF90CF90BF90AF9097
:101F90009F908F907F906F905F900895CF92DF9287
:101FA000EF92FF926B017C0181E08093980280E5C3
:101FB0008093BA02109299021092BB02BB27AF2DF8
:101FC0009E2D8D2D0E941C0AC60199270E941C0A75
:101FD0000E94AF0861E070E080E590E00E94600E32
:101FE00080E893E00E94A609FF90EF90DF90CF90E9
:101FF00008950F931F93FC01048115812681378179
:1020000040E052E16AE770E090E004171507260708
:10201000370740F476956795579547959F5F9630BB
:10202000A1F797E0292F206A2695909591708091CD
:102030000402882361F08FB7F894309104023130A4
:10204000A1F43DB3309303023DB33DBB8FBF2CBD24
:102050009DBD808187FD0CC070E060E0082E000C03
:10206000990B1F910F910C94350A80930302EFCFC7
:102070001F910F910895CF93DF93EC010E94F90F08
:102080008A8587FD05C060E0DF91CF910C94370A07
:1020900080E0DF91CF910C945C0ADF92EF92FF9287
:1020A0000F931F93CF93DF93EC017B01D42E211567
:1020B000310509F457C08B0101501109020F131F9C
:1020C000CE010E943B108AE20E945C0A61E08A8590
:1020D0000E94370A80E00E945C0A8F858E0D0E9464
:1020E0005C0A80E00E945C0AEB85FC85808191811E
:1020F0000817190710F00FEF080F8F85800F0E9447
:102100005C0A60E08A850E94370A8BE20E945C0AC2
:1021100061E08A850E94370A80E00E945C0A898912
:102120008D0D0E945C0A80E00E945C0AEB85FC85B4
:10213000898981509281890F0E945C0A60E08A85BA
:102140000E94370A8CE20E945C0A8A8587FD11C0D2
:1021500061E0DF91CF911F910F91FF90EF90DF90A1
:102160000C94370AEB85FC8500811181015011091F
:10217000A7CFCE010E94400ACE010E94F90F80E451
:10218000DF91CF911F910F91FF90EF90DF900C9412
:102190005C0ACF92DF92EF92FF9230E020E050E0B5
:1021A00040E070E060E080917D0490917E040E94A8
:1021B0004D1020916A0430916B04A0916C04B09191
:1021C0006D040E94FD326B017C0181E0C81AD108C8
:1021D000E108F1088FEFC816D806E806F80639F0CE
:1021E00080E00E945C0A80E00E945C0AEECF809151
:1021F0007D0490917E04FF90EF90DF90CF900C943F
:10220000400A9F92AF92BF92CF92DF92EF92FF92DD
:102210000F931F93CF93DF936A01D0917904B0900D
:102220007A04A09077049090780420E230E0AB012B
:10223000BC0180917D0490917E040E944D1081E24A
:10224000E82EF12CC1E081E0E81AF108F1F010E08D
:1022500000E0F601E00FF11FE491EC2389F0892DF5
:102260000E945C0A8A2D0E945C0A0F5F1F4F003299
:10227000110579F7C6018096CC0F29F76C01E2CFE2
:102280008B2D0E945C0A8D2FEECF80917D04909162
:102290007E04DF91CF911F910F91FF90EF90DF901F
:1022A000CF90BF90AF909F900C94400A2F923F9296
:1022B0004F925F926F927F928F929F92AF92BF9256
:1022C000CF92DF92EF92FF920F931F93CF93DF9302
:1022D000CDB7DEB729970FB6F894DEBF0FBECDBFDE
:1022E000782E6B01182FE12C212CF12CA0917B046E
:1022F000B0917C0411968C91119790E0880F991FF2
:1023000020916A0430916B04281B390B12171306B5
:1023100009F038F4EF2DF0E0E95EFC4F8081811187
:1023200021C048E0C40ED11C80916C0490916D04D2
:10233000C816D90608F00AC1E39415968C91159732
:1023400090E0880F991FE816190609F07BC0EF2D61
:10235000F0E0E95EFC4F8081882309F4F7C0172D77
:102360002F2CE12C6091150370911603EF2DF0E0F6
:10237000E95EFC4F8081F3946115710509F065C039
:10238000682F70E0803C90F71092160310921503AE
:102390001C96ED91FC911D97AE014F5F5F4FCD01F3
:1023A00009958E2D90E0959587954A819C01E3E0F3
:1023B000220F331FEA95E1F709814217130609F04E
:1023C0000CF4B5C0089F9001099F300D11248C8139
:1023D0009D81820F931F9D838C838E2D81708E83B0
:1023E0001F828E819F81880F991F880F991F99875F
:1023F0008887512E602E611032C0000F100F2B8184
:1024000030E0220F331F612F70E0A60180917D0420
:1024100090917E040E944D1008E0A0907904909065
:102420007A04B12C8B8190E0880F991FB816190699
:102430000CF081C0892D0E945C0A8A2D0E945C0AE2
:10244000B394F0CF172DF22C8DCFF6E0660F771FE7
:10245000FA95E1F7607C77708F73682B95CFEC81EC
:10246000FD81E491F0E0088402C0F595E7950A94B7
:10247000E2F790E080E0A12C84309105B9F09F0153
:10248000082E02C0359527950A94E2F720FF0CC06C
:102490009C01220F331F43E001C0440F2A95EAF745
:1024A000242FA22A0196E8CF20E0FBCF652D70E013
:1024B00022E030E0A60180917D0490917E040E948C
:1024C0004D10912C812CB12CC501082C02C0959582
:1024D00087950A94E2F7409077043090780480FD65
:1024E00004C04090790430907A04832D0E945C0AE5
:1024F000842D0E945C0A832D0E945C0A842D0E9418
:102500005C0A8FEF881A980A98E089169104E1F620
:1025100080917D0490917E040E94400A53945394CC
:102520008C819D8101969D838C836A9464CF8B817D
:10253000800F8B8362CF015009F06FCF180F80910D
:102540007D0490917E040E94400AD0CE29960FB659
:10255000F894DEBF0FBECDBFDF91CF911F910F91D9
:10256000FF90EF90DF90CF90BF90AF909F908F90B3
:102570007F906F905F904F903F902F90089590E0E4
:102580009C01235D374F825F974FF901613009F459
:1025900040C0623001F14491FC015491E52FF0E01C
:1025A000EE0FFF1FEE50F84FA591B4915C9140954E
:1025B00045234C93F9012491FC018491E82FF0E02C
:1025C000EE0FFF1FE050F84FA591B4918C9120952C
:1025D00028232C9308954491FC015491E52FF0E0B9
:1025E000EE0FFF1FEE50F84FA591B4915C9140950E
:1025F00045234C93F9012491FC018491E82FF0E0EC
:10260000EE0FFF1FE050F84FA591B4918C91282B4D
:10261000E0CF2491FC018491E82FF0E0EE0FFF1F42
:10262000EE50F84FF1CF90E0FC01E25FF74FE491FC
:10263000F0E0EE0FFF1FE553F94FA591B4912C91F7
:10264000835D974FFC018491822391E009F490E02F
:10265000892F08951F93CF93DF93EC01862F6E8708
:102660004F87288B60E00E94BF1260E08F850E9438
:10267000BF1262E088890E94BF128B819C819061A9
:102680009C838B838E850E941313182F8F850E9445
:102690001313880F812B982F9F708A85807F892B39
:1026A0008A87DF91CF911F910895CF93DF93EC013B
:1026B00080916204909163040097E9F068817981C8
:1026C00061157105B1F040916404509165042C814D
:1026D0003D814217530768F00E94EB358C819D8144
:1026E00090936704809366041D821C82DF91CF91D2
:1026F00008950E9483348881998190936304809324
:1027000062048A819B8190936504809364048C8128
:102710009D819093670480936604198218821B82BE
:102720001A82E2CFCF93DF93EC01888199810097E1
:1027300011F00E948334198218821D821C821B8230
:102740001A82DF91CF910895FC01808191810097D9
:1027500011F00C9483340895CF93DF93FC01C4816E
:10276000D581209729F410921703DF91CF91089516
:10277000615071096C177D0708F4EB01FC01608161
:102780007181AE0187E193E00E94F235C95EDC4FB2
:102790001882EBCF009711F481E090E00C94E733BE
:1027A0000E94C935FC0124813581232B39F421E0B5
:1027B000FB018081882349F020E007C0808191815E
:1027C0000E94E23521E0892BB9F7822F08950F93FB
:1027D0001F93CF93DF93EC0188819981009759F083
:1027E0002A813B812617370730F081E0DF91CF91B6
:1027F0001F910F9108958B016F5F7F4F0E940C35E1
:10280000009759F0998388831B830A832C813D812B
:10281000232B59F7FC011082E8CF80E0E7CFEF923D
:10282000FF920F931F93CF93DF936115710541F4CE
:1028300080E0DF91CF911F910F91FF90EF9008956D
:1028400041155105B1F07B01EC010C811D81040F94
:10285000151FB8010E94E713882351F3288139819D
:102860008C819D81B701820F931F0E94EB351D83E0
:102870000C8381E0DECFEF92FF920F931F93CF93F3
:10288000DF9300D000D0CDB7DEB77C01862F4AE0C1
:102890008E010F5F1F4FB80190E00E94E630F801F3
:1028A00001900020E9F73197AF01401B510BB801AF
:1028B000C7010E940F14811103C0C7010E94921327
:1028C000C7010F900F900F900F90DF91CF911F9144
:1028D0000F91FF90EF900895CF93DF93EC01FB01F0
:1028E00001900020E9F73197AF01461B570B0E947A
:1028F0000F14811103C0CE010E949213CE01DF910B
:10290000CF910895CF93DF93EC01FB014481558172
:10291000608171810E940F14811103C0CE010E9459
:102920009213CE01DF91CF910895EF92FF920F9312
:102930001F93CF93DF93EC017B018A01BA010E94C0
:10294000E71381110BC0CE010E949213CE01DF91DB
:10295000CF911F910F91FF90EF9008951D830C83ED
:10296000B701888199810E94EB35F0CFFB0101907E
:102970000020E9F73197AF01461B570B0C949514D3
:102980000F931F93CF93DF93CDB7DEB729970FB681
:10299000F894DEBF0FBECDBF8C01862FF8011182E7
:1029A000108213821282158214824AE0BE016F5F88
:1029B0007F4F90E00E943731BE016F5F7F4FC801AB
:1029C0000E94B61429960FB6F894DEBF0FBECDBF95
:1029D000DF91CF911F910F910895CF93DF93EC0179
:1029E000FB018617970749F06081718161157105B8
:1029F00041F0448155810E949514CE01DF91CF9121
:102A000008950E949213F9CFFC0111821082138263
:102A10001282158214820C94ED14FC011182108232
:102A200013821282158214826115710551F0FB0127
:102A300001900020E9F73197AF01461B570B0C942A
:102A400095140895AF92BF92CF92DF92EF92FF92CA
:102A50000F931F93CF93DF936C015B017A01890180
:102A60002417350720F48F2D7901042F182F6DE7D7
:102A700071E0C6010E940D15D5011496CD91DC912F
:102A8000EC16FD06E0F40C171D0708F4E801D5016B
:102A9000ED91FC911197EC0FFD1F108110826D914B
:102AA0007C916E0D7F1DC60161157105A1F00E941C
:102AB000B614F50180819181C80FD91F1883C60112
:102AC000DF91CF911F910F91FF90EF90DF90CF900A
:102AD000BF90AF9008950E949213EBCF85ED809345
:102AE000BC008091E4029091E502A091E602B091D1
:102AF000E7020796A11DB11D23E0B695A79597950E
:102B000087952A95D1F72091BC0024FD03C010922F
:102B1000E20208954091E4025091E5026091E602DC
:102B20007091E702452B462B472B69F30097A105CF
:102B3000B10541F02AE22A95F1F700C00197A109F9
:102B4000B109E1CF8091E3020C948E08FF920F93BC
:102B50001F93CF93DF938C01EB01F8800E945C32CE
:102B6000F81621F06F2DC8010E946432CE01DF916A
:102B7000CF911F910F91FF9008950C945C324F926A
:102B80005F926F927F928F929F92AF92BF92CF92FD
:102B9000DF92EF92FF92CF93DF9300D000D000D06E
:102BA000CDB7DEB789830E94D806C090E301D090EC
:102BB000E401E090E501F090E6016C197D098E09D1
:102BC0009F09663471058105910508F407C1E091FC
:102BD0001303F0E0EA57FD4FE491E0934A040E94AA
:102BE000D8066093E3017093E4018093E50190932C
:102BF000E6013981353108F0F1C0E32FF0E0ED5FF7
:102C0000F94E0C94CD331816441650169516BE1670
:102C1000CA16D616EE16EE16EE16EE16EE16EE16D0
:102C2000EE16EE16EE16EE16EE16EE16EE16E3168F
:102C30004091E2014983842F0E946A0C9B01482F36
:102C4000E2EDF3E08AE494E02193319341938E170F
:102C50009F07D1F759815D5F5093E20126960FB629
:102C6000F894DEBF0FBECDBFDF91CF91FF90EF9004
:102C7000DF90CF90BF90AF909F908F907F906F909C
:102C80005F904F900C945204EEECF3E08FEF84834E
:102C900085838683339694E0E634F907C1F7DECF67
:102CA0001D82C12CD12C7601CA94809110033D81E4
:102CB0003817A0F60E9467302B013C010E94673054
:102CC0004B015C010E94673069837A838B839C830C
:102CD000C301B201A70196010E947232762EC5018E
:102CE000B401A70196010E9472326E8369817A81D4
:102CF0008B819C81A70196010E947232862F472DFD
:102D00006E810E94590C9B01482F5D81852F90E0B8
:102D1000FC01EE0FFF1FE80FF91FE253FC4F248365
:102D2000358346835F5F5D83C0CF19826091100356
:102D30002091E20189818617E8F43FEF839FC0016B
:102D4000112470E00E94B933822F860F0E946A0C12
:102D50009B01482F5981852F90E0FC01EE0FFF1F4A
:102D6000E80FF91FE253FC4F2483358346835F5FEE
:102D70005983DCCF2D5F2093E20170CFEEECF3E0BE
:102D80008FEF848315821682339694E0E634F90738
:102D9000C1F764CFEEECF3E080E8148285831682FD
:102DA000339634E0E634F307C1F758CFEEECF3E0A6
:102DB00086E494E02FEF14821582268333968E17D3
:102DC0009F07C9F74BCFEEECF3E014821582168211
:102DD000339644E0E634F407C1F740CF26960FB6A9
:102DE000F894DEBF0FBECDBFDF91CF91FF90EF9083
:102DF000DF90CF90BF90AF909F908F907F906F901B
:102E00005F904F900895FF920F931F93CF93DF939E
:102E10008C01FF24FA9487349105ACF09C01990F42
:102E2000440B550B2654310941095109A1E0BFEF6C
:102E30000E949F322FE030E040E050E00E9472326A
:102E4000FF24FA94F20E80910F038823E9F1809118
:102E500014030E94BF15CFEFD0E006341105A4F48F
:102E60009801012E000C440B550B275331094109E1
:102E70005109AFEFB0E00E9491322FE030E040E026
:102E800050E00E947232E90180910F03882321F003
:102E9000809114030E94BF150833110584F0053595
:102EA00011051CF0CFEFD0E0F12C80E09F2D8C2B92
:102EB0009D2BDF91CF911F910F91FF900895D0E04E
:102EC000C0E0FF24FA94F1CFCFEFD0E00634110533
:102ED00034F7C6CF8F929F92AF92BF92CF92DF927C
:102EE000EF92FF926B017C010E94B3064B015C01E3
:102EF000C114D104E104F10439F1809195028823D1
:102F000041F080910F03882321F0809114030E94E7
:102F1000BF150E94B306681979098A099B09683EA2
:102F200073408105910520F321E0C21AD108E10820
:102F3000F10888EE880E83E0981EA11CB11CC11414
:102F4000D104E104F10429F7FF90EF90DF90CF90D6
:102F5000BF90AF909F908F9008957F928F929F9295
:102F6000AF92BF92CF92DF92EF92FF920F931F9397
:102F7000CF93DF93C82E8B017A0180919702811144
:102F800010C08FEF9FEFDF91CF911F910F91FF90B6
:102F9000EF90DF90CF90BF90AF909F908F907F90F9
:102FA000089580915C0280FF05C08091E0008260FE
:102FB0008093E000CE2DDF2DD12C8AEFB82E8C2D02
:102FC0008770982E8C2D8072882E8C2D8074782E90
:102FD0009AE3A92E209719F4DD2009F452C08C2D14
:102FE0000E943D0781110AC0BA94BB2051F261E0F2
:102FF00070E080E090E00E946A17ECCF8C171D060D
:1030000011F00CF08C2F9FB7F8949092E90020916A
:10301000E80025FD02C09FBFDDCF282F30E0C21B96
:10302000D30B882029F08150A0F01092F100FBCF43
:10303000F801C7FC0AC0815050F041914093F10063
:10304000FACF44914093F10031968150D0F7020FAE
:10305000131FDD2021F0A092E800D12CDCCF80915D
:10306000E80085FD07C0A092E800DD24D3942097F6
:1030700091F2F3CF209779F6772069F2A092E800D9
:10308000CACF5D9A84E680935B02C7017CCFCF9361
:10309000DF93EC0180911201882331F083E00E94DC
:1030A000AD171816190634F081E090E09B838A83EF
:1030B00080E090E0DF91CF910895CF93DF93FC0102
:1030C000448155816081718183E293E00E944718B9
:1030D000EC0142E050E06BE771E083E293E00E9494
:1030E00047188C0F9D1FDF91CF910895EF92FF92AB
:1030F0000F931F93CF93DF93CDB7DEB762970FB6D1
:10310000F894DEBF0FBECDBFE82E6DE771E0CE01B3
:103110000D960E940D150DEE13E0C8010E94BD151D
:10312000F82E682FCE0107960E94C014BE01635F7F
:103130007F4FCE0101960E940415BE01695F7F4F4B
:10314000CE0101960E948214BC01CE010D960E9410
:10315000ED14CE0101960E94A413CE0107960E94A1
:10316000A413083F83E01807D4F4BE01635F7F4FC8
:10317000CE0101960E9404156EE771E0CE01019622
:103180000E946C14BC01CE010D960E94ED14CE017C
:1031900001960E94A413F801E35EF040F0820F5FF5
:1031A0001F4F011584E0180709F0B7CF81E0E8123E
:1031B00004C0CE010D960E945D18CE010D960E94AE
:1031C000A41362960FB6F894DEBF0FBECDBFDF9199
:1031D000CF911F910F91FF90EF900895AF92BF9202
:1031E000CF92DF92EF92FF920F931F93CF93DF93D3
:1031F0001F92CDB7DEB77C0169836A01590141E0B6
:1032000050E0BE016F5F7F4FFC0183810E94AD17CC
:103210008C0197FD0BC0F7018381A501B601806485
:103220000E94AD17080F191F97FD8C01C8010F9060
:10323000DF91CF911F910F91FF90EF90DF90CF9092
:10324000BF90AF900895CF93DF93EC010E94B80B2D
:1032500028E030E0AE0162E0DF91CF910C94EE18EF
:10326000E9EBF3E016821782108611861286138628
:1032700014828DEB93E00C942319DC016838A0F0E4
:103280006858FD0186E0662321F09681961301C0FF
:103290001682815031968111F6CFCD0104960E949D
:1032A000231981E090E00895862F90E067FF13C016
:1032B000FC01E058F10981E090E001C0880FEA9537
:1032C000EAF7809514969C911497892314968C9311
:1032D000149760E0D6CF1C96ED91FC911D97E80FF6
:1032E000F91F64916623E1F0862F807C803C69F4AD
:1032F00014968C9114978F7B14968C9314976F73FC
:10330000623309F0BECF64E6BCCF67FFF9CF1496F5
:103310008C9114978D7F14968C9314976F77F0CFC0
:1033200090E080E00895DC01683888F168581696CE
:103330008C911697861721F117968C9117978617FF
:10334000F9F018968C9118978617D1F019968C91F0
:1033500019978617A9F01A968C911A97861781F0FB
:103360001B968C911B97861759F0FD01369690E0BD
:1033700080E0219121114FC08A0F9B1FFC016683C1
:10338000CD0104960E94231981E090E00895862FD4
:1033900090E067FF12C0FC01E058F10921E030E045
:1033A00001C0220FEA95EAF714968C911497822BAC
:1033B00014968C93149760E0BACF1C96ED91FC9113
:1033C0001D97E80FF91F6491611109C081E090E039
:1033D00013969C938E93129790E080E00895862F29
:1033E000807C803C69F414968C91149780641496C8
:1033F0008C9314976F73623309F099CF64E697CF7B
:1034000067FFF9CF14968C911497826014968C9371
:1034100014976F77F0CF01968630910509F0A9CF08
:10342000D5CFEF92FF921F93CF93DF93EC01162F2E
:103430000E9493197C01612FCE010E943D19C701A2
:103440009927DF91CF911F91FF90EF900895909170
:10345000A90398138093A9030E94B80B23E030E0DE
:1034600048EA53E061E00E94EE1881E090E00895A0
:10347000E8EAF3E01082118212820E94B80B23E086
:1034800030E048EA53E061E00C94EE18BF92CF922E
:10349000DF92EF92FF920F931F93CF93DF93EC0194
:1034A000888D87FD03C061E00E947706898D87FDC6
:1034B00003C061E00E9477061FB7F894809105026F
:1034C000811127C0EFE1F8E08491EEE3F8E09491F8
:1034D000E82FF0E0EE0FFF1FEE50F84FA591B491EA
:1034E000EC91E92321F461E081E10E94490661E069
:1034F00081E10E9477068CB580618CBD8CB58064BB
:103500008CBD61E08FE00E94770661E080E10E945F
:103510007706809105028F5F809305021FBF0F8998
:1035200007FD28C061E0802F0E947706002E000C66
:10353000110B61E070E0C8010E94350A6AE070E09A
:1035400080E090E00E946A1770E060E0C8010E948D
:10355000350A6AE070E080E090E00E946A1761E05E
:1035600070E0C8010E94350A64E170E080E090E0FC
:103570000E946A1780E890E09B838A8380EA90E04B
:103580009D838C8368E770E080E090E00E946A177A
:103590000D88DE89C02DCE010E943B100CEA11E09F
:1035A00084E1E82E82E0F82EBB24BA94CC24C394A4
:1035B000F801D490CC2089F1FFEFCF1217C0CE01D3
:1035C0000E94400A8FEFD81661F06D2D70E090E0F8
:1035D00080E00E946A17CE010E943B10CC24C39465
:1035E0000BC064EF71E080E090E0F3CF8D2D0E947E
:1035F0005C0ABB24BA94C12C0F5F1F4FE016F10682
:10360000B9F6CE01DF91CF911F910F91FF90EF900E
:10361000DF90CF90BF900C94400AEFEFBE120AC02B
:10362000D7FC13C0DD20D1F261E08A850E94370A01
:10363000BD2CE2CFBA948D2D0E945C0AB110DCCF74
:1036400060E08A850E94370AC9CFCD2CD5CFCF92B2
:10365000DF92EF92FF92CF93DF936B017C01D42F27
:10366000C1E0C093980280E58093BA02109299025B
:103670001092BB02BB27AF2D9E2D8D2D0E941C0AE0
:10368000C60199270E941C0A61E070E080E590E085
:103690000E94600E80E893E00E94A6096D2F80E8EA
:1036A00093E00E94ED091092950265E070E080E0E1
:1036B00090E00E946A17C0939502DF91CF91FF902E
:1036C000EF90DF90CF900C94AF086F927F928F9223
:1036D0009F92AF92BF92CF92DF92EF92FF920F93A1
:1036E0001F93CF93DF9300D000D000D0CDB7DEB7CB
:1036F0005C01862F90E00E94CA134C016C01F12CF2
:10370000E12C80910F03882321F0809114030E9403
:10371000BF15F50184819581E816F90670F4608083
:10372000718060E470E0C3018E0D9F1D0E94D7354B
:103730008C0106191709892B11F40FEF1FEF0F3FAA
:103740001007D1F09801A701B501CE0101960E94A2
:10375000221589819A8160E0009711F00E94BF30A4
:10376000F60161936F017801FFEFEF1AFF0ACE01B6
:1037700001960E94A413C5CFC40126960FB6F894F3
:10378000DEBF0FBECDBFDF91CF911F910F91FF9094
:10379000EF90DF90CF90BF90AF909F908F907F90F1
:1037A0006F900895EF92FF920F931F93CF93DF9343
:1037B000CDB7DEB7A8970FB6F894DEBF0FBECDBF6A
:1037C0008C016DE771E00E940D15F0906A0261E0D6
:1037D0008F2D0E944906E0906D0260E08E2D0E94C0
:1037E000490661E08E2D0E94490660E08F2D0E94FF
:1037F0004906F12C80916E0228E0829FC0011124BD
:10380000F816190694F580916B020E9420061CA2FE
:103810001BA21EA21DA218A61FA2BC01990F880BF5
:10382000990B2AE0AE014F5F5F4F0E94F130BE015D
:103830006F5F7F4FCE0183960E94B6144FA158A5AB
:103840006BA17CA1C8010E940F14CE0183960E9437
:10385000A413E0906C0261E08E2D0E94490660E0A6
:103860008E2D0E944906F394C5CFF801248135813D
:103870002817390798F460E871E0CE0101960E949C
:103880000D15B801CE0101960E948214BC01C80139
:103890000E94ED14CE0101960E94A413C801A896BF
:1038A0000FB6F894DEBF0FBECDBFDF91CF911F9151
:1038B0000F91FF90EF9008952F923F924F925F9259
:1038C0006F927F928F929F92AF92BF92CF92DF9230
:1038D000EF92FF920F931F93CF93DF93CDB7DEB795
:1038E00068970FB6F894DEBF0FBECDBF582E662E78
:1038F000742EB22EE82EF12C8091120390911003B9
:103900009701899F200D311D112495E6929F80011A
:10391000939F100D112422E0621709F425C2261787
:10392000F8F0662369F131E0631709F49BC06896EB
:103930000FB6F894DEBF0FBECDBFDF91CF911F91C0
:103940000F91FF90EF90DF90CF90BF90AF909F903E
:103950008F907F906F905F904F903F902F90089541
:1039600083E0681709F40EC294E06913E0CF4111B7
:1039700024C2780191E3E90EF11C075E1F4F04C0D9
:103980007801E3E6EE0EF11CE114F10481F28AE025
:10399000A82E92E3292E312C412C512CE016F10651
:1039A00030F2B80190E080E00E94CE0F982EC82E31
:1039B000D12C8FEF890D8E3F08F0B9CFE1E0CE1604
:1039C000D104C9F06091E7017091E801613071059F
:1039D00091F061100AC0C701801B910B83369105DD
:1039E00020F489EB93E00E943D196091E70189EB97
:1039F00093E00E943D19C6010197039738F0692DA5
:103A000089EB93E0B110F5C10E949319C6010297AA
:103A1000029728F5B1101FC0912CF3E0CF16D10406
:103A200039F40E946730A20191010E947232962EF1
:103A30000F5F1F4FB80190E080E00E94CE0FC82EAC
:103A4000D12C692D70E08A9D600D711D112490E0CC
:103A500080E00E946A17D092E801C092E7010F5FF0
:103A60001F4F9CCFF3E04F1363C08F5F853008F08A
:103A70004CC08093120362E173E085EF93E00E94F3
:103A8000A61580910F03882309F468C04FEF6FEFEC
:103A90008FEF0E94590C52EDC52E53E0D52E8601B2
:103AA000F8016193719381938F01F4E00D341F0746
:103AB000B9F71092950235E8832E33E0932E46E84D
:103AC000A42E42E0B42E8091120390E00196681675
:103AD000190609F0ECF4F401849180934A040E94E1
:103AE00052046AEF70E080E090E00E946A17F501EE
:103AF000849180934A040E9452046AEF70E080E04F
:103B000090E00E946A176394DECF10921203B3CF45
:103B100040E060E080E00E94590CF60161937193EF
:103B200081936F010E171F07C1F781E08093950203
:103B300080910F03882391F0711054C08091140379
:103B40008F5F873018F48093140302C0109214031F
:103B500064E173E087EF93E00E94A6156091120381
:103B6000CE0143960E94C01460911303CE010D96BE
:103B70000E94C01460911403CE0107960E94C014E5
:103B800062E871E0CE0101960E940D15BE01695FE9
:103B90007F4FCE0101960E94821462E871E00E947C
:103BA0006C14BE01635F7F4F0E94821462E871E073
:103BB0000E946C14BE016D5E7F4F0E9482140E94B1
:103BC0005D18CE0101960E94A413CE0107960E94B3
:103BD000A413CE010D960E94A413CE0143960E9419
:103BE000A413A5CEF1E07F1202C084E1ACCF22E0A5
:103BF0007212B4CF0E94D8063B014C014FEF6FEF19
:103C00008FEF0E94590C9B01482FE2EDF3E08DE409
:103C100094E02193319341938E179F07D1F7E09160
:103C20001303F0E0EA57FD4FE491E0934A040E9449
:103C3000520439E0539E50011124DD24D39429E02D
:103C4000422ECC24C3940E94D806661977098809AD
:103C50009909683B7B408105910528F063E173E099
:103C600086EF93E079CF80910D03882361F0CE0138
:103C700001960E94D21BCE0101960E945513CE01DF
:103C800001960E94A41380917202581648F5009183
:103C90006802109169020A0D1B1DE0916F02F091FC
:103CA0007002EE0DFF1DE0818E2F90E020916604E2
:103CB000309167048217930730F4E0916204F09129
:103CC0006304309751F41092E901E9EEF1E061E00C
:103CD0008081803301F160E01EC0E80FF91FF7CF4B
:103CE0009701281B3109C901489E9001499E300D5A
:103CF00011240091640210916502020F131FE091DC
:103D00006602F0916702E80FF91F80810E94200689
:103D100061E0892B01F7C8010E94520EC8010E9480
:103D2000F60D843029F0883009F08DCFDC248BCF5C
:103D30000E94D8063B014C0180911303DD2081F0E5
:103D40008B3F18F48B5F80931303E0911303F0E033
:103D5000EA57FD4FE491E0934A040E94520473CF66
:103D6000853098F38550EFCF780133E6E30EF11CF0
:103D7000442351F181E0780191E3E90EF11C4813ED
:103D8000D6CD02CE411107C07801E1E4EE0EF11C60
:103D90000F5D1F4FF9CDF2E04F1307C0780122E607
:103DA000E20EF11C0E5B1F4FEFCD31E0780180E297
:103DB000E80EF11C4313BBCDE7CDE2E04E1307C084
:103DC0007801FAE4EF0EF11C0E5C1F4FDDCD23E00D
:103DD000421307C0780133E6E30EF11C055B1F4F69
:103DE000D3CD81E04813A3CD780198E1E90EF11C11
:103DF000CBCD0E943D190ACE8F929F92BF92CF9257
:103E0000DF92EF92FF920F931F93CF93DF9300D037
:103E100000D000D0CDB7DEB780910D03882361F0CC
:103E2000CE0101960E94D21BCE0101960E9455132D
:103E3000CE0101960E94A413809111038F3F09F4D3
:103E4000B3C00091620210916302F80180899185EC
:103E500097FF77C00E941313F82EC8010E94440EEA
:103E6000F801818585FF02C08F7D81874F2D6FEF1F
:103E7000C8010E94400D882309F496C0E0906202B8
:103E8000F0906302F701818585FD75C0C7010E942E
:103E9000F60D8032910509F410C18034910509F4C2
:103EA0006AC0029709F080C0809111038F5F833050
:103EB00008F000C18093110361E173E084EF93E0A7
:103EC0000E94A61580910F03882309F46DC040E07D
:103ED00060E080E00E94590C9B01482F02ED13E046
:103EE0008DE494E0F8012193319341938E179F075D
:103EF000D1F74FEF6FEF8FEF0E94590C6B01E82E57
:103F00002091110330E090E080E0F801C192D1925D
:103F1000E1928F01019628173907BCF7E5E8F3E035
:103F2000E491E0934A040E9452041092950268EED4
:103F300073E080E090E00E946A1781E08093950230
:103F400033C00E941313E82EF80186850E941313D4
:103F5000F82EF80187850E941313880FF82AC801EC
:103F60000E94440EF801918595FF02C09F7D9187C4
:103F70004E2D6F2D7DCF10911103111150C0C7012F
:103F80000E94900C882319F080E10E94271A8091EA
:103F90006202909163020E94820C882319F080E2F1
:103FA0000E94271A0E94381A10E089E0C82E95E670
:103FB000B92E80911003181708F005C18091720284
:103FC000E12EF12C181708F08DC0809068029090B7
:103FD00069021C9D800C911C1124E0916F02F091EC
:103FE0007002EE0DFF1DE0818E2F90E0209166049F
:103FF000309167048217930738F4E0916204F091DE
:104000006304309709F06BC01092E901E9EEF1E02A
:1040100061E08081803309F481C060E07FC01130AD
:1040200061F50E94D80660938302709384028093A6
:1040300085029093860210938202C7010E94820C2F
:1040400010911303882381F0153018F01550109348
:104050001303E0911303F0E0EA57FD4FE491E0937E
:104060004A040E945204A0CFC7010E94900C8823EA
:1040700081F31B3F70F71B5FEACF123009F094CF3A
:10408000C7010E94900C882329F069ED89EB93E029
:104090000E94931980916202909163020E94820CA7
:1040A000882329F06AED89EB93E00E9493190E941E
:1040B00030197ACF10921103FFCE80911103811134
:1040C00073CFF7018081813009F46ACF823011F417
:1040D00088E066CF833009F065CF84E061CFE80FD8
:1040E000F91F96CF9701281B3109C901C89E90017D
:1040F000C99E300D11248090640290906502820E5A
:10410000931EE0916602F0916702E80FF91F80812B
:104110000E94200661E0892B09F07FCFC4010E9434
:10412000520EC4010E94F60D082FF401D080909128
:10413000120380911003989FE00CF11C1124BE9C87
:10414000B001BF9C700D11246C597F4F072E000CDD
:10415000880B990B0E94CE0F682F043001F130F4C8
:104160000130E9F00230F9F01F5F23CF083079F019
:104170000032D1F78823C1F3F1E020E040E0DF1600
:10418000B1F022E0D21219C020E042E010C021E0DC
:10419000813051F340E0812F0E945C1CE5CF61111A
:1041A000E3CF20E0F7CF20E041E08823E9F2812F40
:1041B0000E945C1C0E943019D7CF33E0D312FACF93
:1041C00020E043E0F4CF26960FB6F894DEBF0FBE92
:1041D000CDBFDF91CF911F910F91FF90EF90DF90B6
:1041E000CF90BF909F908F9008951F920F920FB61F
:1041F0000F9211242F933F938F939F93AF93BF936D
:1042000080918D0290918E02A0918F02B0919002C8
:1042100030918C0223E0230F2D3758F50196A11D14
:10422000B11D20938C0280938D0290938E02A093F7
:104230008F02B09390028091910290919202A0918E
:104240009302B09194020196A11DB11D8093910239
:1042500090939202A0939302B0939402BF91AF9176
:104260009F918F913F912F910F900FBE0F901F90B4
:10427000189526E8230F0296A11DB11DD2CF1F92DB
:104280000F920FB60F9211242F933F934F935F938A
:104290006F937F938F939F93AF93BF93CF93EF933E
:1042A000FF93C091E1008091E100837F8093E10062
:1042B000C3FF0FC01092E90081E08093EB001092E1
:1042C000EC0082E38093ED001092970288E08093E7
:1042D000F000C2FF1AC00E949F0580915B028823F4
:1042E00041F080915B02815080935B02811101C09B
:1042F0005D9880919602882341F0809196028150CA
:1043000080939602811101C02898C4FF23C0809138
:10431000E2008E7E81608093E2008091E1008F7EDA
:104320008093E10080915C028E7E806180935C02CC
:10433000FF91EF91CF91BF91AF919F918F917F911D
:104340006F915F914F913F912F910F900FBE0F9002
:104350001F901895C0FFECCF8091E2008E7E8061A7
:104360008093E2008091E1008E7E8093E100809155
:104370005C028E7E8160DACF1F920F920FB60F9291
:104380001124CF92DF92EF92FF920F931F932F93FE
:104390003F934F935F936F937F938F939F93AF93CD
:1043A000BF93EF93FF93CF93DF93CDB7DEB76C97B7
:1043B000DEBFCDBF1092E9008091E80083FF25C0E9
:1043C00068E0CE0145960E944E0782EF8093E80098
:1043D0008D8987FF39C09091E80090FFFCCF982F1E
:1043E000907609F034C19E894F89588D2F89F88CB9
:1043F000911131C0803861F580915D028093F100A8
:104400001092F1008EEF8093E8006C960FB6F8944E
:10441000DEBF0FBECDBFDF91CF91FF91EF91BF9176
:10442000AF919F918F917F916F915F914F913F914C
:104430002F911F910F91FF90EF90DF90CF900F90F1
:104440000FBE0F901F9018959EEF9093E800C7CF76
:104450001092F100D5CF913059F48111D3CF413072
:10446000510581F680915D028D7F80935D02CACFF8
:10447000933049F48111C6CF4130510519F680912E
:104480005D028260F2CF953041F48091E80080FFB8
:10449000FCCF20682093E300B5CF963009F0A9C087
:1044A0000B8D1C8D22E01092E9001092590210929F
:1044B0005802F2122EC010925702109256020E9419
:1044C0006F071F8299E09983FA8291E09E8390EAB8
:1044D00098879AEF99872091580230915902275F67
:1044E0003F4F3C832B838D831092E9001092590239
:1044F00010925802109357020093560249E050E080
:10450000BE016F5F7F4F80E00E9417070E946F0718
:1045100079CF10935702009356020E945B07DC018B
:1045200012960D911C910115110509F451C1D80184
:10453000ED91FC910480F581E02DBE016B5E7F4F13
:10454000C8010995009709F03EC1F8010085118561
:10455000EACFF3E0FF120EC08F89882309F440C030
:10456000823061F440E86DE088E792E00E940D251A
:10457000811148CF81E28093EB0047CF813029F44D
:1045800040E86BE08CE692E0F1CF833099F70E942F
:104590005B07DC011296ED90FC908E010F5F1F4FC0
:1045A0006801E114F10479F0D701ED91FC910680E6
:1045B000F781E02DB801C7010995080F111DF7011A
:1045C000E084F184EECFD8011C92F6010190002026
:1045D000E9F73197BF016C197D0940E0C601C6CFEC
:1045E00066E572E0FB01449150E080E80E94170705
:1045F00009CF973009F4BECF983021F481E0809341
:10460000F10000CF993009F0FDCE837009F0B2CFF0
:10461000E1E0F1E081E031E096E32191222371F0C5
:104620008093E9003093EB00DF0111972C912093E8
:10463000EC009093ED008F5F873079F78EE78093E1
:10464000EA001092EA008F8980939702DBCE8B8D6F
:104650009C8D1092E900109259021092580290938A
:10466000570280935602898D811192C08E899D894F
:10467000913A49F4813209F07DCF47E050E06BE098
:1046800071E080E0B3CF913209F074CF833269F4E6
:104690008F89988DB0E0A0E0809307019093080186
:1046A000A0930901B0930A01ADCE803269F48091E4
:1046B000E80082FFFCCF67E08BE091E00E944E07AC
:1046C0008BEF8093E8009ECE823209F09BCE8F89DB
:1046D00080931201EEEFFFE7859194918B3F9C4D03
:1046E00051F1E0E0F8E080910B0190910C01A09174
:1046F0000D01B0910E01803B9440A105B105F1F48C
:104700008091120180FD1AC0EE3F8AE0F80789F51A
:1047100087E797E7918380838091600080935A02B6
:1047200088E19BE00FB6F894A895809360000FBED7
:104730009093600067CEEEEFFAE0D5CF8081918153
:104740008737974709F05ECEA89580916000886111
:104750008093600080915A0280936000EE3F2AE0CF
:10476000F20789F08091FE0A9091FF0A918380837D
:1047700049CE808191818737980751F29093FF0A43
:104780008093FE0AC5CF1092FF0A1092FE0A3ACE1D
:104790000E945B07DC0112960D911C910115110519
:1047A00009F4E8CED801ED91FC910190F081E02D63
:1047B000BE016B5E7F4FC8010995811123CEF801C0
:1047C00000851185EBCF181619060CF41BCED2CE3E
:1047D000F1E0FF12BECE6AE572E004CF1F920F92A5
:1047E0000FB60F9211242F933F934F935F936F93C4
:1047F0007F938F939F93AF93BF93EF93FF9380919A
:10480000B900887F803609F44AC0F0F5883209F48F
:10481000A7C018F5803109F49BC0B8F4882309F4C7
:10482000F9C0883009F494C0FF91EF91BF91AF9126
:104830009F918F917F916F915F914F913F912F91B8
:104840000F900FBE0F901F901895883109F488C003
:10485000803251F78093E00214C0803409F49DC087
:1048600040F48033B9F38833F9F68093E00285ECA5
:10487000B0C0803509F485C0883509F496C0883405
:1048800099F60E946E15D0CF883909F48CC038F59E
:10489000883729F050F4883611F0803729F683E004
:1048A0008093E2021092490257C0883809F47BC015
:1048B000803919F0803809F0B7CF809149028032F1
:1048C00008F071C0E091490281E08E0F80934902A7
:1048D0008091BB00F0E0E75DFD4F80833DC0803BF1
:1048E00039F0E0F4803A09F479C0883A09F09CCFB5
:1048F00084E08093E2021092280210922702E09155
:104900006002F091610209958091270281110FC028
:1049100081E0809327021092070209C0803C09F4CD
:10492000A6CF883C09F4A3CF883B09F07DCFE09166
:10493000280281E08E0F80932802F0E0E95FFD4FAE
:1049400080818093BB00909128028091270229C02A
:104950008091DD028093BB0085EC8093BC0064CF26
:104960009091DF028091DE02981758F5E091DF0206
:1049700081E08E0F8093DF02F0E0E454FD4F8081F0
:10498000E9CFE091DF0281E08E0F8093DF0280911A
:10499000BB00F0E0E454FD4F80839091DF028091F2
:1049A000DE029817C8F285E8D8CFE091DF0281E0F7
:1049B0008E0F8093DF028091BB00F0E0E454FD4F46
:1049C00080838091E10281115CCF81E08093DC02E1
:1049D00084EA8093BC001092E20226CF85EC80939B
:1049E000BC001092E20280914902803230F4E091E2
:1049F0004902F0E0E75DFD4F10826091490270E0EE
:104A0000E0915E02F0915F0289E292E009951092D6
:104A100049020ACF1092E00234CFEF92FF920F9337
:104A20001F93CF93DF93F82E192FE62E042F81E0EA
:104A3000860F880F0E94E90683E00E94E906CF2DC9
:104A4000D12FEC0EFD2EF11CCE15DF05B9F007FFBE
:104A500013C0FE0184910E94E906182F80E00E9495
:104A6000E906812321968111EFCFDF91CF911F912C
:104A70000F91FF90EF9008958881EDCF81E0F5CF01
:104A8000CF93DF93109226031092250388EE93E0D4
:104A9000A0E0B0E08093270390932803A09329031C
:104AA000B0932A0327E431E03093240320932303B7
:104AB0002FEF3FEF3093300320932F0320937303A6
:104AC000109275031092740310927F0310927E036C
:104AD0004FEF5FEFBA0140937A0350937B036093EB
:104AE0007C0370937D031092830310928203809362
:104AF000840390938503A0938603B093870389E58D
:104B000091E090938103809380038CE0ECE8F3E0E4
:104B1000DF011D928A95E9F710929903109298038C
:104B20008091A003811113C010929B0310929A03ED
:104B300088EF96E090939D0380939C038BE490E034
:104B400090939F0380939E0381E08093A0030E9433
:104B5000B80BFC01A385B485109709F027C18AE939
:104B600093E0948783878585968520919E03309175
:104B70009F03820F931F968785871092BC03109224
:104B8000BB038BE691E09093BA038093B9038091C5
:104B9000B103811113C01092AC031092AB0383ECEC
:104BA00097E09093AE038093AD038FE290E09093F3
:104BB000B0038093AF0381E08093B1030E94B80BF0
:104BC000FC01A385B485109709F0FBC08BEA93E044
:104BD00094878387858596852091AF033091B003B4
:104BE000820F931F9687858783E497E09093C6038F
:104BF0008093C50389E490E00E94BD15D82F8AE414
:104C000090E00E94BD15C82F88E490E00E94BD1579
:104C100010926B0410926A0410926D0410926C044E
:104C200010926F0410926E0410927104109270042E
:104C3000109273041092720410927404109276040D
:104C4000109275042FEF3FEF309378042093770490
:104C500010927A041092790410927C0410927B04D2
:104C600020E834E030937E0420937D0480937F0419
:104C700087E791E09093690480936804D09380045F
:104C8000C09381048FEF809382048093830480E03B
:104C900092E1AAE7B0E08093840490938504A09306
:104CA0008604B093870487EC93E090938904809303
:104CB0008804C0938A048AE694E090938C048093DD
:104CC0008B0410928D0410928E0410929004109216
:104CD0008F0410929204109291046DE771E082E6C5
:104CE00094E00E940D158EE290E09093CF038093A4
:104CF000CE0380ED97E09093D1038093D00382E3BD
:104D000080934A0480934B0410924C0410924D04FB
:104D100010924E0410924F041092500410925204BC
:104D2000109251048FB780935F0483E090E09093DA
:104D3000610480936004E6E3F8E0249120935B042F
:104D400087E198E0FC013491E32FF0E0EE0FFF1FC4
:104D5000E050F84F459154915093540440935304BC
:104D6000FC018491E82FF0E0EE0FFF1FEE50F84FAA
:104D7000A591B491B0935604A0935504EC91E22B05
:104D8000EC938EE190E09093CF038093CE0384E97F
:104D900092E09093D1038093D0036DE771E088ECAB
:104DA00093E0DF91CF910C940D15DC018D919C91D6
:104DB00011970097D1F78AE993E08D939C93D3CE16
:104DC000DC018D919C9111970097D1F78BEA93E0CC
:104DD0008D939C93FFCECF93DF93CDB7DEB7E7974C
:104DE0000FB6F894DEBF0FBECDBF789484B5826055
:104DF00084BD84B5816084BD85B5826085BD85B57F
:104E0000816085BD80916E00816080936E001092FC
:104E10008100809181008260809381008091810077
:104E20008160809381008091800081608093800008
:104E300080919100826080939100809191008160C7
:104E40008093910080919000816080939000809188
:104E5000C10084608093C1008091C1008260809312
:104E6000C1008091C10081608093C1008091C30026
:104E700081608093C3008091C00082608093C000F5
:104E80008091C20081608093C20080917A0084602A
:104E900080937A0080917A00826080937A0080917A
:104EA0007A00816080937A0080917A008068809394
:104EB0007A001092970210925D0210925C0280912B
:104EC000D70081608093D70080EA8093D80089B5AD
:104ED000806189BD89B5826089BD09B400FEFDCFBE
:104EE00061E070E080E090E00E946A178091D80055
:104EF0008F7C80618093D8008091E000807F8093D8
:104F0000E0008091E1008E7E8093E1008DE080934F
:104F1000E200559A209A5D9828988FEF9FEF909322
:104F2000300380932F0360ED77E080E090E00E94F3
:104F30006A178EEE93E00E94BD15909114018913BB
:104F400008C08FEE93E00E94BD1590911301891760
:104F500061F064E171E08EEE93E00E94A61563E1DA
:104F600071E08FEE93E00E94A61582E590E00E942A
:104F7000BD15182F8EEE93E00E94BD1518130BC0BF
:104F800083E590E00E94BD15182F8FEE93E00E94FC
:104F9000BD15181761F064E171E082E590E00E94B0
:104FA000A61563E171E083E590E00E94A6151092DA
:104FB000E9021092E802109299021092BB020E943C
:104FC000700886EE96E0909361028093600287EE0F
:104FD00096E090935F0280935E0283E497E0909363
:104FE000C6038093C50380E00E94761880910E036B
:104FF000813009F0C8C088E694E00E94461A0E94F9
:10500000C910E6E8F3E0E491E0938C03E7E8F3E00D
:10501000249120938D03E8E8F3E0849180938E033C
:10502000E9E8F3E0E491E0938F034AE853E050931A
:105030009503409394034DE85AE0509399034093AD
:10504000980390E0079633E0959587953A95E1F7B8
:1050500080939103289FE02D1124E09392031092F6
:10506000930310929703109296038CE893E0909329
:105070007C0480937B0400917D0410917E04D80110
:105080001D968C911D9780FD1CC01B96ED91FC9187
:105090001C97808191812281338131832083938386
:1050A00082831F968D919C91509751962D913C91A2
:1050B000529750963C932E931F9752969C938E93A3
:1050C000519783E0F8018587C8010E94F90F60E0DD
:1050D000D8011A968C910E94370A88E20E945C0AD5
:1050E00086E30E945C0A61E0F80182850E94370A2B
:1050F000D8011D96EC9180EAE33020F4F0E0E05D09
:10510000FE4F8081F8019685892B0E945C0A60E041
:10511000D8011A968C910E94370A89E20E945C0A93
:10512000C8010E94400A8EE490E00E94BD15809361
:105130007B028FE490E00E94BD1580937C0280E5A5
:1051400090E00E94BD158093730281E590E00E947B
:10515000BD1580937402FE0131966F01CE01079652
:105160007C018E01035F1F4F9E012D5E3F4FAE01FC
:10517000475E5F4FBE01615E7F4F4E960E94390FC2
:105180008D8580937D02809111038F3F09F44FC07C
:105190008DE490E00E94BD15D82E8CE490E00E9432
:1051A000BD15E82E8BE490E00E94BD15F82E81E13C
:1051B00090E00E94E7338C01DC0112961C921E9253
:1051C000119714961C921E92139782E315968C9356
:1051D00015978FE116968C93169785E217968C9308
:1051E00017978CE018968C93189719961C9219971C
:1051F0001A961C921A978EE11B968C931B971D96FC
:105200001C921E921C9720E040E060E0C8010E94C2
:105210002A1310936302009362022D2D4E2D6F2DE1
:10522000C8010E942A1381E0F80183878583E091F9
:105230001303F0E0EA57FD4FE491E0934A0480EF56
:1052400093E00E94BD15B82E809372028CEE93E01D
:105250000E94BD1580937102BB2009F48FC00B2DF5
:1052600010E0C8010E94CA1380936F0290937002ED
:105270006C01F12CE12CEB1450F4C7010E94BD1518
:10528000D6018D936D01BFEFEB1AFB0AF4CF82E3D9
:1052900090E00E94BD1580936E0284E490E00E942D
:1052A000BD15F82E80936D0285E490E00E94BD1537
:1052B000E82E80936C0286E490E00E94BD15D82E03
:1052C00080936B0287E490E00E94BD15C82E809306
:1052D0006A0261E08F2D0E94770661E08C2D0E94AA
:1052E000770661E08E2D0E94770660E08D2D0E948A
:1052F000770660E08E2D0E94490661E08F2D0E94A6
:105300004906E9E0BE9EC00111240E94CA13DC01D7
:10531000FC0152E34FE135E22CE01282118214824B
:1053200013825583468337832087399601501109AC
:10533000A1F7809368029093690280E04CE031E02D
:1053400025E19EE116964C93169718963C93189774
:1053500017962C93179715969C9315978F5F199610
:10536000B812F0CFCE0101960E94D21BCE01019659
:105370000E945513CE0101960E94A41390907102D1
:10538000992009F458C0C92CD12CC6010E94CA1317
:10539000882E8093660290936702082F192FE82EBB
:1053A000F92E83E3A82EB12C382C8E2D881989155F
:1053B00050F4C5010E94BD15D7018D937D01BFEF4B
:1053C000AB1ABB0AF2CFE9E09E9EC00111240E94F5
:1053D000CA137C01FC0152E34FE135E22CE012825A
:1053E000118214821382558346833783208739962E
:1053F00061E0C61AD10899F7809364029093650220
:10540000FCE0CF2EDD24D394A5E1BA2EBEE1AB2E75
:10541000802F8319891578F462E0D8018D918D0170
:105420000E947706F701C682D086B782A582F9E08E
:10543000EF0EF11CEDCF81E080939502CE014E96E8
:105440009BAB8AAB80910F03882321F080911403DA
:105450000E94BF150E94FC1E0E94D806009188027F
:105460001091890220918A0230918B02601B710B8E
:10547000820B930B603177428105910538F0809162
:105480008702813019F482E0809387020E94D80657
:10549000009183021091840220918502309186024E
:1054A000601B710B820B930B643F7140810591056A
:1054B00008F470C080918202813009F06BC01092B4
:1054C000820285E0EFE1F1E0DE01599601900D9254
:1054D0008A95E1F786EF93E00E94BD15E82EF090E3
:1054E00013038E01075E1F4FF80181918F0190E039
:1054F000BC01665F7C4F83519C4F0E94A6158AA910
:105500009BA90817190781F7EF1409F443C06091AC
:105510001203CE0101960E94C01460911303CE01C4
:1055200007960E94C01460911403CE010D960E944C
:10553000C01462E871E0CE0143960E940D15BE01D1
:10554000635F7F4FCE0143960E94821462E871E050
:105550000E946C14BE01695F7F4F0E94821462E852
:1055600071E00E946C14BE016F5F7F4F0E94821435
:105570000E945D18CE0143960E94A413CE010D96A1
:105580000E94A413CE0107960E94A413CE01019697
:105590000E94A41383E293E00E942F08892B09F450
:1055A0005EC16DE771E0CE010D960E940D150E945F
:1055B000D90797FD0FC08A30910561F089831A825F
:1055C00041E050E0BE016F5F7F4FCE010D960E941B
:1055D0000F14EDCF89899A89892B09F4CBC0ED8509
:1055E000FE85309709F4C6C010816DE771E0CE01E9
:1055F00007960E940D151D3209F419C30CF0BCC0AA
:10560000133209F472C31A3209F4C3C3113209F018
:105610001EC1F0900E03F1E0FF1219C121E030E04D
:1056200050E040E0BE01635F7F4FCE0101960E94D3
:1056300022156AE871E0CE0101960E94D213182F5C
:10564000CE0101960E94A413112309F400C12989F7
:105650003A8941E050E0BE01635F7F4FCE01019681
:105660000E94221567E0CE0101960E94651B8C0105
:10567000CE0101960E94A413D8011596EC901597BF
:105680001496DC9014971396CC90139716969C90D2
:10569000169712968C90129711963C9011972C9019
:1056A000F092980288E68093BA02109299021092C2
:1056B000BB0290E080E00E941C0A6AE0F62E822D78
:1056C0006F2D0E94AD338295807F682F690F80E82F
:1056D00093E00E94ED09832D6F2D0E94AD338295DA
:1056E000807F682F690F80E893E00E94ED09882D84
:1056F0006F2D0E94AD338295807F682F690F80E8FF
:1057000093E00E94ED09892D6F2D0E94AD338295A3
:10571000807F682F690F80E893E00E94ED098C2D4F
:105720006F2D0E94AD338295807F682F690F80E8CE
:1057300093E00E94ED098D2D6F2D0E94AD3382956F
:10574000807F682F690F80E893E00E94ED098E2D1D
:105750006F2D0E94AD338295807F682F690F80E89E
:1057600093E00E94ED090E94AF08C801012B09F0E7
:10577000B7C2B8C210E039CF1C3709F400C21D37D8
:1057800009F460C01B3709F062C021E030E050E04E
:1057900040E0BE01635F7F4FCE0101960E9422155B
:1057A00064E871E0CE0101960E94D213182FCE0159
:1057B00001960E94A413112309F449C029893A894A
:1057C00041E050E0BE01635F7F4FCE0101960E9431
:1057D000221565E0CE0101960E94651B8C01CE0169
:1057E00001960E94A41385E0EFE1F1E0DE0111963D
:1057F00001900D928A95E1F7CE010196D8019801AA
:105800002B5F3F4FFC015191CF014D91E52FF0E00F
:10581000E65FFC4F40832A173B07A1F70E94D8069A
:105820006093830270938402809385029093860232
:1058300081E0809382020115110549F0C8010E94A0
:10584000833405C081E00E9476180E943019CE0191
:1058500007960E94A413CE010D960E94A4130E94E5
:10586000D80600917E0210917F0220918002309133
:105870008102601B710B820B930B683E73408105A4
:10588000910508F474C10E94D80660937E0270935B
:105890007F02809380029093810280910E03813079
:1058A00009F065C1CE018B966C01DE019C967D01ED
:1058B0008E01035D1F4F9E01225D3F4FAE01415D92
:1058C0005F4FBE01605D7F4F06960E94390F909139
:1058D0007D028DA5981729F00E94C9108DA580938F
:1058E0007D0269A9CE0185960E94C01489A96DE741
:1058F00071E08A3010F460E871E0CE014F960E94AA
:105900000D1568A9CE0149960E94C01488A96DE7BB
:1059100071E08A3010F460E871E0CE0143960E9495
:105920000D156FA5CE010D960E94C0148FA56DE7D1
:1059300071E08A3010F460E871E0CE0101960E94B7
:105940000D15BE016F5F7F4FCE0107960E940415B3
:10595000BE01635F7F4FCE0107960E9482146CE800
:1059600071E00E946C14BE016D5E7F4F0E94821434
:10597000BE01675E7F4F0E9482146CE871E00E9456
:105980006C14BE01615E7F4F0E948214BE016B5D8C
:105990007F4F0E948214BC0188EC93E00E94ED14BA
:1059A000CE0107960E94A413CE0101960E94A41373
:1059B000CE010D960E94A413CE0143960E94A4131B
:1059C000CE0149960E94A413CE014F960E94A413C3
:1059D000CE0185960E94A4130E94FC1E8FEF9FEFBC
:1059E000909378048093770469E070E088EC93E00A
:1059F0000E94AC1360917C0270E080917B0290E089
:105A00000E9456110E94FC1E6BA5CE014F960E946B
:105A1000C0146CA5CE0149960E94C0148CA56DE7F8
:105A200071E08A3010F460E871E0CE0143960E9484
:105A30000D156DA5CE010D960E94C0148DA56DE7C4
:105A400071E08A3010F460E871E0CE0101960E94A6
:105A50000D15BE016F5F7F4FCE0107960E940415A2
:105A6000BE01635F7F4FCE0107960E9482146EE8ED
:105A700071E00E946C14BE016D5E7F4F0E94821423
:105A8000BE01675E7F4F0E9482146EE871E00E9443
:105A90006C14BE01615E7F4F0E948214BC0188ECD1
:105AA00093E00E94ED14CE0107960E94A413CE014C
:105AB00001960E94A413CE010D960E94A413CE015C
:105AC00043960E94A413CE0149960E94A413CE01CE
:105AD0004F960E94A4130E94FC1E69E070E088ECBF
