:100000000C942E010C9456010C9456010C9456013C
:100010000C9456010C9456010C9456010C94560104
:100020000C9456010C9456010C9431120C94A012AD
:100030000C9456010C9456010C9456010C945601E4
:100040000C9456010C9456010C9456010C945601D4
:100050000C9456010C9456010C9456010C94E71123
:100060000C9456010C9456010C9456010C945601B4
:100070000C9456010C9456010C9456010C945601A4
:100080000C9456010C9456010C9456010C94560194
:100090000C9456010C9456010C9456010C94560184
:1000A0000C9456010C9456010C945601000000006B
:1000B0002300260029002C002F0000000002000968
:1000C0000F0000030401000C00000000000000000D
:1000D000000000000000000000080B000202020007
:1000E00000090400000102020000052400100105BF
:1000F00024010101042402060524060001070581EC
:100100000310004009040100020A00000007050274
:1001100002400000070583024000000403090412A6
:10012000010002EF02014041233680000101020379
:100130000141726475696E6F204C4C4300417264DA
:1001400075696E6F204C656F6E6172646F000000A0
:100150000000250028002B002E00310000000000C8
:10016000240027002A002D003000040404040403A6
:100170000405020202020403020202020606060647
:10018000060604040202020404040802011040806E
:10019000401020408040800802040180402010026E
:1001A00001108010204040200000000000000000EE
:1001B0002A2B2800000000000000000000000000C2
:1001C00000000000000000002C9EB4A0A1A2A434F6
:1001D000A6A7A5AE362D3738271E1F20212223249F
:1001E0002526B333B62EB7B89F8485868788898A3B
:1001F0008B8C8D8E8F909192939495969798999AD7
:100200009B9C9D2F3130A3AD350405060708090AD4
:100210000B0C0D0E0F101112131415161718191AB6
:100220001B1C1DAFB1B0B50005010906A101850277
:10023000050719E029E715002501750195088102D8
:100240009501750881039506750815002573050746
:10025000190029738100C000D214282D11241FBE5B
:10026000CFEFDAE0DEBFCDBF23E0ACEAB1E001C002
:100270001D92A339B207E1F711E0A0E0B1E0E0E39D
:10028000F1E602C005900D92AC3AB107D9F711E042
:10029000CDE2D1E004C02197FE010E944E2ECC3267
:1002A000D107C9F70E94BE150C948B300C94000046
:1002B0004091190150911A0125E038E0429FC00198
:1002C000439F900D529F900D1124875E994C9093FF
:1002D0001A0180931901890F20E4829FC001112423
:1002E000892F0895CF93DF93FC01818190917D0246
:1002F000482F490F5527551F483051059CF5A281BD
:10030000B381109709F529E732E0338322832081F6
:1003100020937B0280937C0280917E02820F8083F7
:1003200020917F02A22FB09180028A2F821B891711
:10033000E8F481813D91C82FD0E0CE5EDE4F388356
:100340008F5F8183F2CFD90118962D913C91199737
:1003500021153105C1F729E732E019963C932E9318
:100360001897D5CF80E0DF91CF91089581E0FBCF42
:1003700020E0DC0160FF03C001C02D932D9362508B
:10038000E0F77040D0F70895FC018091FD018823CB
:1003900011F13FB7F89482E08093E9002091F200D8
:1003A000822F90E01816190614F481E090E088235B
:1003B00039F0289844E64093FC014091F1004083D5
:1003C000222339F02091F200211103C02BE6209363
:1003D000E8003FBF08958FEF9FEF08953FB7F8946F
:1003E0008091F8019091F901A091FA01B091FB017F
:1003F00026B5A89B05C02F3F19F00196A11DB11D80
:100400003FBFBA2FA92F982F8827BC01CD01620FBB
:10041000711D811D911D42E0660F771F881F991F76
:100420004A95D1F708958F929F92AF92BF92CF9243
:10043000DF92EF92FF924B015C010E94EE016B0193
:100440007C010E94EE016C197D098E099F09683EAE
:10045000734081059105A8F321E0821A9108A10853
:10046000B10888EEC80E83E0D81EE11CF11C81148F
:100470009104A104B10429F7FF90EF90DF90CF9091
:10048000BF90AF909F908F9008952FB7F894609190
:10049000F4017091F5018091F6019091F7012FBF61
:1004A0000895CF92DF92EF92FF92CF93C82F0E94D0
:1004B00045026B017C0120E03C2FA8E1B1E00E94E5
:1004C000F92D9B01AC01C701B6010E94082EAC01B9
:1004D00066277727CA0133E0969587953A95E1F725
:1004E00097709A0122273074232B31F02FEF37E0D9
:1004F000F901E81BF90BCF01E92FEE0FEE0FF0E049
:10050000E95BFE4F2081318186959281899F200D84
:10051000311D112457FF03C0319521953109305801
:1005200049E050E0249FB001359FC001E0E0349FD6
:10053000700D811D9E1F259F700D811D9E1F112412
:10054000620F731F8E1F9E1FCF91FF90EF90DF9061
:10055000CF9008954F925F926F927F929F92AF9249
:10056000BF92CF92DF92EF92FF920F931F93CF93A0
:10057000DF9300D01F92CDB7DEB7D090AE0280914E
:10058000B1029091B202A091B302B091B402892B52
:100590008A2B8B2BD9F00E94EE010091250210913D
:1005A00026022091270230912802601B710B820BDA
:1005B000930B0091B1021091B2022091B3023091DD
:1005C000B4026017710782079307C8F20E94EE0118
:1005D000609325027093260280932702909328024D
:1005E000E091B902F091BA02309759F04091B5020A
:1005F0005091B6026091B7027091B8028D2D0995A5
:10060000D82EE0902302F09024024D2C512C712C16
:10061000612CE114F10409F459C0D7011C96CC9067
:100620001C978091AF029091B0028436910510F42E
:100630001C961C92D701ED91FC91A280B380198287
:100640001A821B82DD2079F1F701369610E000E076
:100650002191222319F19280992001F130E050E09C
:1006600040E02F5F3F4F4F4F5F4FC301B2010E94E9
:10067000082E9B01AC01892D90E0B0E0A0E0BC0108
:10068000CD016F5F7F4F8F4F9F4F0E94082EA1E0DB
:10069000B0E0AC0FBD1FA00FB11F8C930F5F1F4FB9
:1006A00003301105A9F609811A812B81F7014585CF
:1006B000568562817381C701F5010995D7011C96A2
:1006C000CC921C971496ED90FC90A3CF80912102C0
:1006D000909122028C010F5F1F4F10932202009312
:1006E00021024997B4F10E944502C0901D02D090AA
:1006F0001E02E0901F02F09020029B01AC012C1919
:100700003D094E095F0921F421E030E040E050E06E
:1007100088EE93E0089FB001099F700D189F700D3F
:100720001124072E000C880B990B0E942C2E30935D
:10073000B0022093AF0210922202109221020E9476
:10074000450260931D0270931E0280931F029093D6
:1007500020020F900F900F90DF91CF911F910F917A
:10076000FF90EF90DF90CF90BF90AF909F907F90E1
:100770006F905F904F90089580E991E008950895FB
:100780004091BC015091BD012091BA013091BB0153
:1007900042175307B4F49091E8009570E1F39091FB
:1007A000E80092FD19C08093F1008091BC01909106
:1007B000BD0101968F739927892B19F48EEF8093D1
:1007C000E8008091BC019091BD0101969093BD011C
:1007D0008093BC0181E0089580E00895EF92FF923C
:1007E0000F931F93CF93DF93F82E192FE62E042F2C
:1007F00081E0860F880F0E94C00383E00E94C0033F
:10080000CF2DD12FEC0EFD2EF11CCE15DF05B9F04A
:1008100007FF13C0FE0184910E94C003182F80E0DF
:100820000E94C003812321968111EFCFDF91CF91E8
:100830001F910F91FF90EF9008958881EDCF81E097
:10084000F5CFDF92EF92FF920F931F93CF93DF9339
:10085000D82E8A01EB017B01E40EF51ECE15DF05D3
:1008600059F0D7FE12C0FE0184910E94C003219668
:100870008111F4CF0FEF1FEFC801DF91CF911F91CE
:100880000F91FF90EF90DF9008958881EECF2FB702
:10089000F89487708093E9009091E800892F807226
:1008A00095FF04C09091F20080E4891B2FBF08954A
:1008B0007F928F929F92AF92BF92CF92DF92EF92F0
:1008C000FF920F931F93CF93DF93C82E8B017A0172
:1008D0008091FD01811110C08FEF9FEFDF91CF91CB
:1008E0001F910F91FF90EF90DF90CF90BF90AF904E
:1008F0009F908F907F9008958091C00180FF05C0E8
:100900008091E00082608093E000CE2DDF2DD12C1D
:100910008AEFB82E8C2D8770982E8C2D8072882EA1
:100920008C2D8074782E9AE3A92E209719F4DD205F
:1009300009F452C08C2D0E94470481110AC0BA9458
:10094000BB2051F261E070E080E090E00E94130271
:10095000ECCF8C171D0611F00CF08C2F9FB7F8947C
:100960009092E9002091E80025FD02C09FBFDDCFF5
:10097000282F30E0C21BD30B882029F08150A0F033
:100980001092F100FBCFF801C7FC0AC0815050F073
:1009900041914093F100FACF44914093F100319698
:1009A0008150D0F7020F131FDD2021F0A092E80044
:1009B000D12CDCCF8091E80085FD07C0A092E80033
:1009C000DD24D394209791F2F3CF209779F6772006
:1009D00069F2A092E800CACF5D9884E68093BF01D7
:1009E000C7017CCF615030F02091F100FC012083E1
:1009F0000196F8CF289884E68093FC0108958091B1
:100A0000B20181110DC082E08093AE0184E0809339
:100A1000AF011092B1011092B00181E08093B20158
:100A20008EEA91E00895EF92FF921F93CF93DF93A8
:100A30001F92CDB7DEB77C0180918A0281112AC056
:100A400011E010937D0210937E0283E892E0909370
:100A5000800280937F0210928202109281028CE7C2
:100A600091E090937A02809379021092850210921D
:100A700084021092870210928602109388021093CB
:100A8000890281EC809383020E94FF040E9472011C
:100A900010938A0282E0898341E050E0BE016F5FDB
:100AA0007F4F80917C020E94580497FD08C080917E
:100AB0007C0248E050E0B70180640E9458040F9027
:100AC000DF91CF911F91FF90EF9008950F931F93A7
:100AD000CF93DF931F92CDB7DEB782E0898342E4E4
:100AE00050E069ED70E080E80E9421040E94FF045C
:100AF000DC0112960D911C910115110589F0D801A8
:100B0000ED91FC910280F381E02DBE016F5F7F4F7C
:100B1000C801099597FD04C0F80100851185ECCF47
:100B200089810F90DF91CF911F910F910895CF93FD
:100B3000DF93EC0180910B01882331F083E00E9468
:100B400058041816190634F081E090E09B838A83DC
:100B500080E090E0DF91CF910895CF93DF931F92D3
:100B6000CDB7DEB76983DC01ED91FC910280F381A2
:100B7000E02D41E050E0BE016F5F7F4F09950F907F
:100B8000DF91CF91089583E08093E9008091F20096
:100B9000882319F08AE38093E800089583E00E9497
:100BA000470490E00895CF93DF931F92CDB7DEB74F
:100BB000FC018485958597FD08C02FEF3FEF3587B1
:100BC00024870F90DF91CF910895CE0101960E9466
:100BD000C401019719F4898190E0F3CF8FEF9FEF63
:100BE000F0CF0F931F930E944502609331027093E0
:100BF0003202809333029093340289E292E00E94A1
:100C0000D30597FF1DC00E9445020091310210914B
:100C100032022091330230913402601B710B820B3F
:100C2000930B00912D0210912E0220912F023091F2
:100C300030026017710782079307F8F28FEF9FEF7A
:100C40001F910F9108950F931F93CF93DF931F92DE
:100C5000CDB7DEB78C01FC018485958597FF0BC06D
:100C6000CE0101960E94C401019771F4898190E040
:100C7000F80195878487F801848595850F90DF9129
:100C8000CF911F910F9108958FEF9FEFF1CFFC014E
:100C90008485958597FD0BC09FB7F89482E080937B
:100CA000E9008091F2009FBF90E0019608959FB700
:100CB000F89482E08093E9008091F2009FBF90E079
:100CC0000895DC01FB0112962C9112978481958185
:100CD0002817190641F491818081813A31F49D7F72
:100CE00081E0913009F080E008958132E1F79B3096
:100CF00029F482811F968C9381E008959A3099F7A8
:100D0000828150968C93F8CFDC01FB0188E48083CC
:100D100089E4818384E482831D969C911D979F7052
:100D20009F5B93831D968D919C9124E0969587956A
:100D30002A95E1F78F708F5B848385E00895EF92A9
:100D4000FF920F931F93CF93DF93FB0120812138F4
:100D500071F52381223259F5DC0112964C912481E0
:100D600035814217130619F5EC010B851C85F12C12
:100D7000E12C0115110589F0F8014481558162814A
:100D8000738180E80E9421048F3F980749F0E80EA4
:100D9000F91ED8010D911C91ECCF81E08F87C7011E
:100DA000DF91CF911F910F91FF90EF90089590E008
:100DB00080E0F6CFCF93DF93CDB7DEB769970FB65C
:100DC000F894DEBF0FBECDBFFC01DB018C918F5FBD
:100DD0008C939E012D5F3F4F8DE0D9011D928A9526
:100DE000E9F729E0298384E08A8391E09D8383E009
:100DF0008E832A8721E22B879C879D879F8722E20B
:100E0000288B27E02B8B25E02C8B8E8B20E430E089
:100E1000388F2F8B998F82818B8395858685998BCF
:100E20008A8B838180688D8B49E150E0BE016F5FC2
:100E30007F4F80E00E94210469960FB6F894DEBFD0
:100E40000FBECDBFDF91CF910895CF92DF92EF9289
:100E5000FF920F931F93CF93DF936C01EB017B0104
:100E6000E40EF51E10E000E0CE15DF0581F069917B
:100E70006D30D1F3D601ED91FC910190F081E02D20
:100E8000C6010995892B19F00F5F1F4FEDCFC801DF
:100E9000DF91CF911F910F91FF90EF90DF90CF9056
:100EA0000895DC01683888F1685816968C91169779
:100EB000861721F117968C9117978617F9F01896D7
:100EC0008C9118978617D1F019968C9119978617DF
:100ED000A9F01A968C911A97861781F01B968C911F
:100EE0001B97861759F0FD01369690E080E021911E
:100EF00021114FC08A0F9B1FFC016683CD01049610
:100F00000E94130581E090E00895862F90E067FF2E
:100F100012C0FC01E058F10921E030E001C0220FCD
:100F2000EA95EAF714968C911497822B14968C9379
:100F3000149760E0BACF1C96ED91FC911D97E80FD5
:100F4000F91F6491611109C081E090E013969C93B0
:100F50008E93129790E080E00895862F807C803CED
:100F600069F414968C911497806414968C9314975A
:100F70006F73623309F099CF64E697CF67FFF9CFBB
:100F800014968C911497826014968C9314976F77B3
:100F9000F0CF01968630910509F0A9CFD5CFEF9219
:100FA000FF921F93CF93DF93EC01162F0E945107FE
:100FB0007C01E8E7E10F183890F4812F90E017FFEB
:100FC0002AC0FC01E058F10981E090E001C0880FDF
:100FD000EA95EAF780959C8189238C83E0E0DE0125
:100FE00086E0EE2341F016969C911697E91303C014
:100FF00016961C921697815011968111F2CFCE0150
:1010000004960E941305C7019927DF91CF911F9184
:10101000FF90EF900895EC85FD85E80FF91FE491AE
:10102000EE2389F38E2F807C803C41F48C818F7B72
:101030008C83EF73E23399F6E4E6D1CFE7FFFACF82
:101040008C818D7F8C83EF77F5CF90E080E00895E1
:10105000CF92DF92EF92FF920F931F93CF93DF9384
:10106000EC01898182FD4FC085FD4DC02A8130E0B1
:10107000F901E654FF4F8491F901E757FE4F94912F
:1010800026593E4FF9012491222309F4C5C0882333
:10109000E9F081508F30D0F4E82FF0E0EE5AF74FAE
:1010A0000C944E2EE708EB086108DF08E308660899
:1010B00066086608EE08F408F808FC0802096608E5
:1010C0000609809180008F7780938000E22FF0E006
:1010D000EE0FFF1FE455FF4FA591B491EC919E23B5
:1010E00031E020E009F430E0832F922F398131FB89
:1010F000222720F933FB332730F92327F1E08F270C
:10110000817082278A8B0E944502AB01BC019A89BB
:101110002B898881992309F49CC021119AC080FDF4
:101120007EC0816088834E875F87688B798B8B89CF
:10113000882319F1992309F18D819E81B0E0A0E007
:101140000E851F85288939896A017B01C01AD10A59
:10115000E20AF30A97018601081719072A073B07D5
:1011600060F0888181FD09C09B859D878A648F77A7
:1011700088834E875F87688B798B8E859F85A8894A
:10118000B989481B590B6A0B7B0B0F81188530E01E
:1011900020E0401751076207730740F08B858823D2
:1011A00029F08C871B86888184608883DF91CF91AA
:1011B0001F910F91FF90EF90DF90CF900895809155
:1011C00080008F7D81CF80918000877F7DCF84B527
:1011D0008F7784BD7BCF84B58F7DFBCF80919000CE
:1011E0008F778093900072CF809190008F7DF9CFA0
:1011F00080919000877FF5CF8091C0008F7780939A
:10120000C00064CF8091C0008F7DF9CF8091C20073
:10121000877F8093C2005ACF90E080E067CF0E8531
:101220001F85288939896A017B01C01AD10AE20A1F
:10123000F30A0B811C8130E020E0C016D106E206E3
:10124000F30608F49ACF21E02B8B806280688883B4
:101250006ECF8E7F888391116ACF222309F48DCFC0
:101260001B8A81FD03C08B858F5F8B8788818D7F73
:10127000806188834E875F87688B798B86FF04C087
:101280001C861B868F7B8883888187FF76CF8F772C
:1012900088838981816089834ACFCF93DF93EC0172
:1012A000898184FF03C0CE010E942808988193FBA6
:1012B000882780F993FF02C0977F9883DF91CF91B1
:1012C0000895CF93DF93EC01898184FF03C0CE01A1
:1012D0000E9428089981892F817090FF02C09E7F0B
:1012E0009983DF91CF9108951F93DC01FB017C91DD
:1012F00011965C91119712961C91972F990F990F47
:10130000990F35E5292F239F020E20E0211D11247E
:10131000822F672F6074472F407277FD66C061117E
:1013200052C0411105C0922F9095892F90E004C0C2
:1013300025E5280F90E08BEA5F3F09F422C0552392
:1013400009F474C0509530E0552329F0559F312D94
:10135000112451113F5F432F4095582F549F050E84
:1013600050E0511D852F249F020E20E0211D592F92
:10137000549F050E50E0511D952F1124830F230F0C
:10138000930F1F3FD9F030E0112321F0119F312D31
:1013900009F03F5F332309F44DC0482F439F040EEB
:1013A00040E0411D842F239F020E20E0211D592F74
:1013B000539F050E50E0511D952F112480832183EA
:1013C00092831F91089541110BC0392F2AEA329F51
:1013D000030E30E0311D11249BEA931B280FA5CF8B
:1013E00090E02095982F80E0A7CF611112C04111A5
:1013F0000CC0392F2AEA329F030E30E0311D112430
:101400002BEA231B95E5930FEECF922F909520E0CA
:1014100093CF411106C025E5280F9BEA981B822F28
:10142000F6CF2AEA280F90E0932FF8CF9FEF2FEF07
:101430008FEFA7CF90E020E080E0C0CF0F931F9305
:10144000CF93DF932091AD012F5F322F3770309310
:10145000AD0120FF2BC020E831FD2064347009F07D
:101460002062205FFC01EC01239600E011E064851E
:10147000662329F070E0C8010E94182E6F5F618713
:10148000322F369F030E30E0311D1124311110C070
:101490001682662311F0615061873196EC17FD07C3
:1014A00031F7DF91CF911F910F91089520E0D4CFB4
:1014B00031503683EECF4F925F927F928F929F9200
:1014C000AF92BF92CF92DF92EF92FF920F931F9352
:1014D000CF93DF932C01EB010E94EE01F2012785EF
:1014E0003089621B730B6A307105B0F3F8948A81FE
:1014F0009B81181619060CF0CDC1E881F98165B100
:10150000862E689483F835B1377F35B9DA848F81B8
:101510002D2D281B822F2F834F85042E000C550B59
:10152000AA81BB817D85FC84EE847F5FF394E39484
:101530009E819884B984AB841181C12C6C2D0C2DB3
:101540002C2D2181112788942111280F08F42FEFC9
:101550008195889470FD120F1795889471FD120F74
:101560001795889472FD120F1795889473FD120FCA
:101570001795889474FD120F1795889475FD120FB6
:101580001795889476FD120F1795889477FD120FA2
:1015900017958894622F7111612F8D0D162F002CD5
:1015A00085B800C000C017FF35B920816627889430
:1015B00000C0002C35B92111290F00C0002C85B8BE
:1015C00000C000C016FF35B908F42FEF919588943C
:1015D00000C0002C35B9F0FC620F00C0002C85B8AB
:1015E00000C000C015FF35B967958894F1FC620F03
:1015F00000C0002C35B96795889400C0002C85B8D0
:1016000000C000C014FF35B9F2FC620F67958894E2
:1016100000C0002C35B9F3FC620F00C0002C85B867
:1016200000C000C013FF35B967958894F4FC620FC1
:1016300000C0002C35B96795889400C0002C85B88F
:1016400000C000C012FF35B9F5FC620F67958894A1
:1016500000C0002C35B9F6FC620F00C0002C85B824
:1016600000C000C011FF35B967958894F7FC620F80
:1016700000C0002C35B96795889400C0002C85B84F
:1016800000C000C010FF35B9122FF110162F9B0DAE
:1016900000C0002C35B900C000C0002C85B800C0C7
:1016A00000C017FF35B922816627889400C0002C3E
:1016B00035B92111290D00C0002C85B800C000C02B
:1016C00016FF35B908F42FEFE40FF51F00C0002C0A
:1016D00035B9E0FC620F00C0002C85B800C000C026
:1016E00015FF35B967958894E1FC620F00C0002CA6
:1016F00035B96795889400C0002C85B800C000C03B
:1017000014FF35B9E2FC620F6795889400C0002C85
:1017100035B9E3FC620F00C0002C85B800C000C0E2
:1017200013FF35B967958894E4FC620F00C0002C64
:1017300035B96795889400C0002C85B800C000C0FA
:1017400012FF35B9E5FC620F6795889400C0002C44
:1017500035B9E6FC620F00C0002C85B800C000C09F
:1017600011FF35B967958894E7FC620F00C0002C23
:1017700035B96795889400C0002C85B800C000C0BA
:1017800010FF35B9122FE110162F919400C0002CD4
:1017900035B99A0C00C000C085B800C000C017FF62
:1017A00035B921816627889400C0002C35B92111F4
:1017B000280F00C0002C85B800C000C016FF35B946
:1017C00008F42FEF8195889400C0002C35B970FD86
:1017D000620F00C0002C85B800C000C015FF35B9ED
:1017E0006795889471FD620F00C0002C35B967952C
:1017F000889400C0002C85B800C000C014FF35B923
:1018000072FD620F6795889400C0002C35B973FD96
:10181000620F00C0002C85B800C000C013FF35B9AE
:101820006795889474FD620F00C0002C35B96795E8
:10183000889400C0002C85B800C000C012FF35B9E4
:1018400075FD620F6795889400C0002C35B976FD50
:10185000620F00C0002C85B800C000C011FF35B970
:101860006795889477FD620F00C0002C35B96795A5
:10187000889400C0002C85B800C000C010FF35B9A6
:10188000122F7111162F8D0D00C0002C35B9119734
:1018900009F086CE4A815B8120EE31E0DA010E94B8
:1018A000542EDC01CB01F4E0B695A795979587956A
:1018B000FA95D1F730E020E0B901EAE94E9F040E35
:1018C000611D5E9F600D711D1124650F711D860FD6
:1018D000971FA11DB11D893E43E09407A105B105E5
:1018E00008F434C0885E9340A109B10942E0B6957E
:1018F000A795979587954A95D1F747E0849F080E5D
:10190000211D949F200D311D1124290F311D60913F
:10191000AC0170E0860F971F820F931F4091F40176
:101920005091F5016091F6017091F701292F33274D
:10193000420F531F611D711D4093F4015093F50137
:101940006093F6017093F7018093AC0178940E9444
:10195000EE01F201708B6787DF91CF911F910F919C
:10196000FF90EF90DF90CF90BF90AF909F908F90BF
:101970007F905F904F90089581E090E00895239AC2
:1019800008956F927F928F92CF92DF92EF92FF92A3
:101990000F931F93CF93DF93CDB7DEB762970FB648
:1019A000F894DEBF0FBECDBF6C017A013801822EE4
:1019B000DC011C962C91CA0157FF04C08827992787
:1019C000841B950B7A8369839C838B839E838D8391
:1019D0006D867E868F86213049F5CE0101960E9464
:1019E0001E0A83E0888B1A8A198AF7FE02C08DEFDF
:1019F000888BD601ED91FC910684F785E02DBE0120
:101A00006F5F7F4FC601099562960FB6F894DEBFEF
:101A10000FBECDBFDF91CF911F910F91FF90EF903F
:101A2000DF90CF908F907F906F9008951C861B86DB
:101A30001A86198618861F82D4CFEF92FF920F93D1
:101A40001F93CF93DF93CDB7DEB762970FB6F894AD
:101A5000DEBF0FBECDBF7C01DC011C968C917A836A
:101A600069835C834B835E834D830D871E872F873D
:101A70008130F9F4CE0101960E941E0A188A1A8A52
:101A8000198AD701ED91FC910684F785E02DBE01FE
:101A90006F5F7F4FC701099562960FB6F894DEBF5E
:101AA0000FBECDBFDF91CF911F910F91FF90EF90AF
:101AB00008951C861B861A86198618861F82DECF1B
:101AC00090E080E00895FC018585968508950F9348
:101AD0001F93CF93DF9300D01F92CDB7DEB7AB013A
:101AE00019821A821B82DC01ED91FC910190F08138
:101AF000E02D00E010E020E0BE016F5F7F4F099510
:101B00000F900F900F90DF91CF911F910F9108953B
:101B1000FC01DB013C912081230F08F42FEF20838F
:101B200011963C9111972181230F08F42FEF218307
:101B300012963C912281230F08F42FEF22830895FF
:101B4000FC013081329F030E30E0311D3083FB01F8
:101B50003081329F030E30E0311D3083FA01308135
:101B6000329F030E30E0311D308311240895CF934E
:101B7000DF93CEEFD1E0AE014E5F5F4FBE016F5FEE
:101B80007F4F2DEFCE010E94A00D239682E0CC3135
:101B9000D80789F7DF91CF910895CF93DF93DC01C8
:101BA0008CE390E014969C938E93139784EF91E0CE
:101BB00016969C938E93159718969C938E931797D1
:101BC00080E991E01A969C938E9319971B961C922C
:101BD0001B971C961C921C971D961C921D971E9677
:101BE0001D921D921D921C92519752961C925297D3
:101BF00053961C92539712966C93129711968C9150
:101C000011978F7D877F11968C931197062E000C6C
:101C1000770BFB01E757FE4F849166597E4FFB011E
:101C200024912223C9F030E0220F331FF901E45A36
:101C3000FE4F45915491F901E25BFE4FC591D4915D
:101C40002FB7F894FA013081982F909593239083C1
:101C5000E8818E2B88832FBF11968C9111978B7EF4
:101C60008D7F11968C93DF91CF910895CF93C09182
:101C70001C0287EF93E00E94A12DC81729F06C2F5A
:101C800087EF93E00E94A92D8CE192E0CF91089517
:101C900090911C029F5F9431A0F490931C0290914C
:101CA0001C029C3020F0811102C010921C02909105
:101CB0001C029B3021F4811107C010921C020C946D
:101CC000360E10921C02EBCF84E180931C02F7CFFA
:101CD000FF920F931F93CF93DF93EC018B01FB01D6
:101CE000F0800E94A12DF81621F06F2DCE010E94E8
:101CF000A92DF801F1802196CE010E94A12DF816A0
:101D000021F06F2DCE010E94A92DC801DF91CF9146
:101D10001F910F91FF900895CF93DF93EB010E94E5
:101D2000A12D8883CE01DF91CF910895AF92BF920C
:101D3000CF92DF92EF92FF920F931F93CF93DF9397
:101D400000D000D01F92CDB7DEB79091ED0199235E
:101D5000C1F07A01162F082F60EF71E085EF93E054
:101D60000E948C0E8091F001801323C01230D9F4B0
:101D700080911C02843129F084E180931C020E942E
:101D8000360E1092ED010F900F900F900F900F9064
:101D9000DF91CF911F910F91FF90EF90DF90CF9047
:101DA000BF90AF900895113061F780E00E94480E17
:101DB000E8CF6E0186E0C80ED11C8E010F5F1F4F69
:101DC000E01AF10A5801B801C701800F911F0E9463
:101DD0008C0E0F5F1F4FF501608180EA92E00E9438
:101DE00051070C151D0571F71092A6021092A7025B
:101DF0001092A8021092A9021092AA021092AB02AD
:101E00001092A40284EA92E00E941305BACFFC016A
:101E100001900020E9F73197AF01481B590BBC0135
:101E200089E292E00C949705CF93DF93FC01448103
:101E300055816081718189E292E00E949705EC01F1
:101E400080E991E00E94070F8C0F9D1FDF91CF91D9
:101E500008958F929F92AF92BF920F931F93CF934B
:101E6000DF93CDB7DEB7A1970FB6F894DEBF0FBEF4
:101E7000CDBF19A2423008F44AE08E010F5D1F4F1A
:101E8000842E912CB12CA12CA50194010E942C2E02
:101E9000E62FB901CA01EA30F4F4E05DD801EE930F
:101EA0008D01232B242B252B79F790E080E01097D0
:101EB00019F0CD010E94070FA1960FB6F894DEBF6E
:101EC0000FBECDBFDF91CF911F910F91BF90AF900B
:101ED0009F908F900895E95CE1CFCF93DF9320919D
:101EE000BF023091C002232B89F0FC01C091BB02DC
:101EF000D091BC0260817181CE010E947130009747
:101F000029F08C1B9D0BDF91CF9108958FEF9FEFF0
:101F1000FACF0E945130FC0180819181009711F02D
:101F20000C94302D60E070E0CB0108950F931F9367
:101F3000CF93DF938C01EB01FC01808191810097AD
:101F4000E1F06881798161157105A9F042815381C1
:101F50002C813D814217530770F00E946A308C81BA
:101F60009D81F801958384831D821C82DF91CF912E
:101F70001F910F9108950E940B2F88819981F8017C
:101F8000918380838A819B81938382838C819D81CD
:101F900095838483198218821B821A82E5CFCF939E
:101FA000DF93EC0188819981009711F00E940B2F3B
:101FB000198218821D821C821B821A82DF91CF91A6
:101FC0000895FC0180819181009711F00C940B2FF2
:101FD00008950F931F93CF93DF93EC01888199812C
:101FE000009759F02A813B812617370730F081E0AE
:101FF000DF91CF911F910F9108958B016F5F7F4FFC
:102000000E94942F009759F0998388831B830A8339
:102010002C813D81232B59F7FC011082E8CF80E011
:10202000E7CFEF92FF920F931F93CF93DF9361154A
:10203000710541F480E0DF91CF911F910F91FF90E6
:10204000EF90089541155105B1F07B01EC010C8131
:102050001D81040F151FB8010E94E90F882351F359
:10206000288139818C819D81B701820F931F0E9445
:102070006A301D830C8381E0DECFEF92FF920F93D5
:102080001F93CF93DF9300D000D0CDB7DEB77C0194
:10209000862F4AE08E010F5F1F4FB80190E00E942B
:1020A000572DF80101900020E9F73197AF01401B4F
:1020B000510BB801C7010E9411100F900F900F90A3
:1020C0000F90DF91CF911F910F91FF90EF900895A6
:1020D000EF92FF920F931F93CF93DF93EC017B015D
:1020E0008A01BA010E94E90F81110BC0CE010E9442
:1020F000CF0FCE01DF91CF911F910F91FF90EF9005
:1021000008951D830C83B701888199810E946A30EC
:10211000F0CFEF92FF920F931F93CF93DF93CDB742
:10212000DEB729970FB6F894DEBF0FBECDBF8C0186
:10213000862FF80111821082138212821582148276
:102140004AE09E012F5F3F4F7901B90190E00E9464
:10215000772DF70101900020E9F73197AF014E1973
:102160005F09B701C8010E94681029960FB6F8945C
:10217000DEBF0FBECDBFDF91CF911F910F91FF90BA
:10218000EF900895CF93DF93EC01FB01861797073B
:1021900049F0608171816115710541F0448155817B
:1021A0000E946810CE01DF91CF9108950E94CF0F59
:1021B000F9CFFC01118210821382128215821482DF
:1021C000FB0101900020E9F73197AF01461B570B47
:1021D0000C946810AF92BF92CF92DF92EF92FF9271
:1021E0000F931F93CF93DF937C016B015A018901F9
:1021F0002417350720F48B2D5901042F182F62E97D
:1022000071E0C7010E94D910D6011496CD91DC91DE
:10221000AC16BD0620F50C171D0708F4E801D60121
:10222000ED91FC911197EC0FFD1F108110826D91C3
:102230007C916A0D7B1D61157105E9F0FB01019030
:102240000020E9F73197AF01461B570BC7010E94E9
:102250006810F60180819181C80FD91F1883C701CA
:10226000DF91CF911F910F91FF90EF90DF90CF9072
:10227000BF90AF900895C7010E94CF0FEACFAF92F1
:10228000BF92CF92DF92EF92FF920F931F93CF9363
:10229000DF93CDB7DEB761970FB6F894DEBF0FBE00
:1022A000CDBF7C015B018E01035F1F4F85E0F8010C
:1022B00011928A95E9F762E971E0CE0107960E94D2
:1022C000D910F1E0AF16B10419F482E3A82EB12CB5
:1022D00085E08E9D60018F9DD00C1124F12CE12CA6
:1022E000CA0CDB1CB801C6018E0D9F1D0E948C0E0E
:1022F00084E0E816F10409F456C0F801B0801A82AF
:1023000019821C821B821E821D82BE01695F7F4F63
:10231000CE0101960E94C2106B2DCE0101960E9443
:102320003D10811104C0CE0101960E94CF0F41E003
:1023300050E063E971E0CE0101960E941110811115
:1023400004C0CE0101960E94CF0FBE016F5F7F4F88
:10235000CE0107960E94C210CE0101960E94E10FA5
:10236000FFEFEF1AFF0A0F5F1F4F85E0E816F10439
:1023700009F0B8CFCE0107960E94140FCE01079640
:102380000E94E10F61960FB6F894DEBF0FBECDBF7D
:10239000DF91CF911F910F91FF90EF90DF90CF9041
:1023A000BF90AF900895B9881A8219821C821B824F
:1023B0001E821D82BE01695F7F4FCE0101960E9481
:1023C000C2106B2DCE0101960E943D10B8CF1F9216
:1023D0000F920FB60F9211242F933F938F939F93D9
:1023E000AF93BF938091F4019091F501A091F60114
:1023F000B091F7013091F30123E0230F2D3758F509
:102400000196A11DB11D2093F3018093F4019093D7
:10241000F501A093F601B093F7018091F801909136
:10242000F901A091FA01B091FB010196A11DB11D26
:102430008093F8019093F901A093FA01B093FB0106
:10244000BF91AF919F918F913F912F910F900FBEB0
:102450000F901F90189526E8230F0296A11DB11D1D
:10246000D2CF1F920F920FB60F9211248F939F938A
:102470008091E1009091E100937F9093E10083FFD0
:102480000FC01092E90091E09093EB001092EC00E5
:1024900092E39093ED001092FD0198E09093F0008C
:1024A00082FF22C093E09093E9009091F20099237B
:1024B00019F09AE39093E8009091BF01992341F0BD
:1024C0009091BF0191509093BF01911101C05D9A0D
:1024D0009091FC01992341F09091FC0191509093CF
:1024E000FC01911101C0289A84FF18C08091E2007C
:1024F0008E7E81608093E2008091E1008F7E8093E8
:10250000E1008091C0018E7E80618093C0019F9127
:102510008F910F900FBE0F901F90189580FFF7CFEF
:102520008091E2008E7E80618093E2008091E100E4
:102530008E7E8093E1008091C0018E7E8160E5CF28
:102540001F920F920FB60F921124CF92DF92EF924B
:10255000FF920F931F932F933F934F935F936F932C
:102560007F938F939F93AF93BF93EF93FF93CF93FB
:10257000DF93CDB7DEB76C97DEBFCDBF1092E90019
:102580008091E80083FF25C068E0CE0145960E9457
:10259000F20482EF8093E8008D8987FF39C0909123
:1025A000E80090FFFCCF982F907609F034C19E8907
:1025B0004F89588D2F89F88C911131C0803861F581
:1025C0008091C1018093F1001092F1008EEF809311
:1025D000E8006C960FB6F894DEBF0FBECDBFDF915A
:1025E000CF91FF91EF91BF91AF919F918F917F918B
:1025F0006F915F914F913F912F911F910F91FF909C
:10260000EF90DF90CF900F900FBE0F901F90189516
:102610009EEF9093E800C7CF1092F100D5CF913094
:1026200059F48111D3CF4130510581F68091C10118
:102630008D7F8093C101CACF933049F48111C6CFF9
:102640004130510519F68091C1018260F2CF953079
:1026500041F48091E80080FFFCCF20682093E300E4
:10266000B5CF963009F0A9C00B8D1C8D22E01092D9
:10267000E9001092BD011092BC01F2122EC010921E
:10268000BB011092BA010E9466051F8299E09983EE
:10269000FA8291E09E8390EA98879AEF9987209139
:1026A000BC013091BD01275F3F4F3C832B838D835D
:1026B0001092E9001092BD011092BC011093BB0171
:1026C0000093BA0149E050E0BE016F5F7F4F80E0A8
:1026D0000E9421040E94660579CF1093BB010093EC
:1026E000BA010E94FF04DC0112960D911C910115A4
:1026F000110509F451C1D801ED91FC910480F581D7
:10270000E02DBE016B5E7F4FC8010995009709F06F
:102710003EC1F80100851185EACFF3E0FF120EC03B
:102720008F89882309F440C0823061F440E860E179
:102730008DE391E00E94EE03811148CF81E2809306
:10274000EB0047CF813029F440E86BE081E391E072
:10275000F1CF833099F70E94FF04DC011296ED90CF
:10276000FC908E010F5F1F4F6801E114F10479F0B6
:10277000D701ED91FC910680F781E02DB801C701EA
:102780000995080F111DF701E084F184EECFD801FF
:102790001C92F60101900020E9F73197BF016C19F6
:1027A0007D0940E0C601C6CF6BE171E0FB014491B9
:1027B00050E080E80E94210409CF973009F4BECF91
:1027C000983021F481E08093F10000CF993009F036
:1027D000FDCE837009F0B2CFE3E1F1E081E031E0BA
:1027E00096E32191222371F08093E9003093EB006E
:1027F000DF0111972C912093EC009093ED008F5FF7
:10280000873079F78EE78093EA001092EA008F898B
:102810008093FD01DBCE8B8D9C8D1092E900109290
:10282000BD011092BC019093BB018093BA01898DC8
:10283000811192C08E899D89913A49F4813209F0C3
:102840007DCF47E050E064E071E080E0B3CF9132AB
:1028500009F074CF833269F48F89988DB0E0A0E0DD
:102860008093000190930101A0930201B0930301B2
:10287000ADCE803269F48091E80082FFFCCF67E042
:1028800084E091E00E94F2048BEF8093E8009ECEFA
:10289000823209F09BCE8F8980930B01EEEFFFE728
:1028A000859194918B3F9C4D51F1E0E0F8E080914F
:1028B000040190910501A0910601B0910701803BB0
:1028C0009440A105B105F1F480910B0180FD1AC07F
:1028D000EE3F8AE0F80789F587E797E791838083E1
:1028E000809160008093BE0188E19BE00FB6F89470
:1028F000A895809360000FBE9093600067CEEEEFC6
:10290000FAE0D5CF808191818737974709F05ECE75
:10291000A895809160008861809360008091BE01DD
:1029200080936000EE3F2AE0F20789F08091FE0A72
:102930009091FF0A9183808349CE8081918187376E
:10294000980751F29093FF0A8093FE0AC5CF109228
:10295000FF0A1092FE0A3ACE0E94FF04DC01129692
:102960000D911C910115110509F4E8CED801ED91E6
:10297000FC910190F081E02DBE016B5E7F4FC8019C
:102980000995811123CEF80100851185EBCF18162A
:1029900019060CF41BCED2CEF1E0FF12BECE6FE1D1
:1029A00071E004CFCF9310922C0210922B0288EE8C
:1029B00093E0A0E0B0E080932D0290932E02A093CC
:1029C0002F02B09330028AE691E090932A0280931E
:1029D00029028FEF9FEF9093360280933502109279
:1029E000A3021092A20288E891E09093A102809342
:1029F000A00280919802811113C01092930210924C
:102A0000920288E292E090939502809394028FE282
:102A100090E0909397028093960281E080939802D1
:102A200080918A0281112AC0C1E0C0937D02C093C7
:102A30007E0283E892E09093800280937F0210925E
:102A40008202109281028CE791E090937A02809347
:102A500079021092850210928402109287021092DD
:102A60008602C0938802C093890281EC809383021E
:102A70000E94FF040E947201C0938A02E0918402C6
:102A8000F0918502309709F070C082E992E090934E
:102A90008502809384028091860290918702209122
:102AA000960230919702820F931F90938702809332
:102AB000860288EA91E09093AD028093AC028FEF9A
:102AC0008093AE021092B0021092AF021092BA023E
:102AD0001092B9028FEF9FEFDC018093B5029093C3
:102AE000B602A093B702B093B80262E08BE793E01E
:102AF0000E94CD0D63E087E693E00E94CD0D64E077
:102B000083E593E00E94CD0D65E08FE393E00E94A2
:102B1000CD0D66E08BE293E00E94CD0D67E087E18A
:102B200093E00E94CD0D68E083E093E00E94CD0D1C
:102B300069E08FEE92E00E94CD0D6AE08BED92E0AD
:102B40000E94CD0D60E187EC92E00E94CD0D62E91C
:102B500071E081EC92E00E94D91062E971E08BEBA8
:102B600092E0CF910C94D910FC0180819181009763
:102B7000D9F782E992E0918380838DCFCF93DF9361
:102B8000CDB7DEB768970FB6F894DEBF0FBECDBFE6
:102B9000789484B5826084BD84B5816084BD85B538
:102BA000826085BD85B5816085BD80916E00816044
:102BB00080936E00109281008091810082608093EA
:102BC00081008091810081608093810080918000EC
:102BD0008160809380008091910082608093910059
:102BE000809191008160809391008091900081603C
:102BF000809390008091C10084608093C100809197
:102C0000C10082608093C1008091C1008160809387
:102C1000C1008091C30081608093C3008091C00097
:102C200082608093C0008091C20081608093C20066
:102C300080917A00846080937A0080917A0082602B
:102C400080937A0080917A00816080937A008091ED
:102C50007A00806880937A001092FD011092C10181
:102C60001092C0018091D70081608093D70080EAE4
:102C70008093D80089B5806189BD89B5826089BD9E
:102C800009B400FEFDCF61E070E080E090E00E94BA
:102C900013028091D8008F7C80618093D80080914E
:102CA000E000807F8093E0008091E1008E7E809341
:102CB000E1008DE08093E200559A209A8091D50141
:102CC000811145C01092C7011092C6018FEF809309
:102CD000CA018093CB018093CC018093CD01809376
:102CE000CE018093CF0181E08093D0011092D20178
:102CF0001092D1011092C9011092C8018091230253
:102D000090912402892B31F484EC91E09093240279
:102D100080932302E091C201F091C301309721F02A
:102D200084EC91E09583848384EC91E09093C301DB
:102D30008093C2011092D4011092D30187E391E0F5
:102D40009093C5018093C40181E08093D501239ABB
:102D50008EEF91E09093C7018093C6018AE090E0E6
:102D60009093D2018093D1018091B1029091B202EF
:102D7000A091B302B091B402843C29E09207A1056E
:102D8000B10520F484EC99E0A0E0B0E08093B102BA
:102D90009093B202A093B302B093B4028FEF8093EA
:102DA000CA0180EB8093CB0180EF8093CC0186E455
:102DB0008093AE028FEF9FEF90933602809335029F
:102DC00060ED77E080E090E00E94130288EA91E0F5
:102DD0009093AD028093AC026CE172E087EF93E0D8
:102DE0000E948C0E6DED71E086EF93E00E948C0ED8
:102DF00060EF71E085EF93E00E948C0E08EF13E026
:102E0000BE016F5E7F4FC8010E948C0E8091C5028B
:102E10009091C602892B41F06989E091C102F0913D
:102E2000C202808181116FC06989CE0101960E9422
:102E30008910BE016F5F7F4F81EC92E00E94960F78
:102E4000CE0101960E94E10F0F5F1F4F011534E084
:102E50001307B1F641E050E04C0F5D1F465F5F4F36
:102E6000588F4F8BBCE14B2EB2E05B2E05E012E099
:102E7000AEE0AA2EB12C8BE793E00E94280887E6EB
:102E800093E00E94280883E593E00E9428088FE3DE
:102E900093E00E9428088BE293E00E94280887E1D3
:102EA00093E00E94280883E093E00E9428088FEEB8
:102EB00092E00E9428088BED92E00E94280887EC9F
:102EC00092E00E94280889E292E00E944706892B3E
:102ED00009F44FC262E971E0CE0101960E94D91057
:102EE0000E94F10597FD39C08A309105B1F18B87B9
:102EF0001C8641E050E0BE01655F7F4FCE01019628
:102F00000E941110EDCFCE0101960E9489101C86FF
:102F10001B861E861D86188A1F8661EC72E0CE0114
:102F20000B960E94C2104D815E8169817A81CE012B
:102F30000B960E941110811104C0CE010B960E94C5
:102F4000CF0FBE01655F7F4F81EC92E00E94C210FF
:102F5000CE010B960E94E10F73CFBE016F5F7F4FD2
:102F60008BEB92E00E94960FCE0101960E94E10F3A
:102F700065E971E0CE0101960E94D910CE0101965B
:102F80000E946D0F7C01CE0101960E94E10FEF2897
:102F900021F481EC92E00E94140F67E971E0CE0108
:102FA00001960E94D910CE0101960E946D0F7C01FE
:102FB000CE0101960E94E10FEF2819F481E00E94F2
:102FC000480E69E971E0CE0101960E94D910CE0148
:102FD00001960E946D0F7C01CE0101960E94E10FC7
:102FE000EF2809F05AC06CE971E0CE0101960E9409
:102FF000D910CE0101960E946D0F7C01CE01019681
:103000000E94E10FEF28E1F426E030E043E050E0D9
:103010006BEB72E0CE0101960E94EA10CE010196A0
:103020000E948B0F6B017093F2016093F101CE014E
:1030300001960E94E10F70E060E0C6010E943F111E
:1030400060EA71E0CE0101960E94D910CE0101968E
:103050000E946D0F7C01CE0101960E94E10FEF28C6
:10306000E1F426E030E043E050E06BEB72E0CE01AB
:1030700001960E94EA10CE0101960E948B0F6B010F
:103080007093F2016093F101CE0101960E94E10F6D
:1030900061E070E0C6010E943F1164EA71E0CE0178
:1030A00001960E94D910CE0101960E946D0F7C01FD
:1030B000CE0101960E94E10FEF2861F46091F001CA
:1030C00070E090E080E04AE00E94290F80E991E002
:1030D0000E94070F63E971E0CE0101960E94D910AA
:1030E000CE0101960E946D0F7C01CE0101960E94D7
:1030F000E10FEF28E9F44AE061E070E080E090E061
:103100000E94290F6EE289E292E00E94AD054AE03A
:1031100061E070E080E090E00E94290F4AE060E00A
:1031200070E0CB010E94290F80E991E00E94070F17
:1031300066EA71E0CE0101960E94D910CE01019697
:103140000E946D0F7C01CE0101960E94E10FE114F7
:10315000F10409F061C02091BF023091C00241E04A
:1031600050E06BEB72E0CE0141960E94EA10CE0176
:1031700001963C011C01D12CC12C8D899E89C81659
:10318000D90668F589889A8864E270E0C4018C0DDC
:103190009D1D0E945F30009711F19C01281939098B
:1031A00049013FEF83169306D1F09401A601BE01B9
:1031B0006F5E7F4FCE010B960E94EA10CE010B96F8
:1031C0000E948B0FF101619371931F016401FFEF66
:1031D000CF1ADF0ACE010B960E94E10FCECF80916D
:1031E000F1019091F201089F6001099FD00C112418
:1031F000B301C7018C0D9D1D0E94680E2FEFE21ACE
:10320000F20A32E0630E711C45E0E416F10481F726
:10321000CE0141960E94E10F68EA71E0CE0101966D
:103220000E94D910CE0101960E946D0F6C01CE0153
:1032300001960E94E10FC114D10409F060C02091F1
:10324000BF023091C00241E050E06BEB72E0CE0172
:1032500041960E94EA10CE0101964C011C018D8915
:103260009E89C816D90660F569887A8864E270E09C
:10327000C3018C0D9D1D0E945F30009709F17C01F8
:10328000E618F708FFEFEF16FF06D1F09701A60149
:10329000BE016F5E7F4FCE010B960E94EA10CE01F9
:1032A0000B960E948B0FF101619371931F016701CF
:1032B000FFEFCF1ADF0ACE010B960E94E10FCFCFAE
:1032C0008091F1019091F201089F7001099FF00C2B
:1032D000112422E3E20EF11CB401C7010E94680E22
:1032E0003FEFE31AF30A42E0840E911C8F89988D18
:1032F0008815990589F7CE0141960E94E10F6AEA87
:1033000071E0CE0101960E94D910CE0101960E9473
:103310006D0F7C01CE0101960E94E10FEF2849F567
:103320002091BF023091C00241E050E06BEB72E0AF
:10333000CE0101960E94EA10CE0101960E948B0FE9
:103340007C876B87CE0101960E94E10FBE01655F0D
:103350007F4F85EF93E00E94680E64E670E080E0A6
:1033600090E00E94130260EF71E085EF93E00E940D
:103370008C0E8BE793E00E9461098823C1F01092C4
:10338000EF01FF24F394F092EE010E944502609356
:103390000E0170930F018093100190931101F09230
:1033A000ED0150E040E061E080E00E94960E8BE786
:1033B00093E00E944D098823B9F01092EF01109319
:1033C000EE010E94450260930E0170930F018093FD
:1033D00010019093110181E08093ED0142E350E0F0
:1033E00062E080E00E94960E87E693E00E94610909
:1033F0008823C1F0FF24F394F092EF01F092EE01E4
:103400000E94450260930E0170930F01809310019A
:1034100090931101F092ED0145E050E061E081E010
:103420000E94960E87E693E00E944D098823C1F022
:10343000FF24F394F092EF011093EE010E944502F5
:1034400060930E0170930F0180931001909311010E
:10345000F092ED0147E350E062E081E00E94960EB9
:1034600083E593E00E9461098823C1F01093EF0186
:10347000FF24F394F092EE010E94450260930E0146
:1034800070930F018093100190931101F092ED0160
:103490004AE050E061E082E00E94960E83E593E00E
:1034A0000E944D098823B9F01093EF011093EE01AB
:1034B0000E94450260930E0170930F0180931001EA
:1034C0009093110181E08093ED014CE350E062E0C4
:1034D00082E00E94960E8FE393E00E9461098823A8
:1034E000C9F093E09093EF01FF24F394F092EE0182
:1034F0000E94450260930E0170930F0180931001AA
:1035000090931101F092ED014FE050E061E083E013
:103510000E94960E8FE393E00E944D098823C1F02C
:10352000E3E0E093EF011093EE010E944502609307
:103530000E0170930F01809310019093110181E0AF
:103540008093ED0141E450E062E083E00E94960E3A
:103550008BE293E00E944D098823C1F084E08093C0
:10356000EF011093EE010E94450260930E017093EB
:103570000F01809310019093110181E08093ED0180
:1035800046E450E062E084E00E94960E8BE293E015
:103590000E9461098823C9F084E08093EF01FF2431
:1035A000F394F092EE010E94450260930E01709335
:1035B0000F018093100190931101F092ED0144E10D
:1035C00050E061E084E00E94960E87E193E00E9463
:1035D00061098823C1F00093EF01FF24F394F09276
:1035E000EE010E94450260930E0170930F018093DB
:1035F000100190931101F092ED0149E150E061E07A
:1036000085E00E94960E87E193E00E944D09882391
:10361000B9F00093EF011093EE010E944502609310
:103620000E0170930F01809310019093110181E0BE
:103630008093ED014BE450E062E085E00E94960E3D
:1036400083E093E00E9461098823C9F086E08093BB
:10365000EF01FF24F394F092EE010E944502609383
:103660000E0170930F018093100190931101F0925D
:10367000ED014EE150E061E086E00E94960E83E0AD
:1036800093E00E944D098823C1F086E08093EF010A
:103690001093EE010E94450260930E0170930F019A
:1036A000809310019093110181E08093ED0140E53A
:1036B00050E062E086E00E94960E8FEE92E00E945B
:1036C00061098823C9F087E08093EF01FF24F39418
:1036D000F092EE010E94450260930E0170930F017B
:1036E0008093100190931101F092ED0143E250E0BC
:1036F00061E087E00E94960E8FEE92E00E944D09F5
:103700008823C1F087E08093EF011093EE010E94BF
:10371000450260930E0170930F0180931001909306
:10372000110181E08093ED0145E550E062E087E022
:103730000E94960E8BED92E00E9461098823C9F0E9
:1037400088E08093EF01FF24F394F092EE010E9451
:10375000450260930E0170930F01809310019093C6
:103760001101F092ED0148E250E061E088E00E9432
:10377000960E8BED92E00E944D098823C1F088E0FF
:103780008093EF011093EE010E94450260930E01B9
:1037900070930F01809310019093110181E0809349
:1037A000ED014AE550E062E088E00E94960E87EC69
:1037B00092E00E9461098823C9F089E08093EF01BB
:1037C000FF24F394F092EE010E94450260930E01F3
:1037D00070930F018093100190931101F092ED010D
:1037E0004DE250E061E089E00E94960E87EC92E0A5
:1037F0000E944D098823C1F089E08093EF01109366
:10380000EE010E94450260930E0170930F018093B8
:1038100010019093110181E08093ED014FE550E09C
:1038200062E089E00E94960E80911C02811141C0E5
:103830000E944502C090E901D090EA01E090EB01BE
:10384000F090EC016C197D098E099F0964317105B6
:103850008105910510F40C942D2C0E944502609373
:10386000E9017093EA018093EB019093EC01FEEF84
:10387000EF2EF1E0FF2EC12C99249A94D090E8010C
:103880008D2D8C0D89839A829B82B701CE01019682
:103890000E947409C394C394F3E0EF0EF11C24E179
:1038A000C212ECCFD394D092E8010E94AA020C94E9
:1038B0002D2C813009F008C10E944502C090E90119
:1038C000D090EA01E090EB01F090EC016C197D09D9
:1038D0008E099F09643171058105910510F40C94DE
:1038E0002D2C0E9445026093E9017093EA018093B8
:1038F000EB019093EC010E94B70D8091190190911A
:103900001A0145E058E0849F9001859F300D949FF7
:10391000300D1124275E394C30931A012093190180
:10392000AAE0B0E00E94F92D3C0188249924D090AF
:10393000E801ED2CF12C8091E6019091E701892BB3
:1039400009F0A2C00E9458018E0D9F2D911D9093E9
:10395000E5018093E4010E94580191E09D0DE92F5B
:10396000E80FFF27FF1FF093E301E093E20183E0FC
:103970008D0D8093E8010E945801D394D3942D2D8E
:10398000280F3327331FC9019093E1018093E00191
:103990008091E4019091E5018F3F910559F054F039
:1039A0002FEF30E03093E5012093E4011092E7011E
:1039B0001092E6018091E2019091E3018F3F910521
:1039C00059F054F04FEF50E05093E3014093E2017F
:1039D0001092E7011092E6018091E0019091E101DF
:1039E0008F3F910559F054F08FEF90E09093E101F3
:1039F0008093E0011092E7011092E6018091E401CA
:103A00009091E50197FF0AC01092E5011092E40140
:103A100081E090E09093E7018093E6018091E201DC
:103A20009091E30197FF0AC01092E3011092E20126
:103A300081E090E09093E7018093E6018091E001BE
:103A40009091E10197FF0AC01092E1011092E0010C
:103A500081E090E09093E7018093E6018091E0019E
:103A60009091E2012091E40129839A838B83C30121
:103A7000880F991F860D971DBE016F5F7F4F825083
:103A80009E4F0E94880D11CF0E945801E81AF1083C
:103A9000F092E501E092E4010E9458019FEF9D0D34
:103AA000492F481B550B5093E3014093E2018DEFE2
:103AB0008D0D8093E8010E945801DA94DA94ED2D7F
:103AC000E81BFF0BCF0160CF823011F00C94D62B96
:103AD0000E9445026093E9017093EA018093EB0133
:103AE0009093EC010E94B70D8DE090E00E9451028E
:103AF0007C018091E80191E0980F9093E8018B8719
:103B00008FEF8C8780EC8D87BE016F5F7F4FCE017A
:103B10000B960E947409C701880F991F8E0D9F1D77
:103B2000ABCF0E9445026093E9017093EA01809354
:103B3000EB019093EC010E94B70D8DE090E00E94A4
:103B400051027C0195E0E916F1049CF2F501EE19B1
:103B5000FF097F01CECF0E944502C090E901D090BD
:103B6000EA01E090EB01F090EC016C197D098E09FF
:103B70009F09683771058105910510F40C942D2C6F
:103B80000E9445026093E9017093EA018093EB0182
:103B90009093EC01E0902302F0902402E114F104F0
:103BA00091F0F70182819381009749F02585368550
:103BB000B901660F771F620F731F0E94B801F701EA
:103BC000E480F580EBCFE0900C01F0900D01FFEF69
:103BD000EF1AFF0AF0920D01E0920C012AE0E216C2
:103BE000F1047CF08091DE019091DF0110920D01D3
:103BF00010920C0101969093DF018093DE01F12C6D
:103C0000E12C8091DE019091DF010C9724F010925D
:103C1000DF011092DE01C090DE01D090DF01C114FF
:103C2000D10409F0A4C080910C0190910D01853060
:103C3000910524F0A501481B590BCA012091E80108
:103C400031E0320F3093E80129832FEF2A8320ECF3
:103C50002B83BC01660F771F680F791F62507E4F60
:103C6000CE0101960E94740924E0C216D10409F025
:103C70000AC1E0900C01F0900D01E114F10409F08B
:103C8000DEC3D090E801D98299249A949A82F0EC0C
:103C9000CF2ECB826EEF71E0CE0101960E947409A7
:103CA00081E08D0D89839A82CB826DE072E0CE0136
:103CB00001960E94740982E08D0D89839A82CB82DD
:103CC00060E172E0CE0101960E94740984E08D0DDE
:103CD0008093E80183E08D0D89839A82CB8263E132
:103CE00072E0CE0101960E94740995E0E916F10494
:103CF00009F013C4F090E801F982DD24DA94DA8245
:103D000040ECE42EEB8269E172E0CE0101960E9464
:103D1000740981E08F0D8983DA82EB826AE072E0B8
:103D2000CE0101960E94740982E08F0D8983DA82A8
:103D3000EB8267E072E0CE0101960E94740983E095
:103D40008F0D8983DA82EB8264E072E0CE01019606
:103D50000E94740985E08F0D8093E80184E08F0D47
:103D60008983DA82EB8261E072E00C94F52C51E0F9
:103D7000C516D10409F004C1E114F10489F480915D
:103D8000E80191E0980F9093E80189838FEF8A838F
:103D900080EC8B836EEF71E0CE0101960E94740976
:103DA000C7010197049720F59090E8019982772444
:103DB0007A947A82A0EC8A2E8B82B701660F771FE5
:103DC000E60EF71EB70162507E4FCE0101960E94AB
:103DD000740982E0890D8093E801939499827A8234
:103DE0008B82B70165507E4FCE0101960E94740907
:103DF00080910C0190910D0185309105D1F4F090E6
:103E0000E801F98299249A949A82F0ECEF2EEB82E1
:103E100069E172E0CE0101960E94740982E08F0D83
:103E20008093E801F394F9829A82EB826AE072E06F
:103E300017CF863091053CF19090E8019982772464
:103E40007A947A8260EC862E8B82B501681B790B9E
:103E50007B01EE0CFF1CE60EF71EB70162507E4F91
:103E6000CE0101960E94740982E0890D8093E801D9
:103E7000939499827A828B82B7016F5F7D4FCE01D6
:103E800001960E94740935E0C316D10409F0F7C009
:103E9000AEEFEA2EA1E0FA2ECC24CA94B0ECDB2ED1
:103EA0008091E80191E0980F9093E8018983CA829C
:103EB000DB82B701CE0101960E94740943E0E40E53
:103EC000F11C4E145F0461F7E0900C01F0900D01BD
:103ED000E114F10409F077C419821A821B8261E0AF
:103EE00072E0CE0101960E94740919821A821B8227
:103EF00064E072E0CE0101960E94740919821A8270
:103F00001B8267E072E0CE0101960E94740919825B
:103F10001A821B826AE072E0CE0101960E94740947
:103F200019821A821B8269E172E0CE0101960E9419
:103F30007409F5E0EF16F10409F09CC419821A82A5
:103F40001B826DE072E0CE0101960E947409198215
:103F50001A821B8260E172E0CE0101960E94740910
:103F600019821A821B8263E172E0CE0101960E94DF
:103F7000740919821A821B8266E172E00C94F52C96
:103F800082E0C816D10411F00C945D2CE0900C0175
:103F9000F0900D01E114F10409F0EAC09090E801FD
:103FA000998277247A947A8250EC852E8B826EEFF8
:103FB00071E0CE0101960E94740982E0890D809320
:103FC000E801939499827A828B826DE072E0CE014F
:103FD00001960E947409C7010297039708F0E7C091
:103FE000D12CC12C88248A9430EC932E8091E80146
:103FF00091E0980F9093E80189838A829B82C701A0
:104000008C199D09BC01660F771F680F791F6250DC
:104010007E4FCE0101960E947409EFEFCE1ADE0AA0
:10402000F3E0CF16D10411F747E0E416F1043CF1B8
:104030006501CE18DF08F12CE12C88248A94F0EC7D
:104040009F2E8091E80191E0980F9093E801898379
:104050008A829B82C7018C0D9D1DBC01660F771F54
:10406000680F791F62507E4FCE0101960E9474093D
:104070005FEFE51AF50A83E0E816F10411F7C09046
:10408000DE01D090DF0186E0C816D10409F02EC60B
:10409000EEEFEE2EE1E0FE2E88248A94F0EC9F2EC7
:1040A0008091E80191E0980F9093E80189838A82DA
:1040B0009B82B701CE0101960E94740993E0E90E3C
:1040C000F11CECE1EE16E2E0FE0651F7E0900C0187
:1040D000F0900D01E114F10409F0C4C419821A82B0
:1040E0001B8261E072E0CE0101960E947409198280
:1040F0001A821B8264E072E0CE0101960E9474096C
:1041000019821A821B8267E072E0CE0101960E943A
:10411000740919821A821B826AE072E0CE0101964C
:104120000E94740955E0E516F10409F0E9C419820A
:104130001A821B8260E172E0CE0101960E9474092E
:1041400019821A821B8263E172E0CE0101960E94FD
:10415000740919821A821B8266E172E0CE0101960F
:104160000E94740919821A821B826DE072E0C4C435
:1041700091E0E916F10409F02ECF9090E8019982C0
:1041800077247A947A8240EC842E8B826EEF71E0F1
:10419000CE0101960E94740982E0890D8093E801A6
:1041A000939499827A828B8261E072E010CF25E04D
:1041B000E216F10431F5F090E801F98299249A941D
:1041C0009A82B0ECEB2EEB8269E172E0CE010196AF
:1041D0000E94740981E08F0D89839A82EB826AE0E4
:1041E00072E0CE0101960E94740983E08F0D8093E6
:1041F000E801F394F394F9829A82EB8267E072E02B
:104200003ECE36E0E316F10409F00ECFF090E8015F
:10421000F98299249A949A82A0ECEA2EEB826AE0C1
:1042200072E0CE0101960E94740981E08F0D8983AE
:104230009A82EB8269E172E0CE0101960E947409D4
:1042400083E08F0D8093E801F394F394F9829A82CE
:10425000EB8266E172E013CE91E0E916F10439F5E4
:10426000D090E801D98299249A949A8260ECC62E63
:10427000CB826EEF71E0CE0101960E94740981E05D
:104280008D0D89839A82CB8261E072E0CE01019626
:104290000E94740983E08D0D8093E801D394D39438
:1042A000D9829A82CB826DE072E00C94912CE2E08C
:1042B000EE16F10411F00C94952CD090E801D982FF
:1042C00099249A949A8250ECC52ECB826EEF71E0BD
:1042D000CE0101960E94740981E08D0D89839A8236
:1042E000CB8261E072E0CE0101960E94740983E006
:1042F0008D0D8093E801D394D394D9829A82CB8296
:1043000064E072E00C94912C35E0E316F10491F531
:10431000F090E801F982DD24DA94DA8220ECE22ED2
:10432000EB8269E172E0CE0101960E94740981E09E
:104330008F0D8983DA82EB826AE072E0CE0101960A
:104340000E94740982E08F0D8983DA82EB8267E034
:1043500072E0CE0101960E94740984E08F0D809373
:10436000E80183E08F0D8983DA82EB8264E072E0FA
:104370000C94F52C46E0E416F10411F00C94BF2CDB
:10438000F090E801F982DD24DA94DA8290ECE92EEB
:10439000EB826AE072E0CE0101960E94740981E02E
:1043A0008F0D8983DA82EB8269E172E0CE0101969A
:1043B0000E94740982E08F0D8983DA82EB8266E1C4
:1043C00072E0CE0101960E94740984E08F0D809303
:1043D000E80183E08F0D8983DA82EB8267E072E087
:1043E0000C94F52C88E0E816F1040CF448CE650135
:1043F000CE18DF08F12CE12C88248A94B0EC9B2E97
:104400008091E80191E0980F9093E80189838A8276
:104410009B82C7018C0D9D1DBC01660F771F680F25
:10442000791F62507E4FCE0101960E9474099FEF62
:10443000E91AF90AE4E0EE16F10411F720CEF1E0F2
:10444000EF16F10489F5D090E801D98299249A9465
:104450009A82E0ECCE2ECB826EEF71E0CE01019617
:104460000E94740981E08D0D89839A82CB8261E07C
:1044700072E0CE0101960E94740982E08D0D89835D
:104480009A82CB826DE072E0CE0101960E9474099F
:1044900084E08D0D8093E80183E08D0D89839A82FD
:1044A000CB8260E172E01DCC22E0E216F10409F05B
:1044B0006FC0D090E801D98299249A949A8270ECC6
:1044C000C72ECB826EEF71E0CE0101960E94740977
:1044D00081E08D0D89839A82CB8261E072E0CE010A
:1044E00001960E94740982E08D0D89839A82CB82A5
:1044F00064E072E0CE0101960E94740984E08D0DA3
:104500008093E80183E08D0D89839A82CB826DE0F0
:1045100072E0CE0101960E947409E6E0EE16F10405
:1045200009F06FC0F090E801F982DD24DA94DA82B4
:1045300030ECE32EEB826AE072E0CE0101960E943D
:10454000740981E08F0D8983DA82EB8269E172E080
:10455000CE0101960E94740982E08F0D8983DA8270
:10456000EB8266E172E0CE0101960E94740983E05D
:104570008F0D8983DA82EB8267E072E0CE010196CB
:104580000E94740985E08F0D8093E80184E0EACEF3
:1045900033E0E316F10409F06FC0D090E801D9824E
:1045A00099249A949A8260ECC62ECB826EEF71E0C9
:1045B000CE0101960E94740981E08D0D89839A8253
:1045C000CB8261E072E0CE0101960E94740982E024
:1045D0008D0D89839A82CB8264E072E0CE010196D0
:1045E0000E94740984E08D0D8093E80183E08D0DB5
:1045F00089839A82CB8267E072E0CE0101960E94A5
:104600007409F7E0EF16F10409F09BC0F090E8019F
:10461000F982DD24DA94DA8220ECE22EEB8263E187
:1046200072E0CE0101960E94740981E08F0D8983AA
:10463000DA82EB8266E172E0CE0101960E94740993
:1046400082E08F0D8983DA82EB8269E172E0CE012C
:1046500001960E94740983E08F0D8983DA82EB82D0
:104660006AE072E0CE0101960E94740985E08F0D28
:104670008093E80184E0AECE44E0E416F10409F052
:1046800034CBD12CC12C88248A9450EC952E809167
:10469000E80191E0980F9093E80189838A829B82D8
:1046A000B601665F7D4FCE0101960E94740953E00A
:1046B000C51AD10881EFC8168FEFD80641F739E047
:1046C000E316F10409F0DBCCF090E801F982DD2477
:1046D000DA94DA8280ECE82EEB826DE072E0CE01B3
:1046E00001960E94740981E08F0D8983DA82EB8242
:1046F00060E172E0CE0101960E94740982E08F0DA4
:104700008983DA82EB8263E172E0CE0101960E9436
:10471000740983E08F0D8983DA82EB8266E172E0AF
:10472000CE0101960E94740985E08F0D8093E80107
:1047300084E08F0D8983DA82EB8269E172E00C9468
:10474000F52C28E0E216F10409F0B9CFF090E80169
:10475000F982DD24DA94DA8290ECE92EEB8263E1CF
:1047600072E0CE0101960E94740981E08F0D898369
:10477000DA82EB8266E172E0CE0101960E94740952
:1047800082E08F0D8983DA82EB8269E172E0CE01EB
:1047900001960E94740983E08F0D8983DA82EB828F
:1047A0006AE072E0CE0101960E94740985E08F0DE7
:1047B0008093E80184E08F0D8983DA82EB8260E1E7
:1047C00072E00C94F52C51E0E516F10409F519821C
:1047D0001A821B8264E072E0CE0101960E94740985
:1047E00019821A821B8267E072E0CE0101960E9454
:1047F000740919821A821B826AE072E0CE01019666
:104800000E94740919821A821B8266E172E084CBCD
:1048100082E0E816F10409F054C019821A821B8262
:1048200067E072E0CE0101960E94740919821A8233
:104830001B826AE072E0CE0101960E94740919821F
:104840001A821B8263E172E0CE0101960E94740914
:1048500019821A821B8266E172E0CE0101960E94E3
:10486000740919821A821B8269E172E0CE010196F5
:104870000E94740926E0E216F10409F054C019827E
:104880001A821B826EEF71E0CE0101960E947409BC
:1048900019821A821B826DE072E0CE0101960E949D
:1048A000740919821A821B8260E172E0CE010196BE
:1048B0000E94740919821A821B8263E172E00C94CF
:1048C000F52C93E0E916F10409F051C019821A821F
:1048D0001B826AE072E0CE0101960E94740919827F
:1048E0001A821B8260E172E0CE0101960E94740977
:1048F00019821A821B8263E172E0CE0101960E9446
:10490000740919821A821B8266E172E0CE01019657
:104910000E94740919821A821B8269E172E0CE0139
:1049200001960E94740937E0E316F10409F075C09E
:1049300019821A821B826EEF71E0CE0101960E94ED
:10494000740919821A821B8261E072E0CE0101961D
:104950000E94740919821A821B826DE072E0CE01F6
:1049600001960E94740919821A821B8228CFE4E002
:10497000EE16F10409F0DDCA19821A821B826DE07D
:1049800072E0CE0101960E94740919821A821B827C
:1049900060E172E0CE0101960E94740919821A82C8
:1049A0001B8263E172E0CE0101960E9474091982B4
:1049B0001A821B8266E172E0CE0101960E947409A0
:1049C00019821A821B8269E172E0CE0101960E946F
:1049D000740959E0E516F10409F051CB19821A82E5
:1049E0001B826EEF71E0CE0101960E94740919825C
:1049F0001A821B8261E072E0CE0101960E94740966
:104A000019821A821B8264E072E0CE0101960E9434
:104A1000740919821A821B82E1CC48E0E416F10481
:104A2000C1F619821A821B826EEF71E0CE010196E7
:104A30000E94740919821A821B8261E072E0CE0121
:104A400001960E94740919821A821B8264E072E046
:104A5000CE0101960E94740919821A821B826DE0B0
:104A600072E0C3C7F1E0EF16F10409F519821A826A
:104A70001B8267E072E0CE0101960E9474091982E0
:104A80001A821B826AE072E0CE0101960E947409CC
:104A900019821A821B8264E072E0CE0101960E94A4
:104AA000740919821A821B8269E172E037CB22E015
:104AB000E216F10409F086C019821A821B8267E0AF
:104AC00072E0CE0101960E94740919821A821B823B
:104AD0006AE072E0CE0101960E94740919821A827E
:104AE0001B8266E172E0CE0101960E947409198270
:104AF0001A821B8269E172E0CE0101960E9474095C
:104B000080910C0190910D018630910509F078C0DB
:104B100019821A821B826DE072E0CE0101960E941A
:104B2000740919821A821B8260E172E0CE0101963B
:104B30000E94740919821A821B8263E172E0CE011D
:104B400001960E94740949E0C416D10409F0ABC073
:104B50002EEFE22E21E0F22ECC24CA9430ECD32E9C
:104B60008091E80191E0980F9093E8018983CA82CF
:104B7000DB82B701CE0101960E94740953E0E50E75
:104B8000F11C8CE1E81682E0F80651F7E0900C0188
:104B9000F0900D01E114F10409F01CC319821A828E
:104BA0001B8261E072E0CE0101960E94740935E03B
:104BB000E316F10409F025C319821A821B8266E10B
:104BC00072E002C333E0E316F10479F419821A8229
:104BD0001B826AE072E0CE0101960E94740919827C
:104BE0001A821B8263E172E075CF44E0E416F1049F
:104BF00009F098CA19821A821B8260E172E0EBCF39
:104C000087309105C1F419821A821B826EEF71E020
:104C1000CE0101960E94740919821A821B826DE0EE
:104C200072E0CE0101960E94740919821A821B82D9
:104C300060E172E084CF88309105C1F419821A8254
:104C40001B826DE072E0CE0101960E947409198208
:104C50001A821B826EEF71E0CE0101960E947409E8
:104C600019821A821B8261E072E069CF0997D9F438
:104C700019821A821B826EEF71E0CE0101960E94AA
:104C8000740919821A821B8261E072E0CE010196DA
:104C90000E94740919821A821B8264E072E0CE01BC
:104CA00001960E9474095AE0C516D10409F03EC16C
:104CB0008EEFE82E81E0F82ECC24CA9490ECD92E09
:104CC0008091E80191E0980F9093E8018983CA826E
:104CD000DB82B701CE0101960E94740993E0E90ED0
:104CE000F11C4E145F0461F70C94551C87E0C81644
:104CF000D10409F088C16EEFE62E61E0F62E88241B
:104D00008A9470EC972E8091E80191E0980F90932F
:104D1000E80189838A829B82B701CE0101960E94B5
:104D2000740993E0E90EF11C4E145F0461F7E09002
:104D30000C01F0900D01E114F104C1F519821A8201
:104D40001B8261E072E0CE0101960E947409198213
:104D50001A821B8264E072E0CE0101960E947409FF
:104D600019821A821B8267E072E0CE0101960E94CE
:104D7000740956E0E516F10409F05DC019821A8243
:104D80001B826DE072E0CE0101960E9474091982C7
:104D90001A821B8260E172E0CE0101960E947409C2
:104DA00019821A821B8263E172E079CFE1E0EE168C
:104DB000F104C1F419821A821B8264E072E0CE0110
:104DC00001960E94740919821A821B8267E072E0C0
:104DD000CE0101960E94740919821A821B826AE030
:104DE00072E0C3CFF2E0EF16F10431F419821A82B7
:104DF0001B8269E172E0E3CF23E0E216F10471F572
:104E000019821A821B8269E172E0CE0101960E942A
:104E1000740919821A821B8266E172E0CE01019642
:104E20000E94740919821A821B826AE072E0CE0124
:104E300001960E94740987E0E816F10471F5198261
:104E40001A821B826DE072E0CE0101960E94740905
:104E500019821A821B8260E172E021CF34E0E316EE
:104E6000F10471F519821A821B8263E172E0CE01AE
:104E700001960E94740919821A821B8266E172E00F
:104E8000CE0101960E94740919821A821B8269E17F
:104E900072E0CE0101960E94740998E0E916F104CF
:104EA00079F519821A821B826EEF71E0CE010196AC
:104EB0000E94740919821A821B826DE072E0EFCEA3
:104EC00045E0E416F10409F054CF19821A821B82DE
:104ED00060E172E0CE0101960E94740919821A8283
:104EE0001B8263E172E0CE0101960E94740919826F
:104EF0001A821B8266E172E0CE0101960E9474095B
:104F0000E9E0EE16F10491F419821A821B826EEF29
:104F100071E0CE0101960E94740919821A821B82E7
:104F200061E072E0CE0101960E9474098BE0C81620
:104F3000D10411F00C94551CAEEFEA2EA1E0FA2E2C
:104F4000CC24CA94B0ECDB2E8091E80191E0980F5C
:104F50009093E8018983CA82DB82B701CE01019672
:104F60000E947409E3E0EE0EF11CFCE1EF16F2E0A2
:104F7000FF0651F7E0900C01F0900D01E114F104EF
:104F800009F077C119821A821B8261E072E0CE01BA
:104F900001960E94740985E0E816F10409F09CC1AD
:104FA00019821A821B8261E072E0CE0101960E9492
:104FB000740919821A821B8264E072E0CE010196A4
:104FC0000E94740919821A821B8267E072E0CE0186
:104FD00001960E94740919821A821B826AE072E0AB
:104FE000CE0101960E94740919821A821B8269E11E
:104FF00072E0CE0101960E94740919821A821B8206
:1050000066E172E0CFC1F8E0CF16D10409F09BCD84
:105010004EEFE42E41E0F42E88248A9450EC952E35
:105020008091E80191E0980F9093E80189838A824A
:105030009B82B701CE0101960E94740923E0E20E23
:10504000F11C3CE1E31632E0F30651F7E0900C016D
:10505000F0900D01E114F10431F519821A821B82DE
:1050600061E072E0CE0101960E94740919821A82F1
:105070001B8264E072E0CE0101960E947409F6E0A2
:10508000EF16F10409F04BC019821A821B8260E10D
:1050900072E0CE0101960E94740919821A821B8265
:1050A00063E172E03FCF41E0E416F10479F4198244
:1050B0001A821B8264E072E0CE0101960E9474099C
:1050C00019821A821B8267E072E0D5CF52E0E516A2
:1050D000F10479F419821A821B8267E072E0CE0132
:1050E00001960E94740919821A821B826AE072E09A
:1050F000C2CF83E0E816F10429F519821A821B82D7
:1051000069E172E0CE0101960E94740919821A8247
:105110001B826AE072E0CE0101960E94740927E0CA
:10512000E216F10429F519821A821B826DE072E001
:10513000CE0101960E94740919821A821B8260E1D5
:1051400072E0F0CE94E0E916F104E1F419821A82DB
:105150001B8266E172E0CE0101960E9474091982F9
:105160001A821B8269E172E0CE0101960E947409E5
:1051700038E0E316F104E9F419821A821B826DE02B
:1051800072E0D0CEE5E0EE16F10409F078CF198296
:105190001A821B8263E172E0CE0101960E947409BB
:1051A00019821A821B8266E172E0CE0101960E948A
:1051B000740949E0E416F10411F00C94551C1982AD
:1051C0001A821B826EEF71E0CE0101960E94740973
:1051D0000C94551C91E0E916F10431F419821A82FD
:1051E0001B8264E072E0DFCCE2E0EE16F10499F499
:1051F00019821A821B8267E072E0CE0101960E943A
:10520000740946E0E416F10499F419821A821B82AB
:1052100063E172E0D9CFF3E0EF16F10499F419825B
:105220001A821B826AE072E0CE0101960E94740924
:1052300057E0E516F10489F419821A821B8260E1B5
:1052400072E0C2CF24E0E216F10409F0B0CC19827A
:105250001A821B8269E172E0B7CF88E0E816F10498
:1052600011F00C94551C19821A821B826DE072E0B9
:10527000ABCF21E0E216F10479F419821A821B8285
:1052800061E072E0CE0101960E94740919821A82CF
:105290001B8264E072E07BCE32E0E316F10409F099
:1052A0005CC019821A821B8261E072E0CE01019615
:1052B0000E94740919821A821B8264E072E0CE0196
:1052C00001960E94740919821A821B8267E072E0BB
:1052D000CE0101960E94740996E0E916F10409F0E6
:1052E00065C019821A821B8261E072E0CE010196CC
:1052F0000E94740919821A821B8264E072E0CE0156
:1053000001960E94740919821A821B8267E072E07A
:10531000CE0101960E94740919821A821B826AE0EA
:1053200072E0CE0101960E94740919821A821B82D2
:1053300069E172E0CE0101960E94740919821A8215
:105340001B8266E172E0CE0101960E947409198207
:105350001A821B8263E172E025C043E0E416F10487
:1053600009F06CC019821A821B8261E072E0CE01E2
:1053700001960E94740919821A821B8264E072E00D
:10538000CE0101960E94740919821A821B8267E07D
:1053900072E0CE0101960E94740919821A821B8262
:1053A0006AE072E0CE0101960E94740980910C01BE
:1053B00090910D018730910509F06FC019821A8212
:1053C0001B8261E072E0CE0101960E94740919828D
:1053D0001A821B8264E072E0CE0101960E94740979
:1053E00019821A821B8267E072E0CE0101960E9448
:1053F000740919821A821B826AE072E0CE0101965A
:105400000E94740919821A821B8269E172E0CE013E
:1054100001960E94740919821A821B8266E172E069
:10542000CE0101960E94740919821A821B8263E1DF
:1054300072E0CE0101960E947409FECE54E0E5169A
:10544000F10409F0A8CD19821A821B8261E072E092
:10545000CE0101960E94740919821A821B8264E0AF
:1054600072E0CE0101960E94740919821A821B8291
:1054700067E072E0CE0101960E94740919821A82D7
:105480001B826AE072E0CE0101960E9474091982C3
:105490001A821B8269E172E085CF089711F00C94A3
:1054A000551C19821A821B8261E072E0CE010196BE
:1054B0000E94740919821A821B8264E072E0CE0194
:1054C00001960E94740919821A821B8267E072E0B9
:1054D000CE0101960E94740919821A821B826AE029
:1054E00072E0CE0101960E94740919821A821B8211
:1054F00069E172E0CE0101960E94740919821A8254
:105500001B8266E172E0CE0101960E947409198245
:105510001A821B8263E172E0CE0101960E94740937
:1055200019821A821B8260E172E0CE0101960E940C
:10553000740919821A821B826DE072E0CE01019615
:105540000E94740910920D0110920C01ECE0F0E041
:10555000F093DF01E093DE010C94551C863009F0D6
:105560004AC20E944502C090E901D090EA01E09051
:10557000EB01F090EC016C197D098E099F096431F3
:1055800071058105910508F468C10E944502609388
:10559000E9017093EA018093EB019093EC010E9482
:1055A000B70D77E0E72EF12CE8ECDE2ECC24CA9480
:1055B0008091E801805F8093E8018B87DC86CD864F
:1055C000BE016F5F7F4FCE010B960E947409C70129
:1055D0000E94510249819C01220F331FF901E80FFB
:1055E000F91FE250FE4F5081541708F440834A815E
:1055F000F901E80FF91FE250FE4F5181541708F4EA
:1056000041834B81280F391FF901E250FE4F8281FF
:10561000841708F442834FEFE41AF40A5FE0E516BA
:10562000F10431F60C94551C0E944502C090E9012A
:10563000D090EA01E090EB01F090EC016C197D094B
:105640008E099F09643171058105910508F405C132
:105650000E9445026093E9017093EA018093EB0197
:105660009093EC018091E80191E0980F9093E8010C
:1056700089838FEF8B8380EF8A835EEFE52E51E085
:10568000F52EB701CE0101960E9474098981895FC8
:10569000898383E0E80EF11C4E145F0491F720919A
:1056A000190130911A01E5E0F8E02E9FC0012F9F0B
:1056B000900D3E9F900D1124875E994C90931A0196
:1056C00080931901292F280F203510F00C94551CB8
:1056D0002FEF29832A832B838E9F90018F9F300D7C
:1056E0009E9F300D1124275E394C30931A01209370
:1056F0001901AAE0B0E00E94F92DAA27BB279C015E
:10570000220F331F820F931F0C943C1D0E944502F1
:105710006093E9017093EA018093EB019093EC01AF
:10572000EEEFF1E08FEF80831182128233964E16F6
:105730005F06C9F70C94551C0E9445026093E9016D
:105740007093EA018093EB019093EC01EEEFF1E0AE
:105750008FEF10828183128233964E165F06C9F74F
:105760000C94551C0E9445026093E9017093EA0174
:105770008093EB019093EC01EEEFF1E08FEF10825C
:105780001182828333964E165F06C9F70C94551C1E
:1057900052E0E51286C083E0F89EF0011124E25049
:1057A000FE4F108211828FEF82837BC0833011F411
:1057B0000C94911D843011F40C94AB1D853009F0CC
:1057C000CDCE0E944502C090E901D090EA01E09060
:1057D000EB01F090EC016C197D098E099F0966348C
:1057E000710581059105C8F10E9445026093E901A8
:1057F0007093EA018093EB019093EC01FEEFCF2EC2
:10580000F1E0DF2E7601A7014E5F5F4FB7016F5FBA
:105810007F4F2AEFC7010E94A00DF3E0EF0EF11CAD
:105820002CE1E21622E0F20671F799249A94809115
:10583000E80191E0980F9093E80189839A829B8216
:10584000B601CE0101960E9474090E94AA0233E0BB
:10585000C30ED11CEC14FD0451F7E090EE01F09062
:10586000EF010E94450220910E0130910F014091FD
:10587000100150911101621B730B840B950B653F56
:1058800071408105910578F431E0E31281CF43E066
:10589000F49EF0011124E250FE4F10828FEF8183BD
:1058A00012820E94AA02E0E0F0E0EF2B11F40C94C7
:1058B0003B170E9400000C943617F3E0CF16D1047A
:1058C00011F00C94341EE0900C01F0900D01E114E5
:1058D000F10411F00C942C21D090E801D982992484
:1058E0009A949A8270ECC72ECB826EEF71E0CE0153
:1058F00001960E94740981E08D0D89839A82CB8282
:105900006DE072E0CE0101960E94740983E08D0D76
:105910008093E801D394D394D9829A82CB8260E1B8
:1059200072E0CE0101960E947409C70103970297A5
:1059300010F00C948421D12CC12C88248A9440EC42
:10594000942E8091E80191E0980F9093E80189836B
:105950008A829B82C7018C199D09BC01660F771F43
:10596000680F791F62507E4FCE0101960E94740924
:10597000FFEFCF1ADF0A24E0C216D10411F757E077
:10598000E516F10411F00C94F221F090E801F9828F
:10599000DD24DA94DA8280ECE82EEB8263E172E0B7
:1059A000CE0101960E94740981E08F0D8983DA820D
:1059B000EB8266E172E0CE0101960E94740982E0FA
:1059C0008F0D8983DA82EB8269E172E0CE01019664
:1059D0000E94740984E08F0D8093E80183E08F0DAD
:1059E0008983DA82EB826AE072E0CE0101960E943E
:1059F00074090C943F20873009F416CE883009F4DE
:105A000085CE893009F498CE8A3009F4ABCE843142
:105A100009F023CF0E9445026093E9017093EA01E7
:105A20008093EB019093EC018EEFE82E81E0F82E4D
:105A300019821A821B82B701CE0101960E94740955
:105A4000F3E0EF0EF11C4E145F0491F70C94551C1B
:105A50008BEB92E00E94E10F81EC92E00C94E10F5D
:105A60001F93FC0199278827BC01E89411911032FB
:105A7000E9F3193010F01E30C8F31B3251F01D321B
:105A800049F4689406C00E94622D610F711D811D4A
:105A9000911D119110531A30B0F33EF490958095FA
:105AA000709561957F4F8F4F9F4F1F910895BB2732
:105AB0004A3031F4992322F4BDE2909581959F4FAD
:105AC0000C94782D592F482F372F262F660F771FCC
:105AD000881F991F660F771F881F991F620F731FFA
