:100000000C94AA030C94D2030C94D2030C94D20344
:100010000C94D2030C94D2030C94D2030C94D2030C
:100020000C94D2030C94D2030C945C1F0C94CB1F41
:100030000C94D2030C94D2030C94D2030C94D203EC
:100040000C94D2030C94D2030C94D2030C94D203DC
:100050000C94D2030C94D2030C94D2030C94121F70
:100060000C94D2030C94D2030C94D2030C94D203BC
:100070000C94D2030C94D2030C94D2030C94D203AC
:100080000C94D2030C94D2030C94D2030C94D2039C
:100090000C94FD210C94D2030C94D2030C94D20343
:1000A0000C94D2030C94D2030C94D20301FF96114A
:1000B000FFFFB103012C2DB203012C2DB306012C3F
:1000C0002D012C2DB40107B6021502C003A2028433
:1000D000C101C5C2020A00C3028A2AC4028AEEC54F
:1000E000010E20003601003A0105E0100F1A0F182A
:1000F0002F2820221F1B233700070210E1100F1B9F
:100100000F17332C292E3030393F0007031029FFF9
:100110006413FF0A080B0002020200000904000039
:100120000102020000052400100105240101010460
:10013000240206052406000107058103100040097A
:10014000040100020A000000070502024000000747
:100150000583024000000403090412010002EF02BB
:1001600001404123368000010102030141726475A0
:10017000696E6F204C4C430041726475696E6F204C
:100180004C656F6E6172646F00000608200000000D
:100190000000000000002F00000000070007000022
:1001A000147F147F1400242A7F2A1200231308646A
:1001B0006200364955225000000503000000001C73
:1001C000224100000041221C000014083E081400D7
:1001D00008083E0808000000A060000008080808A1
:1001E00008000060600000002010080402003E517A
:1001F00049453E0000427F400000426151494600AF
:100200002141454B31001814127F10002745454508
:1002100039003C4A4949300001710905030036495B
:1002200049493600064949291E00003636000000BB
:100230000056360000000814224100001414141463
:10024000140000412214080002015109060032493D
:1002500059513E007C1211127C007F4949493600F9
:100260003E41414122007F4141221C007F494949D2
:1002700041007F09090901003E4149497A007F0890
:1002800008087F0000417F4100002040413F0100FD
:100290007F08142241007F40404040007F020C0252
:1002A0007F007F0408107F003E4141413E007F09EE
:1002B000090906003E4151215E007F0919294600C7
:1002C00046494949310001017F0101003F4040405A
:1002D0003F001F2040201F003F4038403F00631474
:1002E000081463000708700807006151494543007E
:1002F000007F41410000552A552A55000041417FA9
:10030000000004020102040040404040400000019F
:10031000020400002054545478007F4844443800BC
:10032000384444442000384444487F0038545454EE
:100330001800087E0901020018A4A4A47C007F080C
:100340000404780000447D4000004080847D00006B
:100350007F102844000000417F4000007C04180406
:1003600078007C0804047800384444443800FC24B5
:100370002424180018242418FC007C080404080015
:10038000485454542000043F444020003C40402046
:100390007C001C2040201C003C4030403C00442895
:1003A000102844001CA0A0A07C004464544C4400CD
:1003B00000087700000000007F00000000770800C0
:1003C0000000100810080014141414141400000085
:1003D0000000000000000101010101010101020211
:1003E00002020202020303030303040404050505D9
:1003F0000505060606060707070808080808090A8B
:100400000A0A0A0B0B0C0C0C0C0D0D0D0E0E0F0F27
:100410000F101111111112121314141414151616B1
:100420001717171819191A1A1B1B1C1C1D1E1E1F23
:100430001F20212122232324252526262728292978
:100440002A2B2C2D2D2E2F2F3031323334353636AA
:10045000373838393A3B3C3D3E3F404142434445C2
:10046000454647494A4B4C4D4E4F505152545556B4
:1004700057595A5B5D5E5F60616264656667696A71
:100480006C6D6E6F7173757677797A7B7C7F808205
:1004900083858688898B8C8F9192939497999A9C67
:1004A0009E9FA2A3A5A7A9ABADAEB0B3B4B6B9BA8F
:1004B000BCBEC0C2C4C7C9CACDCFD1D3D6D8DADC7E
:1004C000DFE1E2E6E7EBECF0F1F5F6FAFBFF000026
:1004D00000002300260029002C002F00000000024D
:1004E00000090F0000030401000C000000000000E0
:1004F00000000000000000000000000000000000FC
:1005000000000001010101010101010202020202D9
:10051000020203030303030404040505050505069D
:100520000606060707070808080808090A0A0A0A4B
:100530000B0B0C0C0C0C0D0D0D0E0E0F0F0F1011E4
:10054000111111121213141414141516161717176B
:100550001819191A1A1B1B1C1C1D1E1E1F1F2021D7
:10056000212223232425252626272829292A2B2C26
:100570002D2D2E2F2F303132333435363637383853
:10058000393A3B3C3D3E3F40414243444545464766
:10059000494A4B4C4D4E4F50515254555657595A4B
:1005A0005B5D5E5F60616264656667696A6C6D6E03
:1005B0006F7173757677797A7B7C7F80828385868D
:1005C00088898B8C8F9192939497999A9C9E9FA2E5
:1005D000A3A5A7A9ABADAEB0B3B4B6B9BABCBEC003
:1005E000C2C4C7C9CACDCFD1D3D6D8DADCDFE1E2E5
:1005F000E6E7EBECF0F1F5F6FAFBFF050C0901A1DB
:1006000001850115002501750195180A23020A8A42
:10061000011A24022A27020A21020A2A0209CD0904
:10062000B709B609B509E909EA09E20A83010A012D
:10063000020A02020A07020A1A020A79021A1B02B5
:100640002A1D028102C000000000000000002A2BC9
:100650002800000000000000000000000000000072
:100660000000000000002C9EB4A0A1A2A434A6A704
:10067000A5AE362D3738271E1F20212223242526FC
:10068000B333B62EB7B89F8485868788898A8B8CCA
:100690008D8E8F909192939495969798999A9B9C12
:1006A0009D2F3130A3AD350405060708090A0B0C50
:1006B0000D0E0F101112131415161718191A1B1CF2
:1006C0001DAFB1B0B50005010906A10185020507FE
:1006D00019E029E7150025017501950881029501AA
:1006E000750881039506750815002573050719001F
:1006F00029738100C000000000240027002A002D7B
:1007000000300000000000250028002B002E0031E2
:1007100000040404040403040502020202040302A8
:100720000202020606060606060404020202040489
:1007300004080201104080401020408040800802E0
:100740000401804020100201108010204040200051
:100750004F23F73011241FBECFEFDAE0DEBFCDBF4D
:1007600012E0A0E0B1E0EAE7FDE602C005900D92DC
:10077000AC37B107D9F725E0ACE7B2E001C01D9274
:10078000A73CB207E1F713E0C9EAD3E004C0219720
:10079000FE010E948634C83AD107C9F70E94D025CD
:1007A0000C94B0360C94000008950895809174055F
:1007B0008073803339F480916F058095881F882776
:1007C000881F089580E008958091740584FD09C014
:1007D00085FF07C080916F058095881F8827881F37
:1007E000089580E008954F925F926F927F928F926A
:1007F0009F92AF92BF92CF92DF92EF92FF920F93B0
:100800001F93CF93DF9300D01F92CDB7DEB78091B7
:100810005605E0914E05F0914F059081982B9093ED
:1008200058059081809589238093590580914505CD
:100830008093460580915B0590915C05039721F4B8
:100840008FB780935A05F89400914C0510914D058F
:100850000115110509F495C0D0904505E4E1F5E0D6
:1008600061E475E020E030E0A901ED2CF12CC70136
:100870000196C480C89ED001C99EB00D1124AB2F33
:10088000BB272A0F3B1F411D511DC580C89ED001AB
:10089000C99EB00D1124AB2FBB272A0F3B1F411D52
:1008A000511DC680C89ED001C99EB00D1124AB2F2A
:1008B000BB272A0F3B1F411D511D33966E177F0723
:1008C000C1F6232F342F452F552747FD5A95A09168
:1008D0001405B09115050E94533323E030E040E049
:1008E00050E00E94293349015A01A0911605B091A8
:1008F000170581149104A104B10409F440C02FE04C
:1009000030E00E948C3428EE33E040E050E00E945A
:10091000293324013501420E531E641E751EC80181
:10092000012E000CAA0BBB0B481659066A067B0663
:1009300034F1B801621B730B072E000C880B990B66
:100940000E941A322B013C01B701FF0C880B990B56
:100950000E941A329B01AC01C301B2010E945532C0
:100960006B017C01C501B4010E941A329B01AC01EC
:10097000C701B6010E94C3330E943534D62ED092EF
:100980004605E4E1F5E001E415E07E0184E0E80ECF
:10099000F11C558146818091460590E00196648165
:1009A000689F9001699F300D11243A83589F9001F0
:1009B000599F300D11243983489F9001499F300D74
:1009C00011243B8380915B0590915C05029721F493
:1009D0008FB780935A05F894BE016F5F7F4FDB019C
:1009E0008D91BD0120915B0530915C052130310571
:1009F00021F49FB790935A05F8949091580520914F
:100A00005905A0914E05B0914F0538E09C9387FFA2
:100A10002C93880F43E04A95F1F700002C933A9508
:100A2000A9F780915B0590915C058130910519F4DF
:100A300020915A052FBFE616F70609F0D0CF823075
:100A4000910519F420915A052FBF33960E171F07F1
:100A500009F09FCF039719F480915A058FBF0F902B
:100A60000F900F90DF91CF911F910F91FF90EF901A
:100A7000DF90CF90BF90AF909F908F907F906F90BE
:100A80005F904F900895E82FEE0F7E2F780F8B3AEE
:100A9000A0F062E0670FE62FE09570E0F0E0E5502F
:100AA000FB4F8491E72FF0E0E550FB4F7491E62F68
:100AB000F0E0E550FB4F64910895672F6095E0E00A
:100AC000863560F3E1E0E70F7E2F709560E0E6CFBA
:100AD00020910B0530910C058217930760F420914B
:100AE0000705309108052115310529F0280F391F18
:100AF000F9018081089580E00895FC0180911C0334
:100B0000882311F13FB7F89482E08093E9002091A7
:100B1000F200822F90E01816190614F481E090E09C
:100B2000882339F0289844E640931B034091F10054
:100B30004083222339F02091F200211103C02BE6DB
:100B40002093E8003FBF08958FEF9FEF08958150F5
:100B50008F3008F047C0E82FF0E0EF54FA4F0C94C4
:100B60008634CE05D205C005C605CA05F205F205D4
:100B7000F205D505DB05DF05E305E905F205ED0521
:100B8000809180008F77809380000895809180000D
:100B90008F7DF9CF80918000877FF5CF84B58F77E7
:100BA00084BD089584B58F7DFBCF809190008F77B1
:100BB000809390000895809190008F7DF9CF80916F
:100BC0009000877FF5CF8091C0008F778093C00021
:100BD00008958091C0008F7DF9CF8091C200877FFA
:100BE0008093C2000895CF93DF93282F30E0F9015E
:100BF000E452FB4F8491F901E05DF84FD491F90183
:100C0000EF5EF84FC491CC23A1F081110E94A7059B
:100C1000EC2FF0E0EE0FFF1FE253FB4FA591B491D4
:100C2000EC91ED2381E090E009F480E0DF91CF9139
:100C3000089580E090E0FACF1F93CF93DF93282FA1
:100C400030E0F901E452FB4F8491F901E05DF84F87
:100C5000D491F901EF5EF84FC491CC23A9F0162F7F
:100C600081110E94A705EC2FF0E0EE0FFF1FED5F52
:100C7000F84FA591B4918FB7F894EC91111108C079
:100C8000D095DE23DC938FBFDF91CF911F91089524
:100C9000DE2BF8CFCF93DF9390E0FC01E05DF84FBF
:100CA00024918F5E984FFC0184918823C9F090E0D5
:100CB000880F991FFC01EB50F94FA591B491FC01ED
:100CC000ED5FF84FC591D49161110DC09FB7F894B5
:100CD0008C91209582238C938881282328839FBF21
:100CE000DF91CF910895623051F49FB7F8943C9111
:100CF000822F809583238C93E8812E2BEFCF8FB7A3
:100D0000F894EC912E2B2C938FBFEACF3FB7F89439
:100D10008091170390911803A0911903B0911A03C1
:100D200026B5A89B05C02F3F19F00196A11DB11D46
:100D30003FBFBA2FA92F982F8827BC01CD01620F82
:100D4000711D811D911D42E0660F771F881F991F3D
:100D50004A95D1F708958F929F92AF92BF92CF920A
:100D6000DF92EF92FF926B017C010E9486064B019D
:100D70005C01C114D104E104F104B9F00E948606BB
:100D8000681979098A099B09683E734081059105B4
:100D900080F321E0C21AD108E108F10888EE880E3C
:100DA00083E0981EA11CB11CE4CFFF90EF90DF9070
:100DB000CF90BF90AF909F908F9008952FB7F894E9
:100DC00060911303709114038091150390911603A1
:100DD0002FBF089508954091EC025091ED022091AB
:100DE000EA023091EB0242175307B4F49091E80005
:100DF0009570E1F39091E80092FD19C08093F100A5
:100E00008091EC029091ED0201968F739927892BC6
:100E100019F48EEF8093E8008091EC029091ED023E
:100E200001969093ED028093EC0281E0089580E0BA
:100E30000895DF92EF92FF920F931F93CF93DF936A
:100E4000D82E8A01EB017B01E40EF51ECE15DF05DD
:100E500059F0D7FE12C0FE0184910E94EB06219644
:100E60008111F4CF0FEF1FEFC801DF91CF911F91D8
:100E70000F91FF90EF90DF9008958881EECF2FB70C
:100E8000F89487708093E9009091E800892F807230
:100E900095FF04C09091F20080E4891B2FBF089554
:100EA0007F928F929F92AF92BF92CF92DF92EF92FA
:100EB000FF920F931F93CF93DF93C82E8B017A017C
:100EC00080911C03811110C08FEF9FEFDF91CF91B4
:100ED0001F910F91FF90EF90DF90CF90BF90AF9058
:100EE0009F908F907F9008958091F00280FF05C0C1
:100EF0008091E00082608093E000CE2DDF2DD12C28
:100F00008AEFB82E8C2D8770982E8C2D8072882EAB
:100F10008C2D8074782E9AE3A92E209719F4DD2069
:100F200009F452C08C2D0E943F0781110AC0BA9467
:100F3000BB2051F261E070E080E090E00E94AB06DF
:100F4000ECCF8C171D0611F00CF08C2F9FB7F89486
:100F50009092E9002091E80025FD02C09FBFDDCFFF
:100F6000282F30E0C21BD30B882029F08150A0F03D
:100F70001092F100FBCFF801C7FC0AC0815050F07D
:100F800041914093F100FACF44914093F1003196A2
:100F90008150D0F7020F131FDD2021F0A092E8004E
:100FA000D12CDCCF8091E80085FD07C0A092E8003D
:100FB000DD24D394209791F2F3CF209779F6772010
:100FC00069F2A092E800CACF5D9884E68093EF02B0
:100FD000C7017CCF615030F02091F100FC012083EB
:100FE0000196F8CF289884E680931B03089580919A
:100FF000E20281110DC082E08093DE0284E08093E2
:10100000DF021092E1021092E00281E08093E2029E
:101010008EED92E008950F931F93CF93DF931F926D
:10102000CDB7DEB782E0898342E450E064E171E04D
:1010300080E80E9419070E94F707DC0112960D91C3
:101040001C910115110589F0D801ED91FC910280E8
:10105000F381E02DBE016F5F7F4FC801099597FDB9
:1010600004C0F80100851185ECCF89810F90DF91D4
:10107000CF911F910F910895CF93DF93EC01809151
:101080001201882331F083E00E94500718161906D8
:1010900034F081E090E09B838A8380E090E0DF91F0
:1010A000CF910895CF93DF931F92CDB7DEB76983B9
:1010B000DC01ED91FC910280F381E02D41E050E0F4
:1010C000BE016F5F7F4F09950F90DF91CF9108951B
:1010D00083E08093E9008091F200882319F08AE38D
:1010E0008093E800089583E00E943F0790E0089510
:1010F000CF93DF931F92CDB7DEB7FC018485958532
:1011000097FD08C02FEF3FEF358724870F90DF91C1
:10111000CF910895CE0101960E947D05019719F4A3
:10112000898190E0F3CF8FEF9FEFF0CF0F931F9364
:101130000E94DE0660939F037093A0038093A10337
:101140009093A20387E993E00E94780897FF1DC05F
:101150000E94DE0600919F031091A0032091A1033D
:101160003091A203601B710B820B930B00919B03C8
:1011700010919C0320919D0330919E03601771078D
:1011800082079307F8F28FEF9FEF1F910F91089559
:101190000F931F93CF93DF931F92CDB7DEB78C01D0
:1011A000FC018485958597FF0BC0CE0101960E94B6
:1011B0007D05019771F4898190E0F8019587848716
:1011C000F801848595850F90DF91CF911F910F9144
:1011D00008958FEF9FEFF1CFFC018485958597FDF2
:1011E0000BC09FB7F89482E08093E9008091F200F1
:1011F0009FBF90E0019608959FB7F89482E0809396
:10120000E9008091F2009FBF90E008959FB7F894A5
:101210008091DD02882319F081508093DD02809156
:10122000DD02811105C08CB58F7B8CBD1092DC0274
:101230009FBF08950C941C0687FD06C070E0082E21
:10124000000C990B0C941A090895FC01808187FD0C
:1012500007C061E070E0082E000C990B0E941A098B
:101260008091DC02882361F09FB7F8942091DC0222
:101270008091DB02213019F48DBB9FBF08958FBF91
:1012800008958EBD00000DB407FEFDCF8EB5089504
:10129000FB0124913196E491322F2E2FFB013296DF
:1012A000E491E11103C090E080E008956D5F7F4F0D
:1012B000DC01FC914217530730F0D901AE0FB11D8C
:1012C0004A175B0728F0EF9F600D711D1124E0CFD6
:1012D000421B530BF49FC001F59F900D1124860F04
:1012E000971F0895482F2091D9023091DA022115D5
:1012F000310551F490E0803CA8F09093DA0280939D
:10130000D9028FEF9FEF089586E0220F331F8A9551
:10131000E1F7207C37704F73C901842B1092DA02F9
:101320001092D9020895EF92FF920F931F93CF93DB
:10133000DF934115510509F44BC08A017B01EC0193
:101340008981FA0180838A8181838F818283688584
:101350007985F0E8EF16F10490F4888181110FC0CF
:101360006115710579F08B81E81AF1082E812E9DA7
:10137000C0012F9D900D1124860F971F26C0611567
:101380007105E1F46A857B856115710541F54B8135
:1013900088859985242F042E000C330B241B3109DA
:1013A0004E81429FB001439F700D1124288121304E
:1013B000F1F030E020E0620F731FDECFA701CE0115
:1013C00006960E9448090097E9F2F8019483838306
:1013D000DF91CF911F910F91FF90EF900895A7019A
:1013E000CE0106960E944809009779F7D0CF23E0F6
:1013F00030E0E1CF2091B602260F3327331F213290
:101400003105ECF420918503FC0190E080E024306C
:1014100069F082E00895A091B6022191AC014A568C
:101420005D4FA40FB52FB11D2C930196861798F32D
:101430008091B602680F6093B60280E0089581E063
:1014400008951092850381E08093640310925F03F6
:1014500061E082E00E941C0661E083E00E941C06BD
:10146000E9EBF0E080818E7F808380818D7F8083B7
:1014700088E48093B80085E48093BC000895CF93FE
:10148000DF9391E0909395028823B9F0C091B80062
:10149000D091BA008091BC008A7B8093BC0060E050
:1014A00082E00E941C0660E083E00E941C060E940D
:1014B000210AD093BA00C093B800DF91CF9108956C
:1014C000CF92DF92EF92FF920F931F93CF93DF9310
:1014D000D82FC62F613208F098C00E9486066B0193
:1014E0007C018091850381116BC081E0809385032D
:1014F000809364039FEF90936303109262039C0FA9
:10150000909361038093600380916003DD0FD82B7B
:10151000D093600380915F03813009F078C010920E
:101520005F030E9486066B017C01809160038093BB
:10153000BB008091870390918803A0918903B091AB
:101540008A03892B8A2B8B2BA1F00E94860600919F
:101550008703109188032091890330918A036C19C5
:101560007D098E099F09061717072807390708F410
:1015700048C08091BC0083FDD8CF85EC8093BC002F
:101580000E9486066B017C0180918503813009F4FD
:1015900040C0809162038C1710F4C0916203EFE3A6
:1015A000F3E0A5E6B3E080E08C1355C08C2FDF910B
:1015B000CF911F910F91FF90EF90DF90CF90089502
:1015C0008091870390918803A0918903B0918A0349
:1015D000892B8A2B8B2B09F484CF0E9486060091DD
:1015E0008703109188032091890330918A036C1935
:1015F0007D098E099F09061717072807390708F084
:1016000070CF809186030E943F0AC0E0CFCF85EE65
:10161000B5CF8091870390918803A0918903B09101
:101620008A03892B8A2B8B2B09F4AECF0E94860666
:1016300000918703109188032091890330918A03D8
:101640006C197D098E099F090617170728073907A6
:1016500008F09ACFD6CF91919D938F5FA5CF8F92AF
:101660009F92AF92BF92CF92DF92EF92FF920F9331
:101670001F93CF93DF93D0913304D13208F0D7C0BA
:10168000182FC0913E030E9486066B017C01809159
:10169000850381116BC082E08093850310936403FE
:1016A0008FEF8093630310926203D0936103AEE1E6
:1016B000B3E0EFE3F3E080E0D81391C01092600351
:1016C00080916003CC0FC82BC093600380915F03AF
:1016D000813009F088C010925F030E9486066B017A
:1016E0007C01809160038093BB008091870390917F
:1016F0008803A0918903B0918A03892B8A2B8B2BB5
:10170000A1F00E9486060091870310918803209122
:10171000890330918A036C197D098E099F09061788
:1017200017072807390708F442C08091BC0083FDE1
:10173000D8CF85EC8093BC000E9486066B017C01AB
:1017400080918503823009F450C0809163038F3FFC
:1017500009F46FC080916303803209F46CC08091FA
:101760006303803309F469C084E026C08091870355
:1017700090918803A0918903B0918A03892B8A2BC9
:101780008B2B09F484CF0E9486068090870390906B
:101790008803A0908903B0908A036C197D098E0993
:1017A0009F0986169706A806B90608F070CF8091A3
:1017B00086030E943F0A85E010923404109233049D
:1017C00010921D03DF91CF911F910F91FF90EF9029
:1017D000DF90CF90BF90AF909F908F9008959D9194
:1017E00091938F5F69CF85EEA5CF8091870390910C
:1017F0008803A0918903B0918A03892B8A2B8B2BB4
:1018000009F49ECF0E9486060091870310918803F9
:101810002091890330918A036C197D098E099F09F3
:10182000061717072807390708F08ACFC0CF81E0CD
:10183000C3CF80E0C1CF82E0BFCF83E0BDCF0895AA
:10184000E091360480913504E81730F4F0E0EB596C
:10185000FC4F808190E008958FEF9FEF0895909165
:101860003604809135042FEF3FEF981748F4E92FA5
:10187000F0E0EB59FC4F208130E09F5F90933604FD
:10188000C90108958091350490913604891B990B04
:101890000895CF92DF92EF92FF920F931F93CF9311
:1018A000DF937C01CB018A0120911D03222389F063
:1018B000EB016B01C40ED51ECC15DD0569F06991F5
:1018C000D701ED91FC910190F081E02DC7010995C0
:1018D000F3CF642F0E94FA09C801DF91CF911F91C5
:1018E0000F91FF90EF90DF90CF900895CF93DF930B
:1018F0001F92CDB7DEB7698320911D032223F9F033
:1019000020913304203258F021E030E0FC01338391
:10191000228390E080E00F90DF91CF910895809135
:101920003404E82FF0E0E25EFC4F998190838F5FF2
:10193000809334048093330481E090E0ECCF61E045
:10194000CE0101960E94FA09F7CF682F87E394E051
:101950000C94760CDC01FB0112962C911297848179
:1019600095812817190641F491818081813A31F4DB
:101970009D7F81E0913009F080E008958132E1F7A8
:101980009B3029F482811F968C9381E008959A30D0
:1019900099F7828150968C93F8CFAF92BF92CF92F5
:1019A000DF92EF92FF920F931F93CF93DF931F92DB
:1019B000CDB7DEB77C0169836A01590141E050E08F
:1019C000BE016F5F7F4FFC0183810E9450078C0135
:1019D00097FD0BC0F7018381A501B60180640E94C9
:1019E0005007080F191F97FD8C01C8010F90DF9158
:1019F000CF911F910F91FF90EF90DF90CF90BF900C
:101A0000AF900895DC01FB0188E4808389E4818341
:101A100084E482831D969C911D979F709F5B9383A6
:101A20001D968D919C9124E0969587952A95E1F7D6
:101A30008F708F5B848385E00895EF92FF920F9300
:101A40001F93CF93DF93FB012081213871F5238110
:101A5000223259F5DC0112964C91248135814217CE
:101A6000130619F5EC010B851C85F12CE12C0115F1
:101A7000110589F0F801448155816281738180E804
:101A80000E9419078F3F980749F0E80EF91ED80108
:101A90000D911C91ECCF81E08F87C701DF91CF9131
:101AA0001F910F91FF90EF90089590E080E0F6CFA6
:101AB000CF93DF93CDB7DEB769970FB6F894DEBF4B
:101AC0000FBECDBFFC01DB018C918F5F8C939E011B
:101AD0002D5F3F4F8DE0D9011D928A95E9F729E0EE
:101AE000298384E08A8391E09D8383E08E832A8723
:101AF00021E22B879C879D879F8722E2288B27E006
:101B00002B8B25E02C8B8E8B20E430E0388F2F8BB5
:101B1000998F82818B8395858685998B8A8B83812A
:101B200080688D8B49E150E0BE016F5F7F4F80E0A0
:101B30000E94190769960FB6F894DEBF0FBECDBF9D
:101B4000DF91CF910895CF93DF9380918D02811122
:101B500067C081E0809380028093810226E832E0B2
:101B600030938302209382021092850210928402A5
:101B700027E331E030937D0220937C0210928802AB
:101B80001092870210928A021092890280938B022F
:101B900080938C0281EC809386020E94F707FC01FF
:101BA000818190918002482F490F5527551F483059
:101BB00051059CF5A281B381109709F52CE732E01D
:101BC00033832283208120937E0280937F02809141
:101BD0008102820F808320918202A22FB091830222
:101BE0008A2F821B8917C8F481813D91C82FD0E0CC
:101BF000C050DF4F38838F5F8183F2CFD9011896B1
:101C00002D913C91199721153105C1F72CE732E050
:101C100019963C932E931897D5CF81E080938D022F
:101C20008CE792E0DF91CF910895CF93DF93EC01A1
:101C30000E94A30D28E030E0AE0162E0DF91CF9179
:101C40000C94CD0CE1E2F4E0168217821086118626
:101C500012861386148285E294E00C94150E9091FE
:101C600011049813809311040E94A30D23E030E027
:101C700040E154E061E00E94CD0C81E090E00895E5
:101C8000E0E1F4E01082118212820E94A30D23E0B1
:101C900030E040E154E061E00C94CD0CCF92DF9253
:101CA000EF92FF920F931F93CF93DF936C01EB01A1
:101CB0007B01E40EF51E10E000E0CE15DF0581F09B
:101CC00069916D30D1F3D601ED91FC910190F081D5
:101CD000E02DC6010995892B19F00F5F1F4FEDCF3D
:101CE000C801DF91CF911F910F91FF90EF90DF908E
:101CF000CF900895DC01683888F1685816968C9169
:101D00001697861721F117968C9117978617F9F079
:101D100018968C9118978617D1F019968C9119976F
:101D20008617A9F01A968C911A97861781F01B9640
:101D30008C911B97861759F0FD01369690E080E054
:101D4000219121114FC08A0F9B1FFC016683CD0199
:101D500004960E94150E81E090E00895862F90E091
:101D600067FF12C0FC01E058F10921E030E001C03A
:101D7000220FEA95EAF714968C911497822B149609
:101D80008C93149760E0BACF1C96ED91FC911D974F
:101D9000E80FF91F6491611109C081E090E013968A
:101DA0009C938E93129790E080E00895862F807C1C
:101DB000803C69F414968C911497806414968C93EB
:101DC00014976F73623309F099CF64E697CF67FF7A
:101DD000F9CF14968C911497826014968C93149773
:101DE0006F77F0CF01968630910509F0A9CFD5CF56
:101DF000EF92FF921F93CF93DF93EC01162F0E9477
:101E00007A0E7C01E8E7E10F183890F4812F90E01A
:101E100017FF2AC0FC01E058F10981E090E001C001
:101E2000880FEA95EAF780959C8189238C83E0E00E
:101E3000DE0186E0EE2341F016969C911697E91399
:101E400003C016961C921697815011968111F2CFFD
:101E5000CE0104960E94150EC7019927DF91CF91FC
:101E60001F91FF90EF900895EC85FD85E80FF91F15
:101E7000E491EE2389F38E2F807C803C41F48C81A9
:101E80008F7B8C83EF73E23399F6E4E6D1CFE7FFE3
:101E9000FACF8C818D7F8C83EF77F5CF90E080E057
:101EA000089591708436910591F1B0F482329105D4
:101EB00009F43FC040F48130910591F1409769F1F8
:101EC00090E080E008958134910569F180359105B5
:101ED000B9F780E890E00895883E9105D9F048F47C
:101EE000813C910519F1803D910551F780E092E028
:101EF0000895803521E0920739F0803D21E0920776
:101F000019F080319140E1F688E090E0089582E098
:101F100090E0089584E090E0089580E190E00895D5
:101F200080E290E0089580E091E0089580E094E000
:101F3000089581E090E00895282F813099F0823053
:101F4000A1F08330A9F08430B1F08530B9F090E091
:101F500080E02630B1F02730B9F02830B9F488E3BA
:101F600090E0089585E090E008958AE090E008957B
:101F70008FE090E0089584E190E008958DE190E095
:101F8000089586E290E008958FE290E008950F931F
:101F90001F93CF93DF9361E086E00E941C0660E010
:101FA00087E00E941C0661E087E00E941C0660E05A
:101FB00086E00E941C06CFE0D0E010E000E085E063
:101FC0000E94F305092E000CAA0BBB0B0C2E04C0BB
:101FD000880F991FAA1FBB1F0A94D2F7082B192B31
:101FE00061E084E00E941C0660E084E00E941C0620
:101FF000219728F7C801DF91CF911F910F91089584
:102000001F93CF93DF93EC018B859C8594FB112765
:1020100010F9162796FF04C09F7B9C878B8711E0E1
:102020008B859C8591FD05C0112381F192609C8771
:102030008B870E94DE06AB0189819A81FA01E81B39
:10204000F90B8B859C85112309F441C085FD23C0C4
:102050002F8192FD06C0222321F094609C878B87FC
:102060000BC02E171F0619F010F0211107C0826255
:102070009C878B875C834B835A8349838B859C85A4
:102080008F71992711E0892B09F410E0812FDF91DE
:10209000CF911F91089597FDF1CF86FD0AC0298544
:1020A000A0E12A9F90011124E217F30738F384641A
:1020B000D5CF87FF0AC02A85A0E12A9F900111246D
:1020C0008868E217F30750F6D9CF2985F5CF85FF49
:1020D00012C02F812E171F0609F080F586FD03C060
:1020E00028812F5F288397FD18828F7D8061916002
:1020F0009C878B8723C090FF0DC097FD03C0806134
:102100009C878B878B859C859E779C878B875A8342
:10211000498314C028812223F1F09C01207C3327BD
:10212000232BA1F4288540E1249F90011124E2177C
:10213000F30760F48B819C81892B51F48B859C85FE
:1021400092FF9CCF9B7F9C878B8798CF8160D0CF5D
:102150001C821B82F3CF91FFF1CF8F739D7F98601C
:102160009C878B871C821B82D2CFFC012385348500
:1021700020FD1082C9018F719927892B19F0207ECB
:10218000348723870895CF93DF93EC010E94B51025
:10219000898985FF02C08F7D898BDF91CF9108955A
:1021A0000F931F93CF93DF93C82FD62F83E695E02D
:1021B0000E94C3106D2F83E695E00E940010D82F77
:1021C00080917705909178050097C1F12091740571
:1021D00081FF30C02061209374052091740582FF37
:1021E0002BC028602093740553E0969587955A95E7
:1021F000E1F7909378058093770580916E05909133
:102200006F0585FFD4C0906890936F0580936E052D
:1022100080916E0590916F0593FD05C09860909335
:102220006F0580936E0580917405806280937405BC
:1022300081E007C02F7ECFCF277FD4CFC7FF10C04C
:1022400080E0D82BE0916805F0916905309711F096
:10225000D11109958D2FDF91CF911F910F91089585
:1022600080917505282F2295207F25952595259508
:102270002595022E000C330B4C2F0C2E000C550B09
:1022800024173507E9F2220F331F220F331F242BA7
:10229000352B220F331F41E656E164E979E404C08F
:1022A00075956795579547952A95D2F7437085950B
:1022B0008595859585958150480F4295407F459538
:1022C000459545954595842F8295807F9C2F9F70DD
:1022D000892B80937505807F09F4B2CF80917405B6
:1022E000982F9370913009F453C008F44DC0923088
:1022F00009F452C091E014160CF090E082FB222702
:1023000020F9921709F44DC091E0209175052F70C6
:1023100020937505092F092E000C110B220B330B8E
:10232000409170055091710560917205709173052F
:10233000400F511F621F731F40937005509371052A
:102340006093720570937305913069F58061809395
:1023500074050E94DE062091640530916505AB018D
:10236000421B530B9A01409176055091740570936E
:10237000650560936405852F42171306B1F0A8F038
:1023800088608093740539CFC33009F059CFB2CF3C
:10239000CC2309F4AFCF54CFC150C23008F0AACF3C
:1023A0004FCF9FEFB2CF8F7ED2CF877FEACF1092F1
:1023B00063052ECFBF92CF92DF92EF92FF920F93E1
:1023C0001F93CF93DF93CDB7DEB728970FB6F8945E
:1023D000DEBF0FBECDBF8091130591E090931D032A
:1023E00080933E03109234041092330490E080E016
:1023F0000E94A50C81E00E942F0B882301F1198215
:102400001A821B821C821D821E8218861F822981CD
:102410003A814B815C816D817E818F819885289680
:102420000FB6F894DEBF0FBECDBFDF91CF911F91E5
:102430000F91FF90EF90DF90CF90BF90089567E0ED
:10244000809113050E94600A10923604809335042F
:1024500087E394E00E942F0C9C0164E0359527955A
:102460006A95E1F72F7033271AE08F70D82E129FEC
:10247000D00C112487E394E00E942F0C9C0174E09F
:10248000359527957A95E1F72F7033278F70E82ED1
:10249000129FE00C112487E394E00E942F0C182F68
:1024A0001F7085FF46C01C5E87E394E00E942F0CDE
:1024B000B82E87E394E00E942F0C9C0194E03595A0
:1024C00027959A95E1F72F7033273AE0C32E8F7046
:1024D000F82EC29EF00C112487E394E00E942F0C8A
:1024E0009C0144E0359527954A95E1F72F703327F5
:1024F0008F70082FC29E000D112487E394E00E9484
:102500002F0CD982EA821B83BC82FD820E839C0140
:1025100054E0359527955A95E1F72F7033278F7042
:10252000C29E800D112490E08053984F98878F832E
:102530006ECF84FFB9CF165FB7CF9091130521E01E
:1025400020931D0390933E031092340410923304A1
:10255000682F87E394E00E94760C81E00E942F0BA5
:1025600081110EC061E0809113050E94600A1092F3
:1025700036048093350487E394E00E942F0C08957D
:1025800080E00895FC0101900020E9F73197AF0148
:10259000481B590BBC0187E993E00C943C08CF938E
:1025A000DF93FC01448155816081718187E993E06B
:1025B0000E943C08EC0189E891E00E94C2128C0F55
:1025C0009D1FDF91CF9108958F929F92AF92BF92FE
:1025D0000F931F93CF93DF93CDB7DEB7A1970FB6BD
:1025E000F894DEBF0FBECDBF19A2423008F44AE016
:1025F0008E010F5D1F4F842E912CB12CA12CA501B3
:1026000094010E949233E62FB901CA01EA30F4F432
:10261000E05DD801EE938D01232B242B252B79F738
:1026200090E080E0109719F0CD010E94C212A196AF
:102630000FB6F894DEBF0FBECDBFDF91CF911F91D3
:102640000F91BF90AF909F908F900895E95CE1CF7C
:102650000F931F93FC01048115812681378140E08F
:1026600052E16AE770E090E0041715072607370784
:1026700040F476956795579547959F5F9630A1F7FB
:1026800097E0292F206A2695909591708091DC0221
:10269000882361F08FB7F8943091DC023130A1F4D7
:1026A0003DB33093DB023DB33DBB8FBF2CBD9DBD21
:1026B000808187FD0CC070E060E0082E000C990B53
:1026C0001F910F910C941A098093DB02EFCF1F9199
:1026D0000F910895CF93DF93EC010E9428138A8510
:1026E00087FD05C060E0DF91CF910C941C0980E06C
:1026F000DF91CF910C944109BF92CF92DF92EF927C
:10270000FF920F931F93CF93DF93EC01888D87FD8A
:1027100003C061E00E944A06898D87FD03C061E025
:102720000E944A061FB7F8948091DD02811127C0EC
:10273000E2E2F7E08491E1E4F7E09491E82FF0E041
:10274000EE0FFF1FEB50F94FA591B491EC91E923E7
:1027500021F461E081E10E941C0661E081E10E94B8
:102760004A068CB580618CBD8CB580648CBD61E0FF
:102770008FE00E944A0661E080E10E944A06809153
:10278000DD028F5F8093DD021FBF0F8907FD28C028
:1027900061E0802F0E944A06002E000C110B61E0C0
:1027A00070E0C8010E941A096AE070E080E090E0E1
:1027B0000E94AB0670E060E0C8010E941A096AE05E
:1027C00070E080E090E00E94AB0661E070E0C8013C
:1027D0000E941A0964E170E080E090E00E94AB067C
:1027E00080E890E09B838A8380EA90E09D838C83DD
:1027F00068E770E080E090E00E94AB060D88DE891B
:10280000C02DCE010E946A130CEA10E084E1E82E8C
:1028100081E0F82EBB24BA94CC24C394F801D49060
:10282000CC2089F1FFEFCF1217C0CE010E942509FD
:102830008FEFD81661F06D2D70E090E080E00E947F
:10284000AB06CE010E946A13CC24C3940BC064EF84
:1028500071E080E090E0F3CF8D2D0E944109BB2410
:10286000BA94C12C0F5F1F4FE016F106B9F6CE01E6
:10287000DF91CF911F910F91FF90EF90DF90CF905C
:10288000BF900C942509EFEFBE120AC0D7FC13C00D
:10289000DD20D1F261E08A850E941C09BD2CE2CFC7
:1028A000BA948D2D0E944109B110DCCF60E08A8579
:1028B0000E941C09C9CFCD2CD5CFDF92EF92FF9299
:1028C0000F931F93CF93DF93EC017B01D42E21153F
:1028D000310509F457C08B0101501109020F131F74
:1028E000CE010E946A138AE20E94410961E08A8552
:1028F0000E941C0980E00E9441098F858E0D0E9474
:10290000410980E00E944109EB85FC85808191812D
:102910000817190710F00FEF080F8F85800F0E941E
:10292000410960E08A850E941C098BE20E944109EE
:1029300061E08A850E941C0980E00E944109898922
:102940008D0D0E94410980E00E944109EB85FC85C4
:10295000898981509281890F0E94410960E08A85AE
:102960000E941C098CE20E9441098A8587FD11C0E2
:1029700061E0DF91CF911F910F91FF90EF90DF9079
:102980000C941C09EB85FC85008111810150110913
:10299000A7CFCE010E942509CE010E94281380E412
:1029A000DF91CF911F910F91FF90EF90DF900C94EA
:1029B0004109CF92DF92EF92FF9230E020E050E0A9
:1029C00040E070E060E08091AD059091AE050E941E
:1029D0005D1420919A0530919B05A0919C05B091C2
:1029E0009D050E94B4336B017C0181E0C81AD108B7
:1029F000E108F1088FEFC816D806E806F80639F0A6
:102A000080E00E94410980E00E944109EECF809160
:102A1000AD059091AE05FF90EF90DF90CF900C94B4
:102A200025090C94D9142F923F924F925F926F9286
:102A30007F928F929F92AF92BF92CF92DF92EF924E
:102A4000FF920F931F93CF93DF93CDB7DEB76597B8
:102A50000FB6F894DEBF0FBECDBF982E6B01242EAB
:102A6000312C21E030E0290102C0440C551C4A956C
:102A7000E2F78FEF90E0042C01C0880F0A94EAF788
:102A80008095A201415051095C874B8743E050E09B
:102A9000BA01621973097F836E83A9010E8002C097
:102AA000440F551F0A94E2F7588B4F87192DE12CDC
:102AB0001886F12C682F70E07C8B6B8B4D8AE0912F
:102AC000AB05F091AC05818190E0022C02C0880F2B
:102AD000991F0A94E2F720919A0530919B05281BD3
:102AE000390B1217130609F038F4AF2DB0E0A557D3
:102AF000BC4F8C91811123C078E0C70ED11C80910E
:102B00009C0590919D05C816D90608F01BC1E39459
:102B1000858190E0022C02C0880F991F0A94E2F789
:102B2000E816190609F084C0EF2DF0E0E557FC4FD8
:102B30008081882309F406C1192DF886E12CEF2D38
:102B4000F0E0E557FC4F80810E947209F3948F3FBB
:102B50009807A9F3A091AB05B091AC051C96ED9137
:102B6000FC911D97AE014F5F5F4FBC01CD010995F0
:102B70008E2D90E0AC01022C02C0559547950A9429
:102B8000E2F76A819A0173E0220F331F7A95E1F729
:102B900009816217130609F00CF4BEC0049FB0014E
:102BA000059F700D11242C813D81260F371F3D8319
:102BB0002C834B855C8584239523BC010E8002C049
:102BC000660F771F0A94E2F77E876D87712E802E3D
:102BD000811031C0049D100D11242B8130E0022C96
:102BE00002C0220F331F0A94E2F7612F70E0A601A2
:102BF0008091AD059091AE050E945D1408E0A09013
:102C0000A9058090AA05B12C8B8190E0022C02C00E
:102C1000880F991F0A94E2F7B81619060CF087C0BE
:102C2000882D0E9441098A2D0E944109B394ECCF5E
:102C3000192DF88484CFEC81FD81E491F0E00D84BE
:102C400002C0F595E7950A94E2F780E0612C282F01
:102C500030E04F85588924173507BCF4AF01082EA2
:102C600002C0559547950A94E2F790E040FF0AC0EC
:102C7000022C01C0220F0A94EAF79B8901C0990F28
:102C80002A95EAF7692A8F5FE2CF672D70E09201FB
:102C9000A6018091AD059091AE050E945D14B12C06
:102CA000A12C662D70E07A8B698B89899A890A2C10
:102CB00002C0959587950A94E2F780FF26C070912F
:102CC000A70579878091A8058A87642C8A850E9448
:102CD000410989850E9441096A946110F7CF3FEF4D
:102CE000A31AB30A48E0A416B104F9F68091AD0521
:102CF0009091AE050E9425095D89750E8C819D819C
:102D000001969D838C838A9463CF9091A9059987BE
:102D10002091AA052A87D9CF8B81800F8B83802FA2
:102D2000022C01C0880F0A94EAF7180F56CF015001
:102D300009F065CF180F8091AD059091AE050E9406
:102D40002509BDCE65960FB6F894DEBF0FBECDBF88
:102D5000DF91CF911F910F91FF90EF90DF90CF9077
:102D6000BF90AF909F908F907F906F905F904F90AB
:102D70003F902F9008950F931F93CF93DF93EC0113
:102D80008A0130E020E0AB01BC018091AD0590915B
:102D9000AE050E945D14C017D10754F48091A805B8
:102DA0000E9441098091A7050E9441092196F3CF15
:102DB0008091AD059091AE05DF91CF911F910F915C
:102DC0000C9425090F931F93CF93DF93EB018A0196
:102DD00021E030E0AB01BC018091AD059091AE05E2
:102DE0000E945D140C171D0754F08091A8050E94E5
:102DF00041098091A7050E9441092196F3CF809156
:102E0000AD059091AE05DF91CF911F910F910C947C
:102E10002509EF92FF920F931F93CF93DF937B01CE
:102E2000E9012617370724F42F2D7E01C62FD22F54
:102E3000481759072CF4382F292FCA01432F522F36
:102E4000481B590B8A010F5F1F4F9801A701BC0156
:102E50008091AD059091AE050E945D14CE19DF09F9
:102E60002196C09F7001C19FF00CD09FF00C1124DF
:102E700081E0E81AF10848F08091A8050E94410914
:102E80008091A7050E944109F3CF8091AD059091F3
:102E9000AE05DF91CF911F910F91FF90EF900C94B1
:102EA00025095F926F927F928F929F92AF92BF920D
:102EB000CF92DF92EF92FF920F931F93CF93DF9306
:102EC0005A016901D091A9057090AA056090A705E3
:102ED0005090A8059A01AB01BC018091AD0590917D
:102EE000AE050E945D14C1E081E0C81AD108F0F07F
:102EF00048018A0C9B1C7801E814F90499F0F70149
:102F000084918C2351F0852D0E944109862D0E94C9
:102F10004109FFEFEF1AFF0AEFCF872D0E94410909
:102F20008D2FF5CFCC0F01F78701DDCF8091AD0557
:102F30009091AE05DF91CF911F910F91FF90EF908F
:102F4000DF90CF90BF90AF909F908F907F906F90C9
:102F50005F900C942509EF92FF920F931F93CF93EC
:102F6000DF9300D000D01F92CDB7DEB78A30B9F41E
:102F7000E091AB05F091AC0582812091A2053091E2
:102F8000A305820F932F911D9093A3058093A20513
:102F90001092A1051092A00581E090E0E3C08D3071
:102FA000D9F30E9472098F3F980709F41DC1A091BF
:102FB000AB05B091AC051C96ED91FC911D97AE014F
:102FC0004F5F5F4FBC01CD010995E090A405F12C46
:102FD000EF2DF0E08091A5059091A605A2E0B0E06C
:102FE000019711F0A1E0B0E01A8149818091A0051C
:102FF0009091A105EA17FB07ACF4AC81BD81212FAC
:1030000030E050E06091A2057091A3058D018E0F14
:103010009F1F0E9451178091A40582608093A40590
:10302000F394D6CFE092A405E091AB05F091AC0506
:103030002281121790F5E091A705F091A805A091C3
:10304000A905B091AA05B093A805A093A705F09390
:10305000AA05E093A9056091A2057091A305260F2A
:10306000372F311D21503109480F592F511D415023
:103070005109610F711D0E9409178091A705909158
:10308000A8052091A9053091AA053093A8052093A1
:10309000A7059093AA058093A9052B81E22FF0E064
:1030A00089818E0F9F2F911D4091A0055091A10500
:1030B000840F951F9093A1058093A0052223B1F161
:1030C0002091A7053091A8054091A9055091AA0526
:1030D0005093A8054093A7053093AA052093A9050E
:1030E0006091A2057091A305A091AB05B091AC05CC
:1030F00012962C91260F372F311D21503109AC012A
:10310000415051098E1B9F0B0E9409178091A70502
:103110009091A8052091A9053091AA053093A805A2
:103120002093A7059093AA058093A9058091A405F3
:10313000482F447082FF12C0E091AB05F091AC05BE
:10314000918120919A0530919B05291B310960914D
:10315000A0057091A1052617370714F180FD0EC058
:1031600081E090E00F900F900F900F900F90DF9103
:10317000CF911F910F91FF90EF900895E091AB05D3
:10318000F091AC05218180919A0590919B05821B5D
:1031900091092091A0053091A1058217930704F7AA
:1031A000E091AB05F091AC05228130E08091A20561
:1031B0009091A305820F931F9093A3058093A2057E
:1031C0001092A1051092A005442351F240919C0554
:1031D00050919D05421B530B481759070CF610924E
:1031E000A3051092A205BCCF80E0BBCFCF93DF93A5
:1031F0009093A1058093A0057093A3056093A20509
:10320000EA018991882319F00E94AB17FACFDF9168
:10321000CF9108953F924F925F926F927F928F92DB
:103220009F92AF92BF92CF92DF92EF92FF920F9355
:103230001F93CF93DF93CDB7DEB72B970FB6F894DC
:10324000DEBF0FBECDBF8C01DC0118968D909C9027
:1032500019971A968D919C911B97892B51F4809107
:103260009A0590919B05881999091B969C938E93BA
:103270001A97F801C680D78084859585892B41F4FB
:1032800080919C0590919D058C199D099587848757
:10329000D8011C96AD90BC90B5E0AB1AB108AC0C4F
:1032A000BD1CF801E284F384F5E0EF1AF108E80CA4
:1032B000F91C24E0C20ED11C44E0840E911CA7012D
:1032C000B601C4010E94BB16A701B501C4010E944A
:1032D000BB16A501B601C4010E94E216A501B60104
:1032E000C7010E94E216D80113963C9013971596D9
:1032F0002C9115973216B0F01C968D919C914097A9
:10330000E091AB05F091AC05628170E00E947234EF
:10331000E32DE21BFF0B3394361A6E171F0611F0D4
:103320000CF0322ED80115963C92432C512CD8012A
:103330001596EC91F0E08090AB059090AC05D4012F
:1033400012962C91D80113964C9113971C968D913F
:103350009C91409730E0B9010E947234D8011296D6
:103360008C9190E06E0F7F2F711D861797070CF4DC
:10337000BC01461657060CF0A9C0341210C080914B
:10338000A7059091A8054091A9055091AA055093D1
:10339000A8054093A7059093AA058093A905D80195
:1033A0001696ED90FC90B8E0EB0EF11CA2014E1BBE
:1033B0005F0B429FC001439F900D529F900D1124BF
:1033C000E80EF91EE091A705F091A805F987E887B6
:1033D0001092A8051092A7052E0D3F1DA90141507E
:1033E00051095B874A87D8011896CD90DC901997D0
:1033F0001A966D907C90B9E06B1A71086C0C7D1C6C
:10340000440C551CD801ED91FC91E40DF51D408153
:1034100051815F834E83B12CA12CAE81BF818D91F0
:10342000BF83AE838823D9F08D30C9F08A30B9F0DC
:103430000E9472098F3F980781F3D4011C96ED9189
:10344000FC91AE014F5F5F4FBC01C40109958981BA
:103450009B81890F9927991FA80EB91EDECFC6013F
:1034600008962A853B85A301B7018A0D9B1D0E9402
:103470000917E885F985F093A805E093A705D80119
:103480008D919C911197480E591EF20140815181F6
:1034900018968D919C91B70108960E94F618D80154
:1034A00013968C91381210C08091A7059091A805B1
:1034B0002091A9053091AA053093A8052093A7056E
:1034C0009093AA058093A90533942FCFF8014483E4
:1034D0002B960FB6F894DEBF0FBECDBFDF91CF9114
:1034E0001F910F91FF90EF90DF90CF90BF90AF9022
:1034F0009F908F907F906F905F904F903F90089536
:10350000CF93DF93FC01C481D581209729F41092D9
:103510008B03DF91CF910895615071096C177D077E
:1035200008F4EB01FC0160817181AE018BE893E04E
:103530000E94A136C557DC4F1882EBCF0E9481361E
:10354000FC0180819181009711F00C94A73160E01B
:1035500070E0CB0108950F931F93CF93DF938C01FD
:10356000EB01FC01808191810097E1F06881798114
:1035700061157105A9F0428153812C813D8142176B
:10358000530770F00E949A368C819D81F8019583D3
:1035900084831D821C82DF91CF911F910F9108952A
:1035A0000E943B3588819981F801918380838A81CB
:1035B0009B81938382838C819D81958384831982EF
:1035C00018821B821A82E5CFCF93DF93EC018881AA
:1035D0009981009711F00E943B35198218821D8253
:1035E0001C821B821A82DF91CF910895FC01808199
:1035F0009181009711F00C943B3508950F931F9320
:10360000CF93DF93EC0188819981009759F02A814B
:103610003B812617370730F081E0DF91CF911F9172
:103620000F9108958B016F5F7F4F0E94C435009703
:1036300059F0998388831B830A832C813D81232B36
:1036400059F7FC011082E8CF80E0E7CFEF92FF92BC
:103650000F931F93CF93DF936115710541F480E0C1
:10366000DF91CF911F910F91FF90EF900895411539
:103670005105B1F07B01EC010C811D81040F151F78
:10368000B8010E94FE1A882351F3288139818C8168
:103690009D81B701820F931F0E949A361D830C8370
:1036A00081E0DECFCF93DF93EC01FB0144815581B4
:1036B000608171810E94261B811103C0CE010E948E
:1036C000E41ACE01DF91CF910895EF92FF920F930C
:1036D0001F93CF93DF9300D000D0CDB7DEB77C012E
:1036E000862F4AE08E010F5F1F4FB80190E00E94C5
:1036F000CE31F80101900020E9F73197AF01401B6E
:10370000510BB801C7010E94261B0F900F900F901C
:103710000F90DF91CF911F910F91FF90EF9008953F
:10372000CF93DF9300D0CDB7DEB769831A8241E033
:1037300050E0BE016F5F7F4F0E94261B0F900F90DD
:10374000DF91CF910895EF92FF920F931F93CF9344
:10375000DF93EC017B018A01BA010E94FE1A8111FC
:103760000BC0CE010E94E41ACE01DF91CF911F91D0
:103770000F91FF90EF9008951D830C83B70188810E
:1037800099810E949A36F0CFFB0101900020E9F761
:103790003197AF01461B570B0C94A31B0F931F933C
:1037A000CF93DF93CDB7DEB729970FB6F894DEBF7E
:1037B0000FBECDBF8C01862FF801118210821382BB
:1037C0001282158214824AE0BE016F5F7F4F90E043
:1037D0000E94EE31BE016F5F7F4FC8010E94C41B83
:1037E00029960FB6F894DEBF0FBECDBFDF91CF9103
:1037F0001F910F9108950F931F93CF93DF93CDB730
:10380000DEB762970FB6F894DEBF0FBECDBF8C0156
:10381000CB01F80111821082138212821582148268
:103820004AE0BE016F5F7F4F0E94CE31BE016F5FE5
:103830007F4FC8010E94C41B62960FB6F894DEBF8A
:103840000FBECDBFDF91CF911F910F910895EF92E1
:10385000FF920F931F93CF93DF9300D000D000D03F
:10386000CDB7DEB78B017A0150930803409307036D
:1038700090930603809305030E9411156FE070E09A
:10388000C8010E94801A41E070E060E090E080E0B2
:103890000E941315809104031AE0833008F414E0A9
:1038A000B701CE0101960E94FB1B612F70E0CE0193
:1038B00001960E94801ACE0101960E94F61A42E0FB
:1038C00063E270E090E080E00E94131526960FB648
:1038D000F894DEBF0FBECDBFDF91CF911F910F9146
:1038E000FF90EF900895CF93DF93EC01FB018617D3
:1038F000970749F0608171816115710541F044813C
:1039000055810E94A31BCE01DF91CF9108950E94A3
:10391000E41AF9CFFC0111821082138212821582FF
:103920001482FB0101900020E9F73197AF01461B9B
:10393000570B0C94A31BAF92BF92CF92DF92EF92E2
:10394000FF920F931F93CF93DF936C015B017A017A
:1039500089012417350720F48F2D7901042F182FA2
:103960006BE871E0C6010E948A1CD5011496CD91C6
:10397000DC91EC16FD06E0F40C171D0708F4E801D5
:10398000D501ED91FC911197EC0FFD1F1081108274
:103990006D917C916E0D7F1DC60161157105A1F0C1
:1039A0000E94C41BF50180819181C80FD91F188323
:1039B000C601DF91CF911F910F91FF90EF90DF90A3
:1039C000CF90BF90AF9008950E94E41AEBCF85EDA1
:1039D0008093BC008091870390918803A091890314
:1039E000B0918A030796A11DB11D23E0B695A79556
:1039F000979587952A95D1F72091BC0024FD03C0A7
:103A00001092850308954091870350918803609137
:103A1000890370918A03452B462B472B69F3009746
:103A2000A105B10541F02AE22A95F1F700C00197FE
:103A3000A109B109E1CF809186030C943F0AFF925E
:103A40000F931F93CF93DF938C01EB01F8800E94BB
:103A50001333F81621F06F2DC8010E941B33CE01DD
:103A6000DF91CF911F910F91FF9008959091F802EF
:103A70009F5F9431A0F4953080F49093F802909178
:103A8000F802943021F4811184E18093F80268EF08
:103A900072E087EF93E00C941F1D8111EECF10921E
:103AA000F802EDCFCF93DF93EB010E9413338883AD
:103AB000CE01DF91CF910895CF92DF92EF92FF92E6
:103AC0000F931F93CF93DF9300D000D01F92CDB7F9
:103AD000DEB7E82EF62E862F0E949C0F8C0183E025
:103AE0008F1508F451C06AEF72E085EF93E00E94F1
:103AF000521D8091FA028E1124C091E0F9121BC070
:103B00008091F802843149F084E18093F80268EFF3
:103B100072E087EF93E00E941F1D0F900F900F90AF
:103B20000F900F90DF91CF911F910F91FF90EF9029
:103B3000DF90CF900895F110F0CF80E00E94361D05
:103B4000ECCFE1E4EE9E000D111D11246E01F6E0B4
:103B5000CF0ED11CCE0101967C01081B190BB701B9
:103B6000C8018E0D9F1D0E94521DF70161917F01BA
:103B7000662339F081E294E00E947A0EEC14FD0491
:103B800071F70E94220EC9CFF1E4EF9E000D111DC6
:103B90001124F12CE12CD12CBE016F5F7F4FC801A5
:103BA0008E0D9F1D0E94521D89819FEF980F9E3F91
:103BB00008F0B3CF8D1102C00E94220E698181E20C
:103BC00094E00E947A0EDD2031F068E270E080E03F
:103BD00090E00E94AB068FEFE81AF80A95E0E9162C
:103BE000F10409F49ACFD980D7CFCF92DF92EF9228
:103BF000FF920F931F93CF93DF93CDB7DEB76197FB
:103C00000FB6F894DEBF0FBECDBFD82E862F8E0123
:103C1000035F1F4F95E0F80111929A95E9F70E9412
:103C20009C0F7C016BE871E0CE0107960E948A1C14
:103C3000F1E4DF9EE00CF11C1124D12CE01AF10A12
:103C4000B801C701800F911F0E94521D84E0D81651
:103C500009F450C0F801C0801A8219821C821B82AC
:103C60001E821D82BE01695F7F4FCE0101960E94B8
:103C7000731C6C2DCE0101960E94651B811104C03E
:103C8000CE0101960E94E41A41E050E06CE871E038
:103C9000CE0101960E94261B811104C0CE0101961F
:103CA0000E94E41ABE016F5F7F4FCE0107960E940B
:103CB000731CCE0101960E94F61AD3940F5F1F4F1A
:103CC000F5E0DF12BDCFCE0107960E94CF12CE01E4
:103CD00007960E94F61A61960FB6F894DEBF0FBEE3
:103CE000CDBFDF91CF911F910F91FF90EF90DF90AB
:103CF000CF900895C9881A8219821C821B821E8265
:103D00001D82BE01695F7F4FCE0101960E94731C28
:103D10006C2DCE0101960E94651BBECF8F929F92A3
:103D2000AF92BF92CF92DF92EF92FF920F931F93C9
:103D3000CF93DF93CDB7DEB72B970FB6F894DEBFE6
:103D40000FBECDBF5C01C62ED12C00E0802E912C81
:103D5000F501848195818816990670F4E080F180E0
:103D600064E270E0C701880D991D0E948F368C01B6
:103D70000E191F09892B11F40FEF1FEF0F3FE1F010
:103D8000202F002E000C330BA401B501CE010196AB
:103D90000E949B1CCE0101960E94A01AE7E0F0E071
:103DA000EC0FFD1FED0DF11D6083D3940F5FCE016D
:103DB00001960E94F61ACACF1091F9028C2D0E942A
:103DC0009C0F5C01F1E41F9FA00CB11C11248E011B
:103DD000095F1F4FF12CE12CF80181918F0189833C
:103DE000BE016F5F7F4FC7018A0D9B1D0E941F1D83
:103DF000FFEFEF1AFF0A25E0E216F10469F72B96B0
:103E00000FB6F894DEBF0FBECDBFDF91CF911F91EB
:103E10000F91FF90EF90DF90CF90BF90AF909F9069
:103E20008F9008951F920F920FB60F9211242F9327
:103E30003F938F939F93AF93BF9380911303909180
:103E40001403A0911503B09116033091120323E0DF
:103E5000230F2D3758F50196A11DB11D2093120394
:103E60008093130390931403A0931503B093160348
:103E70008091170390911803A0911903B0911A0330
:103E80000196A11DB11D8093170390931803A09371
:103E90001903B0931A03BF91AF919F918F913F91F6
:103EA0002F910F900FBE0F901F90189526E8230FAB
:103EB0000296A11DB11DD2CF1F920F920FB60F9285
:103EC00011248F939F938091E1009091E100937F63
:103ED0009093E10083FF0FC01092E90091E090936E
:103EE000EB001092EC0092E39093ED0010921C0313
:103EF00098E09093F00082FF22C093E09093E90055
:103F00009091F200992319F09AE39093E800909130
:103F1000EF02992341F09091EF0291509093EF02BC
:103F2000911101C05D9A90911B03992341F09091EA
:103F30001B03915090931B03911101C0289A84FF99
:103F400018C08091E2008E7E81608093E2008091B3
:103F5000E1008F7E8093E1008091F0028E7E80618F
:103F60008093F0029F918F910F900FBE0F901F9042
:103F7000189580FFF7CF8091E2008E7E806180935C
:103F8000E2008091E1008E7E8093E1008091F0025A
:103F90008E7E8160E5CF1F920F920FB60F92112493
:103FA000CF92DF92EF92FF920F931F932F933F9345
:103FB0004F935F936F937F938F939F93AF93BF9331
:103FC000EF93FF93CF93DF93CDB7DEB76C97DEBF50
:103FD000CDBF1092E9008091E80083FF25C068E022
:103FE000CE0145960E94EA0782EF8093E8008D8912
:103FF00087FF39C09091E80090FFFCCF982F907612
:1040000009F034C19E894F89588D2F89F88C911100
:1040100031C0803861F58091F1028093F1001092F7
:10402000F1008EEF8093E8006C960FB6F894DEBF37
:104030000FBECDBFDF91CF91FF91EF91BF91AF91B7
:104040009F918F917F916F915F914F913F912F91B0
:104050001F910F91FF90EF90DF90CF900F900FBEC8
:104060000F901F9018959EEF9093E800C7CF109285
:10407000F100D5CF913059F48111D3CF41305105A2
:1040800081F68091F1028D7F8093F102CACF933047
:1040900049F48111C6CF4130510519F68091F102E2
:1040A0008260F2CF953041F48091E80080FFFCCF30
:1040B00020682093E300B5CF963009F0A9C00B8D9E
:1040C0001C8D22E01092E9001092ED021092EC0299
:1040D000F2122EC01092EB021092EA020E940B081C
:1040E0001F8299E09983FA8291E09E8390EA9887F3
:1040F0009AEF99872091EC023091ED02275F3F4FB4
:104100003C832B838D831092E9001092ED02109274
:10411000EC021093EB020093EA0249E050E0BE018A
:104120006F5F7F4F80E00E9419070E940B0879CFD4
:104130001093EB020093EA020E94F707DC0112964B
:104140000D911C910115110509F451C1D801ED9192
:10415000FC910480F581E02DBE016B5E7F4FC801AC
:104160000995009709F03EC1F80100851185EACF55
:10417000F3E0FF120EC08F89882309F440C082301B
:1041800061F440E860E188E791E00E941C2381111E
:1041900048CF81E28093EB0047CF813029F440E89B
:1041A0006BE08CE691E0F1CF833099F70E94F7073E
:1041B000DC011296ED90FC908E010F5F1F4F68019D
:1041C000E114F10479F0D701ED91FC910680F781BB
:1041D000E02DB801C7010995080F111DF701E08412
:1041E000F184EECFD8011C92F60101900020E9F78E
:1041F0003197BF016C197D0940E0C601C6CF66E565
:1042000071E0FB01449150E080E80E94190709CF5A
:10421000973009F4BECF983021F481E08093F1000B
:1042200000CF993009F0FDCE837009F0B2CFE1E004
:10423000F1E081E031E096E32191222371F0809357
:10424000E9003093EB00DF0111972C912093EC00F3
:104250009093ED008F5F873079F78EE78093EA00C7
:104260001092EA008F8980931C03DBCE8B8D9C8D8E
:104270001092E9001092ED021092EC029093EB0282
:104280008093EA02898D811192C08E899D89913A2D
:1042900049F4813209F07DCF47E050E06BE071E0F6
:1042A00080E0B3CF913209F074CF833269F48F8903
:1042B000988DB0E0A0E08093070190930801A0934F
:1042C0000901B0930A01ADCE803269F48091E80013
:1042D00082FFFCCF67E08BE091E00E94EA078BEF62
:1042E0008093E8009ECE823209F09BCE8F89809326
:1042F0001201EEEFFFE7859194918B3F9C4D51F1B8
:10430000E0E0F8E080910B0190910C01A0910D018B
:10431000B0910E01803B9440A105B105F1F480916C
:10432000120180FD1AC0EE3F8AE0F80789F587E7A1
:1043300097E791838083809160008093EE0288E10B
:104340009BE00FB6F894A895809360000FBE909301
:10435000600067CEEEEFFAE0D5CF8081918187379C
:10436000974709F05ECEA8958091600088618093A0
:1043700060008091EE0280936000EE3F2AE0F20739
:1043800089F08091FE0A9091FF0A9183808349CE43
:10439000808191818737980751F29093FF0A80932B
:1043A000FE0AC5CF1092FF0A1092FE0A3ACE0E9472
:1043B000F707DC0112960D911C910115110509F406
:1043C000E8CED801ED91FC910190F081E02DBE0185
:1043D0006B5E7F4FC8010995811123CEF8010085DE
:1043E0001185EBCF181619060CF41BCED2CEF1E0D6
:1043F000FF12BECE6AE571E004CF1F920F920FB696
:104400000F9211242F933F934F935F936F937F935A
:104410008F939F93AF93BF93EF93FF938091B900D6
:10442000887F803609F44AC0F0F5883209F4A7C0C5
:1044300018F5803109F49BC0B8F4882309F4F9C059
:10444000883009F494C0FF91EF91BF91AF919F9193
:104450008F917F916F915F914F913F912F910F902D
:104460000FBE0F901F901895883109F488C08032D4
:1044700051F78093630314C0803409F49DC040F465
:104480008033B9F38833F9F68093630385ECB0C0C9
:10449000803509F485C0883509F496C0883499F6CA
:1044A0000E94E71CD0CF883909F48CC038F58837D2
:1044B00029F050F4883611F0803729F683E0809394
:1044C00085031092D80257C0883809F47BC0803920
:1044D00019F0803809F0B7CF8091D802803208F007
:1044E00071C0E091D80281E08E0F8093D802809154
:1044F000BB00F0E0E854FD4F80833DC0803B39F0C5
:10450000E0F4803A09F479C0883A09F09CCF84E05D
:10451000809385031092B7021092B602E0913104A5
:10452000F091320409958091B60281110FC081E0AB
:104530008093B6021092960209C0803C09F4A6CF7F
:10454000883C09F4A3CF883B09F07DCFE091B70206
:1045500081E08E0F8093B702F0E0EA56FD4F808134
:104560008093BB009091B7028091B60229C08091E0
:1045700060038093BB0085EC8093BC0064CF909176
:10458000620380916103981758F5E091620381E01E
:104590008E0F80936203F0E0E15CFC4F8081E9CFF5
:1045A000E091620381E08E0F809362038091BB00F3
:1045B000F0E0E15CFC4F80839091620380916103A5
:1045C0009817C8F285E8D8CFE091620381E08E0F9A
:1045D000809362038091BB00F0E0E15CFC4F80833C
:1045E0008091640381115CCF81E080935F0384EA52
:1045F0008093BC001092850326CF85EC8093BC008D
:10460000109285038091D802803230F4E091D80274
:10461000F0E0E854FD4F10826091D80270E0E09124
:104620002F04F091300488EB92E009951092D802A3
:104630000ACF1092630334CFEF92FF920F931F9330
:10464000CF93DF93F82E192FE62E042F81E0860FEB
:10465000880F0E94EB0683E00E94EB06CF2DD12F3E
:10466000EC0EFD2EF11CCE15DF05B9F007FF13C0CF
:10467000FE0184910E94EB06182F80E00E94EB0659
:10468000812321968111EFCFDF91CF911F910F915F
:10469000FF90EF9008958881EDCF81E0F5CFCF9323
:1046A000DF9310929A031092990388EE93E0A0E0B2
:1046B000B0E080939B0390939C03A0939D03B093E1
:1046C0009E0325E531E030939803209397032FEF65
:1046D0003FEF3093A4032093A3032093E7031092AA
:1046E000E9031092E8031092F3031092F2034FEFE4
:1046F0005FEFBA014093EE035093EF036093F00332
:104700007093F1032CE0E4EFF3E0EF0119922A95A6
:10471000E9F7109201041092000410923A041092EA
:10472000390480933B0490933C04A0933D04B093E0
:104730003E0487E691E0909338048093370480919B
:104740000804811113C010920304109202048BEF2D
:1047500095E090930504809304048BE490E090939B
:1047600007048093060481E0809308040E94A30D4F
:10477000FC01A385B485109709F0FDC182E094E0A7
:104780009487838785859685209106043091070458
:10479000820F931F9687858710922404109223041A
:1047A00089E791E090932204809321048091190479
:1047B000811113C0109214041092130486EC96E039
:1047C00090931604809315048FE290E09093180460
:1047D0008093170481E0809319040E94A30DFC01CB
:1047E000A385B485109709F0D1C183E194E0948743
:1047F0008387858596852091170430911804820F50
:10480000931F9687858786E496E090932E04809385
:104810002D0410929B0510929A0510929D051092FE
:104820009C0510929F0510929E051092A105109272
:10483000A0051092A3051092A2051092A405109253
:10484000A6051092A5058FEF9FEF9093A805809382
:10485000A7051092AA051092A9051092AC05109216
:10486000AB0580EB95E09093AE058093AD058AE0B3
:104870008093AF0585E891E0909399058093980522
:1048800083E18093B00582E18093B1059FEF90931F
:10489000B2059093B30540E052E16AE770E04093BF
:1048A000B4055093B5056093B6057093B70523E43E
:1048B00034E03093B9052093B8058093BA058AE9AE
:1048C00095E09093BC058093BB051092BD051092B6
:1048D000BE051092C0051092BF051092C20510923D
:1048E000C1058FE191E090938B0580938A0585E067
:1048F00080938C0510928D0510928E0510928F0575
:1049000010929105109290051092930510929205C5
:1049100010929505109294051092970510929605A5
:1049200083E191E090937D0580937C0586E0809300
:104930007E0510927F0510928005109281051092DD
:1049400083051092820510928505109284051092BD
:10495000870510928605109289051092880510929D
:104960006505109264051092670510926605109215
:1049700069051092680582E380936A058FE1809350
:104980006B0585E280936C058CE080936D05109239
:104990006F0510926E0510927005109271051092BD
:1049A00072051092730510927405109275058EE1D0
:1049B00080937605109278051092770584E18093B4
:1049C000790585E180937A0588E080937B0560E036
:1049D00084E10E944A0660E080917A050E944A06BE
:1049E00062E080917B050E944A0680916E0590915D
:1049F0006F05906190936F0580936E0580917905A6
:104A00000E94F305EC0180917A050E94F30521E0F4
:104A100030E0892B11F430E020E0220F331F81E0D9
:104A2000CD2B09F480E0822B8F7090917505907FDB
:104A3000892B809375056BE871E08DE595E00E9408
:104A40008A1C8EE290E0909315058093140580ED0A
:104A500097E0909317058093160582E380934505B0
:104A6000809346051092470510924805109249051B
:104A700010924A0510924B0510924D0510924C056C
:104A80008FB780935A0581E090E090935C05809306
:104A90005B05E9E3F7E02491209356058AE197E06E
:104AA000FC013491E32FF0E0EE0FFF1FED5FF84FB4
:104AB0004591549150934F0540934E05FC018491CC
:104AC000E82FF0E0EE0FFF1FEB50F94FA591B491E6
:104AD000B0935105A0935005EC91E22BEC938EE13D
:104AE00090E0909315058093140584E992E09093EB
:104AF00017058093160588E68093130510923604F7
:104B00001092350410923404109233040E94210A4A
:104B100084ED93E0909332048093310485ED93E02B
:104B20009093300480932F046BE871E08DE095E062
:104B30000E948A1C6BE871E087E095E00E948A1C65
:104B4000E4E4F4E032E32FE195E28CE0128211829A
:104B50001482138216821582378320879187828779
:104B6000148613863D9645E0E730F40779F7DF9128
:104B7000CF910895DC018D919C9111970097D1F709
:104B800082E094E08D939C93FDCDDC018D919C910E
:104B900011970097D1F783E194E08D939C9329CEF0
:104BA000CF93DF93CDB7DEB7A2970FB6F894DEBFF1
:104BB0000FBECDBF789484B5826084BD84B581601A
:104BC00084BD85B5826085BD85B5816085BD8091D8
:104BD0006E00816080936E00109281008091810050
:104BE0008260809381008091810081608093810048
:104BF000809180008160809380008091910082602C
:104C000080939100809191008160809391008091C8
:104C100090008160809390008091C10084608093B7
:104C2000C1008091C10082608093C1008091C10069
:104C300081608093C1008091C30081608093C30034
:104C40008091C00082608093C0008091C20081602A
:104C50008093C20080917A00846080937A00809172
:104C60007A00826080937A0080917A0081608093DC
:104C70007A0080917A00806880937A0010921C03F9
:104C80001092F1021092F0028091D700816080931F
:104C9000D70080EA8093D80089B5806189BD89B545
:104CA000826089BD09B400FEFDCF61E070E080E064
:104CB00090E00E94AB068091D8008F7C8061809349
:104CC000D8008091E000807F8093E0008091E10037
:104CD0008E7E8093E1008DE08093E200559A209AC9
:104CE00027E035E054E4252E54E0352E46E081E0FF
:104CF0009CE0D10118964C9318971A968C931A97AA
:104D000019969C93199717968C93179716961C9241
:104D10001E921597BDE02B0E311C2215330549F765
:104D200088E995E00E947C130E94D914E9E8F1E03B
:104D3000E491E093F403EAE8F1E024912093F50391
:104D4000EBE8F1E084918093F603ECE8F1E0E49184
:104D5000E093F7034DE851E05093FD034093FC03CB
:104D600043E959E0509301044093000490E0079612
:104D700043E0959587954A95E1F78093F903289F3D
:104D8000E02D1124E093FA031092FB031092FF032D
:104D90001092FE0384EF93E09093AC058093AB05F3
:104DA0000091AD051091AE05F801858580FD1CC010
:104DB0000384F485E02D80819181228133813183C8
:104DC000208393838283D8011F968D919C91509765
:104DD00051962D913C91529750963C932E931F974C
:104DE00052969C938E93519783E0F8018587C80172
:104DF0000E94281360E0D8011A968C910E941C0929
:104E000088E20E94410986E30E94410961E0F801BD
:104E100082850E941C09D8011D96EC9180EAE3303E
:104E200020F4F0E0E15CFE4F8081F8019685892B4B
:104E30000E94410960E0D8011A968C910E941C09D9
:104E400089E20E944109C8010E9425098FEF9FEF66
:104E50009093A4038093A30360ED77E080E090E05B
:104E60000E94AB0686E496E090932E0480932D0476
:104E700068EF72E087EF93E00E94521D69E073E0F3
:104E800086EF93E00E94521D6AEF72E085EF93E097
:104E90000E94521D61E173E084EF93E00E94521D75
:104EA0006FE073E083EF93E00E94521D08EF13E080
:104EB000BE01675E7F4FC8010E94521D809111059F
:104EC00090911205892B41F0698DE0910D05F091CB
:104ED0000E0580818111C4C0698DCE0101960E94AA
:104EE000CE1BBE016F5F7F4F8DE095E00E94AB1A35
:104EF000CE0101960E94F61A0F5F1F4F0115B4E014
:104F00001B07B1F661E087E00E944A0661E086E097
:104F10000E944A0661E084E00E944A0660E085E063
:104F20000E944A0660E084E00E941C0661E087E07F
:104F30000E941C060E94C70FE0910903F0E0E253B3
:104F4000FC4FE491E09345058E010E5E1F4F0E94D9
:104F5000C70F1B8A1A8A1D8A1C8A1F8A1E8A42E072
:104F6000BE016F5F7F4F0E94EE31BE016F5F7F4FCA
:104F7000C8010E94C41BB8018DE595E00E94AB1AE0
:104F8000C8010E94F61A80916105909162054097D0
:104F9000A8F46EE871E0CE0101960E948A1C6DE5CE
:104FA00075E0CE0101960E94521BBC018DE595E093
:104FB0000E94731CCE0101960E94F61A22E4C22EB2
:104FC00021E0D22E34E4E32E34E0F32EB12CD601CE
:104FD000ED916D018E2F90E0209161053091620579
:104FE0008217930738F4E0915D05F0915E053097E4
:104FF00009F057C01092F202E2EFF2E0AA24A39463
:105000008081803309F0A12CC7010E94B5106A2D60
:10501000C7010E940010D7011596ED91FC913097C1
:1050200009F442C0882309F441C00995F70183853A
:1050300094850E94510F8430910509F4CCC008F08A
:10504000B1C08130910509F4C6C0029779F580910D
:10505000110361E081112AC08B2D0E945C1D26C0C6
:10506000CE0101960E94CE1B1B8A1A8A1D8A1C8AB9
:105070001F8A1E8A6DE075E0CE0142960E94731C65
:10508000BE016F5F7F4FCE0142960E94521BBC0152
:105090008DE095E00E94731CCE0142960E94F61AA4
:1050A00027CFE80FF91FAACF8111C0CFB394BDE07D
:1050B000EB0EF11CEFE0BE128ACF8091100381301D
:1050C00061F482E08093100383E080930F030E94D9
:1050D00011158AE895E00E940A190E94DE06C09028
:1050E0000B03D0900C03E0900D03F0900E036C19AD
:1050F0007D098E099F09683873418105910560F02B
:1051000080910A03813041F410920A0369E073E050
:1051100086EF93E00E941F1D80917B05909174059E
:1051200097FF68C00E94F30561E0892B09F460E0F5
:105130008FEF0E94D010F82E882309F48DC0809143
:105140007405282F2072A22E85FD72C080916E05F5
:1051500090916F050E94510F8032910509F4BFC2F2
:105160008034910509F464C0029709F075C08091FC
:105170001003811103C0F1E0F0931003809110033C
:105180008250833008F068C0109210038FEF809334
:1051900004036FE073E083EF93E00E94521D0E94CE
:1051A00011155AC088309105E9F0809709F07ECF3B
:1051B0008091110381117ACFD7018C9160E0813009
:1051C00009F44ACF62E0823009F446CF833009F017
:1051D0006DCF63E041CF60911103662309F466CF80
:1051E0006D5F3ACF80911103882309F45FCF0E944D
:1051F000220E5CCF0E94F3056C01809179050E941C
:10520000F3057C0180917A050E94F30561E0CD28C9
:1052100009F460E021E030E0892B11F430E020E077
:10522000220F331F81E0EF2809F480E0822B81CF29
:10523000E0900F03E11019C10E94D603882319F0F2
:1052400080E10E942F0E0E94E403882319F080E27F
:105250000E942F0E0E94400E0E94DE06C090FB02AC
:10526000D090FC02E090FD02F090FE026C197D09E6
:105270008E099F09683E73408105910508F4DAC0E4
:10528000809110038111D6C00E94DE066093FB025C
:105290007093FC028093FD029093FE020E94DA114B
:1052A000F22EE32ED42E29833A834B835C836D83C5
:1052B0007E838F8398876BE871E0C8010E948A1C07
:1052C00068E070E0C8010E94FE1AE9E0ED1520F0E8
:1052D00060E3C8010E94901B6D2DC8010E94651BF0
:1052E0006AE3C8010E94901BF9E0FE1520F060E31C
:1052F000C8010E94901B6E2DC8010E94651B6AE3C5
:10530000C8010E94901B29E02F1520F060E3C8011E
:105310000E94901B6F2DC8010E94651B1A82198282
:105320001C821B821E821D82B801CE0101960E9442
:10533000731C41E050E06DEC71E0CE0101960E94DB
:10534000261B811104C0CE0101960E94E41A6AE076
:1053500070E0CE0101960E94801ACE0101960E9453
:10536000F61AC8010E94F61A41E070E060E08CE194
:1053700090E00E9413150E94DA117B0129833A8381
:105380004B835C836D83FE828F8398876BE871E02B
:10539000CE0149960E948A1C6AE070E0CE014996CF
:1053A0000E94FE1A59E05E1528F060E3CE0149968E
:1053B0000E94901B6E2DCE0149960E94651B6EE2E5
:1053C000CE0149960E94901B89E08F1528F060E37A
:1053D000CE0149960E94901B6F2DCE0149960E94E6
:1053E000651B6EE2CE0149960E94901B4AE0B8010F
:1053F0008F8198850E94EE31F80101900020E9F735
:105400003197AF01401B510BB801CE0149960E9464
:10541000261B6CE070E0CE0149960E94801ACE01F6
:1054200049960E94F61A41E061E170E081E190E066
:105430000E94131587E993E00E94EC08892B09F478
:1054400016C46BE871E0CE0101960E948A1C0E948E
:10545000960897FDEEC38A30910509F4EAC3682FD8
:10546000CE0101960E94901BF2CF51E0E5122EC0B2
:105470000E94DE0660930B0370930C0380930D0370
:1054800090930E03E0920A03F09009030E94E40354
:10549000882339F084E08F1520F48BEF8F0D8093F3
:1054A00009030E94D603882341F09AEF9F1528F044
:1054B000809109038B5F80930903E0910903F0E079
:1054C000E253FC4FE491E0934505C6CEA2E0EA1218
:1054D00015C00E94D603882329F069ED81E294E08B
:1054E0000E947A0E0E94E403882329F06AED81E28B
:1054F00094E00E947A0E0E94220EAECEB3E0EB1230
:10550000ABCE80911003823031F50E94E4038823F2
:1055100039F080918D058823C1F0815080938D05ED
:105520000E94D603882361F080918D0520918C051F
:105530002150330B821713065CF48F5F80938D0527
:105540008AE895E00E940A1987CE80918C05E5CF04
:1055500010928D05F5CF833021F50E94E403882356
:1055600039F080917F058823B1F0815080937F05C9
:105570000E94D603882361F080917F0520917E05EB
:105580002150330B821713064CF48F5F80937F05F5
:105590008CE795E0D7CF80917E05E7CF10927F050D
:1055A000F7CF843009F058CE0E94E403209107031E
:1055B00030910803882331F02150310930930803DA
:1055C000209307030E94D60320910703309108031C
:1055D000882331F02F5F3F4F309308032093070358
:1055E00080910503909106032091070330910803F1
:1055F0002817390724F0109208031092070320910E
:1056000007033091080337FF05C001979093080303
:10561000809307036BE871E0CE0149960E948A1CD3
:105620006091070370910803CE0101960E94FB1B55
:105630008D819E81029748F0FF24F39480910703A7
:1056400090910803892B09F0F12CCE0101960E945C
:10565000F61A6091070370910803CE010196FF20AE
:10566000A1F10E94FB1B6EE871E0C8010E948A1C38
:10567000BE016F5F7F4FC8010E94521BBC01CE016B
:1056800049960E94731CC8010E94F61ACE01019629
:105690000E94F61A809107039091080368E070E079
:1056A000893E934014F464E070E0CE0149960E9474
:1056B000801A42E063E270E090E080E00E941315FF
:1056C000CE0149960E94F61AC7CD0E94FB1BBE016F
:1056D0006F5F7F4FCE0149960E94AB1AD7CFF090F3
:1056E000630580910F03811110C021E081E0F21663
:1056F00041F052E088E0F51621F083E0F81203C093
:1057000084E00E942F0E0E94400E91E0F912A4CD79
:10571000809110038330A1F480917F058093110361
:1057200061E173E084EF93E00E941F1D6FE073E07E
:1057300083EF93E00E94521D109210030E941115F6
:1057400080911003843009F0FBC1809104038530FF
:1057500009F01AC16090070370900803F0900303EA
:10576000E0900203B0900103D0900003C090FF02CC
:105770001F140CF031C5ACE0AF1514F48CE0F82E1A
:10578000E7FC42C02E2D0E2C000C330BAA24AA9449
:10579000AF0CB6E0BA1540F0E1E08CE1AE1639F09E
:1057A000A0FE04C08EE103C0A0FEFCCF8FE18217F3
:1057B00013060CF4E82EFBE3FC1544F5BBE3CB2EFB
:1057C0002BE32D153CF5ABE3DA2EAB2C57E15B1543
:1057D0002CF5F7E1AF2EA30180ED681687E078067F
:1057E00010F0405D57408E2D0E2C000C990B20E0E0
:1057F00031E0320F3F15F8F42730A0F42130B1F03A
:1058000020FF12C02EE113C0E12CD5CFC7FED8CFA8
:10581000C12CD6CFD7FED9CFD12CD7CFB7FEDBCF77
:10582000A12CD9CF20FFEECF2FE101C02CE1820FB8
:10583000911D232FDDCFA2E0AF1530F49A01237024
:105840003327232B09F401969A012D5F3F4F36959C
:10585000279536952795EDE6F1E04E9FB0014F9FD5
:10586000700D5E9F700D11246C5F7F4F260F371FE8
:10587000820F931F67E070E00E9472344C01FFEFCB
:105880008F1A9F0A20ED621A27E0720A8091130591
:1058900051E050931D0380933E0310923404109204
:1058A000330490E080E00E94A50CEAE05E2E8C2D8F
:1058B000652D0E946434A0E18A02B0011124692B95
:1058C00087E394E00E94760C8D2D652D0E94643450
:1058D000B0E18B02B0011124692B87E394E00E94B0
:1058E000760CE3E1EB150CF04DC18A2D64E10E94CA
:1058F0006434892F8062082E000C990B0E94A50C3D
:10590000682D87E394E00E94760C6AE0D62E8E2DF7
:105910006D2D0E94643420E18202B0011124692BB4
:1059200087E394E00E94760C8F2D6D2D0E946434E5
:1059300050E18502B0011124692B87E394E00E94B5
:10594000760C862D6D2D0E946434A0E18A02B00190
:105950001124692B87E394E00E94760C81E00E9479
:105960002F0B8FEF8093040362E370E080E090E000
:105970000E94AB06109210036FE073E083EF93E098
:105980000E94521D0E94111580910403843041F53C
:1059900085E080930403809107038093030386E0EE
:1059A0000E949D12F82E60E971E0CE0101960E94DE
:1059B0008A1C8F2D82958F704F2D4F70BAE08B9F70
:1059C000400D112450E04053584FBE016F5F7F4F90
:1059D0008FE097E20E94271CCE0101960E94F61AE2
:1059E00080910403833041F584E080930403809127
:1059F00007038093020385E00E949D12F82E69E957
:105A000071E0CE0101960E948A1C8F2D82958F70C5
:105A1000EF2DEF70FE2EFAE08F9FF00C11244F2D2A
:105A200050E0BE016F5F7F4F8DE090E00E94271C29
:105A3000CE0101960E94F61A80910403823041F54E
:105A4000809107038093FF0283E08093040384E046
:105A50000E949D12F82E63EA71E0CE0101960E9429
:105A60008A1C8F2D82958F702F2D2F70F22E5AE069
:105A7000859FF00C11244F2D50E0BE016F5F7F4FCA
:105A800080E290E00E94271CCE0101960E94F61A47
:105A900080910403813041F58091070380930003D6
:105AA00082E08093040380E00E949D12F82E6BEA4E
:105AB00071E0CE0101960E948A1C8F2D82958F7015
:105AC0009F2D9F70F92EAAE08A9FF00C11244F2D74
:105AD00050E0BE016F5F7F4F8CE390E00E94271C77
