:100000000C9452010C947A010C947A010C947A01AC
:100010000C947A010C947A010C947A010C947A0174
:100020000C947A010C947A010C94EE120C945D13EA
:100030000C947A010C947A010C947A010C947A0154
:100040000C947A010C947A010C947A010C947A0144
:100050000C947A010C947A010C947A010C94A412F9
:100060000C947A010C947A010C947A010C947A0124
:100070000C947A010C947A010C947A010C947A0114
:100080000C947A010C947A010C947A010C947A0104
:100090000C947A010C947A010C947A010C947A01F4
:1000A0000C947A010C947A010C947A0100000000FF
:1000B0002300260029002C002F0000000002000968
:1000C0000F0000030401000C00000000000000000D
:1000D000000000000000000000080B000202020007
:1000E00000090400000102020000052400100105BF
:1000F00024010101042402060524060001070581EC
:100100000310004009040100020A00000007050274
:1001100002400000070583024000000403090412A6
:10012000010002EF02014041233780000101020378
:100130000141726475696E6F204C4C4300417264DA
:1001400075696E6F204D6963726F000000000025B5
:100150000028002B002E00310000000000240027A2
:10016000002A002D003000040404040403040502E6
:100170000202020403020202020606060606060442
:10018000040202020404040802011040804010200E
:10019000408040800802040180402010020110804D
:1001A0001020404020050C0901A101850115002502
:1001B00001750195180A23020A8A011A24022A27C6
:1001C000020A21020A2A0209CD09B709B609B509AE
:1001D000E909EA09E20A83010A01020A02020A079E
:1001E000020A1A020A79021A1B022A1D028102C09F
:1001F00000000000000000002A2B28000000000082
:1002000000000000000000000000000000000000EE
:100210002C9EB4A0A1A2A434A6A7A5AE362D373833
:10022000271E1F20212223242526B333B62EB7B83C
:100230009F8485868788898A8B8C8D8E8F909192FA
:10024000939495969798999A9B9C9D2F3130A3AD46
:10025000350405060708090A0B0C0D0E0F101112C4
:10026000131415161718191A1B1C1DAFB1B0B500C1
:1002700005010906A1018502050719E029E7150016
:100280002501750195088102950175088103950680
:100290007508150025730507190029738100C00032
:1002A0008F154E3111241FBECFEFDAE0DEBFCDBF78
:1002B00023E0A8EBB1E001C01D92AD3AB207E1F72F
:1002C00011E0A0E0B1E0ECE7F9E602C005900D9284
:1002D000A83BB107D9F711E0C1E5D1E004C02197EF
:1002E000FE010E947432C035D107C9F70E949916E9
:1002F0000C94B1340C9400004091190150911A01F2
:1003000025E038E0429FC001439F900D529F900D21
:100310001124875E994C90931A0180931901890FDB
:1003200020E4829FC0011124892F089520E0DC0180
:1003300060FF03C001C02D932D936250E0F7704021
:10034000D0F70895FC0180910902882311F13FB78D
:10035000F89482E08093E9002091F200822F90E0EF
:100360001816190614F481E090E0882339F0289AD1
:1003700044E6409308024091F1004083222339F083
:100380002091F200211103C02BE62093E8003FBF2B
:1003900008958FEF9FEF08953FB7F894809104027E
:1003A00090910502A0910602B091070226B5A89B84
:1003B00005C02F3F19F00196A11DB11D3FBFBA2FF7
:1003C000A92F982F8827BC01CD01620F711D811DB7
:1003D000911D42E0660F771F881F991F4A95D1F73C
:1003E00008958F929F92AF92BF92CF92DF92EF9239
:1003F000FF924B015C010E94CC016B017C010E94C9
:10040000CC016C197D098E099F09683E73408105F6
:100410009105A8F321E0821A9108A108B10888EE9D
:10042000C80E83E0D81EE11CF11C81149104A104C4
:10043000B10429F7FF90EF90DF90CF90BF90AF907D
:100440009F908F9008952FB7F8946091000270915B
:10045000010280910202909103022FBF0895CF9272
:10046000DF92EF92FF92CF93C82F0E9423026B017D
:100470007C0120E03C2FA8E1B1E00E941F329B01EB
:10048000AC01C701B6010E942E32AC016627772766
:10049000CA0133E0969587953A95E1F797709A01EE
:1004A00022273074232B31F02FEF37E0F901E81BBE
:1004B000F90BCF01E92FEE0FEE0FF0E0ED5AFE4FF2
:1004C0002081318186959281899F200D311D1124D3
:1004D00057FF03C0319521953109305849E050E06C
:1004E000249FB001359FC001E0E0349F700D811D55
:1004F0009E1F259F700D811D9E1F1124620F731F6B
:100500008E1F9E1FCF91FF90EF90DF90CF900895A8
:100510004F925F926F927F929F92AF92BF92CF92D3
:10052000DF92EF92FF920F931F93CF93DF9300D050
:100530001F92CDB7DEB7D090C8028091CB029091C8
:10054000CC02A091CD02B091CE02892B8A2B8B2BAD
:10055000D9F00E94CC010091310210913202209119
:10056000330230913402601B710B820B930B0091AC
:10057000CB021091CC022091CD023091CE026017B7
:10058000710782079307C8F20E94CC016093310281
:10059000709332028093330290933402E091D3023D
:1005A000F091D402309759F04091CF025091D0028F
:1005B0006091D1027091D2028D2D0995D82EE090D4
:1005C0002F02F09030024D2C512C712C612CE11433
:1005D000F10409F459C0D7011C96CC901C97809166
:1005E000C9029091CA028436910510F41C961C929F
:1005F000D701ED91FC91A280B38019821A821B82EF
:10060000DD2079F1F701369610E000E021912223F8
:1006100019F19280992001F130E050E040E02F5F25
:100620003F4F4F4F5F4FC301B2010E942E329B01DB
:10063000AC01892D90E0B0E0A0E0BC01CD016F5F7E
:100640007F4F8F4F9F4F0E942E32A1E0B0E0AC0F42
:10065000BD1FA00FB11F8C930F5F1F4F03301105FB
:10066000A9F609811A812B81F7014585568562819A
:100670007381C701F5010995D7011C96CC921C978F
:100680001496ED90FC90A3CF80912D0290912E02B4
:100690008C010F5F1F4F10932E0200932D0249977C
:1006A000B4F10E942302C0902902D0902A02E09067
:1006B0002B02F0902C029B01AC012C193D094E0934
:1006C0005F0921F421E030E040E050E088EE93E063
:1006D000089FB001099F700D189F700D1124072EFF
:1006E000000C880B990B0E9452323093CA0220935F
:1006F000C90210922E0210922D020E9423026093D2
:10070000290270932A0280932B0290932C020F905F
:100710000F900F90DF91CF911F910F91FF90EF906D
:10072000DF90CF90BF90AF909F907F906F905F9041
:100730004F90089580E991E0089508954091C8018F
:100740005091C9012091C6013091C701421753074A
:10075000B4F49091E8009570E1F39091E80092FD77
:1007600019C08093F1008091C8019091C901019650
:100770008F739927892B19F48EEF8093E80080916D
:10078000C8019091C90101969093C9018093C80155
:1007900081E0089580E00895EF92FF920F931F93F8
:1007A000CF93DF93F82E192FE62E042F81E0860FCA
:1007B000880F0E949E0383E00E949E03CF2DD12FBD
:1007C000EC0EFD2EF11CCE15DF05B9F007FF13C0AE
:1007D000FE0184910E949E03182F80E00E949E03D8
:1007E000812321968111EFCFDF91CF911F910F913E
:1007F000FF90EF9008958881EDCF81E0F5CFDF92F3
:10080000EF92FF920F931F93CF93DF93D82E8A011D
:10081000EB017B01E40EF51ECE15DF0559F0D7FE86
:1008200012C0FE0184910E949E0321968111F4CF93
:100830000FEF1FEFC801DF91CF911F910F91FF9034
:10084000EF90DF9008958881EECF2FB7F8948770EE
:100850008093E9009091E800892F807295FF04C091
:100860009091F20080E4891B2FBF08957F928F92B0
:100870009F92AF92BF92CF92DF92EF92FF920F932F
:100880001F93CF93DF93C82E8B017A0180910902C9
:10089000811110C08FEF9FEFDF91CF911F910F91CA
:1008A000FF90EF90DF90CF90BF90AF909F908F9090
:1008B0007F9008958091CC0180FF05C08091E00079
:1008C00082608093E000CE2DDF2DD12C8AEFB82EF0
:1008D0008C2D8770982E8C2D8072882E8C2D807494
:1008E000782E9AE3A92E209719F4DD2009F452C03E
:1008F0008C2D0E94250481110AC0BA94BB2051F2AC
:1009000061E070E080E090E00E94F101ECCF8C1794
:100910001D0611F00CF08C2F9FB7F8949092E9000F
:100920002091E80025FD02C09FBFDDCF282F30E0D9
:10093000C21BD30B882029F08150A0F01092F10047
:10094000FBCFF801C7FC0AC0815050F041914093A1
:10095000F100FACF44914093F10031968150D0F7E5
:10096000020F131FDD2021F0A092E800D12CDCCF74
:100970008091E80085FD07C0A092E800DD24D394B3
:10098000209791F2F3CF209779F6772069F2A09221
:10099000E800CACF5D9A84E68093CB01C7017CCF83
:1009A000615030F02091F100FC0120830196F8CFD6
:1009B000289A84E68093080208958091BE018111EF
:1009C0000DC082E08093BA0184E08093BB01109255
:1009D000BD011092BC0181E08093BE018AEB91E0E1
:1009E0000895CF93DF9381E08093970280939802DC
:1009F0002DE932E030939A022093990210929C02E2
:100A000010929B022BE431E03093940220939302E6
:100A100010929F0210929E021092A1021092A002C8
:100A20008093A2028093A30281EC80939D020E9496
:100A3000DD04FC01818190919702482F490F5527D1
:100A4000551F483051059CF5A281B381109709F5D7
:100A500023E932E03383228320812093950280931F
:100A6000960280919802820F808320919902A22F92
:100A7000B0919A028A2F821B8917C8F481813D9117
:100A8000C82FD0E0CE5EDE4F38838F5F8183F2CFF8
:100A9000D90118962D913C91199721153105C1F76F
:100AA00023E932E019963C932E931897D5CFDF9126
:100AB000CF9108950F931F93CF93DF931F92CDB7DC
:100AC000DEB78C018091A402811105C00E94F1045F
:100AD00081E08093A40282E0898341E050E0BE017E
:100AE0006F5F7F4F809196020E94360497FD08C089
:100AF0008091960248E050E0B80180640E9436047C
:100B00000F90DF91CF911F910F9108950F931F9335
:100B1000CF93DF931F92CDB7DEB782E0898342E4A3
:100B200050E069ED70E080E80E94FF030E94DD0460
:100B3000DC0112960D911C910115110589F0D80167
:100B4000ED91FC910280F381E02DBE016F5F7F4F3C
:100B5000C801099597FD04C0F80100851185ECCF07
:100B600089810F90DF91CF911F910F910895CF93BD
:100B7000DF93EC0180910B01882331F083E00E9428
:100B800036041816190634F081E090E09B838A83BE
:100B900080E090E0DF91CF910895CF93DF931F9293
:100BA000CDB7DEB76983DC01ED91FC910280F38162
:100BB000E02D41E050E0BE016F5F7F4F09950F903F
:100BC000DF91CF91089583E08093E9008091F20056
:100BD000882319F08AE38093E800089583E00E9457
:100BE000250490E00895CF93DF931F92CDB7DEB731
:100BF000FC018485958597FD08C02FEF3FEF358771
:100C000024870F90DF91CF910895CE0101960E9425
:100C1000A201019719F4898190E0F3CF8FEF9FEF44
:100C2000F0CF0F931F930E94230260933D027093B5
:100C30003E0280933F029093400285E392E00E943F
:100C4000F30597FF1DC00E94230200913D02109101
:100C50003E0220913F0230914002601B710B820BDB
:100C6000930B0091390210913A0220913B0230918E
:100C70003C026017710782079307F8F28FEF9FEF2E
:100C80001F910F9108950F931F93CF93DF931F929E
:100C9000CDB7DEB78C01FC018485958597FF0BC02D
:100CA000CE0101960E94A201019771F4898190E022
:100CB000F80195878487F801848595850F90DF91E9
:100CC000CF911F910F9108958FEF9FEFF1CFFC010E
:100CD0008485958597FD0BC09FB7F89482E080933B
:100CE000E9008091F2009FBF90E0019608959FB7C0
:100CF000F89482E08093E9008091F2009FBF90E039
:100D00000895DC01FB0112962C9112978481958144
:100D10002817190641F491818081813A31F49D7F31
:100D200081E0913009F080E008958132E1F79B3055
:100D300029F482811F968C9381E008959A3099F767
:100D4000828150968C93F8CFDC01FB0188E480838C
:100D500089E4818384E482831D969C911D979F7012
:100D60009F5B93831D968D919C9124E0969587952A
:100D70002A95E1F78F708F5B848385E00895EF9269
:100D8000FF920F931F93CF93DF93FB0120812138B4
:100D900071F52381223259F5DC0112964C912481A0
:100DA00035814217130619F5EC010B851C85F12CD2
:100DB000E12C0115110589F0F8014481558162810A
:100DC000738180E80E94FF038F3F980749F0E80E87
:100DD000F91ED8010D911C91ECCF81E08F87C701DE
:100DE000DF91CF911F910F91FF90EF90089590E0C8
:100DF00080E0F6CFCF93DF93CDB7DEB769970FB61C
:100E0000F894DEBF0FBECDBFFC01DB018C918F5F7C
:100E10008C939E012D5F3F4F8DE0D9011D928A95E5
:100E2000E9F729E0298384E08A8391E09D8383E0C8
:100E30008E832A8721E22B879C879D879F8722E2CA
:100E4000288B27E02B8B25E02C8B8E8B20E430E049
:100E5000388F2F8B998F82818B8395858685998B8F
:100E60008A8B838180688D8B49E150E0BE016F5F82
:100E70007F4F80E00E94FF0369960FB6F894DEBFB3
:100E80000FBECDBFDF91CF910895CF92DF92EF9249
:100E9000FF920F931F93CF93DF936C01EB017B01C4
:100EA000E40EF51E10E000E0CE15DF0581F069913B
:100EB0006D30D1F3D601ED91FC910190F081E02DE0
:100EC000C6010995892B19F00F5F1F4FEDCFC8019F
:100ED000DF91CF911F910F91FF90EF90DF90CF9016
:100EE0000895DC01683888F1685816968C91169739
:100EF000861721F117968C9117978617F9F0189697
:100F00008C9118978617D1F019968C91199786179E
:100F1000A9F01A968C911A97861781F01B968C91DE
:100F20001B97861759F0FD01369690E080E02191DD
:100F300021114FC08A0F9B1FFC016683CD010496CF
:100F40000E945A0581E090E00895862F90E067FFA7
:100F500012C0FC01E058F10921E030E001C0220F8D
:100F6000EA95EAF714968C911497822B14968C9339
:100F7000149760E0BACF1C96ED91FC911D97E80F95
:100F8000F91F6491611109C081E090E013969C9370
:100F90008E93129790E080E00895862F807C803CAD
:100FA00069F414968C911497806414968C9314971A
:100FB0006F73623309F099CF64E697CF67FFF9CF7B
:100FC00014968C911497826014968C9314976F7773
:100FD000F0CF01968630910509F0A9CFD5CFEF92D9
:100FE000FF921F93CF93DF93EC01162F0E9471079E
:100FF0007C01E8E7E10F183890F4812F90E017FFAB
:101000002AC0FC01E058F10981E090E001C0880F9E
:10101000EA95EAF780959C8189238C83E0E0DE01E4
:1010200086E0EE2341F016969C911697E91303C0D3
:1010300016961C921697815011968111F2CFCE010F
:1010400004960E945A05C7019927DF91CF911F91FD
:10105000FF90EF900895EC85FD85E80FF91FE4916E
:10106000EE2389F38E2F807C803C41F48C818F7B32
:101070008C83EF73E23399F6E4E6D1CFE7FFFACF42
:101080008C818D7F8C83EF77F5CF90E080E00895A1
:10109000CF92DF92EF92FF920F931F93CF93DF9344
:1010A000EC01898182FD4FC085FD4DC02A8130E071
:1010B000F901E654FF4F8491F901EA57FE4F9491EC
:1010C00029593E4FF9012491222309F4C5C08823F0
:1010D000E9F081508F30D0F4E82FF0E0EE58F74F70
:1010E0000C94743207090B098108FF08030986086C
:1010F000860886080E09140918091C0922098608A1
:101100002609809180008F7780938000E22FF0E0A5
:10111000EE0FFF1FE455FF4FA591B491EC919E2374
:1011200031E020E009F430E0832F922F398131FB48
:10113000222720F933FB332730F92327F1E08F27CB
:10114000817082278A8B0E942302AB01BC019A899D
:101150002B898881992309F49CC021119AC080FDB4
:101160007EC0816088834E875F87688B798B8B898F
:10117000882319F1992309F18D819E81B0E0A0E0C7
:101180000E851F85288939896A017B01C01AD10A19
:10119000E20AF30A97018601081719072A073B0795
:1011A00060F0888181FD09C09B859D878A648F7767
:1011B00088834E875F87688B798B8E859F85A8890A
:1011C000B989481B590B6A0B7B0B0F81188530E0DE
:1011D00020E0401751076207730740F08B85882392
:1011E00029F08C871B86888184608883DF91CF916A
:1011F0001F910F91FF90EF90DF90CF900895809115
:1012000080008F7D81CF80918000877F7DCF84B5E6
:101210008F7784BD7BCF84B58F7DFBCF809190008D
:101220008F778093900072CF809190008F7DF9CF5F
:1012300080919000877FF5CF8091C0008F77809359
:10124000C00064CF8091C0008F7DF9CF8091C20033
:10125000877F8093C2005ACF90E080E067CF0E85F1
:101260001F85288939896A017B01C01AD10AE20ADF
:10127000F30A0B811C8130E020E0C016D106E206A3
:10128000F30608F49ACF21E02B8B80628068888374
:101290006ECF8E7F888391116ACF222309F48DCF80
:1012A0001B8A81FD03C08B858F5F8B8788818D7F33
:1012B000806188834E875F87688B798B86FF04C047
:1012C0001C861B868F7B8883888187FF76CF8F77EC
:1012D00088838981816089834ACFCF93DF93EC0132
:1012E000898184FF03C0CE010E944808988192FB47
:1012F000882780F992FF06C02C85233031F49B7F2C
:1013000098831C86DF91CF91089580E0FBCFCF9327
:10131000DF93EC01898184FF03C0CE010E9448085D
:10132000988192FB882780F992FF06C02C85223095
:1013300031F49B7F98831C86DF91CF91089580E0E4
:10134000FBCFCF93DF93EC01898184FF03C0CE01F3
:101350000E944808988192FB882780F992FF06C076
:101360002C85213031F41C869B7F9883DF91CF91AF
:10137000089580E0FBCFCF93DF93EC01898184FF58
:1013800003C0CE010E944808988193FB882780F90A
:1013900093FF02C0977F9883DF91CF9108951F93A9
:1013A000DC01FB017C9111965C91119712961C91C6
:1013B000972F990F990F990F35E5292F239F020E2B
:1013C00020E0211D1124822F672F6074472F407267
:1013D00077FD66C0611152C0411105C0922F9095F2
:1013E000892F90E004C025E5280F90E08BEA5F3F4D
:1013F00009F422C0552309F474C0509530E05523F8
:1014000029F0559F312D112451113F5F432F4095F5
:10141000582F549F050E50E0511D852F249F020E1A
:1014200020E0211D592F549F050E50E0511D952F8E
:101430001124830F230F930F1F3FD9F030E01123A6
:1014400021F0119F312D09F03F5F332309F44DC086
:10145000482F439F040E40E0411D842F239F020E1E
:1014600020E0211D592F539F050E50E0511D952F4F
:1014700011248083218392831F91089541110BC011
:10148000392F2AEA329F030E30E0311D11249BEAE6
:10149000931B280FA5CF90E02095982F80E0A7CF31
:1014A000611112C041110CC0392F2AEA329F030E7C
:1014B00030E0311D11242BEA231B95E5930FEECF6D
:1014C000922F909520E093CF411106C025E5280F7B
:1014D0009BEA981B822FF6CF2AEA280F90E0932FE1
:1014E000F8CF9FEF2FEF8FEFA7CF90E020E080E0C5
:1014F000C0CF0F931F93CF93DF932091B9012F5F3C
:10150000322F37703093B90120FF2BC020E831FD16
:101510002064347009F02062205FFC01EC01239606
:1015200000E011E06485662329F070E0C8010E94A4
:101530003E326F5F6187322F369F030E30E0311DE0
:101540001124311110C01682662311F06150618799
:101550003196EC17FD0731F7DF91CF911F910F9175
:10156000089520E0D4CF31503683EECF4F925F9272
:101570007F928F929F92AF92BF92CF92DF92EF9223
:10158000FF920F931F93CF93DF932C01EB010E94E7
:10159000CC01F20127853089621B730B6A3071051B
:1015A000B0F3F8948A819B81181619060CF0CDC10E
:1015B000E881F98165B1862E689483F835B1377F6B
:1015C00035B9DA848F812D2D281B822F2F834F85EB
:1015D000042E000C550BAA81BB817D85FC84EE8412
:1015E0007F5FF394E3949E819884B984AB841181E6
:1015F000C12C6C2D0C2D2C2D2181112788942111AB
:10160000280F08F42FEF8195889470FD120F17951D
:10161000889471FD120F1795889472FD120F17951B
:10162000889473FD120F1795889474FD120F179507
:10163000889475FD120F1795889476FD120F1795F3
:10164000889477FD120F17958894622F7111612F7E
:101650008D0D162F002C85B800C000C017FF35B9BE
:1016600020816627889400C0002C35B92111290FEC
:1016700000C0002C85B800C000C016FF35B908F4C2
:101680002FEF9195889400C0002C35B9F0FC620FC3
:1016900000C0002C85B800C000C015FF35B96795A3
:1016A0008894F1FC620F00C0002C35B967958894CE
:1016B00000C0002C85B800C000C014FF35B9F2FC92
:1016C000620F6795889400C0002C35B9F3FC620F57
:1016D00000C0002C85B800C000C013FF35B9679565
:1016E0008894F4FC620F00C0002C35B9679588948B
:1016F00000C0002C85B800C000C012FF35B9F5FC51
:10170000620F6795889400C0002C35B9F6FC620F13
:1017100000C0002C85B800C000C011FF35B9679526
:101720008894F7FC620F00C0002C35B96795889447
:1017300000C0002C85B800C000C010FF35B9122FC2
:10174000F110162F9B0D00C0002C35B900C000C051
:10175000002C85B800C000C017FF35B9228166276C
:10176000889400C0002C35B92111290D00C0002C2F
:1017700085B800C000C016FF35B908F42FEFE40F9C
:10178000F51F00C0002C35B9E0FC620F00C0002C32
:1017900085B800C000C015FF35B967958894E1FC95
:1017A000620F00C0002C35B96795889400C0002CEA
:1017B00085B800C000C014FF35B9E2FC620F679520
:1017C000889400C0002C35B9E3FC620F00C0002CE7
:1017D00085B800C000C013FF35B967958894E4FC54
:1017E000620F00C0002C35B96795889400C0002CAA
:1017F00085B800C000C012FF35B9E5FC620F6795DF
:10180000889400C0002C35B9E6FC620F00C0002CA3
:1018100085B800C000C011FF35B967958894E7FC12
:10182000620F00C0002C35B96795889400C0002C69
:1018300085B800C000C010FF35B9122FE110162F77
:10184000919400C0002C35B99A0C00C000C085B836
:1018500000C000C017FF35B921816627889400C0F9
:10186000002C35B92111280F00C0002C85B800C00C
:1018700000C016FF35B908F42FEF8195889400C099
:10188000002C35B970FD620F00C0002C85B800C077
:1018900000C015FF35B96795889471FD620F00C0CF
:1018A000002C35B96795889400C0002C85B800C01D
:1018B00000C014FF35B972FD620F6795889400C0AF
:1018C000002C35B973FD620F00C0002C85B800C034
:1018D00000C013FF35B96795889474FD620F00C08E
:1018E000002C35B96795889400C0002C85B800C0DD
:1018F00000C012FF35B975FD620F6795889400C06E
:10190000002C35B976FD620F00C0002C85B800C0F0
:1019100000C011FF35B96795889477FD620F00C04C
:10192000002C35B96795889400C0002C85B800C09C
:1019300000C010FF35B9122F7111162F8D0D00C088
:10194000002C35B9119709F086CE4A815B8120EED3
:1019500031E0DA010E947A32DC01CB01F4E0B69585
:10196000A79597958795FA95D1F730E020E0B901D2
:10197000EAE94E9F040E611D5E9F600D711D1124EA
:10198000650F711D860F971FA11DB11D893E43E094
:101990009407A105B10508F434C0885E9340A109FD
:1019A000B10942E0B695A795979587954A95D1F7E5
:1019B00047E0849F080E211D949F200D311D1124A6
:1019C000290F311D6091B80170E0860F971F820FBB
:1019D000931F4091000250910102609102027091A8
:1019E0000302292F3327420F531F611D711D40939E
:1019F00000025093010260930202709303028093ED
:101A0000B80178940E94CC01F201708B6787DF9156
:101A1000CF911F910F91FF90EF90DF90CF90BF90EB
:101A2000AF909F908F907F905F904F90089581E04E
:101A300090E00895239A08956F927F928F92CF92AB
:101A4000DF92EF92FF920F931F93CF93DF93CDB767
:101A5000DEB762970FB6F894DEBF0FBECDBF6C0144
:101A60007A013801822EDC011C962C91CA0157FFA5
:101A700004C088279927841B950B7A8369839C83EC
:101A80008B839E838D836D867E868F86213049F57C
:101A9000CE0101960E94790A83E0888B1A8A198AFE
:101AA000F7FE02C08DEF888BD601ED91FC91068484
:101AB000F785E02DBE016F5F7F4FC60109956296E5
:101AC0000FB6F894DEBF0FBECDBFDF91CF911F914F
:101AD0000F91FF90EF90DF90CF908F907F906F905D
:101AE00008951C861B861A86198618861F82D4CFF5
:101AF000EF92FF920F931F93CF93DF93CDB7DEB793
:101B000062970FB6F894DEBF0FBECDBF7C01DC013B
:101B10001C968C917A8369835C834B835E834D83AF
:101B20000D871E872F878130F9F4CE0101960E9420
:101B3000790A188A1A8A198AD701ED91FC910684CC
:101B4000F785E02DBE016F5F7F4FC7010995629653
:101B50000FB6F894DEBF0FBECDBFDF91CF911F91BE
:101B60000F91FF90EF9008951C861B861A861986A8
:101B700018861F82DECF90E080E00895FC01858505
:101B8000968508950F931F93CF93DF9300D01F92F4
:101B9000CDB7DEB7AB0119821A821B82DC01ED9151
:101BA000FC910190F081E02D00E010E020E0BE010A
:101BB0006F5F7F4F09950F900F900F90DF91CF913E
:101BC0001F910F910895FC01DB013C912081230FAF
:101BD00008F42FEF208311963C9111972181230F58
:101BE00008F42FEF218312963C912281230F08F4F1
:101BF0002FEF22830895FC013081329F030E30E0E5
:101C0000311D3083FB013081329F030E30E0311DE6
:101C10003083FA013081329F030E30E0311D308372
:101C200011240895CF93DF93CAE0D2E0AE014E5F56
:101C30005F4FBE016F5F7F4F2DEFCE010E94FB0D06
:101C4000239682E0C832D80789F7DF91CF910895B3
:101C5000CF93DF93DC018CE390E014969C938E93FA
:101C6000139784EF91E016969C938E931597189690
:101C70009C938E93179780E991E01A969C938E938C
:101C800019971B961C921B971C961C921C971D96CD
:101C90001C921D971E961D921D921D921C9251978B
:101CA00052961C92529753961C92539712966C938D
:101CB000129711968C9111978F7D877F11968C9337
:101CC0001197062E000C770BFB01EA57FE4F84910B
:101CD00069597E4FFB0124912223C9F030E0220F85
:101CE000331FF901E75AFE4F45915491F901E55B25
:101CF000FE4FC591D4912FB7F894FA013081982FF7
:101D0000909593239083E8818E2B88832FBF119623
:101D10008C9111978B7E8D7F11968C93DF91CF9153
:101D20000895CF93C091280287EF93E00E94C731B6
:101D3000C81729F06C2F87EF93E00E94CF3188E21B
:101D400092E0CF910895909128029F5F9431A0F482
:101D500090932802909128029C3020F0811102C0BB
:101D600010922802909128029B3021F4811107C023
:101D7000109228020C94910E10922802EBCF84E16D
:101D800080932802F7CFFF920F931F93CF93DF9397
:101D9000EC018B01FB01F0800E94C731F81621F0A5
:101DA0006F2DCE010E94CF31F801F1802196CE0136
:101DB0000E94C731F81621F06F2DCE010E94CF315D
:101DC000C801DF91CF911F910F91FF900895EF927D
:101DD000FF920F931F93CF93DF9322E330E06130A4
:101DE000710561F024E630E06230710539F026E9D2
:101DF00030E06330710511F030E020E065E0689F6D
:101E0000E001699FD00D11248A01F12CE12CC20F51
:101E1000D31FB801CE018E0D9F1D0E94C30E8FEF00
:101E2000E81AF80A0E5F1F4F85E0E816F10489F7FB
:101E3000DF91CF911F910F91FF90EF900895CF9375
:101E4000DF93EB010E94C7318883CE01DF91CF91F0
:101E50000895AF92BF92CF92DF92EF92FF920F93CD
:101E60001F93CF93DF9300D000D01F92CDB7DEB782
:101E70009091F9019923C1F07A01162F082F6CEF88
:101E800071E085EF93E00E941F0F8091FC018013A9
:101E900023C01230D9F480912802843129F084E1E2
:101EA000809328020E94910E1092F9010F900F90DA
:101EB0000F900F900F90DF91CF911F910F91FF9096
:101EC000EF90DF90CF90BF90AF900895113061F701
:101ED00080E00E94A30EE8CF6E0186E0C80ED11C00
:101EE0008E010F5F1F4FE01AF10A5801B801C701B8
:101EF000800F911F0E941F0F0F5F1F4FF501608120
:101F00008AEB92E00E9471070C151D0571F7109283
:101F1000C0021092C1021092C2021092C30210922B
:101F2000C4021092C5021092BE028EEB92E00E9493
:101F30005A05BACFFC0101900020E9F73197AF01B3
:101F4000481B590BBC0185E392E00C94B705CF9375
:101F5000DF93FC01448155816081718185E392E0CA
:101F60000E94B705EC0180E991E00E949A0F8C0F66
:101F70009D1FDF91CF9108958F929F92AF92BF9254
:101F80000F931F93CF93DF93CDB7DEB7A1970FB613
:101F9000F894DEBF0FBECDBF19A2423008F44AE06C
:101FA0008E010F5D1F4F842E912CB12CA12CA50109
:101FB00094010E945232E62FB901CA01EA30F4F4CA
:101FC000E05DD801EE938D01232B242B252B79F78F
:101FD00090E080E0109719F0CD010E949A0FA19631
:101FE0000FB6F894DEBF0FBECDBFDF91CF911F912A
:101FF0000F91BF90AF909F908F900895E95CE1CFD3
:10200000CF93DF932091D9023091DA02232B89F00C
:10201000FC01C091D502D091D60260817181CE01C0
:102020000E949734009729F08C1B9D0BDF91CF9174
:1020300008958FEF9FEFFACFCF93DF93FC012481B8
:1020400035816217730788F49B01C081D18164E2F6
:1020500070E0CE01820F931F0E948534009729F013
:102060008C1B9D0BDF91CF9108958FEF9FEFFACFDF
:102070000E947734FC0180819181009711F00C94CB
:10208000563160E070E0CB0108950F931F93CF931A
:10209000DF938C01EB01FC01808191810097E1F0DD
:1020A0006881798161157105A9F0428153812C8184
:1020B0003D814217530770F00E9490348C819D81BE
:1020C000F801958384831D821C82DF91CF911F913B
:1020D0000F9108950E94313388819981F80191838D
:1020E00080838A819B81938382838C819D81958368
:1020F0008483198218821B821A82E5CFCF93DF93E3
:10210000EC0188819981009711F00E943133198286
:1021100018821D821C821B821A82DF91CF91089542
:10212000FC0180819181009711F00C943133089566
:102130000F931F93CF93DF93EC01888199810097D0
:1021400059F02A813B812617370730F081E0DF9173
:10215000CF911F910F9108958B016F5F7F4F0E9468
:10216000BA33009759F0998388831B830A832C81A3
:102170003D81232B59F7FC011082E8CF80E0E7CFA7
:10218000EF92FF920F931F93CF93DF936115710529
:1021900041F480E0DF91CF911F910F91FF90EF907C
:1021A000089541155105B1F07B01EC010C811D81B1
:1021B000040F151FB8010E949810882351F328813D
:1021C00039818C819D81B701820F931F0E949034C9
:1021D0001D830C8381E0DECFEF92FF920F931F935C
:1021E000CF93DF9300D000D0CDB7DEB77C01862F30
:1021F0004AE08E010F5F1F4FB80190E00E947D31D1
:10220000F80101900020E9F73197AF01401B510B15
:10221000B801C7010E94C0100F900F900F900F904F
:10222000DF91CF911F910F91FF90EF900895EF9262
:10223000FF920F931F93CF93DF93EC017B018A01F1
:10224000BA010E94981081110BC0CE010E947E102D
:10225000CE01DF91CF911F910F91FF90EF900895E4
:102260001D830C83B701888199810E949034F0CF3F
:10227000EF92FF920F931F93CF93DF93CDB7DEB70B
:1022800029970FB6F894DEBF0FBECDBF8C01862F05
:10229000F8011182108213821282158214824AE0A0
:1022A0009E012F5F3F4F7901B90190E00E949D315F
:1022B000F70101900020E9F73197AF014E195F094E
:1022C000B701C8010E94171129960FB6F894DEBF16
:1022D0000FBECDBFDF91CF911F910F91FF90EF9077
:1022E0000895CF93DF93EC01FB018617970749F020
:1022F000608171816115710541F0448155810E94B1
:102300001711CE01DF91CF9108950E947E10F9CF71
:10231000FC01118210821382128215821482FB0149
:1023200001900020E9F73197AF01461B570B0C9441
:102330001711AF92BF92CF92DF92EF92FF920F935D
:102340001F93CF93DF937C016B015A0189012417FE
:10235000350720F48B2D5901042F182F62E971E005
:10236000C7010E948811D6011496CD91DC91AC165C
:10237000BD0620F50C171D0708F4E801D601ED9104
:10238000FC911197EC0FFD1F108110826D917C91D3
:102390006A0D7B1D61157105E9F0FB0101900020BC
:1023A000E9F73197AF01461B570BC7010E94171180
:1023B000F60180819181C80FD91F1883C701DF9171
:1023C000CF911F910F91FF90EF90DF90CF90BF9032
:1023D000AF900895C7010E947E10EACFAF92BF92DE
:1023E000CF92DF92EF92FF920F931F93CF93DF93E1
:1023F000CDB7DEB761970FB6F894DEBF0FBECDBF85
:102400005C017B018E01035F1F4F85E0F801119293
:102410008A95E9F762E971E0CE0107960E9488117A
:1024200082E390E0F1E0EF16F10479F082E0E81643
:10243000F10449F086E990E0E3E0EE16F10429F0BA
:1024400090E080E002C084E690E025E02A9D6001F3
:102450002B9DD00C1124F12CE12CC80ED91EB801F3
:10246000C6018E0D9F1D0E941F0FF4E0EF16F104B0
:1024700009F456C0F801B0801A8219821C821B82AE
:102480001E821D82BE01695F7F4FCE0101960E94B0
:1024900071116B2DCE0101960E94EC10811104C0C8
:1024A000CE0101960E947E1041E050E063E971E0A8
:1024B000CE0101960E94C010811104C0CE01019688
:1024C0000E947E10BE016F5F7F4FCE0107960E9473
:1024D0007111CE0101960E949010FFEFEF1AFF0AD2
:1024E0000F5F1F4F85E0E816F10409F0B8CFCE0169
:1024F00007960E94A70FCE0107960E949010619642
:102500000FB6F894DEBF0FBECDBFDF91CF911F9104
:102510000F91FF90EF90DF90CF90BF90AF90089514
:10252000B9881A8219821C821B821E821D82BE01FA
:10253000695F7F4FCE0101960E9471116B2DCE0114
:1025400001960E94EC10B8CF1F920F920FB60F9217
:1025500011242F933F938F939F93AF93BF938091B9
:10256000000290910102A0910202B0910302309109
:10257000FF0123E0230F2D3758F50196A11DB11D52
:102580002093FF018093000290930102A093020226
:10259000B09303028091040290910502A09106027B
:1025A000B09107020196A11DB11D80930402909382
:1025B0000502A0930602B0930702BF91AF919F91CD
:1025C0008F913F912F910F900FBE0F901F901895F4
:1025D00026E8230F0296A11DB11DD2CF1F920F92A4
:1025E0000FB60F9211248F939F938091E1009091E9
:1025F000E100937F9093E10083FF0FC01092E90008
:1026000091E09093EB001092EC0092E39093ED0038
:102610001092090298E09093F00082FF22C093E0AC
:102620009093E9009091F200992319F09AE3909326
:10263000E8009091CB01992341F09091CB0191500A
:102640009093CB01911101C05D989091080299235C
:1026500041F090910802915090930802911101C0AD
:10266000289884FF18C08091E2008E7E816080935C
:10267000E2008091E1008F7E8093E1008091CC01A7
:102680008E7E80618093CC019F918F910F900FBEC1
:102690000F901F90189580FFF7CF8091E2008E7EFB
:1026A00080618093E2008091E1008E7E8093E10062
:1026B0008091CC018E7E8160E5CF1F920F920FB684
:1026C0000F921124CF92DF92EF92FF920F931F93FC
:1026D0002F933F934F935F936F937F938F939F932A
:1026E000AF93BF93EF93FF93CF93DF93CDB7DEB755
:1026F0006C97DEBFCDBF1092E9008091E80083FFA8
:1027000025C068E0CE0145960E94D00482EF8093F8
:10271000E8008D8987FF39C09091E80090FFFCCFD9
:10272000982F907609F034C19E894F89588D2F8952
:10273000F88C911131C0803861F58091CD01809382
:10274000F1001092F1008EEF8093E8006C960FB6C6
:10275000F894DEBF0FBECDBFDF91CF91FF91EF9117
:10276000BF91AF919F918F917F916F915F914F91A9
:102770003F912F911F910F91FF90EF90DF90CF909D
:102780000F900FBE0F901F9018959EEF9093E8004A
:10279000C7CF1092F100D5CF913059F48111D3CF2A
:1027A0004130510581F68091CD018D7F8093CD011F
:1027B000CACF933049F48111C6CF4130510519F683
:1027C0008091CD018260F2CF953041F48091E80094
:1027D00080FFFCCF20682093E300B5CF963009F04E
:1027E000A9C00B8D1C8D22E01092E9001092C90146
:1027F0001092C801F2122EC01092C7011092C601A9
:102800000E9486051F8299E09983FA8291E09E8357
:1028100090EA98879AEF99872091C8013091C90171
:10282000275F3F4F3C832B838D831092E9001092EA
:10283000C9011092C8011093C7010093C60149E075
:1028400050E0BE016F5F7F4F80E00E94FF030E9457
:10285000860579CF1093C7010093C6010E94DD045D
:10286000DC0112960D911C910115110509F451C15D
:10287000D801ED91FC910480F581E02DBE016B5EE5
:102880007F4FC8010995009709F03EC1F801008506
:102890001185EACFF3E0FF120EC08F89882309F477
:1028A00040C0823061F440E86DE08DE391E00E9429
:1028B000CC03811148CF81E28093EB0047CF813078
:1028C00029F440E86BE081E391E0F1CF833099F7A0
:1028D0000E94DD04DC011296ED90FC908E010F5FEA
:1028E0001F4F6801E114F10479F0D701ED91FC91DB
:1028F0000680F781E02DB801C7010995080F111D69
:10290000F701E084F184EECFD8011C92F60101902A
:102910000020E9F73197BF016C197D0940E0C6013D
:10292000C6CF6BE171E0FB01449150E080E80E946A
:10293000FF0309CF973009F4BECF983021F481E02E
:102940008093F10000CF993009F0FDCE837009F03B
:10295000B2CFE3E1F1E081E031E096E3219122237F
:1029600071F08093E9003093EB00DF0111972C9117
:102970002093EC009093ED008F5F873079F78EE71E
:102980008093EA001092EA008F8980930902DBCEDF
:102990008B8D9C8D1092E9001092C9011092C80194
:1029A0009093C7018093C601898D811192C08E8951
:1029B0009D89913A49F4813209F07DCF47E050E09A
:1029C00064E071E080E0B3CF913209F074CF8332DC
:1029D00069F48F89988DB0E0A0E080930001909316
:1029E0000101A0930201B0930301ADCE803269F4DE
:1029F0008091E80082FFFCCF67E084E091E00E94D4
:102A0000D0048BEF8093E8009ECE823209F09BCEFB
:102A10008F8980930B01EEEFFFE7859194918B3FB7
:102A20009C4D51F1E0E0F8E08091040190910501A6
:102A3000A0910601B0910701803B9440A105B1052A
:102A4000F1F480910B0180FD1AC0EE3F8AE0F80797
:102A500089F587E797E79183808380916000809371
:102A6000CA0188E19BE00FB6F894A89580936000B6
:102A70000FBE9093600067CEEEEFFAE0D5CF808175
:102A800091818737974709F05ECEA89580916000C5
:102A90008861809360008091CA0180936000EE3F5E
:102AA0002AE0F20789F08091FE0A9091FF0A918353
:102AB000808349CE808191818737980751F2909326
:102AC000FF0A8093FE0AC5CF1092FF0A1092FE0AF9
:102AD0003ACE0E94DD04DC0112960D911C91011585
:102AE000110509F4E8CED801ED91FC910190F08137
:102AF000E02DBE016B5E7F4FC8010995811123CE89
:102B0000F80100851185EBCF181619060CF41BCEC1
:102B1000D2CEF1E0FF12BECE6FE171E004CF109291
:102B200038021092370288EE93E0A0E0B0E0809384
:102B3000390290933A02A0933B02B0933C0286E79D
:102B400091E090933602809335028FEF9FEF909340
:102B500042028093410280918B02811113C0109236
:102B600086021092850285EA91E090938802809314
:102B700087028BE490E090938A028093890281E03F
:102B800080938B028091A402811105C00E94F10400
:102B900081E08093A402E0919E02F0919F02309721
:102BA00009F0B4C085E892E090939F0280939E0262
:102BB0008091A0029091A1022091890230918A0215
:102BC000820F931F9093A1028093A0021092BD02E6
:102BD0001092BC0288E891E09093BB028093BA0205
:102BE0008091B202811113C01092AD021092AC021A
:102BF00080E792E09093AF028093AE028FE290E084
:102C00009093B1028093B00281E08093B2028091F0
:102C1000A402811105C00E94F10481E08093A40206
:102C2000E0919E02F0919F02309709F079C08CEA02
:102C300092E090939F0280939E028091A0029091D7
:102C4000A1022091B0023091B102820F931F9093A4
:102C5000A1028093A00280EF91E09093C70280933D
:102C6000C6028FEF8093C8021092CA021092C90266
:102C70001092D4021092D3028FEF9FEFDC01809369
:102C8000CF029093D002A093D102B093D20262E01F
:102C900085E993E00E94280E63E081E893E00E94BA
:102CA000280E64E08DE693E00E94280E65E089E539
:102CB00093E00E94280E66E085E493E00E94280ECF
:102CC00067E081E393E00E94280E68E08DE193E0E5
:102CD0000E94280E69E089E093E00E94280E6AE0D5
:102CE00085EF92E00E94280E60E181EE92E00E9462
:102CF000280E62E971E08BED92E00E94881162E992
:102D000071E085ED92E00C948811FC018081918145
:102D10000097D9F785E892E09183808349CFFC0141
:102D2000808191810097D9F78CEA92E0918380832A
:102D300084CFCF93DF93CDB7DEB766970FB6F89405
:102D4000DEBF0FBECDBF789484B5826084BD84B5EC
:102D5000816084BD85B5826085BD85B5816085BD96
:102D600080916E00816080936E001092810080914E
:102D700081008260809381008091810081608093D6
:102D8000810080918000816080938000809191001B
:102D90008260809391008091910081608093910086
:102DA000809190008160809390008091C100846048
:102DB0008093C1008091C10082608093C1008091A6
:102DC000C10081608093C1008091C30081608093C5
:102DD000C3008091C00082608093C0008091C200D7
:102DE00081608093C20080917A00846080937A0031
:102DF00080917A00826080937A0080917A0081606D
:102E000080937A0080917A00806880937A00109293
:102E100009021092CD011092CC018091D7008160FF
:102E20008093D70080EA8093D80089B5806189BDFE
:102E300089B5826089BD09B400FEFDCF61E070E014
:102E400080E090E00E94F1018091D8008F7C806149
:102E50008093D8008091E000807F8093E000809193
:102E6000E1008E7E8093E1008DE08093E200559A30
:102E7000209A5D98289884E690E090939D03809333
:102E80009C039093890380938803909375038093A8
:102E90007403909361038093600390934D03809338
:102EA0004C039093390380933803909325038093C8
:102EB000240390931103809310039093FD02809359
:102EC000FC029093E9028093E8028091E101811174
:102ED00045C01092D3011092D2018FEF8093D6019A
:102EE0008093D7018093D8018093D9018093DA0130
:102EF0008093DB0181E08093DC011092DE0110926F
:102F0000DD011092D5011092D40180912F02909191
:102F10003002892B31F480ED91E090933002809360
:102F20002F02E091CE01F091CF01309721F080ED9A
:102F300091E09583848380ED91E09093CF0180931D
:102F4000CE011092E0011092DF0187E391E09093AF
:102F5000D1018093D00181E08093E101239A8AE03E
:102F600092E09093D3018093D2018AE090E0909315
:102F7000DE018093DD018091CB029091CC02A09183
:102F8000CD02B091CE02843C29E09207A105B105A3
:102F900020F484EC99E0A0E0B0E08093CB02909321
:102FA000CC02A093CD02B093CE028FEF8093D601D6
:102FB00080EB8093D70180EF8093D80186E48093E3
:102FC000C8028FEF9FEF909342028093410260ED21
:102FD00077E080E090E00E94F10180EF91E0909333
:102FE000C7028093C60268E272E087EF93E00E9416
:102FF0001F0F69EE71E086EF93E00E941F0F6CEFE8
:1030000071E085EF93E00E941F0F08EF13E0BE010F
:103010006F5E7F4FC8010E941F0F8091DF02909169
:10302000E002892B41F06989E091DB02F091DC023A
:10303000808181116BC06989CE0101960E9438118F
:10304000BE016F5F7F4F8BED92E00E944510CE0175
:1030500001960E9490100F5F1F4F011534E0130777
:10306000B1F618E2A12E12E0B12E0EE0602E712C06
:1030700002E013E0A4E0FA2EB6E0EB2E85E993E03F
:103080000E94480881E893E00E9448088DE693E09A
:103090000E94480889E593E00E94480885E493E08F
:1030A0000E94480881E393E00E9448088DE193E084
:1030B0000E94480889E093E00E94480885EF92E06A
:1030C0000E94480881EE92E00E94480885E392E061
:1030D0000E946706892B09F416C362E971E0CE01EC
:1030E00001960E9488110E94110697FD39C08A300E
:1030F0009105B1F18B871C8641E050E0BE01655F10
:103100007F4FCE0101960E94C010EDCFCE010196F7
:103110000E9438111C861B861E861D86188A1F86F3
:103120006BED72E0CE010B960E9471114D815E81B4
:1031300069817A81CE010B960E94C010811104C072
:10314000CE010B960E947E10BE01655F7F4F8BED16
:1031500092E00E947111CE010B960E94901077CFE1
:10316000BE016F5F7F4F85ED92E00E944510CE015A
:1031700001960E94901065E971E0CE0101960E94CF
:103180008811CE0101960E9400106C01CE010196BB
:103190000E949010CD2821F48BED92E00E94A70FA1
:1031A00067E971E0CE0101960E948811CE01019677
:1031B0000E9400106C01CE0101960E949010CD2853
:1031C00019F481E00E94A30E69E971E0CE01019635
:1031D0000E948811CE0101960E9400106C01CE0160
:1031E00001960E949010CD2809F0B4C06CE971E0FE
:1031F000CE0101960E948811CE0101960E94001016
:103200006C01CE0101960E949010CD28E1F426E0D9
:1032100030E043E050E065ED72E0CE0101960E949F
:103220009911CE0101960E943A101B017093FE0184
:103230006093FD01CE0101960E94901070E060E065
:10324000C1010E94EE1160EA71E0CE0101960E9478
:103250008811CE0101960E9400106C01CE010196EA
:103260000E949010CD28E1F426E030E043E050E0E9
:1032700065ED72E0CE0101960E949911CE01019692
:103280000E943A101B017093FE016093FD01CE0174
:1032900001960E94901061E070E0C1010E94EE1161
:1032A00064EA71E0CE0101960E948811CE01019678
:1032B0000E9400106C01CE0101960E949010CD2852
:1032C000E1F426E030E043E050E065ED72E0CE014D
:1032D00001960E949911CE0101960E943A101B019D
:1032E0007093FE016093FD01CE0101960E94901043
:1032F00062E070E0C1010E94EE1168EA71E0CE0167
:1033000001960E948811CE0101960E9400106C0166
:10331000CE0101960E949010CD28E1F426E030E025
:1033200043E050E065ED72E0CE0101960E949911F4
:10333000CE0101960E943A101B017093FE0160932A
:10334000FD01CE0101960E94901063E070E0C10182
:103350000E94EE116CEA71E0CE0101960E94881184
:10336000CE0101960E9400106C01CE0101960E94D0
:103370009010CD2861F46091FC0170E090E080E055
:103380004AE00E94BC0F80E991E00E949A0F63E935
:1033900071E0CE0101960E948811CE0101960E9433
:1033A00000106C01CE0101960E949010CD28E9F426
:1033B0004AE061E070E080E090E00E94BC0F6EE2C5
:1033C00085E392E00E94CD054AE060E070E0CB0129
:1033D0000E94BC0F4AE065E070E080E090E00E944F
:1033E000BC0F80E991E00E949A0F6EEA71E0CE0175
:1033F00001960E948811CE0101960E9400106C0176
:10340000CE0101960E949010C114D10409F042C06F
:103410002091D9023091DA0241E050E065ED72E08E
:10342000CE0141960E949911AE014F5F5F4F2A0174
:10343000B601CE0141960E941C104C018F3F9807A7
:10344000D1F09C01A601BE016F5E7F4FCE010B96AD
:103450000E949911CE010B960E943A10F2016193DD
:1034600071932F016401FFEFCF1ADF0ACE010B9693
:103470000E949010DDCFAE014F5F5F4F70E060E0C3
:103480008091FD019091FE010E94E70ECE014196D0
:103490000E94901060EB71E0CE0101960E948811AD
:1034A000CE0101960E9400106C01CE0101960E948F
:1034B0009010C114D10409F042C02091D90230917A
:1034C000DA0241E050E065ED72E0CE0141960E94E3
:1034D00099119E012F5F3F4F2901B601CE01419600
:1034E0000E941C104C018F3F9807D1F09C01A6014F
:1034F000BE016F5E7F4FCE010B960E949911CE01E7
:103500000B960E943A10F201619371932F016401AE
:10351000FFEFCF1ADF0ACE010B960E949010DDCF8D
:10352000AE014F5F5F4F61E070E08091FD019091CF
:10353000FE010E94E70ECE0141960E94901062EBC0
:1035400071E0CE0101960E948811CE0101960E9481
:1035500000106C01CE0101960E949010C114D1049C
:1035600009F042C02091D9023091DA0241E050E0E6
:1035700065ED72E0CE0141960E9499119E012F5F88
:103580003F4F2901B601CE0141960E941C104C010B
:103590008F3F9807D1F09C01A601BE016F5E7F4F5F
:1035A000CE010B960E949911CE010B960E943A1003
:1035B000F201619371932F016401FFEFCF1ADF0ACB
:1035C000CE010B960E949010DDCFAE014F5F5F4F92
:1035D00062E070E08091FD019091FE010E94E70E93
:1035E000CE0141960E94901064EB71E0CE010196ED
:1035F0000E948811CE0101960E9400106C01CE013C
:1036000001960E949010C114D10409F042C020918B
:10361000D9023091DA0241E050E065ED72E0CE016E
:1036200041960E9499119E012F5F3F4F2901B601DB
:10363000CE0141960E941C104C018F3F9807D1F09B
:103640009C01A601BE016F5E7F4FCE010B960E94CA
:103650009911CE010B960E943A10F2016193719379
:103660002F016401FFEFCF1ADF0ACE010B960E94F3
:103670009010DDCFAE014F5F5F4F63E070E080914F
:10368000FD019091FE010E94E70ECE0141960E943D
:10369000901066EB71E0CE0101960E948811CE0178
:1036A00001960E9400106C01CE0101960E949010BC
:1036B000CD2849F52091D9023091DA0241E050E05D
:1036C00065ED72E0CE0101960E949911CE0101963E
:1036D0000E943A107C876B87CE0101960E94901061
:1036E000BE01655F7F4F85EF93E00E94C30E64E6E5
:1036F00070E080E090E00E94F1016CEF71E085EFF6
:1037000093E00E941F0F85E993E00E94A10988239E
:10371000C1F01092FB01DD24D394D092FA010E94F3
:10372000230260930E0170930F0180931001909318
:103730001101D092F90150E040E061E080E00E9488
:10374000290F85E993E00E94BB098823B9F0109204
:10375000FB010093FA010E94230260930E01709313
:103760000F01809310019093110181E08093F90182
:1037700042E350E062E080E00E94290F85E993E097
:103780000E9487098823B9F01092FB011093FA0177
:103790000E94230260930E0170930F018093100129
:1037A0009093110181E08093F90144E650E063E0D9
:1037B00080E00E94290F85E993E00E946D0988232B
:1037C000B9F01092FB01F092FA010E94230260937B
:1037D0000E0170930F01809310019093110181E00D
:1037E0008093F90146E950E064E080E00E94290FEF
:1037F00081E893E00E94A1098823C1F0DD24D394DD
:10380000D092FB01D092FA010E94230260930E0134
:1038100070930F018093100190931101D092F901E0
:1038200045E050E061E081E00E94290F81E893E0EB
:103830000E94BB098823C1F0DD24D394D092FB0100
:103840000093FA010E94230260930E0170930F010E
:103850008093100190931101D092F90147E350E059
:1038600062E081E00E94290F81E893E00E948709CD
:103870008823C1F0DD24D394D092FB011093FA0188
:103880000E94230260930E0170930F018093100138
:1038900090931101D092F90149E650E063E081E094
:1038A0000E94290F81E893E00E946D098823C1F0EE
:1038B000DD24D394D092FB01F092FA010E942302FE
:1038C00060930E0170930F0180931001909311018A
:1038D000D092F9014BE950E064E081E00E94290FA9
:1038E0008DE693E00E94A1098823C1F00093FB01BB
:1038F000DD24D394D092FA010E94230260930E013A
:1039000070930F018093100190931101D092F901EF
:103910004AE050E061E082E00E94290F8DE693E0EA
:103920000E94BB098823B9F00093FB010093FA01C0
:103930000E94230260930E0170930F018093100187
:103940009093110181E08093F9014CE350E062E033
:1039500082E00E94290F8DE693E00E948709882368
:10396000B9F00093FB011093FA010E9423026093C7
:103970000E0170930F01809310019093110181E06B
:103980008093F9014EE650E063E082E00E94290F47
:103990008DE693E00E946D098823B9F00093FB0146
:1039A000F092FA010E94230260930E0170930F01BE
:1039B000809310019093110181E08093F90140EA16
:1039C00050E064E082E00E94290F89E593E00E94C4
:1039D000A1098823C1F01093FB01DD24D394D09278
:1039E000FA010E94230260930E0170930F018093ED
:1039F000100190931101D092F9014FE050E061E085
:103A000083E00E94290F89E593E00E94BB09882387
:103A1000B9F01093FB010093FA010E942302609316
:103A20000E0170930F01809310019093110181E0BA
:103A30008093F90141E450E062E083E00E94290FA5
:103A400089E593E00E9487098823B9F01093FB0170
:103A50001093FA010E94230260930E0170930F01EC
:103A6000809310019093110181E08093F90143E765
:103A700050E063E083E00E94290F89E593E00E9413
:103A80006D098823B9F01093FB01F092FA010E94AE
:103A9000230260930E0170930F01809310019093A5
:103AA000110181E08093F90145EA50E064E083E090
:103AB0000E94290F85E493E00E94BB098823B9F096
:103AC000F092FB010093FA010E94230260930E0121
:103AD00070930F01809310019093110181E0809306
:103AE000F90146E450E062E084E00E94290F85E499
:103AF00093E00E94A1098823C1F0F092FB01DD242C
:103B0000D394D092FA010E94230260930E01709325
:103B10000F018093100190931101D092F90144E1BB
:103B200050E061E084E00E94290F85E493E00E9468
:103B300087098823B9F0F092FB011093FA010E94E3
:103B4000230260930E0170930F01809310019093F4
:103B5000110181E08093F90148E750E063E084E0DF
:103B60000E94290F85E493E00E946D098823B9F033
:103B7000F092FB01F092FA010E94230260930E0181
:103B800070930F01809310019093110181E0809355
:103B9000F9014AEA50E064E084E00E94290F81E3E1
:103BA00093E00E94A1098823C9F025E02093FB013E
:103BB000DD24D394D092FA010E94230260930E0177
:103BC00070930F018093100190931101D092F9012D
:103BD00049E150E061E085E00E94290F81E393E034
:103BE0000E94BB098823C1F035E03093FB010093AC
:103BF000FA010E94230260930E0170930F018093DB
:103C000010019093110181E08093F9014BE450E0A1
:103C100062E085E00E94290F81E393E00E9487091A
:103C20008823C1F045E04093FB011093FA010E9404
:103C3000230260930E0170930F0180931001909303
:103C4000110181E08093F9014DE750E063E085E0E8
:103C50000E94290F81E393E00E946D098823C1F03F
:103C600055E05093FB01F092FA010E942302609309
:103C70000E0170930F01809310019093110181E068
:103C80008093F9014FEA50E064E085E00E94290F3B
:103C90008DE193E00E94A1098823C1F0E092FB012D
:103CA000DD24D394D092FA010E94230260930E0186
:103CB00070930F018093100190931101D092F9013C
:103CC0004EE150E061E086E00E94290F8DE193E033
:103CD0000E94BB098823B9F0E092FB010093FA012E
:103CE0000E94230260930E0170930F0180931001D4
:103CF0009093110181E08093F90140E550E062E08A
:103D000086E00E94290F8DE193E00E9487098823B5
:103D1000B9F0E092FB011093FA010E942302609334
:103D20000E0170930F01809310019093110181E0B7
:103D30008093F90142E850E063E086E00E94290F99
:103D40008DE193E00E946D098823B9F0E092FB01B8
:103D5000F092FA010E94230260930E0170930F010A
:103D6000809310019093110181E08093F90144EB5D
:103D700050E064E086E00E94290F89E093E00E9411
:103D8000A1098823C9F087E08093FB01DD24D39447
:103D9000D092FA010E94230260930E0170930F01EA
:103DA0008093100190931101D092F90143E250E009
:103DB00061E087E00E94290F89E093E00E94BB093F
:103DC0008823C1F087E08093FB010093FA010E94F1
:103DD000230260930E0170930F0180931001909362
:103DE000110181E08093F90145E550E062E087E050
:103DF0000E94290F89E093E00E9487098823C1F07F
:103E000087E08093FB011093FA010E9423026093E4
:103E10000E0170930F01809310019093110181E0C6
:103E20008093F90147E850E063E087E00E94290FA2
:103E300089E093E00E946D098823C1F087E08093B8
:103E4000FB01F092FA010E94230260930E0170932D
:103E50000F01809310019093110181E08093F9018B
:103E600049EB50E064E087E00E94290F85EF92E083
:103E70000E94A1098823C9F088E08093FB01DD241A
:103E8000D394D092FA010E94230260930E017093A2
:103E90000F018093100190931101D092F90148E233
:103EA00050E061E088E00E94290F85EF92E00E94D7
:103EB000BB098823C1F088E08093FB010093FA01DD
:103EC0000E94230260930E0170930F0180931001F2
:103ED0009093110181E08093F9014AE550E062E09E
:103EE00088E00E94290F85EF92E00E9487098823CD
:103EF000C1F088E08093FB011093FA010E94230235
:103F000060930E0170930F01809310019093110143
:103F100081E08093F9014CE850E063E088E00E9482
:103F2000290F85EF92E00E946D098823C1F088E097
:103F30008093FB01F092FA010E94230260930E012C
:103F400070930F01809310019093110181E0809391
:103F5000F9014EEB50E064E088E00E94290F81EE09
:103F600092E00E94A1098823C9F089E08093FB01B7
:103F7000DD24D394D092FA010E94230260930E01B3
:103F800070930F018093100190931101D092F90169
:103F90004DE250E061E089E00E94290F81EE92E05D
:103FA0000E94BB098823C1F089E08093FB01009344
:103FB000FA010E94230260930E0170930F01809317
:103FC00010019093110181E08093F9014FE550E0D9
:103FD00062E089E00E94290F81EE92E00E94870949
:103FE0008823C1F089E08093FB011093FA010E94BD
:103FF000230260930E0170930F0180931001909340
:10400000110181E08093F90141E950E063E089E02A
:104010000E94290F81EE92E00E946D098823C1F071
:1040200089E08093FB01F092FA010E9423026093E1
:104030000E0170930F01809310019093110181E0A4
:104040008093F90143EC50E064E089E00E94290F7D
:1040500080912802811141C00E9423022091F50124
:104060003091F6014091F7015091F801621B730BFA
:10407000840B950B643171058105910510F40C9446
:1040800054300E9423026093F5017093F6018093EF
:10409000F7019093F801FAE0CF2EF2E0DF2E812CA9
:1040A00055245A949090F401892D880D89835A8261
:1040B0005B82B601CE0101960E94CF09839483945E
:1040C00083E0C80ED11C94E18912ECCF93949092B6
:1040D000F4010E9488020C945430813009F008C128
:1040E0000E9423022091F5013091F6014091F701E1
:1040F0005091F801621B730B840B950B64317105B1
:104100008105910510F40C9454300E9423026093B1
:10411000F5017093F6018093F7019093F8010E94E6
:10412000120E8091190190911A01E5E0F8E08E9F3E
:1041300090018F9F300D9E9F300D1124275E394CCA
:1041400030931A0120931901AAE0B0E00E941F32B7
:104150001C01442455249090F401C92CD12C809149
:10416000F2019091F301892B09F0A2C00E947C0119
:104170008C0D9D2D911D9093F1018093F0010E9473
:104180007C0191E0990D292F280F3327331F30939D
:10419000EF012093EE0183E0890D8093F4010E94EA
:1041A0007C0193949394492D480F5527551FCA01BC
:1041B0009093ED018093EC018091F0019091F101D9
:1041C0008F3F910559F054F04FEF50E05093F101BB
:1041D0004093F0011092F3011092F2018091EE01F0
:1041E0009091EF018F3F910559F054F08FEF90E0DF
:1041F0009093EF018093EE011092F3011092F2017F
:104200008091EC019091ED018F3F910559F054F0B0
:10421000EFEFF0E0F093ED01E093EC011092F30189
:104220001092F2018091F0019091F10197FF0AC084
:104230001092F1011092F00181E090E09093F3016F
:104240008093F2018091EE019091EF0197FF0AC0F7
:104250001092EF011092EE0181E090E09093F30153
:104260008093F2018091EC019091ED0197FF0AC0DB
:104270001092ED011092EC0181E090E09093F30137
:104280008093F2018091EC019091EE012091F00178
:1042900029839A838B83C101880F991F820D931DF7
:1042A000BE016F5F7F4F865F9D4F0E94E30D11CF70
:1042B0000E947C01C81AD108D092F101C092F0018D
:1042C0000E947C019FEF990DE92FE81BFF0BF093F3
:1042D000EF01E093EE018DEF890D8093F4010E94D0
:1042E0007C019A949A94292D281B330BC90160CF25
:1042F000823011F00C94FD2F0E9423026093F5018F
:104300007093F6018093F7019093F8010E94120ECA
:104310008DE090E00E942F026C018091F40191E009
:10432000980F9093F4018B878FEF8C8780EC8D87AB
:10433000BE016F5F7F4FCE010B960E94CF09C60171
:10434000880F991F8C0D9D1DABCF0E942302609397
:10435000F5017093F6018093F7019093F8010E94A4
:10436000120E8DE090E00E942F026C0185309105C5
:10437000A4F29301281B390B6901CFCF0E942302BD
:104380002091F5013091F6014091F7015091F8012B
:10439000621B730B840B950B6837710581059105C2
:1043A00010F40C9454300E9423026093F501709332
:1043B000F6018093F7019093F801C0902F02D090FE
:1043C0003002C114D10491F0F601828193810097EB
:1043D00049F025853685B901660F771F620F731F77
:1043E0000E949601F601C480D580EBCFC0900C01ED
:1043F000D0900D01FFEFCF1ADF0AD0920D01C092CD
:104400000C012AE0C216D1047CF08091EA0190915F
:10441000EB0110920D0110920C0101969093EB01AB
:104420008093EA01D12CC12C8091EA019091EB019B
:104430000C9724F01092EB011092EA018090EA01AF
:104440009090EB018114910409F0A4C080910C01BB
:1044500090910D018530910524F0A301481B590B63
:10446000CA012091F40131E0320F3093F401298325
:104470002FEF2A8320EC2B83BC01660F771F680F78
:10448000791F665F7D4FCE0101960E94CF0944E0FF
:104490008416910409F00AC1C0900C01D0900D015E
:1044A000C114D10409F0DEC39090F401998255241F
:1044B0005A945A82F0EC8F2E8B826AE072E0CE0121
:1044C00001960E94CF0981E0890D89835A828B82EF
:1044D00069E172E0CE0101960E94CF0982E0890D68
:1044E00089835A828B826CE172E0CE0101960E9430
:1044F000CF0984E0890D8093F40183E0890D8983DD
:104500005A828B826FE172E0CE0101960E94CF0940
:1045100095E0C916D10409F013C4D090F401D982F2
:1045200099249A949A8240ECC42ECB8265E272E080
:10453000CE0101960E94CF0981E08D0D89839A8278
:10454000CB8266E172E0CE0101960E94CF0982E043
:104550008D0D89839A82CB8263E172E0CE01019650
:104560000E94CF0983E08D0D89839A82CB8260E11E
:1045700072E0CE0101960E94CF0985E08D0D8093F7
:10458000F40184E08D0D89839A82CB826DE072E024
:104590000C941B3151E08516910409F006C1C11439
:1045A000D10489F48091F40191E0980F9093F40183
:1045B00089838FEF8A8380EC8B836AE072E0CE017F
:1045C00001960E94CF09C6010197049720F55090EB
:1045D000F401598244244A944A82A0EC3A2E3B8248
:1045E000B601660F771FC60ED71EB601665F7D4FF8
:1045F000CE0101960E94CF0982E0850D8093F401DF
:10460000539459824A823B82B601695F7D4FCE0145
:1046100001960E94CF0980910C0190910D01853087
:104620009105D1F4D090F401D982CC24CA94CA82E5
:10463000F0EC5F2E5B8265E272E0CE0101960E9493
:10464000CF0982E08D0D8093F401D394D982CA8280
:104650005B8266E172E017CF863091053CF15090A5
:10466000F401598244244A944A8260EC362E3B82FB
:104670006301C81AD90AB601660F771FC60ED71E86
:10468000B601665F7D4FCE0101960E94CF0982E0A0
:10469000850D8093F401539459824A823B82B6017E
:1046A000635F7D4FCE0101960E94CF0955E08516CC
:1046B000910409F0F9C0AAE0CA2EA2E0DA2E9924EA
:1046C0009A94B0EC8B2E8091F40191E0980F909326
:1046D000F40189839A828B82B601CE0101960E94F1
:1046E000CF0943E0C40ED11C58E2C51652E0D506EE
:1046F00051F7C0900C01D0900D01C114D10409F004
:1047000075C419821A821B826DE072E0CE01019697
:104710000E94CF0919821A821B8260E172E0CE01E9
:1047200001960E94CF0919821A821B8263E172E00E
:10473000CE0101960E94CF0919821A821B8266E17E
:1047400072E0CE0101960E94CF0919821A821B8263
:1047500065E272E0CE0101960E94CF0925E0C21603
:10476000D10409F09AC419821A821B8269E172E0AD
:10477000CE0101960E94CF0919821A821B826CE138
:1047800072E0CE0101960E94CF0919821A821B8223
:104790006FE172E0CE0101960E94CF0919821A8260
:1047A0001B8262E272E00C941B3182E08816910455
:1047B00011F00C948330C0900C01D0900D01C11405
:1047C000D10409F0E8C05090F401598244244A947D
:1047D0004A8250EC352E3B826AE072E0CE010196AF
:1047E0000E94CF0982E0850D8093F4015394598291
:1047F0004A823B8269E172E0CE0101960E94CF09B4
:10480000C6010297039708F0E5C0912C812C55242E
:104810005A9430EC432E8091F40191E0980F9093DC
:10482000F40189835A824B82C60188199909BC0117
:10483000660F771F680F791F665F7D4FCE01019667
:104840000E94CF09EFEF8E1A9E0AF3E08F169104B3
:1048500011F747E0C416D1043CF143018C189D08C0
:10486000D12CC12C55245A94F0EC4F2E8091F40198
:1048700091E0980F9093F40189835A824B82C6018C
:10488000880D991DBC01660F771F680F791F665F41
:104890007D4FCE0101960E94CF095FEFC51AD50A60
:1048A00083E0C816D10411F78090EA019090EB01E3
:1048B00096E08916910409F02AC6EAE0CE2EE2E0DD
:1048C000DE2E55245A94F0EC4F2E8091F40191E0A5
:1048D000980F9093F40189835A824B82B601CE01DE
:1048E00001960E94CF09E3E0CE0ED11CAC14BD04AA
:1048F00061F7C0900C01D0900D01C114D10409F0F2
:10490000C4C419821A821B826DE072E0CE01019646
:104910000E94CF0919821A821B8260E172E0CE01E7
:1049200001960E94CF0919821A821B8263E172E00C
:10493000CE0101960E94CF0919821A821B8266E17C
:1049400072E0CE0101960E94CF0955E0C516D10450
:1049500009F0E9C419821A821B826CE172E0CE016F
:1049600001960E94CF0919821A821B826FE172E0C0
:10497000CE0101960E94CF0919821A821B8262E23F
:1049800072E0CE0101960E94CF0919821A821B8221
:1049900069E172E0C4C491E0C916D10409F030CFD6
:1049A0005090F401598244244A944A8240EC342EB7
:1049B0003B826AE072E0CE0101960E94CF0982E05C
:1049C000850D8093F401539459824A823B826DE0B5
:1049D00072E012CF25E0C216D10431F5D090F40177
:1049E000D982CC24CA94CA82B0EC5B2E5B8265E289
:1049F00072E0CE0101960E94CF0981E08D0D89837E
:104A0000CA825B8266E172E0CE0101960E94CF0904
:104A100083E08D0D8093F401D394D394D982CA821C
:104A20005B8263E172E03ECE36E0C316D10409F04A
:104A300010CFD090F401D982CC24CA94CA82A0ECC1
:104A40005A2E5B8266E172E0CE0101960E94CF0988
:104A500081E08D0D8983CA825B8265E272E0CE01BE
:104A600001960E94CF0983E08D0D8093F401D394C9
:104A7000D394D982CA825B8262E272E013CE91E063
:104A8000C916D10439F59090F401998288248A944A
:104A90008A8260EC562E5B826AE072E0CE0101965B
:104AA0000E94CF0981E0890D89838A825B826DE053
:104AB00072E0CE0101960E94CF0983E0890D8093B8
:104AC000F4019394939499828A825B8269E172E003
:104AD0000C94B730E2E0CE16D10411F00C94BB3048
:104AE0009090F401998288248A948A8250EC552E01
:104AF0005B826AE072E0CE0101960E94CF0981E0FC
:104B0000890D89838A825B826DE072E0CE01019615
:104B10000E94CF0983E0890D8093F40193949394CC
:104B200099828A825B8260E172E00C94B73035E052
:104B3000C316D10491F5D090F401D98299249A94A6
:104B40009A8220ECC22ECB8265E272E0CE01019601
:104B50000E94CF0981E08D0D89839A82CB8266E124
:104B600072E0CE0101960E94CF0982E08D0D89830B
:104B70009A82CB8263E172E0CE0101960E94CF0956
:104B800084E08D0D8093F40183E08D0D89839A82FA
:104B9000CB8260E172E00C941B3146E0C416D10474
:104BA00011F00C94E530D090F401D98299249A94B4
:104BB0009A8290ECC92ECB8266E172E0CE0101961A
:104BC0000E94CF0981E08D0D89839A82CB8265E2B4
:104BD00072E0CE0101960E94CF0982E08D0D89839B
:104BE0009A82CB8262E272E0CE0101960E94CF09E6
:104BF00084E08D0D8093F40183E08D0D89839A828A
:104C0000CB8263E172E00C941B3188E0C816D104BA
:104C10000CF44ACE43018C189D08D12CC12C55248C
:104C20005A94B0EC4B2E8091F40191E0980F909340
:104C3000F40189835A824B82C601880D991DBC01FB
:104C4000660F771F680F791F665F7D4FCE01019653
:104C50000E94CF099FEFC91AD90AE4E0CE16D10409
:104C600011F722CEF1E0CF16D10489F59090F4012E
:104C7000998255245A945A82E0EC8E2E8B826AE0F7
:104C800072E0CE0101960E94CF0981E0890D8983EF
:104C90005A828B826DE072E0CE0101960E94CF09AC
:104CA00082E0890D89835A828B8269E172E0CE01AC
:104CB00001960E94CF0984E0890D8093F40183E07E
:104CC000890D89835A828B826CE172E01DCC22E0CF
:104CD000C216D10409F06FC09090F4019982552456
:104CE0005A945A8270EC872E8B826AE072E0CE0171
:104CF00001960E94CF0981E0890D89835A828B82B7
:104D00006DE072E0CE0101960E94CF0982E0890D2C
:104D100089835A828B8260E172E0CE0101960E9403
:104D2000CF0984E0890D8093F40183E0890D8983A4
:104D30005A828B8269E172E0CE0101960E94CF090E
:104D4000E6E0CE16D10409F06FC0D090F401D9820C
:104D500099249A949A8230ECC32ECB8266E172E059
:104D6000CE0101960E94CF0981E08D0D89839A8240
:104D7000CB8265E272E0CE0101960E94CF0982E00B
:104D80008D0D89839A82CB8262E272E0CE01019618
:104D90000E94CF0983E08D0D89839A82CB8263E1E3
:104DA00072E0CE0101960E94CF0985E08D0D8093BF
:104DB000F40184E0EACE33E0C316D10409F06FC0F9
:104DC0009090F401998255245A945A8260EC862E70
:104DD0008B826AE072E0CE0101960E94CF0981E0E9
:104DE000890D89835A828B826DE072E0CE01019633
:104DF0000E94CF0982E0890D89835A828B8260E10B
:104E000072E0CE0101960E94CF0984E0890D809363
:104E1000F40183E0890D89835A828B8263E172E019
:104E2000CE0101960E94CF09F7E0CF16D10409F018
:104E30009BC0D090F401D98299249A949A8220EC54
:104E4000C22ECB826FE172E0CE0101960E94CF09A3
:104E500081E08D0D89839A82CB8262E272E0CE017D
:104E600001960E94CF0982E08D0D89839A82CB82C0
:104E700065E272E0CE0101960E94CF0983E08D0DBC
:104E800089839A82CB8266E172E0CE0101960E940C
:104E9000CF0985E08D0D8093F40184E0AECE44E02F
:104EA000C416D10409F034CB912C812C55245A948A
:104EB00050EC452E8091F40191E0980F9093F4010D
:104EC00089835A824B82B4016A5E7D4FCE0101967E
:104ED0000E94CF0953E0851A910881EF88168FEF61
:104EE000980641F739E0C316D10409F0DDCCD09023
:104EF000F401D98299249A949A8280ECC82ECB82AC
:104F000069E172E0CE0101960E94CF0981E08D0D2A
:104F100089839A82CB826CE172E0CE0101960E9475
:104F2000CF0982E08D0D89839A82CB826FE172E096
:104F3000CE0101960E94CF0983E08D0D89839A826C
:104F4000CB8262E272E0CE0101960E94CF0985E039
:104F50008D0D8093F40184E08D0D89839A82CB823C
:104F600065E272E00C941B3128E0C216D10409F00E
:104F7000B9CFD090F401D98299249A949A8290EC76
:104F8000C92ECB826FE172E0CE0101960E94CF095B
:104F900081E08D0D89839A82CB8262E272E0CE013C
:104FA00001960E94CF0982E08D0D89839A82CB827F
:104FB00065E272E0CE0101960E94CF0983E08D0D7B
:104FC00089839A82CB8266E172E0CE0101960E94CB
:104FD000CF0985E08D0D8093F40184E08D0D8983E8
:104FE0009A82CB826CE172E00C941B3181E0C8168E
:104FF000D10409F519821A821B8260E172E0CE01A8
:1050000001960E94CF0919821A821B8263E172E025
:10501000CE0101960E94CF0919821A821B8266E195
:1050200072E0CE0101960E94CF0919821A821B827A
:1050300062E272E086CB92E0C916D10409F054C056
:1050400019821A821B8263E172E0CE0101960E94EE
:10505000CF0919821A821B8266E172E0CE010196A5
:105060000E94CF0919821A821B826FE172E0CE0181
:1050700001960E94CF0919821A821B8262E272E0B5
:10508000CE0101960E94CF0919821A821B8265E225
:1050900072E0CE0101960E94CF0936E0C316D1041A
:1050A00009F054C019821A821B826AE072E0CE01B4
:1050B00001960E94CF0919821A821B8269E172E06F
:1050C000CE0101960E94CF0919821A821B826CE1DF
:1050D00072E0CE0101960E94CF0919821A821B82CA
:1050E0006FE172E00C941B31E3E0CE16D10409F0BD
:1050F00051C019821A821B8266E172E0CE010196CC
:105100000E94CF0919821A821B826CE172E0CE01E3
:1051100001960E94CF0919821A821B826FE172E008
:10512000CE0101960E94CF0919821A821B8262E287
:1051300072E0CE0101960E94CF0919821A821B8269
:1051400065E272E0CE0101960E94CF0947E0C416E5
:10515000D10409F075C019821A821B826AE072E0DC
:10516000CE0101960E94CF0919821A821B826DE03E
:1051700072E0CE0101960E94CF0919821A821B8229
:1051800069E172E0CE0101960E94CF0919821A826C
:105190001B8228CFF4E0CF16D10409F0DFCA1982B0
:1051A0001A821B8269E172E0CE0101960E94CF094A
:1051B00019821A821B826CE172E0CE0101960E9474
:1051C000CF0919821A821B826FE172E0CE0101962B
:1051D0000E94CF0919821A821B8262E272E0CE011C
:1051E00001960E94CF0919821A821B8265E272E041
:1051F000CE0101960E94CF0989E0C816D10409F0BA
:1052000053CB19821A821B826AE072E0CE010196AA
:105210000E94CF0919821A821B826DE072E0CE01D2
:1052200001960E94CF0919821A821B8260E172E006
:10523000CE0101960E94CF0919821A821B82E1CC0D
:1052400058E0C516D104C1F619821A821B826AE0A1
:1052500072E0CE0101960E94CF0919821A821B8248
:105260006DE072E0CE0101960E94CF0919821A8288
:105270001B8260E172E0CE0101960E94CF09198283
:105280001A821B8269E172E0D6C7F1E0CF16D10421
:1052900009F519821A821B8263E172E0CE01019640
:1052A0000E94CF0919821A821B8266E172E0CE0148
:1052B00001960E94CF0919821A821B8260E172E076
:1052C000CE0101960E94CF0919821A821B8265E2E3
:1052D00072E037CB22E0C216D10409F084C01982F3
:1052E0001A821B8263E172E0CE0101960E94CF090F
:1052F00019821A821B8266E172E0CE0101960E9439
:10530000CF0919821A821B8262E272E0CE010196F5
:105310000E94CF0919821A821B8265E272E0CE01D7
:1053200001960E94CF0980910C0190910D01863069
:10533000910509F076C019821A821B8269E172E038
:10534000CE0101960E94CF0919821A821B826CE15C
:1053500072E0CE0101960E94CF0919821A821B8247
:105360006FE172E0CE0101960E94CF0989E08816B4
:10537000910409F0A9C02AE0C22E22E0D22E99247D
:105380009A9430EC832E8091F40191E0980F9093E1
:10539000F40189839A828B82B601CE0101960E9424
:1053A000CF0943E0C40ED11CAC14BD0461F7C0901A
:1053B0000C01D0900D01C114D10409F01AC3198257
:1053C0001A821B826DE072E0CE0101960E94CF0925
:1053D000F5E0CF16D10409F023C319821A821B828B
:1053E00062E272E000C333E0C316D10479F419829B
:1053F0001A821B8266E172E0CE0101960E94CF09FB
:1054000019821A821B826FE172E077CF44E0C416E2
:10541000D10409F09ACA19821A821B826CE172E0E7
:10542000EBCF87309105C1F419821A821B826AE0A2
:1054300072E0CE0101960E94CF0919821A821B8266
:1054400069E172E0CE0101960E94CF0919821A82A9
:105450001B826CE172E086CF88309105C1F419821D
:105460001A821B8269E172E0CE0101960E94CF0987
:1054700019821A821B826AE072E0CE0101960E94B4
:10548000CF0919821A821B826DE072E06BCF0997F7
:10549000D9F419821A821B826AE072E0CE01019669
:1054A0000E94CF0919821A821B826DE072E0CE0140
:1054B00001960E94CF0919821A821B8260E172E074
:1054C000CE0101960E94CF099AE08916910409F055
:1054D0003EC18AE0C82E82E0D82E99249A9490EC9E
:1054E000892E8091F40191E0980F9093F4018983C3
:1054F0009A828B82B601CE0101960E94CF0953E0B9
:10550000C50ED11CAC14BD0461F70C94692087E072
:105510008816910409F088C16AE0C62E62E0D62E92
:1055200055245A9470EC472E8091F40191E0980F25
:105530009093F40189835A824B82B601CE01019681
:105540000E94CF0993E0C90ED11CAC14BD0461F7D1
:10555000C0900C01D0900D01C114D104C1F5198285
:105560001A821B826DE072E0CE0101960E94CF0983
:1055700019821A821B8260E172E0CE0101960E94BC
:10558000CF0919821A821B8263E172E0CE01019673
:105590000E94CF0956E0C516D10409F05DC01982FA
:1055A0001A821B8269E172E0CE0101960E94CF0946
:1055B00019821A821B826CE172E0CE0101960E9470
:1055C000CF0919821A821B826FE172E079CFE1E084
:1055D000CE16D104C1F419821A821B8260E172E0F6
:1055E000CE0101960E94CF0919821A821B8263E1C3
:1055F00072E0CE0101960E94CF0919821A821B82A5
:1056000066E172E0C3CFF2E0CF16D10431F4198223
:105610001A821B8265E272E0E3CF23E0C216D10456
:1056200071F519821A821B8265E272E0CE01019641
:105630000E94CF0919821A821B8262E272E0CE01B7
:1056400001960E94CF0919821A821B8266E172E0DC
:10565000CE0101960E94CF0987E0C816D10471F5EA
:1056600019821A821B8269E172E0CE0101960E94C2
:10567000CF0919821A821B826CE172E021CF34E0DB
:10568000C316D10471F519821A821B826FE172E090
:10569000CE0101960E94CF0919821A821B8262E212
:1056A00072E0CE0101960E94CF0919821A821B82F4
:1056B00065E272E0CE0101960E94CF0998E0C9161A
:1056C000D10479F519821A821B826AE072E0CE0158
:1056D00001960E94CF0919821A821B8269E172E049
:1056E000EFCE45E0C416D10409F054CF19821A82D6
:1056F0001B826CE172E0CE0101960E94CF091982F3
:105700001A821B826FE172E0CE0101960E94CF09DE
:1057100019821A821B8262E272E0CE0101960E9417
:10572000CF09E9E0CE16D10491F419821A821B82C6
:105730006AE072E0CE0101960E94CF0919821A82B6
:105740001B826DE072E0CE0101960E94CF09EBE072
:105750008E16910411F00C946920AAE0CA2EA2E0E2
:10576000DA2E99249A94B0EC8B2E8091F40191E07A
:10577000980F9093F40189839A828B82B601CE01AF
:1057800001960E94CF0983E0C80ED11C98E2C91689
:1057900092E0D90651F7C0900C01D0900D01C114D0
:1057A000D10409F075C119821A821B826DE072E082
:1057B000CE0101960E94CF0945E0C416D10409F03C
:1057C0009AC119821A821B826DE072E0CE010196A5
:1057D0000E94CF0919821A821B8260E172E0CE0119
:1057E00001960E94CF0919821A821B8263E172E03E
:1057F000CE0101960E94CF0919821A821B8266E1AE
:1058000072E0CE0101960E94CF0919821A821B8292
:1058100065E272E0CE0101960E94CF0919821A82D8
:105820001B8262E272E0CDC1F8E08F16910409F0AC
:105830009DCD4AE0C42E42E0D42E55245A9450EC1B
:10584000452E8091F40191E0980F9093F4018983A3
:105850005A824B82B601CE0101960E94CF0923E005
:10586000C20ED11CAC14BD0461F7C0900C01D090E5
:105870000D01C114D10431F519821A821B826DE029
:1058800072E0CE0101960E94CF0919821A821B8212
:1058900060E172E0CE0101960E94CF09E6E0CE16EB
:1058A000D10409F04BC019821A821B826CE172E0AC
:1058B000CE0101960E94CF0919821A821B826FE1E4
:1058C00072E041CF31E0C316D10479F419821A8213
:1058D0001B8260E172E0CE0101960E94CF0919821D
:1058E0001A821B8263E172E0D5CF42E0C416D10474
:1058F00079F419821A821B8263E172E0CE0101966B
:105900000E94CF0919821A821B8266E172E0C2CF1F
:1059100053E0C516D10429F519821A821B8265E26B
:1059200072E0CE0101960E94CF0919821A821B8271
:1059300066E172E0CE0101960E94CF09F7E0CF1632
:10594000D10429F519821A821B8269E172E0CE0125
:1059500001960E94CF0919821A821B826CE172E0C3
:10596000F2CE84E0C816D104E1F419821A821B82B7
:1059700062E272E0CE0101960E94CF0919821A827A
:105980001B8265E272E0CE0101960E94CF0928E0F9
:10599000C216D104E9F419821A821B8269E172E00D
:1059A000D2CE95E0C916D10409F078CF19821A82B7
:1059B0001B826FE172E0CE0101960E94CF0919822D
:1059C0001A821B8262E272E0CE0101960E94CF0928
:1059D00039E0C316D10411F00C94692019821A829F
:1059E0001B826AE072E0CE0101960E94CF090C94FE
:1059F000692051E0C516D10431F419821A821B8244
:105A000060E172E0E1CC82E0C816D10499F4198219
:105A10001A821B8263E172E0CE0101960E94CF09D7
:105A200026E0C216D10499F419821A821B826FE112
:105A300072E0D9CF93E0C916D10499F419821A8281
:105A40001B8266E172E0CE0101960E94CF0937E029
:105A5000C316D10489F419821A821B826CE172E0A8
:105A6000C2CFE4E0CE16D10409F0B2CC19821A827A
:105A70001B8265E272E0B7CF48E0C416D10411F092
:105A80000C94692019821A821B8269E172E0ABCF03
:105A9000E1E0CE16D10479F419821A821B826DE0FE
:105AA00072E0CE0101960E94CF0919821A821B82F0
:105AB00060E172E07DCEF2E0CF16D10409F05CC067
:105AC00019821A821B826DE072E0CE0101960E945B
:105AD000CF0919821A821B8260E172E0CE01019621
