:100000000C9442010C946A010C946A010C946A01EC
:100010000C946A010C946A010C946A010C946A01B4
:100020000C946A010C946A010C94D41F0C94432024
:100030000C946A010C946A010C946A010C946A0194
:100040000C946A010C946A010C946A010C946A0184
:100050000C946A010C946A010C946A010C948A1F36
:100060000C946A010C946A010C946A010C946A0164
:100070000C946A010C946A010C946A010C946A0154
:100080000C946A010C946A010C946A010C946A0144
:100090000C946A010C946A010C946A010C946A0134
:1000A0000C946A010C946A010C946A01080B00021A
:1000B0000202000009040000010202000005240001
:1000C0001001052401010104240206052406000193
:1000D0000705810310004009040100020A00000026
:1000E00007050202400000070583024000000403E8
:1000F000090412010002EF02014041233780000190
:100100000102030141726475696E6F204C4C43001B
:1001100041726475696E6F204D6963726F000000F3
:100120000000250028002B002E00310000000000F8
:10013000240027002A002D0030000408020110408E
:100140008040102040804080080204018040201040
:1001500002011080102040402000000000230026F3
:100160000029002C002F00040404040403040502E9
:100170000202020403020202020606060606060442
:10018000040202020404050C0901A1018501150005
:100190002501750195180A23020A8A011A24022AE8
:1001A00027020A21020A2A0209CD09B709B609B5B0
:1001B00009E909EA09E20A83010A01020A02020ABC
:1001C00007020A1A020A79021A1B022A1D02810278
:1001D000C000000000000000002A2B2800000000E2
:1001E000000000000000000000000000000000000F
:1001F000002C9EB4A0A1A2A434A6A7A5AE362D378C
:1002000038271E1F20212223242526B333B62EB7DC
:10021000B89F8485868788898A8B8C8D8E8F9091F4
:1002200092939495969798999A9B9C9D2F3130A381
:10023000AD350405060708090A0B0C0D0E0F101149
:1002400012131415161718191A1B1C1DAFB1B0B5CF
:100250000005010906A1018502050719E029E71536
:1002600000250175019508810295017508810395A6
:10027000067508150025730507190029738100C04C
:100280007522A52511241FBECFEFDAE0DEBFCDBF5A
:1002900023E0A4EEB1E001C01D92AE3EB207E1F74B
:1002A00011E0A0E0B1E0EAE2F2E502C005900D92B3
:1002B000A43EB107D9F711E0C1E4D1E004C0219711
:1002C000FE010E94E626C034D107C9F70E947F23B1
:1002D0000C9408290C940000FC0180914B028823A7
:1002E00011F13FB7F89482E08093E9002091F20089
:1002F000822F90E01816190614F481E090E088230C
:1003000039F0289A44E640934A024091F100408334
:10031000222339F02091F200211103C02BE6209313
:10032000E8003FBF08958FEF9FEF08953FB7F8941F
:100330008091460290914702A0914802B0914902F3
:1003400026B5A89B05C02F3F19F00196A11DB11D30
:100350003FBFBA2FA92F982F8827BC01CD01620F6C
:10036000711D811D911D42E0660F771F881F991F27
:100370004A95D1F708958F929F92AF92BF92CF92F4
:10038000DF92EF92FF924B015C010E9496016B019C
:100390007C010E9496016C197D098E099F09683EB7
:1003A000734081059105A8F321E0821A9108A10804
:1003B000B10888EEC80E83E0D81EE11CF11C811440
:1003C0009104A104B10429F7FF90EF90DF90CF9042
:1003D000BF90AF909F908F9008952FB7F894609141
:1003E00042027091430280914402909145022FBFD6
:1003F00008954F925F926F927F929F92AF92BF92B9
:10040000CF92DF92EF92FF920F931F93CF93DF93E0
:1004100000D01F92CDB7DEB7D090EB028091EE02F4
:100420009091EF02A091F002B091F102892B8A2BFA
:100430008B2BD9F00E949601009154021091550225
:100440002091560230915702601B710B820B930B67
:100450000091EE021091EF022091F0023091F10232
:100460006017710782079307C8F20E949601609394
:100470005402709355028093560290935702E09174
:10048000F602F091F702309759F04091F202509144
:10049000F3026091F4027091F5028D2D0995D82E2A
:1004A000E0905202F09053024D2C512C712C612C93
:1004B000E114F10409F459C0D7011C96CC901C97A3
:1004C0008091EC029091ED028436910510F41C9617
:1004D0001C92D701ED91FC91A280B38019821A82FF
:1004E0001B82DD2079F1F701369610E000E02191C2
:1004F000222319F19280992001F130E050E040E090
:100500002F5F3F4F4F4F5F4FC301B2010E948526BF
:100510009B01AC01892D90E0B0E0A0E0BC01CD01D1
:100520006F5F7F4F8F4F9F4F0E948526A1E0B0E005
:10053000AC0FBD1FA00FB11F8C930F5F1F4F033077
:100540001105A9F609811A812B81F7014585568588
:1005500062817381C701F5010995D7011C96CC9280
:100560001C971496ED90FC90A3CF8091500290912F
:1005700051028C010F5F1F4F1093510200935002E4
:100580004997B4F10E94ED01C0904C02D0904D0209
:10059000E0904E02F0904F029B01AC012C193D09F6
:1005A0004E095F0921F421E030E040E050E088EEA0
:1005B00093E0089FB001099F700D189F700D1124E2
:1005C000072E000C880B990B0E94A9263093ED0290
:1005D0002093EC0210925102109250020E94ED0101
:1005E00060934C0270934D0280934E0290934F02A1
:1005F0000F900F900F90DF91CF911F910F91FF906F
:10060000EF90DF90CF90BF90AF909F907F906F90D2
:100610005F904F90089580E991E00895089540918A
:10062000FE015091FF012091FC013091FD01421724
:100630005307B4F49091E8009570E1F39091E800CD
:1006400092FD19C08093F1008091FE019091FF010D
:1006500001968F739927892B19F48EEF8093E80008
:100660008091FE019091FF0101969093FF0180938C
:10067000FE0181E0089580E00895EF92FF920F93CC
:100680001F93CF93DF93F82E192FE62E042F81E0CE
:10069000860F880F0E940F0383E00E940F03CF2D67
:1006A000D12FEC0EFD2EF11CCE15DF05B9F007FFA2
:1006B00013C0FE0184910E940F03182F80E00E9456
:1006C0000F03812321968111EFCFDF91CF911F91ED
:1006D0000F91FF90EF9008958881EDCF81E0F5CFE5
:1006E000DF92EF92FF920F931F93CF93DF93D82E59
:1006F0008A01EB017B01E40EF51ECE15DF0559F0F2
:10070000D7FE12C0FE0184910E940F032196811131
:10071000F4CF0FEF1FEFC801DF91CF911F910F9121
:10072000FF90EF90DF9008958881EECF2FB7F89477
:1007300087708093E9009091E800892F807295FF7F
:1007400004C09091F20080E4891B2FBF08957F922E
:100750008F929F92AF92BF92CF92DF92EF92FF92D1
:100760000F931F93CF93DF93C82E8B017A01809153
:100770004B02811110C08FEF9FEFDF91CF911F913E
:100780000F91FF90EF90DF90CF90BF90AF909F9030
:100790008F907F9008958091020280FF05C0809124
:1007A000E00082608093E000CE2DDF2DD12C8AEF17
:1007B000B82E8C2D8770982E8C2D8072882E8C2DC3
:1007C0008074782E9AE3A92E209719F4DD2009F47D
:1007D00052C08C2D0E94960381110AC0BA94BB208E
:1007E00051F261E070E080E090E00E94BB01ECCF4C
:1007F0008C171D0611F00CF08C2F9FB7F894909277
:10080000E9002091E80025FD02C09FBFDDCF282F21
:1008100030E0C21BD30B882029F08150A0F0109249
:10082000F100FBCFF801C7FC0AC0815050F04191A4
:100830004093F100FACF44914093F10031968150FA
:10084000D0F7020F131FDD2021F0A092E800D12C79
:10085000DCCF8091E80085FD07C0A092E800DD2490
:10086000D394209791F2F3CF209779F6772069F20D
:10087000A092E800CACF5D9A84E680930102C70186
:100880007CCF615030F02091F100FC012083019673
:10089000F8CF289A84E680934A0208958091F40163
:1008A00081110DC082E08093F00184E08093F1011A
:1008B0001092F3011092F20181E08093F40180EF35
:1008C00091E00895CF93DF9381E08093BA02809303
:1008D000BB0220EC32E03093BD022093BC021092A8
:1008E000BF021092BE0228E631E03093B702209397
:1008F000B6021092C2021092C1021092C40210926B
:10090000C3028093C5028093C60281EC8093C0022B
:100910000E944E04FC0181819091BA02482F490F38
:100920005527551F483051059CF5A281B38110977A
:1009300009F526EB32E03383228320812093B8022D
:100940008093B9028091BB02820F80832091BC0208
:10095000A22FB091BD028A2F821B8917C8F4818112
:100960003D91C82FD0E0CE5EDE4F38838F5F81830C
:10097000F2CFD90118962D913C9119972115310587
:10098000C1F726EB32E019963C932E931897D5CFFA
:10099000DF91CF9108950F931F93CF93DF931F9211
:1009A000CDB7DEB78C018091C702811105C00E94CE
:1009B000620481E08093C70282E0898341E050E0D5
:1009C000BE016F5F7F4F8091B9020E94A70397FD20
:1009D00008C08091B90248E050E0B80180640E94EC
:1009E000A7030F90DF91CF911F910F9108950F935F
:1009F0001F93CF93DF931F92CDB7DEB782E0898339
:100A000042E450E06CEA70E080E80E9470030E94CB
:100A10004E04DC0112960D911C910115110589F00F
:100A2000D801ED91FC910280F381E02DBE016F5F52
:100A30007F4FC801099597FD04C0F8010085118515
:100A4000ECCF89810F90DF91CF911F910F91089585
:100A5000CF93DF93EC0180911101882331F083E083
:100A60000E94A7031816190634F081E090E09B83DA
:100A70008A8380E090E0DF91CF910895CF93DF9358
:100A80001F92CDB7DEB76983DC01ED91FC91028046
:100A9000F381E02D41E050E0BE016F5F7F4F09958B
:100AA0000F90DF91CF91089583E08093E9008091CA
:100AB000F200882319F08AE38093E800089583E028
:100AC0000E94960390E00895CF93DF931F92CDB7D5
:100AD000DEB7FC018485958597FD08C02FEF3FEFB9
:100AE000358724870F90DF91CF910895CE0101962D
:100AF0000E946C01019719F4898190E0F3CF8FEF88
:100B00009FEFF0CF0F931F930E94ED01609360025F
:100B100070936102809362029093630288E592E091
:100B20000E94640597FF1DC00E94ED0100916002C4
:100B3000109161022091620230916302601B710B7F
:100B4000820B930B00915C0210915D0220915E027A
:100B500030915F026017710782079307F8F28FEFF9
:100B60009FEF1F910F9108950F931F93CF93DF93E2
:100B70001F92CDB7DEB78C01FC018485958597FF68
:100B80000BC0CE0101960E946C01019771F489811E
:100B900090E0F80195878487F801848595850F900A
:100BA000DF91CF911F910F9108958FEF9FEFF1CFBC
:100BB000FC018485958597FD0BC09FB7F89482E072
:100BC0008093E9008091F2009FBF90E00196089524
:100BD0009FB7F89482E08093E9008091F2009FBF74
:100BE00090E00895DC01FB0112962C91129784810C
:100BF00095812817190641F491818081813A31F459
:100C00009D7F81E0913009F080E008958132E1F725
:100C10009B3029F482811F968C9381E008959A304D
:100C200099F7828150968C93F8CFDC01FB0188E420
:100C3000808389E4818384E482831D969C911D973F
:100C40009F709F5B93831D968D919C9124E0969558
:100C500087952A95E1F78F708F5B848385E00895EF
:100C6000EF92FF920F931F93CF93DF93FB012081AD
:100C7000213871F52381223259F5DC0112964C910D
:100C8000248135814217130619F5EC010B851C856B
:100C9000F12CE12C0115110589F0F80144815581F1
:100CA0006281738180E80E9470038F3F980749F04A
:100CB000E80EF91ED8010D911C91ECCF81E08F87D1
:100CC000C701DF91CF911F910F91FF90EF90089591
:100CD00090E080E0F6CFCF93DF93CDB7DEB7699792
:100CE0000FB6F894DEBF0FBECDBFFC01DB018C91C7
:100CF0008F5F8C939E012D5F3F4F8DE0D9011D9238
:100D00008A95E9F729E0298384E08A8391E09D832D
:100D100083E08E832A8721E22B879C879D879F878C
:100D200022E2288B27E02B8B25E02C8B8E8B20E476
:100D300030E0388F2F8B998F82818B8395858685C4
:100D4000998B8A8B838180688D8B49E150E0BE014D
:100D50006F5F7F4F80E00E94700369960FB6F89432
:100D6000DEBF0FBECDBFDF91CF910895CF92DF924E
:100D7000EF92FF920F931F93CF93DF936C01EB01E0
:100D80007B01E40EF51E10E000E0CE15DF0581F0DA
:100D900069916D30D1F3D601ED91FC910190F08114
:100DA000E02DC6010995892B19F00F5F1F4FEDCF7C
:100DB000C801DF91CF911F910F91FF90EF90DF90CD
:100DC000CF900895DC01683888F1685816968C91A8
:100DD0001697861721F117968C9117978617F9F0B9
:100DE00018968C9118978617D1F019968C911997AF
:100DF0008617A9F01A968C911A97861781F01B9680
:100E00008C911B97861759F0FD01369690E080E093
:100E1000219121114FC08A0F9B1FFC016683CD01D8
:100E200004960E94CB0481E090E00895862F90E024
:100E300067FF12C0FC01E058F10921E030E001C079
:100E4000220FEA95EAF714968C911497822B149648
:100E50008C93149760E0BACF1C96ED91FC911D978E
:100E6000E80FF91F6491611109C081E090E01396C9
:100E70009C938E93129790E080E00895862F807C5B
:100E8000803C69F414968C911497806414968C932A
:100E900014976F73623309F099CF64E697CF67FFB9
:100EA000F9CF14968C911497826014968C931497B2
:100EB0006F77F0CF01968630910509F0A9CFD5CF95
:100EC000EF92FF921F93CF93DF93EC01162F0E94B6
:100ED000E2067C01E8E7E10F183890F4812F90E0FA
:100EE00017FF2AC0FC01E058F10981E090E001C041
:100EF000880FEA95EAF780959C8189238C83E0E04E
:100F0000DE0186E0EE2341F016969C911697E913D8
:100F100003C016961C921697815011968111F2CF3C
:100F2000CE0104960E94CB04C7019927DF91CF918F
:100F30001F91FF90EF900895EC85FD85E80FF91F54
:100F4000E491EE2389F38E2F807C803C41F48C81E8
:100F50008F7B8C83EF73E23399F6E4E6D1CFE7FF22
:100F6000FACF8C818D7F8C83EF77F5CF90E080E096
:100F700008958F929F92AF92BF92CF92DF92EF929D
:100F8000FF920F931F93CF93DF93EC01898182FD32
:100F900014C085FD12C0EC89FD8920813E8981FB4A
:100FA000992790F983FB882780F98927922F93232B
:100FB00021E009F020E082278A8B0E94ED01AB013D
:100FC000BC019A892B898881992309F47BC021115E
:100FD00079C080FD5DC0816088834E875F87688BA4
:100FE000798B8B89882319F1992309F10D811E8151
:100FF00030E020E0CE84DF84E888F9884A015B0194
:101000008C189D08AE08BF0875016401C016D10692
:10101000E206F30660F0888181FD09C02B852D87EB
:101020008A648F7788834E875F87688B798B0E857C
:101030001F8528893989401B510B620B730B0F8167
:10104000188530E020E0401751076207730750F021
:101050008B85882339F0911105C08C871B86888188
:1010600084608883898186FF06C01C8698819B7F67
:1010700098838F7B8983DF91CF911F910F91FF9090
:10108000EF90DF90CF90BF90AF909F908F9008959A
:101090000E851F85288939896A017B01C01AD10A0A
:1010A000E20AF30A0B811C8130E020E0C016D10671
:1010B000E206F30608F4BBCF21E02B8B8062806848
:1010C00088838FCF8E7F888391118BCF222309F461
:1010D000AECF1B8A81FD03C08B858F5F8B87888194
:1010E0008D7F806188834E875F87688B798B86FFD1
:1010F00004C01C861B868F7B8883888187FF97CFDF
:101100008F7788838981816089836BCFCF92DF92CB
:10111000EF92FF921F93CF93DF93EC01898184FFBD
:1011200003C0CE010E94B9078B85882351F010E0DF
:10113000812FDF91CF911F91FF90EF90DF90CF90A3
:101140000895888186FB112710F986FFF0CF0E9451
:10115000ED01CE84DF84E888F988AB01BC014C192D
:101160005D096E097F0989859A85B0E0A0E048177E
:1011700059076A077B07D8F20E94ED016E877F87C7
:10118000888B998BD5CFFC01808191819E7F918343
:1011900087788B7F8083158614860895CF93DF939D
:1011A000EC01898184FF03C0CE010E94B9079881B8
:1011B00092FB882780F992FF06C09C85933031F41A
:1011C000998190649983DF91CF91089580E0FBCF5E
:1011D000CF93DF93EC01898184FF03C0CE010E948D
:1011E000B907988192FB882780F992FF06C09C85F9
:1011F000923031F4998190649983DF91CF91089571
:1012000080E0FBCFCF93DF93EC01898184FF03C0A3
:10121000CE010E94B907988192FB882780F992FF3E
:1012200006C09C85913031F4998190649983DF9157
:10123000CF91089580E0FBCFCF93DF93EC018981BC
:1012400084FF03C0CE010E94B907988193FB8827D1
:1012500080F993FF02C0977F9883DF91CF91089523
:10126000CF93DF93EC01898184FF03C0CE010E94FC
:10127000B907988195FB882780F995FF02C09F7D6B
:101280009883DF91CF9108951F93DC01FB017C913E
:1012900011965C91119712961C91972F990F990FA7
:1012A000990F35E5292F239F020E20E0211D1124DF
:1012B000822F672F6074472F407277FD66C06111DF
:1012C00052C0411105C0922F9095892F90E004C023
:1012D00025E5280F90E08BEA5F3F09F422C05523F3
:1012E00009F474C0509530E0552329F0559F312DF5
:1012F000112451113F5F432F4095582F549F050EE5
:1013000050E0511D852F249F020E20E0211D592FF2
:10131000549F050E50E0511D952F1124830F230F6C
:10132000930F1F3FD9F030E0112321F0119F312D91
:1013300009F03F5F332309F44DC0482F439F040E4B
:1013400040E0411D842F239F020E20E0211D592FD4
:10135000539F050E50E0511D952F1124808321834A
:1013600092831F91089541110BC0392F2AEA329FB1
:10137000030E30E0311D11249BEA931B280FA5CFEB
:1013800090E02095982F80E0A7CF611112C0411105
:101390000CC0392F2AEA329F030E30E0311D112490
:1013A0002BEA231B95E5930FEECF922F909520E02B
:1013B00093CF411106C025E5280F9BEA981B822F89
:1013C000F6CF2AEA280F90E0932FF8CF9FEF2FEF68
:1013D0008FEFA7CF90E020E080E0C0CF0F931F9366
:1013E000CF93DF932091EF012F5F322F377030932F
:1013F000EF0120FF2BC020E831FD2064347009F09C
:101400002062205FFC01EC01239600E011E064857E
:10141000662329F070E0C8010E9495266F5F6187FE
:10142000322F369F030E30E0311D1124311110C0D0
:101430001682662311F0615061873196EC17FD0723
:1014400031F7DF91CF911F910F91089520E0D4CF14
:1014500031503683EECF4F925F927F928F929F9260
:10146000AF92BF92CF92DF92EF92FF920F931F93B2
:10147000CF93DF932C01EB010E949601F2012785A7
:101480003089621B730B6A307105B0F3F8948A815E
:101490009B81181619060CF0CDC1E881F98165B160
:1014A000862E689483F835B1377F35B9DA848F8119
:1014B0002D2D281B822F2F834F85042E000C550BBA
:1014C000AA81BB817D85FC84EE847F5FF394E394E5
:1014D0009E819884B984AB841181C12C6C2D0C2D14
:1014E0002C2D2181112788942111280F08F42FEF2A
:1014F0008195889470FD120F1795889471FD120FD5
:101500001795889472FD120F1795889473FD120F2A
:101510001795889474FD120F1795889475FD120F16
:101520001795889476FD120F1795889477FD120F02
:1015300017958894622F7111612F8D0D162F002C35
:1015400085B800C000C017FF35B920816627889490
:1015500000C0002C35B92111290F00C0002C85B81E
:1015600000C000C016FF35B908F42FEF919588949C
:1015700000C0002C35B9F0FC620F00C0002C85B80B
:1015800000C000C015FF35B967958894F1FC620F63
:1015900000C0002C35B96795889400C0002C85B830
:1015A00000C000C014FF35B9F2FC620F6795889443
:1015B00000C0002C35B9F3FC620F00C0002C85B8C8
:1015C00000C000C013FF35B967958894F4FC620F22
:1015D00000C0002C35B96795889400C0002C85B8F0
:1015E00000C000C012FF35B9F5FC620F6795889402
:1015F00000C0002C35B9F6FC620F00C0002C85B885
:1016000000C000C011FF35B967958894F7FC620FE0
:1016100000C0002C35B96795889400C0002C85B8AF
:1016200000C000C010FF35B9122FF110162F9B0D0E
:1016300000C0002C35B900C000C0002C85B800C027
:1016400000C017FF35B922816627889400C0002C9E
:1016500035B92111290D00C0002C85B800C000C08B
:1016600016FF35B908F42FEFE40FF51F00C0002C6A
:1016700035B9E0FC620F00C0002C85B800C000C086
:1016800015FF35B967958894E1FC620F00C0002C06
:1016900035B96795889400C0002C85B800C000C09B
:1016A00014FF35B9E2FC620F6795889400C0002CE6
:1016B00035B9E3FC620F00C0002C85B800C000C043
:1016C00013FF35B967958894E4FC620F00C0002CC5
:1016D00035B96795889400C0002C85B800C000C05B
:1016E00012FF35B9E5FC620F6795889400C0002CA5
:1016F00035B9E6FC620F00C0002C85B800C000C000
:1017000011FF35B967958894E7FC620F00C0002C83
:1017100035B96795889400C0002C85B800C000C01A
:1017200010FF35B9122FE110162F919400C0002C34
:1017300035B99A0C00C000C085B800C000C017FFC2
:1017400035B921816627889400C0002C35B9211154
:10175000280F00C0002C85B800C000C016FF35B9A6
:1017600008F42FEF8195889400C0002C35B970FDE6
:10177000620F00C0002C85B800C000C015FF35B94D
:101780006795889471FD620F00C0002C35B967958C
:10179000889400C0002C85B800C000C014FF35B983
:1017A00072FD620F6795889400C0002C35B973FDF7
:1017B000620F00C0002C85B800C000C013FF35B90F
:1017C0006795889474FD620F00C0002C35B9679549
:1017D000889400C0002C85B800C000C012FF35B945
:1017E00075FD620F6795889400C0002C35B976FDB1
:1017F000620F00C0002C85B800C000C011FF35B9D1
:101800006795889477FD620F00C0002C35B9679505
:10181000889400C0002C85B800C000C010FF35B906
:10182000122F7111162F8D0D00C0002C35B9119794
:1018300009F086CE4A815B8120EE31E0DA010E9418
:10184000CB26DC01CB01F4E0B695A795979587955B
:10185000FA95D1F730E020E0B901EAE94E9F040E95
:10186000611D5E9F600D711D1124650F711D860F36
:10187000971FA11DB11D893E43E09407A105B10545
:1018800008F434C0885E9340A109B10942E0B695DE
:10189000A795979587954A95D1F747E0849F080EBD
:1018A000211D949F200D311D1124290F311D6091A0
:1018B000EE0170E0860F971F820F931F4091420246
:1018C000509143026091440270914502292F3327C1
:1018D000420F531F611D711D4093420250934302FA
:1018E00060934402709345028093EE0178940E94C5
:1018F0009601F201708B6787DF91CF911F910F9155
:10190000FF90EF90DF90CF90BF90AF909F908F901F
:101910007F905F904F90089581E090E00895239A22
:1019200008956F927F928F92CF92DF92EF92FF9203
:101930000F931F93CF93DF93CDB7DEB762970FB6A8
:10194000F894DEBF0FBECDBF6C017A013801822E44
:10195000DC011C962C91CA0157FF04C088279927E7
:10196000841B950B7A8369839C838B839E838D83F1
:101970006D867E868F86213049F5CE0101960E94C4
:10198000EE0983E0888B1A8A198AF7FE02C08DEF70
:10199000888BD601ED91FC910684F785E02DBE0180
:1019A0006F5F7F4FC601099562960FB6F894DEBF50
:1019B0000FBECDBFDF91CF911F910F91FF90EF90A0
:1019C000DF90CF908F907F906F9008951C861B863C
:1019D0001A86198618861F82D4CFEF92FF920F9332
:1019E0001F93CF93DF93CDB7DEB762970FB6F8940E
:1019F000DEBF0FBECDBF7C01DC011C968C917A83CB
:101A000069835C834B835E834D830D871E872F879D
:101A10008130F9F4CE0101960E94EE09188A1A8AE3
:101A2000198AD701ED91FC910684F785E02DBE015E
:101A30006F5F7F4FC701099562960FB6F894DEBFBE
:101A40000FBECDBFDF91CF911F910F91FF90EF900F
:101A500008951C861B861A86198618861F82DECF7B
:101A600090E080E00895FC018585968508950F93A8
:101A70001F93CF93DF9300D01F92CDB7DEB7AB019A
:101A800019821A821B82DC01ED91FC910190F08198
:101A9000E02D00E010E020E0BE016F5F7F4F099570
:101AA0000F900F900F90DF91CF911F910F9108959C
:101AB000FC01DB013C912081230F08F42FEF2083F0
:101AC00011963C9111972181230F08F42FEF218368
:101AD00012963C912281230F08F42FEF2283089560
:101AE000FC013081329F030E30E0311D3083FB0159
:101AF0003081329F030E30E0311D3083FA01308196
:101B0000329F030E30E0311D308311240895CF93AE
:101B1000DF93DC018CE390E014969C938E931397F3
:101B200084EF91E016969C938E93159718969C934C
:101B30008E93179780E991E01A969C938E9319974C
:101B40001B961C921B971C961C921C971D961C9210
:101B50001D971E961D921D921D921C925197529692
:101B60001C92529753961C92539712966C9312970D
:101B700011968C9111978F7D877F11968C93119779
:101B8000062E000C770BFB01E65CFE4F8491695931
:101B90007E4FFB0124912223C9F030E0220F331F36
:101BA000F901E45DFE4F45915491F901E25EFE4F6B
:101BB000C591D4912FB7F894FA013081982F909560
:101BC00093239083E8818E2B88832FBF12968C916C
:101BD000129790E0FC01E959FE4FE491F0E0EE0F1E
:101BE000FF1FE75AFE4F2591349155963C932E9353
:101BF0005497FC01E65CFE4FE4915696EC935697A1
:101C000011968C9111978B7E8D7F11968C93DF911D
:101C1000CF910895FC0101900020E9F73197AF01C1
:101C2000481B590BBC0188E592E00C942805CF9322
:101C3000DF93FC01448155816081718188E592E0E8
:101C40000E942805EC018EE891E00E940A0E8C0F9C
:101C50009D1FDF91CF9108958F929F92AF92BF9277
:101C60000F931F93CF93DF93CDB7DEB7A1970FB636
:101C7000F894DEBF0FBECDBF19A2423008F44AE08F
:101C80008E010F5D1F4F842E912CB12CA12CA5012C
:101C900094010E94A926E62FB901CA01EA30F4F4A2
:101CA000E05DD801EE938D01232B242B252B79F7B2
:101CB00090E080E0109719F0CD010E940A0EA196E5
:101CC0000FB6F894DEBF0FBECDBFDF91CF911F914D
:101CD0000F91BF90AF909F908F900895E95CE1CFF6
:101CE000CF93DF932091FC023091FD02232B89F0EA
:101CF000FC01C091F802D091F90260817181CE019E
:101D00000E94EE28009729F08C1B9D0BDF91CF914C
:101D100008958FEF9FEFFACFCF93DF93FC012481DB
:101D200035816217730788F49B01C081D18164E219
:101D300070E0CE01820F931F0E94DC28009729F0EB
:101D40008C1B9D0BDF91CF9108958FEF9FEFFACF02
:101D50000E94CE28FC0180819181009711F00C94A3
:101D6000AD2560E070E0CB0108950F931F93CF93F2
:101D7000DF938C01EB01FC01808191810097E1F000
:101D80006881798161157105A9F0428153812C81A7
:101D90003D814217530770F00E94E7288C819D8196
:101DA000F801958384831D821C82DF91CF911F915E
:101DB0000F9108950E94882788819981F801918365
:101DC00080838A819B81938382838C819D8195838B
:101DD0008483198218821B821A82E5CFCF93DF9306
:101DE000EC0188819981009711F00E94882719825F
:101DF00018821D821C821B821A82DF91CF91089566
:101E0000FC0180819181009711F00C94882708953E
:101E10000F931F93CF93DF93EC01888199810097F3
:101E200059F02A813B812617370730F081E0DF9196
:101E3000CF911F910F9108958B016F5F7F4F0E948B
:101E40001128009759F0998388831B830A832C817A
:101E50003D81232B59F7FC011082E8CF80E0E7CFCA
:101E6000EF92FF920F931F93CF93DF93611571054C
:101E700041F480E0DF91CF911F910F91FF90EF909F
:101E8000089541155105B1F07B01EC010C811D81D4
:101E9000040F151FB8010E94080F882351F32881F1
:101EA00039818C819D81B701820F931F0E94E728A1
:101EB0001D830C8381E0DECFEF92FF920F931F937F
:101EC000CF93DF9300D000D0CDB7DEB77C01862F53
:101ED0004AE08E010F5F1F4FB80190E00E94D425A9
:101EE000F80101900020E9F73197AF01401B510B39
:101EF000B801C7010E94300F0F900F900F900F9004
:101F0000DF91CF911F910F91FF90EF900895EF9285
:101F1000FF920F931F93CF93DF93EC017B018A0114
:101F2000BA010E94080F81110BC0CE010E94EE0E73
:101F3000CE01DF91CF911F910F91FF90EF90089507
:101F40001D830C83B701888199810E94E728F0CF17
:101F5000EF92FF920F931F93CF93DF93CDB7DEB72E
:101F600029970FB6F894DEBF0FBECDBF8C01862F28
:101F7000F8011182108213821282158214824AE0C3
:101F80009E012F5F3F4F7901B90190E00E94F42537
:101F9000F70101900020E9F73197AF014E195F0971
:101FA000B701C8010E94870F29960FB6F894DEBFCB
:101FB0000FBECDBFDF91CF911F910F91FF90EF909A
:101FC0000895CF93DF93EC01FB018617970749F043
:101FD000608171816115710541F0448155810E94D4
:101FE000870FCE01DF91CF9108950E94EE0EF9CFB9
:101FF000FC01118210821382128215821482FB016D
:1020000001900020E9F73197AF01461B570B0C9464
:10201000870FAF92BF92CF92DF92EF92FF920F9312
:102020001F93CF93DF937C016B015A018901241721
:10203000350720F48B2D5901042F182F60E971E02A
:10204000C7010E94F80FD6011496CD91DC91AC1611
:10205000BD0620F50C171D0708F4E801D601ED9127
:10206000FC911197EC0FFD1F108110826D917C91F6
:102070006A0D7B1D61157105E9F0FB0101900020DF
:10208000E9F73197AF01461B570BC7010E94870F35
:10209000F60180819181C80FD91F1883C701DF9194
:1020A000CF911F910F91FF90EF90DF90CF90BF9055
:1020B000AF900895C7010E94EE0EEACFFF920F93F2
:1020C0001F93CF93DF938C01EB01F8800E941E26B3
:1020D000F81621F06F2DC8010E942626CE01DF914F
:1020E000CF911F910F91FF900895909122029F5FD1
:1020F0009431C0F49093220290912202953020F006
:10210000811102C01092220290912202943021F497
:1021100081110BC01092220262E272E087EF93E01D
:102120000C945E1010922202E7CF84E18093220289
:10213000F3CFCF92DF92EF92FF920F931F93CF9343
:10214000DF931F92CDB7DEB761307105B9F024E699
:1021500030E062307105A1F026E930E063307105AE
:1021600091F028EC30E06430710581F030E020E03F
:102170006530710529F42AEF30E00DC022E330E02C
:102180006630710589F16730710589F16830710534
:1021900011F420E931E065E0689F6001699FD00C8F
:1021A00011248A01F12CE12CC20ED31EF80180818A
:1021B0000E5F1F4F8983BE016F5F7F4FC6018E0D7B
:1021C0009F1D0E945E10FFEFEF1AFF0A85E0E816E0
:1021D000F10461F70F90DF91CF911F910F91FF9064
:1021E000EF90DF90CF9008952CE231E0D4CF2EE530
:1021F00031E0D1CFCF93DF93EB010E941E2688837D
:10220000CE01DF91CF910895CF92DF92EF92FF92AE
:102210000F931F93CF93DF9300D000D01F92CDB7C1
:10222000DEB79091ED019923E1F07A01162F082F86
:1022300060E272E085EF93E00E94FA108091200244
:10224000801325C01230E9F480912202843149F0D4
:1022500084E18093220262E272E087EF93E00E94C1
:102260005E101092ED010F900F900F900F900F9055
:10227000DF91CF911F910F91FF90EF90DF90CF9062
:102280000895113071F780E00E947510EACF6E0159
:1022900086E0C80ED11C8E010F5F1F4FE01AF10AB5
:1022A000B801C701800F911F0E94FA10F8016191D7
:1022B0008F01662339F08DED92E00E94E2060C1545
:1022C0001D0571F71092E3021092E4021092E502EC
:1022D0001092E6021092E7021092E8021092E102D8
:1022E00081EE92E00E94CB04BCCFEF92FF920F935D
:1022F0001F93CF93DF931F92CDB7DEB79091ED017F
:102300009923D9F195E0899F8001112482E3689F88
:10231000000D111D11240A561F4FF12CE12CBE0196
:102320006F5F7F4FC701800F911F0E94FA10698174
:10233000662319F18DED92E00E94E20668E270E0FA
:1023400080E090E00E94BB011092E3021092E40250
:102350001092E5021092E6021092E7021092E80253
:102360001092E10281EE92E00E94CB049FEFE91A05
:10237000F90A85E0E816F10491F61092ED010F904C
:10238000DF91CF911F910F91FF90EF900895AF9241
:10239000BF92CF92DF92EF92FF920F931F93CF9352
:1023A000DF93CDB7DEB761970FB6F894DEBF0FBEEF
:1023B000CDBF5C018B017E018DE0E80EF11C85E054
:1023C000F70111928A95E9F760E971E0CE0107966D
:1023D0000E94F80F01301105B9F084E690E0023058
:1023E0001105A1F086E990E00330110599F088EC21
:1023F00090E00430110591F090E080E00530110587
:1024000029F48AEF90E00FC082E390E006301105D6
:1024100009F475C00730110509F474C008301105BE
:1024200011F480E991E025E02A9D60012B9DD00CFC
:1024300011248701F12CE12CC80ED91EB801C60168
:102440008E0D9F1D0E94FA10F4E0EF16F10409F4BE
:102450005CC0F801B0801A8219821C821B821E8225
:102460001D82BE01695F7F4FCE0101960E94E10F80
:102470006B2DCE0101960E945C0F811104C0CE012C
:1024800001960E94EE0E41E050E061E971E0CE015C
:1024900001960E94300F811104C0CE0101960E9466
:1024A000EE0EBE016F5F7F4FCE0107960E94E10FD7
:1024B000CE0101960E94000FFFEFEF1AFF0A0F5F97
:1024C0001F4F85E0E816F10409F0B8CFCE0107965A
:1024D0000E94170ECE0107960E94000F61960FB65C
:1024E000F894DEBF0FBECDBFDF91CF911F910F914A
:1024F000FF90EF90DF90CF90BF90AF9008958CE267
:1025000091E091CF8EE591E08ECFB9881A82198241
:102510001C821B821E821D82BE01695F7F4FCE011D
:1025200001960E94E10F6B2DCE0101960E945C0F77
:10253000B2CFAF92BF92CF92DF92EF92FF920F9302
:102540001F93CF93DF93CDB7DEB766970FB6F8949E
:10255000DEBF0FBECDBF83ED93E00E94B9078CEBC9
:1025600093E00E94B90785EA93E00E94B9078EE8DC
:1025700093E00E94B90787E793E00E94B90780E6DD
:1025800093E00E94B90789E493E00E94B90782E3CF
:1025900093E00E94B9078BE193E00E94B90784E0C1
:1025A00093E00E94B90788E592E00E94D805892B44
:1025B00009F4F8C460E971E0CE0101960E94F80FB9
:1025C0000E94820597FD0FC08A30910561F08B87CC
:1025D0001C8641E050E0BE01655F7F4FCE01019651
:1025E0000E94300FEDCFBE016F5F7F4F88EF92E00A
:1025F0000E94B50ECE0101960E94000F63E971E0C2
:10260000CE0101960E94F80FCE0101960E94700E35
:102610008C01CE0101960E94000F012B21F48EEF58
:1026200092E00E94170E65E971E0CE0101960E94CA
:10263000F80FCE0101960E94700E8C01CE0101961A
:102640000E94000F012B19F481E00E94751067E9C8
:1026500071E0CE0101960E94F80FCE0101960E9412
:10266000700E8C01CE0101960E94000F012B09F023
:1026700095C16AE971E0CE0101960E94F80FCE0182
:1026800001960E94700E8C01CE0101960E94000FEF
:10269000012BE1F426E030E043E050E068EF72E027
:1026A000CE0101960E940910CE0101960E94AA0E49
:1026B0006B017093EC016093EB01CE0101960E94D7
:1026C000000F70E060E0C6010E94C7116EE971E082
:1026D000CE0101960E94F80FCE0101960E94700E65
:1026E0008C01CE0101960E94000F012BE1F426E03F
:1026F00030E043E050E068EF72E0CE0101960E94C6
:102700000910CE0101960E94AA0E6B017093EC0194
:102710006093EB01CE0101960E94000F61E070E032
:10272000C6010E94C71162EA71E0CE0101960E94C3
:10273000F80FCE0101960E94700E8C01CE01019619
:102740000E94000F012BE1F426E030E043E050E06E
:1027500068EF72E0CE0101960E940910CE01019649
:102760000E94AA0E6B017093EC016093EB01CE0105
:1027700001960E94000F62E070E0C6010E94C7113E
:1027800066EA71E0CE0101960E94F80FCE01019633
:102790000E94700E8C01CE0101960E94000F012B49
:1027A000E1F426E030E043E050E068EF72E0CE0173
:1027B00001960E940910CE0101960E94AA0E6B019B
:1027C0007093EC016093EB01CE0101960E94000F23
:1027D00063E070E0C6010E94C7116AEA71E0CE01B1
:1027E00001960E94F80FCE0101960E94700E8C0196
:1027F000CE0101960E94000F012BE1F426E030E0AB
:1028000044E050E068EF72E0CE0101960E940910AA
:10281000CE0101960E94AA0E6B017093EC016093A9
:10282000EB01CE0101960E94000F64E070E0C6014A
:102830000E94C7116FEA71E0CE0101960E94F80F65
:10284000CE0101960E94700E8C01CE0101960E946D
:10285000000F012BE1F426E030E044E050E068EFA7
:1028600072E0CE0101960E940910CE0101960E94ED
:10287000AA0E6B017093EC016093EB01CE010196FF
:102880000E94000F65E070E0C6010E94C71164EB72
:1028900071E0CE0101960E94F80FCE0101960E94D0
:1028A000700E8C01CE0101960E94000F012BE1F405
:1028B00026E030E044E050E068EF72E0CE0101969F
:1028C0000E940910CE0101960E94AA0E6B0170931E
:1028D000EC016093EB01CE0101960E94000F66E0CF
:1028E00070E0C6010E94C71169EB71E0CE0101964C
:1028F0000E94F80FCE0101960E94700E8C01CE014D
:1029000001960E94000F012BE1F426E030E044E044
:1029100050E068EF72E0CE0101960E940910CE01EE
:1029200001960E94AA0E6B017093EC016093EB017B
:10293000CE0101960E94000F67E070E0C6010E9480
:10294000C7116EEB71E0CE0101960E94F80FCE0127
:1029500001960E94700E8C01CE0101960E94000F1C
:10296000012BE1F426E030E044E050E068EF72E053
:10297000CE0101960E940910CE0101960E94AA0E76
:102980006B017093EC016093EB01CE0101960E9404
:10299000000F68E070E0C6010E94C71163EC71E0AF
:1029A000CE0101960E94F80FCE0101960E94700E92
:1029B0008C01CE0101960E94000F012B61F4609101
:1029C000200270E090E080E04AE00E942C0E8EE849
:1029D00091E00E940A0E61E971E0CE0101960E9429
:1029E000F80FCE0101960E94700E8C01CE01019667
:1029F0000E94000F012BE9F44AE061E070E080E002
:102A000090E00E942C0E6EE288E592E00E943E0566
:102A10004AE060E070E0CB010E942C0E4AE066E0E4
:102A200070E080E090E00E942C0E8EE891E00E9421
:102A30000A0E65EC71E0CE0101960E94F80FCE01FE
:102A400001960E94700E8C01CE0101960E94000F2B
:102A5000012B61F460911F0270E090E080E04AE099
:102A60000E942C0E8EE891E00E940A0E67EC71E045
:102A7000CE0101960E94F80FCE0101960E94700EC1
:102A80008C01CE0101960E94000F012B09F044C079
:102A90002091FC023091FD0241E050E068EF72E0CD
:102AA000CE0101960E940910CE0101960E94AA0E45
:102AB00060931F02CE0101960E94000F6FE172E049
:102AC00084EF93E00E945E1083ED93E00E94C308C0
:102AD0008CEB93E00E94C30885EA93E00E94C30850
:102AE0008EE893E00E94C30887E793E00E94C30842
:102AF00080E693E00E94C30889E493E00E94C30843
:102B000082E393E00E94C3088BE193E00E94C30834
:102B100084E093E00E94C30869EC71E0CE01019665
:102B20000E94F80FCE0101960E94700E8C01CE011A
:102B300001960E94000F0115110509F041C0209176
:102B4000FC023091FD0241E050E068EF72E0CE01FE
:102B500041960E940910CE0101966C01B801CE0188
:102B600041960E948C0E7C019FEFE916F906C9F090
:102B70009701A801BE016F5E7F4FCE010B960E94A8
:102B80000910CE010B960E94AA0EF6016193719373
:102B90006F0187010F5F1F4FCE010B960E94000F40
:102BA000DDCFAE014F5F5F4F70E060E08091EB01E1
:102BB0009091EC010E949910CE0141960E94000F65
:102BC0006BEC71E0CE0101960E94F80FCE010196E8
:102BD0000E94700E8C01CE0101960E94000F01151B
:102BE000110509F041C02091FC023091FD0241E045
:102BF00050E068EF72E0CE0141960E940910CE01CC
:102C000001966C01B801CE0141960E948C0E7C01A8
:102C10009FEFE916F906C9F09701A801BE016F5EA2
:102C20007F4FCE010B960E940910CE010B960E9499
:102C3000AA0EF601619371936F0187010F5F1F4F19
:102C4000CE010B960E94000FDDCFAE014F5F5F4FAC
:102C500061E070E08091EB019091EC010E9499108D
:102C6000CE0141960E94000F6DEC71E0CE010196FD
:102C70000E94F80FCE0101960E94700E8C01CE01C9
:102C800001960E94000F0115110509F041C0209125
:102C9000FC023091FD0241E050E068EF72E0CE01AD
:102CA00041960E940910CE0101966C01B801CE0137
:102CB00041960E948C0E7C019FEFE916F906C9F03F
:102CC0009701A801BE016F5E7F4FCE010B960E9457
:102CD0000910CE010B960E94AA0EF6016193719322
:102CE0006F0187010F5F1F4FCE010B960E94000FEF
:102CF000DDCFAE014F5F5F4F62E070E08091EB018E
:102D00009091EC010E949910CE0141960E94000F13
:102D10006FEC71E0CE0101960E94F80FCE01019692
:102D20000E94700E8C01CE0101960E94000F0115C9
:102D3000110509F041C02091FC023091FD0241E0F3
:102D400050E068EF72E0CE0141960E940910CE017A
:102D500001966C01B801CE0141960E948C0E7C0157
:102D60009FEFE916F906C9F09701A801BE016F5E51
:102D70007F4FCE010B960E940910CE010B960E9448
:102D8000AA0EF601619371936F0187010F5F1F4FC8
:102D9000CE010B960E94000FDDCFAE014F5F5F4F5B
:102DA00063E070E08091EB019091EC010E9499103A
:102DB000CE0141960E94000F61ED71E0CE010196B7
:102DC0000E94F80FCE0101960E94700E7C01CE0188
:102DD00001960E94000FE114F10409F09BC063ED1D
:102DE00071E0CE0101960E94F80FCE0101960E947B
:102DF000000F66ED71E0CE0101960E94F80FCE0142
:102E000001960E94700E8C01CE0101960E94000F67
:102E1000012B09F46EC004E010E069ED71E0CE0111
:102E200001960E94F80FCE0101960E94700E6C016F
:102E3000CE0101960E94000FCD2811F406E010E0AB
:102E40006CED71E0CE0101960E94F80FCE01019663
:102E50000E94700E6C01CE0101960E94000FCD28D9
:102E600011F407E010E06FED71E0CE0101960E94D1
:102E7000F80FCE0101960E94700E6C01CE010196F2
:102E80000E94000FCD2811F408E010E02091FC0210
:102E90003091FD0242E050E068EF72E0CE014196D1
:102EA0000E940910CE0101965C01B701CE01419646
:102EB0000E948C0E6C019FEFC916D906E9F09601AD
:102EC000A701BE016F5E7F4FCE010B960E940910D5
:102ED000CE010B960E94AA0EF501619371935F01DA
:102EE0007601FFEFEF1AFF0ACE010B960E94000F4A
:102EF000DCCF05E010E091CFAE014F5F5F4FB8012E
:102F00008091EB019091EC010E949910CE014196C5
:102F10000E94000F62EE71E0CE0101960E94F80F50
:102F2000CE0101960E94700E8C01CE0101960E9486
:102F3000000F012BB9F52091FC023091FD0241E018
:102F400050E068EF72E0CE0101960E940910CE01B8
:102F500001960E94AA0E8B01CE0101960E94000FDD
:102F600085EF93E00E941E26801729F0602F85EFE1
:102F700093E00E94262686EF93E00E941E2681178A
:102F800029F0612F86EF93E00E94262664E670E028
:102F900080E090E00E94BB0160E272E085EF93E088
:102FA0000E94FA1080911F02811139C583ED93E0D0
:102FB0000E9402098823B9F01092EA0111E01093EF
:102FC000E9010E94ED016093020170930301809377
:102FD0000401909305011093ED0150E040E061E0A1
:102FE00080E00E94041183ED93E00E941C09882375
:102FF000C1F01092EA0182E08093E9010E94ED01A4
:103000006093020170930301809304019093050182
:1030100081E08093ED0142E350E062E080E00E94B5
:10302000041183ED93E00E94E8088823C1F0109218
:10303000EA0183E08093E9010E94ED0160930201BF
:1030400070930301809304019093050181E08093C4
:10305000ED0144E650E063E080E00E94041183ED5E
:1030600093E00E94CE088823C1F01092EA0184E028
:103070008093E9010E94ED016093020170930301C6
:10308000809304019093050181E08093ED0146E96E
:1030900050E064E080E00E9404118CEB93E00E9419
:1030A00002098823B9F011E01093EA011093E901B5
:1030B0000E94ED016093020170930301809304016B
:1030C000909305011093ED0145E050E061E081E04F
:1030D0000E9404118CEB93E00E941C098823C1F02C
:1030E00011E01093EA0182E08093E9010E94ED0172
:1030F0006093020170930301809304019093050192
:103100001093ED0147E350E062E081E00E9404117A
:103110008CEB93E00E94E8088823C1F011E0109343
:10312000EA0183E08093E9010E94ED0160930201CE
:103130007093030180930401909305011093ED01B6
:1031400049E650E063E081E00E9404118CEB93E0DB
:103150000E94CE088823C1F011E01093EA0184E0B8
:103160008093E9010E94ED016093020170930301D5
:1031700080930401909305011093ED014BE950E019
:1031800064E081E00E94041185EA93E00E94020954
:103190008823C1F082E08093EA0111E01093E901F5
:1031A0000E94ED016093020170930301809304017A
:1031B000909305011093ED014AE050E061E082E058
:1031C0000E94041185EA93E00E941C098823C1F043
:1031D00082E08093EA018093E9010E94ED0160930F
:1031E000020170930301809304019093050181E033
:1031F0008093ED014CE350E062E082E00E94041114
:1032000085EA93E00E94E8088823C9F082E0809371
:10321000EA0183E08093E9010E94ED0160930201DD
:1032200070930301809304019093050181E08093E2
:10323000ED014EE650E063E082E00E94041185EA71
:1032400093E00E94CE088823C9F082E08093EA01CF
:1032500084E08093E9010E94ED0160930201709384
:103260000301809304019093050181E08093ED01B7
:1032700040EA50E064E082E00E9404118EE893E0AE
:103280000E9402098823C1F083E08093EA0111E0E3
:103290001093E9010E94ED01609302017093030114
:1032A00080930401909305011093ED014FE050E0ED
:1032B00061E083E00E9404118EE893E00E941C0903
:1032C0008823C9F083E08093EA0182E08093E901DA
:1032D0000E94ED0160930201709303018093040149
:1032E0009093050181E08093ED0141E450E062E0BC
:1032F00083E00E9404118EE893E00E94E80888238E
:10330000C1F083E08093EA018093E9010E94ED011E
:10331000609302017093030180930401909305016F
:1033200081E08093ED0143E750E063E083E00E9499
:1033300004118EE893E00E94CE088823C9F083E050
:103340008093EA0184E08093E9010E94ED0160939B
:10335000020170930301809304019093050181E0C1
:103360008093ED0145EA50E064E083E00E9404119F
:1033700087E793E00E941C098823C9F084E08093CA
:10338000EA0182E08093E9010E94ED01609302016D
:1033900070930301809304019093050181E0809371
:1033A000ED0146E450E062E084E00E94041187E70A
:1033B00093E00E9402098823C1F084E08093EA012F
:1033C00011E01093E9010E94ED01609302017093F6
:1033D000030180930401909305011093ED0144E1F2
:1033E00050E061E084E00E94041187E793E00E94CE
:1033F000E8088823C9F084E08093EA0183E08093A1
:10340000E9010E94ED016093020170930301809332
:1034100004019093050181E08093ED0148E750E0BD
:1034200063E084E00E94041187E793E00E94CE08E5
:103430008823C1F084E08093EA018093E9010E942F
:10344000ED01609302017093030180930401909356
:10345000050181E08093ED014AEA50E064E084E0F8
:103460000E94041180E693E00E9402098823C1F0C3
:1034700085E08093EA0111E01093E9010E94ED01DB
:1034800060930201709303018093040190930501FE
:103490001093ED0149E150E061E085E00E940411E4
:1034A00080E693E00E941C098823C9F085E08093A0
:1034B000EA0182E08093E9010E94ED01609302013C
:1034C00070930301809304019093050181E0809340
:1034D000ED014BE450E062E085E00E94041180E6DB
:1034E00093E00E94E8088823C9F085E08093EA0110
:1034F00083E08093E9010E94ED01609302017093E3
:103500000301809304019093050181E08093ED0114
:103510004DE750E063E085E00E94041180E693E00F
:103520000E94CE088823C9F085E08093EA0184E0F8
:103530008093E9010E94ED01609302017093030101
:10354000809304019093050181E08093ED014FEA9F
:1035500050E064E085E00E94041189E493E00E9459
:1035600002098823C1F086E08093EA0111E01093FC
:10357000E9010E94ED0160930201709303018093C1
:103580000401909305011093ED014EE150E061E0DC
:1035900086E00E94041189E493E00E941C098823BC
:1035A000C9F086E08093EA0182E08093E9010E94FD
:1035B000ED016093020170930301809304019093E5
:1035C000050181E08093ED0140E550E062E086E096
:1035D0000E94041189E493E00E94E8088823C9F05E
:1035E00086E08093EA0183E08093E9010E94ED0187
:1035F000609302017093030180930401909305018D
:1036000081E08093ED0142E850E063E086E00E94B3
:10361000041189E493E00E94CE088823C9F086E073
:103620008093EA0184E08093E9010E94ED016093B8
:10363000020170930301809304019093050181E0DE
:103640008093ED0144EB50E064E086E00E940411B9
:1036500082E393E00E9402098823C1F087E080930F
:10366000EA0111E01093E9010E94ED01609302016B
:103670007093030180930401909305011093ED0171
:1036800043E250E061E087E00E94041182E393E0AE
:103690000E941C098823C9F087E08093EA0182E038
:1036A0008093E9010E94ED01609302017093030190
:1036B000809304019093050181E08093ED0145E53D
:1036C00050E062E087E00E94041182E393E00E94F0
:1036D000E8088823C9F087E08093EA0183E08093BB
:1036E000E9010E94ED016093020170930301809350
:1036F00004019093050181E08093ED0147E850E0DB
:1037000063E087E00E94041182E393E00E94CE0808
:103710008823C9F087E08093EA0184E08093E9017F
:103720000E94ED01609302017093030180930401F4
:103730009093050181E08093ED0149EB50E064E056
:1037400087E00E9404118BE193E00E940209882324
:10375000C1F088E08093EA0111E01093E9010E9432
:10376000ED01609302017093030180930401909333
:1037700005011093ED0148E250E061E088E00E940D
:1037800004118BE193E00E941C098823C9F088E0B2
:103790008093EA0182E08093E9010E94ED01609349
:1037A000020170930301809304019093050181E06D
:1037B0008093ED014AE550E062E088E00E94041148
:1037C0008BE193E00E94E8088823C9F088E08093A9
:1037D000EA0183E08093E9010E94ED016093020118
:1037E00070930301809304019093050181E080931D
:1037F000ED014CE850E063E088E00E9404118BE1A9
:1038000093E00E94CE088823C9F088E08093EA0103
:1038100084E08093E9010E94ED01609302017093BE
:103820000301809304019093050181E08093ED01F1
:103830004EEB50E064E088E00E94041184E093E0E5
:103840000E9402098823C1F089E08093EA0111E017
:103850001093E9010E94ED0160930201709303014E
:1038600080930401909305011093ED014DE250E027
:1038700061E089E00E94041184E093E00E941C0949
:103880008823C9F089E08093EA0182E08093E9010E
:103890000E94ED0160930201709303018093040183
:1038A0009093050181E08093ED014FE550E062E0E7
:1038B00089E00E94041184E093E00E94E8088823D4
:1038C000C9F089E08093EA0183E08093E9010E94D6
:1038D000ED016093020170930301809304019093C2
:1038E000050181E08093ED0141E950E063E089E06A
:1038F0000E94041184E093E00E94CE088823C9F05E
:1039000089E08093EA0184E08093E9010E94ED015F
:103910006093020170930301809304019093050169
:1039200081E08093ED0143EC50E064E089E00E9487
:1039300004118091220281114EC10E94ED0100917B
:10394000E5011091E6012091E7013091E801601B4B
:10395000710B820B930B643171058105910540F168
:103960000E94ED016093E5017093E6018093E70109
:103970009093E80193E2E92E92E0F92E00E0DD2435
:10398000DA941091E401812F800F8983DA82DB823F
:10399000B701CE0101960E9444090E5F23E0E20EBA
:1039A000F11C043171F71F5F1093E4010E94F901CB
:1039B0000091E9011091EA010E94ED01C09002011D
:1039C000D0900301E0900401F09005016C197D098D
:1039D0008E099F09653F71408105910578F401309A
:1039E00009F04FC283E0189FF0011124ED5DFD4FF7
:1039F00010828FEF818312820E94F90166960FB6C2
:103A0000F894DEBF0FBECDBFDF91CF911F910F9114
:103A1000FF90EF90DF90CF90BF90AF90089583ED2F
:103A200093E00E943009882309F48FC081E08093DD
:103A3000ED0160911F0280E00E9475118CEB93E014
:103A40000E943009882309F487C081E08093ED014A
:103A500060911F020E94751185EA93E00E9430096F
:103A6000882309F480C081E08093ED0160911F02FA
:103A700082E00E9475118EE893E00E94300988234D
:103A800009F478C081E08093ED0160911F0283E02A
:103A90000E94751187E793E00E943009882309F49A
:103AA00070C081E08093ED0160911F0284E00E946C
:103AB000751180E693E00E943009882309F468C0FC
:103AC00081E08093ED0160911F0285E00E947511F5
:103AD00089E493E00E943009882309F460C081E002
:103AE0008093ED0160911F0286E00E94751182E3D0
:103AF00093E00E943009882309F458C081E0809344
:103B0000ED0160911F0287E00E9475118BE193E047
:103B10000E943009882309F450C081E08093ED01B0
:103B200060911F0288E00E94751184E093E00E947A
:103B30003009882309F448C081E08093ED01609149
:103B40001F0289E00E947511F4CE83ED93E00E947C
:103B5000860881116BCF72CF8CEB93E00E948608B0
:103B6000811173CF79CF85EA93E00E948608811195
:103B70007ACF81CF8EE893E00E948608811182CFB0
:103B800089CF87E793E00E94860881118ACF91CF81
:103B900080E693E00E948608811192CF99CF89E454
:103BA00093E00E94860881119ACFA1CF82E393E02F
:103BB0000E9486088111A2CFA9CF8BE193E00E94D9
:103BC00086088111AACFB1CF84E093E00E948608D5
:103BD0008111B2CFAECE813009F090C00E94ED01CC
:103BE0006093E5017093E6018093E7019093E8010B
:103BF00003E212E081E4E82E82E0F82EA8014E5F95
:103C00005F4FB8016F5F7F4F2DEFC8010E94700DAD
:103C10000D5F1F4FE016F10689F70E94ED019B0131
:103C2000AC0160E078E38EE090E00E948526AC0174
:103C300066277727CA01B3E096958795BA95E1F78D
:103C400097709A0122273074232B31F02FEF37E041
:103C5000F901E81BF90BCF01E92FEE0FEE0FF0E0B1
:103C6000E15EFE4F2081318186959281899F200DF2
:103C7000311D112457FF03C031952195310930586A
:103C800049E050E0249FC001359FD00160E0349F9F
:103C9000900DA11DB61F259F900DA11DB61F1124CB
:103CA000820F931FA61FB61FCD01AA27BB278C0129
:103CB0008530910524F00EE010E0081B190B80916F
:103CC000E40191E0980F9093E4018B878FEF8C874C
:103CD00080EC8D87BE016F5F7F4FCE010B960E94F7
:103CE0004409C801880F991F800F911FBE016F5FA3
:103CF0007F4F8D5D9D4F0E94580D58CE823009F048
:103D0000E5C00E94ED010091E5011091E6012091CE
:103D1000E7013091E801601B710B820B930B663455
:103D200071058105910508F443CE0E94ED01609371
:103D3000E5017093E6018093E7019093E80163E267
:103D4000E62E62E0F62E71E4C72E72E0D72E8701D0
:103D5000A8014E5F5F4FB8016F5F7F4F2AEFC80128
:103D60000E94700D0D5F1F4FC016D10689F7DD242C
:103D7000DA948091E40191E0980F9093E4018983B3
:103D8000DA82DB82B701CE0101960E9444090E94CB
:103D9000F901F3E0EF0EF11C0E151F0551F708CEE7
:103DA0000E94ED010091E5011091E6012091E701EB
:103DB0003091E801601B710B820B930B643171052C
:103DC0008105910508F4F4CD0E94ED016093E501B1
:103DD0007093E6018093E7019093E8018091E401FC
:103DE00091E0980F9093E40189838FEF8B8380EFAC
:103DF0008A8303E212E051E4E52E52E0F52EB80189
:103E0000CE0101960E9444098981895F89830D5FF3
:103E10001F4FE016F10699F7209100013091010142
:103E200045E058E0249FC001259F900D349F900DE0
:103E30001124875E994C9093010180930001292FF2
:103E4000280F203508F0B2CD2FEF29832A832B834A
:103E5000849F9001859F300D949F300D1124275E23
:103E6000394C3093010120930001AAE0B0E00E9498
:103E70007626AA27BB279C01220F331F820F931F90
:103E800035CF023059F493E0199FF0011124ED5D14
:103E9000FD4F108211828FEF8283AECD033049F443
:103EA000109FF0011124ED5DFD4F8FEF8083118293
:103EB000A2CD043009F0A0CD23E0129FF00111241F
:103EC000ED5DFD4F86E980838183E6CF833009F481
:103ED00067CF843109F06CCD0E94ED016093E5015C
:103EE0007093E6018093E7019093E80103E212E00A
:103EF00081E4E82E82E0F82E19821A821B82B80132
:103F0000CE0101960E9444090D5F1F4FE016F10695
:103F100099F74CCD1F920F920FB60F9211242F9349
:103F20003F938F939F93AF93BF9380914202909161
:103F30004302A0914402B09145023091410223E036
:103F4000230F2D3758F50196A11DB11D2093410275
:103F50008093420290934302A0934402B09345029F
:103F60008091460290914702A0914802B091490287
:103F70000196A11DB11D8093460290934702A09324
:103F80004802B0934902BF91AF919F918F913F91A9
:103F90002F910F900FBE0F901F90189526E8230FBA
:103FA0000296A11DB11DD2CF1F920F920FB60F9294
:103FB00011248F939F938091E1009091E100937F72
:103FC0009093E10083FF0FC01092E90091E090937D
:103FD000EB001092EC0092E39093ED0010924B02F4
:103FE00098E09093F00082FF22C093E09093E90064
:103FF0009091F200992319F09AE39093E800909140
:104000000102992341F09091010291509093010295
:10401000911101C05D9890914A02992341F09091CD
:104020004A02915090934A02911101C0289884FF4E
:1040300018C08091E2008E7E81608093E2008091C2
:10404000E1008F7E8093E100809102028E7E80618C
:10405000809302029F918F910F900FBE0F901F903F
:10406000189580FFF7CF8091E2008E7E806180936B
:10407000E2008091E1008E7E8093E1008091020257
:104080008E7E8160E5CF1F920F920FB60F921124A2
:10409000CF92DF92EF92FF920F931F932F933F9354
:1040A0004F935F936F937F938F939F93AF93BF9340
:1040B000EF93FF93CF93DF93CDB7DEB76C97DEBF5F
:1040C000CDBF1092E9008091E80083FF25C068E031
:1040D000CE0145960E94410482EF8093E8008D89CD
:1040E00087FF39C09091E80090FFFCCF982F907621
:1040F00009F034C19E894F89588D2F89F88C911110
:1041000031C0803861F5809103028093F1001092F4
:10411000F1008EEF8093E8006C960FB6F894DEBF46
:104120000FBECDBFDF91CF91FF91EF91BF91AF91C6
:104130009F918F917F916F915F914F913F912F91BF
:104140001F910F91FF90EF90DF90CF900F900FBED7
:104150000F901F9018959EEF9093E800C7CF109294
:10416000F100D5CF913059F48111D3CF41305105B1
:1041700081F6809103028D7F80930302CACF933032
:1041800049F48111C6CF4130510519F680910302DF
:104190008260F2CF953041F48091E80080FFFCCF3F
:1041A00020682093E300B5CF963009F0A9C00B8DAD
:1041B0001C8D22E01092E9001092FF011092FE0186
:1041C000F2122EC01092FD011092FC010E94F70421
:1041D0001F8299E09983FA8291E09E8390EA988702
:1041E0009AEF99872091FE013091FF01275F3F4FA1
:1041F0003C832B838D831092E9001092FF01109273
:10420000FE011093FD010093FC0149E050E0BE0166
:104210006F5F7F4F80E00E9470030E94F70479CFA8
:104220001093FD010093FC010E944E04DC011296E4
:104230000D911C910115110509F451C1D801ED91A1
:10424000FC910480F581E02DBE016B5E7F4FC801BB
:104250000995009709F03EC1F80100851185EACF64
:10426000F3E0FF120EC08F89882309F440C082302A
:1042700061F440E86DE080E191E00E943D0381112E
:1042800048CF81E28093EB0047CF813029F440E8AA
:104290006BE084E091E0F1CF833099F70E944E0407
:1042A000DC011296ED90FC908E010F5F1F4F6801AC
:1042B000E114F10479F0D701ED91FC910680F781CA
:1042C000E02DB801C7010995080F111DF701E08421
:1042D000F184EECFD8011C92F60101900020E9F79D
:1042E0003197BF016C197D0940E0C601C6CF6EEE63
:1042F00070E0FB01449150E080E80E94700309CF18
:10430000973009F4BECF983021F481E08093F1001A
:1043100000CF993009F0FDCE837009F0B2CFE3E110
:10432000F1E081E031E096E32191222371F0809366
:10433000E9003093EB00DF0111972C912093EC0002
:104340009093ED008F5F873079F78EE78093EA00D6
:104350001092EA008F8980934B02DBCE8B8D9C8D6F
:104360001092E9001092FF011092FE019093FD015E
:104370008093FC01898D811192C08E899D89913A2B
:1043800049F4813209F07DCF47E050E06AE071E006
:1043900080E0B3CF913209F074CF833269F48F8912
:1043A000988DB0E0A0E08093060190930701A09360
:1043B0000801B0930901ADCE803269F48091E80024
:1043C00082FFFCCF67E08AE091E00E9441048BEF1E
:1043D0008093E8009ECE823209F09BCE8F89809335
:1043E0001101EEEFFFE7859194918B3F9C4D51F1C8
:1043F000E0E0F8E080910A0190910B01A0910C019E
:10440000B0910D01803B9440A105B105F1F480917C
:10441000110180FD1AC0EE3F8AE0F80789F587E7B1
:1044200097E791838083809160008093000288E108
:104430009BE00FB6F894A895809360000FBE909310
:10444000600067CEEEEFFAE0D5CF808191818737AB
:10445000974709F05ECEA8958091600088618093AF
:1044600060008091000280936000EE3F2AE0F20736
:1044700089F08091FE0A9091FF0A9183808349CE52
:10448000808191818737980751F29093FF0A80933A
:10449000FE0AC5CF1092FF0A1092FE0A3ACE0E9481
:1044A0004E04DC0112960D911C910115110509F4C1
:1044B000E8CED801ED91FC910190F081E02DBE0194
:1044C0006B5E7F4FC8010995811123CEF8010085ED
:1044D0001185EBCF181619060CF41BCED2CEF1E0E5
:1044E000FF12BECE62EF70E004CF10925B0210921A
:1044F0005A0288EE93E0A0E0B0E080935C029093D3
:104500005D02A0935E02B0935F0284E791E0909316
:104510005902809358028FEF9FEF9093650280932A
:1045200064028091AE02811113C01092A902109210
:10453000A80286E891E09093AB028093AA028BE4F4
:1045400090E09093AD028093AC0281E08093AE0244
:104550008091C702811105C00E94620481E08093AE
:10456000C702E091C102F091C202309709F0B4C0D5
:1045700088EA92E09093C2028093C1028091C302C4
:104580009091C4022091AC023091AD02820F931F32
:104590009093C4028093C3021092E0021092DF0253
:1045A00086E891E09093DE028093DD028091D5024F
:1045B000811113C01092D0021092CF0281E592E0D7
:1045C0009093D2028093D1028FE290E09093D40234
:1045D0008093D30281E08093D5028091C70281113C
:1045E00005C00E94620481E08093C702E091C1028D
:1045F000F091C202309709F079C08FEC92E090936D
:10460000C2028093C1028091C3029091C4022091A2
:10461000D3023091D402820F931F9093C4028093EF
:10462000C30281ED91E09093EA028093E9028FEF5B
:104630008093EB021092ED021092EC021092F702BE
:104640001092F6028FEF9FEFDC018093F2029093BD
:10465000F302A093F402B093F50262E083ED93E0DD
:104660000E94870D63E08CEB93E00E94870D64E06D
:1046700085EA93E00E94870D65E08EE893E00E9452
:10468000870D66E087E793E00E94870D67E080E68C
:1046900093E00E94870D68E089E493E00E94870D13
:1046A00069E082E393E00E94870D6AE08BE193E08A
:1046B0000E94870D60E184E093E00E94870D60E92D
:1046C00071E08EEF92E00E94F80F60E971E088EFF0
:1046D00092E00C94F80FFC01808191810097D9F74A
:1046E00088EA92E09183808349CFFC0180819181A7
:1046F0000097D9F78FEC92E09183808384CFCF939A
:10470000DF93CDB7DEB72D970FB6F894DEBF0FBE9F
:10471000CDBF789484B5826084BD84B5816084BD4A
:1047200085B5826085BD85B5816085BD80916E004F
:10473000816080936E001092810080918100826080
:1047400080938100809181008160809381008091BD
:1047500080008160809380008091910082608093CE
:1047600091008091910081608093910080919000F0
:104770008160809390008091C10084608093C1002B
:104780008091C10082608093C1008091C1008160EE
:104790008093C1008091C30081608093C3008091A9
:1047A000C00082608093C0008091C20081608093CD
:1047B000C20080917A00846080937A0080917A00B0
:1047C000826080937A0080917A00816080937A0081
:1047D00080917A00806880937A0010924B02109248
:1047E0000302109202028091D70081608093D7006B
:1047F00080EA8093D80089B5806189BD89B58260DF
:1048000089BD09B400FEFDCF61E070E080E090E07A
:104810000E94BB018091D8008F7C80618093D8007A
:104820008091E000807F8093E0008091E1008E7EA7
:104830008093E1008DE08093E200559A209A5D9884
:10484000289884E690E09093DB038093DA039093BA
:10485000C4038093C3039093AD038093AC03909300
:1048600096038093950390937F0380937E039093A8
:104870006803809367039093510380935003909350
:104880003A038093390390932303809322039093F8
:104890000C0380930B0388E290E09093DD038093F8
:1048A000DC039093C6038093C5039093AF0380937A
:1048B000AE03909398038093970390938103809322
:1048C000800390936A0380936903909353038093CA
:1048D000520390933C0380933B0390932503809372
:1048E000240390930E0380930D0384E190E0909352
:1048F000D7038093D6039093C0038093BF03909314
:10490000A9038093A80390939203809391039093BB
:104910007B0380937A039093640380936303909363
:104920004D0380934C03909336038093350390930B
:104930001F0380931E0390930803809307038091C5
:104940001702811145C010920902109208028FEFE0
:1049500080930C0280930D0280930E0280930F02CD
:10496000809310028093110281E0809312021092D2
:1049700014021092130210920B0210920A028091FC
:10498000520290915302892B31F486E092E0909389
:10499000530280935202E0910402F0910502309795
:1049A00021F086E092E09583848386E092E0909304
:1049B000050280930402109216021092150284E5FB
:1049C00091E0909307028093060281E080931702A2
:1049D000239A83E292E090930902809308028AE08E
:1049E00090E090931402809313028091EE029091D4
:1049F000EF02A091F002B091F102843C29E092070D
:104A0000A105B10520F484EC99E0A0E0B0E080932A
:104A1000EE029093EF02A093F002B093F1028FEFB9
:104A200080930C0280EB80930D0280EF80930E0246
:104A300086E48093EB028FEF9FEF90936502809363
:104A4000640260ED77E080E090E00E94BB0181EDC0
:104A500091E09093EA028093E90262E272E087EFCC
:104A600093E00E94FA1061E272E086EF93E00E9408
:104A7000FA1060E272E085EF93E00E94FA106FE1B5
:104A800072E084EF93E00E94FA1008EF13E0BE0199
:104A9000635F7F4FC8010E94FA10809102039091DA
:104AA0000303892B41F06D85E091FE02F091FF0236
:104AB0008081811120C06D85CE0101960E94A80FD2
:104AC000BE016F5F7F4F8EEF92E00E94B50ECE0168
:104AD00001960E94000F0F5F1F4F011584E0180719
:104AE000B1F600E010E00E94991201151105D9F30A
:104AF0000E940000F8CFCE0101960E94A80F1886F0
:104B00001F821A8619861C861B866EEF72E0CE0104
:104B100007960E94E10F4D815E8169817A81CE0105
:104B200007960E94300F811104C0CE0107960E94A3
:104B3000EE0EBE01695F7F4F8EEF92E00E94E10FA3
:104B4000CE0107960E94000FC2CF88EF92E00E942C
:104B5000000F8EEF92E00C94000F1F93FC01992739
:104B60008827BC01E89411911032E9F3193010F054
:104B70001E30C8F31B3251F01D3249F4689406C050
:104B80000E94DF25610F711D811D911D1191105330
:104B90001A30B0F33EF490958095709561957F4FF3
:104BA0008F4F9F4F1F910895BB274A3031F49923AF
:104BB00022F4BDE2909581959F4F0C94F525592FD5
:104BC000482F372F262F660F771F881F991F660FD4
:104BD000771F881F991F620F731F841F951F660F11
:104BE000771F881F991F0895BB27FB015527AA2708
:104BF000880F991FAA1FA41710F0A41B839550516A
:104C0000B9F7A05DAA3308F0A95DA193009779F7E1
:104C1000B111B1931192CB010C940E26DC01FC0171
:104C2000672F71917723E1F7329704C07C916D93E0
:104C300070836291AE17BF07C8F30895F999FECF4C
:104C400092BD81BDF89A992780B50895262FF999CC
:104C5000FECF1FBA92BD81BD20BD0FB6F894FA9A5F
:104C6000F99A0FBE019608950E947626A59F900D91
:104C7000B49F900DA49F800D911D112408952F9233
:104C80003F924F925F926F927F928F929F92AF92DC
:104C9000BF92CF92DF92EF92FF920F931F93CF9329
:104CA000DF93CDB7DEB7CA1BDB0B0FB6F894DEBFC0
:104CB0000FBECDBF09942A88398848885F846E84E6
:104CC0007D848C849B84AA84B984C884DF80EE8030
:104CD000FD800C811B81AA81B981CE0FD11D0FB639
:104CE000F894DEBF0FBECDBFED010895A29FB001C5
:104CF000B39FC001A39F700D811D1124911DB29F10
:104D0000700D811D1124911D0895DB018F939F93D8
:104D10000E943426BF91AF91A29F800D911DA39F49
:104D2000900DB29F900D1124089597FB072E16F455
:104D3000009407D077FD09D00E94D22607FC05D049
:104D40003EF4909581959F4F0895709561957F4FA2
:104D50000895A1E21A2EAA1BBB1BFD010DC0AA1FBC
:104D6000BB1FEE1FFF1FA217B307E407F50720F0D4
:104D7000A21BB30BE40BF50B661F771F881F991F4F
:104D80001A9469F760957095809590959B01AC0198
:104D9000BD01CF0108950E947626B7FF0895821BBA
:104DA000930B0895AA1BBB1B51E107C0AA1FBB1F91
:104DB000A617B70710F0A61BB70B881F991F5A95A7
:104DC000A9F780959095BC01CD010895EE0FFF1FC6
:104DD0000590F491E02D09940F931F93CF93DF93E7
:104DE0008230910510F482E090E0E091EC03F091C4
:104DF000ED0330E020E0B0E0A0E0309799F4211519
:104E0000310509F44AC0281B390B24303105D8F587
:104E10008A819B816115710589F1FB0193838283EE
:104E2000FE0111C040815181028113814817590749
:104E3000E0F04817590799F4109761F012960C9317
:104E4000129713961C933296CF01DF91CF911F9149
:104E50000F9108950093EC031093ED03F4CF211507
:104E6000310551F04217530738F0A901DB019A01CF
:104E7000BD01DF01F801C1CFEF01F9CF9093ED0340
:104E80008093EC03CDCFFE01E20FF31F819391934A
:104E90002250310939832883D7CF2091EA033091FA
:104EA000EB03232B41F420911B0130911C01309323
:104EB000EB032093EA032091190130911A01211587
:104EC000310541F42DB73EB740911D0150911E01AF
:104ED000241B350BE091EA03F091EB03E217F30793
:104EE000A0F42E1B3F0B2817390778F0AC014E5F5A
:104EF0005F4F2417350748F04E0F5F1F5093EB03A9
:104F00004093EA03819391939FCFF0E0E0E09CCF40
:104F1000CF93DF930097E9F0FC013297138212825E
:104F2000A091EC03B091ED03ED0130E020E010978B
:104F3000A1F420813181820F931F2091EA033091E7
:104F4000EB032817390709F061C0F093EB03E093F6
:104F5000EA03DF91CF910895EA01CE17DF07E8F564
:104F60004A815B819E0141155105B1F7E901FB833F
:104F7000EA8349915991C40FD51FEC17FD0761F4DD
:104F8000808191810296840F951FE901998388831E
:104F9000828193819B838A83F0E0E0E012968D9179
:104FA0009C9113970097B9F52D913C911197CD01E4
:104FB0000296820F931F2091EA033091EB0328178A
:104FC000390739F6309751F51092ED031092EC0342
:104FD000B093EB03A093EA03BCCFD383C283408199
:104FE0005181840F951FC817D90761F44E5F5F4F39
:104FF00088819981480F591F518340838A819B8101
:10500000938382832115310509F0B0CFF093ED032E
:10501000E093EC039ECFFD01DC01C0CF138212822E
:10502000D7CFB0E0A0E0E7E1F8E20C9441268C0194
:10503000009751F4CB010E94EC268C01C801CDB73A
:10504000DEB7E0E10C945D26FC01E60FF71F9C0142
:1050500022503109E217F30708F49DC0D901CD9120
:10506000DC911197C617D70798F0C530D10530F3FA
:10507000CE0104978617970708F3C61BD70B229714
:10508000C193D1936D937C93CF010E948827D6CF93
:105090005B01AC1ABD0A4C018C0E9D1EA091EC0365
:1050A000B091ED03512C412CF12CE12C109731F5EE
:1050B0008091EA039091EB038815990509F05CC093
:1050C0004616570608F058C08091190190911A01B0
:1050D000009741F48DB79EB740911D0150911E017C
:1050E000841B950BE817F90708F055C0F093EB0304
:1050F000E093EA03F90171836083A0CF8D919C91C5
:10510000119712966C90129713967C901397A8158E
:10511000B90559F56C0142E0C40ED11CCA14DB0478
:1051200020F1AC014A195B09DA011296159780F05B
:105130006282738251834083D9016D937C93E11421
:10514000F10471F0D7011396FC93EE93129776CF8A
:1051500022968C0F9D1FF90191838083F301EFCF7D
:10516000F093ED03E093EC0369CF4816590608F479
:105170002C017D01D3019ACFCB010E94EC267C014A
:10518000009749F0AE01B8010E94D328C8010E94DF
:105190008827870153CF10E000E050CF81E090E0F6
:1051A000F8940C940829FB01DC0102C001900D92D7
:1051B00041505040D8F70895FC018191861721F0A5
:1051C0008823D9F7992708953197CF010895FB01D6
:1051D000DC0101900D920020E1F70895FB0151914F
:1051E0005523A9F0BF01DC014D9145174111E1F7AD
:1051F00059F4CD010190002049F04D914015411125
:10520000C9F3FB014111EFCF81E090E001970895D0
:1052100011E0C1E4D1E004C0FE010E94E62621961F
:0A522000C234D107C9F7F894FFCF9C
:10522A003905F5010000FFFFFFFF00E10000000063
:10523A00000000C180810000000000EE0380000031
:10524A00003100F9183000FB302C001C4726008280
:10525A005A1F006D6A170041760E00897D0400000E
:10526A000000A80EA80EA80E370D330D8C0C300DB9
:10527A0000000000ED0C910C8F0C370D330D8C0CD7
:10528A000B032B0A00000000F2056B063006150618
:10529A00000000003E0528055F055405D805640591
:1052AA00B405000000006007B606B6070E030D0A33
:1052BA000040007D007B00504B00504B5000504B8B
:1052CA004800504B4400504B5400504B473100505B
:1052DA004B473200504B473300504B473400504B3A
:1052EA004735002F003B005D002A002B00250021D6
:1052FA00005B005B31005B32005B33005B34005BB8
:04530A003500260044
:00000001FF
